:020000040800F2
:10000000601F002069230008B5210008B7210008FF
:10001000B9210008BB210008BD2100080000000034
:10002000000000000000000000000000BF210008E8
:10003000C121000800000000C3210008C5210008FC
:10004000C9230008CD230008D1230008D5230008C8
:10005000D9230008DD230008E1230008E523000878
:10006000E9230008ED230008F123000875220008A9
:10007000F5230008F9230008FD23000801240008E7
:1000800005240008092400080D2400081124000894
:1000900015240008192400081D2400082124000844
:1000A00025240008292400082D24000831240008F4
:1000B00035240008392400083D24000841240008A4
:1000C00045240008492400084D2400085124000854
:1000D00055240008592400085D2400080722000860
:1000E0006124000865240008692400084FF4C04119
:1000F0004843401C0100481E0029FBD1704710B541
:1001000000F0CCFA5FF4803000F0E8FA00F003FB76
:1001100004002000C0B201282BD1002000F038FBE1
:10012000002000F045FB4FF4806000F039FB4FF4F5
:10013000404000F049FB002000F043FB022000F0AB
:1001400039FC102000F03FFC5FF400115FF48030B8
:1001500000F000FB012000F009FB392000F0E0FB7B
:100160000028FAD0022000F006FB00F00CFB082863
:10017000FBD110BD10B504002100C9B21D2000F054
:1001800097FB2100C9B25FF4802000F09FFB10BDF7
:1001900080B500215FF0006000F00CFD4FF4A0601E
:1001A00000F0D0FC01BD80B50121DFF8980400F01B
:1001B0009EFD10208DF8030003208DF80200DFF86B
:1001C00088048188ADF800106946006800F016FDCB
:1001D00001BD70B5FFF793FFFFF7DAFF0120FFF7CE
:1001E000C9FF72B6FFF7DFFFDFF85C44A088216823
:1001F00008610A20FFF77AFF00F0C0FD00F0CCFE96
:1002000045F25555DFF844643088A84206D100F025
:10021000B1F8002802D14AF6AA2030805FF4E1301C
:1002200000F090FF00F0E6FF0021012000F0F3FF56
:1002300001F04AF8A088216848613088A84204D1BA
:100240000120DFF80C14086003E04020DFF8001400
:10025000086062B670BDDFF8F8030178890716D52B
:10026000016831F002010160DFF8E8030168491C10
:1002700001600078C00705D5DFF8CC0381880068ED
:10028000416104E0DFF8C0038188006801617047C4
:1002900038B50400002072B62568DFF8BC13294089
:1002A000B1F1005F0ED1DFF8B403211D09680160D0
:1002B000DFF8AC1300680860206880F308880868DD
:1002C000804707E00120DFF8881308600020DFF88E
:1002D0009413086062B631BD80B5DFF8740301780D
:1002E00049060FD4DFF87C13096829290AD3DFF8FF
:1002F0005C13098845F25552914203D1016851F0CF
:10030000800101600078000608D5DFF83C03818891
:1003100000684161DFF85003FFF7BAFF01BD70B517
:10032000DFF848430721200001F0F7F800280DD03E
:100330000721200001F0FFF85FF4E13000F002FF38
:1003400000F058FF0021012000F065FFC84C20009C
:1003500001F0B8F900280CD0C6480178200000F060
:1003600042F840F60C15002632002900200001F06A
:10037000DBF970BDF8B50024BF4E00250027082228
:10038000BE49300001F01AFA00281CD108200500EF
:100390002800C0B2322810DA30780700761C380006
:1003A000C0B2202803DB3800C0B2802803DB38004D
:1003B000C0B2002801D16D1CEAE72800C0B2322883
:1003C00001D1012004002000C0B2002808D107227A
:1003D000AB49AC4801F0F2F9002801D1012004003A
:1003E0002000C0B2F2BD2DE9FE4F04000D005FF009
:1003F00000095FF0000A40F60C1B0094DFF88882C9
:1004000046465A460099300001F00CFAB8F802004E
:1004100040440179B8F80200404442794FF48070BA
:10042000424352FA81F6B8F80210091F18F1080089
:1004300001F04CFA07003000390080B289B28842DE
:1004400040F0EC8098F80D008DF808000020B4F81A
:100450000B10ADF80A10BDF80A104FF6FF7291426A
:1004600006D0BDF80A0079498988884240F0E880C2
:100470009DF80800012875D0022835D0032800F027
:10048000A480042805D005280BD0F72800F0B580FB
:10049000C4E000207349086001F05CFB7B494880A0
:1004A000BCE06B48007840061DD55FF000090020D5
:1004B000002198F80F806C4A4346DBB212EB832A86
:1004C000924510D37248016851450CD11AF58061EC
:1004D0000160504601F068FC83465846C0B201F006
:1004E00011FC6A49488099E059480078400638D59F
:1004F00000210022002398F80800002831D198F844
:100500000F008DF80000D8F81090D8F814A05648C5
:10051000814526D35F491AEB09000A68904202D050
:10052000086800281DD1C1F80090DFF81CB1BBF8A5
:100530000400DBF800100861524618F11801484623
:1005400001F03DFC002807D0524649469DF80000C6
:1005500001F04AFB4D494880BBF80400DBF800106D
:1005600048615BE0DFF8248101F060FAA8F802003E
:10057000B8F8020000280BD0B8F8021018F10400F7
:1005800001F062FC0220FFF7B1FD0020A8F8020094
:100590002F480168490849000160016851F0400195
:1005A00001604AF6AA202949088000F079FD00F090
:1005B000A4FD00F012FA304801F0F6FB2A48344955
:1005C000086000203349086028E0FFF7D3FE0128C7
:1005D00012D101F075FA2D4948801D48016851F08B
:1005E0008001016045F255501849088000F058FD1F
:1005F00000F083FD00F0FAF910E0DFF890800020B1
:100600000190002000903223234A9DF8081018F131
:10061000040001F0ABF9A8F80200FFE7DFF86C80F6
:10062000B8F8020000280BD0B8F8021018F1040046
:1006300001F00AFC0220FFF759FD0020A8F8020093
:10064000BDE8F78F00023000A8230008301B00200F
:10065000381B0020441B00200000FE2F4C1B0020F4
:10066000481B0020501B00200040000800480040AC
:1006700014000020581B00200050000878230008B8
:10068000A023000880500008200900202C12002020
:100690003C1B0020401B002078220008DFF8C81215
:1006A000086850F001000860DFF8C0221368DFF826
:1006B000C002034013600B68DFF8B80203400B6010
:1006C000086830F480200860106830F4FE00106084
:1006D0005FF41F00DFF8A01208607047DFF888128F
:1006E0000A6832F480320A600A6832F480220A60B2
:1006F0000200B2F5803F03D0B2F5802F05D009E0AB
:100700000A6852F480320A6004E00A6852F4A022B7
:100710000A60FFE7704738B50020009000240025EC
:10072000312000F0FDF805000098401C0090009872
:100730004FF6FF71884203D02800C0B20028EFD0E6
:10074000312000F0EDF8002801D0012000E0002069
:10075000C0B232BD30B40023844D2C6834F47C1414
:1007600051EA000214432C6030BC70470100C9B24A
:10077000824A1160704700217C4B1A6892089200EF
:1007800002431A6070477948006810F00C00704707
:100790000021764B1A6832F0F00202431A6070476B
:1007A0000021724B1A6832F4E06202431A6070470B
:1007B00000216E4B1A6832F4605252EAC0021A608D
:1007C00070476F49086070470021684B1A6832F41F
:1007D000404202431A6070472DE9F04F01000022A9
:1007E000002500200026614FD7F800C01CF00C0C3B
:1007F0006346002B04D0042B05D0082B06D023E041
:10080000614A0A6022E0614A0A601FE03A6812F415
:1008100070123B6813F480331800920C921C150080
:10082000002804D15A4A02FB05F20A600BE03A683C
:10083000920304D5574A02FB05F20A6003E0534ACB
:1008400002FB05F20A6001E04F4A0A603C6814F0BE
:10085000F0042409DFF8409119F804E00A6832FA3C
:100860000EF24A603B6813F4E0631B0A19F8038038
:100870004A6832FA08F28A603A6812F46052D20A80
:1008800019F80290D1F804A03AFA09FAC1F80CA0BC
:100890003F6817F44047BF0BDFF800A11AF807A024
:1008A000D1F80CB0BBFBFAFBC1F810B0BDE8F08F7B
:1008B0000A00D2B2002A04D0394A136803431360F5
:1008C00003E0374A13688343136070470A00D2B2CB
:1008D000002A04D0334A13680343136003E0314A0B
:1008E00013688343136070470A00D2B2002A04D011
:1008F0002D4A13680343136003E02B4A13688343B4
:10090000136070470A00D2B2002A04D0274A136845
:100910000343136003E0254A136883431360704761
:1009200030B401000020002300250A00D2B2520991
:10093000D2B2012A02D10C48046806E0022A02D190
:100940001048046801E01A4804680B00DBB213F099
:100950001F032000D840C00701D5012000E000207F
:10096000C0B230BC704700000010024004100240CA
:100970000000FFF8FFFFF6FE081002406000424250
:10098000D80042422010024000127A00001BB7003B
:1009900000093D00808D5B00000000201000002059
:1009A000181002401C1002400C10024010100240AF
:1009B000241002400021DFF840311A6812F038029A
:1009C00002431A607047DFF830110A6832F01002F3
:1009D0000A600A6802430A607047DFF82001DFF806
:1009E00020110160DFF81C1101607047DFF8180169
:1009F000016851F080010160704770B50400042661
:100A00005FF0FF3000F086F805002800C0B204282F
:100A10001AD1DFF8F460306850F002003060DFF87F
:100A2000EC000460306850F0400030605FF0FF3050
:100A300000F070F805002800C0B2052804D0316825
:100A400041F6FD70014031602800C0B270BDF8B5BC
:100A500004000D000427002000905FF0FF3000F03C
:100A600059F806003000C0B204282DD1DFF8987084
:100A7000386850F00100386025805FF0FF3000F0EA
:100A800049F806003000C0B2042814D1A01C009020
:100A90002800000C009908805FF0FF3000F03AF861
:100AA00006003000C0B205280ED0396841F6FE704D
:100AB0000140396008E03000C0B2052804D0396830
:100AC00041F6FE70014039603000C0B2F2BD042131
:100AD0000F480268D20701D501200AE002685207D8
:100AE00001D5022005E00068C00601D5032000E022
:100AF0000420C0B2704700000020024004200240E1
:100B000023016745AB89EFCD10200240142002403D
:100B10000C20024070B504000425FFF7D8FF060042
:100B20003000C0B2012806D1002C04D0FFF7CFFF5F
:100B30000600641EF4E7002C01D1052006003000F9
:100B4000C0B270BD25490143254A11607047F0B419
:100B5000002200230F24C17800291FD020490968F2
:100B600011F4E061D1F5E061090AD1F104052B002F
:100B7000CC4045789D408678264035432D012A009B
:100B8000184D0678AA550125067816F01F06B540BF
:100B9000154E07787F1146F8275009E001210578A6
:100BA00015F01F05A940114D0678761145F826105D
:100BB000F0BC70470E4A0A4002430E4B1A60704761
:100BC000042805D10C490A6852F004020A6004E0C6
:100BD00009490A6832F004020A6070470000FA0509
:100BE0000CED00E000E400E000E100E080E100E066
:100BF00080FFFF1F08ED00E010E000E0F0B50022EC
:100C00000023002400250026002791F803C01CF0D3
:100C10000F0C91F803E05FEACE6E02D58A7852EAB3
:100C20000C0C0A7812062AD0026816000022140062
:100C3000082C23D25FF0010E1EFA04F215000A8878
:100C40002A401300AB4217D1A20015000F22AA4080
:100C50001700BE431CFA05F21643CA78282A04D1AD
:100C60001EFA04FEC0F814E006E0CA78482A03D150
:100C70001EFA04FEC0F810E0641CD9E706600A887A
:100C8000B2F5807F2EDB4268160000221400082C8B
:100C900027D25FF0010E14F108021EFA02F21500CD
:100CA0000A882A401300AB4219D1A20015000F2276
:100CB000AA401700BE431CFA05F21643CA78282A38
:100CC00004D114F108021EFA02F24261CA78482ADD
:100CD00005D114F108021EFA02FEC0F810E0641CEF
:100CE000D5E74660F0BD0A0092B202617047F0B4E9
:100CF0000022002300250027002802D51D4C24686F
:100D000001E01D4C2468C0F3034586B210F4401C7A
:100D1000BCF5401F07D134F07064174A176837F0EC
:100D20007067176011E0C20206D50322AA401300C3
:100D30009C4354F0706408E00200520DD2B21201DC
:100D400016FA02F2944354F070640A00D2B2002AF8
:100D500006D00200520DD2B2120116FA02F214436A
:100D6000002802D5034A146001E0034A1460F0BC75
:100D7000704700001C0001400400014080B50320C2
:100D80008DF8020014208DF8030081488188ADF8A9
:100D9000001069460068FFF731FF7E488188ADF892
:100DA000001069460068FFF729FF01BD0020C82137
:100DB0000800411E0028FBD170474FF4C041484352
:100DC000401C0100481E0029FBD1704710B5704C33
:100DD000A088216808616F48818800680161FFF779
:100DE000E5FF20688068002801D1012000E0002094
:100DF000217911F00101084201D0002011E0A08802
:100E000021684861FFF7D2FF20688068A188084206
:100E100001D0002005E0A08821684861FFF7C6FFE7
:100E2000012010BD38B55B4CA08821684861FFF7F0
:100E3000BDFF574DA88829684861FFF7B7FFA08814
:100E400021680861FFF7B2FFA88829680861FFF7E9
:100E5000ADFF31BD10B54F4CA08821684861FFF748
:100E6000A5FF4B48818800684161FFF79FFFA0887C
:100E700021680861FFF79AFFA08821684861FFF7A1
:100E800095FF10BD10B5434CA08821684861FFF75D
:100E90008DFF3F48818800680161FFF787FFA088C8
:100EA00021680861FFF782FFA08821684861FFF789
:100EB0007DFF10BD38B5374CA08821684861FFF729
:100EC00075FF334DA88829680861FFF76FFFA08878
:100ED00021680861FFF76AFF28688068A9880842CE
:100EE00004D0A08821684861002003E0A088216820
:100EF0004861012032BD70B5040008252800451E58
:100F0000C0B2002817D0234EB0883168486120064F
:100F100004D51F4881880068016103E01C4881886E
:100F200000684161FFF742FFB08831680861FFF750
:100F30003DFF6400E2E7174881880068416170BDA9
:100F4000F8B508240025124EB088316808612000E9
:100F5000441EC0B2002813D06D000E4FB888396807
:100F60004861FFF723FFB88839680861FFF71EFF63
:100F700030688068B1880842E9D055F00105E6E79D
:100F800004488188006841612800C0B2F2BD0000B9
:100F900090230008982300082DE9FE430025002631
:100FA000082100226C46200000F0BEFB0027644CA4
:100FB0002200082141F6F87000F059FF05002800D2
:100FC000C0B2002814D05FF000085FF000090621CD
:100FD000200000F07BFCE18802000B0092B29BB283
:100FE0009A4202D00022150001E00122150007E01C
:100FF0003220FFF7E2FE7F1C3800C0B20328D6DBA8
:101000005FF000086A4608214FF4F05000F02FFF0F
:1010100006003000C0B2002814D000275FF000099D
:101020000621684600F052FCBDF8061002000B00D5
:1010300092B29BB29A4202D00022160001E0012235
:10104000160008E03220FFF7B8FE18F1010840460C
:10105000C0B20328D6DB55EA0600C0B2002809D189
:101060004AF6AA2020800020608000F019F800F0E5
:1010700044F813E03000C0B2002802D100F03DF87F
:101080000CE02800C0B2002808D10827E9463A0041
:101090004946200000F0C6FB00F002F8BDE8F783E7
:1010A00070B500240025264E0020F0800621300077
:1010B00000F00CFCF0803200082141F6F87000F0DE
:1010C0009DFF04002000C0B2002806D03200082195
:1010D0004FF4F05000F092FF04002000C0B200284E
:1010E00008D13220FFF769FE6D1C2800C0B203282A
:1010F000E1DBFFE72000C0B270BD70B50024002521
:101100000F4E0020F0800621300000F0DFFBF08061
:10111000320008214FF4F05000F070FF040020006E
:10112000C0B2002808D13220FFF747FE6D1C28000E
:10113000C0B20328ECDBFFE72000C0B270BD0000A6
:10114000301B002030B585B00400042100226D461C
:10115000280000F0E9FA1021002201AD280000F07B
:10116000E3FA10208DF8030003208DF802003A4DB9
:10117000A888ADF8000069462868FFF73FFDA988F8
:101180002868FFF7B0FD354D280000F0C1F834485D
:101190008188ADF8001003218DF8021018218DF818
:1011A000031069460068FFF729FD2E488188ADF8D5
:1011B000001004218DF8031069460068FFF71EFD3A
:1011C00001940020ADF808000020ADF80A000020CE
:1011D000ADF80C000020ADF810000C20ADF80E00AA
:1011E00001A9280000F0DCF80121280000F04EF9E8
:1011F00005B030BD80B527208DF8000001208DF8A6
:10120000010000208DF8020001208DF803006846DF
:10121000FFF79DFC01BD70B504000D000F4E40F2BC
:10122000A551300000F0C4F92200D2B240F225519D
:10123000300000F03AF92A00D2B240F226613000C4
:1012400000F033F970BD054909880906FBD5010096
:10125000C9B2054A11807047C02300080048004009
:10126000B0230008B82300080448004010B402006E
:1012700052B2002A05D40A011D4B040064B21A556B
:1012800008E00A011B4B040064B214F00F0423446D
:1012900003F8042C10BC704710B50400601EB0F1B8
:1012A000807F01D301200EE0601E134908600F21EA
:1012B0005FF0FF30FFF7DAFF0020104908600720D9
:1012C0000F490860002010BD80B50420FFF778FCAE
:1012D0000C48FFF7E1FF00200B49086000200B4994
:1012E00008600F215FF0FF30FFF7C0FF01BD000075
:1012F00000E400E018ED00E014E000E018E000E099
:1013000010E000E0C0270900501B0020541B002003
:1013100010B50400584884420AD101214FF480409E
:10132000FFF7E2FA00214FF48040FFF7DDFA36E0E4
:10133000524884420AD101215FF40030FFF7E2FAFB
:1013400000215FF40030FFF7DDFA28E04C488442CA
:101350000AD101215FF48020FFF7D4FA00215FF465
:101360008020FFF7CFFA1AE0464884420AD10121D3
:101370005FF40020FFF7C6FA00215FF40020FFF7BA
:10138000C1FA0CE04048844209D101215FF4801089
:10139000FFF7B8FA00215FF48010FFF7B3FA10BD31
:1013A0002DE9F84F86B004000D00002600275FF0FD
:1013B00000085FF000095FF0000AA8890028A34632
:1013C000218A4CF6FF700140E888014300910098A3
:1013D0002082A1894EF6F3100140AA882889024391
:1013E00068890243114300910098A081A18A4FF6B9
:1013F000FF400140A889014300910098A08201A804
:10140000FFF7EAF91C48834501D1049900E00399EC
:10141000A089000407D5192000FB01F02A685200BA
:10142000B0FBF2F206E0192000FB01F02A689200FE
:10143000B0FBF2F26420B2FBF0F6360133001B0978
:10144000642000FB1323A089000408D5D8003230A3
:101450006427B0FBF7F010F00700064307E018011F
:1014600032306427B0FBF7F010F00F0006432681FE
:1014700007B0BDE8F08F0000003801400044004094
:1014800000480040004C0040005000400A00D2B22A
:10149000002A04D0828952F40052828104E08389B8
:1014A0004DF6FF721340838170472DE9F041002310
:1014B000002500275FF0000E0C0040F66A16A4B26B
:1014C000B44280460C00E4B26409E4B20E00B6B245
:1014D00016F01F065FF0010C1CFA06FC012C02D16D
:1014E00018F10C0806E0022C02D118F1100801E0F6
:1014F00018F114081300DBB2002B06D0D8F8003026
:101500005CEA0303C8F8003005E0D8F8003033EA9D
:101510000C03C8F80030BDE8F08102000023080089
:1015200080B2B0F5007F1088084201D0012000E0B1
:101530000020C0B270470A0092B292050A0092B22F
:10154000D24302807047F0B404000027002000223C
:1015500000260B0040F66A159BB2AB420D00EDB2BF
:101560006D09EDB20B009BB213F01F035FF0010C8D
:101570001CFA03F3012D02D1A089034006E0022DDD
:1015800002D1208A034001E0A08A03400A0092B2FF
:10159000120A92B21CFA02F220880240002B03D0F9
:1015A000002A01D0012000E00020C0B2F0BC70474A
:1015B00070B4002200240B0040F66A159BB2AB42C7
:1015C0000B009BB21B0A01259D402E00B6B2F643CC
:1015D000068070BC70470A78002A06D0812A0DD098
:1015E000822A1ED0842A3DD068E00200D2B27E2A30
:1015F00003D181220A707E228A715FE00200D2B29A
:10160000552A04D182220A705522CA7108E00200CC
:10161000D2B27E2A02D181220A7001E000220A7031
:101620004CE00200D2B2082A0DDB0200D2B2F12A4D
:1016300009DA84220A700200D2B2D21C8A800872AF
:1016400003224A800DE00200D2B2002A07D1842290
:101650000A7014228A80087203224A8001E0002264
:101660000A702BE00A7A002A1CD14A880E2A04D17B
:101670008A8852FA80F28A8014E04A880F2A06D1BA
:101680008A880300DBB21B029A188A800AE04A8823
:10169000102A02D18A888A8004E04A88112A01D15E
:1016A0008A888A804A88531C4B8092B20A4490717F
:1016B0004A888B889A4201D306220A700022C1F818
:1016C00008297047010000200A78052A08D14A88B5
:1016D000092A02DB0122100007E000220A7004E060
:1016E0000A78062A01D101221000C0B2704730B436
:1016F000002513E050F8042BD30744BFA9F10103E0
:101700009A18091F042942F8045BFAD213468C0781
:1017100044BF15809B1CC90748BF1D7050F8041BAF
:101720000029E7D130BC704762F30F2262F31F42F9
:10173000401810F0030308D0C91A1FD3DB0748BFB5
:1017400000F8012D28BF20F8022D130030B41446F4
:101750001546103928BF20E93C00FAD8490728BFB0
:1017600020E90C0048BF40F8042D890028BF20F86C
:10177000022D48BF00F8012D30BC7047C91818BFB2
:1017800000F8012DCB0728BF00F8012D704730B4B9
:101790000EE00268436802440830DC0744BFA9F148
:1017A0000104E31852F8045B43F8045B091FF9D104
:1017B00050F8041B0029ECD130BC70470300002016
:1017C00013F0030F09D0521E22BF13F8010B11F8BA
:1017D00001CBB0EB0C00F3D0704711F0030F14D124
:1017E000121F22BF53F8040B51F804CB6045F7D009
:1017F000121D0AD200BA9CFA8CFCB0EB0C0038BF68
:101800006FF0000088BF01207047521E22BF13F8FE
:10181000010B11F801CBB0EB0C00F6D0521C08BF45
:101820001046704762B38B0708D0521E11F8013B77
:1018300000F8013B00F024808B07F6D1830740F0CD
:10184000208000BF103A07D330B4B1E83810103A06
:10185000A0E83810F9D230BC530724BFB1E8081013
:10186000A0E8081044BF51F8043B40F8043BD207FD
:1018700024BF31F8022B20F8022B44BF0B780370F1
:101880007047121F17D35B0009D151F8043B20F8B1
:10189000023B1B0C121F20F8023BF6D20BE051F862
:1018A000043B00F8013B1B0A20F8023B1B0C121FF3
:1018B00000F8013BF3D238BF121D521E24BF11F8AD
:1018C000013B00F8013BF8D87047000070B40300FA
:1018D0000022002400264FF6FF7000258D4214D20E
:1018E0005A5D504000221600082E0CD2C20706D5C1
:1018F00080B2020048F2084090EA520001E080B253
:101900004008761CF0E76D1CE8E780B2C04380B267
:1019100070BC704770B403000022002600244FF60C
:10192000FF7000252A000E0092B2B6B2B24218D261
:101930002A0092B29A5C504000221400220092B217
:10194000082A0CDAC20706D580B2020048F2084025
:1019500090EA520001E080B24008641CEEE76D1C82
:10196000E0E780B2C04380B270BC70472DE9F74F0A
:1019700082B0070098460E9C0F9D00260020ADF80F
:1019800004007E20B855761C5520B855761C18F1F9
:101990000B00B855761C0120B855761C0020B855B0
:1019A000761C0020B855761C0020B855761C1F20E8
:1019B000B855761C9DF80C00B855761C0020B8551B
:1019C000761C2000C0B200280CD1C1465FFA89F90C
:1019D0000498009007EB060A4A4600995046FFF724
:1019E00021FF0BE0C1465FFA89F95FF0000A07EBBF
:1019F000060B524649465846FFF796FE56FA88F6B9
:101A0000BC55761CBD55761CB878411E89B2B81CF1
:101A1000FFF780FF0100B955761C080080B2000A6C
:101A2000B855761C300005B0BDE8F08F70B50026C3
:101A30000024DC4D7E2005EB06010871761C552044
:101A400005EB06010871761C092005EB06010871FB
:101A5000761C012005EB06010871761C002005EBC1
:101A600006010871761C002005EB06010871761C42
:101A7000002005EB06010871761C1F2005EB06010E
:101A80000871761C012005EB06010871761C002008
:101A900005EB06010871761CA879411E89B2A81DC4
:101AA000FFF738FF010005EB06000171761C080006
:101AB00080B2000A05EB06021071761C300070BD82
:101AC00070B500260024B74D7E2005EB0601087195
:101AD000761C552005EB06010871761C092005EBE4
:101AE00006010871761C012005EB06010871761CC1
:101AF000002005EB06010871761C002005EB0601AD
:101B00000871761C002005EB06010871761C1F2069
:101B100005EB06010871761C032005EB0601087130
:101B2000761C002005EB06010871761CA879411E81
:101B300089B2A81DFFF7EEFE010005EB060001715A
:101B4000761C080080B2000A05EB06021071761CB4
:101B5000300070BD70B500260024924D7E2005EB4C
:101B600006010871761C552005EB06010871761CEC
:101B7000092005EB06010871761C012005EB060122
:101B80000871761C002005EB06010871761C002008
:101B900005EB06010871761C002005EB06010871B3
:101BA000761C1F2005EB06010871761C042005EB4E
:101BB00006010871761C002005EB06010871761CF1
:101BC000A879411E89B2A81DFFF7A4FE010005EB0C
:101BD00006000171761C080080B2000A05EB0602BF
:101BE0001071761C300070BD2DE9F84304000D0023
:101BF000160000275FF00008DFF8A8917E2009EBAF
:101C0000070108717F1C552009EB070108717F1C33
:101C1000002009EB070108717F1C012009EB070177
:101C200008717F1C002009EB070108717F1C002050
:101C300009EB070108717F1C002009EB07010871FF
:101C40007F1C1F2009EB070108717F1C022009EB94
:101C5000070108717F1C002009EB070108717F1C38
:101C600009EB070004717F1C09EB070005717F1C5D
:101C70002800000A09EB070108717F1C2800000CEE
:101C800009EB070108717F1C2800000E09EB070112
:101C900008717F1C09EB070006717F1C3000000AE9
:101CA00009EB070108717F1C3000000C09EB0701EC
:101CB00008717F1C3000000E09EB070108717F1CC2
:101CC0002000C0B2002807D0320009EB0700011D38
:101CD000280000F09AF8F7193800811E89B219F12E
:101CE0000600FFF717FE010009EB070001717F1CDA
:101CF000080080B2000A09EB070210717F1C38004F
:101D0000BDE8F283F8B5040000270025254E7E20AB
:101D100006EB070108717F1C552006EB07010871CF
:101D20007F1C0A2006EB070108717F1C012006EBCF
:101D3000070108717F1C002006EB070108717F1C5A
:101D4000002006EB070108717F1C002006EB07014D
:101D500008717F1C1F2006EB070108717F1C0520FE
:101D600006EB070108717F1C002006EB07010871D4
:101D70007F1C06EB070004717F1CB079411E89B2FD
:101D8000B01DFFF7C7FD010006EB070001717F1CC6
:101D9000080080B2000A06EB070210717F1C3800B1
:101DA000F2BD00002C12002010B504002000FEF748
:101DB00024FE042801D1012000E0002010BD2DE9FF
:101DC000F04704000D0016000020002101275FF0FD
:101DD0000108A9465FF0000AB24512D250468008B9
:101DE00059F820101AEB0400FEF731FE0700380006
:101DF000C0B2042802D00020804602E01AF1040A92
:101E0000EAE74046C0B2BDE8F0872DE9F84F04008C
:101E10000D00160000275FF000085FF000095FF07A
:101E2000010A0094AB46FEF7D8FD0021B1EB960FF6
:101E300006D2009850F821004BF82100491CF5E724
:101E40005046C0B2BDE8F28F70B504000D0000200E
:101E500000263000290080B289B2884206D23000C4
:101E600080B2205CFFF7EFF9761CF2E770BD2DE938
:101E7000F04104000D0016005FF001080027280063
:101E800080B2002860D0FEF7A1FF002801D1002019
:101E900080464046C0B2002808D0A020FFF72BF8AB
:101EA000FFF708F8002801D1002080464046C0B264
:101EB000002808D0200080B2000AC0B2FFF71BF84B
:101EC000FEF7F8FF80464046C0B2002806D020004A
:101ED000C0B2FFF710F8FEF7EDFF80464046C0B2F3
:101EE000002805D0FEF772FF002801D100208046AF
:101EF0004046C0B2002808D0A120FEF7FCFFFEF744
:101F0000D9FF002801D1002080466D1E4046C0B296
:101F1000002817D0002007003800290080B289B2BD
:101F2000884208D2FFF70CF8390089B27054FEF7E6
:101F300091FF7F1CF0E7FFF703F8390089B2705476
:101F4000FEF7A0FFFEF76EFF4046C0B2BDE8F0818D
:101F50002DE9F04104000D00160000275FF0010894
:101F6000280080B2002842D0FEF730FF002801D1BF
:101F7000002080464046C0B2002808D0A020FEF7CE
:101F8000BAFFFEF797FF002801D1002080464046A7
:101F9000C0B2002808D0200080B2000AC0B2FEF70C
:101FA000AAFFFEF787FF80464046C0B2002806D051
:101FB0002000C0B2FEF79FFFFEF77CFF80460020A6
:101FC00007003800290080B289B288420DD240460D
:101FD000C0B2002807D0380080B2305CFEF78BFF1B
:101FE000FEF768FF80467F1CEBE7FEF71BFF05202E
:101FF000FEF7E3FE4046C0B2BDE8F0812DE9F047B0
:1020000004000D00160000275FF000085FF0000AD2
:10201000200010F01F0F1BD014F01F00D0F1200083
:1020200007002800390080B289B2884200D22F0010
:10203000404680B206EB0002390089B218EB04007A
:1020400080B2FFF785FF8146ED1B17EB080801E022
:102050005FF001094846C0B200281FD0280080B2B6
:1020600000281BD0202007002800390080B289B248
:10207000884200D22F00404680B206EB00023900B1
:1020800089B218EB040080B2FFF762FF8146ED1BB6
:1020900017EB08084846C0B20028DFD14846C0B256
:1020A000BDE8F08780B53D49086850F00100086040
:1020B0003B4A13683B48034013600B683A480340AF
:1020C0000B60086830F480200860106830F4FE006F
:1020D00010605FF41F003549086000F001F801BD91
:1020E00080B500F001F801BD82B000200190002011
:1020F00000902A49086850F480300860086810F49D
:10210000003000900198401C01900098002804D1F4
:1021100001984FF6FF729042F0D10868800302D513
:102120000120009001E0002000900098012831D1AA
:102130001F48026852F01002026002689208920082
:102140000260026852F002020260154802680260F2
:1021500002680260026852F480620260026832F42F
:102160007C120260026852F4A02202600A6852F0F7
:1021700080720A600A689201FCD5016889088900AA
:102180000160016851F002010160016811F00C0169
:102190000829FAD102B07047000000000010024088
:1021A000041002400000FFF8FFFFF6FE0810024096
:1021B000002002407047FEE7FEE7FEE7FEE77047BB
:1021C0007047704725480168491C01600068152167
:1021D000B0FBF1F201FB1200002804D12048016895
:1021E00051F0020101601F48017809060AD5D0F8B4
:1021F0000819491DC0F80819D0F808190A2901D38F
:1022000005210170704770B5174C40F22555290023
:102210002000FFF798F900280FD00026012013496D
:10222000087029002000FFF7C3F9114805880D49FF
:102230002800C0B2FFF7CFF90AE04FF45871200030
:10224000FFF781F9002803D009480088C005C00DB8
:10225000208810F47C40208070BD0000501B0020BE
:10226000381B00201400002000480040581B0020AC
:102270000448004070470000426F6F742056332EB0
:10228000315F3232303332363030204744333246D9
:10229000337878000000000000000000000000001B
:1022A00000000000000000000000000010B5074919
:1022B00079441831064C7C44163404E00A68081D41
:1022C000114488470146A142F8D110BD0800000022
:1022D000280000001BF4FFFF481B00001400002032
:1022E00000000000ABF4FFFF1400000068000000D5
:1022F000000000200000000000F00DF8002801D0D0
:10230000FFF7D4FFAFF300800020AFF3008000F0B0
:1023100004F800F00CF80120704780B5FDF759FF74
:10232000FDF799FFFDF7D8FFFDF7F9FFF8E700F09B
:1023300001B800000746384600F002F8FBE700004D
:1023400080B5AFF30080024A11001820ABBEFBE756
:102350002600020000000000010203040102030441
:10236000060708090204060801488047014800479B
:10237000A520000885230008204353313131302047
:1023800000000000AFF30080AFF30080FFF7B4FF60
:10239000000C014080000000000C014040000000E3
:1023A000473233303230300000100140040000006A
:1023B000000C014000040000000C01400008000077
:1023C0000010014020000000FFF7FEBFFFF7FEBF36
:1023D000FFF7FEBFFFF7FEBFFFF7FEBFFFF7FEBF31
:1023E000FFF7FEBFFFF7FEBFFFF7FEBFFFF7FEBF21
:1023F000FFF7FEBFFFF7FEBFFFF7FEBFFFF7FEBF11
:10240000FFF7FEBFFFF7FEBFFFF7FEBFFFF7FEBF00
:10241000FFF7FEBFFFF7FEBFFFF7FEBFFFF7FEBFF0
:10242000FFF7FEBFFFF7FEBFFFF7FEBFFFF7FEBFE0
:10243000FFF7FEBFFFF7FEBFFFF7FEBFFFF7FEBFD0
:10244000FFF7FEBFFFF7FEBFFFF7FEBFFFF7FEBFC0
:10245000FFF7FEBFFFF7FEBFFFF7FEBFFFF7FEBFB0
:0C246000FFF7FEBFFFF7FEBFFFF7FEBF57
:040000050800238547
:00000001FF
