:020000040800F2
:10400000785A0020EDEA000801E5000803E5000801
:1040100005E5000807E5000809E5000800000000C4
:104020000000000000000000000000000BE5000898
:104030000DE50008000000000FE5000811E500088C
:1040400049EC00084DEC000851EC0008E7E60008D8
:1040500055EC000859EC00085DEC000861EC000824
:1040600065EC000869EC00086DEC000871EC0008D4
:1040700075EC000879EC000843E600081FE600082C
:10408000A7E50008CBE500087DEC000881EC0008FE
:1040900085EC000889EC00088DEC000891EC000824
:1040A00095EC000899EC00089DEC0008A1EC0008D4
:1040B000A5EC0008A9EC0008ADEC0008B1EC000884
:1040C000B5EC0008B9EC0008BDEC0008C1EC000834
:1040D000C5EC0008E5E500086DE5000865E60008A8
:1040E000C9EC0008CDEC0008D1EC0008D5EC0008C4
:1040F000D9EC0008DDEC0008E1EC0008E5EC000874
:10410000E9EC0008EDEC0008F1EC0008F5EC000823
:1041100037E50008A5E60008F9EC0008FDEC00080A
:1041200001ED000805ED000809ED00080DED00089F
:1041300062F30F2262F31F42401810F0030308D00D
:10414000C91A1FD3DB0748BF00F8012D28BF20F88C
:10415000022D130030B414461546103928BF20E94B
:104160003C00FAD8490728BF20E90C0048BF40F8B6
:10417000042D890028BF20F8022D48BF00F8012D2A
:1041800030BC7047C91818BF00F8012DCB0728BFF5
:1041900000F8012D704700000022FFF7CDBFF009A5
:1041A00008CEB4B0F3B6A8CDD0C5CC000143010110
:1041B0001C51072003000102030404F0090806074C
:1041C000080902040608AA9C000452FF01E3E286E3
:1041D0001420040000D299000854F0031644000093
:1041E0002000012002C58300082C43B3833C210139
:0641F0000002010105FFC1
:105000002043533131313020323330373034303572
:105010002047323330323030000000000000000002
:105020000000000000000000000000000000000080
:0250300000007E
:105034002DE9F0476C240025DFF8E8662A002100FA
:105044003000FFF773F840F624060027DFF8D8860F
:105054003A0031004046FFF769F840F638285FF01F
:105064000009DFF8C8A64A4641465046FFF75EF8F5
:1050740000F014F8002804D00320DFF8B4164870B8
:1050840003E00220DFF8A8164870DFF89406002138
:105094008170007801F077FFBDE8F0872DE9F047D3
:1050A4005FF0000800240025DFF874663200182140
:1050B400002002F03FFC07003800C0B2002810D0E6
:1050C4005FF000085FF000091421300002F04EFD8B
:1050D400716902000B0092B29BB29A4201D0002285
:1050E4001700320018214FF4807002F023FC804630
:1050F4004046C0B200280FD000245FF000091421FC
:10510400300002F033FD716902000B0092B29BB2D1
:105114009A4201D00022904658EA0700C0B2002803
:1051240021D118245FF00009B2464A4621005046B6
:10513400FEF7FCFF0020B070002070700120B081E9
:10514400C0207071A820B0710220F0710A20307262
:105154000120F07000203071002030703220306166
:1051640000F068F826E03800C0B201280FD14046AC
:10517400C0B200280BD132001821002002F0DAFB63
:10518400320018214FF4807002F09BFC12E03800CA
:10519400C0B200280ED14046C0B201280AD1320064
:1051A40018214FF4807002F0C5FB32001821002052
:1051B40002F087FC02F0FEFC45F25550DFF874154E
:1051C4000A88824208D14A88737A9BB29A4203D1F0
:1051D4008A88B3899A4206D00880B089888002F010
:1051E4006DFD02F098FD3800C0B2012805D140469B
:1051F400C0B2012801D1012005002800C0B2BDE8D9
:10520400F08710B50024DFF830253C214FF4C87036
:1052140002F090FBC0B210BDF8B504000D001600FA
:1052240000273200290089B2200080B202F082FBFC
:10523400C0B2F2BD70B50024DFF8E46400207061F0
:105244001421300002F092FC706132001821002019
:1052540002F037FC0500320018214FF4807002F090
:1052640030FCC0B270BD38B50024DFF8CC54002047
:10527400A8633821280002F079FCA8632A003C21A5
:105284004FF4C87002F01DFCC0B232BDF8B5040082
:105294000D00160000273200290089B2200080B2D8
:1052A40002F00FFCC0B2F2BD30B401008024002033
:1052B400002200250023180080B232281ADA0020C8
:1052C40002001000C0B2082812DA180080B2085C8C
:1052D400204202D0280080B20DE0E4B264086D1CC4
:1052E4002000C0B2002801D180200400521CE8E74D
:1052F4005B1CE0E7002030BC704730B40100802420
:1053040000200025002200231D00ADB2322D17DA43
:1053140000252A001500EDB2082D0FDA1D00ADB2EC
:105324004D5D254200D0401CE4B264082500EDB276
:10533400002D01D180252C00521CEBE75B1CE3E718
:1053440080B230BC704730B40100802400200022B9
:1053540000250023180080B232281ADA0020020047
:105364001000C0B2082812DA180080B2085C20428B
:1053740002D1280080B20DE0E4B264086D1C200064
:10538400C0B2002801D180200400521CE8E75B1C55
:10539400E0E7002030BC704710B58AB0040002A8D2
:1053A4002021FEF7F7FE207A0190E0790090A3799E
:1053B4006279DFF8DC1C02A802F0F0FC0020009007
:1053C400002302AA1E2141F2100002F00DFE207AF1
:1053D4000190E0790090A3796279DFF8B81C02A803
:1053E40002F0DCFC00200090002302AA142141F208
:1053F400300002F0F9FD0AB010BD2DE9F84F94B069
:1054040004000D000026002750210022E8464046F3
:10541400FEF78CFE002194F81380D5F82008401C78
:10542400C5F82008D5F81008401CC5F8100885F800
:105434000B884046C0B2002877D0DFF85C1C08789F
:10544400002804D10320DFF8542C107003E0052059
:10545400DFF8482C1070D5F81C08401CC5F81C084F
:105464004046C0B201284FD100200870D5F8140876
:10547400401CC5F814080020C5F818085FF0080996
:1054840014F1140AEB464A465146584602F03CFFD2
:10549400DFF8080CD5F81418027891420DD10120D8
:1054A40085F80C085FF00809EA4605F6020B4A463F
:1054B4005146584602F028FF46E00078D5F8141803
:1054C400884241D2022085F80C08002007003800E9
:1054D400C0B2082838DA3800C0B2284490F802086C
:1054E40069463A00D2B2895C88420BD00020C5F8E4
:1054F4001408D5F818080C30C5F81808042085F8E5
:105504000C0821E07F1CE2E7012008700020C5F8A8
:105514001408D5F818080C30C5F81808042085F8C4
:105524000C08082085F80D080EE0D5F81808401C72
:10553400C5F81808D5F818080C2805D30020C5F8B4
:105544001408042085F80C083000C0B215B0BDE87A
:10555400F08F2DE9F8438AB004000D0002A8202141
:10556400FEF718FE5FF000080026DFF8BC91D9F8BA
:105574001C0802F02BFF0700D9F8200802F026FFD0
:105584000100380002F030FFDFF8841C02F0AAFFAB
:1055940003F014F80700DFF87C1C0878002805D114
:1055A4004A695DA102A802F0F9FB04E0DFF8681C77
:1055B40002A802F0F3FB38004FF6FF7180B2884274
:1055C40002D142F21070070000200090012302AAC9
:1055D400082141F2102002F007FD99F80B28DFF8AA
:1055E4003C1C02A802F0DAFB00200090002302AA6F
:1055F400032141F2502002F0F7FCD9F8202847A1FA
:1056040002A802F0CBFB00200090012302AA08218B
:105614004FF4915002F0E8FC3A0092B2642092FBFD
:10562400F0F100FB11220A23BC461FFA8CFC5FF048
:10563400640E380080B24FF47A7192FBF3F803FBE6
:10564400182201929CFBFEF20EFB12CC0A229CFB58
:10565400F2F2009290FBF1F201FB1200642190FB44
:10566400F1F3380080B24FF47A7190FBF1F2DFF875
:10567400FC1C02A802F092FB00200090012302AA65
:10568400082141F2302002F0AFFC3000C0B20BB070
:10569400BDE8F083F0B589B00400DFF8D40C0178DC
:1056A4002200D2B2914234D004700078002817D17D
:1056B4002025DFF8C06C01AF2A003100380002F069
:1056C40023FEF82142F2602002F07AFC00200090D0
:1056D400012301AA20214FF4935002F085FC19E024
:1056E4002025DFF8946C01AF2A003100380002F065
:1056F4000BFE4EF2070142F2602002F061FC002032
:105704000090012301AA20214FF4935002F06CFC75
:1057140000E0047009B0F0BD256467002564000052
:10572400103A00207437002038150020C8000020EB
:10573400643A0020343A00201C3900201FB50400CC
:1057440001A80821FEF726FD607E002808D0022863
:1057540079D03ED3042800F0ED80C0F0AF8025E17D
:1057640000200090002301AA08214FF4835002F086
:105774003BFC00200090002301AA082141F27000A4
:1057840002F032FC00200090002301AA08214FF40B
:10579400845002F029FC00200090002301AA082173
:1057A40041F2900002F020FC4FF44151022002F03B
:1057B400F2FB43F25001022002F0EDFB43F26001E0
:1057C400022002F0E8FB43F27001022002F0E3FB46
:1057D400ECE000200090002314F1280208214FF48B
:1057E400835002F001FC00200090002301AA08214C
:1057F40041F2700002F0F8FB00200090002301AA9F
:1058040008214FF4845002F0EFFB002000900023A5
:1058140001AA082141F2900002F0E6FB4FF4415145
:10582400002002F0B8FB43F25001022002F0B3FB67
:1058340043F26001022002F0AEFB43F27001022049
:1058440002F0A9FBB2E000200090002314F128022A
:1058540008214FF4835002F0C7FB0020009000237E
:1058640014F13002082141F2700002F0BDFB002067
:105874000090002301AA08214FF4845002F0B4FBE5
:1058840000200090002301AA082141F2900002F0B8
:10589400ABFB4FF44151002002F07DFB43F2500179
:1058A400002002F078FB43F26001022002F073FB57
:1058B40043F27001022002F06EFB77E000200090BA
:1058C400002314F1280208214FF4835002F08CFBCA
:1058D40000200090002314F13002082141F27000EE
:1058E40002F082FB00200090002314F1380208210A
:1058F4004FF4845002F078FB00200090002301AAAA
:10590400082141F2900002F06FFB4FF44151002056
:1059140002F041FB43F25001002002F03CFB43F251
:105924006001002002F037FB43F27001022002F014
:1059340032FB3BE000200090002314F128020821F0
:105944004FF4835002F050FB00200090002314F128
:105954003002082141F2700002F046FB0020009062
:10596400002314F1380208214FF4845002F03CFB68
:1059740000200090002314F14002082141F290001D
:1059840002F032FB4FF44151002002F004FB43F2D9
:105994005001002002F0FFFA43F26001002002F0FF
:1059A400FAFA43F27001002002F0F5FA1FBD2DE966
:1059B400F24F8EB004000027002600208DF801006D
:1059C4005FF00008002500200490B4F80500ADF84D
:1059D40002005FF0040914F1090A0DF1100B4A46A4
:1059E4005146584602F090FCBDF802004FF6FF7194
:1059F400884208D0BDF80200DFF8841C89898842F7
:105A040001D00020CDE2DFF87C6CB4F80300A6F8E6
:105A14002C0A00203080E0798DF800009DF8000009
:105A24001F2802D1207A8DF800009DF8000086F826
:105A3400280A002086F8240A002086F8260A012075
:105A4400DFF8441C0870DFF8440C0068DFF8401CE1
:105A54000860A078002802D1B4F8097003E0BDF80A
:105A64003800B0F10B079DF8000004281BD0202853
:105A740041D0212800F07F80222800F08F81232844
:105A840000F0D481252800F08880322800F0678255
:105A9400F72813D0F8281DD0FE2800F06182FF28D3
:105AA40000F0368269E2380080B2002805D1320065
:105AB4000021002000F0F4FA30805EE2380080B269
:105AC400002806D132003221DFF8840D00F0E8FA14
:105AD400308052E2380080B200280CD1002086F8D1
:105AE400240A002086F8260A32000C21DFF8640D0F
:105AF40000F0D6FA3080380080B207283BD1A07A73
:105B0400002808D0A07A0A2802D1E07A002802D01E
:105B1400E07A012822D1DFF8688B607A88F80A00DD
:105B2400A07A88F80000E07A88F804005FF004099D
:105B340014F10C0A18F1100B4A465146584602F06B
:105B4400E3FB002086F8240A002086F8260AFFF7E3
:105B540071FB98F8000001F016FA05E0012086F8C0
:105B6400240A042086F8260ADFF8142B31000020CA
:105B740000F090FD3080380080B200280CD1002065
:105B840086F8240A002086F8260ADFF8F42A310071
:105B9400012000F07FFD3080EFE1380080B20D2855
:105BA400C0F2FB8000200190DFF8AC0C90F80C08E8
:105BB400800700F1E480607B402880F2E680607B0F
:105BC4002044807B242880F2E08048200B90002031
:105BD4000A90DFF8888CC1460A9A0B994846FEF76A
:105BE400A5FA607B401C099014F10D000890DFF8C1
:105BF40070BCD946099A0899484602F085FB41468B
:105C0400607B20440E3000F031FE88F81900042037
:105C14000790607B2044617B2144897B08440F30DA
:105C2400069018F12009079A0699484602F06CFB81
:105C340002200590607B2044617B2144897B0844D9
:105C44001330029018F11C09059A0299484602F093
:105C54005BFB607B2044617B2144897B0844407D5D
:105C640088F81A00DFF8FC9BDFF8FCAB18225946D1
:105C7400504602F0BDFC002823D1082218F1280167
:105C840019F1340002F0B4FC00281AD1042218F1EE
:105C9400200119F12C0002F0ABFC002811D10222E2
:105CA40018F11C0119F1280002F0A2FC002808D107
:105CB400012218F11A0119F1260002F099FC0028BA
:105CC4003BD018200990CDF820B0CDF808A0099A4F
:105CD4000899029802F018FB02980420079018F122
:105CE4002000069019F12C0A079A0699504602F0F2
:105CF4000BFB5FF0020A18F11C00059019F1280B48
:105D040052460599584602F0FFFA5FF0010B18F16C
:105D14001A00029019F126085A460299404602F0E8
:105D2400F3FA19F10C01607B20440E3000F09EFD63
:105D340089F82500012089F80C005FF0040814F1AB
:105D440009090DF1040A42464946504602F0DCFABC
:105D5400002086F8240A002086F8260A019802F01A
:105D6400B1FCDFF8780D0178032902D001780D2900
:105D74000BD10178152908D00021417005E00120DC
:105D840086F8240A042086F8260ADFF88804426983
:105D94000199300000F0BFFB3080EEE0380080B2A3
:105DA400152842D1207F05002800C0B200282BD13D
:105DB400042216F5236114F1120002F019FC0028E4
:105DC40022D15FF0040814F11609DFF898AA1AF139
:105DD4005C0B42464946584602F096FA04208AF87B
:105DE4005500A07ECAF80400A07E8AF86100E07E17
:105DF4008AF86000002086F8240A002086F8260A23
:105E0400042086F82B0A0AE00120DFF8581A81F8EA
:105E14005500012086F8240A042086F8260A320058
:105E24000021002000F03CF93080A6E0380080B268
:105E340002286CDBA07D0500002003905FF0FF309A
:105E44005FF0FF31CDE90C012800C0B2002814D165
:105E5400DFF88C8C042218F1130114F1120002F003
:105E6400C7FB002809D1002086F8240A002086F800
:105E7400260A012088F8270A43E02800C0B2002837
:105E840014D1042216F5236114F1120002F0B0FBC0
:105E940000280BD1002086F8240A002086F8260A60
:105EA4000120DFF83C1C81F8270A2AE008220CA90B
:105EB40014F10A0002F09CFB002817D1042203A964
:105EC40014F1120002F094FB00280FD12800C0B294
:105ED40000280BD1002086F8240A002086F8260A20
:105EE4000120DFF8FC1B81F8270A0AE00120DFF813
:105EF400741981F85500012086F8240A042086F8D4
:105F0400260A32000021002000F0CAF8308034E074
:105F1400380080B2022821DB002086F8240A002001
:105F240086F8260A012086F8270ADFF85487607865
:105F340088F80500607888F80600607888F807001B
:105F4400607888F80800FFF775F94046FFF724FAEF
:105F540032000021002000F0A3F830800DE00CE0B6
:105F6400380080B2002808D0607AC00705D5DFF871
:105F7400740B016851F001010160308800280FD1D1
:105F84009DF8010000280BD1012086F8240A042082
:105F940086F8260A32000021002000F081F83080C3
:105FA40030880FB0BDE8F08F2DE9F84F04000D00E4
:105FB40016000022002000210027B4F80580434683
:105FC4009BB24FF6FF7C634508D04046DFF8B036FD
:105FD4009B8980B2984201D0002057E0DFF8A49654
:105FE400B4F80300A9F82C0A0020A9F8000094F8DA
:105FF40007A0A078002802D1B4F809B001E0B6F1F6
:106004000B0B5046C0B204280AD0302814D03128D3
:1060140019D0322818D0342817D0FE2816D022E000
:10602400584680B2002806D14A460021002000F0DC
:1060340037F8A9F8000016E0584680B2002801D0CD
:10604400012007000FE00EE00DE00CE0584680B29E
:10605400002808D0607A002805D1DFF8880A016892
:10606400490849000160B9F8000000280CD101205A
:1060740089F8240A042089F8260A4A4600210020C7
:1060840000F00EF8A9F800003800C0B2BDE8F28FA5
:10609400A0EA0008FCEA0008703A0020C6000020CC
:1060A4002DE9F84F05000E00170000245FF00008EA
:1060B400002087F82A0A7E20210089B2394488709A
:1060C400641C5520210089B239448870641C002066
:1060D400210089B239448870641CDFF8A4058189E1
:1060E400220092B23A449170641C808980B2000A02
:1060F400210089B239448870641CB7F82C0A210045
:1061040089B239448870641CB7F82C0A80B2000A3A
:10611400210089B239448870641C1F20210089B28F
:1061240039448870641C97F8280A210089B23944DC
:106134008870641C3000C0B2F1281BDB200080B2E0
:1061440038448670641C0020210089B23944887068
:10615400641CB1465FFA89F9AA46200080B238442B
:1061640010F1020B4A465146584602F0CDF854FA53
:1061740086F434E097F8240A00280ED1B1465FFA79
:1061840089F9AA46200080B2384410F1020B4A462D
:106194005146584602F0B8F80EE0B1465FFA89F964
:1061A4005FF0000A200080B2384410F1020B52461E
:1061B40049465846FDF7BAFF54FA86F497F8240A7C
:1061C400210089B239448870641C97F8260A21009A
:1061D40089B239448870641C2000401E3871210043
:1061E40089B2891E381D01F0C1FC0100200080B273
:1061F40038448170641C080080B2000A220092B204
:106204003A449070641C3C802000C0B2BDE8F28F18
:1062140000401C46E8360020A0EB0008A8EB00086C
:106224002DE9F84F04000D0016005FF0000B002765
:10623400012085F82A0AC5F8306A7E20594689B2B9
:10624400294488701BF1010B5520594689B2294411
:1062540088701BF1010B0020594689B229448870CB
:106264001BF1010BDFF8180481895A4692B22A44C3
:1062740091701BF1010B808980B2000A594689B2E2
:10628400294488701BF1010BB5F82C0A594689B2D0
:10629400294488701BF1010BB5F82C0A80B2000A5E
:1062A400594689B2294488701BF1010B22205946B2
:1062B40089B2294488701BF1010B0020594689B228
:1062C400294488701BF1010B5FF00808A146584669
:1062D40080B2284410F1020A42464946504602F070
:1062E40013F81BF1080B584680B2284486701BF142
:1062F400010B3000000A594689B2294488701BF109
:10630400010B3000000C594689B2294488701BF1F6
:10631400010B3000000E594689B2294488701BF1E4
:10632400010B5846401E2871594689B2891E281D02
:1063340001F01CFC8246594689B2891E281D01F0D1
:1063440015FC0100584680B2284481701BF1010BF2
:1063540058460A0092B2120A03009BB22B449A7068
:10636400401C2880C0B2BDE8F28F000008EB000892
:10637400C7000020B0EB0008B8EB00082DE9FE4F81
:1063840004000D0016001F00DDF830805FF0000BE4
:106394000020ADF80400C6F8307A7E20594689B250
:1063A400314488701BF1010B5520594689B23144A0
:1063B40088701BF1010B0020594689B23144887062
:1063C4001BF1010BAE4881895A4692B23244917056
:1063D4001BF1010B808980B2000A594689B231440D
:1063E40088701BF1010BB6F82C0A594689B2314466
:1063F40088701BF1010BB6F82C0A80B2000A5946CA
:1064040089B2314488701BF1010B2320594689B2AB
:10641400314488701BF1010B0020594689B2314484
:1064240088701BF1010B5FF008090095584680B293
:10643400304410F1020A4A460099504601F064FFC4
:106444001BF1080B584680B2304487701BF1010BD6
:106454003800000A594689B2314488701BF1010B97
:106464003800000C594689B2314488701BF1010B85
:106474003800000E594689B2314488701BF1010B73
:10648400584680B2304480F802801BF1010B40462C
:10649400000A594689B2314488701BF1010B404609
:1064A400000C594689B2314488701BF1010B4046F7
:1064B400000E594689B2314488701BF1010B5846CD
:1064C40080B2304484701BF1010B5846401E307179
:1064D400594689B2891E301D01F048FB824659464F
:1064E40089B2891E301D01F041FB0100584680B27B
:1064F400304481701BF1010B58460A0092B2120A13
:1065040003009BB233449A70401C3080C6F8307A42
:10651400C0B2BDE8FE8F2DE9F84304000D0016005B
:1065240000275FF00008002084F82A0A7E20390042
:1065340089B2214488707F1C5520390089B22144D6
:1065440088707F1C0020390089B2214488707F1C28
:106554004B4881893A0092B2224491707F1C808911
:1065640080B2000A390089B2214488707F1CB4F8D3
:106574002C0A390089B2214488707F1CB4F82C0A93
:1065840080B2000A390089B2214488707F1C1F2020
:10659400390089B2214488707F1C94F8280A390094
:1065A40089B2214488707F1C0020390089B22144BB
:1065B40088707F1C380080B2204485707F1C2800BE
:1065C400000A390089B2214488707F1C2800000C1D
:1065D400390089B2214488707F1C2800000E3900DC
:1065E40089B2214488707F1C380080B220448670B0
:1065F4007F1C3000000A390089B2214488707F1C56
:106604003000000C390089B2214488707F1C3000AE
:10661400000E390089B2214488707F1C94F8240A42
:10662400390089B2214488707F1C94F8260A390005
:1066340089B2214488707F1C3800401E20713900C3
:1066440089B2891E201D01F091FA8146390089B270
:10665400891E201D01F08AFA0100380080B220440E
:1066640081707F1C080080B2000A3A0092B2224472
:1066740090707F1C27803800C0B2BDE8F283000010
:10668400103A0020C80000206F3A0020583A002039
:10669400483A00202DE9F84F80460D0016000024EA
:1066A4000027002085F82A0A7E20210089B2294487
:1066B4008870641C5520210089B229448870641CA8
:1066C4000020210089B229448870641CDFF81C076B
:1066D4008189220092B22A449170641C808980B21C
:1066E400000A210089B229448870641CB5F82C0A78
:1066F400210089B229448870641CB5F82C0A80B240
:10670400000A210089B229448870641C1F202100DA
:1067140089B229448870641C95F8280A210089B23A
:1067240029448870641C0020210089B2294488709F
:10673400641C4046C0B2002849D0B07A210089B216
:1067440029448870641C3078210089B229448870F7
:10675400641C3079210089B229448870641C306932
:10676400210089B229448870641C3069000A210020
:1067740089B229448870641C3069000C210089B2F4
:1067840029448870641C3069000E210089B22944B0
:106794008870641C5FF008092D4810F1080A200075
:1067A40080B2284410F1020B4A465146584601F083
:1067B400ABFD08340020210089B229448870641C90
:1067C4000020210089B229448870641C1DE05FF018
:1067D40008091F4810F1080A200080B2284410F16B
:1067E400020B4A465146584601F08EFD083495F88E
:1067F400240A210089B229448870641C95F8260A69
:10680400210089B229448870641C2000401E28712C
:10681400210089B2891E281D01F0A8F981462100B2
:1068240089B2891E281D01F0A1F90100200080B25F
:1068340028448170641C20000A0092B2120A0300EA
:106844009BB22B449A70401CC0B2BDE8F28F00008A
:1068540000500008E8F7FF1F38150020D438002046
:10686400D538002074370020813700202DE9F84FF7
:1068740088B004000D007C208DF801005FF0000951
:106884005FF0000A5FF0000800260421002201AF37
:106894003800FDF74BFC20788DF8000000279DF8A8
:1068A40000003900C9B288420FD33800C0B2205C5E
:1068B4009DF80110884206D118F1010801A83100A1
:1068C400C9B24754761C7F1CE9E79DF800000028F4
:1068D40000F0D5804046C0B200281ED16078002860
:1068E4000BD1A078002808D1E078002805D12079C0
:1068F400002802D105208046BCE09DF800009DF8E8
:106904000490B0EB090914F1010A15F1280B4A4669
:106914005146584601F0F8FCACE04046C0B20128AC
:106924001FD19DF80490B9F10109601C039015F181
:10693400280A4A460399504601F0E6FC9DF80000F7
:106944009DF804A0B0EB0A0A9DF804002044401C02
:10695400029015F1300B52460299584601F0D4FCCE
:1069640088E04046C0B2022835D19DF80400401E9C
:106974000590601C049015F12809059A049948466D
:1069840001F0C2FC0DF1040B9BF801009DF804908A
:10699400B0EB0909B9F101099DF804002044401C39
:1069A400039015F1300A4A460399504601F0ACFCB5
:1069B4009DF800009BF801A0B0EB0A0A9BF80100C7
:1069C4002044401C029015F1380B52460299584657
:1069D40001F09AFC4EE04046C0B203284AD19DF82B
:1069E4000400401E0790601C069015F12809079AC0
:1069F4000699484601F088FC0DF1040999F8010054
:106A04009DF804A0B0EB0A0ABAF1010A9DF804004B
:106A14002044401C059015F1300B52460599584608
:106A240001F072FC99F8020099F801B0B0EB0B0B7D
:106A3400BBF1010B99F801002044401C049015F1AE
:106A4400380002905A460499029801F05DFC0298BD
:106A54009DF8001099F80200091A039199F80200B0
:106A64002044401C029015F14009039A02994846BB
:106A740001F04AFC18F101084046C0B200E00020D1
:106A840009B0BDE8F08F10B5040060782178884221
:106A940023D0607820706078152808D1DFF8DC06F0
:106AA40000780A2803D1152001F062FA15E0207855
:106AB4000D2809D1DFF8C40600780A2804D120780B
:106AC40080B201F055FA08E02078DFF8B0160978B2
:106AD40051FA80F080B201F04BFA10BD643A002004
:106AE400000B0020443A00202DE9F84791B004003F
:106AF4000D00160001A82021FDF74CFB09A8202158
:106B0400FDF748FB0020DFF87886D8F81010D8F895
:106B14001470CF1B002F01D50027FFE73078002821
:106B240008D0012864D0022800F05D81142800F008
:106B3400598158E1DFF84C8698F80C00012842D1BD
:106B440018F10C00FEF7FAFD002000900123A21CAE
:106B54000C214FF4825001F047FA60780D280ADBCB
:106B640000200090012314F10E020C214FF4B250C6
:106B740001F03AFA08E000200090012309AA0C2150
:106B84004FF4B25001F030FA01A9206A00F030F954
:106B940000200090012301AA05214FF4885001F040
:106BA400A3FAA28BDFF8E01501A801F0F7F80020A2
:106BB4000090012301AA0A2141F2101001F014FAF5
:106BC400022088F80C00002000900023DFF8BC2588
:106BD40008214FF4995001F007FA00200090002397
:106BE400DFF8AC250E2141F2500001F0FDF9FAE086
:106BF400DFF8909599F80C00012842D119F10C00A6
:106C0400FEF79CFD002000900123A21C0C214FF4F0
:106C1400825001F0E9F960780D280ADB0020009029
:106C2400012314F10E020C214FF4B25001F0DCF9EF
:106C340008E000200090012309AA0C214FF4B2506F
:106C440001F0D2F901A9206A00F0D2F800200090E6
:106C5400012301AA05214FF4885001F045FAA28BC3
:106C6400DFF8241501A801F099F800200090012311
:106C740001AA0A2141F2101001F0B6F9022089F8A4
:106C84000C00002000900023DFF80425122141F2BB
:106C9400504001F0A9F9002000900023DFF8EC2413
:106CA40008214FF4995001F09FF9D8F81010D8F842
:106CB4001400081A002801D50020FFE7DFF82CA1F2
:106CC400DAF8101088420ED3DFF8C41B08780028C5
:106CD40009D1206A00FB07F0A28BB0FBF2F06062DE
:106CE4000120087015E0DFF8A80B0078002810D008
:106CF400D8F81010D8F81400081A002801D5002775
:106D040000E00700206A00FB07F0A18BB0FBF1F064
:106D14006062DFF8800B0068C00010D5D8F80C0062
:106D24000B280CD3DFF8700B0178491C0170007834
:106D3400152808DB002007000020606203E0002023
:106D4400DFF8541B08703A00C4A101A801F026F82A
:106D540000200090002301AA05214FF4895001F07E
:106D6400C3F901A9606A00F043F8002000900123F0
:106D740001AA082141F2301001F0B6F9DAF8102026
:106D8400DFF8181B01A801F009F800200090012386
:106D940001AA08214FF49A5001F026F901A9DAF862
:106DA4001020206A4243A08BB2FBF0F000F020F8E0
:106DB40000200090012301AA07214FF49B5001F009
:106DC40013F901A9D9F85C00626A101800F010F8F0
:106DD40000200090012301AA08214FF48A5001F0F9
:106DE40083F900E0FFE712B0BDE8F087103A002015
:106DF400F8B584B004000D00B4F57A7F1BD264208A
:106E0400B4FBF0F100FB11400A216422B0FBF1F362
:106E140001FB13000090B4FBF2F002FB10420A20C5
:106E2400B2FBF0F36420B4FBF0F2DFF8741A28002C
:106E340000F0B4FFA5E0B4F57A7F2AD342F21070D3
:106E4400844226D26420B4FBF0F100FB11400A21F5
:106E540064224FF47A73B0FBF1F601FB1600019043
:106E6400B4FBF2F002FB10420A20B2FBF0F00090F7
:106E7400B4FBF3F003FB10436420B3FBF0F34FF4D3
:106E84007A70B4FBF0F2DFF81C1A280000F086FFD9
:106E940077E042F21070844233D3DFF80C1A8C424C
:106EA4002FD26421B4FBF1F201FB12410A226423C4
:106EB4004FF47A76B1FBF2F702FB17110291B4FB9F
:106EC400F3F103FB11430A21B3FBF1F10191B4FB8C
:106ED400F6F106FB11466421B6FBF1F10091B4FB17
:106EE400F0F100FB11404FF47A71B0FBF1F342F280
:106EF4001070B4FBF0F2DFF8B419280000F04EFF74
:106F04003FE0DFF8A4198C423BD3DFF8A429944274
:106F140037D26422B4FBF2F302FB13420A23642641
:106F24004FF47A77B2FBF3FC03FB1C220392B4FB0D
:106F3400F6F206FB12460A22B6FBF2F20292B4FB08
:106F4400F7F207FB12476422B7FBF2F20192B4FB9B
:106F5400F0F200FB12404FF47A72B0FBF2F00090B2
:106F6400B4FBF1F001FB104142F21070B1FBF0F3FD
:106F7400DFF83409B4FBF0F2DFF83819280000F028
:106F84000DFF05B0F0BD38B504002000C0B20A28DA
:106F94002AD14FF6FF75290042F2100001F010F8D3
:106FA40029004FF4015001F00BF8290042F250007F
:106FB40001F006F8290042F2101001F001F829004E
:106FC40042F2300000F0FCFF290042F2702000F091
:106FD400F7FF29004FF4195000F0F2FF290042F2A4
:106FE400303000F0EDFF2CE0002142F2100000F000
:106FF400E7FF00214FF4015000F0E2FF002142F2CC
:10700400500000F0DDFF002142F2101000F0D8FF24
:10701400002142F2300000F0D3FF002142F2702040
:1070240000F0CEFF002142F2200000F0C9FF002151
:107034004FF4195000F0C4FF002142F2203000F058
:10704400BFFFDFF874080078DFF8701809780818B3
:1070540080B200F08DFF31BD000000002564000007
:1070640038B50400DFF85C180878002810D1200037
:10707400C0B2002809D0DFF850080470DFF84C08CB
:1070840000684860102008703FE0002088703CE0F1
:107094000878102818D148682830DFF8302812689A
:1070A40090420DD2DFF8200802782300DBB29A4226
:1070B40001D1047001E0002088700420087024E0ED
:1070C4008C700420087020E0087804281DD14868DA
:1070D400C830DFF8F8271268904213D2DFF8E807C7
:1070E40002782300DBB29A4205D18A78007852EA0A
:1070F400C0028A7003E08A78007802438A70002014
:10710400087002E08C7010200870DFF8C4572878EB
:107114002100C9B288422ED02C702878C00705D52A
:10712400002142F2106000F04BFF05E04FF6FF71C2
:1071340042F2106000F044FF2878800705D5002152
:1071440042F2206000F03CFF05E04FF6FF7142F28E
:10715400206000F035FF2878400705D5002142F271
:10716400306000F02DFF07E04FF6FF7142F230600F
:1071740000F026FF00E02C7031BD0000103A002022
:10718400E836002074370020C0EB0008F0390020F6
:10719400000000202DE9FE4FDFF838472068800406
:1071A4000BD5206830F400502060DFF80C27DFF89E
:1071B4002817DFF82807FFF797FCDFF8245728780B
:1071C400800618D54FF44251002000F0E4FE0E274B
:1071D4005FF00008DFF80C67B146424639004846C4
:1071E400FCF7A4FF5FF00E09DFF8FCA64A465146FF
:1071F400300001F089F8DFF8F46696F80C08C0074F
:107204001FD596F80C0810F0FE0086F80C08DFF87D
:10721400A8160878002802D00878012811D1DFF8D0
:10722400D076DFF8D0060268390006F60200FEF7D1
:10723400F7FF3880012086F80A08206850F0100013
:10724400206096F80C08400740F1B98014275FF0DD
:107254000008DFF8A49619F1540AD34642463900CF
:107264005846FCF763FFDFF850B69BF8000000288F
:1072740004D09BF80000012840F09D80206830F481
:10728400806020609BF8000000282ED196F80C083E
:1072940040072AD52068800527D5206830F400707F
:1072A4002060DFF83416CA684869121A002A1CD50F
:1072B400DFF8080602694B69C8681B1A9A4214D29F
:1072C400DFF838060178491C0170017805290CDBC8
:1072D40000210170DFF828060F21017340F201112B
:1072E4004184206850F00400206096F80C0810F0E7
:1072F400FB0086F80C080E20029000200190DFF8B5
:10730400E4854746019A02993800FCF70FFF0A20EA
:107314000090DFF8F075009A3900404600F0F4FF61
:1073240000208BF801004FF44251022000F033FE9C
:1073340096F80A0801283ED1042086F80A0800209D
:10734400C9F8300014275FF000084246390050465F
:10735400FCF7ECFEDFF880150A694869101A00286A
:1073640001D50020FFE7052825D3DFF824050078A0
:10737400002820D00A694869101A002801D5002085
:10738400FFE7DFF884750090DFF8680503683A00CA
:1073940006F6020199F82600FEF7F0FF388020680F
:1073A40050F080002060DFF824050068C7F8340A34
:1073B400012087F8230A0020DFF8D414087096F817
:1073C4000C08800740F1C480DFF8EC14087800282A
:1073D40012D1DFF8E8241079002802D10120487086
:1073E400B6E01079012840F0B3800120487020688D
:1073F40030F004002060ABE00878012840F0A88059
:107404000E275FF00008DFF8DC94CA4642463900D4
:107414005046FCF78BFE5FF0000A5FF0000BDFF8CC
:107424009C040079002873D12878000670D4DFF812
:10743400C00490F82B1A042904D090F82B0A0228CF
:1074440040F08680DFF8B07497F86000002810D10F
:107454004FF44251002000F09EFDDFF8A4040F21F8
:1074640001734FF481714184206850F02000206042
:1074740005E0206830F0040020600120824697F87F
:10748400610001281CD10E27DFF880843A004146B0
:10749400484600F039FF45F24001A22000F011FFF8
:1074A40045F25001222000F00CFF45F2501100205B
:1074B40000F071FD45F24011002000F06CFD15E074
:1074C40045F24001FF2000F0FCFE45F25001FF2090
:1074D40000F0F7FE45F25011022000F05CFD45F289
:1074E4004011022000F057FD012083465846C0B2E7
:1074F400002808D05046C0B2002804D0206850F4B8
:107504008060206024E0206830F4806020601FE008
:1075140045F24001FF2000F0D4FE45F25001FF2067
:1075240000F0CFFE0E275FF00008424639004846BF
:10753400FCF7FCFD45F25011022000F02CFD45F251
:107544004011022000F027FD206850F48060206084
:1075540096F80D08000713D596F80D0810F0F700FB
:1075640086F80D08206850F008002060012086F895
:107574000A08DFF88C030F21017340F203114184E0
:107584002068400461D5206830F480402060E04EDB
:107594003078012821D10020DE4908600E275FF0F1
:1075A4000008DFF87493424639004846FCF7BEFDF4
:1075B40045F26001032000F0EEFC286830F0800002
:1075C4002860D648006800F5C240A830BF49096861
:1075D40088423AD20020307037E03078002834D125
:1075E400CC4ECE4801683268921C46F2A81000FBCB
:1075F4000211B6480068814227D20E275FF00008C6
:10760400DFF814B3D946424639004846FCF78EFDEC
:107614005FF00809DFF808A34A465146584600F0CF
:1076240073FE45F26001002000F0B5FC286850F0BC
:1076340080002860B248042101700F2101734FF4C7
:10764400827141843068401C3060AF4E96F8270A3E
:10765400C00777D596F8270A10F0FE0086F8270AA7
:10766400974F17F106094846FDF747FE002865D0F5
:10767400DFF8B0824846FDF717FEA8F80000B8F816
:107684000000B98888422DD1202000905FF00009C5
:10769400DFF894A2D3464A4600995846FCF746FDC3
:1076A40052462021B8F800308020434313F580630C
:1076B400180080B2FDF7EAFD00283FD0B888C0105A
:1076C4003844B988C9103944897980223B7913F048
:1076D4000703D2B2DA4091438171FDF7C4FDFDF78F
:1076E40090FD2BE05FF020095FF0000A18F1040818
:1076F400C346524649465846FCF718FD42462021E7
:10770400BB888020434313F58063180080B2FDF7E3
:10771400BDFD002812D0B888C0103844B988C910FB
:107724003944897980223B7913F00703D2B2DA40D5
:1077340091438171FDF797FDFDF763FD206830F0FB
:107744004000206096F8250A01284DD1002086F8D3
:10775400250A96F8230A012846D128200190002002
:107764000090704FB846009A01994046FCF7DEFC41
:10777400DFF84C8118F106094846FDF7E4FDA8F846
:1077840004004846FDF7DFFD38803888C0104044C7
:10779400807980213A7812F00702C9B2D1400843B7
:1077A4003988C91041448871FDF75DFDFDF729FD55
:1077B4004846FDF7A2FDA8F800005FF02008DFF8B6
:1077C4006C91DFF864A1D34642464946584600F01E
:1077D4009BFD524620213B888020434313F5806360
:1077E400180080B2FDF752FD49480078C0074DD516
:1077F4002078400646D42078800743D54C48017849
:10780400491C0170216831F0020121600178C82906
:1078140038D1002101702A4F17F106084046FDF7C0
:107824006CFD00282ED04046FDF73EFDB880DFF801
:10783400F4904046FDF738FDA9F8000019F104075B
:107844003A002021B9F800308020434313F58063C7
:10785400180080B2FDF7E0FC5FF01C0816F1020985
:1078640042463900484600F04FFD1C203080206815
:1078740050F08000206015480068C6F8340A0220E1
:1078840086F8230A286830F008002860BDE8F78FDE
:107894006E3A0020E0370020713A0020C8EB00085F
:1078A400D0EB000814EB0008A086010020EB0008D0
:1078B40040420F00BCEA0008643A0020103A00205D
:1078C4001C3900203C3A0020733A0020583A00202A
:1078D400723A0020443A0020E83600208037002025
:1078E4002C00002000000020CCEA000838150020FD
:1078F400C80000204C3A002074370020743A00205D
:10790400583900202CEB0008000B0020DCEA0008AA
:107914006F3A0020503A0020F0390020483A002005
:1079240038EB0008C8390020CC39002094390020F5
:10793400753A00202DE9F04104000D0016005FF0B7
:1079440001080027280080B2002860D000F0F6FE6D
:10795400002801D1002080464046C0B2002808D04B
:10796400A02000F080FF00F05DFF002801D100207E
:1079740080464046C0B2002808D0200080B2000AE9
:10798400C0B200F070FF00F04DFF80464046C0B228
:10799400002806D02000C0B200F065FF00F042FFCE
:1079A40080464046C0B2002805D000F0C7FE00283B
:1079B40001D1002080464046C0B2002808D0A12052
:1079C40000F051FF00F02EFF002801D10020804676
:1079D4006D1E4046C0B2002817D0002007003800B2
:1079E400290080B289B2884208D200F061FF3900D0
:1079F40089B2705400F0E6FE7F1CF0E700F058FFF7
:107A0400390089B2705400F0F5FE00F0C3FE404620
:107A1400C0B2BDE8F0812DE9F04104000D0016006C
:107A240000275FF00108280080B2002842D000F04F
:107A340085FE002801D1002080464046C0B20028BF
:107A440008D0A02000F00FFF00F0ECFE002801D1C8
:107A5400002080464046C0B2002808D0200080B2F2
:107A6400000AC0B200F0FFFE00F0DCFE8046404693
:107A7400C0B2002806D02000C0B200F0F4FE00F02E
:107A8400D1FE8046002007003800290080B289B268
:107A940088420DD24046C0B2002807D0380080B2D8
:107AA400305C00F0E0FE00F0BDFE80467F1CEBE79A
:107AB40000F070FE052000F038FE4046C0B2BDE87C
:107AC400F0812DE9F04704000D00160000275FF057
:107AD40000085FF0000A200010F03F0F1BD014F0E4
:107AE4003F00D0F1200007002800390080B289B29D
:107AF400884200D22F00404680B206EB00023900D3
:107B040089B218EB040080B2FFF785FF8146ED1BB4
:107B140017EB080801E05FF001094846C0B20028ED
:107B24001FD0280080B200281BD020200700280086
:107B3400390080B289B2884200D22F00404680B218
:107B440006EB0002390089B218EB040080B2FFF79B
:107B540062FF8146ED1B17EB08084846C0B20028B7
:107B6400DFD14846C0B2BDE8F087000070B403001E
:107B74000022002400264FF6FF7000258D4214D207
:107B84005A5D504000221600082E0CD2C20706D5BA
:107B940080B2020048F2084090EA520001E080B24C
:107BA4004008761CF0E76D1CE8E780B2C04380B261
:107BB40070BC70472DE9FE430025002608210022F1
:107BC4006C462000FCF7B2FA0027644C220008211E
:107BD40047F6F870FFF7AEFE05002800C0B2002893
:107BE40014D05FF000085FF0000906212000FFF7C1
:107BF400BDFFE18802000B0092B29BB29A4202D010
:107C04000022150001E00122150007E0322000F0F7
:107C14008CFD7F1C3800C0B20328D6DB5FF000085F
:107C24006A4608214FF4FC40FFF784FE060030004A
:107C3400C0B2002814D000275FF00009062168466E
:107C4400FFF794FFBDF8061002000B0092B29BB23E
:107C54009A4202D00022160001E00122160008E038
:107C6400322000F062FD18F101084046C0B203283A
:107C7400D6DB55EA0600C0B2002809D14AF6AA208C
:107C840020800220608000F019F800F044F813E02E
:107C94003000C0B2002802D100F03DF80CE028000A
:107CA400C0B2002808D10827E9463A004946200016
:107CB40000F02AFB00F002F8BDE8F78370B5002459
:107CC4000025264E0020F08006213000FFF74EFFED
:107CD400F0803200082147F6F870FFF7F2FE040046
:107CE4002000C0B2002806D0320008214FF4FC4026
:107CF400FFF7E7FE04002000C0B2002808D13220BC
:107D040000F013FD6D1C2800C0B20328E1DBFFE77F
:107D14002000C0B270BD70B5002400250F4E0020B5
:107D2400F08006213000FFF721FFF08032000821A7
:107D34004FF4FC40FFF7C5FE04002000C0B2002849
:107D440008D1322000F0F1FC6D1C2800C0B20328D9
:107D5400ECDBFFE72000C0B270BD0000343A002025
:107D640030B4002513E050F8042BD30744BFA9F125
:107D740001039A18091F042942F8045BFAD2134636
:107D84008C0744BF15809B1CC90748BF1D7050F861
:107D9400041B0029E7D130BC704700000CB430B597
:107DA40083B00A4606A90291044600250194009571
:107DB40002AB01A9084878441E3000F0A5FD019AE1
:107DC400157000284EBF04460198041B204603B0DA
:107DD40030BC5DF80CFB00BF0F0800002DE9FE4F1E
:107DE4005020029000200190DFF80045019A02998A
:107DF4002000FCF79BF9502000900024DFF8F05499
:107E04002E00220000993000FCF790F94FF484769C
:107E14000027DFF8E084C1463A0031004846FCF709
:107E240085F95FF002095FF0000ADFF8CCB452462E
:107E340049465846FCF77AF95FF4E13001F0C8FD91
:107E4400012001F01BFE4FF4907118F1010001F0C4
:107E540042FE4FF4907115F1080001F07FFE5FF4CB
:107E64000030DFF8981408604FF49070DFF8901435
:107E74000860DFF89004016851F001010160BDE879
:107E8400F78FF0B40400002000255A260700FFB243
:107E9400DE55401CA5260700FFB2DE55401CFF2618
:107EA4000700FFB2DE55401C82260700FFB2DE55F4
:107EB400401C2600B6B2360A0700FFB2DE55401C4D
:107EC4000600F6B29C55401C00263500EDB21700A2
:107ED400ADB2BFB2BD4208D23500EDB24D5D070070
:107EE400FFB2DD55401C761CEFE7C51E9D70C0B285
:107EF400F0BC7047F0B40400002000255A260700A7
:107F0400FFB2DE55401CA5260700FFB2DE55401C1B
:107F1400FF260700FFB2DE55401C82260700FFB291
:107F2400DE55401C2600B6B2360A0700FFB2DE5505
:107F3400401C0600F6B29C55401C00263500EDB2EC
:107F44001700ADB2BFB2BD420DD200250700FFB28B
:107F5400DD55401C3500EDB24D5D0700FFB2DD5527
:107F6400401C761CEAE7C51E9D70C0B2F0BC704789
:107F740070B50400DFF87C536E1C3100200080B221
:107F840000F032F985F8010195F8011189B2300049
:107F940001F08BFD70BDF8B504000D00D54E771CC3
:107FA4003A00290089B2200080B200F058F986F81E
:107FB400010196F8011189B2380001F076FDF1BD96
:107FC40073B50400CB4D6E1C3300022201A9E01CE2
:107FD40080B2FFF756FF85F8010195F8011189B2C7
:107FE400300001F062FD73BD2DE9F14F8AB00D0040
:107FF40016001F00149C202100220DF104084046A5
:10800400FCF794F85FF0000A5FF00008300001F01C
:108014002FFE814628004946C0B2C9B288420CD21C
:10802400A946CA465FFA8AFA00960DF1040B524635
:108034000099584600F068F93EE0202000905FF077
:10804400200A0DF1040B524600995846FCF76EF8CD
:108054003800C0B2002813D15FEAC97008D52900DE
:10806400C9B24846C0B2091A491C4910884615E0ED
:108074002900C9B24846C0B2091A491088460DE021
:108084003800C0B2012801D1A04607E03800C0B2D0
:10809400022803D1281BB0EB09008046CA465FFAC8
:1080A4008AFA009601A84146C9B200EB010B524678
:1080B4000099584600F028F9DFF838A21AF1010BAC
:1080C4005B462A00D2B292B201A9BDF82800FFF79C
:1080D400D8FE8AF801019AF8011189B2584601F0D4
:1080E400E4FC0BB0BDE8F08F2DE9F14F8AB00D0030
:1080F40016001F00149C202100220DF104084046A4
:10810400FCF714F85FF0000A5FF00008300001F09B
:10811400AFFD814628004946C0B2C9B288420CD29C
:10812400A946CA465FFA8AFA00960DF1040B524634
:108134000099584600F0E8F83EE0202000905FF0F7
:10814400200A0DF1040B524600995846FBF7EEFF46
:108154003800C0B2002813D15FEAC97008D52900DD
:10816400C9B24846C0B2091A491C4910884615E0EC
:108174002900C9B24846C0B2091A491088460DE020
:108184003800C0B2012801D1A04607E03800C0B2CF
:10819400022803D1281BB0EB09008046CA465FFAC7
:1081A4008AFA009601A84146C9B200EB010B524677
:1081B4000099584600F0A8F8DFF838A11AF1010B2D
:1081C4005B462A00D2B292B201A9BDF82800FFF79B
:1081D40091FE8AF801019AF8011189B2584601F01A
:1081E40064FC0BB0BDE8F08F10B4020000205A23E9
:1081F4000400E4B20B55401CA5230400E4B20B5563
:10820400401CFF230400E4B20B55401C82230400ED
:10821400E4B20B55401C00230400E4B20B55401C8F
:1082240084230400E4B20B55401C5A230400E4B236
:108234000B55401C01230400E4B20B55401C1300F1
:108244009BB21B0A0400E4B20B55401C0300DBB2D2
:10825400CA54401CC31E8B70C0B210BC704730B4EB
:10826400030000205A240500EDB25455401CA524F7
:108274000500EDB25455401CFF240500EDB25455E1
:10828400401C82240500EDB25455401C0C00A4B2DD
:10829400240A0500EDB25455401C0400E4B2115503
:1082A400401C1C00A4B2240A0500EDB25455401C25
:1082B4000400E4B21355401CC41E9470C0B230BC18
:1082C4007047F8B504000D000A4E771C3A002900E7
:1082D40089B2200080B2FFF7C2FF86F8010196F848
:1082E400011189B2380001F0E0FBF1BD84380020AF
:1082F40034380020E0350020643A002004000240B5
:108304005C0002405800024062B38B0708D0521E42
:1083140011F8013B00F8013B00F024808B07F6D1F3
:10832400830740F0208000BF103A07D330B4B1E88F
:108334003810103AA0E83810F9D230BC530724BFE3
:10834400B1E80810A0E8081044BF51F8043B40F815
:10835400043BD20724BF31F8022B20F8022B44BF80
:108364000B7803707047121F17D35B0009D151F8C3
:10837400043B20F8023B1B0C121F20F8023BF6D2F0
:108384000BE051F8043B00F8013B1B0A20F8023BC8
:108394001B0C121F00F8013BF3D238BF121D521EF2
:1083A40024BF11F8013B00F8013BF8D87047B1F540
:1083B400807F02D34FF0FF30704701700120704777
:1083C4000078401E8041C043C00F704700280AD087
:1083D400B0FA80F18840D1F19D01C905020672F11D
:1083E400004241EB1020704710B5FF2313EAD0542C
:1083F4001DBF13EAD1529C429A4239E0A41ADA070B
:1084040080EA0103134042EA012142EA0020421AB1
:108414003CBF641E01EB4202090AB2FBF1FE01FB00
:108424001E221202B2FBF1F001FB10226EF30F20A8
:108434001202B2FBF1FE4EEA00207F3406DDFE2C70
:1084440024DA53EA500050EBC45010BDD4F10204B6
:1084540001FB1E2240F08071192C1DDC21FA04F06E
:10846400C4F12004A140114371F10042584110BDF0
:108474009C421ABF03EAD1529A420FE080EA010EED
:108484000EF00043400004D0490016D143F0FF40F1
:1084940010BD490008BFD343180010BD9C4205D14C
:1084A400D21AF7D001F00041484010BD4A0212BF71
:1084B4000846484000F0004010BD4AB90902B1FA2C
:1084C40081F2914044B1A418C00140F000409EE7FD
:1084D400C90141F0004152420002B0FA80F4A040C8
:1084E400141B94E7FF2212EAD05C1DBF12EAD15399
:1084F400944593422BE09C44D30780EA01021A403E
:1085040043EA002043EA0121A1FB0030C04238BF06
:1085140040007CF17F010BDBFE294ADA5B0842EA6A
:10852400C15153EA006373F1004C51EB10207047C2
:10853400D1F1080CDCF120012FDB5B0810FA01F10A
:108544000B4320FA0CF073F10041504170479445FD
:108554001CBF02EAD153934280EA010202F00042B6
:108564001DD0400019D0490017D05BB9634514D021
:108574000902B1FA81F39940BCEB030CC00140F04D
:108584000040C1E70002B0FA80FC10FA0CF0B3EB33
:108594000C0CC90141F00041B6E7100070474000DF
:1085A4000AD0490008D010F1807F94BF11F1807F78
:1085B40002E042F0FF407047D0437047C0F3C75118
:1085C4007E390EDDC217D1F1200106DD000240F034
:1085D4000040C840104450407047D04380F00040F1
:1085E4007047002070470268531C03601170704785
:1085F4000300002013F0030F09D0521E22BF13F80A
:10860400010B11F801CBB0EB0C00F3D0704711F063
:10861400030F14D1121F22BF53F8040B51F804CBDB
:108624006045F7D0121D0AD200BA9CFA8CFCB0EB5C
:108634000C0038BF6FF0000088BF01207047521E45
:1086440022BF13F8010B11F801CBB0EB0C00F6D0EC
:10865400521C08BF1046704780B5012001F024FB6E
:1086640001F02AFB012001F0CDFB612001F090FC18
:108674000028FAD04FF4007001F0C9FB012001F08A
:10868400CBFB01F01DFD01F016FD0021012001F0DE
:10869400D1FC01F010FD49F63F4001F0FDFC01F072
:1086A4000AFD01BD10B5040001F005FD01F008FD4F
:1086B40001F001FD2100C9B2012001F0BBFC01F071
:1086C400FAFC10BD10B50400012001F0EDFA01F030
:1086D400F2FC200001F0D3FC01F0EDFC10BD2E00F3
:1086E4001CB5042100226C462000FBF71FFD03206B
:1086F4008DF8020014208DF8030081488188ADF8BC
:1087040000106946006801F009FD7E488188ADF8D3
:1087140000106946006801F001FD13BD00206421CA
:108724000800411E0028FBD170474FF420514843F4
:10873400401C0100481E0029FBD1704710B5704C45
:10874400A088216808616F48818800680161FFF78B
:10875400E5FF20688068002801D1012000E00020A6
:10876400217911F00101084201D0002011E0A08814
:1087740021684861FFF7D2FF20688068A188084219
:1087840001D0002005E0A08821684861FFF7C6FFFA
:10879400012010BD38B55B4CA08821684861FFF703
:1087A400BDFF574DA88829684861FFF7B7FFA08827
:1087B40021680861FFF7B2FFA88829680861FFF7FC
:1087C400ADFF31BD10B54F4CA08821684861FFF75B
:1087D400A5FF4B48818800684161FFF79FFFA0888F
:1087E40021680861FFF79AFFA08821684861FFF7B4
:1087F40095FF10BD10B5434CA08821684861FFF770
:108804008DFF3F48818800680161FFF787FFA088DA
:1088140021680861FFF782FFA08821684861FFF79B
:108824007DFF10BD38B5374CA08821684861FFF73B
:1088340075FF334DA88829680861FFF76FFFA0888A
:1088440021680861FFF76AFF28688068A9880842E0
:1088540004D0A08821684861002003E0A088216832
:108864004861012032BD70B5040008252800451E6A
:10887400C0B2002817D0234EB08831684861200662
:1088840004D51F4881880068016103E01C48818881
:1088940000684161FFF742FFB08831680861FFF763
:1088A4003DFF6400E2E7174881880068416170BDBC
:1088B400F8B508240025124EB088316808612000FC
:1088C400441EC0B2002813D06D000E4FB88839681A
:1088D4004861FFF723FFB88839680861FFF71EFF76
:1088E40030688068B1880842E9D055F00105E6E7B0
:1088F40004488188006841612800C0B2F2BD0000CC
:1089040070EB000878EB00082DE9F14FB2B09946FE
:10891400924600230691CDE900333C9A0F930DF162
:108924004A0114914A7011E0329E57462C4617F8BA
:10893400011B0698B0470028069000F026810F9886
:10894400401C641E0F90F2D13296AA449AF800009B
:10895400252808D10021002209910A920B910C923A
:108964000D910E920FE06A464FF0FF31504601F030
:10897400C9FC050002D10F9800F066BED4D50125CC
:10898400E3E741F001011AF8010F2028F9D0232868
:108994000CD02B2804D02D2805D0302809D00BE08A
:1089A40041F00201EFE741F00401ECE741F0080176
:1089B400E9E741F01001E6E72A280FD1D9F80020B1
:1089C40052F8040BC9F800200028119003D5404246
:1089D400119041F004010AF1010A14E01192DFF848
:1089E400EC3B0AE01198984205DA00EB800402EBB4
:1089F4004402303A11920AF1010A9AF80020A2F1D5
:108A040030000A28EED39AF800002E2803D04FF045
:108A1400FF32109229E01AF8010F2A2809D1D9F857
:108A2400000050F8042BC9F8000010920AF1010A62
:108A34001BE02D280CBF0AF1010A0020002210922D
:108A4400DFF8882B0BE040B9109B934205DA03EB67
:108A5400830504EB4504303C10940AF1010A9AF8AA
:108A64000040A4F130030A2BEDD3ADF848100FF603
:108A740060309AF8001001F04FFC08B11AF8010BAD
:108A84008DF84A009DF84A00682805D19AF800003C
:108A940068280CD1622106E06C2804BF9AF8000013
:108AA4006C2804D171218DF84A100AF1010A1FA81B
:108AB40008901AF801BBBBF125012DD01C3900F038
:108AC4006181091F022940F25D810E392AD0491FB4
:108AD40000F0B384093900F05581891E00F04985FE
:108AE400491E00F0F584491E022940F24B81091FFA
:108AF40000F0EE84491F00F0BA80491E00F09D8406
:108B0400491E65D0C91E21D0891E00F09684C91E55
:108B140000F0938400F04CBD25238DF87C300121B6
:108B240009912AE06C208DF84A00D9F8000050F829
:108B3400042BC9F80000002A43D11499487800286E
:108B44003DD04FF0FF340FF6902012E09DF84A001C
:108B54006C28EAD0D9F8000050F8044BC9F800009A
:108B64000794D4B91499487898B14FF0FF340FF6AC
:108B7400842001F0DDFB201A07D132981FAA04A932
:108B840000F065FD00287FF5E1AE4FF0FF3000F006
:108B94005BBD0FF67C200790EFE7109D002D04D5F8
:108BA400204601F065F8044607E02A46204601F015
:108BB400DFFB002814BF041B2C460A94DDE70FF6E4
:108BC4005422329804A900F0C8FD0028D5D5DCE76A
:108BD400D9F8001051F8040BC9F8001020F0000473
:108BE400002121F0FF351FABCDE904450793DDE9F2
:108BF400042308993C2413B90AB9109898B102F0D7
:108C04000F053035641EEEB23A2EA8BF273512097F
:108C140042EA03721B090D5508BF002A03D00798C6
:108C24000D19A842EBD308190790C4F13C0210981F
:108C34000A92824209DABDF84810821A4FF6EF70A0
:108C440001400C92ADF8481097E7002895D59DF89F
:108C5400480000F0140010288FD1119B09990C983A
:108C64005B1A1B1A9A1A002A87DD0C9285E714995D
:108C7400487820B14FF0FF340FF69C1079E79DF847
:108C84004A00622862D0682819D06A2840D06C282B
:108C940006D071284DD074282DD07A281ED064E0D7
:108CA400D9F8001051F8040BC9F8001020B94FF09E
:108CB400FF340FF67C105CE70F9901605DE7D9F88B
:108CC400001051F8040BC9F8001020B94FF0FF341C
:108CD4000FF65C104DE70F9901804EE7D9F80010AC
:108CE40051F8040BC9F800100028E5D14FF0FF3407
:108CF4000FF63C103DE7D9F8001051F8040BC9F801
:108D040000100028D8D14FF0FF340FF6241030E7BC
:108D1400D9F8001051F8040BC9F8001020B94FF02D
:108D2400FF340FF60C1024E70F9AD317C0E9002381
:108D340023E7D9F8001051F8040BC9F800100028F3
:108D4400F2D14FF0FF340FF6E80012E7D9F8001023
:108D540051F8040BC9F8001020B94FF0FF340FF696
:108D6400D00006E70F99017007E7D9F8001051F811
:108D7400040BC9F8001000289ED14FF0FF340FF601
:108D8400B000F6E6D9F80020D21D22F00702C9F897
:108D94000020D2E900010832C9F80020CDE904011D
:108DA400C80F02D009982D210AE0BDF848008107B8
:108DB40002D509982B2103E0C00705D50998202185
:108DC4001FAA1154401C0990DDE9042309991FA826
:108DD400CDE92E2308444BF020016129079015ACFE
:108DE4000BD01099002902D50621109105E001BF8E
:108DF4004BF02001672901221092DDE90423590078
:108E04004915491C10D11A030ED0ABF16105032199
:108E14001A2D0A9102D20FF6A43101E00FF6A03107
:108E24000322FFF771FAA8E659004915491C0AD133
:108E34001A0308D1ABF1610503211A2D0A9116D347
:108E44000FF68431ECE7DDE90401CDE93001DDE919
:108E5400302323F00047B7F5801F22F000060DD21F
:108E64000022002F08BF002E029203D116E00FF655
:108E74005431D5E702AA01F0A7FA0FE0DFF8EC0AB3
:108E8400DFF8EC1A00EB17500290DDE930234FF0C5
:108E9400FF301940DFF8DC7A10403943CDE9040192
:108EA4004BF0200061280DD1079830210170821CFD
:108EB400BBF1610F07920CBF7821582141700998CA
:108EC400801C0990DDE9040120F0000231F0004328
:108ED40008BF002A02D10026002571E14BF02008CA
:108EE400B8F1610F40F0BE801098002847BF2121DF
:108EF4000391401C0390039FDDE92E017F1C002297
:108F04000023DDE9044501F097FA02998DF8542015
:108F140038BF85F00045091F002F02910DF1550659
:108F24005DDDDFF8541ACDE9302140F2FF732E9352
:108F3400204629460022002301F096FA4FD2480029
:108F4400400D00F11C0215D0002A13DD2E9B9A421D
:108F54000ADBDDE9300121F0004205F00040024364
:108F6400DDE93001114611E06FF31E5141EA02516F
:108F740020460BE024F0000035F0004108BF002833
:108F84000FBF29461C22294601F086FA04460D46E5
:108F940001F020FBFF1F002F804609DD01F038FBA4
:108FA40002460B462046294601F044FB04460D4682
:108FB400F01D0721B8F1000F0CDD491E5EBF08F05B
:108FC4000F0200F8012D4FEA2818F3D502E0002221
:108FD40000F8012D491EFAD5C61D002FA8DC0DF19D
:108FE4005500361A03988642D8BF304600280DF142
:108FF400550430D4B04206DA0DF155010A5C082A52
:10900400A8BF0F2100DA0021024615AB134400E08B
:10901400401E13F80159521E8D42F9D00F2904D174
:109024000DF155018B5C5B1C8B54002A04D502990D
:10903400091D15AC401C0291411E0CD46218ABF101
:109044003A0613783033DDB23A2DA8BFF318491E1F
:1090540002F80139F5D51099002940F1AF80421E7C
:109064001092ABE00299DFF8142947F2975041437C
:1090740091FBF2F2DDE92E45029225F00045D2F192
:10908400070204DD2046294600F04CFC0BE0524266
:109094000020DFF8EC1800F045FC02460B462046A1
:1090A400294601F039FB0446B8F1660F109806BF53
:1090B400029F0A3706273F18142FC8BF14273020F1
:1090C4008DF854000D460020DFF8B818CDE92E01C4
:1090D4000DF15506002F33DD2046294601F040FCF2
:1090E40001460A4606F1080304200A26B2FBF6F6F6
:1090F40006EB860EA2EB4E02303203F8012C0A2254
:10910400B6FBF2F202EB820EA6EB4E063036401EA0
:1091140003F8026DE9D1083F002F03F10806D9DDF9
:10912400084601F031FC02460B462046294601F070
:1091340081FADDE92E2301F035FC04460D46CBE728
:109144000DF15500361A0DF1550404E00298401E45
:10915400761E0290641C20783028F7D0B8F1660F90
:1091640002D10299491C04E0B8F1650F0CBF01213A
:109174000021109808188642B8BF701E00281DD41C
:10918400B04204DA215C3429C8BF392100DC302123
:109194000246631E9D1800E0401E15F80169521E28
:1091A4008E42F9D0392902D1A15C491CA154002A6C
:1091B40004D50299491C1C46401C02910646029D96
:1091C40001F0A4F8406A0778DDF8408030B2002846
:1091D40002DC01260FF2F4744BF02000662808BF6D
:1091E4006D1C16D0672846D128B210F1040F48DB55
:1091F400404546DA9DF848006D1C010703D430B29F
:109204004045B8BF804628B2B8EB000848BF4FF0CD
:1092140000080FFA85FB07980A99BBF1000F00F3C9
:10922400B2804A1C0A9230234354B8F1000F03DC85
:109234009DF84800010704D50A98411C0A91079932
:109244000F5418EB0B0FB8BFC8F100052DB26842DC
:109254000D90A84432B29045B8BF4646079B0A9881
:1092640036B20B96324621461844FFF74DF8A8EB68
:1092740006000E90CBE0BBF1610F17D14FF0700BDD
:1092840019E030B2404504DA9DF848100A0758BF87
:109294008046B8F1010848BF4FF00008BBF1670FE2
:1092A40014BF4FF0450B4FF0650B04E0BBF1410FC9
:1092B40008BF4FF0500B0A98411C0A91B8F1000FF7
:1092C400079914F8012B0A5403DC9DF848000107A0
:1092D4001AD50A98411C0A91B8F1000F07990F5446
:1092E40012DD761E30B2804507980A9BB8BF464609
:1092F40032B221461844FFF707F80A9936B27118BA
:109304000A91A8EB06000D9007980A9908442AB21E
:10931400002A80F800B003D42B224270811C04E0A0
:109324002D2141701546811C6D4200202EAA0A246D
:1093340009E02B4693FBF4F505EB8506A3EB460306
:1093440002F8013B401C2DB2002DF2DC012806DCA2
:109354004BF02002652A04BF302201F8012B0028BB
:109364002EAA08D1302001F8010B06E0401E135C40
:10937400303301F8013B0028F8DC079A0A981044BE
:10938400091A0B9143E0084431B22AB2914219DA26
:1093940032B22146FEF7B8FF0A9936B27118ABEB28
:1093A4000606B8F1000F0A910D9603DC9DF84800FB
:1093B400020704D5079847540B99491C0B91CDF823
:1093C400388024E02146FEF79FFF0A98761B584414
:1093D400B8F1000F0A9003DC9DF848100A0703D582
:1093E400411C0A9107990F5430B2804507980A9B93
:1093F400B8BF464632B204EB0B011844FEF784FFB3
:109404000A9836B230180A90A8EB06000D909DF821
:10941400480000F0140010287FF4AFAB099A0A99B1
:109424000D988A180B9982180E988A188218119828
:109434008242BFF6A2AB821A17E49DF84A00622862
:1094440008D068280ED06A2814D06C281FD0712840
:1094540010D01CE0D9F8001051F8040BC9F8001022
:10946400C0B21AE0D9F8001051F8040BC9F8001082
:1094740080B212E0D9F80020D21D22F00702C9F808
:109484000020D2E900010832C9F8002006E0D9F82A
:10949400001051F8040BC9F800100021CDE90401B3
:1094A4009DF8480001075AD5DDE90423002B08BFC5
:1094B400002A54D04BF02000782850D109981FA9D5
:1094C40030220A54401C431C099301F800B046E0C2
:1094D4009DF84A00622808D068280ED06A2814D063
:1094E4006C281FD0712810D01CE0D9F8001051F856
:1094F400040BC9F8001040B21AE0D9F8001051F872
:10950400040BC9F8001000B212E0D9F80020D21DF3
:1095140022F00702C9F80020D2E900010832C9F894
:10952400002006E0D9F8001051F8040BC9F8001027
:10953400C117CDE90401002902D509982D210AE0BB
:10954400BDF84800810702D509982B2103E0C00724
:1095540005D5099820211FAA1154401C09901FA861
:1095640009990144079104A8594600F056F9FFF7F8
:1095740004BB9DF84A006C280BD001210991D9F84D
:10958400000050F8041BC9F800008DF87C10FFF7A8
:10959400F4BAD9F8000050F8041BC9F8000015917A
:1095A4004FF0FF3210920021169115AAFFF709BB64
:1095B40025210122BBF1000F8DF87C1009923FF4A4
:1095C400DCAA8DF87DB00221FFF7AABACBCCCC0C73
:1095D400686A6C747A4C00007072696E74665F73AA
:1095E4003A2062616420256C7320617267756D6531
:1095F4006E7400007072696E74665F733A20626103
:109604006420257320617267756D656E74000000B7
:1096140000000000000000007072696E74665F73E1
:109624003A20256E20646973616C6C6F7765640001
:109634007072696E74663A2062616420256E2061DE
:109644007267756D656E740033B0BDE8F08F2DE9F7
:10965400FC410F46064690467A6B7869396ABC6AC3
:10966400121AB869521A796A121AF869521A121A35
:1096740097F83800141B41070FD42020002C8DF8D4
:1096840000000ADD254601236A463946304600F0CB
:109694007DF900285DD16D1EF5D17B6942463946BE
:1096A400304600F073F9002853D130208DF80000C3
:1096B4003D6A002D09DD01236A463946304600F033
:1096C40065F9002845D16D1EF5D1BB69FA683946A4
:1096D400304600F05BF900283BD130208DF80000C3
:1096E4007D6A002D08DD01236A463946304600F0C4
:1096F4004DF970BB6D1EF6D1F868B969FB69421863
:109704003946304600F042F918BB30208DF800008D
:10971400BD6A002D08DD01236A463946304600F053
:1097240035F9B0B96D1EF6D197F8380041070DD55B
:109734002020002C8DF8000008DD01236A463946FC
:10974400304600F023F920B9641EF6D10020BDE8AC
:10975400F6814FF0FF30BDE8F6812DE9F8470D465C
:10976400A3B02F6B002F8246904648BF6FF000478E
:1097740001F0E9F9696B401801AA0021C2E900115E
:10978400812828BF4FF0FF3044D289461EE0A7420B
:1097940030DB6869201881280BD30021696303AA90
:1097A40029465046FFF753FF5FEA000922D4002000
:1097B400686103AB6E69224669469819FEF7A4FDF9
:1097C400A6196E6158F8040BA0B13F1B002F11DDE0
:1097D400D8F8001001AA684600F096FD0446002C53
:1097E40005D4D8F800000028D1D1641ECFD54FF09D
:1097F400FF390EE0B9F1000F504604D103AA2946FF
:10980400FFF725FF8146B9F1000F02D100206861FE
:109814006863484624B0BDE8F0872DE9FC43074659
:109824006F293E6908BF082405D041F0200078283C
:1098340014BF0A2410243C25D7E90023642918BF47
:1098440069299046994605D1002B03D5D8F1000823
:1098540069EB4909B9F1000F08BFB8F1000F0CD149
:10986400386B50B9082C39D197F83800010735D531
:1098740030203B2586F83B0030E08DF80010404650
:1098840049462246E31701F063F93032D0B26D1E27
:109894003A28019504DB9DF80000A0F151018A18D3
:1098A4007255404649462246E31701F051F9804675
:1098B4005FEA010908BFB8F1000F03D0F868711915
:1098C4008842DCD3082C09D197F83800010705D564
:1098D400705D302802D06D1E30207055C5F13C02F9
:1098E400BA617119F960386B824208DA821A3A62F5
:1098F4004FF6EF70398F01403987BDE8F3830028B4
:109904000ED597F8380000F01400102808D17B6BAE
:109914007969386A5B1A1B1A9A1A002AC8BF3A6214
:10992400BDE8F3832DE9D04306460F4614464FF0B5
:109934000008DFF8549012E0E00707D542464B4692
:109944003046394601F02EF806460F464046494651
:1099540042464B4601F026F8641080468946002CA6
:10996400EAD130463946BDE8D083000002FCFFFF4F
:10997400FFFF0F800000E03F0000F07FA0860100A1
:109984000000F03F84D7974100002440F8B5054615
:109994000E4617461C4600205CB117F8011BB06840
:1099A400A847B06030B1F06A401CF0620020641E29
:1099B400F3D1F2BD4FF0FF30F2BD00006E616E00D6
:1099C4004E414E00696E6600494E46003000430029
:1099D40030B585B00400042100226D462800FAF752
:1099E400A5FB1021002201AD2800FAF79FFB994D39
:1099F400280001F0C5F998488188ADF800100321CA
:109A04008DF8021018218DF803106946006800F0E3
:109A140085FB92488188ADF8001048218DF8031029
:109A24006946006800F07AFB01940020ADF8080054
:109A34000020ADF80A000020ADF80C000020ADF8BD
:109A440010000C20ADF80E0001A9280001F0E0F987
:109A54000121280001F052FA012240F22441280099
:109A640001F05BFA01228021280001F08EFA012224
:109A74004021280001F089FA05B030BD38B5040052
:109A8400042100226D462800FAF750FB25208DF8AA
:109A9400000003208DF8010002208DF802008DF8EB
:109AA4000340684601F0E1FA31BD10B400220023FE
:109AB4001A000C0092B2A4B2A2420AD21A0092B2C4
:109AC400825C674C2280634A12881206FBD55B1CB9
:109AD400EEE710BC704770B58CB004000D00614E09
:109AE400300001F019FB5E480190029410200390AD
:109AF4000495002005908020069000200790002007
:109B04000890002009904FF440500A9000200B90D8
:109B140001A9300001F078FB01220221300001F09C
:109B240091FB4FF4005050490860306840084000F1
:109B34003060484800884006FBD50E208DF80000B0
:109B440002208DF8010000208DF8020001208DF81C
:109B54000300684601F089FA0CB070BD70B58CB092
:109B640004000D00042100226E463000FAF7DEFAEC
:109B74002C21002201AE3000FAF7D8FA3B4E300017
:109B840001F0CAFA3648019002940020039004952B
:109B94000020059080200690002007900020089067
:109BA400002009904FF440500A9000200B9001A926
:109BB400300001F029FB01220221300001F042FBB8
:109BC4005FF4003028490860306840084000306085
:109BD4000F208DF8000003208DF8010001208DF87E
:109BE400020001208DF80300684601F03EFA0CB033
:109BF40070BD10B51C485FF4003101601B490A6850
:109C0400520852000A604FF400510160154801687F
:109C14004908490001600F4C20884006FBD500200C
:109C2400FFF72CFF002240F22441200001F075F9D7
:109C340000228021200001F0A8F900224021200008
:109C440001F0A3F90021200001F058F9200001F0EF
:109C540097F810BD0038014050EB000858EB00089D
:109C6400043801404400024004000240580002400D
:109C740000F10103810704D010F8011B820781B1B0
:109C8400FAD10268A2F10131914311F0803104BF8D
:109C940050F8042FF6E709BAB1FA81F100EBD100CC
:109CA400401CC01A704700000100C9B2014A11608B
:109CB4007047000020000E4280B5012000F063F9D7
:109CC400002000F060F901BDDFF80C13086850F0C3
:109CD40001000860DFF804231368DFF8040303407D
:109CE40013600B68DFF8FC0203400B60086830F473
:109CF40080200860106830F4FE0010605FF41F00DC
:109D0400DFF8E41208607047DFF8CC120A6832F416
:109D140080320A600A6832F480220A600200B2F5D6
:109D2400803F03D0B2F5802F05D009E00A6852F4D1
:109D340080320A6004E00A6852F4A0220A60FFE755
:109D4400704738B50020009000240025312000F031
:109D54001FF905000098401C009000984FF6FF7111
:109D6400884203D02800C0B20028EFD0312000F090
:109D74000FF9002801D0012000E00020C0B232BD5C
:109D840030B40023954D2C6834F47C1451EA00025D
:109D940014432C6030BC70470100C9B2934A11606F
:109DA400704700218D4B1A689208920002431A6092
:109DB40070478A48006810F00C0070470021874BF8
:109DC4001A6832F0F00202431A6070470021834B94
:109DD4001A6832F4E06202431A60704700217F4B34
:109DE4001A6832F4605252EAC0021A60704780491D
:109DF400086070470021794B1A6832F440420243EC
:109E04001A6070470100C9B27B4A116070477949F2
:109E14000A6802430A6070470100C9B2774A1160B8
:109E240070472DE9F04F0100002200250020002694
:109E34006A4FD7F800C01CF00C0C6346002B04D00A
:109E4400042B05D0082B06D023E06D4A0A6022E0DB
:109E54006C4A0A601FE03A6812F470123B6813F40B
:109E640080331800920C921C1500002804D1664A15
:109E740002FB05F20A600BE03A68920304D5634AD8
:109E840002FB05F20A6003E05E4A02FB05F20A6087
:109E940001E05B4A0A603C6814F0F0042409DFF82E
:109EA400709119F804E00A6832FA0EF24A603B68CD
:109EB40013F4E0631B0A19F803804A6832FA08F2C3
:109EC4008A603A6812F46052D20A19F80290D1F802
:109ED40004A03AFA09FAC1F80CA03F6817F4404705
:109EE400BF0BDFF830A11AF807A0D1F80CB0BBFB08
:109EF400FAFBC1F810B0BDE8F08F0A00D2B2002A14
:109F040004D0454A13680343136003E0424A1368CC
:109F14008343136070470A00D2B2002A04D03F4A38
:109F240013680343136003E03C4A136883431360DC
:109F340070470A00D2B2002A04D0394A1368034396
:109F4400136003E0364A13688343136070470A00C2
:109F5400D2B2002A04D0334A13680343136003E0E7
:109F6400304A13688343136070470A00D2B2002A50
:109F740004D02D4A13680343136003E02A4A13688C
:109F84008343136070470100C9B2284A11607047C7
:109F940030B401000020002300250A00D2B2520987
:109FA400D2B2012A02D10C48046806E0022A02D186
:109FB4001048046801E01E4804680B00DBB213F08B
:109FC4001F032000D840C00701D5012000E0002075
:109FD400C0B230BC704700000010024004100240C0
:109FE4000000FFF8FFFFF6FE081002406000424246
:109FF400D800424220100240800442423C044242C3
:10A0040000127A00001BB70000093D00808D5B0040
:10A0140030000020400000201410024018100240BC
:10A024001C1002400C100240101002404004424236
:10A03400241002400A00D2B2002A04D0314A138804
:10A044000343138003E02F4A13888343138070472C
:10A054002D48018851F01001018070472A490A886F
:10A064004FF6EF7002400A807047002127480088AD
:10A07400274A128892B280B250EA0240704710B563
:10A084000400FFF7E5FF2000000C214908801F4869
:10A094000480FFF7E3FF10BD10B50400FFF7D8FFFD
:10A0A4002000000C10F00F001A4908801A480480A0
:10A0B400FFF7D4FF10BD144800888006FBD5704715
:10A0C40011490A884FF6F77002400A800888000791
:10A0D400FCD570470C490A8882430A807047010006
:10A0E4000020094A12880A40064B1B889BB20B4287
:10A0F40005D01000C0B2002801D0012000E00020EB
:10A10400C0B2704700280040042800401C280040CA
:10A1140018280040082800400C280040F0B5002210
:10A124000023002400250026002791F803C01CF01A
:10A134000F0C91F803E05FEACE6E02D58A7852EAFA
:10A144000C0C0A7812062AD00268160000221400A9
:10A15400082C23D25FF0010E1EFA04F215000A88BF
:10A164002A401300AB4217D1A20015000F22AA40C7
:10A174001700BE431CFA05F21643CA78282A04D1F4
:10A184001EFA04FEC0F814E006E0CA78482A03D197
:10A194001EFA04FEC0F810E0641CD9E706600A88C1
:10A1A400B2F5807F2EDB4268160000221400082CD2
:10A1B40027D25FF0010E14F108021EFA02F2150014
:10A1C4000A882A401300AB4219D1A20015000F22BD
:10A1D400AA401700BE431CFA05F21643CA78282A7F
:10A1E40004D114F108021EFA02F24261CA78482A24
:10A1F40005D114F108021EFA02FEC0F810E0641C36
:10A20400D5E74660F0BD0A0092B202617047F0B42F
:10A214000022002300250027002802D51D4C2468B5
:10A2240001E01D4C2468C0F3034586B210F4401CC1
:10A23400BCF5401F07D134F07064174A176837F033
:10A244007067176011E0C20206D50322AA4013000A
:10A254009C4354F0706408E00200520DD2B2120123
:10A2640016FA02F2944354F070640A00D2B2002A3F
:10A2740006D00200520DD2B2120116FA02F21443B1
:10A28400002802D5034A146001E0034A1460F0BCBC
:10A29400704700001C000140040001401C48704746
:10A2A40070B45368D41801E05B1C491E042B08DA0F
:10A2B40000291FBF057804F8015B10F8016B002E1C
:10A2C400F2D1536070BC704738B514461D4661B175
:10A2D400FFF7E6FF61686A6B204690476FF0010262
:10A2E400811A02D0491E01D001E003E005E00021FB
:10A2F400616032BD6FF0010032BD4FF0FF3032BDFE
:10A30400DA6B1047024BDFE7014BF9E7014870476E
:10A314007C00002044000020C9B202788A421AB1AD
:10A324001CBF10F8012FF9E718BF00207047000088
:10A3340080B500B906A005490B681BB12222002193
:10A34400984701E000F0A6FF222002BD603A0020F9
:10A35400636F6E73747261696E742068616E646C8D
:10A3640065723A20626164206D657373616765008C
:10A37400C9B2830706D0521E22D310F8013B99427A
:10A38400F7D11FE0083A13D302F1040241EA012194
:10A3940041EA014150F8043B121F21BF4B40A3F195
:10A3A400013C2CEA030C1CF0803FF3D0C9B2001F1F
:10A3B400083210F8013B521E28BF91EA030FF8D867
:10A3C40018BF0120401E704710B5144600F002F873
:10A3D400226010BDC1F30A5343B14A0012F5001FB5
:10A3E40028D2A3F2FE32A1EB0251704750EA410C8D
:10A3F40020D001F0004C31EA0C01B1FA81F204BF23
:10A40400B0FA80F3D2180B3AB2F120032CBF00FA51
:10A4140003F1914041EA0C013EBFC2F1200C20FA45
:10A424000CF319439040524240F2FD33D21A01EB2F
:10A4340003517047002270474FF4001C1CEB410F7E
:10A4440094BF1CEB430F09E041EA030C50EA4C0CA7
:10A4540052EA0C0C03D2994208BF9042704714BFD1
:10A464008B428242704700004FF4001C1CEB410FEA
:10A4740094BF1CEB430F09E041EA030C50EA4C0C77
:10A4840052EA0C0C03D28B4208BF8242704714BFBD
:10A494009942904270470000124254D440F2FF7C2B
:10A4A4001CEA11530FD0634531D09B1863453CBF60
:10A4B40001EB0251704701F0004141EA0C510020C8
:10A4C400AFF30080704750EA410320D001F0004C04
:10A4D40091EA0C011CD0B1FA81F30B3B9A420DD9DD
:10A4E400D21A994051EA0C01C3F1200C20FA0CFC59
:10A4F40061449840531C40F2FF7CD7E7914041EA05
:10A504000C01C2F1200C20FA0CF31943904070475F
:10A51400B0FA80F31533202BE0D3202AEED3203A6F
:10A52400203B9A4209D9D21A00FA03F141EA0C01FC
:10A534000020531C40F2FF7CB8E700FA02F141EA24
:10A544000C0100207047524240F2FF7C1CEA115378
:10A554000DD06345DBD0B2EB030C3CBFA1EB025141
:10A5640070470CF1010221EA035141F4801150EAD1
:10A57400410CCCD001F0004C352A27DC30B481EA00
:10A584000C01B2F1200309DAC2F12003044601FAF6
:10A5940003F5D0402843D1409C400CE0C3F1200295
:10A5A400450020FA03F418BF44F0010421FA03F033
:10A5B40091400C43002174F1004550F1000051EB2F
:10A5C4000C01244230BC7FF47BAF7047614600200D
:10A5D40076E70000C1F30A5340F2FE329B1A14DD01
:10A5E400D3F120034FEAE17208DDC90241EA505178
:10A5F40041F00040D84080185040704703F2E130E9
:10A6040010B1D24382F00040704700207047000030
:10A61400C11768B14840401AB0FA80F29040D21C89
:10A62400C907C2F5846241EA025202EBD021400517
:10A634007047000070B44FF0004591EA030F40F1F9
:10A6440035866B40841A71EB030603D2001BB141BB
:10A65400121973414FF4001C1CEB410F34BF7CEB07
:10A66400430442E00C0DA4EB1356352E4FDC45EAAF
:10A67400C323DB0A45EAC121C912B6F120050DDD69
:10A6840063FA05F6EB4086EA0305124218BF45F06B
:10A694000105C01851F100010CD213E062FA06F56D
:10A6A400F2405540F3415A40B340F3405A408018B9
:10A6B400594107D349085FEA30005FEA350528BFEE
:10A6C40045F0010501F58011420875F1004250F191
:10A6D400000041EB04514E0016F5001F70BC38BF5A
:10A6E40070470020090D090570471CEB410F10D27B
:10A6F40052EA43060BD0BCEB410F05D80C0DAB431B
:10A70400661E342EB6DD02E0AB438018594170BC9E
:10A71400704770BC70470000F0B540F2FF7581EAE5
:10A72400030C0CF0004C15EA11541DBF15EA135725
:10A73400AC42AF42E5E0BC41C1F31301C3F31303E0
:10A74400801A994143F4801304D2641E40004941A5
:10A7540080185941C90241EA5051B1FBF3F603FB99
:10A764001611A2FB0675D7EBC020A94102D2761EB2
:10A7740080185941C90241EA5051B1FBF3FE03FB71
:10A784001E11A2FB0E75D7EBC020A94103D2AEF176
:10A79400010E80185941890241EA9051760546EA32
:10A7A4008E2EB1FBF3F603FB1611A2FB0675D7EB55
:10A7B4008020A94102D2761E80185941C90241EA7B
:10A7C40050514EEA060EB1FBF3F603FB1611A2FB41
:10A7D4000675D7EBC020A94102D2761E80185941D4
:10A7E400C90241EA5051B1FBF3F703FB1711A2FB75
:10A7F4000735D3EBC020A94167F100070CBF004225
:10A8040047F0010766F3D5274FEA1E31B80814F55F
:10A81400806412DDBD0775F1004250EB0E5051EB20
:10A82400045111F5801F5CBF41EA0C01F0BD4CF0EE
:10A834007F6141F0E0410020F0BDBD076D0840EAB2
:10A844000E5041F48011D4F10104B4F120060ADA67
:10A85400C4F120060200E04001FA06F3E140184387
:10A86400B24015430EE0342C13DCC6F1200445EA53
:10A8740040056D0820FA06F2154321FA06F0A140BE
:10A884000D43002175F1004250F1000051EB0C0121
:10A89400F0BD00205FEA0C01F0BDCFB992185B4116
:10A8A400B3FA83F704BFB2FA82F6BF190B3FB7F1CC
:10A8B40020062FBF02FA06F3BB40C7F1200622FA96
:10A8C40006F638BF3343BA401CB1E419641E33E7BB
:10A8D4007F4231F00041B1FA81F404BFB0FA80F64E
