:020000040800F2
:10400000785A0020A1EA0008D1E40008D3E40008AF
:10401000D5E40008D7E40008D9E400080000000057
:10402000000000000000000000000000DBE40008C9
:10403000DDE4000800000000DFE40008E1E400081F
:10404000F5EB0008F9EB0008FDEB0008B7E6000807
:1040500001EC000805EC000809EC00080DEC000874
:1040600011EC000815EC000819EC00081DEC000824
:1040700021EC000825EC000813E60008EFE5000835
:1040800077E500089BE5000829EC00082DEC000806
:1040900031EC000835EC000839EC00083DEC000874
:1040A00041EC000845EC000849EC00084DEC000824
:1040B00051EC000855EC000859EC00085DEC0008D4
:1040C00061EC000865EC000869EC00086DEC000884
:1040D00071EC0008B5E500083DE5000835E600088C
:1040E00075EC000879EC00087DEC000881EC000814
:1040F00085EC000889EC00088DEC000891EC0008C4
:1041000095EC000899EC00089DEC0008A1EC000873
:1041100007E5000875E60008A5EC0008A9EC000812
:10412000ADEC0008B1EC0008B5EC0008B9EC0008F3
:1041300062F30F2262F31F42401810F0030308D00D
:10414000C91A1FD3DB0748BF00F8012D28BF20F88C
:10415000022D130030B414461546103928BF20E94B
:104160003C00FAD8490728BF20E90C0048BF40F8B6
:10417000042D890028BF20F8022D48BF00F8012D2A
:1041800030BC7047C91818BF00F8012DCB0728BFF5
:1041900000F8012D704700000022FFF7CDBFF009A5
:1041A00008CEB4B0F3B6A8CDD0C5CC000143010110
:1041B0001C51072003000102030404F0090806074C
:1041C000080902040608D295000452FF01E3E27DCB
:1041D0001420040000FA92000854F0031644000072
:1041E0002000012002C57A00082C43B37A3C21014B
:0641F0000002010005FFC2
:105000002043533131313020323330363330303376
:105010002047323330323030000000000000000002
:105020000000000000000000000000000000000080
:0250300000007E
:105034002DE9F0476C240025DFF8D8662A0021000A
:105044003000FFF773F840F624060027DFF8C8861F
:105054003A0031004046FFF769F840F638285FF01F
:105064000009DFF8B8A64A4641465046FFF75EF805
:1050740000F014F8002804D00320DFF8A4164870C8
:1050840003E00220DFF898164870DFF88406002158
:105094008170007801F044FFBDE8F0872DE9F04706
:1050A4005FF0000800240025DFF864663200182150
:1050B400002001F0BFFF07003800C0B2002810D064
:1050C4005FF000085FF000091421300002F0CEF810
:1050D400716902000B0092B29BB29A4201D0002285
:1050E4001700320018214FF4807001F0A3FF8046AE
:1050F4004046C0B200280FD000245FF000091421FC
:10510400300002F0B3F8716902000B0092B29BB256
:105114009A4201D00022904658EA0700C0B2002803
:1051240021D118245FF00009B2464A4621005046B6
:10513400FEF7FCFF0020B070002070700120B081E9
:10514400C0207071A820B0710120F0710B20307262
:105154000120F07000203071002030703220306166
:1051640000F068F826E03800C0B201280FD14046AC
:10517400C0B200280BD132001821002001F05AFFE0
:10518400320018214FF4807002F01BF812E038004E
:10519400C0B200280ED14046C0B201280AD1320064
:1051A40018214FF4807001F045FF320018210020CF
:1051B40002F007F802F07EF845F25550DFF8641566
:1051C4000A88824208D14A88737A9BB29A4203D1F0
:1051D4008A88B3899A4206D00880B089888002F010
:1051E400EDF802F018F93800C0B2012805D14046A4
:1051F400C0B2012801D1012005002800C0B2BDE8D9
:10520400F08710B50024DFF8582D3C214FF4C87006
:1052140001F010FFC0B210BDF8B504000D00160077
:1052240000273200290089B2200080B201F002FF79
:10523400C0B2F2BD70B50024DFF8D4640020706100
:105244001421300002F012F870613200182100209D
:1052540001F0B7FF0500320018214FF4807001F00F
:10526400B0FFC0B270BD38B50024DFF8F45C002094
:10527400A8633821280001F0F9FFA8632A003C2123
:105284004FF4C87001F09DFFC0B232BDF8B5040000
:105294000D00160000273200290089B2200080B2D8
:1052A40001F08FFFC0B2F2BD30B4010080240020B1
:1052B400002200250023180080B232281ADA0020C8
:1052C40002001000C0B2082812DA180080B2085C8C
:1052D400204202D0280080B20DE0E4B264086D1CC4
:1052E4002000C0B2002801D180200400521CE8E74D
:1052F4005B1CE0E7002030BC704730B40100802420
:1053040000200025002200231D00ADB2322D17DA43
:1053140000252A001500EDB2082D0FDA1D00ADB2EC
:105324004D5D254200D0401CE4B264082500EDB276
:10533400002D01D180252C00521CEBE75B1CE3E718
:1053440080B230BC704730B40100802400200022B9
:1053540000250023180080B232281ADA0020020047
:105364001000C0B2082812DA180080B2085C20428B
:1053740002D1280080B20DE0E4B264086D1C200064
:10538400C0B2002801D180200400521CE8E75B1C55
:10539400E0E7002030BC704710B58AB0040002A8D2
:1053A4002021FEF7F7FE207A0190E0790090A3799E
:1053B4006279DFF87C1C02A802F070F800200090EB
:1053C400002302AA1E2141F2100002F08DF9207A76
:1053D4000190E0790090A3796279DFF8581C02A863
:1053E40002F05CF800200090002302AA142141F28C
:1053F400300002F079F90AB010BD2DE9F84F94B0ED
:1054040004000D000026002750210022E8464046F3
:10541400FEF78CFE002194F81380D5F82008401C78
:10542400C5F82008D5F81008401CC5F8100885F800
:105434000B884046C0B2002877D0DFF8FC1B087800
:10544400002804D10320DFF8642D107003E0052048
:10545400DFF8582D1070D5F81C08401CC5F81C083E
:105464004046C0B201284FD100200870D5F8140876
:10547400401CC5F814080020C5F818085FF0080996
:1054840014F1140AEB464A465146584602F0BCFA57
:10549400DFF8180DD5F81418027891420DD10120C7
:1054A40085F80C085FF00809EA4605F6020B4A463F
:1054B4005146584602F0A8FA46E00078D5F8141888
:1054C400884241D2022085F80C08002007003800E9
:1054D400C0B2082838DA3800C0B2284490F802086C
:1054E40069463A00D2B2895C88420BD00020C5F8E4
:1054F4001408D5F818080C30C5F81808042085F8E5
:105504000C0821E07F1CE2E7012008700020C5F8A8
:105514001408D5F818080C30C5F81808042085F8C4
:105524000C08082085F80D080EE0D5F81808401C72
:10553400C5F81808D5F818080C2805D30020C5F8B4
:105544001408042085F80C083000C0B215B0BDE87A
:10555400F08F2DE9F8438AB004000D0002A8202141
:10556400FEF718FE5FF000080026DFF8AC91D9F8CA
:105574001C0802F0ABFA0700D9F8200802F0A6FADA
:105584000100380002F0B0FADFF8241C02F02AFB14
:1055940002F094FB0700DFF8640D42695AA102A8E7
:1055A40001F07CFF38004FF6FF7180B2884202D1CF
:1055B40042F21070070000200090012302AA082183
:1055C40041F2102002F090F899F80B28DFF8301D12
:1055D40002A801F063FF00200090002302AA032127
:1055E40041F2502002F080F8D9F8202847A102A8FF
:1055F40001F054FF00200090012302AA08214FF477
:10560400915002F071F83A0092B2642092FBF0F1EA
:1056140000FB11220A23BC461FFA8CFC5FF0640EC7
:10562400380080B24FF47A7192FBF3F803FB18222E
:1056340001929CFBFEF20EFB12CC0A229CFBF2F2BE
:10564400009290FBF1F201FB1200642190FBF1F354
:10565400380080B24FF47A7190FBF1F2DFF8A41CA9
:1056640002A801F01BFF00200090012302AA0821D8
:1056740041F2302002F038F83000C0B20BB0BDE87F
:10568400F083F0B589B00400DFF87C0C01782200C7
:10569400D2B2914234D004700078002817D120256A
:1056A400DFF8686C01AF2A003100380002F0ACF971
:1056B400F82142F2602002F003F800200090012358
:1056C40001AA20214FF4935002F00EF819E020258E
:1056D400DFF8D46D01AF2A003100380002F094F9EC
:1056E4004EF2070142F2602001F0EAFF0020009030
:1056F400012301AA20214FF4935001F0F5FF00E0AB
:10570400047009B0F0BD0000256467002564000042
:105714000C3A00207037002038150020C800002003
:10572400603A0020303A00201FB5040001A8082187
:10573400FEF730FD607E002808D0022879D03ED3E1
:10574400042800F0ED80C0F0AF8025E10020009037
:10575400002301AA08214FF4835001F0C5FF002063
:105764000090002301AA082141F2700001F0BCFF5F
:1057740000200090002301AA08214FF4845001F076
:10578400B3FF00200090002301AA082141F29000F9
:1057940001F0AAFF4FF44151022001F07CFF43F2D3
:1057A4005001022001F077FF43F26001022001F072
:1057B40072FF43F27001022001F06DFFECE0002063
:1057C4000090002314F1280208214FF4835001F0C3
:1057D4008BFF00200090002301AA082141F27000F1
:1057E40001F082FF00200090002301AA08214FF459
:1057F400845001F079FF00200090002301AA0821C1
:1058040041F2900001F070FF4FF44151002001F08B
:1058140042FF43F25001022001F03DFF43F26001D8
:10582400022001F038FF43F27001022001F033FF3F
:10583400B2E000200090002314F1280208214FF464
:10584400835001F051FF00200090002314F1300236
:10585400082141F2700001F047FF0020009000236E
:1058640001AA08214FF4845001F03EFF002000906B
:10587400002301AA082141F2900001F035FF4FF402
:105884004151002001F007FF43F25001002001F0D4
:1058940002FF43F26001022001F0FDFE43F27001B9
:1058A400022001F0F8FE77E000200090002314F1BC
:1058B400280208214FF4835001F016FF00200090C5
:1058C400002314F13002082141F2700001F00CFFB2
:1058D40000200090002314F1380208214FF4845072
:1058E40001F002FF00200090002301AA082141F2E8
:1058F400900001F0F9FE4FF44151002001F0CBFE7D
:1059040043F25001002001F0C6FE43F26001002082
:1059140001F0C1FE43F27001022001F0BCFE3BE045
:1059240000200090002314F1280208214FF4835032
:1059340001F0DAFE00200090002314F13002082167
:1059440041F2700001F0D0FE00200090002314F119
:10595400380208214FF4845001F0C6FE0020009064
:10596400002314F14002082141F2900001F0BCFE32
:105974004FF44151002001F08EFE43F2500100200B
:1059840001F089FE43F26001002001F084FE43F23D
:105994007001002001F07FFE1FBD2DE9F24F8EB093
:1059A40004000027002600208DF801005FF00008A5
:1059B400002500200490B4F80500ADF802005FF063
:1059C400040914F1090A0DF1100B4A4651465846D0
:1059D40002F01AF8BDF802004FF6FF71884208D0B1
:1059E400BDF80200DFF8E41D8989884201D0002057
:1059F400B2E2DFF8DC6DB4F80300A6F82C0A00204C
:105A04003080E0798DF800009DF800001F2802D155
:105A1400207A8DF800009DF8000086F8270A0020FF
:105A240086F8230A002086F8250A0120DFF8A41D41
:105A34000870DFF8A40D0068DFF8A01D0860A078E6
:105A4400002802D1B4F8097003E0BDF83800B0F1C1
:105A54000B079DF80000042814D020283AD02128F0
:105A640078D0222800F08581232800F0C9812528D8
:105A740000F08280F72810D0F8281AD0FF2800F010
:105A8400448255E2380080B2002805D1320000215A
:105A9400002000F0D3FA30804AE2380080B20028B7
:105AA40006D132003221DFF8380D00F0C7FA308019
:105AB4003EE2380080B200280CD1002086F8230A88
:105AC400002086F8250A32000C21DFF8180D00F0BA
:105AD400B5FA3080380080B207283BD1A07A00287C
:105AE40008D0A07A0A2802D1E07A002802D0E07A0D
:105AF400012822D1DFF8D48C607A88F80A00A07AD1
:105B040088F80000E07A88F804005FF0040914F1D2
:105B14000C0A18F1100B4A465146584601F074FF1E
:105B2400002086F8230A002086F8250AFFF782FB66
:105B340098F8000001F0F4F905E0012086F8230A42
:105B4400042086F8250ADFF8842C3100002000F0B8
:105B540061FD3080380080B200280CD1002086F826
:105B6400230A002086F8250ADFF8602C3100012082
:105B740000F050FD3080DBE1380080B20D28C0F227
:105B8400F78000200190607B402880F2E080607BF9
:105B94002044807B242880F2DA8048200B90002067
:105BA4000A90DFF8448CC1460A9A0B994846FEF7DE
:105BB400BDFA607B401C099014F10D000890DFF8D9
:105BC4002CBCD946099A0899484601F01DFF414664
:105BD400607B20440E3000F00BFE88F8190004208E
:105BE4000790607B2044617B2144897B08440F300B
:105BF400069018F12009079A0699484601F004FF17
:105C040002200590607B2044617B2144897B084409
:105C14001330029018F11C09059A0299484601F0C4
:105C2400F3FE607B2044617B2144897B0844407DF2
:105C340088F81A00DFF81C9EDFF81CAE18225946BB
:105C4400504602F055F8002823D1082218F1280103
:105C540019F1340002F04CF800281AD1042218F18A
:105C6400200119F12C0002F043F8002811D102227E
:105C740018F11C0119F1280002F03AF8002808D1A3
:105C8400012218F11A0119F1260002F031F8002856
:105C94003BD018200990CDF820B0CDF808A0099A7F
:105CA4000899029801F0B0FE02980420079018F1B8
:105CB4002000069019F12C0A079A0699504601F023
:105CC400A3FE5FF0020A18F11C00059019F1280BDD
:105CD40052460599584601F097FE5FF0010B18F102
:105CE4001A00029019F126085A460299404601F01A
:105CF4008BFE19F10C01607B20440E3000F078FD1E
:105D040089F82500012089F80C005FF0040814F1DB
:105D140009090DF1040A42464946504601F074FE51
:105D2400002086F8230A002086F8250A019802F04C
:105D340049F8DFF8280D0178032902D001780D29EC
:105D44000BD10178152908D00021417005E001200C
:105D540086F8230A042086F8250ADFF8A00540699E
:105D640002F02CF902000199300000F09FFB308012
:105D7400DEE0380080B2152841D1207F0500DFF82D
:105D8400E01C14F10A0000F0EFFF002826D02800E0
:105D9400C0B2002822D15FF0040814F11609DFF81C
:105DA400B4AC1AF15C0B42464946584601F02CFE4D
:105DB40004208AF85500A07ECAF80400A07E8AF860
:105DC4006100E07E8AF86000002086F8230A002043
:105DD40086F8250A042086F82A0A0AE00120DFF85A
:105DE400741C81F85500012086F8230A042086F8E3
:105DF400250A32000021002000F020F9308097E0CD
:105E0400380080B20228C0F27F80A07D0500002007
:105E140003905FF0FF305FF0FF31CDE90C01DFF854
:105E2400448118F10D09494614F10A0000F09CFF61
:105E3400002818D02800C0B2002814D1042218F178
:105E4400150114F1120001F053FF00280BD10020BA
:105E540086F8230A002086F8250A0120DFF8041CAE
:105E640081F8260A4AE0494614F10A0000F07CFF52
:105E7400002818D02800C0B2002814D1DFF8E48B21
:105E8400042218F5236114F1120001F031FF0028F7
:105E940009D1002086F8230A002086F8250A01206B
:105EA40088F8260A2AE008220CA914F10A0001F055
:105EB4001FFF002817D1042203A914F1120001F0D6
:105EC40017FF00280FD12800C0B200280BD10020F2
:105ED40086F8230A002086F8250A0120DFF8841BAF
:105EE40081F8260A0AE00120DFF8681B81F85500D2
:105EF400012086F8230A042086F8250A32000021AE
:105F0400002000F09BF8308012E0380080B20228B4
:105F14000EDB002086F8230A002086F8250A0120DB
:105F240086F8260A32000021002000F087F830802D
:105F3400308800280FD19DF8010000280BD10120E2
:105F440086F8230A042086F8250A3200002100205E
:105F540000F074F8308030880FB0BDE8F08F000096
:105F640018390020C43900202DE9F84F04000D0031
:105F740016000022002000210027B4F805804346C3
:105F84009BB24FF6FF7C634508D04046DFF83C38AF
:105F94009B8980B2984201D0002047E0DFF8309816
:105FA400B4F80300A9F82C0A0020A9F8000094F81A
:105FB40007A0A078002802D1B4F809B001E0B6F136
:105FC4000B0B5046C0B2042808D0302812D0312818
:105FD40017D0322816D0342815D014E0584680B291
:105FE400002806D14A460021002000F027F8A9F82D
:105FF400000008E0584680B2002801D001200700C4
:1060040001E000E0FFE7B9F8000000280CD101200E
:1060140089F8230A042089F8250A4A460021002029
:1060240000F00CF8A9F800003800C0B2BDE8F28F07
:1060340090E00008B0EA00086C3A00202DE9F84F1F
:1060440005000E00170000245FF00008002087F808
:10605400290A7E20210089B239448870641C5520A5
:10606400210089B239448870641C0020210089B25F
:1060740039448870641CDFF854078189220092B285
:106084003A449170641C808980B2000A210089B26C
:1060940039448870641CB7F82C0A210089B2394449
:1060A4008870641CB7F82C0A80B2000A210089B2F7
:1060B40039448870641C1F20210089B239448870D7
:1060C400641C97F8270A210089B239448870641C3B
:1060D4003000C0B2F1281BDB200080B23844867047
:1060E400641C0020210089B239448870641CB146C4
:1060F4005FFA89F9AA46200080B2384410F1020BF5
:106104004A465146584601F07FFC54FA86F434E07E
:1061140097F8230A00280ED1B1465FFA89F9AA46F6
:10612400200080B2384410F1020B4A4651465846CA
:1061340001F06AFC0EE0B1465FFA89F95FF0000AEB
:10614400200080B2384410F1020B524649465846AA
:10615400FDF7ECFF54FA86F497F8230A210089B27C
:1061640039448870641C97F8250A210089B239449F
:106174008870641C2000401E3871210089B2891E79
:10618400381D01F073F80100200080B2384481709A
:10619400641C080080B2000A220092B23A44907053
:1061A400641C3C802000C0B2BDE8F28FC600002011
:1061B40000401C462DE9F84F04000D0016005FF066
:1061C400000B0027012085F8290A7E20594689B250
:1061D400294488701BF1010B5520594689B2294482
:1061E40088701BF1010B0020594689B2294488703C
:1061F4001BF1010BDFF8D40581895A4692B22A4477
:1062040091701BF1010B808980B2000A594689B252
:10621400294488701BF1010BB5F82C0A594689B240
:10622400294488701BF1010BB5F82C0A80B2000ACE
:10623400594689B2294488701BF1010B2220594622
:1062440089B2294488701BF1010B0020594689B298
:10625400294488701BF1010B5FF00808A1465846D9
:1062640080B2284410F1020A42464946504601F0E1
:10627400CBFB1BF1080B584680B2284486701BF1F7
:10628400010B3000000A594689B2294488701BF179
:10629400010B3000000C594689B2294488701BF167
:1062A400010B3000000E594689B2294488701BF155
:1062B400010B5846401E2871594689B2891E281D73
:1062C40000F0D4FF8246594689B2891E281D00F089
:1062D400CDFF0100584680B2284481701BF1010BA8
:1062E40058460A0092B2120A03009BB22B449A70D9
:1062F400401C2880C0B2BDE8F28F0000E8360020C0
:1063040054EB0008BCEA0008C70000205CEB00085E
:106314002DE9FE4F04000D0016001F00DDF830804B
:106324005FF0000B0020ADF804007E20594689B2CE
:10633400314488701BF1010B5520594689B2314410
:1063440088701BF1010B0020594689B231448870D2
:106354001BF1010BDFF8740481895A4692B232446E
:1063640091701BF1010B808980B2000A594689B2F1
:10637400314488701BF1010BB6F82C0A594689B2D6
:10638400314488701BF1010BB6F82C0A80B2000A64
:10639400594689B2314488701BF1010B23205946B8
:1063A40089B2314488701BF1010B0020594689B22F
:1063B400314488701BF1010B5FF0080900955846C1
:1063C40080B2304410F1020A4A460099504601F066
:1063D4001BFB1BF1080B584680B2304487701BF13D
:1063E400010B3800000A594689B2314488701BF108
:1063F400010B3800000C594689B2314488701BF1F6
:10640400010B3800000E594689B2314488701BF1E3
:10641400010B584680B2304480F802801BF1010B16
:106424004046000A594689B2314488701BF1010B79
:106434004046000C594689B2314488701BF1010B67
:106444004046000E594689B2314488701BF1010B55
:10645400584680B2304484701BF1010B5846401EEC
:106464003071594689B2891E301D00F0FFFE824604
:10647400594689B2891E301D00F0F8FE01005846C5
:1064840080B2304481701BF1010B58460A0092B26D
:10649400120A03009BB233449A70401C3080C6F841
:1064A400307AC0B2BDE8FE8F64EB00082DE9F843F2
:1064B40004000D00160000275FF00008002084F897
:1064C400290A7E20390089B2214488707F1C552016
:1064D400390089B2214488707F1C0020390089B2B8
:1064E400214488707F1CB94881893A0092B22244C1
:1064F40091707F1C808980B2000A390089B22144DE
:1065040088707F1CB4F82C0A390089B22144887041
:106514007F1CB4F82C0A80B2000A390089B22144E5
:1065240088707F1C1F20390089B2214488707F1C29
:1065340094F8270A390089B2214488707F1C00200E
:10654400390089B2214488707F1C380080B220440D
:1065540085707F1C2800000A390089B221448870A4
:106564007F1C2800000C390089B2214488707F1CEC
:106574002800000E390089B2214488707F1C38003D
:1065840080B2204486707F1C3000000A390089B232
:10659400214488707F1C3000000C390089B22144EA
:1065A40088707F1C3000000E390089B22144887045
:1065B4007F1C94F8230A390089B2214488707F1C17
:1065C40094F8250A390089B2214488707F1C380068
:1065D400401E2071390089B2891E201D00F046FE3C
:1065E4008146390089B2891E201D00F03FFE01005A
:1065F400380080B2204481707F1C080080B2000AF9
:106604003A0092B2224490707F1C27803800C0B2B6
:10661400BDE8F2832DE9F84F80460D0016000024F2
:106624000027002085F8290A7E20210089B2294408
:106634008870641C5520210089B229448870641C28
:106644000020210089B229448870641C5F48818934
:10665400220092B22A449170641C808980B2000A9C
:10666400210089B229448870641CB5F82C0A2100E1
:1066740089B229448870641CB5F82C0A80B2000AD7
:10668400210089B229448870641C1F20210089B22A
:1066940029448870641C95F8270A210089B229448A
:1066A4008870641C0020210089B229448870641C0D
:1066B4004046C0B2002849D0B07A210089B22944AA
:1066C4008870641C3078210089B229448870641C65
:1066D4003079210089B229448870641C3069210012
:1066E40089B229448870641C3069000A210089B287
:1066F40029448870641C3069000C210089B2294443
:106704008870641C3069000E210089B229448870A5
:10671400641C5FF00809324810F1080A200080B2B6
:10672400284410F1020B4A465146584601F06CF9D0
:1067340008340020210089B229448870641C002098
:10674400210089B229448870641C1DE05FF00809A7
:10675400234810F1080A200080B2284410F1020BEB
:106764004A465146584601F04FF9083495F8230A31
:10677400210089B229448870641C95F8250A2100F7
:1067840089B229448870641C2000401E28712100AD
:1067940089B2891E281D00F069FD8146210089B255
:1067A400891E281D00F062FD0100200080B22844EB
:1067B4008170641C20000A0092B2120A03009BB28A
:1067C4002B449A70401CC0B2BDE8F28F0C3A0020F2
:1067D400C80000206B3A0020543A0020443A0020BC
:1067E40000500008E8F7FF1FD0380020D1380020FF
:1067F4002DE9F84F88B004000D007C208DF80100CD
:106804005FF000095FF0000A5FF000080026042131
:10681400002201AF3800FDF789FC20788DF80000D4
:1068240000279DF800003900C9B288420FD3380010
:10683400C0B2205C9DF80110884206D118F101080D
:1068440001A83100C9B24754761C7F1CE9E74046D1
:10685400C0B200281ED1607800280BD1A07800288F
:1068640008D1E078002805D12079002802D105203C
:106874008046BCE09DF800009DF80490B0EB090947
:1068840014F1010A15F1280B4A465146584601F005
:10689400BBF8ACE04046C0B201281FD19DF804907B
:1068A400B9F10109601C039015F1280A4A460399BD
:1068B400504601F0A9F89DF800009DF804A0B0EB43
:1068C4000A0A9DF804002044401C029015F1300B84
:1068D40052460299584601F097F888E04046C0B203
:1068E400022835D19DF80400401E0590601C0490D8
:1068F40015F12809059A0499484601F085F80DF127
:10690400040B9BF801009DF80490B0EB0909B9F160
:1069140001099DF804002044401C039015F1300A3D
:106924004A460399504601F06FF89DF800009BF821
:1069340001A0B0EB0A0A9BF801002044401C02901D
:1069440015F1380B52460299584601F05DF84EE0B5
:106954004046C0B203284AD19DF80400401E079067
:10696400601C069015F12809079A0699484601F01B
:106974004BF80DF1040999F801009DF804A0B0EB5F
:106984000A0ABAF1010A9DF804002044401C05904B
:1069940015F1300B52460599584601F035F899F82F
:1069A400020099F801B0B0EB0B0BBBF1010B99F8A5
:1069B40001002044401C049015F1380002905A460E
:1069C4000499029801F020F802989DF8001099F8B3
:1069D4000200091A039199F802002044401C029015
:1069E40015F14009039A0299484601F00DF818F18F
:1069F40001084046C0B209B0BDE8F08F10B50400EC
:106A040060782178884223D06078207060781528D7
:106A140008D1DFF8E00500780A2803D1152000F03A
:106A240027FE15E020780D2809D1DFF8C805007885
:106A34000A2804D1207880B200F01AFE08E02078F9
:106A4400DFF8B015097851FA80F080B200F010FE3A
:106A540010BD0000703700207D370020603A002010
:106A64003A1D0020000B00202DE9F04F91B00400E6
:106A74000D00160001A82021FDF78CFB09A8202198
:106A8400FDF788FB00200027DFF86CB5DBF8101059
:106A9400DBF81480B1EB0808B8F1000F02D55FF001
:106AA4000008FFE7002060623078002808D0012841
:106AB40064D0022800F05381142800F04F814EE185
:106AC400DFF8389599F80C00012842D119F10C002F
:106AD400FEF72AFE002000900123A21C0C214FF493
:106AE400825000F001FE60780D280ADB002000903F
:106AF400012314F10E020C214FF4B25000F0F4FD06
:106B040008E000200090012309AA0C214FF4B250A0
:106B140000F0EAFD01A9206A00F03FF9002000908E
:106B2400012301AA05214FF4885000F05DFEA28BD9
:106B3400DFF8CC1401A800F0B1FC00200090012380
:106B440001AA0A2141F2101000F0CEFD022089F8BA
:106B54000C00002000900023DFF8A82408214FF443
:106B6400995000F0C1FD002000900023DFF8982424
:106B74000E2141F2500000F0B7FDF0E0DFF87C9404
:106B840099F80C00012842D119F10C00FEF7CCFD54
:106B9400002000900123A21C0C214FF4825000F02D
:106BA400A3FD60780D280ADB00200090012314F176
:106BB4000E020C214FF4B25000F096FD08E00020C4
:106BC4000090012309AA0C214FF4B25000F08CFD6F
:106BD40001A9206A00F0E1F800200090012301AA35
:106BE40005214FF4885000F0FFFDA28BDFF810144C
:106BF40001A800F053FC00200090012301AA0A21FF
:106C040041F2101000F070FD022089F80C00002001
:106C140000900023DFF8F023122141F2504000F0ED
:106C240063FD002000900023DFF8D82308214FF4EF
:106C3400995000F059FDDBF81010DBF81400081A25
:106C4400002801D50020FFE7DFF818A1DAF81010BA
:106C540088420ED3DFF8B4130878002809D1206ADB
:106C640000FB08F0A28BB0FBF2F060620120087018
:106C740016E0DFF898030078002811D0DBF8101034
:106C8400DBF81400081A002802D55FF0000800E0C1
:106C94008046206A00FB08F0A18BB0FBF1F0606233
:106CA400DFF86C03006800280AD57F1C3800C0B2E6
:106CB400062805DB002080460020606200200700D3
:106CC4004246CBA101A800F0E9FB0020009000237C
:106CD40001AA05214FF4895000F086FD01A9606ADC
:106CE40000F05BF800200090012301AA082141F282
:106CF400301000F079FDDAF81020C64901A800F040
:106D0400CDFB00200090012301AA08214FF49A50E2
:106D140000F0EAFC01A9DAF81020206A4243A08BB3
:106D2400B2FBF0F000F039F800200090012301AA32
:106D340007214FF49B5000F0D7FC01A9D9F85C005F
:106D4400626A101800F029F800200090012301AABB
:106D540008214FF48A5000F047FD00E0FFE711B02E
:106D6400BDE8F08F0C3A002030B40200012000236B
:106D740000242300DBB2082B0CDA2300DBB2D35C43
:106D84002500EDB24D5DAB4202D00023180001E0B6
:106D9400641CEEE7C0B230BC7047F8B584B00400A0
:106DA4000D00B4F57A7F1AD26420B4FBF0F100FB35
:106DB40011400A216422B0FBF1F301FB130000909F
:106DC400B4FBF2F002FB10420A20B2FBF0F36420A1
:106DD400B4FBF0F29049280000F060FB9EE0B4F5AB
:106DE4007A7F29D342F21070844225D26420B4FB06
:106DF400F0F100FB11400A2164224FF47A73B0FBD6
:106E0400F1F601FB16000190B4FBF2F002FB104214
:106E14000A20B2FBF0F00090B4FBF3F003FB104344
:106E24006420B3FBF0F34FF47A70B4FBF0F27B49C7
:106E3400280000F033FB71E042F21070844231D339
:106E440077498C422ED26421B4FBF1F201FB12414A
:106E54000A2264234FF47A76B1FBF2F702FB17118E
:106E64000291B4FBF3F103FB11430A21B3FBF1F1EB
:106E74000191B4FBF6F106FB11466421B6FBF1F176
:106E84000091B4FBF0F100FB11404FF47A71B0FBB8
:106E9400F1F342F21070B4FBF0F26249280000F002
:106EA400FDFA3BE05E498C4238D35F4A944235D2C6
:106EB4006422B4FBF2F302FB13420A2364264FF468
:106EC4007A77B2FBF3FC03FB1C220392B4FBF6F2C9
:106ED40006FB12460A22B6FBF2F20292B4FBF7F268
:106EE40007FB12476422B7FBF2F20192B4FBF0F203
:106EF40000FB12404FF47A72B0FBF2F00090B4FB46
:106F0400F1F001FB104142F21070B1FBF0F3444880
:106F1400B4FBF0F24549280000F0C0FA05B0F0BD1A
:106F240038B504002000C0B20A282AD14FF6FF75F4
:106F3400290042F2100000F0C3FB29004FF4015075
:106F440000F0BEFB290042F2500000F0B9FB29001A
:106F540042F2101000F0B4FB290042F2300000F0BD
:106F6400AFFB290042F2702000F0AAFB29004FF485
:106F7400195000F0A5FB290042F2303000F0A0FBCC
:106F84002CE0002142F2100000F09AFB00214FF4A3
:106F9400015000F095FB002142F2500000F090FBFC
:106FA400002142F2101000F08BFB002142F230006D
:106FB40000F086FB002142F2702000F081FB0021EA
:106FC40042F2200000F07CFB00214FF4195000F045
:106FD40077FB002142F2203000F072FB1448007865
:106FE40004490978081880B200F042FB31BD000062
:106FF400256400000C3A0020E83600207037002099
:107004006CEB0008EC390020000000206A3A0020F4
:10701400DC37002074EB00087CEB0008C8EA0008A9
:10702400A0860100D4EA000840420F0070EA00087C
:10703400603A00202DE9F04104000D0016005FF0D5
:1070440001080027280080B2002860D001F00AF867
:10705400002801D1002080464046C0B2002808D054
:10706400A02001F094F801F071F8002801D100206B
:1070740080464046C0B2002808D0200080B2000AF2
:10708400C0B201F084F801F061F880464046C0B215
:10709400002806D02000C0B201F079F801F056F8BB
:1070A40080464046C0B2002805D000F0DBFF00282F
:1070B40001D1002080464046C0B2002808D0A1205B
:1070C40001F065F801F042F8002801D10020804663
:1070D4006D1E4046C0B2002817D0002007003800BB
:1070E400290080B289B2884208D201F075F83900CB
:1070F40089B2705400F0FAFF7F1CF0E701F06CF8DD
:10710400390089B2705401F009F800F0D7FF404605
:10711400C0B2BDE8F0812DE9F04104000D00160075
:1071240000275FF00108280080B2002842D000F058
:1071340099FF002801D1002080464046C0B20028B3
:1071440008D0A02001F023F801F000F8002801D1B4
:10715400002080464046C0B2002808D0200080B2FB
:10716400000AC0B201F013F800F0F0FF8046404678
:10717400C0B2002806D02000C0B201F008F800F028
:10718400E5FF8046002007003800290080B289B25C
:1071940088420DD24046C0B2002807D0380080B2E1
:1071A400305C00F0F4FF00F0D1FF80467F1CEBE779
:1071B40000F084FF052000F04CFF4046C0B2BDE85B
:1071C400F0812DE9F04704000D00160000275FF060
:1071D40000085FF0000A200010F03F0F1BD014F0ED
:1071E4003F00D0F1200007002800390080B289B2A6
:1071F400884200D22F00404680B206EB00023900DC
:1072040089B218EB040080B2FFF785FF8146ED1BBD
:1072140017EB080801E05FF001094846C0B20028F6
:107224001FD0280080B200281BD02020070028008F
:10723400390080B289B2884200D22F00404680B221
:1072440006EB0002390089B218EB040080B2FFF7A4
:1072540062FF8146ED1B17EB08084846C0B20028C0
:10726400DFD14846C0B2BDE8F087000070B4030027
:107274000022002400264FF6FF7000258D4214D210
:107284005A5D504000221600082E0CD2C20706D5C3
:1072940080B2020048F2084090EA520001E080B255
:1072A4004008761CF0E76D1CE8E780B2C04380B26A
:1072B40070BC70472DE9FE430025002608210022FA
:1072C4006C462000FCF732FF0027644C22000821A2
:1072D40047F6F870FFF7AEFE05002800C0B200289C
:1072E40014D05FF000085FF0000906212000FFF7CA
:1072F400BDFFE18802000B0092B29BB29A4202D019
:107304000022150001E00122150007E0322000F000
:10731400A0FE7F1C3800C0B20328D6DB5FF0000853
:107324006A4608214FF4FC40FFF784FE0600300053
:10733400C0B2002814D000275FF000090621684677
:10734400FFF794FFBDF8061002000B0092B29BB247
:107354009A4202D00022160001E00122160008E041
:10736400322000F076FE18F101084046C0B203282E
:10737400D6DB55EA0600C0B2002809D14AF6AA2095
:1073840020800220608000F019F800F044F813E037
:107394003000C0B2002802D100F03DF80CE0280013
:1073A400C0B2002808D10827E9463A00494620001F
:1073B40000F02AFB00F002F8BDE8F78370B5002462
:1073C4000025264E0020F08006213000FFF74EFFF6
:1073D400F0803200082147F6F870FFF7F2FE04004F
:1073E4002000C0B2002806D0320008214FF4FC402F
:1073F400FFF7E7FE04002000C0B2002808D13220C5
:1074040000F027FE6D1C2800C0B20328E1DBFFE773
:107414002000C0B270BD70B5002400250F4E0020BE
:10742400F08006213000FFF721FFF08032000821B0
:107434004FF4FC40FFF7C5FE04002000C0B2002852
:1074440008D1322000F005FE6D1C2800C0B20328CC
:10745400ECDBFFE72000C0B270BD0000303A002032
:1074640030B4002513E050F8042BD30744BFA9F12E
:1074740001039A18091F042942F8045BFAD213463F
:107484008C0744BF15809B1CC90748BF1D7050F86A
:10749400041B0029E7D130BC704700000CB430B5A0
:1074A40083B00A4606A9029104460025019400957A
:1074B40002AB01A9084878441E3000F0B9FE019AD5
:1074C400157000284EBF04460198041B204603B0E3
:1074D40030BC5DF80CFB00BF0F0800002DE9FE4F27
:1074E4005020029000200190DFF80045019A029993
:1074F4002000FCF71BFE502000900024DFF8F0541D
:107504002E00220000993000FCF710FE4FF4847620
:107514000027DFF8E084C1463A0031004846FCF712
:1075240005FE5FF002095FF0000ADFF8CCB45246B2
:1075340049465846FCF7FAFD5FF4E13001F0DCFE01
:10754400012001F02FFF4FF4907118F1010001F0B8
:1075540056FF4FF4907115F1080001F093FF5FF4AA
:107564000030DFF8981408604FF49070DFF890143E
:107574000860DFF89004016851F001010160BDE882
:10758400F78FF0B40400002000255A260700FFB24C
:10759400DE55401CA5260700FFB2DE55401CFF2621
:1075A4000700FFB2DE55401C82260700FFB2DE55FD
:1075B400401C2600B6B2360A0700FFB2DE55401C56
:1075C4000600F6B29C55401C00263500EDB21700AB
:1075D400ADB2BFB2BD4208D23500EDB24D5D070079
:1075E400FFB2DD55401C761CEFE7C51E9D70C0B28E
:1075F400F0BC7047F0B40400002000255A260700B0
:10760400FFB2DE55401CA5260700FFB2DE55401C24
:10761400FF260700FFB2DE55401C82260700FFB29A
:10762400DE55401C2600B6B2360A0700FFB2DE550E
:10763400401C0600F6B29C55401C00263500EDB2F5
:107644001700ADB2BFB2BD420DD200250700FFB294
:10765400DD55401C3500EDB24D5D0700FFB2DD5530
:10766400401C761CEAE7C51E9D70C0B2F0BC704792
:1076740070B50400DFF87C536E1C3100200080B22A
:1076840000F032F985F8010195F8011189B2300052
:1076940001F09FFE70BDF8B504000D00D54E771CB7
:1076A4003A00290089B2200080B200F058F986F827
:1076B400010196F8011189B2380001F08AFEF1BD8A
:1076C40073B50400CB4D6E1C3300022201A9E01CEB
:1076D40080B2FFF756FF85F8010195F8011189B2D0
:1076E400300001F076FE73BD2DE9F14F8AB00D0034
:1076F40016001F00149C202100220DF104084046AE
:10770400FCF714FD5FF0000A5FF00008300001F0A0
:1077140043FF814628004946C0B2C9B288420CD210
:10772400A946CA465FFA8AFA00960DF1040B52463E
:107734000099584600F068F93EE0202000905FF080
:10774400200A0DF1040B524600995846FCF7EEFC52
:107754003800C0B2002813D15FEAC97008D52900E7
:10776400C9B24846C0B2091A491C4910884615E0F6
:107774002900C9B24846C0B2091A491088460DE02A
:107784003800C0B2012801D1A04607E03800C0B2D9
:10779400022803D1281BB0EB09008046CA465FFAD1
:1077A4008AFA009601A84146C9B200EB010B524681
:1077B4000099584600F028F9DFF838A21AF1010BB5
:1077C4005B462A00D2B292B201A9BDF82800FFF7A5
:1077D400D8FE8AF801019AF8011189B2584601F0DD
:1077E400F8FD0BB0BDE8F08F2DE9F14F8AB00D0024
:1077F40016001F00149C202100220DF104084046AD
:10780400FCF794FC5FF0000A5FF00008300001F020
:10781400C3FE814628004946C0B2C9B288420CD290
:10782400A946CA465FFA8AFA00960DF1040B52463D
:107834000099584600F0E8F83EE0202000905FF000
:10784400200A0DF1040B524600995846FCF76EFCD1
:107854003800C0B2002813D15FEAC97008D52900E6
:10786400C9B24846C0B2091A491C4910884615E0F5
:107874002900C9B24846C0B2091A491088460DE029
:107884003800C0B2012801D1A04607E03800C0B2D8
:10789400022803D1281BB0EB09008046CA465FFAD0
:1078A4008AFA009601A84146C9B200EB010B524680
:1078B4000099584600F0A8F8DFF838A11AF1010B36
:1078C4005B462A00D2B292B201A9BDF82800FFF7A4
:1078D40091FE8AF801019AF8011189B2584601F023
:1078E40078FD0BB0BDE8F08F10B4020000205A23DD
:1078F4000400E4B20B55401CA5230400E4B20B556C
:10790400401CFF230400E4B20B55401C82230400F6
:10791400E4B20B55401C00230400E4B20B55401C98
:1079240084230400E4B20B55401C5A230400E4B23F
:107934000B55401C01230400E4B20B55401C1300FA
:107944009BB21B0A0400E4B20B55401C0300DBB2DB
:10795400CA54401CC31E8B70C0B210BC704730B4F4
:10796400030000205A240500EDB25455401CA52400
:107974000500EDB25455401CFF240500EDB25455EA
:10798400401C82240500EDB25455401C0C00A4B2E6
:10799400240A0500EDB25455401C0400E4B211550C
:1079A400401C1C00A4B2240A0500EDB25455401C2E
:1079B4000400E4B21355401CC41E9470C0B230BC21
:1079C4007047F8B504000D000A4E771C3A002900F0
:1079D40089B2200080B2FFF7C2FF86F8010196F851
:1079E400011189B2380001F0F4FCF1BD80380020A7
:1079F40030380020E0350020603A002004000240C6
:107A04005C0002405800024062B38B0708D0521E4B
:107A140011F8013B00F8013B00F024808B07F6D1FC
:107A2400830740F0208000BF103A07D330B4B1E898
:107A34003810103AA0E83810F9D230BC530724BFEC
:107A4400B1E80810A0E8081044BF51F8043B40F81E
:107A5400043BD20724BF31F8022B20F8022B44BF89
:107A64000B7803707047121F17D35B0009D151F8CC
:107A7400043B20F8023B1B0C121F20F8023BF6D2F9
:107A84000BE051F8043B00F8013B1B0A20F8023BD1
:107A94001B0C121F00F8013BF3D238BF121D521EFB
:107AA40024BF11F8013B00F8013BF8D87047B1F549
:107AB400807F02D34FF0FF30704701700120704780
:107AC4000078401E8041C043C00F704700280AD090
:107AD400B0FA80F18840D1F19D01C905020672F126
:107AE400004241EB1020704710B5FF2313EAD05435
:107AF4001DBF13EAD1529C429A4239E0A41ADA0714
:107B040080EA0103134042EA012142EA0020421ABA
:107B14003CBF641E01EB4202090AB2FBF1FE01FB09
:107B24001E221202B2FBF1F001FB10226EF30F20B1
:107B34001202B2FBF1FE4EEA00207F3406DDFE2C79
:107B440024DA53EA500050EBC45010BDD4F10204BF
:107B540001FB1E2240F08071192C1DDC21FA04F077
:107B6400C4F12004A140114371F10042584110BDF9
:107B74009C421ABF03EAD1529A420FE080EA010EF6
:107B84000EF00043400004D0490016D143F0FF40FA
:107B940010BD490008BFD343180010BD9C4205D155
:107BA400D21AF7D001F00041484010BD4A0212BF7A
:107BB4000846484000F0004010BD4AB90902B1FA35
:107BC40081F2914044B1A418C00140F000409EE706
:107BD400C90141F0004152420002B0FA80F4A040D1
:107BE400141B94E7FF2212EAD05C1DBF12EAD153A2
:107BF400944593422BE09C44D30780EA01021A4047
:107C040043EA002043EA0121A1FB0030C04238BF0F
:107C140040007CF17F010BDBFE294ADA5B0842EA73
:107C2400C15153EA006373F1004C51EB10207047CB
:107C3400D1F1080CDCF120012FDB5B0810FA01F113
:107C44000B4320FA0CF073F1004150417047944506
:107C54001CBF02EAD153934280EA010202F00042BF
:107C64001DD0400019D0490017D05BB9634514D02A
:107C74000902B1FA81F39940BCEB030CC00140F056
:107C84000040C1E70002B0FA80FC10FA0CF0B3EB3C
:107C94000C0CC90141F00041B6E7100070474000E8
:107CA4000AD0490008D010F1807F94BF11F1807F81
:107CB40002E042F0FF407047D0437047C0F3C75121
:107CC4007E390EDDC217D1F1200106DD000240F03D
:107CD4000040C840104450407047D04380F00040FA
:107CE4007047002070470268531C0360117070478E
:107CF4000300002013F0030F09D0521E22BF13F813
:107D0400010B11F801CBB0EB0C00F3D0704711F06C
:107D1400030F14D1121F22BF53F8040B51F804CBE4
:107D24006045F7D0121D0AD200BA9CFA8CFCB0EB65
:107D34000C0038BF6FF0000088BF01207047521E4E
:107D440022BF13F8010B11F801CBB0EB0C00F6D0F5
:107D5400521C08BF1046704780B5012001F038FC62
:107D640001F03EFC012001F0E1FC612001F0A4FDE2
:107D74000028FAD04FF4007001F0DDFC012001F07E
:107D8400DFFC01F031FE01F02AFE0021012001F0A8
:107D9400E5FD01F024FE49F63F4001F011FE01F03B
:107DA4001EFE01BD10B5040001F019FE01F01CFE19
:107DB40001F015FE2100C9B2012001F0CFFD01F050
:107DC4000EFE10BD10B50400012001F001FC01F00D
:107DD40006FE200001F0E7FD01F001FE10BD2E00BB
:107DE40080B54FF4165001F02DFE01F071FE012113
:107DF400012001F084FE00208049087001BD4A780A
:107E0400002A06D0012A0DD0032A17D0042A25D02F
:107E140038E00200D2B27E2A03D181F82600012282
:107E24004A702FE00200D2B2FF2A04D181F8270061
:107E340003224A7001E000224A7023E00200D2B219
:107E4400052A08DB04224A7081F8250081F82800FD
:107E54000322CA7001E000224A7013E0CA78531C5E
:107E6400CB70D2B20A4482F8260091F82520D21CA5
:107E7400CB789A4204DA00224A7001220A7001E0A7
:107E840000220A7070472DE9F04104000D0016002D
:107E94001F005FF000087E204146C9B2785418F1F3
:107EA4000108FF204146C9B2785418F101080620A0
:107EB4004146C9B2785418F101084046C0B23C5456
:107EC40018F101084046C0B23D5418F101083000D1
:107ED40080B2000A4146C9B2785418F101084046FC
:107EE400C0B23E5418F101080621781C00F006F8CF
:107EF40018F103084046C0B2BDE8F08130B4002355
:107F0400002214000D00E4B2EDB2AC4205D214001C
:107F1400E4B2045D1B19521CF3E79BB25B421C00E4
:107F2400A4B2240A1500EDB244551400E4B204448A
:107F34006370EF241500EDB20544AC7030BC70479B
:107F440070B40100002000250022002401238D7854
:107F54001E00F6B2B54205D31D00EDB24D5D5219B7
:107F64005B1CF4E71D00EDB24E5D1D00EDB20D4447
:107F74006D7855EA0625AA181600B6B2002E01D16E
:107F840001242000C0B270BC70472DE9F041040008
:107F94000D001600194F17F10E084346320092B235
:107FA4002900C9B22000C0B2FFF76DFF7873797B56
:107FB40089B2404601F0BBFDBDE8F08170B5060012
:107FC4003003000B01F0D2FD04000D00C6F3035092
:107FD40001F0CCFD02000B000020094901F0D4FDA2
:107FE40002000B002000290002F07AF90022054B60
:107FF40002F09AFA02F06AFB70BD000054390020C6
:108004000000244000408F401CB5042100226C462F
:108014002000FCF78BF803208DF8020014208DF863
:10802400030081488188ADF800106946006802F0B9
:1080340061FB7E488188ADF800106946006802F053
:1080440059FB13BD002064210800411E0028FBD108
:1080540070474FF420514843401C0100481E00293A
:10806400FBD1704710B5704CA088216808616F4837
:10807400818800680161FFF7E5FF206880680028B7
:1080840001D1012000E00020217911F00101084212
:1080940001D0002011E0A08821684861FFF7D2FFD9
:1080A40020688068A188084201D0002005E0A088EB
:1080B40021684861FFF7C6FF012010BD38B55B4C4D
:1080C400A08821684861FFF7BDFF574DA88829683B
:1080D4004861FFF7B7FFA08821680861FFF7B2FF86
:1080E400A88829680861FFF7ADFF31BD10B54F4C72
:1080F400A08821684861FFF7A5FF4B488188006884
:108104004161FFF79FFFA08821680861FFF79AFF8C
:10811400A08821684861FFF795FF10BD10B5434C56
:10812400A08821684861FFF78DFF3F488188006877
:108134000161FFF787FFA08821680861FFF782FFCC
:10814400A08821684861FFF77DFF10BD38B5374C22
:10815400A08821684861FFF775FF334DA888296816
:108164000861FFF76FFFA08821680861FFF76AFFC5
:1081740028688068A988084204D0A08821684861DA
:10818400002003E0A08821684861012032BD70B559
:10819400040008252800451EC0B2002817D0234E2D
:1081A400B08831684861200604D51F48818800687A
:1081B400016103E01C48818800684161FFF742FFC8
:1081C400B08831680861FFF73DFF6400E2E71748B3
:1081D40081880068416170BDF8B508240025124EFD
:1081E400B088316808612000441EC0B2002813D052
:1081F4006D000E4FB88839684861FFF723FFB888CF
:1082040039680861FFF71EFF30688068B18808424A
:10821400E9D055F00105E6E704488188006841612A
:108224002800C0B2F2BD000024EB00082CEB0008CB
:108234002DE9F14FB2B09946924600230691CDE95B
:1082440000333C9A0F930DF14A0114914A7011E0E6
:10825400329E57462C4617F8011B0698B047002853
:10826400069000F026810F98401C641E0F90F2D1F6
:108274003296AA449AF80000252808D10021002249
:1082840009910A920B910C920D910E920FE06A469D
:108294004FF0FF31504602F021FB050002D10F9848
:1082A40000F066BED4D50125E3E741F001011AF8D8
:1082B400010F2028F9D023280CD02B2804D02D28F6
:1082C40005D0302809D00BE041F00201EFE741F07E
:1082D4000401ECE741F00801E9E741F01001E6E7A9
:1082E4002A280FD1D9F8002052F8040BC9F800202D
:1082F4000028119003D54042119041F004010AF185
:10830400010A14E01192DFF8EC3B0AE0119898425C
:1083140005DA00EB800402EB4402303A11920AF1D0
:10832400010A9AF80020A2F130000A28EED39AF844
:1083340000002E2803D04FF0FF32109229E01AF8E3
:10834400010F2A2809D1D9F8000050F8042BC9F8E4
:10835400000010920AF1010A1BE02D280CBF0AF15B
:10836400010A002000221092DFF8882B0BE040B9AC
:10837400109B934205DA03EB830504EB4504303C80
:1083840010940AF1010A9AF80040A4F130030A2B70
:10839400EDD3ADF848100FF660309AF8001002F0F3
:1083A400A7FA08B11AF8010B8DF84A009DF84A00A3
:1083B400682805D19AF8000068280CD1622106E0EB
:1083C4006C2804BF9AF800006C2804D171218DF840
:1083D4004A100AF1010A1FA808901AF801BBBBF160
:1083E40025012DD01C3900F06181091F022940F2BA
:1083F4005D810E392AD0491F00F0B384093900F099
:108404005581891E00F04985491E00F0F584491EF6
:10841400022940F24B81091F00F0EE84491F00F04D
:10842400BA80491E00F09D84491E65D0C91E21D022
:10843400891E00F09684C91E00F0938400F04CBDA0
:1084440025238DF87C30012109912AE06C208DF8D8
:108454004A00D9F8000050F8042BC9F80000002A9B
:1084640043D11499487800283DD04FF0FF340FF6DB
:10847400902012E09DF84A006C28EAD0D9F8000058
:1084840050F8044BC9F800000794D4B914994878FB
:1084940098B14FF0FF340FF6842002F035FA201A19
:1084A40007D132981FAA04A900F065FD00287FF5C2
:1084B400E1AE4FF0FF3000F05BBD0FF67C2007907B
:1084C400EFE7109D002D04D5204601F065F8044621
:1084D40007E02A46204602F037FA002814BF041B9E
:1084E4002C460A94DDE70FF65422329804A900F0D2
:1084F400C8FD0028D5D5DCE7D9F8001051F8040BE5
:10850400C9F8001020F00004002121F0FF351FAB52
:10851400CDE904450793DDE9042308993C2413B904
:108524000AB9109898B102F00F053035641EEEB206
:108534003A2EA8BF2735120942EA03721B090D55CA
:1085440008BF002A03D007980D19A842EBD30819D5
:108554000790C4F13C0210980A92824209DABDF8ED
:108564004810821A4FF6EF7001400C92ADF8481093
:1085740097E7002895D59DF8480000F014001028CE
:108584008FD1119B09990C985B1A1B1A9A1A002A0D
:1085940087DD0C9285E71499487820B14FF0FF34B9
:1085A4000FF69C1079E79DF84A00622862D068288B
:1085B40019D06A2840D06C2806D071284DD0742870
:1085C4002DD07A281ED064E0D9F8001051F8040B9D
:1085D400C9F8001020B94FF0FF340FF67C105CE7A7
:1085E4000F9901605DE7D9F8001051F8040BC9F840
:1085F400001020B94FF0FF340FF65C104DE70F99CF
:1086040001804EE7D9F8001051F8040BC9F80010A6
:108614000028E5D14FF0FF340FF63C103DE7D9F8C0
:10862400001051F8040BC9F800100028D8D14FF0FD
:10863400FF340FF6241030E7D9F8001051F8040B7A
:10864400C9F8001020B94FF0FF340FF60C1024E7DE
:108654000F9AD317C0E9002323E7D9F8001051F883
:10866400040BC9F800100028F2D14FF0FF340FF6C4
:10867400E80012E7D9F8001051F8040BC9F800100B
:1086840020B94FF0FF340FF6D00006E70F990170C0
:1086940007E7D9F8001051F8040BC9F800100028B6
:1086A4009ED14FF0FF340FF6B000F6E6D9F8002063
:1086B400D21D22F00702C9F80020D2E900010832D5
:1086C400C9F80020CDE90401C80F02D009982D2172
:1086D4000AE0BDF84800810702D509982B2103E080
:1086E400C00705D5099820211FAA1154401C0990E0
:1086F400DDE9042309991FA8CDE92E2308444BF092
:1087040020016129079015AC0BD01099002902D5DE
:108714000621109105E001BF4BF0200167290122D9
:108724001092DDE9042359004915491C10D11A039C
:108734000ED0ABF1610503211A2D0A9102D20FF676
:10874400A43101E00FF6A0310322FFF75DF9A8E69A
:1087540059004915491C0AD11A0308D1ABF1610526
:1087640003211A2D0A9116D30FF68431ECE7DDE9C3
:108774000401CDE93001DDE9302323F00047B7F5EA
:10878400801F22F000060DD20022002F08BF002E09
:10879400029203D116E00FF65431D5E702AA02F093
:1087A400FFF80FE0DFF8EC0ADFF8EC1A00EB1750E3
:1087B4000290DDE930234FF0FF301940DFF8DC7A16
:1087C40010403943CDE904014BF0200061280DD15C
:1087D400079830210170821CBBF1610F07920CBF16
:1087E4007821582141700998801C0990DDE9040121
:1087F40020F0000231F0004308BF002A02D1002615
:10880400002571E14BF02008B8F1610F40F0BE8003
:108814001098002847BF21210391401C0390039F17
:10882400DDE92E017F1C00220023DDE9044502F06E
:10883400EFF802998DF8542038BF85F00045091FE0
:10884400002F02910DF155065DDDDFF8541ACDE9D4
:10885400302140F2FF732E93204629460022002344
:1088640002F0EEF84FD24800400D00F11C0215D082
:10887400002A13DD2E9B9A420ADBDDE9300121F048
:10888400004205F000400243DDE93001114611E0E9
:108894006FF31E5141EA025120460BE024F0000020
:1088A40035F0004108BF00280FBF29461C22294685
:1088B40002F0DEF804460D4602F078F9FF1F002F9F
:1088C400804609DD02F090F902460B46204629460F
:1088D40002F09CF904460D46F01D0721B8F1000F83
:1088E4000CDD491E5EBF08F00F0200F8012D4FEAAF
:1088F4002818F3D502E0002200F8012D491EFAD50C
:10890400C61D002FA8DC0DF15500361A03988642C7
:10891400D8BF304600280DF1550430D4B04206DAF1
:108924000DF155010A5C082AA8BF0F2100DA0021C5
:10893400024615AB134400E0401E13F80159521EC1
:108944008D42F9D00F2904D10DF155018B5C5B1CCC
:108954008B54002A04D50299091D15AC401C0291C0
:10896400411E0CD46218ABF13A0613783033DDB2F1
:108974003A2DA8BFF318491E02F80139F5D510990C
:10898400002940F1AF80421E1092ABE00299DFF85B
:10899400142947F29750414391FBF2F2DDE92E4549
:1089A400029225F00045D2F1070204DD2046294653
:1089B40000F04CFC0BE052420020DFF8EC1800F011
:1089C40045FC02460B462046294601F089FC044634
:1089D400B8F1660F109806BF029F0A3706273F18A2
:1089E400142FC8BF142730208DF854000D460020E2
:1089F400DFF8B818CDE92E010DF15506002F33DD4F
:108A04002046294601F062FE01460A4606F10803A3
:108A140004200A26B2FBF6F606EB860EA2EB4E0203
:108A2400303203F8012C0A22B6FBF2F202EB820E7A
:108A3400A6EB4E063036401E03F8026DE9D1083F1E
:108A4400002F03F10806D9DD084601F08FF802462D
:108A54000B462046294602F0D9F8DDE92E2301F021
:108A640063FD04460D46CBE70DF15500361A0DF1B2
:108A7400550404E00298401E761E0290641C20787F
:108A84003028F7D0B8F1660F02D10299491C04E0EE
:108A9400B8F1650F0CBF0121002110980818864217
:108AA400B8BF701E00281DD4B04204DA215C3429FA
:108AB400C8BF392100DC30210246631E9D1800E046
:108AC400401E15F80169521E8E42F9D0392902D18F
:108AD400A15C491CA154002A04D50299491C1C46D6
:108AE400401C02910646029D01F0FCFE406A077894
:108AF400DDF8408030B2002802DC01260FF2F47465
:108B04004BF02000662808BF6D1C16D0672846D19C
:108B140028B210F1040F48DB404546DA9DF84800BE
:108B24006D1C010703D430B24045B8BF804628B25B
:108B3400B8EB000848BF4FF000080FFA85FB079810
:108B44000A99BBF1000F00F3B2804A1C0A92302349
:108B54004354B8F1000F03DC9DF84800010704D525
:108B64000A98411C0A9107990F5418EB0B0FB8BFD0
:108B7400C8F100052DB268420D90A84432B2904568
:108B8400B8BF4646079B0A9836B20B963246214632
:108B94001844FEF739FFA8EB06000E90CBE0BBF1BA
:108BA400610F17D14FF0700B19E030B2404504DA71
:108BB4009DF848100A0758BF8046B8F1010848BF1D
:108BC4004FF00008BBF1670F14BF4FF0450B4FF097
:108BD400650B04E0BBF1410F08BF4FF0500B0A983E
:108BE400411C0A91B8F1000F079914F8012B0A549B
:108BF40003DC9DF8480001071AD50A98411C0A9124
:108C0400B8F1000F07990F5412DD761E30B280457B
:108C140007980A9BB8BF464632B221461844FEF76D
:108C2400F3FE0A9936B271180A91A8EB06000D906A
:108C340007980A9908442AB2002A80F800B003D49D
:108C44002B224270811C04E02D2141701546811CA9
:108C54006D4200202EAA0A2409E02B4693FBF4F56A
:108C640005EB8506A3EB460302F8013B401C2DB23D
:108C7400002DF2DC012806DC4BF02002652A04BF3B
:108C8400302201F8012B00282EAA08D1302001F847
:108C9400010B06E0401E135C303301F8013B002851
:108CA400F8DC079A0A981044091A0B9143E0084427
:108CB40031B22AB2914219DA32B22146FEF7A4FE49
:108CC4000A9936B27118ABEB0606B8F1000F0A9197
:108CD4000D9603DC9DF84800020704D50798475415
:108CE4000B99491C0B91CDF8388024E02146FEF7FE
:108CF4008BFE0A98761B5844B8F1000F0A9003DCE7
:108D04009DF848100A0703D5411C0A9107990F548E
:108D140030B2804507980A9BB8BF464632B204EB8E
:108D24000B011844FEF770FE0A9836B230180A9008
:108D3400A8EB06000D909DF8480000F014001028E0
:108D44007FF4AFAB099A0A990D988A180B99821887
:108D54000E988A18821811988242BFF6A2AB821A22
:108D640017E49DF84A00622808D068280ED06A28C3
:108D740014D06C281FD0712810D01CE0D9F8001032
:108D840051F8040BC9F80010C0B21AE0D9F8001069
:108D940051F8040BC9F8001080B212E0D9F8002091
:108DA400D21D22F00702C9F80020D2E900010832DE
:108DB400C9F8002006E0D9F8001051F8040BC9F8EE
:108DC40000100021CDE904019DF8480001075AD59F
:108DD400DDE90423002B08BF002A54D04BF0200007
:108DE400782850D109981FA930220A54401C431CEA
:108DF400099301F800B046E09DF84A00622808D0C3
:108E040068280ED06A2814D06C281FD0712810D07E
:108E14001CE0D9F8001051F8040BC9F8001040B256
:108E24001AE0D9F8001051F8040BC9F8001000B288
:108E340012E0D9F80020D21D22F00702C9F8002060
:108E4400D2E900010832C9F8002006E0D9F8001080
:108E540051F8040BC9F80010C117CDE90401002929
:108E640002D509982D210AE0BDF84800810702D5F2
:108E740009982B2103E0C00705D5099820211FAAD2
:108E84001154401C09901FA809990144079104A892
:108E9400594600F056F9FFF704BB9DF84A006C28C8
:108EA4000BD001210991D9F8000050F8041BC9F82E
:108EB40000008DF87C10FFF7F4BAD9F8000050F8E0
:108EC400041BC9F8000015914FF0FF3210920021E5
:108ED400169115AAFFF709BB25210122BBF1000F4A
:108EE4008DF87C1009923FF4DCAA8DF87DB0022144
:108EF400FFF7AABACBCCCC0C686A6C747A4C00002D
:108F04007072696E74665F733A2062616420256CC6
:108F14007320617267756D656E7400007072696E9E
:108F240074665F733A2062616420257320617267FE
:108F3400756D656E74000000000000000000000004
:108F44007072696E74665F733A20256E206469736B
:108F5400616C6C6F776564007072696E74663A2038
:108F640062616420256E20617267756D656E7400A0
:108F740033B0BDE8F08F2DE9FC410F46064690461C
:108F84007A6B7869396ABC6A121AB869521A796AB2
:108F9400121AF869521A121A97F83800141B41076A
:108FA4000FD42020002C8DF800000ADD2546012373
:108FB4006A463946304600F07DF900285DD16D1EC1
:108FC400F5D17B6942463946304600F073F90028F2
:108FD40053D130208DF800003D6A002D09DD0123B6
:108FE4006A463946304600F065F9002845D16D1EC1
:108FF400F5D1BB69FA683946304600F05BF90028C0
:109004003BD130208DF800007D6A002D08DD01235E
:109014006A463946304600F04DF970BB6D1EF6D1F4
:10902400F868B969FB6942183946304600F042F9DC
:1090340018BB30208DF80000BD6A002D08DD012327
:109044006A463946304600F035F9B0B96D1EF6D19E
:1090540097F8380041070DD52020002C8DF800002A
:1090640008DD01236A463946304600F023F920B969
:10907400641EF6D10020BDE8F6814FF0FF30BDE854
:10908400F6812DE9F8470D46A3B02F6B002F8246D9
:10909400904648BF6FF0004701F029FE696B401805
:1090A40001AA0021C2E90011812828BF4FF0FF3036
:1090B40044D289461EE0A74230DB68692018812823
:1090C4000BD30021696303AA29465046FFF753FFD7
:1090D4005FEA000922D40020686103AB6E6922466E
:1090E40069469819FEF790FCA6196E6158F8040BAE
:1090F400A0B13F1B002F11DDD8F8001001AA68466B
:1091040001F0EEFB0446002C05D4D8F8000000283A
:10911400D1D1641ECFD54FF0FF390EE0B9F1000F65
:10912400504604D103AA2946FFF725FF8146B9F129
:10913400000F02D1002068616863484624B0BDE88E
:10914400F0872DE9FC4307466F293E6908BF0824D0
:1091540005D041F02000782814BF0A2410243C25AF
:10916400D7E90023642918BF69299046994605D197
:10917400002B03D5D8F1000869EB4909B9F1000FB8
:1091840008BFB8F1000F0CD1386B50B9082C39D195
:1091940097F83800010735D530203B2586F83B0089
:1091A40030E08DF80010404649462246E31701F0AE
:1091B400A3FD3032D0B26D1E3A28019504DB9DF830
:1091C4000000A0F151018A187255404649462246D2
:1091D400E31701F091FD80465FEA010908BFB8F189
:1091E400000F03D0F86871198842DCD3082C09D128
:1091F40097F83800010705D5705D302802D06D1E40
:1092040030207055C5F13C02BA617119F960386BB0
:10921400824208DA821A3A624FF6EF70398F0140BF
:109224003987BDE8F38300280ED597F8380000F09D
:109234001400102808D17B6B7969386A5B1A1B1AF1
:109244009A1A002AC8BF3A62BDE8F3832DE9D043D5
:1092540006460F4614464FF00008DFF8549012E01B
:10926400E00707D542464B463046394601F05CF9E3
:1092740006460F464046494642464B4601F054F9DD
:10928400641080468946002CEAD130463946BDE850
:10929400D083000002FCFFFFFFFF0F800000E03FCF
:1092A4000000F07FA08601000000F03F84D79741C2
:1092B40000002440F8B505460E4617461C4600201B
:1092C4005CB117F8011BB068A847B06030B1F06A10
:1092D400401CF0620020641EF3D1F2BD4FF0FF3059
:1092E400F2BD00006E616E004E414E00696E660074
:1092F400494E46003000430030B585B004000421D7
:1093040000226D462800FAF711FF1021002201AD5A
:109314002800FAF70BFF994D280001F005FE984844
:109324008188ADF8001003218DF8021018218DF802
:1093340003106946006801F0DDF992488188ADF8B0
:10934400001048218DF803106946006801F0D2F935
:1093540001940020ADF808000020ADF80A000020B8
:10936400ADF80C000020ADF810000C20ADF80E0094
:1093740001A9280001F020FE0121280001F092FE3D
:10938400012240F22441280001F09BFE01228021A9
:10939400280001F0CEFE01224021280001F0C9FE80
:1093A40005B030BD38B50400042100226D46280004
:1093B400FAF7BCFE25208DF8000003208DF801008B
:1093C40002208DF802008DF80340684601F021FF69
:1093D40031BD10B4002200231A000C0092B2A4B2D2
:1093E400A2420AD21A0092B2825C674C2280634A7B
:1093F40012881206FBD55B1CEEE710BC704770B5F3
:109404008CB004000D00614E300001F059FF5E483D
:109414000190029410200390049500200590802070
:1094240006900020079000200890002009904FF437
:1094340040500A9000200B9001A9300001F0B8FFC1
:1094440001220221300001F0D1FF4FF400505049B5
:109454000860306840084000306048480088400692
:10946400FBD50E208DF8000002208DF801000020AD
:109474008DF8020001208DF80300684601F0C9FE52
:109484000CB070BD70B58CB004000D000421002236
:109494006E463000FAF74AFE2C21002201AE30005D
:1094A400FAF744FE3B4E300001F00AFF36480190C3
:1094B40002940020039004950020059080200690DB
:1094C4000020079000200890002009904FF440509D
:1094D4000A9000200B9001A9300001F069FF0122DD
:1094E4000221300001F082FF5FF400302849086057
:1094F40030684008400030600F208DF800000320E1
:109504008DF8010001208DF8020001208DF8030080
:10951400684601F07EFE0CB070BD10B51C485FF4C7
:10952400003101601B490A68520852000A604FF476
:1095340000510160154801684908490001600F4C59
:1095440020884006FBD50020FFF72CFF002240F2C4
:109554002441200001F0B5FD00228021200001F00B
:10956400E8FD00224021200001F0E3FD002120005D
:1095740001F098FD200001F0D7FC10BD0038014037
:1095840004EB00080CEB00080438014044000240DE
:10959400040002405800024000F10103810704D096
:1095A40010F8011B820781B1FAD10268A2F10131DE
:1095B400914311F0803104BF50F8042FF6E709BA43
:1095C400B1FA81F100EBD100401CC01A70470000D1
:1095D4000100C9B2014A11607047000020000E4228
:1095E40080B5012000F063F9002000F060F901BDAE
:1095F400DFF80C13086850F001000860DFF804235A
:109604001368DFF80403034013600B68DFF8FC02FF
:1096140003400B60086830F480200860106830F460
:10962400FE0010605FF41F00DFF8E412086070476A
:10963400DFF8CC120A6832F480320A600A6832F425
:1096440080220A600200B2F5803F03D0B2F5802F79
:1096540005D009E00A6852F480320A6004E00A681E
:1096640052F4A0220A60FFE7704738B5002000904A
:1096740000240025312000F01FF905000098401C4B
:10968400009000984FF6FF71884203D02800C0B2C2
:109694000028EFD0312000F00FF9002801D001207C
:1096A40000E00020C0B232BD30B40023954D2C68D8
:1096B40034F47C1451EA000214432C6030BC70472B
:1096C4000100C9B2934A1160704700218D4B1A689A
:1096D4009208920002431A6070478A48006810F0AA
:1096E4000C0070470021874B1A6832F0F0020243E5
:1096F4001A6070470021834B1A6832F4E062024317
:109704001A60704700217F4B1A6832F4605252EAA3
:10971400C0021A6070478049086070470021794B85
:109724001A6832F4404202431A6070470100C9B219
:109734007B4A1160704779490A6802430A6070479E
:109744000100C9B2774A116070472DE9F04F01005A
:1097540000220025002000266A4FD7F800C01CF024
:109764000C0C6346002B04D0042B05D0082B06D028
:1097740023E06D4A0A6022E06C4A0A601FE03A68FE
:1097840012F470123B6813F480331800920C921C8C
:109794001500002804D1664A02FB05F20A600BE0BA
:1097A4003A68920304D5634A02FB05F20A6003E0B7
:1097B4005E4A02FB05F20A6001E05B4A0A603C680B
:1097C40014F0F0042409DFF8709119F804E00A6831
:1097D40032FA0EF24A603B6813F4E0631B0A19F88C
:1097E40003804A6832FA08F28A603A6812F46052D6
:1097F400D20A19F80290D1F804A03AFA09FAC1F889
:109804000CA03F6817F44047BF0BDFF830A11AF8EB
:1098140007A0D1F80CB0BBFBFAFBC1F810B0BDE84F
:10982400F08F0A00D2B2002A04D0454A13680343D9
:10983400136003E0424A13688343136070470A00CD
:10984400D2B2002A04D03F4A13680343136003E0F2
:109854003C4A13688343136070470A00D2B2002A5B
:1098640004D0394A13680343136003E0364A13688B
:109874008343136070470A00D2B2002A04D0334AEB
:1098840013680343136003E0304A1368834313608F
:1098940070470A00D2B2002A04D02D4A1368034349
:1098A400136003E02A4A136883431360704701007E
:1098B400C9B2284A1160704730B401000020002367
:1098C40000250A00D2B25209D2B2012A02D10C48B0
:1098D400046806E0022A02D11048046801E01E4828
:1098E40004680B00DBB213F01F032000D840C0074C
:1098F40001D5012000E00020C0B230BC7047000058
:1099040000100240041002400000FFF8FFFFF6FEC2
:109914000810024060004242D80042422010024037
:10992400800442423C04424200127A00001BB70009
:1099340000093D00808D5B003000002040000020C5
:1099440014100240181002401C1002400C10024077
:109954001010024040044242241002400A00D2B2D5
:10996400002A04D0314A13880343138003E02F4AAA
:1099740013888343138070472D48018851F01001E8
:10998400018070472A490A884FF6EF7002400A8026
:109994007047002127480088274A128892B280B273
:1099A40050EA0240704710B50400FFF7E5FF2000BD
:1099B400000C214908801F480480FFF7E3FF10BD15
:1099C40010B50400FFF7D8FF2000000C10F00F00C2
:1099D4001A4908801A480480FFF7D4FF10BD1448C0
:1099E40000888006FBD5704711490A884FF6F77046
:1099F40002400A8008880007FCD570470C490A8891
:109A040082430A80704701000020094A12880A40F4
:109A1400064B1B889BB20B4205D01000C0B2002835
:109A240001D0012000E00020C0B2704700280040AF
:109A3400042800401C280040182800400828004042
:109A44000C28004030B585B00400042100226D4686
:109A54002800FAF76BFB1021002201AD2800FAF769
:109A640065FB3E4D280001F05FFA3D488188ADF862
:109A7400001003218DF8021018218DF80310694697
:109A8400006800F037FE37488188ADF8001048219F
:109A94008DF803106946006800F02CFE0194002044
:109AA400ADF808000020ADF80A000020ADF80C0065
:109AB4000020ADF810000C20ADF80E0001A928001C
:109AC40001F07AFA0121280001F0ECFA05B030BD6A
:109AD4001CB5042100226C462000FAF727FB342031
:109AE4008DF8000003208DF8010002208DF802009B
:109AF40001208DF80300684601F08BFB13BD70B59F
:109B040004000D00154E40F22771300001F068FB8F
:109B14002200D2B240F22551300001F0D2FA2A00DC
:109B2400D2B240F22661300001F0CBFA70BD10B41D
:109B3400002200231A000C0092B2A4B2A2420AD25C
:109B44001A0092B2825C084C2280044A12881206DF
:109B5400FBD55B1CEEE710BC70470000004C0040D6
:109B64009CEB0008A4EB0008044C0040014648B1FB
:109B7400B0FA80F18840C91CC1F58461090501EB84
:109B8400D0214005704700002DE9F04D16461F46D0
:109B9400044626F0000A37F0004008BFBAF1000F6F
:109BA4008AB00D4600F056830020DFF8B416224632
:109BB4002B4601F043FC00F04D83DFF8A81601F0BA
:109BC4003DFC06D178004015401C02D1390300F059
:109BD400418368004015401C00F0588224F00000C6
:109BE40035F0004108BF002800F05082780040158D
:109BF400401C00F04B82BB464FEA4B0151EADA713C
:109C04004FEA4A0008BF00281CD040F23342A2EBBE
:109C14005150352804DB0AF0000A0BF0004B11E028
:109C2400202805DD20382BFA00F101FA00FB00E0C2
:109C340002D14FF0000A05E00028C4BF2AFA00F15F
:109C440001FA00FAE80F22D0390007D500224FF0BC
:109C54000043921BBB41CDE9002301E0CDE900673D
:109C640059460029504605D500224FF00043101AEA
:109C740063EB0101DDE900238B4208BF824206D079
:109C8400AFF300804FF0FF306FF00041E4E225F0C5
:109C94000041B1F5801F24F000000CD200220029FD
:109CA40008BF0028029211D002AA294600F078FECB
:109CB40004460D460AE0DFF8B02502EB1150DFF848
:109CC400AC1502900D40DFF8A8150D43E80F08BF4E
:109CD40000223DD0594650464B0043EAD07342001F
:109CE400002B08BF002A25F0004517D040F2344C61
:109CF400ACEB5352352A04DB00F0000001F00041C4
:109D04000CE0202A03DD203AD140914000E001D14B
:109D1400002003E0002AC4BFD0409040BBF1000FF4
:109D240006D500224FF00043B2EB0A0A63EB0B0B9B
:109D3400002905D500224FF00043101A63EB0101FE
:109D44008B4508BF824502D10021059101E0012223
:109D540005920298012833D120462946DFF81425BC
:109D6400DFF8143500F054FE2AD248004FF0000802
:109D7400400DC246DFF8E8B400F1010212D0002A17
:109D840010DD40F2FF70824207DBDFF8F01405F0CB
:109D94000043002443EA010533E06FF31E5141EA16
:109DA40002552EE024F0000035F0004108BF0028E1
:109DB40027D00122294600F05BFE04460D4620E030
:109DC4000020DFF8BC1422462B4600F0ADFBDFF880
:109DD400A0B400225B4601F041FB00F0E7FEA0F1D5
:109DE4002008404600F000FF0022DFF8983400F01D
:109DF4009BFB00225B4601F031FB82468B464FEA17
:109E040048182046294652465B4600F0FFFECDE93D
:109E1400000152465B462046294601F01FFB0246DC
:109E24000B46DDE9000100F05BFACDE90601DDE94E
:109E3400062300F079FBCDE900015246204629466D
:109E44005B4600F0E3FEDDE9002304460D46DFF83F
:109E54003804DFF8381400F067FBDFF83424DFF847
:109E6400343401F0FBFADDE9002300F05DFBDFF898
:109E74002824DFF8283401F0F1FADDE9002300F0AA
:109E840053FBDFF81C24DFF81C3401F0E7FADDE9AA
:109E9400002300F049FBDFF81024DFF8103401F050
:109EA400DDFADDE9002300F03FFBDFF80424DFF8EE
:109EB400043401F0D3FADDE9002300F035FBDFF8C8
:109EC400F823DFF8F83301F0C9FACDE90801524666
:109ED4000020DFF88C135B4600F098FE0B465A0016
:109EE400520D02F1010C15D0BCF1000F12DD40F24D
:109EF400FF72944508DBDFF8842301F000404FF043
:109F0400000A40EA020B10E06FF31E5343EA0C5BB5
:109F140082460AE020F0000231F000430EBF002A1E
:109F2400012200F0A5FD82468B46DDE90023DDE930
:109F3400080100F0F9FA22462B4600F067FE52466B
:109F44005B4601F08BFADDE9062300F0EDFADFF859
:109F540000E3FE440EF2FA2EC644CDF804E0224695
:109F64002B4601F07BFA044602980D4600F03CFEB5
:109F7400DDF804E0DEE9002301F070FACDE9060122
:109F84002246DFF83C03DFF83C132B4600F0CCFA02
:109F9400DDE9062301F062FA32463B4600F0C4FADA
:109FA4000022DFF8243300F033FD66D30122DFF80A
:109FB4001C3300F045FD5DD9CA0F1ABF0022C44B03
:109FC400AB4B01F04BFA00F0F1FD0022A44BDFF89B
:109FD40004A3DFF804B3CDE903238046CDF8008061
:109FE40032463B462046294600F09EFA0446019834
:109FF4008446D0E902230D46DCE9040101F02EFA7F
:10A0040032463B4600F090FA52465B4600F08CFA2A
:10A0140022462B4601F022FACDE90101DDE906458D
:10A024003046394622462B4600F07EFA04460D4659
:10A03400404600F0D9FD02460B462046294600F072
:10A04400E5FD52465B4600F06FFADDE9012301F0BD
:10A0540005FADDE9032301F0BFFA20F0000631F030
:10A06400004708BF002E08D04A005215521C06D1E2
:10A074000B0304D10020814901E000200021059A4E
:10A08400002A00F0E98081F00041E5E06800401515
:10A09400401C04D1290302D020462946DCE0780084
:10A0A4004015401C04D1390302D030463946D3E070
:10A0B400790001204915491C7CD03B46590051EADE
:10A0C400DA7B4FEA4A0104BF0029CDE90067324632
:10A0D40019D040F23341A1EB5B51352904DB02F086
:10A0E400000203F000430CE0202903DD2039CB40BB
:10A0F4008B4000E001D1002203E00029C4BFCA4024
:10A104008A40CDE900233B0008D500214FF0004BE5
:10A114008A1B6BEB0303CDE9022301E0CDE9026363
:10A12400DDE90023002B05D500214FF000468A1AF3
:10A1340066EB0303DDE902AB9B450CBF92450020AF
:10A14400DDE90023590041EAD2765100002E08BF10
:10A15400002917D040F23441A1EB5651352904DBD4
:10A1640002F0000203F000430CE0202903DD203953
:10A17400CB408B4000E001D1002203E00029C4BFA2
:10A18400CA408A40B0B1DDE90001002905D50026A6
:10A194004FF0004B301A6BEB0101002B05D5002664
:10A1A4004FF0004BB21A6BEB0303994206BF904287
:10A1B4000020012069004915491C07D12A0305D153
:10A1C400EC0F1BD1FE0F3FD0002045E0790049156C
:10A1D400491C1BD13A0319D125F00041B1F5801F68
:10A1E40024F000001DD20022002908BF002800929C
:10A1F4001BD06A46294600F0D3FB16E0FE0F02D1BD
:10A20400002822D01DE0002826D006E0002814BF34
:10A21400EC0F0024FE0F13D17CB100204FF000415D
:10A224001AE0114A02EB11500090FE0F009802D17F
:10A23400002809DC01E0002806DD002000210BE0F5
:10A2440014B10020254907E000200C4904E000BFB8
:10A254005C3E0000002002490AB0BDE8F08D000019
:10A264000000F03F0000F0BF02FCFFFFFFFF0F8083
:10A274000000E03FCD3B7F669EA0E63F0000F07FFC
:10A28400000050400000903FF7DE29BFD8F8C23FDD
:10A29400F4B3FECC1A99C33F62CB68D96F46C73F6B
:10A2A400C6C912DAC471CC3F4AE98A942449D23F20
:10A2B400F75F97999999D93FBC5555555555E53F41
:10A2C400FE822B654715F73F0000E0C00000E04028
:10A2D4000000E0BFEF39FAFE422EE63F0000F0FF37
:10A2E400F0B540F2FF7581EA030C0CF0004C15EA5E
:10A2F40011541DBF15EA1357AC42AF42E5E0BC410F
:10A30400C1F31301C3F31303801A994143F4801377
:10A3140004D2641E4000494180185941C90241EAEF
:10A324005051B1FBF3F603FB1611A2FB0675D7EBF4
:10A33400C020A94102D2761E80185941C90241EABF
:10A344005051B1FBF3FE03FB1E11A2FB0E75D7EBBC
:10A35400C020A94103D2AEF1010E801859418902EF
:10A3640041EA9051760546EA8E2EB1FBF3F603FBE3
:10A374001611A2FB0675D7EB8020A94102D2761EE6
:10A3840080185941C90241EA50514EEA060EB1FB08
:10A39400F3F603FB1611A2FB0675D7EBC020A94107
:10A3A40002D2761E80185941C90241EA5051B1FBCC
:10A3B400F3F703FB1711A2FB0735D3EBC020A94128
:10A3C40067F100070CBF004247F0010766F3D52789
:10A3D4004FEA1E31B80814F5806412DDBD0775F12B
:10A3E400004250EB0E5051EB045111F5801F5CBF3D
:10A3F40041EA0C01F0BD4CF07F6141F0E0410020E6
:10A40400F0BDBD076D0840EA0E5041F48011D4F14F
:10A414000104B4F120060ADAC4F120060200E04087
:10A4240001FA06F3E1401843B24015430EE0342C20
:10A4340013DCC6F1200445EA40056D0820FA06F253
:10A44400154321FA06F0A1400D43002175F10042A5
:10A4540050F1000051EB0C01F0BD00205FEA0C014B
:10A46400F0BDCFB992185B41B3FA83F704BFB2FAD7
:10A4740082F6BF190B3FB7F120062FBF02FA06F38D
:10A48400BB40C7F1200622FA06F638BF3343BA4070
:10A494001CB1E419641E33E77F4231F00041B1FA84
:10A4A40081F404BFB0FA80F6A4190B3CB4F1200681
:10A4B4002FBF00FA06F1A140C4F1200620FA06F6E7
:10A4C40038BF3143A0403C1B1AE7AC421ABF05EA2F
:10A4D4001357AF4212E050EA41061CBF52EA43064A
:10A4E400BFE750EA4107304661461CBF41EA0551C7
:10A4F400F0BD52EA430C08BFC143F0BD00204FF445
:10A50400001616EB410F98BF16EB430F08BF16EB6E
:10A51400410F24BFC14305E016EB430F0CBF614656
:10A524004CEA0551F0BD0000B0B581EA030C0CF013
:10A53400004C40F2FF7515EA11541DBF15EA13577C
:10A54400AC42AF4239E0E41923EA455343F48013A3
:10A55400C90241F0004141EA505EC7021100A7FB65
:10A56400020200284FF00000EEFB01204FF0000132
:10A57400E3FB072118BF42F00102401800214941C2
:10A58400E3FB0E01A4F580640F0302D252004041A4
:10A59400494154F101046CDD470872F1004250F165
:10A5A400000051EB0451A1F580115CBF41EA0C019C
:10A5B400B0BD4CEA05510020B0BD05EA1357AC42CA
:10A5C40014BFAF4241E050EA410E1CBF52EA430EB1
:10A5D40002E061460020B0BD24423C441BD15FEA46
:10A5E400070EF6D0090302BF01460020AEF1140E97
:10A5F400B1FA81F7AEEB070401FA07FE0C37C7F195
:10A60400200100FA07F7C8404EEA000E23EA45533A
:10A6140043F48013A2E733F00043B3FA83F704BF93
:10A62400B2FA82FE77440B3FE41BB7F1200E2FBF32
:10A6340002FA0EF3BB40C7F1200E22FA0EFE38BF19
:10A6440043EA0E03BA40641C82E750EA410E14BF89
:10A6540052EA430E6FF000014FF4001717EB430F5B
:10A664008ABF194617EB410FB5E74CEA05510020A4
:10A67400B0BDD4F10104B4F120070FDAC4F120070E
:10A68400520828BF42F0010210FA07F501FA07F751
:10A69400E1BF2A43E0403843E1400FE0352C98DC29
:10A6A400C7F1200452EA400220FA07F218BF42F030
:10A6B400010231FA07F0A1400A43002172F100427D
:10A6C40050F1000051EB0C01B0BD0000400D4918E1
:10A6D40040EA81200CD2490DA1F58061491C40F06B
:10A6E400004005DBD1F11F0154BFC840C0177047BB
:10A6F40000207047F0B50022002300240025002626
:10A70400002791F803C01CF00F0C91F803E05FEAF6
:10A71400CE6E02D58A7852EA0C0C0A7812062AD038
:10A724000268160000221400082C23D25FF0010EE8
:10A734001EFA04F215000A882A401300AB4217D10E
:10A74400A20015000F22AA401700BE431CFA05F20E
:10A754001643CA78282A04D11EFA04FEC0F814E06D
:10A7640006E0CA78482A03D11EFA04FEC0F810E0B5
:10A77400641CD9E706600A88B2F5807F2EDB426844
:10A78400160000221400082C27D25FF0010E14F1E9
:10A7940008021EFA02F215000A882A401300AB428E
:10A7A40019D1A20015000F22AA401700BE431CFABB
:10A7B40005F21643CA78282A04D114F108021EFAB5
:10A7C40002F24261CA78482A05D114F108021EFA3D
:10A7D40002FEC0F810E0641CD5E74660F0BD0A0034
:10A7E40092B202617047F0B40022002300250027D2
:10A7F400002802D51D4C246801E01D4C2468C0F3D8
:10A80400034586B210F4401CBCF5401F07D134F058
:10A814007064174A176837F07067176011E0C20256
:10A8240006D50322AA4013009C4354F0706408E048
:10A834000200520DD2B2120116FA02F2944354F0FD
:10A8440070640A00D2B2002A06D00200520DD2B2BD
:10A85400120116FA02F21443002802D5034A1460C6
:10A8640001E0034A1460F0BC704700001C00014082
:10A87400040001401C48704770B45368D41801E0C8
:10A884005B1C491E042B08DA00291FBF057804F855
:10A89400015B10F8016B002EF2D1536070BC70475D
:10A8A40038B514461D4661B1FFF7E6FF61686A6B6F
:10A8B400204690476FF00102811A02D0491E01D050
:10A8C40001E003E005E00021616032BD6FF00100AA
:10A8D40032BD4FF0FF3032BDDA6B1047024BDFE779
