:020000040800F2
:20000000601F002069230008B5210008B7210008B9210008BB210008BD2100080000000043
:20002000000000000000000000000000BF210008C121000800000000C3210008C521000814
:20004000C9230008CD230008D1230008D5230008D9230008DD230008E1230008E523000890
:20006000E9230008ED230008F123000875220008F5230008F9230008FD2300080124000800
:2000800005240008092400080D2400081124000815240008192400081D2400082124000868
:2000A00025240008292400082D2400083124000835240008392400083D2400084124000848
:2000C00045240008492400084D2400085124000855240008592400085D2400080722000884
:2000E0006124000865240008692400084FF4C0414843401C0100481E0029FBD1704710B54A
:2001000000F0CCFA5FF4803000F0E8FA00F003FB04002000C0B201282BD1002000F038FB68
:20012000002000F045FB4FF4806000F039FB4FF4404000F049FB002000F043FB022000F0D1
:2001400039FC102000F03FFC5FF400115FF4803000F000FB012000F009FB392000F0E0FB84
:200160000028FAD0022000F006FB00F00CFB0828FBD110BD10B504002100C9B21D2000F028
:2001800097FB2100C9B25FF4802000F09FFB10BD80B500215FF0006000F00CFD4FF4A060A6
:2001A00000F0D0FC01BD80B50121DFF8980400F09EFD10208DF8030003208DF80200DFF837
:2001C00088048188ADF800106946006800F016FD01BD70B5FFF793FFFFF7DAFF0120FFF76A
:2001E000C9FF72B6FFF7DFFFDFF85C44A088216808610A20FFF77AFF00F0C0FD00F0CCFEAA
:2002000045F25555DFF844643088A84206D100F0B1F8002802D14AF6AA2030805FF4E13053
:2002200000F090FF00F0E6FF0021012000F0F3FF01F04AF8A088216848613088A84204D142
:200240000120DFF80C14086003E04020DFF80014086062B670BDDFF8F8030178890716D57D
:20026000016831F002010160DFF8E8030168491C01600078C00705D5DFF8CC03818800686F
:20028000416104E0DFF8C003818800680161704738B50400002072B62568DFF8BC132940DF
:2002A000B1F1005F0ED1DFF8B403211D09680160DFF8AC1300680860206880F3088808685F
:2002C000804707E00120DFF8881308600020DFF89413086062B631BD80B5DFF8740301786D
:2002E00049060FD4DFF87C13096829290AD3DFF85C13098845F25552914203D1016851F0C0
:20030000800101600078000608D5DFF83C03818800684161DFF85003FFF7BAFF01BD70B5BB
:20032000DFF848430721200001F0F7F800280DD00721200001F0FFF85FF4E13000F002FFA9
:2003400000F058FF0021012000F065FFC84C200001F0B8F900280CD0C6480178200000F04F
:2003600042F840F60C15002632002900200001F0DBF970BDF8B50024BF4E00250027082205
:20038000BE49300001F01AFA00281CD1082005002800C0B2322810DA30780700761C380088
:2003A000C0B2202803DB3800C0B2802803DB3800C0B2002801D16D1CEAE72800C0B2322883
:2003C00001D1012004002000C0B2002808D10722AB49AC4801F0F2F9002801D10120040087
:2003E0002000C0B2F2BD2DE9FE4F04000D005FF000095FF0000A40F60C1B0094DFF88882C5
:2004000046465A460099300001F00CFAB8F8020040440179B8F80200404442794FF480701C
:20042000424352FA81F6B8F80210091F18F1080001F04CFA07003000390080B289B288429B
:2004400040F0EC8098F80D008DF808000020B4F80B10ADF80A10BDF80A104FF6FF729142D8
:2004600006D0BDF80A0079498988884240F0E8809DF80800012875D0022835D0032800F05D
:20048000A480042805D005280BD0F72800F0B580C4E000207349086001F05CFB7B4948802F
:2004A000BCE06B48007840061DD55FF000090020002198F80F806C4A4346DBB212EB832A0F
:2004C000924510D37248016851450CD11AF580610160504601F068FC83465846C0B201F0C6
:2004E00011FC6A49488099E059480078400638D500210022002398F80800002831D198F8D7
:200500000F008DF80000D8F81090D8F814A05648814526D35F491AEB09000A68904202D02A
:20052000086800281DD1C1F80090DFF81CB1BBF80400DBF800100861524618F118014846FD
:2005400001F03DFC002807D0524649469DF8000001F04AFB4D494880BBF80400DBF8001088
:2005600048615BE0DFF8248101F060FAA8F80200B8F8020000280BD0B8F8021018F10400AA
:2005800001F062FC0220FFF7B1FD0020A8F802002F480168490849000160016851F04001BE
:2005A00001604AF6AA202949088000F079FD00F0A4FD00F012FA304801F0F6FB2A4834499A
:2005C000086000203349086028E0FFF7D3FE012812D101F075FA2D4948801D48016851F027
:2005E0008001016045F255501849088000F058FD00F083FD00F0FAF910E0DFF890800020C5
:200600000190002000903223234A9DF8081018F1040001F0ABF9A8F80200FFE7DFF86C803D
:20062000B8F8020000280BD0B8F8021018F1040001F00AFC0220FFF759FD0020A8F802000F
:20064000BDE8F78F00023000A8230008301B0020381B0020441B00200000FE2F4C1B002059
:20066000481B0020501B0020004000080048004014000020581B00200050000878230008DA
:20068000A023000880500008200900202C1200203C1B0020401B002078220008DFF8C812CB
:2006A000086850F001000860DFF8C0221368DFF8C002034013600B68DFF8B80203400B60EC
:2006C000086830F480200860106830F4FE0010605FF41F00DFF8A01208607047DFF88812E9
:2006E0000A6832F480320A600A6832F480220A600200B2F5803F03D0B2F5802F05D009E053
:200700000A6852F480320A6004E00A6852F4A0220A60FFE7704738B50020009000240025BA
:20072000312000F0FDF805000098401C009000984FF6FF71884203D02800C0B20028EFD08F
:20074000312000F0EDF8002801D0012000E00020C0B232BD30B40023844D2C6834F47C14D4
:2007600051EA000214432C6030BC70470100C9B2824A1160704700217C4B1A6892089200B0
:2007800002431A6070477948006810F00C0070470021764B1A6832F0F00202431A60704709
:2007A0000021724B1A6832F4E06202431A60704700216E4B1A6832F4605252EAC0021A604F
:2007C00070476F49086070470021684B1A6832F4404202431A6070472DE9F04F010000229F
:2007E000002500200026614FD7F800C01CF00C0C6346002B04D0042B05D0082B06D023E073
:20080000614A0A6022E0614A0A601FE03A6812F470123B6813F480331800920C921C1500AD
:20082000002804D15A4A02FB05F20A600BE03A68920304D5574A02FB05F20A6003E0534A3F
:2008400002FB05F20A6001E04F4A0A603C6814F0F0042409DFF8409119F804E00A6832FA52
:200860000EF24A603B6813F4E0631B0A19F803804A6832FA08F28A603A6812F46052D20A30
:2008800019F80290D1F804A03AFA09FAC1F80CA03F6817F44047BF0BDFF800A11AF807A078
:2008A000D1F80CB0BBFBFAFBC1F810B0BDE8F08F0A00D2B2002A04D0394A13680343136028
:2008C00003E0374A13688343136070470A00D2B2002A04D0334A13680343136003E0314AAE
:2008E00013688343136070470A00D2B2002A04D02D4A13680343136003E02B4A13688343BD
:20090000136070470A00D2B2002A04D0274A13680343136003E0254A1368834313607047BF
:2009200030B401000020002300250A00D2B25209D2B2012A02D10C48046806E0022A02D15A
:200940001048046801E01A4804680B00DBB213F01F032000D840C00701D5012000E0002071
:20096000C0B230BC7047000000100240041002400000FFF8FFFFF6FE081002406000424293
:20098000D80042422010024000127A00001BB70000093D00808D5B0000000020100000202D
:2009A000181002401C1002400C10024010100240241002400021DFF840311A6812F0380202
:2009C00002431A607047DFF830110A6832F010020A600A6802430A607047DFF82001DFF8D2
:2009E00020110160DFF81C1101607047DFF81801016851F080010160704770B504000426C3
:200A00005FF0FF3000F086F805002800C0B204281AD1DFF8F460306850F002003060DFF8C8
:200A2000EC000460306850F0400030605FF0FF3000F070F805002800C0B2052804D03168AF
:200A400041F6FD70014031602800C0B270BDF8B504000D000427002000905FF0FF3000F052
:200A600059F806003000C0B204282DD1DFF89870386850F00100386025805FF0FF3000F0E8
:200A800049F806003000C0B2042814D1A01C00902800000C009908805FF0FF3000F03AF81B
:200AA00006003000C0B205280ED0396841F6FE700140396008E03000C0B2052804D0396837
:200AC00041F6FE70014039603000C0B2F2BD04210F480268D20701D501200AE002685207E3
:200AE00001D5022005E00068C00601D5032000E00420C0B2704700000020024004200240FD
:200B000023016745AB89EFCD10200240142002400C20024070B504000425FFF7D8FF06009A
:200B20003000C0B2012806D1002C04D0FFF7CFFF0600641EF4E7002C01D105200600300093
:200B4000C0B270BD25490143254A11607047F0B4002200230F24C17800291FD02049096866
:200B600011F4E061D1F5E061090AD1F104052B00CC4045789D408678264035432D012A0045
:200B8000184D0678AA550125067816F01F06B540154E07787F1146F8275009E00121057800
:200BA00015F01F05A940114D0678761145F82610F0BC70470E4A0A4002430E4B1A60704779
:200BC000042805D10C490A6852F004020A6004E009490A6832F004020A6070470000FA05AA
:200BE0000CED00E000E400E000E100E080E100E080FFFF1F08ED00E010E000E0F0B500224D
:200C00000023002400250026002791F803C01CF00F0C91F803E05FEACE6E02D58A7852EAA2
:200C20000C0C0A7812062AD00268160000221400082C23D25FF0010E1EFA04F215000A8816
:200C40002A401300AB4217D1A20015000F22AA401700BE431CFA05F21643CA78282A04D189
:200C60001EFA04FEC0F814E006E0CA78482A03D11EFA04FEC0F810E0641CD9E706600A8846
:200C8000B2F5807F2EDB4268160000221400082C27D25FF0010E14F108021EFA02F21500F4
:200CA0000A882A401300AB4219D1A20015000F22AA401700BE431CFA05F21643CA78282A6A
:200CC00004D114F108021EFA02F24261CA78482A05D114F108021EFA02FEC0F810E0641CA8
:200CE000D5E74660F0BD0A0092B202617047F0B40022002300250027002802D51D4C246854
:200D000001E01D4C2468C0F3034586B210F4401CBCF5401F07D134F07064174A176837F083
:200D20007067176011E0C20206D50322AA4013009C4354F0706408E00200520DD2B21201DC
:200D400016FA02F2944354F070640A00D2B2002A06D00200520DD2B2120116FA02F21443BF
:200D6000002802D5034A146001E0034A1460F0BC704700001C0001400400014080B50320B4
:200D80008DF8020014208DF8030081488188ADF8001069460068FFF731FF7E488188ADF8D8
:200DA000001069460068FFF729FF01BD0020C8210800411E0028FBD170474FF4C041484346
:200DC000401C0100481E0029FBD1704710B5704CA088216808616F48818800680161FFF789
:200DE000E5FF20688068002801D1012000E00020217911F00101084201D0002011E0A08893
:200E000021684861FFF7D2FF20688068A188084201D0002005E0A08821684861FFF7C6FF0B
:200E2000012010BD38B55B4CA08821684861FFF7BDFF574DA88829684861FFF7B7FFA08842
:200E400021680861FFF7B2FFA88829680861FFF7ADFF31BD10B54F4CA08821684861FFF78F
:200E6000A5FF4B48818800684161FFF79FFFA08821680861FFF79AFFA08821684861FFF79B
:200E800095FF10BD10B5434CA08821684861FFF78DFF3F48818800680161FFF787FFA088C3
:200EA00021680861FFF782FFA08821684861FFF77DFF10BD38B5374CA08821684861FFF770
:200EC00075FF334DA88829680861FFF76FFFA08821680861FFF76AFF28688068A988084224
:200EE00004D0A08821684861002003E0A08821684861012032BD70B5040008252800451E76
:200F0000C0B2002817D0234EB08831684861200604D51F4881880068016103E01C488188DC
:200F200000684161FFF742FFB08831680861FFF73DFF6400E2E7174881880068416170BD38
:200F4000F8B508240025124EB088316808612000441EC0B2002813D06D000E4FB88839684F
:200F60004861FFF723FFB88839680861FFF71EFF30688068B1880842E9D055F00105E6E77F
:200F800004488188006841612800C0B2F2BD000090230008982300082DE9FE430025002689
:200FA000082100226C46200000F0BEFB0027644C2200082141F6F87000F059FF0500280035
:200FC000C0B2002814D05FF000085FF000090621200000F07BFCE18802000B0092B29BB22F
:200FE0009A4202D00022150001E00122150007E03220FFF7E2FE7F1C3800C0B20328D6DBC3
:201000005FF000086A4608214FF4F05000F02FFF06003000C0B2002814D000275FF00009CC
:201020000621684600F052FCBDF8061002000B0092B29BB29A4202D00022160001E001224A
:20104000160008E03220FFF7B8FE18F101084046C0B20328D6DB55EA0600C0B2002809D1F5
:201060004AF6AA2020800020608000F019F800F044F813E03000C0B2002802D100F03DF8E4
:201080000CE02800C0B2002808D10827E9463A004946200000F0C6FB00F002F8BDE8F783C8
:2010A00070B500240025264E0020F0800621300000F00CFCF0803200082141F6F87000F015
:2010C0009DFF04002000C0B2002806D0320008214FF4F05000F092FF04002000C0B20028C3
:2010E00008D13220FFF769FE6D1C2800C0B20328E1DBFFE72000C0B270BD70B5002400254B
:201100000F4E0020F0800621300000F0DFFBF080320008214FF4F05000F070FF04002000F0
:20112000C0B2002808D13220FFF747FE6D1C2800C0B20328ECDBFFE72000C0B270BD0000F5
:20114000301B002030B585B00400042100226D46280000F0E9FA1021002201AD280000F0F8
:20116000E3FA10208DF8030003208DF802003A4DA888ADF8000069462868FFF73FFDA98832
:201180002868FFF7B0FD354D280000F0C1F834488188ADF8001003218DF8021018218DF816
:2011A000031069460068FFF729FD2E488188ADF8001004218DF8031069460068FFF71EFDD0
:2011C00001940020ADF808000020ADF80A000020ADF80C000020ADF810000C20ADF80E0059
:2011E00001A9280000F0DCF80121280000F04EF905B030BD80B527208DF8000001208DF88F
:20120000010000208DF8020001208DF803006846FFF79DFC01BD70B504000D000F4E40F2BD
:20122000A551300000F0C4F92200D2B240F22551300000F03AF92A00D2B240F226613000A3
:2012400000F033F970BD054909880906FBD50100C9B2054A11807047C02300080048004001
:20126000B0230008B82300080448004010B4020052B2002A05D40A011D4B040064B21A555B
:2012800008E00A011B4B040064B214F00F04234403F8042C10BC704710B50400601EB0F1C7
:2012A000807F01D301200EE0601E134908600F215FF0FF30FFF7DAFF002010490860072085
:2012C0000F490860002010BD80B50420FFF778FC0C48FFF7E1FF00200B49086000200B4924
:2012E00008600F215FF0FF30FFF7C0FF01BD000000E400E018ED00E014E000E018E000E010
:2013000010E000E0C0270900501B0020541B002010B50400584884420AD101214FF48040C4
:20132000FFF7E2FA00214FF48040FFF7DDFA36E0524884420AD101215FF40030FFF7E2FA22
:2013400000215FF40030FFF7DDFA28E04C4884420AD101215FF48020FFF7D4FA00215FF492
:201360008020FFF7CFFA1AE0464884420AD101215FF40020FFF7C6FA00215FF40020FFF710
:20138000C1FA0CE04048844209D101215FF48010FFF7B8FA00215FF48010FFF7B3FA10BD5D
:2013A0002DE9F84F86B004000D00002600275FF000085FF000095FF0000AA8890028A346F2
:2013C000218A4CF6FF700140E8880143009100982082A1894EF6F3100140AA882889024317
:2013E00068890243114300910098A081A18A4FF6FF400140A889014300910098A08201A8C0
:20140000FFF7EAF91C48834501D1049900E00399A089000407D5192000FB01F02A685200CA
:20142000B0FBF2F206E0192000FB01F02A689200B0FBF2F26420B2FBF0F6360133001B09BA
:20144000642000FB1323A089000408D5D80032306427B0FBF7F010F00700064307E0180126
:2014600032306427B0FBF7F010F00F000643268107B0BDE8F08F0000003801400044004016
:2014800000480040004C0040005000400A00D2B2002A04D0828952F40052828104E0838986
:2014A0004DF6FF721340838170472DE9F0410023002500275FF0000E0C0040F66A16A4B23F
:2014C000B44280460C00E4B26409E4B20E00B6B216F01F065FF0010C1CFA06FC012C02D196
:2014E00018F10C0806E0022C02D118F1100801E018F114081300DBB2002B06D0D8F8003020
:201500005CEA0303C8F8003005E0D8F8003033EA0C03C8F80030BDE8F0810200002308004B
:2015200080B2B0F5007F1088084201D0012000E00020C0B270470A0092B292050A0092B225
:20154000D24302807047F0B4040000270020002200260B0040F66A159BB2AB420D00EDB260
:201560006D09EDB20B009BB213F01F035FF0010C1CFA03F3012D02D1A089034006E0022DEF
:2015800002D1208A034001E0A08A03400A0092B2120A92B21CFA02F220880240002B03D09D
:2015A000002A01D0012000E00020C0B2F0BC704770B4002200240B0040F66A159BB2AB42D6
:2015C0000B009BB21B0A01259D402E00B6B2F643068070BC70470A78002A06D0812A0DD049
:2015E000822A1ED0842A3DD068E00200D2B27E2A03D181220A707E228A715FE00200D2B2CF
:20160000552A04D182220A705522CA7108E00200D2B27E2A02D181220A7001E000220A7023
:201620004CE00200D2B2082A0DDB0200D2B2F12A09DA84220A700200D2B2D21C8A80087242
:2016400003224A800DE00200D2B2002A07D184220A7014228A80087203224A8001E000225A
:201660000A702BE00A7A002A1CD14A880E2A04D18A8852FA80F28A8014E04A880F2A06D1BB
:201680008A880300DBB21B029A188A800AE04A88102A02D18A888A8004E04A88112A01D127
:2016A0008A888A804A88531C4B8092B20A4490714A888B889A4201D306220A700022C1F85D
:2016C00008297047010000200A78052A08D14A88092A02DB0122100007E000220A7004E0FB
:2016E0000A78062A01D101221000C0B2704730B4002513E050F8042BD30744BFA9F101031C
:201700009A18091F042942F8045BFAD213468C0744BF15809B1CC90748BF1D7050F8041B57
:201720000029E7D130BC704762F30F2262F31F42401810F0030308D0C91A1FD3DB0748BFF5
:2017400000F8012D28BF20F8022D130030B414461546103928BF20E93C00FAD8490728BF0B
:2017600020E90C0048BF40F8042D890028BF20F8022D48BF00F8012D30BC7047C91818BFA5
:2017800000F8012DCB0728BF00F8012D704730B40EE00268436802440830DC0744BFA9F1A8
:2017A0000104E31852F8045B43F8045B091FF9D150F8041B0029ECD130BC704703000020E1
:2017C00013F0030F09D0521E22BF13F8010B11F801CBB0EB0C00F3D0704711F0030F14D1C5
:2017E000121F22BF53F8040B51F804CB6045F7D0121D0AD200BA9CFA8CFCB0EB0C0038BF78
:201800006FF0000088BF01207047521E22BF13F8010B11F801CBB0EB0C00F6D0521C08BF6B
:201820001046704762B38B0708D0521E11F8013B00F8013B00F024808B07F6D1830740F08C
:20184000208000BF103A07D330B4B1E83810103AA0E83810F9D230BC530724BFB1E8081081
:20186000A0E8081044BF51F8043B40F8043BD20724BF31F8022B20F8022B44BF0B78037076
:201880007047121F17D35B0009D151F8043B20F8023B1B0C121F20F8023BF6D20BE051F8BB
:2018A000043B00F8013B1B0A20F8023B1B0C121F00F8013BF3D238BF121D521E24BF11F868
:2018C000013B00F8013BF8D87047000070B403000022002400264FF6FF7000258D4214D2F0
:2018E0005A5D504000221600082E0CD2C20706D580B2020048F2084090EA520001E080B21C
:201900004008761CF0E76D1CE8E780B2C04380B270BC704770B403000022002600244FF69C
:20192000FF7000252A000E0092B2B6B2B24218D22A0092B29A5C504000221400220092B2C1
:20194000082A0CDAC20706D580B2020048F2084090EA520001E080B24008641CEEE76D1C10
:20196000E0E780B2C04380B270BC70472DE9F74F82B0070098460E9C0F9D00260020ADF8A2
:2019800004007E20B855761C5520B855761C18F10B00B855761C0120B855761C0020B85552
:2019A000761C0020B855761C0020B855761C1F20B855761C9DF80C00B855761C0020B855CC
:2019C000761C2000C0B200280CD1C1465FFA89F90498009007EB060A4A4600995046FFF719
:2019E00021FF0BE0C1465FFA89F95FF0000A07EB060B524649465846FFF796FE56FA88F681
:201A0000BC55761CBD55761CB878411E89B2B81CFFF780FF0100B955761C080080B2000A87
:201A2000B855761C300005B0BDE8F08F70B500260024DC4D7E2005EB06010871761C552051
:201A400005EB06010871761C092005EB06010871761C012005EB06010871761C002005EB26
:201A600006010871761C002005EB06010871761C002005EB06010871761C1F2005EB0601DA
:201A80000871761C012005EB06010871761C002005EB06010871761CA879411E89B2A81D76
:201AA000FFF738FF010005EB06000171761C080080B2000A05EB06021071761C300070BD52
:201AC00070B500260024B74D7E2005EB06010871761C552005EB06010871761C092005EB63
:201AE00006010871761C012005EB06010871761C002005EB06010871761C002005EB060178
:201B00000871761C002005EB06010871761C1F2005EB06010871761C032005EB06010871C4
:201B2000761C002005EB06010871761CA879411E89B2A81DFFF7EEFE010005EB0600017126
:201B4000761C080080B2000A05EB06021071761C300070BD70B500260024924D7E2005EB6B
:201B600006010871761C552005EB06010871761C092005EB06010871761C012005EB060199
:201B80000871761C002005EB06010871761C002005EB06010871761C002005EB0601087166
:201BA000761C1F2005EB06010871761C042005EB06010871761C002005EB06010871761C0A
:201BC000A879411E89B2A81DFFF7A4FE010005EB06000171761C080080B2000A05EB0602B6
:201BE0001071761C300070BD2DE9F84304000D00160000275FF00008DFF8A8917E2009EBDD
:201C0000070108717F1C552009EB070108717F1C002009EB070108717F1C012009EB0701D6
:201C200008717F1C002009EB070108717F1C002009EB070108717F1C002009EB070108719B
:201C40007F1C1F2009EB070108717F1C022009EB070108717F1C002009EB070108717F1C38
:201C600009EB070004717F1C09EB070005717F1C2800000A09EB070108717F1C2800000CD7
:201C800009EB070108717F1C2800000E09EB070108717F1C09EB070006717F1C3000000AA7
:201CA00009EB070108717F1C3000000C09EB070108717F1C3000000E09EB070108717F1C7A
:201CC0002000C0B2002807D0320009EB0700011D280000F09AF8F7193800811E89B219F152
:201CE0000600FFF717FE010009EB070001717F1C080080B2000A09EB070210717F1C380035
:201D0000BDE8F283F8B5040000270025254E7E2006EB070108717F1C552006EB07010871A7
:201D20007F1C0A2006EB070108717F1C012006EB070108717F1C002006EB070108717F1C76
:201D4000002006EB070108717F1C002006EB070108717F1C1F2006EB070108717F1C0520B8
:201D600006EB070108717F1C002006EB070108717F1C06EB070004717F1CB079411E89B25E
:201D8000B01DFFF7C7FD010006EB070001717F1C080080B2000A06EB070210717F1C380024
:201DA000F2BD00002C12002010B504002000FEF724FE042801D1012000E0002010BD2DE914
:201DC000F04704000D0016000020002101275FF00108A9465FF0000AB24512D250468008A3
:201DE00059F820101AEB0400FEF731FE07003800C0B2042802D00020804602E01AF1040AA5
:201E0000EAE74046C0B2BDE8F0872DE9F84F04000D00160000275FF000085FF000095FF034
:201E2000010A0094AB46FEF7D8FD0021B1EB960F06D2009850F821004BF82100491CF5E768
:201E40005046C0B2BDE8F28F70B504000D00002000263000290080B289B2884206D2300040
:201E600080B2205CFFF7EFF9761CF2E770BD2DE9F04104000D0016005FF001080027280029
:201E800080B2002860D0FEF7A1FF002801D1002080464046C0B2002808D0A020FFF72BF872
:201EA000FFF708F8002801D1002080464046C0B2002808D0200080B2000AC0B2FFF71BF87D
:201EC000FEF7F8FF80464046C0B2002806D02000C0B2FFF710F8FEF7EDFF80464046C0B22B
:201EE000002805D0FEF772FF002801D1002080464046C0B2002808D0A120FEF7FCFFFEF701
:201F0000D9FF002801D1002080466D1E4046C0B2002817D0002007003800290080B289B282
:201F2000884208D2FFF70CF8390089B27054FEF791FF7F1CF0E7FFF703F8390089B27054AB
:201F4000FEF7A0FFFEF76EFF4046C0B2BDE8F0812DE9F04104000D00160000275FF0010890
:201F6000280080B2002842D0FEF730FF002801D1002080464046C0B2002808D0A020FEF71C
:201F8000BAFFFEF797FF002801D1002080464046C0B2002808D0200080B2000AC0B2FEF762
:201FA000AAFFFEF787FF80464046C0B2002806D02000C0B2FEF79FFFFEF77CFF80460020C6
:201FC00007003800290080B289B288420DD24046C0B2002807D0380080B2305CFEF78BFF17
:201FE000FEF768FF80467F1CEBE7FEF71BFF0520FEF7E3FE4046C0B2BDE8F0812DE9F047ED
:2020000004000D00160000275FF000085FF0000A200010F01F0F1BD014F01F00D0F1200085
:2020200007002800390080B289B2884200D22F00404680B206EB0002390089B218EB0400DA
:2020400080B2FFF785FF8146ED1B17EB080801E05FF001094846C0B200281FD0280080B248
:2020600000281BD0202007002800390080B289B2884200D22F00404680B206EB0002390089
:2020800089B218EB040080B2FFF762FF8146ED1B17EB08084846C0B20028DFD14846C0B2BC
:2020A000BDE8F08780B53D49086850F0010008603B4A13683B48034013600B683A480340BF
:2020C0000B60086830F480200860106830F4FE0010605FF41F003549086000F001F801BDF0
:2020E00080B500F001F801BD82B000200190002000902A49086850F480300860086810F4BE
:20210000003000900198401C01900098002804D101984FF6FF729042F0D10868800302D538
:202120000120009001E0002000900098012831D11F48026852F0100202600268920892007D
:202140000260026852F00202026015480268026002680260026852F480620260026832F492
:202160007C120260026852F4E81202600A6852F080720A600A689201FCD5016889088900FA
:202180000160016851F002010160016811F00C010829FAD102B070470000000000100240A2
:2021A000041002400000FFF8FFFFF6FE08100240002002407047FEE7FEE7FEE7FEE7704722
:2021C0007047704725480168491C016000681521B0FBF1F201FB1200002804D120480168ED
:2021E00051F0020101601F48017809060AD5D0F80819491DC0F80819D0F808190A2901D354
:2022000005210170704770B5174C40F2255529002000FFF798F900280FD0002601201349C2
:20222000087029002000FFF7C3F9114805880D492800C0B2FFF7CFF90AE04FF45871200081
:20224000FFF781F9002803D009480088C005C00D208810F47C40208070BD0000501B0020E8
:20226000381B00201400002000480040581B00200448004070470000426F6F742056332EEE
:20228000315F323230333236303020474433324633787800000000000000000000000000A6
:2022A00000000000000000000000000010B5074979441831064C7C44163404E00A68081D2C
:2022C000114488470146A142F8D110BD08000000280000001BF4FFFF481B00001400002046
:2022E00000000000ABF4FFFF1400000068000000000000200000000000F00DF8002801D0B7
:20230000FFF7D4FFAFF300800020AFF3008000F004F800F00CF80120704780B5FDF759FF57
:20232000FDF799FFFDF7D8FFFDF7F9FFF8E700F001B800000746384600F002F8FBE700003B
:2023400080B5AFF30080024A11001820ABBEFBE7260002000000000001020304010203040A
:2023600006070809020406080148804701480047A520000885230008204353313131302075
:2023800000000000AFF30080AFF30080FFF7B4FF000C014080000000000C014040000000F6
:2023A00047323330323030000010014004000000000C014000040000000C014000080000B4
:2023C0000010014020000000FFF7FEBFFFF7FEBFFFF7FEBFFFF7FEBFFFF7FEBFFFF7FEBF5A
:2023E000FFF7FEBFFFF7FEBFFFF7FEBFFFF7FEBFFFF7FEBFFFF7FEBFFFF7FEBFFFF7FEBF45
:20240000FFF7FEBFFFF7FEBFFFF7FEBFFFF7FEBFFFF7FEBFFFF7FEBFFFF7FEBFFFF7FEBF24
:20242000FFF7FEBFFFF7FEBFFFF7FEBFFFF7FEBFFFF7FEBFFFF7FEBFFFF7FEBFFFF7FEBF04
:20244000FFF7FEBFFFF7FEBFFFF7FEBFFFF7FEBFFFF7FEBFFFF7FEBFFFF7FEBFFFF7FEBFE4
:0C246000FFF7FEBFFFF7FEBFFFF7FEBF57
:20400000585A0020B9EB0008E9E50008EBE50008EDE50008EFE50008F1E5000800000000E0
:20402000000000000000000000000000F3E50008F5E5000800000000F7E50008F9E50008F4
:2040400015ED000819ED00081DED0008CFE7000821ED000825ED000829ED00082DED000808
:2040600031ED000835ED000839ED00083DED000841ED000845ED00082BE7000807E7000810
:204080008FE60008B3E6000849ED00084DED000851ED000855ED000859ED00085DED000852
:2040A00061ED000865ED000869ED00086DED000871ED000875ED000879ED00087DED0008E0
:2040C00081ED000885ED000889ED00088DED000891ED0008CDE6000855E600084DE7000830
:2040E00095ED000899ED00089DED0008A1ED0008A5ED0008A9ED0008ADED0008B1ED000800
:20410000B5ED0008B9ED0008BDED0008C1ED00081FE600088DE70008C5ED0008C9ED0008DE
:20412000CDED0008D1ED0008D5ED0008D9ED000862F30F2262F31F42401810F0030308D0ED
:20414000C91A1FD3DB0748BF00F8012D28BF20F8022D130030B414461546103928BF20E968
:204160003C00FAD8490728BF20E90C0048BF40F8042D890028BF20F8022D48BF00F8012D91
:2041800030BC7047C91818BF00F8012DCB0728BF00F8012D704700000022FFF7CDBFF0096B
:2041A00008CEB4B0F3B6A8CDD0C5CC00014301011C51072003000102030404F0090806074D
:2041C0000809020406080A9D000452FF01E302871420040000329A000854F00316440000A4
:1641E0002000012002E58300082C43D3833C21010002010105FFEB
:205000002043533131313020323330373230303120473233303230300000000000000000DA
:125020000000000000000000000000000000000000007E
:205034002DE9F0476C240025DFF8E8662A0021003000FFF773F840F624060027DFF8D8869D
:205054003A0031004046FFF769F840F638285FF00009DFF8C8A64A4641465046FFF75EF8C8
:2050740000F014F8002804D00320DFF8B416487003E00220DFF8A8164870DFF894060021C4
:205094008170007801F07DFFBDE8F0872DE9F0475FF0000800240025DFF874663200182101
:2050B400002002F04FFC07003800C0B2002810D05FF000085FF000091421300002F05EFD65
:2050D400716902000B0092B29BB29A4201D000221700320018214FF4807002F033FC8046D9
:2050F4004046C0B200280FD000245FF000091421300002F043FD716902000B0092B29BB212
:205114009A4201D00022904658EA0700C0B2002821D118245FF00009B2464A46210050462E
:20513400FEF7FCFF0020B070002070700120B081C0207071A820B0710220F0710A203072E0
:205154000120F07000203071002030703220306100F068F826E03800C0B201280FD14046C7
:20517400C0B200280BD132001821002002F0EAFB320018214FF4807002F0ABFC12E03800E2
:20519400C0B200280ED14046C0B201280AD1320018214FF4807002F0D5FB3200182100209B
:2051B40002F097FC02F00EFD45F25550DFF874150A88824208D14A88737A9BB29A4203D132
:2051D4008A88B3899A4206D00880B089888002F07DFD02F0A8FD3800C0B2012805D14046C0
:2051F400C0B2012801D1012005002800C0B2BDE8F08710B50024DFF830253C214FF4C87065
:2052140002F0A0FBC0B210BDF8B504000D00160000273200290089B2200080B202F092FB4C
:20523400C0B2F2BD70B50024DFF8E464002070611421300002F0A2FC70613200182100208F
:2052540002F047FC0500320018214FF4807002F040FCC0B270BD38B50024DFF8CC5400206D
:20527400A8633821280002F089FCA8632A003C214FF4C87002F02DFCC0B232BDF8B50400DD
:205294000D00160000273200290089B2200080B202F01FFCC0B2F2BD30B4010080240020F1
:2052B400002200250023180080B232281ADA002002001000C0B2082812DA180080B2085C6A
:2052D400204202D0280080B20DE0E4B264086D1C2000C0B2002801D180200400521CE8E747
:2052F4005B1CE0E7002030BC704730B40100802400200025002200231D00ADB2322D17DABA
:2053140000252A001500EDB2082D0FDA1D00ADB24D5D254200D0401CE4B264082500EDB2D9
:20533400002D01D180252C00521CEBE75B1CE3E780B230BC704730B4010080240020002268
:2053540000250023180080B232281ADA002002001000C0B2082812DA180080B2085C204289
:2053740002D1280080B20DE0E4B264086D1C2000C0B2002801D180200400521CE8E75B1C90
:20539400E0E7002030BC704710B58AB0040002A82021FEF7F7FE207A0190E0790090A37967
:2053B4006279DFF8E81C02A802F000FD00200090002302AA1E2141F2100002F01DFE207AE2
:2053D4000190E0790090A3796279DFF8C41C02A802F0ECFC00200090002302AA142141F226
:2053F400300002F009FE0AB010BD2DE9F84F94B004000D000026002750210022E8464046A3
:20541400FEF78CFE002194F81380D5F82008401CC5F82008D5F81008401CC5F8100885F8F0
:205434000B884046C0B2002877D0DFF8681C0878002804D10320DFF8602C107003E0052078
:20545400DFF8542C1070D5F81C08401CC5F81C084046C0B201284FD100200870D5F8140871
:20547400401CC5F814080020C5F818085FF0080914F1140AEB464A465146584602F04CFF30
:20549400DFF8140CD5F81418027891420DD1012085F80C085FF00809EA4605F6020B4A4603
:2054B4005146584602F038FF46E00078D5F81418884241D2022085F80C08002007003800F4
:2054D400C0B2082838DA3800C0B2284490F8020869463A00D2B2895C88420BD00020C5F888
:2054F4001408D5F818080C30C5F81808042085F80C0821E07F1CE2E7012008700020C5F8E6
:205514001408D5F818080C30C5F81808042085F80C08082085F80D080EE0D5F81808401CAF
:20553400C5F81808D5F818080C2805D30020C5F81408042085F80C083000C0B215B0BDE8C7
:20555400F08F2DE9F8438AB004000D0002A82021FEF718FE5FF000080026DFF8BC91D9F8B4
:205574001C0802F03BFF0700D9F8200802F036FF0100380002F040FFDFF8901C02F0BAFF08
:2055940003F024F80700DFF8881C0878002805D14A695DA102A802F009FC04E0DFF8741C4B
:2055B40002A802F003FC38004FF6FF7180B2884202D142F21070070000200090012302AA45
:2055D400082141F2102002F017FD99F80B28DFF8481C02A802F0EAFB00200090002302AA26
:2055F400032141F2502002F007FDD9F8202847A102A802F0DBFB00200090012302AA0821BE
:205614004FF4915002F0F8FC3A0092B2642092FBF0F100FB11220A23BC461FFA8CFC5FF0AF
:20563400640E380080B24FF47A7192FBF3F803FB182201929CFBFEF20EFB12CC0A229CFBD8
:20565400F2F2009290FBF1F201FB1200642190FBF1F3380080B24FF47A7190FBF1F2DFF873
:20567400081D02A802F0A2FB00200090012302AA082141F2302002F0BFFC3000C0B20BB082
:20569400BDE8F083F0B589B00400DFF8E00C01782200D2B2914234D004700078002817D147
:2056B4002025DFF8CC6C01AF2A003100380002F033FEF82142F2602002F08AFC0020009027
:2056D400012301AA20214FF4935002F095FC19E02025DFF8A06C01AF2A003100380002F0A7
:2056F4001BFE4EF2070142F2602002F071FC00200090012301AA20214FF4935002F07CFCD2
:2057140000E0047009B0F0BD2564670025640000F03900207437002038150020C8000020D9
:20573400443A0020143A0020C83800201FB5040001A80821FEF726FD607E002808D002285F
:2057540079D03ED3042800F0ED80C0F0AF8025E100200090002301AA08214FF4835002F0BE
:205774004BFC00200090002301AA082141F2700002F042FC00200090002301AA08214FF46A
:20579400845002F039FC00200090002301AA082141F2900002F030FC4FF44151022002F089
:2057B40002FC43F25001022002F0FDFB43F26001022002F0F8FB43F27001022002F0F3FB00
:2057D400ECE000200090002314F1280208214FF4835002F011FC00200090002301AA082102
:2057F40041F2700002F008FC00200090002301AA08214FF4845002F0FFFB0020009000237F
:2058140001AA082141F2900002F0F6FB4FF44151002002F0C8FB43F25001022002F0C3FBF8
:2058340043F26001022002F0BEFB43F27001022002F0B9FBB2E000200090002314F12802EF
:2058540008214FF4835002F0D7FB00200090002314F13002082141F2700002F0CDFB002081
:205874000090002301AA08214FF4845002F0C4FB00200090002301AA082141F2900002F069
:20589400BBFB4FF44151002002F08DFB43F25001002002F088FB43F26001022002F083FB8C
:2058B40043F27001022002F07EFB77E000200090002314F1280208214FF4835002F09CFB80
:2058D40000200090002314F13002082141F2700002F092FB00200090002314F13802082124
:2058F4004FF4845002F088FB00200090002301AA082141F2900002F07FFB4FF4415100203D
:2059140002F051FB43F25001002002F04CFB43F26001002002F047FB43F27001022002F0B2
:2059340042FB3BE000200090002314F1280208214FF4835002F060FB00200090002314F195
:205954003002082141F2700002F056FB00200090002314F1380208214FF4845002F04CFB67
:2059740000200090002314F14002082141F2900002F042FB4FF44151002002F014FB43F2B3
:205994005001002002F00FFB43F26001002002F00AFB43F27001002002F005FB1FBD2DE92F
:2059B400F24F8EB004000027002600208DF801005FF00008002500200490B4F80500ADF8D7
:2059D40002005FF0040914F1090A0DF1100B4A465146584602F0A0FCBDF802004FF6FF7165
:2059F400884208D0BDF80200DFF8901C8989884201D00020D2E2DFF8886CB4F80300A6F81E
:205A14002C0A00203080E0798DF800009DF800001F2802D1207A8DF800009DF8000086F8AD
:205A3400280A002086F8240A002086F8260A0120DFF8501C0870DFF8500C0068DFF84C1CD0
:205A54000860A078002802D1B4F8097003E0BDF83800B0F10B079DF8000004281BD020281B
:205A740041D0212800F07F80222800F08F81232800F0D481252800F08880322800F06C8272
:205A9400552800F03D82F72810D0F8281AD0FE2800F063826EE2380080B2002805D13200D8
:205AB4000021002000F0FAFA308063E2380080B2002806D132003221DFF8900D00F0EEFA7E
:205AD400308057E2380080B200280CD1002086F8240A002086F8260A32000C21DFF8700D0D
:205AF40000F0DCFA3080380080B207283BD1A07A002808D0A07A0A2802D1E07A002802D0EA
:205B1400E07A012822D1DFF8748B607A88F80A00A07A88F80000E07A88F804005FF00409ED
:205B340014F10C0A18F1100B4A465146584602F0F3FB002086F8240A002086F8260AFFF7DD
:205B540071FB98F8000001F01CFA05E0012086F8240A042086F8260ADFF8202B3100002037
:205B740000F096FD3080380080B200280CD1002086F8240A002086F8260ADFF8002B3100A2
:205B9400012000F085FD3080F4E1380080B20D28C0F2FB8000200190DFF8B80C90F80C0825
:205BB400800700F1E480607B402880F2E680607B2044807B242880F2E08048200B9000205F
:205BD4000A90DFF8948CC1460A9A0B994846FEF7A5FA607B401C099014F10D000890DFF85E
:205BF4007CBCD946099A0899484602F095FB4146607B20440E3000F037FE88F81900042000
:205C14000790607B2044617B2144897B08440F30069018F12009079A0699484602F07CFBCB
:205C340002200590607B2044617B2144897B08441330029018F11C09059A0299484602F00C
:205C54006BFB607B2044617B2144897B0844407D88F81A00DFF8089CDFF808AC18225946C4
:205C7400504602F0CDFC002823D1082218F1280119F1340002F0C4FC00281AD1042218F115
:205C9400200119F12C0002F0BBFC002811D1022218F11C0119F1280002F0B2FC002808D1C9
:205CB400012218F11A0119F1260002F0A9FC00283BD018200990CDF820B0CDF808A0099A19
:205CD4000899029802F028FB02980420079018F12000069019F12C0A079A0699504602F044
:205CF4001BFB5FF0020A18F11C00059019F1280B52460599584602F00FFB5FF0010B18F1F4
:205D14001A00029019F126085A460299404602F003FB19F10C01607B20440E3000F0A4FDB5
:205D340089F82500012089F80C005FF0040814F109090DF1040A42464946504602F0ECFAF8
:205D5400002086F8240A002086F8260A019802F0C1FCDFF8840D0178032902D001780D29BF
:205D74000BD10178152908D00021417005E0012086F8240A042086F8260ADFF89404426934
:205D94000199300000F0C5FB3080F3E0380080B2152842D1207F05002800C0B200282BD1D6
:205DB400042216F5236114F1120002F029FC002822D15FF0040814F11609DFF8A4AA1AF122
:205DD4005C0B42464946584602F0A6FA04208AF85500A07ECAF80400A07E8AF86100E07EC3
:205DF4008AF86000002086F8240A002086F8260A042086F82B0A0AE00120DFF8641A81F863
:205E14005500012086F8240A042086F8260A32000021002000F042F93080ABE0380080B237
:205E340002286CDBA07D0500002003905FF0FF305FF0FF31CDE90C012800C0B2002814D1A1
:205E5400DFF8988C042218F1130114F1120002F0D7FB002809D1002086F8240A002086F8A9
:205E7400260A012088F8270A43E02800C0B2002814D1042216F5236114F1120002F0C0FBC9
:205E940000280BD1002086F8240A002086F8260A0120DFF8481C81F8270A2AE008220CA961
:205EB40014F10A0002F0ACFB002817D1042203A914F1120002F0A4FB00280FD12800C0B2FA
:205ED40000280BD1002086F8240A002086F8260A0120DFF8081C81F8270A0AE00120DFF868
:205EF400801981F85500012086F8240A042086F8260A32000021002000F0D0F8308039E094
:205F1400380080B2202826D1DFF8708798F80500617A88420ED198F80600A17A884209D188
:205F340098F80700E17A884204D198F80800217B884210D0607A88F80500A07A88F80600DF
:205F5400E07A88F80700207B88F80800FFF76AF94046FFF719FA0DE00CE0380080B20028D6
:205F740008D0607AC00705D5DFF8740B016851F001010160308800280FD19DF801000028D9
:205F94000BD1012086F8240A042086F8260A32000021002000F082F8308030880FB0BDE8C9
:205FB400F08F00002DE9F84F04000D0016000022002000210027B4F8058043469BB24FF6F4
:205FD400FF7C634508D04046DFF8B0369B8980B2984201D0002057E0DFF8A496B4F8030057
:205FF400A9F82C0A0020A9F8000094F807A0A078002802D1B4F809B001E0B6F10B0B504616
:20601400C0B204280AD0302814D0312819D0322818D0342817D0FE2816D022E0584680B213
:20603400002806D14A460021002000F037F8A9F8000016E0584680B2002801D001200700D5
:206054000FE00EE00DE00CE0584680B2002808D0607A002805D1DFF8880A01684908490062
:206074000160B9F8000000280CD1012089F8240A042089F8260A4A460021002000F00EF889
:20609400A9F800003800C0B2BDE8F28FA8E10008C8EB0008503A0020C60000202DE9F84F42
:2060B40005000E00170000245FF00008002087F82A0A7E20210089B239448870641C5520F0
:2060D400210089B239448870641C0020210089B239448870641CDFF8A4058189220092B2FA
:2060F4003A449170641C808980B2000A210089B239448870641CB7F82C0A210089B2394439
:206114008870641CB7F82C0A80B2000A210089B239448870641C1F20210089B23944887071
:20613400641C97F8280A210089B239448870641C3000C0B2F1281BDB200080B23844867044
:20615400641C0020210089B239448870641CB1465FFA89F9AA46200080B2384410F1020B9C
:206174004A465146584602F0D7F854FA86F434E097F8240A00280ED1B1465FFA89F9AA4623
:20619400200080B2384410F1020B4A465146584602F0C2F80EE0B1465FFA89F95FF0000A85
:2061B400200080B2384410F1020B524649465846FDF7B4FF54FA86F497F8240A210089B2A2
:2061D40039448870641C97F8260A210089B239448870641C2000401E3871210089B2891E7C
:2061F400381D01F0CBFC0100200080B238448170641C080080B2000A220092B23A44907016
:20621400641C3C802000C0B2BDE8F28F00401C46E83600206CEC000874EC00082DE9F84F71
:2062340004000D0016005FF0000B0027012085F82A0AC5F8306A7E20594689B2294488709C
:206254001BF1010B5520594689B2294488701BF1010B0020594689B2294488701BF1010BCF
:20627400DFF8180481895A4692B22A4491701BF1010B808980B2000A594689B2294488701E
:206294001BF1010BB5F82C0A594689B2294488701BF1010BB5F82C0A80B2000A594689B29F
:2062B400294488701BF1010B2220594689B2294488701BF1010B0020594689B22944887055
:2062D4001BF1010B5FF00808A146584680B2284410F1020A42464946504602F01DF81BF143
:2062F400080B584680B2284486701BF1010B3000000A594689B2294488701BF1010B30006C
:20631400000C594689B2294488701BF1010B3000000E594689B2294488701BF1010B5846D3
:20633400401E2871594689B2891E281D01F026FC8246594689B2891E281D01F01FFC0100DE
:20635400584680B2284481701BF1010B58460A0092B2120A03009BB22B449A70401C28800F
:20637400C0B2BDE8F28F0000D4EB0008C70000207CEC000884EC00082DE9FE4F04000D0067
:2063940016001F00DDF830805FF0000B0020ADF80400C6F8307A7E20594689B231448870BF
:2063B4001BF1010B5520594689B2314488701BF1010B0020594689B2314488701BF1010B5E
:2063D400AE4881895A4692B2324491701BF1010B808980B2000A594689B2314488701BF19E
:2063F400010BB6F82C0A594689B2314488701BF1010BB6F82C0A80B2000A594689B23144CB
:2064140088701BF1010B2320594689B2314488701BF1010B0020594689B2314488701BF143
:20643400010B5FF008090095584680B2304410F1020A4A460099504601F06EFF1BF1080BBA
:20645400584680B2304487701BF1010B3800000A594689B2314488701BF1010B3800000CF0
:20647400594689B2314488701BF1010B3800000E594689B2314488701BF1010B584680B234
:20649400304480F802801BF1010B4046000A594689B2314488701BF1010B4046000C594642
:2064B40089B2314488701BF1010B4046000E594689B2314488701BF1010B584680B23044D1
:2064D40084701BF1010B5846401E3071594689B2891E301D01F052FB8246594689B2891EAA
:2064F400301D01F04BFB0100584680B2304481701BF1010B58460A0092B2120A03009BB25E
:2065140033449A70401C3080C6F8307AC0B2BDE8FE8F2DE9F84304000D00160000275FF0E0
:206534000008002084F82A0A7E20390089B2214488707F1C5520390089B2214488707F1C84
:206554000020390089B2214488707F1C4B4881893A0092B2224491707F1C808980B2000A39
:20657400390089B2214488707F1CB4F82C0A390089B2214488707F1CB4F82C0A80B2000A2F
:20659400390089B2214488707F1C1F20390089B2214488707F1C94F8280A390089B2214439
:2065B40088707F1C0020390089B2214488707F1C380080B2204485707F1C2800000A3900DF
:2065D40089B2214488707F1C2800000C390089B2214488707F1C2800000E390089B22144C5
:2065F40088707F1C380080B2204486707F1C3000000A390089B2214488707F1C3000000CB3
:20661400390089B2214488707F1C3000000E390089B2214488707F1C94F8240A390089B222
:20663400214488707F1C94F8260A390089B2214488707F1C3800401E2071390089B2891EE4
:20665400201D01F09BFA8146390089B2891E201D01F094FA0100380080B2204481707F1C6A
:20667400080080B2000A3A0092B2224490707F1C27803800C0B2BDE8F2830000F03900208F
:20669400C80000204F3A0020383A0020283A00202DE9F84F80460D00160000240027002090
:2066B40085F82A0A7E20210089B229448870641C5520210089B229448870641C002021003F
:2066D40089B229448870641CDFF81C078189220092B22A449170641C808980B2000A2100C7
:2066F40089B229448870641CB5F82C0A210089B229448870641CB5F82C0A80B2000A210002
:2067140089B229448870641C1F20210089B229448870641C95F8280A210089B22944887045
:20673400641C0020210089B229448870641C4046C0B2002849D0B07A210089B22944887040
:20675400641C3078210089B229448870641C3079210089B229448870641C3069210089B2DD
:2067740029448870641C3069000A210089B229448870641C3069000C210089B229448870D6
:20679400641C3069000E210089B229448870641C5FF008092D4810F1080A200080B22844D7
:2067B40010F1020B4A465146584601F0B5FD08340020210089B229448870641C0020210071
:2067D40089B229448870641C1DE05FF008091F4810F1080A200080B2284410F1020B4A4652
:2067F4005146584601F098FD083495F8240A210089B229448870641C95F8260A210089B279
:2068140029448870641C2000401E2871210089B2891E281D01F0B2F98146210089B2891EBA
:20683400281D01F0ABF90100200080B228448170641C20000A0092B2120A03009BB22B44F1
:206854009A70401CC0B2BDE8F28F000000500008E8F7FF1F381500208038002081380020B3
:2068740074370020813700202DE9F84F88B004000D007C208DF801005FF000095FF0000AE8
:206894005FF0000800260421002201AF3800FDF745FC20788DF8000000279DF800003900F1
:2068B400C9B288420FD33800C0B2205C9DF80110884206D118F1010801A83100C9B247542E
:2068D400761C7F1CE9E79DF80000002800F0D5804046C0B200281ED1607800280BD1A078A2
:2068F400002808D1E078002805D12079002802D105208046BCE09DF800009DF80490B0EBB9
:20691400090914F1010A15F1280B4A465146584601F002FDACE04046C0B201281FD19DF821
:206934000490B9F10109601C039015F1280A4A460399504601F0F0FC9DF800009DF804A047
:20695400B0EB0A0A9DF804002044401C029015F1300B52460299584601F0DEFC88E04046BE
:20697400C0B2022835D19DF80400401E0590601C049015F12809059A0499484601F0CCFC0B
:206994000DF1040B9BF801009DF80490B0EB0909B9F101099DF804002044401C039015F1C6
:2069B400300A4A460399504601F0B6FC9DF800009BF801A0B0EB0A0A9BF801002044401C58
:2069D400029015F1380B52460299584601F0A4FC4EE04046C0B203284AD19DF80400401E03
:2069F4000790601C069015F12809079A0699484601F092FC0DF1040999F801009DF804A080
:206A1400B0EB0A0ABAF1010A9DF804002044401C059015F1300B52460599584601F07CFC91
:206A340099F8020099F801B0B0EB0B0BBBF1010B99F801002044401C049015F1380002904E
:206A54005A460499029801F067FC02989DF8001099F80200091A039199F802002044401C1B
:206A7400029015F14009039A0299484601F054FC18F101084046C0B200E0002009B0BDE8B2
:206A9400F08F10B5040060782178884223D0607820706078152808D1DFF8DC0600780A28B3
:206AB40003D1152001F06CFA15E020780D2809D1DFF8C40600780A2804D1207880B201F0EB
:206AD4005FFA08E02078DFF8B016097851FA80F080B201F055FA10BD443A0020000B0020E8
:206AF400243A00202DE9F84791B004000D00160001A82021FDF746FB09A82021FDF742FB05
:206B14000020DFF87886D8F81010D8F81470CF1B002F01D50027FFE73078002808D001285B
:206B340064D0022800F05D81142800F0598158E1DFF84C8698F80C00012842D118F10C0040
:206B5400FEF7F4FD002000900123A21C0C214FF4825001F051FA60780D280ADB0020009089
:206B7400012314F10E020C214FF4B25001F044FA08E000200090012309AA0C214FF4B25046
:206B940001F03AFA01A9206A00F030F900200090012301AA05214FF4885001F0ADFAA28BEA
:206BB400DFF8E01501A801F001F900200090012301AA0A2141F2101001F01EFA022088F8B9
:206BD4000C00002000900023DFF8BC2508214FF4995001F011FA002000900023DFF8AC253E
:206BF4000E2141F2500001F007FAFAE0DFF8909599F80C00012842D119F10C00FEF796FD90
:206C1400002000900123A21C0C214FF4825001F0F3F960780D280ADB00200090012314F1E4
:206C34000E020C214FF4B25001F0E6F908E000200090012309AA0C214FF4B25001F0DCF947
:206C540001A9206A00F0D2F800200090012301AA05214FF4885001F04FFAA28BDFF82415FB
:206C740001A801F0A3F800200090012301AA0A2141F2101001F0C0F9022089F80C00002055
:206C940000900023DFF80425122141F2504001F0B3F9002000900023DFF8EC2408214FF474
:206CB400995001F0A9F9D8F81010D8F81400081A002801D50020FFE7DFF82CA1DAF81010B4
:206CD40088420ED3DFF8C8140878002809D1206A00FB07F0A28BB0FBF2F06062012008702F
:206CF40015E0DFF8AC040078002810D0D8F81010D8F81400081A002801D5002700E0070082
:206D1400206A00FB07F0A18BB0FBF1F06062DFF8900B0068C00010D5D8F80C000B280CD3FC
:206D3400DFF8800B0178491C01700078152808DB002007000020606203E00020DFF8641B94
:206D540008703A00C4A101A801F030F800200090002301AA05214FF4895001F0CDF901A925
:206D7400606A00F043F800200090012301AA082141F2301001F0C0F9DAF81020DFF8281B29
:206D940001A801F013F800200090012301AA08214FF49A5001F030F901A9DAF81020206A15
:206DB4004243A08BB2FBF0F000F020F800200090012301AA07214FF49B5001F01DF901A9F4
:206DD400D9F85C00626A101800F010F800200090012301AA08214FF48A5001F08DF900E06A
:206DF400FFE712B0BDE8F087F0390020F8B584B004000D00B4F57A7F1BD26420B4FBF0F1DD
:206E140000FB11400A216422B0FBF1F301FB13000090B4FBF2F002FB10420A20B2FBF0F399
:206E34006420B4FBF0F2DFF8841A280000F0BEFFA5E0B4F57A7F2AD342F21070844226D249
:206E54006420B4FBF0F100FB11400A2164224FF47A73B0FBF1F601FB16000190B4FBF2F017
:206E740002FB10420A20B2FBF0F00090B4FBF3F003FB10436420B3FBF0F34FF47A70B4FB94
:206E9400F0F2DFF82C1A280000F090FF77E042F21070844233D3DFF81C1A8C422FD2642100
:206EB400B4FBF1F201FB12410A2264234FF47A76B1FBF2F702FB17110291B4FBF3F103FB19
:206ED40011430A21B3FBF1F10191B4FBF6F106FB11466421B6FBF1F10091B4FBF0F100FBDB
:206EF40011404FF47A71B0FBF1F342F21070B4FBF0F2DFF8C419280000F058FF3FE0DFF812
:206F1400B4198C423BD3DFF8B429944237D26422B4FBF2F302FB13420A2364264FF47A77CA
:206F3400B2FBF3FC03FB1C220392B4FBF6F206FB12460A22B6FBF2F20292B4FBF7F207FBF1
:206F540012476422B7FBF2F20192B4FBF0F200FB12404FF47A72B0FBF2F00090B4FBF1F05B
:206F740001FB104142F21070B1FBF0F3DFF84409B4FBF0F2DFF84819280000F017FF05B09D
:206F9400F0BD38B504002000C0B20A282AD14FF6FF75290042F2100001F01AF829004FF4EB
:206FB400015001F015F8290042F2500001F010F8290042F2101001F00BF8290042F23000CA
:206FD40001F006F8290042F2702001F001F829004FF4195000F0FCFF290042F2303000F06A
:206FF400F7FF2CE0002142F2100000F0F1FF00214FF4015000F0ECFF002142F2500000F011
:20701400E7FF002142F2101000F0E2FF002142F2300000F0DDFF002142F2702000F0D8FF33
:20703400002142F2200000F0D3FF00214FF4195000F0CEFF002142F2203000F0C9FFDFF847
:2070540084080078DFF880180978081880B200F097FF31BD000000002564000038B50400E8
:20707400DFF86C180878002810D12000C0B2002809D0DFF860080470DFF85C080068486087
:20709400102008703FE0002088703CE00878102818D148682830DFF84028126890420DD2CE
:2070B400DFF8300802782300DBB29A4201D1047001E0002088700420087024E08C700420A8
:2070D400087020E0087804281DD14868C830DFF808281268904213D2DFF8F8070278230037
:2070F400DBB29A4205D18A78007852EAC0028A7003E08A78007802438A700020087002E0B5
:207114008C7010200870DFF8D45728782100C9B288422ED02C702878C00705D5002142F27F
:20713400106000F055FF05E04FF6FF7142F2106000F04EFF2878800705D5002142F2206036
:2071540000F046FF05E04FF6FF7142F2206000F03FFF2878400705D5002142F2306000F0D4
:2071740037FF07E04FF6FF7142F2306000F030FF00E02C7031BD0000F0390020E836002055
:20719400743700208CEC0008D0390020000000204E3A00202DE9FE4FDFF8444720688004CE
:2071B4000BD5206830F400502060DFF81827DFF83417DFF83407FFF795FCDFF83057287890
:2071D400800618D54FF44251002000F0ECFE0E275FF00008DFF81867B14642463900484630
:2071F400FCF79CFF5FF00E09DFF808A74A465146300001F091F8DFF8006796F80C08C00789
:207214001FD596F80C0810F0FE0086F80C08DFF8B4160878002802D00878012811D1DFF8B7
:20723400DC76DFF8DC060268390006F60200FEF7F5FF3880012086F80A08206850F0100064
:20725400206096F80C08400740F1BE8014275FF00008DFF8B09619F1540AD3464246390051
:207274005846FCF75BFFDFF85CB69BF80000002804D09BF80000012840F0A280206830F4DD
:20729400806020609BF8000000282ED196F80C0840072AD52068800527D5206830F40070B3
:2072B4002060DFF84016CA684869121A002A1CD5DFF8140602694B69C8681B1A9A4214D2AC
:2072D400DFF844060178491C0170017805290CDB00210170DFF834060F21017340F2011111
:2072F4004184206850F00400206096F80C0810F0FB0086F80C080E20029000200190DFF8F2
:20731400F0854746019A02993800FCF707FF0A200090DFF8FC75009A3900404600F0FCFFAA
:2073340000208BF801004FF44251022000F03BFE96F80A0801283ED1042086F80A080020C8
:20735400C9F8300014275FF00008424639005046FCF7E4FEDFF88C150A694869101A00287C
:2073740001D50020FFE7052825D3DFF8A8050078002820D00A694869101A002801D5002078
:20739400FFE7DFF894750090DFF8740503683A0006F6020199F82600FEF7EEFF38802068B6
:2073B40050F080002060DFF830050068C7F8340A012087F8230A0120DFF8401581F82B0A40
:2073D4000020DFF85015087096F80C08800740F1C480DFF8F0140878002812D1DFF8E824DE
:2073F4001079002802D101204870B6E01079012840F0B38001204870206830F0040020606C
:20741400ABE00878012840F0A8800E275FF00008DFF8DC94CA46424639005046FCF77EFE23
:207434005FF0000A5FF0000BDFF89C040079002873D12878000670D4DFF8C00490F82B1AD7
:20745400042904D090F82B0A022840F08680DFF8B47497F86000002810D14FF4425100200D
:2074740000F0A1FDDFF8A4040F2101734FF481714184206850F02000206005E0206830F058
:20749400040020600120824697F8610001281CD10E27DFF888843A004146484600F03CFFD3
:2074B40045F24001A22000F014FF45F25001222000F00FFF45F25011002000F074FD45F263
:2074D4004011002000F06FFD15E045F24001FF2000F0FFFE45F25001FF2000F0FAFE45F28C
:2074F4005011022000F05FFD45F24011022000F05AFD012083465846C0B2002808D0504628
:20751400C0B2002804D0206850F48060206024E0206830F4806020601FE045F24001FF2017
:2075340000F0D7FE45F25001FF2000F0D2FE0E275FF00008424639004846FCF7EFFD45F21A
:207554005011022000F02FFD45F24011022000F02AFD206850F48060206096F80D080007E1
:2075740013D596F80D0810F0F70086F80D08206850F008002060012086F80A08DFF88C037B
:207594000F21017340F2031141842068400461D5206830F480402060E14E3078012821D148
:2075B4000020E04908600E275FF00008DFF87893424639004846FCF7B1FD45F260010320ED
:2075D40000F0F1FC286830F080002860D748006800F5C240A830C049096888423AD200203C
:2075F400307037E03078002834D1CE4ECF4801683268921C46F2A81000FB0211B6480068A3
:20761400814227D20E275FF00008DFF81CB3D946424639004846FCF781FD5FF00809DFF852
:2076340010A34A465146584600F076FE45F26001002000F0B8FC286850F080002860B3482B
:20765400042101700F2101734FF4827141843068401C3060B04E96F8270AC00777D596F8FF
:20767400270A10F0FE0086F8270A984F17F106094846FDF73AFE002865D0DFF8B882484664
:20769400FDF70AFEA8F80000B8F80000B98888422DD1202000905FF00009DFF89CA2D3462B
:2076B4004A4600995846FCF739FD52462021B8F800308020434313F58063180080B2FDF7BE
:2076D400DDFD00283FD0B888C0103844B988C9103944897980223B7913F00703D2B2DA405F
:2076F40091438171FDF7B7FDFDF783FD2BE05FF020095FF0000A18F10408C3465246494673
:207714005846FCF70BFD42462021BB888020434313F58063180080B2FDF7B0FD002812D0AA
:20773400B888C0103844B988C9103944897980223B7913F00703D2B2DA4091438171FDF755
:207754008AFDFDF756FD206830F04000206096F8250A01284DD1002086F8250A96F8230A53
:20777400012846D12820019000200090714FB846009A01994046FCF7D1FCDFF8508118F143
:2077940006094846FDF7D7FDA8F804004846FDF7D2FD38803888C0104044807980213A7863
:2077B40012F00702C9B2D14008433988C91041448871FDF750FDFDF71CFD4846FDF795FD59
:2077D400A8F800005FF02008DFF87091DFF868A1D34642464946584600F09EFD5246202194
:2077F4003B888020434313F58063180080B2FDF745FD4B480078C0074DD52078400646D435
:207814002078800743D54E480178491C0170216831F0020121600178C82938D10021017005
:207834002A4F17F106084046FDF75FFD00282ED04046FDF731FDB880DFF8F8904046FDF7F0
:207854002BFDA9F8000019F104073A002021B9F800308020434313F58063180080B2FDF78B
:20787400D3FC5FF01C0816F1020942463900484600F052FD1C203080206850F0800020605E
:2078940015480068C6F8340A022086F8230A286830F00800286000F03AFFBDE8F78F0000B2
:2078B40074390020513A002094EC00089CEC0008E0EB0008A0860100ECEB000840420F00BA
:2078D40088EB0008443A0020F0390020C83800201C3A0020533A0020383A0020523A0020B1
:2078F400243A0020E8360020803700202C0000200000002098EB000838150020C800002095
:207914002C3A002074370020543A002004390020F8EB00084E3A0020000B0020A8EB00089E
:207934004F3A0020303A0020D0390020283A002004EC0008A8390020AC39002040390020BE
:20795400553A00202DE9F04104000D0016005FF001080027280080B2002860D000F016FFC0
:20797400002801D1002080464046C0B2002808D0A02000F0A0FF00F07DFF002801D1002046
:2079940080464046C0B2002808D0200080B2000AC0B200F090FF00F06DFF80464046C0B2AE
:2079B400002806D02000C0B200F085FF00F062FF80464046C0B2002805D000F0E7FE0028A6
:2079D40001D1002080464046C0B2002808D0A12000F071FF00F04EFF002801D100208046A5
:2079F4006D1E4046C0B2002817D0002007003800290080B289B2884208D200F081FF39009F
:207A140089B2705400F006FF7F1CF0E700F078FF390089B2705400F015FF00F0E3FE4046F2
:207A3400C0B2BDE8F0812DE9F04104000D00160000275FF00108280080B2002842D000F039
:207A5400A5FE002801D1002080464046C0B2002808D0A02000F02FFF00F00CFF002801D1C4
:207A7400002080464046C0B2002808D0200080B2000AC0B200F01FFF00F0FCFE8046404602
:207A9400C0B2002806D02000C0B200F014FF00F0F1FE8046002007003800290080B289B233
:207AB40088420DD24046C0B2002807D0380080B2305C00F000FF00F0DDFE80467F1CEBE72F
:207AD40000F090FE052000F058FE4046C0B2BDE8F0812DE9F04704000D00160000275FF0B1
:207AF40000085FF0000A200010F03F0F1BD014F03F00D0F1200007002800390080B289B2BF
:207B1400884200D22F00404680B206EB0002390089B218EB040080B2FFF785FF8146ED1BE5
:207B340017EB080801E05FF001094846C0B200281FD0280080B200281BD0202007002800F2
:207B5400390080B289B2884200D22F00404680B206EB0002390089B218EB040080B2FFF752
:207B740062FF8146ED1B17EB08084846C0B20028DFD14846C0B2BDE8F087000070B4030094
:207B94000022002400264FF6FF7000258D4214D25A5D504000221600082E0CD2C20706D5A0
:207BB40080B2020048F2084090EA520001E080B24008761CF0E76D1CE8E780B2C04380B2AC
:207BD40070BC70472DE9FE4300250026082100226C462000FCF7A2FA0027644C220008213E
:207BF40047F6F870FFF7AEFE05002800C0B2002814D05FF000085FF0000906212000FFF793
:207C1400BDFFE18802000B0092B29BB29A4202D00022150001E00122150007E0322000F066
:207C3400ACFD7F1C3800C0B20328D6DB5FF000086A4608214FF4FC40FFF784FE0600300009
:207C5400C0B2002814D000275FF0000906216846FFF794FFBDF8061002000B0092B29BB24C
:207C74009A4202D00022160001E00122160008E0322000F082FD18F101084046C0B2032812
:207C9400D6DB55EA0600C0B2002809D14AF6AA2020800220608000F019F800F044F813E09A
:207CB4003000C0B2002802D100F03DF80CE02800C0B2002808D10827E9463A004946200020
:207CD40000F02AFB00F002F8BDE8F78370B500240025264E0020F08006213000FFF74EFF66
:207CF400F0803200082147F6F870FFF7F2FE04002000C0B2002806D0320008214FF4FC40AC
:207D1400FFF7E7FE04002000C0B2002808D1322000F033FD6D1C2800C0B20328E1DBFFE77B
:207D34002000C0B270BD70B5002400250F4E0020F08006213000FFF721FFF08032000821DD
:207D54004FF4FC40FFF7C5FE04002000C0B2002808D1322000F011FD6D1C2800C0B20328A2
:207D7400ECDBFFE72000C0B270BD0000143A002030B4002513E050F8042BD30744BFA9F12B
:207D940001039A18091F042942F8045BFAD213468C0744BF15809B1CC90748BF1D7050F878
:207DB400041B0029E7D130BC704700000CB430B583B00A4606A90291044600250194009509
:207DD40002AB01A9084878441E3000F0C5FD019A157000284EBF04460198041B204603B0BC
:207DF40030BC5DF80CFB00BF0F0800002DE9FE4F5020029000200190DFF80045019A0299E9
:207E14002000FCF78BF9502000900024DFF8F0542E00220000993000FCF780F94FF48476B6
:207E34000027DFF8E084C1463A0031004846FCF775F95FF002095FF0000ADFF8CCB45246C9
:207E540049465846FCF76AF95FF4E13001F0E8FD012001F03BFE4FF4907118F1010001F0C7
:207E740062FE4FF4907115F1080001F09FFE5FF40030DFF8981408604FF49070DFF8901482
:207E94000860DFF89004016851F001010160BDE8F78FF0B40400002000255A260700FFB29E
:207EB400DE55401CA5260700FFB2DE55401CFF260700FFB2DE55401C82260700FFB2DE550E
:207ED400401C2600B6B2360A0700FFB2DE55401C0600F6B29C55401C00263500EDB2170011
:207EF400ADB2BFB2BD4208D23500EDB24D5D0700FFB2DD55401C761CEFE7C51E9D70C0B237
:207F1400F0BC7047F0B40400002000255A260700FFB2DE55401CA5260700FFB2DE55401C24
:207F3400FF260700FFB2DE55401C82260700FFB2DE55401C2600B6B2360A0700FFB2DE5519
:207F5400401C0600F6B29C55401C00263500EDB21700ADB2BFB2BD420DD200250700FFB21A
:207F7400DD55401C3500EDB24D5D0700FFB2DD55401C761CEAE7C51E9D70C0B2F0BC704773
:207F940070B50400DFF87C536E1C3100200080B200F032F985F8010195F8011189B230004D
:207FB40001F0ABFD70BDF8B504000D00D54E771C3A00290089B2200080B200F058F986F8C4
:207FD400010196F8011189B2380001F096FDF1BD73B50400CB4D6E1C3300022201A9E01C7B
:207FF40080B2FFF756FF85F8010195F8011189B2300001F082FD73BD2DE9F14F8AB00D002A
:2080140016001F00149C202100220DF104084046FCF784F85FF0000A5FF00008300001F034
:208034004FFE814628004946C0B2C9B288420CD2A946CA465FFA8AFA00960DF1040B5246B5
:208054000099584600F068F93EE0202000905FF0200A0DF1040B524600995846FCF75EF8F8
:208074003800C0B2002813D15FEAC97008D52900C9B24846C0B2091A491C4910884615E08F
:208094002900C9B24846C0B2091A491088460DE03800C0B2012801D1A04607E03800C0B2D5
:2080B400022803D1281BB0EB09008046CA465FFA8AFA009601A84146C9B200EB010B524644
:2080D4000099584600F028F9DFF838A21AF1010B5B462A00D2B292B201A9BDF82800FFF76C
:2080F400D8FE8AF801019AF8011189B2584601F004FD0BB0BDE8F08F2DE9F14F8AB00D0027
:2081140016001F00149C202100220DF104084046FCF704F85FF0000A5FF00008300001F0B3
:20813400CFFD814628004946C0B2C9B288420CD2A946CA465FFA8AFA00960DF1040B524635
:208154000099584600F0E8F83EE0202000905FF0200A0DF1040B524600995846FBF7DEFFF2
:208174003800C0B2002813D15FEAC97008D52900C9B24846C0B2091A491C4910884615E08E
:208194002900C9B24846C0B2091A491088460DE03800C0B2012801D1A04607E03800C0B2D4
:2081B400022803D1281BB0EB09008046CA465FFA8AFA009601A84146C9B200EB010B524643
:2081D4000099584600F0A8F8DFF838A11AF1010B5B462A00D2B292B201A9BDF82800FFF7ED
:2081F40091FE8AF801019AF8011189B2584601F084FC0BB0BDE8F08F10B4020000205A2328
:208214000400E4B20B55401CA5230400E4B20B55401CFF230400E4B20B55401C82230400B5
:20823400E4B20B55401C00230400E4B20B55401C84230400E4B20B55401C5A230400E4B24B
:208254000B55401C01230400E4B20B55401C13009BB21B0A0400E4B20B55401C0300DBB269
:20827400CA54401CC31E8B70C0B210BC704730B4030000205A240500EDB25455401CA524A8
:208294000500EDB25455401CFF240500EDB25455401C82240500EDB25455401C0C00A4B2A4
:2082B400240A0500EDB25455401C0400E4B21155401C1C00A4B2240A0500EDB25455401C2E
:2082D4000400E4B21355401CC41E9470C0B230BC7047F8B504000D000A4E771C3A00290025
:2082F40089B2200080B2FFF7C2FF86F8010196F8011189B2380001F000FCF1BD3038002070
:20831400E0370020E0350020443A0020040002405C0002405800024062B38B0708D0521ED2
:2083340011F8013B00F8013B00F024808B07F6D1830740F0208000BF103A07D330B4B1E809
:208354003810103AA0E83810F9D230BC530724BFB1E80810A0E8081044BF51F8043B40F89F
:20837400043BD20724BF31F8022B20F8022B44BF0B7803707047121F17D35B0009D151F80A
:20839400043B20F8023B1B0C121F20F8023BF6D20BE051F8043B00F8013B1B0A20F8023B9F
:2083B4001B0C121F00F8013BF3D238BF121D521E24BF11F8013B00F8013BF8D87047B1F539
:2083D400807F02D34FF0FF3070470170012070470078401E8041C043C00F704700280AD025
:2083F400B0FA80F18840D1F19D01C905020672F1004241EB1020704710B5FF2313EAD05490
:208414001DBF13EAD1529C429A4239E0A41ADA0780EA0103134042EA012142EA0020421A23
:208434003CBF641E01EB4202090AB2FBF1FE01FB1E221202B2FBF1F001FB10226EF30F2030
:208454001202B2FBF1FE4EEA00207F3406DDFE2C24DA53EA500050EBC45010BDD4F10204CE
:2084740001FB1E2240F08071192C1DDC21FA04F0C4F12004A140114371F10042584110BD26
:208494009C421ABF03EAD1529A420FE080EA010E0EF00043400004D0490016D143F0FF40C6
:2084B40010BD490008BFD343180010BD9C4205D1D21AF7D001F00041484010BD4A0212BFC5
:2084D4000846484000F0004010BD4AB90902B1FA81F2914044B1A418C00140F000409EE751
:2084F400C90141F0004152420002B0FA80F4A040141B94E7FF2212EAD05C1DBF12EAD153A9
:20851400944593422BE09C44D30780EA01021A4043EA002043EA0121A1FB0030C04238BFAC
:2085340040007CF17F010BDBFE294ADA5B0842EAC15153EA006373F1004C51EB10207047B5
:20855400D1F1080CDCF120012FDB5B0810FA01F10B4320FA0CF073F10041504170479445B0
:208574001CBF02EAD153934280EA010202F000421DD0400019D0490017D05BB9634514D0A0
:208594000902B1FA81F39940BCEB030CC00140F00040C1E70002B0FA80FC10FA0CF0B3EB69
:2085B4000C0CC90141F00041B6E71000704740000AD0490008D010F1807F94BF11F1807F60
:2085D40002E042F0FF407047D0437047C0F3C7517E390EDDC217D1F1200106DD000240F075
:2085F4000040C840104450407047D04380F000407047002070470268531C036011707047BF
:208614000300002013F0030F09D0521E22BF13F8010B11F801CBB0EB0C00F3D0704711F0D6
:20863400030F14D1121F22BF53F8040B51F804CB6045F7D0121D0AD200BA9CFA8CFCB0EBC1
:208654000C0038BF6FF0000088BF01207047521E22BF13F8010B11F801CBB0EB0C00F6D0DB
:20867400521C08BF1046704780B5012001F044FB01F04AFB012001F0EDFB612001F0B0FCD0
:208694000028FAD04FF4007001F0E9FB012001F0EBFB01F03DFD01F036FD0021012001F0D2
:2086B400F1FC01F030FD49F63F4001F01DFD01F02AFD01BD10B5040001F025FD01F028FD0A
:2086D40001F021FD2100C9B2012001F0DBFC01F01AFD10BD10B50400012001F00DFB01F049
:2086F40012FD200001F0F3FC01F00DFD10BD2E00010089B20B4A116070470100C9B20A4AD8
:2087140011607047010089B2084A116070474AF6AA200449086070474CF6CC4001490860F1
:20873400704700000030004004300040083000401CB5042100226C462000FBF7EFFC032028
:208754008DF8020014208DF8030081488188ADF800106946006801F009FD7E488188ADF8B9
:2087740000106946006801F001FD13BD002064210800411E0028FBD170474FF42051484309
:20879400401C0100481E0029FBD1704710B5704CA088216808616F48818800680161FFF73B
:2087B400E5FF20688068002801D1012000E00020217911F00101084201D0002011E0A08845
:2087D40021684861FFF7D2FF20688068A188084201D0002005E0A08821684861FFF7C6FFBE
:2087F400012010BD38B55B4CA08821684861FFF7BDFF574DA88829684861FFF7B7FFA088F5
:2088140021680861FFF7B2FFA88829680861FFF7ADFF31BD10B54F4CA08821684861FFF741
:20883400A5FF4B48818800684161FFF79FFFA08821680861FFF79AFFA08821684861FFF74D
:2088540095FF10BD10B5434CA08821684861FFF78DFF3F48818800680161FFF787FFA08875
:2088740021680861FFF782FFA08821684861FFF77DFF10BD38B5374CA08821684861FFF722
:2088940075FF334DA88829680861FFF76FFFA08821680861FFF76AFF28688068A9880842D6
:2088B40004D0A08821684861002003E0A08821684861012032BD70B5040008252800451E28
:2088D400C0B2002817D0234EB08831684861200604D51F4881880068016103E01C4881888F
:2088F40000684161FFF742FFB08831680861FFF73DFF6400E2E7174881880068416170BDEB
:20891400F8B508240025124EB088316808612000441EC0B2002813D06D000E4FB888396801
:208934004861FFF723FFB88839680861FFF71EFF30688068B1880842E9D055F00105E6E731
:2089540004488188006841612800C0B2F2BD00003CEC000844EC00082DE9F14FB2B099465C
:20897400924600230691CDE900333C9A0F930DF14A0114914A7011E0329E57462C4617F869
:20899400011B0698B0470028069000F026810F98401C641E0F90F2D13296AA449AF800008E
:2089B400252808D10021002209910A920B910C920D910E920FE06A464FF0FF31504601F0F7
:2089D400C9FC050002D10F9800F066BED4D50125E3E741F001011AF8010F2028F9D02328E1
:2089F4000CD02B2804D02D2805D0302809D00BE041F00201EFE741F00401ECE741F00801CD
:208A1400E9E741F01001E6E72A280FD1D9F8002052F8040BC9F800200028119003D54042E3
:208A3400119041F004010AF1010A14E01192DFF8EC3B0AE01198984205DA00EB800402EB08
:208A54004402303A11920AF1010A9AF80020A2F130000A28EED39AF800002E2803D04FF047
:208A7400FF32109229E01AF8010F2A2809D1D9F8000050F8042BC9F8000010920AF1010A07
:208A94001BE02D280CBF0AF1010A002000221092DFF8882B0BE040B9109B934205DA03EB02
:208AB400830504EB4504303C10940AF1010A9AF80040A4F130030A2BEDD3ADF848100FF63B
:208AD40060309AF8001001F04FFC08B11AF8010B8DF84A009DF84A00682805D19AF8000097
:208AF40068280CD1622106E06C2804BF9AF800006C2804D171218DF84A100AF1010A1FA8FC
:208B140008901AF801BBBBF125012DD01C3900F06181091F022940F25D810E392AD0491FD9
:208B340000F0B384093900F05581891E00F04985491E00F0F584491E022940F24B81091F05
:208B540000F0EE84491F00F0BA80491E00F09D84491E65D0C91E21D0891E00F09684C91E89
:208B740000F0938400F04CBD25238DF87C30012109912AE06C208DF84A00D9F8000050F82E
:208B9400042BC9F80000002A43D11499487800283DD04FF0FF340FF6902012E09DF84A00F9
:208BB4006C28EAD0D9F8000050F8044BC9F800000794D4B91499487898B14FF0FF340FF6D5
:208BD400842001F0DDFB201A07D132981FAA04A900F065FD00287FF5E1AE4FF0FF3000F0E7
:208BF4005BBD0FF67C200790EFE7109D002D04D5204601F065F8044607E02A46204601F0DC
:208C1400DFFB002814BF041B2C460A94DDE70FF65422329804A900F0C8FD0028D5D5DCE73C
:208C3400D9F8001051F8040BC9F8001020F00004002121F0FF351FABCDE904450793DDE973
:208C5400042308993C2413B90AB9109898B102F00F053035641EEEB23A2EA8BF2735120985
:208C740042EA03721B090D5508BF002A03D007980D19A842EBD308190790C4F13C02109835
:208C94000A92824209DABDF84810821A4FF6EF7001400C92ADF8481097E7002895D59DF8AF
:208CB400480000F0140010288FD1119B09990C985B1A1B1A9A1A002A87DD0C9285E7149927
:208CD400487820B14FF0FF340FF69C1079E79DF84A00622862D0682819D06A2840D06C2822
:208CF40006D071284DD074282DD07A281ED064E0D9F8001051F8040BC9F8001020B94FF045
:208D1400FF340FF67C105CE70F9901605DE7D9F8001051F8040BC9F8001020B94FF0FF3496
:208D34000FF65C104DE70F9901804EE7D9F8001051F8040BC9F800100028E5D14FF0FF34C2
:208D54000FF63C103DE7D9F8001051F8040BC9F800100028D8D14FF0FF340FF6241030E7ED
:208D7400D9F8001051F8040BC9F8001020B94FF0FF340FF60C1024E70F9AD317C0E90023FF
:208D940023E7D9F8001051F8040BC9F800100028F2D14FF0FF340FF6E80012E7D9F8001087
:208DB40051F8040BC9F8001020B94FF0FF340FF6D00006E70F99017007E7D9F8001051F838
:208DD400040BC9F8001000289ED14FF0FF340FF6B000F6E6D9F80020D21D22F00702C9F849
:208DF4000020D2E900010832C9F80020CDE90401C80F02D009982D210AE0BDF848008107A6
:208E140002D509982B2103E0C00705D5099820211FAA1154401C0990DDE9042309991FA89B
:208E3400CDE92E2308444BF020016129079015AC0BD01099002902D50621109105E001BF9C
:208E54004BF02001672901221092DDE9042359004915491C10D11A030ED0ABF16105032142
:208E74001A2D0A9102D20FF6A43101E00FF6A0310322FFF751FAA8E659004915491C0AD1AC
:208E94001A0308D1ABF1610503211A2D0A9116D30FF68431ECE7DDE90401CDE93001DDE9D2
:208EB400302323F00047B7F5801F22F000060DD20022002F08BF002E029203D116E00FF606
:208ED4005431D5E702AA01F0A7FA0FE0DFF8EC0ADFF8EC1A00EB17500290DDE930234FF02A
:208EF400FF301940DFF8DC7A10403943CDE904014BF0200061280DD1079830210170821C61
:208F1400BBF1610F07920CBF7821582141700998801C0990DDE9040120F0000231F00043E3
:208F340008BF002A02D10026002571E14BF02008B8F1610F40F0BE801098002847BF2121BA
:208F54000391401C0390039FDDE92E017F1C00220023DDE9044501F097FA02998DF85420DE
:208F740038BF85F00045091F002F02910DF155065DDDDFF8541ACDE9302140F2FF732E93FE
:208F9400204629460022002301F096FA4FD24800400D00F11C0215D0002A13DD2E9B9A42B9
:208FB4000ADBDDE9300121F0004205F000400243DDE93001114611E06FF31E5141EA025166
:208FD40020460BE024F0000035F0004108BF00280FBF29461C22294601F086FA04460D46CB
:208FF40001F020FBFF1F002F804609DD01F038FB02460B462046294601F044FB04460D46F9
:20901400F01D0721B8F1000F0CDD491E5EBF08F00F0200F8012D4FEA2818F3D502E000226E
:2090340000F8012D491EFAD5C61D002FA8DC0DF15500361A03988642D8BF304600280DF1F1
:20905400550430D4B04206DA0DF155010A5C082AA8BF0F2100DA0021024615AB134400E010
:20907400401E13F80159521E8D42F9D00F2904D10DF155018B5C5B1C8B54002A04D50299D5
:20909400091D15AC401C0291411E0CD46218ABF13A0613783033DDB23A2DA8BFF318491E94
:2090B40002F80139F5D51099002940F1AF80421E1092ABE00299DFF8142947F2975041438C
:2090D40091FBF2F2DDE92E45029225F00045D2F1070204DD2046294600F04CFC0BE05242AC
:2090F4000020DFF8EC1800F045FC02460B462046294601F039FB0446B8F1660F109806BFC8
:20911400029F0A3706273F18142FC8BF142730208DF854000D460020DFF8B818CDE92E01A8
:209134000DF15506002F33DD2046294601F040FC01460A4606F1080304200A26B2FBF6F6FB
:2091540006EB860EA2EB4E02303203F8012C0A22B6FBF2F202EB820EA6EB4E063036401E28
:2091740003F8026DE9D1083F002F03F10806D9DD084601F031FC02460B462046294601F0BE
:2091940081FADDE92E2301F035FC04460D46CBE70DF15500361A0DF1550404E00298401EE2
:2091B400761E0290641C20783028F7D0B8F1660F02D10299491C04E0B8F1650F0CBF01215F
:2091D4000021109808188642B8BF701E00281DD4B04204DA215C3429C8BF392100DC3021F4
:2091F4000246631E9D1800E0401E15F80169521E8E42F9D0392902D1A15C491CA154002A69
:2092140004D50299491C1C46401C02910646029D01F0A4F8406A0778DDF8408030B20028D0
:2092340002DC01260FF2F4744BF02000662808BF6D1C16D0672846D128B210F1040F48DBD6
:20925400404546DA9DF848006D1C010703D430B24045B8BF804628B2B8EB000848BF4FF0A1
:2092740000080FFA85FB07980A99BBF1000F00F3B2804A1C0A9230234354B8F1000F03DCA4
:209294009DF84800010704D50A98411C0A9107990F5418EB0B0FB8BFC8F100052DB2684284
:2092B4000D90A84432B29045B8BF4646079B0A9836B20B96324621461844FFF72DF8A8EB9F
