:020000040800F2
:10400000F02F00201DE5000811DE000813DE000877
:1040100015DE000817DE000819DE000800000000A9
:104020000000000000000000000000001BDE00088F
:104030001DDE0008000000001FDE000821DE000871
:1040400061E6000865E6000869E6000819E0000876
:104050006DE6000871E6000875E6000879E60008DC
:104060007DE6000881E6000885E6000889E600088C
:104070008DE6000891E6000875DF000851DF0008B2
:10408000D9DE0008FDDE000895E6000899E6000884
:104090009DE60008A1E60008A5E60008A9E60008DC
:1040A000ADE60008B1E60008B5E60008B9E600088C
:1040B000BDE60008C1E60008C5E60008C9E600083C
:1040C000CDE60008D1E60008D5E60008D9E60008EC
:1040D000DDE6000817DF00089FDE000897DF000814
:1040E000E1E60008E5E60008E9E60008EDE600087C
:1040F000F1E60008F5E60008F9E60008FDE600082C
:1041000001E7000805E7000809E700080DE70008D7
:1041100069DE0008D7DF000811E7000815E700088E
:1041200019E700081DE7000821E7000825E7000857
:1041300062F30F2262F31F42401810F0030308D00D
:10414000C91A1FD3DB0748BF00F8012D28BF20F88C
:10415000022D130030B414461546103928BF20E94B
:104160003C00FAD8490728BF20E90C0048BF40F8B6
:10417000042D890028BF20F8022D48BF00F8012D2A
:1041800030BC7047C91818BF00F8012DCB0728BFF5
:1041900000F8012D704700000022FFF7CDBFF009A5
:1041A00004CEB4B0F3B6A8CDD0C5CC000120063201
:1041B000333036313130301E4301012451072003A2
:1041C000000102030404F0090806070809020406B6
:1041D000088694000452FF01E34E9014200400006E
:1041E0004293000854F003164C0000200001200206
:0E41F000957800082C4383783C2101030100E0
:105000002043533131313020323330363136303075
:105010002047323330323030000000000000000002
:105020000000000000000000000000000000000080
:0250300000007E
:105034002DE9F0476C240025DFF8FC662A002100E6
:105044003000FFF773F840F61C060027DFF8EC8603
:105054003A0031004046FFF769F84FF423685FF0E7
:105064000009DFF8DCA64A4641465046FFF75EF8E1
:1050740000F014F8002804D00320DFF8C8164870A4
:1050840003E00220DFF8BC164870DFF8A806002110
:105094008170007801F02CFEBDE8F0872DE9F0471F
:1050A4005FF0000800240025DFF88866320018212C
:1050B400002001F0A7FE07003800C0B2002810D07D
:1050C4005FF000085FF000091421300001F0B6FF22
:1050D400716902000B0092B29BB29A4201D0002285
:1050E4001700320018214FF4807001F08BFE8046C7
:1050F4004046C0B200280FD000245FF000091421FC
:10510400300001F09BFF716902000B0092B29BB268
:105114009A4201D00022904658EA0700C0B2002803
:1051240021D118245FF00009B2464A4621005046B6
:10513400FEF7FCFF0020B070002070700120B081E9
:10514400C0207071A820B0710120F0711620307257
:105154000120F07000203071002030703220306166
:1051640000F068F826E03800C0B201280FD14046AC
:10517400C0B200280BD132001821002001F042FEF9
:10518400320018214FF4807001F003FF12E0380060
:10519400C0B200280ED14046C0B201280AD1320064
:1051A40018214FF4807001F02DFE320018210020E8
:1051B40001F0EFFE01F066FF45F25550DFF8B01C38
:1051C4000A88824208D14A88737A9BB29A4203D1F0
:1051D4008A88B3899A4206D00880B089888001F011
:1051E400D5FF02F000F83800C0B2012805D14046CE
:1051F400C0B2012801D1012005002800C0B2BDE8D9
:10520400F08710B50024DFF8D82D3C214FF4C87086
:1052140001F0F8FDC0B210BDF8B504000D00160091
:1052240000273200290089B2200080B201F0EAFD93
:10523400C0B2F2BD70B50024DFF8F86400207061DC
:105244001421300001F0FAFE7061320018210020B0
:1052540001F09FFE0500320018214FF4807001F028
:1052640098FEC0B270BD38B50024DFF8745D00202C
:10527400A8633821280001F0E1FEA8632A003C213C
:105284004FF4C87001F085FEC0B232BDF8B5040019
:105294000D00160000273200290089B2200080B2D8
:1052A40001F077FEC0B2F2BD70B5DFF8344DA51D34
:1052B400DFF8306D280000F012F83080280000F08C
:1052C40037F82080321D322133884FF480704343F5
:1052D40013F58063180080B2FFF79EFF70BD30B4F1
:1052E400010080240020002200250023180080B241
:1052F40032281ADA002002001000C0B2082812DA9C
:10530400180080B2085C204202D0280080B20DE070
:10531400E4B264086D1C2000C0B2002801D18020D2
:105324000400521CE8E75B1CE0E7002030BC704737
:1053340030B40100802400200025002200231D0039
:10534400ADB2322D17DA00252A001500EDB2082D72
:105354000FDA1D00ADB24D5D254200D0401CE4B211
:1053640064082500EDB2002D01D180252C00521CCB
:10537400EBE75B1CE3E780B230BC704730B401005C
:1053840080240020002200250023180080B2322847
:105394001ADA002002001000C0B2082812DA18003D
:1053A40080B2085C204202D1280080B20DE0E4B251
:1053B40064086D1C2000C0B2002801D180200400C4
:1053C400521CE8E75B1CE0E7002030BC704710B5D6
:1053D4008AB0040002A82021FEF7DCFE207A0190A6
:1053E400E0790090A3796279DFF83C1D02A801F00E
:1053F4003DFF00200090002302AA1E2141F210006C
:1054040002F05AF8207A0190E0790090A379627949
:10541400DFF8181D02A801F029FF002000900023E6
:1054240002AA142141F2300002F046F80AB010BD7D
:105434002DE9F84F94B004000D00002600275021F8
:105444000022E8464046FEF771FE002194F81380DE
:10545400D5F81008401CC5F8100885F80B8840469C
:10546400C0B200285CD04046C0B2012849D1D5F86A
:105474001408401CC5F814080020C5F818085FF08B
:10548400080914F1140AEB464A465146584602F0FC
:10549400A3F9D5F8140802280DD1012085F80C08C9
:1054A4005FF00809EA4605F6020B4A46514658469B
:1054B40002F092F947E0D5F81408032843D30220F8
:1054C40085F80C08002007003800C0B208283ADA32
:1054D4003800C0B2284490F8020869463A00D2B2B3
:1054E400895C88420BD00020C5F81408D5F8180848
:1054F4000C30C5F81808042085F80C0823E07F1C3C
:10550400E2E70020C5F81408D5F818080C30C5F8EF
:105514001808042085F80C08082085F80D0812E006
:10552400D5F81808401CC5F81808D5F818080C2830
:1055340009D380488078002802D10020C5F81408D7
:10554400042085F80C083000C0B215B0BDE8F08F17
:105554002DE9F8438AB004000D0002A82021FEF7CB
:1055640019FE5FF000090026DFF8D081D8F814088E
:1055740002F094F90700D8F8100802F08FF901003E
:10558400380002F099F9DFF83C1D02F013FA02F03A
:105594007DFA0700E868C0000BD5DFF82C0DC06861
:1055A40002F07CFB0200524260A102A801F05EFE00
:1055B40009E0DFF8140DC06802F070FB02005BA183
:1055C40002A801F053FE00200090012302AA082142
:1055D40041F2102001F070FF98F80B28DFF8EC1C62
:1055E40002A801F043FE00200090002302AA032138
:1055F40041F2502001F060FFD8F810284CA102A815
:1056040001F034FE00200090012302AA06214FF489
:10561400915001F051FF3A0092B2642092FBF0F1F4
:1056240000FB11220A23BC461FFA8CFC5FF0640EB7
:10563400380080B24FF47A7192FBF3F803FB18221E
:1056440001929CFBFEF20EFB12CC0A229CFBF2F2AE
:10565400009290FBF1F201FB1200642190FBF1F344
:10566400380080B24FF47A7190FBF1F2DFF89C1DA0
:1056740002A801F0FBFD00200090012302AA0621EC
:1056840041F2302001F018FF3000C0B20BB0BDE889
:10569400F08370B504000025DFF82C6CF06802F08C
:1056A400FDFA0100B068401A70BD18B599B0040045
:1056B4002000C0B201280FD111A8DFF8541D202208
:1056C40002F09AF800200090012311AA20214FF43F
:1056D400935001F0F1FE26E02000C0B202280FD161
:1056E40009A8DFF8301D202202F086F8002000907F
:1056F400012309AA20214FF4935001F0DDFE12E0AA
:105704002000C0B204280ED101A8DFF80C1D20220D
:1057140002F072F800200090012301AA20214FF426
:10572400935001F0C9FE1AB010BD00002564670053
:10573400256400008C2700200C250020000B00208D
:10574400D0000020DC2700201FB5040001A8082198
:10575400FEF720FD607E002808D0022879D03ED3D1
:10576400042800F0ED80C0F0AF8025E10020009017
:10577400002301AA08214FF4835001F09DFE00206C
:105784000090002301AA082141F2700001F094FE68
:1057940000200090002301AA08214FF4845001F056
:1057A4008BFE00200090002301AA082141F2900002
:1057B40001F082FE4FF44151022001F054FE43F205
:1057C4005001022001F04FFE43F26001022001F07B
:1057D4004AFE43F27001022001F045FEECE0002095
:1057E4000090002314F1280208214FF4835001F0A3
:1057F40063FE00200090002301AA082141F27000FA
:1058040001F05AFE00200090002301AA08214FF461
:10581400845001F051FE00200090002301AA0821C9
:1058240041F2900001F048FE4FF44151002001F094
:105834001AFE43F25001022001F015FE43F260010A
:10584400022001F010FE43F27001022001F00BFE71
:10585400B2E000200090002314F1280208214FF444
:10586400835001F029FE00200090002314F130023F
:10587400082141F2700001F01FFE00200090002377
:1058840001AA08214FF4845001F016FE0020009074
:10589400002301AA082141F2900001F00DFE4FF40B
:1058A4004151002001F0DFFD43F25001002001F0DE
:1058B400DAFD43F26001022001F0D5FD43F27001EC
:1058C400022001F0D0FD77E000200090002314F1C5
:1058D400280208214FF4835001F0EEFD00200090CF
:1058E400002314F13002082141F2700001F0E4FDBC
:1058F40000200090002314F1380208214FF4845052
:1059040001F0DAFD00200090002301AA082141F2F1
:10591400900001F0D1FD4FF44151002001F0A3FDAE
:1059240043F25001002001F09EFD43F2600100208B
:1059340001F099FD43F27001022001F094FD3BE077
:1059440000200090002314F1280208214FF4835012
:1059540001F0B2FD00200090002314F13002082170
:1059640041F2700001F0A8FD00200090002314F122
:10597400380208214FF4845001F09EFD002000906D
:10598400002314F14002082141F2900001F094FD3B
:105994004FF44151002001F066FD43F25001002014
:1059A40001F061FD43F26001002001F05CFD43F26F
:1059B4007001002001F057FD1FBD2DE9F34F8BB09E
:1059C40004000026002500208DF802000027002096
:1059D4008DF8000000200290B4F80500ADF8040032
:1059E4005FF0040814F109090DF1080A424649461A
:1059F400504601F0F1FEBDF804004FF6FF718842F5
:105A040008D0BDF80400DFF82C1E8989884201D033
:105A1400002028E2DFF8B45BB4F80300A5F82A0AF2
:105A240000202880E0798DF801009DF801001F28EE
:105A340002D1207A8DF801009DF8010085F8270A2B
:105A4400002085F8230A002085F8240AA07800287D
:105A540002D1B4F8096003E0BDF83000B0F10B06E0
:105A64009DF80100042813D0202833D021286DD0BC
:105A7400222800F06A81232800F0AB81252877D002
:105A8400F72810D0F8281AD0FF2800F0C581D6E1F5
:105A9400300080B2002805D12A000021002000F047
:105AA400E9F92880CBE1300080B2002806D12A0031
:105AB4003221DFF8840D00F0DDF92880BFE13000E9
:105AC40080B2002806D12A000C21DFF8700D00F006
:105AD400D1F92880300080B2072837D1A07A002875
:105AE40008D0A07A0A2802D1E07A002802D0E07A0D
:105AF40001281ED1DFF83C7D607AB872A07A387034
:105B0400E07A38715FF0040814F10C0917F1100AF7
:105B140042464946504601F05FFE002085F8230ABC
:105B2400002085F8240AFFF785FB387801F0E0F8B7
:105B340005E0012085F8230A042085F8240ADFF80B
:105B4400F42C2900002000F069FC2880300080B289
:105B540000280CD1002085F8230A002085F8240AA7
:105B6400DFF8D02C2900012000F058FC288066E1E1
:105B7400300080B20D28C0F2E780607B182880F2E4
:105B8400D280607B2044807B242880F2CC80482013
:105B94000A9000200990DFF8A87CB846099A0A996F
:105BA4004046FEF7C3FA607B401C089014F10D00D8
:105BB400079017F10108089A0799404601F00CFE76
:105BC4003900607B20440E3000F002FD787604201A
:105BD4000690607B2044617B2144897B08440F301C
:105BE400059017F12008C146069A0599484601F028
:105BF400F3FD02200490607B2044617B2144897B77
:105C040008441330039017F11C09CA46049A0399F7
:105C1400504601F0E1FD607B2044617B2144897B97
:105C24000844407DB876DFF81CACDFF81CBC1822B1
:105C3400791C584602F05EF8002821D1082217F199
:105C440028011AF1340002F055F8002818D1042272
:105C540041461AF12C0002F04DF8002810D102221E
:105C640049461AF1280002F045F8002808D101221B
:105C740017F11A011AF1260002F03CF8002834D07A
:105C840018200790781C0690079A0699584601F048
:105C9400A3FD04200590CDF810801AF12C08059A74
:105CA4000499404601F098FD5FF00208CDF80C908D
:105CB4001AF1280942460399484601F08DFD5FF028
:105CC40001091A371AF1260B4A463900584601F0E1
:105CD40083FD1AF10C01607B20440E3000F078FC47
:105CE4008AF8250001208AF80C00002085F8230A90
:105CF400002085F8240A0120DFF8501B0870DFF823
:105D0400240E0068DFF8201E0860DFF8200E0178FA
:105D1400032902D001780D290BD10178142908D068
:105D24000021417005E0012085F8230A042085F84C
:105D3400240ADFF89405C06801F0B0FF020002995C
:105D4400280000F0C5FA288079E0300080B21528D8
:105D54003ED1207F8DF80000DFF8D41D14F10A0035
:105D640000F0E8FE002822D09DF8000000281ED193
:105D7400042714F11608DFF8CC9A19F15C0A3A00EA
:105D84004146504601F028FD022089F85500A07EC6
:105D9400C9F80400A07E89F86100E07E89F86000FB
:105DA400002085F8230A002085F8240A0AE001204F
:105DB400DFF8901A81F85500012085F8230A0420A1
:105DC40085F8240A2A000021002000F053F82880D6
:105DD40035E0300080B202281DDBA07D8DF8000084
:105DE400DFF84C1D14F10A0000F0A4FE00280CD0CA
:105DF4009DF80000002808D1002085F8230A00201F
:105E040085F8240A012085F8260A2A0000210020AA
:105E140000F030F8288012E0300080B202280EDB57
:105E2400002085F8230A002085F8240A012085F83B
:105E3400260A2A000021002000F01CF82880288867
:105E440000280FD19DF8020000280BD1012085F80D
:105E5400230A042085F8240A2A000021002000F0E7
:105E640009F8288028880DB0BDE8F08F00000000F4
:105E7400A42700202DE9F84F05000E001700002488
:105E84005FF000087E20210089B239448870641CC8
:105E94005520210089B239448870641C00202100F7
:105EA40089B239448870641CDFF88809818922002A
:105EB40092B23A449170641C808980B2000A210035
:105EC40089B239448870641CB7F82A0A210089B25F
:105ED40039448870641CB7F82A0A80B2000A210089
:105EE40089B239448870641C1F20210089B2394466
:105EF4008870641C97F8270A210089B23944887095
:105F0400641C3000C0B2F1281BDB200080B238448E
:105F14008670641C0020210089B239448870641C96
:105F2400B1465FFA89F9AA46200080B2384410F1DC
:105F3400020B4A465146584601F04EFC54FA86F488
:105F440034E097F8230A00280ED1B1465FFA89F9A4
:105F5400AA46200080B2384410F1020B4A4651464A
:105F6400584601F039FC0EE0B1465FFA89F95FF05A
:105F7400000A200080B2384410F1020B5246494610
:105F84005846FEF7D3F854FA86F497F8230A21000A
:105F940089B239448870641C97F8240A210089B2B4
:105FA40039448870641C2000401E3871210089B275
:105FB400891E381D01F042F80100200080B23844E7
:105FC4008170641C080080B2000A220092B23A4434
:105FD4009070641C3C802000C0B2BDE8F28F0000C9
:105FE4009C260020442700202DE9F84F04000D00D2
:105FF40016005FF0000B00277E20594689B2294421
:1060040088701BF1010B5520594689B229448870C8
:106014001BF1010B0020594689B2294488701BF1F9
:10602400010BDFF8100881895A4692B22A44917014
:106034001BF1010B808980B2000A594689B22944B8
:1060440088701BF1010BB5F82A0A594689B2294414
:1060540088701BF1010BB5F82A0A80B2000A594670
:1060640089B2294488701BF1010B2220594689B258
:10607400294488701BF1010B0020594689B2294438
:1060840088701BF1010B5FF00808A146584680B2E6
:10609400284410F1020A42464946504601F09CFB4E
:1060A4001BF1080B584680B2284486701BF1010B83
:1060B4003000000A594689B2294488701BF1010B4B
:1060C4003000000C594689B2294488701BF1010B39
:1060D4003000000E594689B2294488701BF1010B27
:1060E4005846401E2871594689B2891E281D00F061
:1060F400A5FF8246594689B2891E281D00F09EFFDD
:106104000100584680B2284481701BF1010B5846A7
:106114000A0092B2120A03009BB22B449A70401CEC
:106124002880C0B2BDE8F28FD0E400082CE5000856
:106134002DE9FE4F04000D0016001F00DDF830802D
:106144005FF0000B0020ADF804007E20594689B2B0
:10615400314488701BF1010B5520594689B23144F2
:1061640088701BF1010B0020594689B231448870B4
:106174001BF1010BDFF8BC0681895A4692B2324406
:1061840091701BF1010B808980B2000A594689B2D3
:10619400314488701BF1010BB6F82A0A594689B2BA
:1061A400314488701BF1010BB6F82A0A80B2000A48
:1061B400594689B2314488701BF1010B232059469A
:1061C40089B2314488701BF1010B0020594689B211
:1061D400314488701BF1010B5FF0080900955846A3
:1061E40080B2304410F1020A4A460099504601F048
:1061F400F3FA1BF1080B584680B2304487701BF148
:10620400010B3800000A594689B2314488701BF1E9
:10621400010B3800000C594689B2314488701BF1D7
:10622400010B3800000E594689B2314488701BF1C5
:10623400010B584680B2304480F802801BF1010BF8
:106244004046000A594689B2314488701BF1010B5B
:106254004046000C594689B2314488701BF1010B49
:106264004046000E594689B2314488701BF1010B37
:10627400584680B2304484701BF1010B5846401ECE
:106284003071594689B2891E301D00F0D7FE82460E
:10629400594689B2891E301D00F0D0FE01005846CF
:1062A40080B2304481701BF1010B58460A0092B24F
:1062B400120A03009BB233449A70401C3080C0B26F
:1062C400BDE8FE8F00401C468C240020D0E5000869
:1062D4002DE9F84304000D00160000275FF00008C4
:1062E4007E20390089B2214488707F1C55203900F2
:1062F40089B2214488707F1C0020390089B221446E
:1063040088707F1CDFF82C0581893A0092B2224400
:1063140091707F1C808980B2000A390089B22144BF
:1063240088707F1CB4F82A0A390089B22144887025
:106334007F1CB4F82A0A80B2000A390089B22144C9
:1063440088707F1C94F8270A390089B22144887028
:106354007F1C0020390089B2214488707F1C3800DA
:1063640080B2204485707F1C2800000A390089B25D
:10637400214488707F1C2800000C390089B2214414
:1063840088707F1C2800000E390089B2214488706F
:106394007F1C380080B2204486707F1C3000000AC5
:1063A400390089B2214488707F1C3000000C390008
:1063B40089B2214488707F1C3000000E390089B2F4
:1063C400214488707F1C3800401E2071390089B236
:1063D400891E201D00F032FE8146390089B2891ED3
:1063E400201D00F02BFE0100380080B22044817093
:1063F4007F1C080080B2000A3A0092B222449070D6
:106404007F1C27803800C0B2BDE8F28338E500085D
:106414003CE400085CE400087CE400082DE9F84F43
:1064240080460D001600002400277E20210089B23A
:1064340029448870641C5520210089B2294488703D
:10644400641C0020210089B229448870641CDFF890
:10645400E4038189220092B22A449170641C8089E9
:1064640080B2000A210089B229448870641CB5F8FE
:106474002A0A210089B229448870641CB5F82A0AC2
:1064840080B2000A210089B229448870641C1F204C
:10649400210089B229448870641C95F8270A2100D8
:1064A40089B229448870641C0020210089B22944DF
:1064B4008870641C4046C0B2002848D0B07A2100DD
:1064C40089B229448870641C3078210089B2294437
:1064D4008870641C3079210089B229448870641C56
:1064E4003069210089B229448870641C3069000A2B
:1064F400210089B229448870641C3069000C210091
:1065040089B229448870641C3069000E210089B264
:1065140029448870641C5FF00809DFF8A8A82000EB
:1065240080B2284410F1020B4A465146584601F005
:1065340053F908340020210089B229448870641C6E
:106544000020210089B229448870641C1CE05FF09B
:106554000809DFF870A8200080B2284410F1020B6B
:106564004A465146584601F037F9083495F8230A4B
:10657400210089B229448870641C95F8240A2100FA
:1065840089B229448870641C2000401E28712100AF
:1065940089B2891E281D00F051FD8146210089B26F
:1065A400891E281D00F04AFD0100200080B2284405
:1065B4008170641C20000A0092B2120A03009BB28C
:1065C4002B449A70401CC0B2BDE8F28FD00000206A
:1065D4002DE9F84F88B004000D007C208DF80100EF
:1065E4005FF000095FF0000A5FF000080026042154
:1065F400002201AF3800FDF799FD20788DF80000E6
:1066040000279DF800003900C9B288420FD3380032
:10661400C0B2205C9DF80110884206D118F101082F
:1066240001A83100C9B24754761C7F1CE9E74046F3
:10663400C0B200281ED1607800280BD1A0780028B1
:1066440008D1E078002805D12079002802D105205E
:106654008046BCE09DF800009DF80490B0EB090969
:1066640014F1010A15F1280B4A465146584601F027
:10667400B3F8ACE04046C0B201281FD19DF80490A5
:10668400B9F10109601C039015F1280A4A460399DF
:10669400504601F0A1F89DF800009DF804A0B0EB6D
:1066A4000A0A9DF804002044401C029015F1300BA6
:1066B40052460299584601F08FF888E04046C0B22D
:1066C400022835D19DF80400401E0590601C0490FA
:1066D40015F12809059A0499484601F07DF80DF151
:1066E400040B9BF801009DF80490B0EB0909B9F183
:1066F40001099DF804002044401C039015F1300A60
:106704004A460399504601F067F89DF800009BF84B
:1067140001A0B0EB0A0A9BF801002044401C02903F
:1067240015F1380B52460299584601F055F84EE0DF
:106734004046C0B203284AD19DF80400401E079089
:10674400601C069015F12809079A0699484601F03D
:1067540043F80DF1040999F801009DF804A0B0EB89
:106764000A0ABAF1010A9DF804002044401C05906D
:1067740015F1300B52460599584601F02DF899F859
:10678400020099F801B0B0EB0B0BBBF1010B99F8C7
:1067940001002044401C049015F1380002905A4630
:1067A4000499029801F018F802989DF8001099F8DD
:1067B4000200091A039199F802002044401C029037
:1067C40015F14009039A0299484601F005F818F1B9
:1067D40001084046C0B209B0BDE8F08F10B504000E
:1067E40060782178884223D06078207060781428FB
:1067F40008D1DFF8D40500780A2803D1142000F06A
:106804001FFE15E020780D2809D1DFF8BC050078BB
:106814000A2804D1207880B200F012FE08E0207823
:10682400DFF8A415097851FA80F080B200F008FE70
:1068340010BD00008C27002000500008E8F7FF1F5F
:10684400182600200C25002019250020E727002009
:106854002DE9F04391B004000D00160001A8202199
:10686400FDF798FC09A82021FDF794FC5FF00009CE
:10687400DFF858854046FEF70CFF07003078002803
:1068840008D0012864D0022800F04981142800F0BF
:10689400458144E1DFF8388598F80C00012842D19D
:1068A40018F10C00FEF750FF002000900123A21CF9
:1068B4000C214FF4825000F0FFFD60780D280ADBB4
:1068C40000200090012314F10E020C214FF4B25069
:1068D40000F0F2FD08E000200090012309AA0C2139
:1068E4004FF4B25000F0E8FD01A9206A00F03BF932
:1068F40000200090012301AA05214FF4885000F0E4
:106904005BFEA28BDFF8CC1401A800F0AFFC0020E2
:106914000090012301AA0A2141F2101000F0CCFDDD
:10692400022088F80C00002000900023DFF8A8243F
:1069340008214FF4995000F0BFFD0020009000237F
:10694400DFF898240E2141F2500000F0B5FDE6E096
:10695400DFF87C9499F80C00012842D119F10C005D
:10696400FEF7F2FE002000900123A21C0C214FF43C
:10697400825000F0A1FD60780D280ADB0020009011
:10698400012314F10E020C214FF4B25000F094FDD7
:1069940008E000200090012309AA0C214FF4B25012
:1069A40000F08AFD01A9206A00F0DDF800200090C3
:1069B400012301AA05214FF4885000F0FDFDA28BAC
:1069C400DFF8101401A800F051FC0020009001230E
:1069D40001AA0A2141F2101000F06EFD022089F88C
:1069E4000C00002000900023DFF8F023122141F274
:1069F400504000F061FD002000900023DFF8D82310
:106A040008214FF4995000F057FDD8F80C0001F01C
:106A140045F9D8F80810814215D34046FEF739FEEF
:106A2400B249096988420ED3DFF8B4130878002804
:106A340009D1206A00FB07F0A28BB0FBF2F0606280
:106A44000120087014E0DFF89803007800280BD0C8
:106A54004046FEF71EFE0700206A00FB07F0A18BEC
:106A6400B0FBF1F0606203E00020070000206062E8
:106A7400002F03D500200700002060623A00D0A157
:106A840001A800F0F3FB00200090002301AA0521D7
:106A94004FF4895000F090FD01A9606A00F063F89A
:106AA40000200090012301AA082141F2301000F0D7
:106AB40083FDDFF83882D8F81020CA4901A800F015
:106AC400D5FB00200090012301AA08214FF49A501D
:106AD40000F0F2FC01A9D8F81020206A4243A08BF0
:106AE400B2FBF0F000F03FF800200090012301AA6F
:106AF40007214FF49B5000F0DFFC01A9D9F85C009A
:106B0400626A101800F02FF800200090012301AAF7
:106B140008214FF48A5000F04FFD00E0FFE711B068
:106B2400BDE8F083D0270020BC270020DC2700200C
:106B34000213002030B402000120002300242300AB
:106B4400DBB2082B0CDA2300DBB2D35C2500EDB2F8
:106B54004D5DAB4202D00023180001E0641CEEE757
:106B6400C0B230BC7047F8B584B004000D00B4F571
:106B74007A7F1AD26420B4FBF0F100FB11400A21A1
:106B84006422B0FBF1F301FB13000090B4FBF2F0BC
:106B940002FB10420A20B2FBF0F36420B4FBF0F2D3
:106BA4009149280000F062FB9EE0B4F57A7F29D376
:106BB40042F21070844225D26420B4FBF0F100FB51
:106BC40011400A2164224FF47A73B0FBF1F601FB01
:106BD40016000190B4FBF2F002FB10420A20B2FB53
:106BE400F0F00090B4FBF3F003FB10436420B3FB1C
:106BF400F0F34FF47A70B4FBF0F27C49280000F013
:106C040035FB71E042F21070844231D378498C42F2
:106C14002ED26421B4FBF1F201FB12410A22642357
:106C24004FF47A76B1FBF2F702FB17110291B4FB31
:106C3400F3F103FB11430A21B3FBF1F10191B4FB1E
:106C4400F6F106FB11466421B6FBF1F10091B4FBA9
:106C5400F0F100FB11404FF47A71B0FBF1F342F212
:106C64001070B4FBF0F26349280000F0FFFA3BE037
:106C74005F498C4238D3604A944235D26422B4FBD3
:106C8400F2F302FB13420A2364264FF47A77B2FB31
:106C9400F3FC03FB1C220392B4FBF6F206FB124640
:106CA4000A22B6FBF2F20292B4FBF7F207FB124798
:106CB4006422B7FBF2F20192B4FBF0F200FB124043
:106CC4004FF47A72B0FBF2F00090B4FBF1F001FBE8
:106CD400104142F21070B1FBF0F34548B4FBF0F2FE
:106CE4004649280000F0C2FA05B0F0BD8C27002008
:106CF40038B504002000C0B20A282AD14FF6FF7527
:106D0400290042F2100000F0C3FB29004FF40150A7
:106D140000F0BEFB290042F2500000F0B9FB29004C
:106D240042F2101000F0B4FB290042F2300000F0EF
:106D3400AFFB290042F2702000F0AAFB29004FF4B7
:106D4400195000F0A5FB290042F2303000F0A0FBFE
:106D54002CE0002142F2100000F09AFB00214FF4D5
:106D6400015000F095FB002142F2500000F090FB2E
:106D7400002142F2101000F08BFB002142F230009F
:106D840000F086FB002142F2702000F081FB00211C
:106D940042F2200000F07CFB00214FF4195000F077
:106DA40077FB002142F2203000F072FB1448007897
:106DB40005490978081880B200F042FB31BD000093
:106DC40025640000200000208C2700208C24002053
:106DD4000C250020D8E500086C27002000000020C6
:106DE400E6270020E0E50008E8E5000844E500089F
:106DF400A086010050E5000840420F00ECE40008C2
:106E0400DC2700202DE9F04104000D0016005FF09E
:106E140001080027280080B2002860D000F0CCFFD1
:106E2400002801D1002080464046C0B2002808D086
:106E3400A02001F056F801F033F8002801D1002019
:106E440080464046C0B2002808D0200080B2000A24
:106E5400C0B201F046F801F023F880464046C0B2C3
:106E6400002806D02000C0B201F03BF801F018F869
:106E740080464046C0B2002805D000F09DFF00289F
:106E840001D1002080464046C0B2002808D0A1208D
:106E940001F027F801F004F8002801D10020804611
:106EA4006D1E4046C0B2002817D0002007003800ED
:106EB400290080B289B2884208D201F037F839003B
:106EC40089B2705400F0BCFF7F1CF0E701F02EF88B
:106ED400390089B2705400F0CBFF00F099FF4046AE
:106EE400C0B2BDE8F0812DE9F04104000D001600A8
:106EF40000275FF00108280080B2002842D000F08B
:106F04005BFF002801D1002080464046C0B2002823
:106F140008D0A02000F0E5FF00F0C2FF002801D156
:106F2400002080464046C0B2002808D0200080B22D
:106F3400000AC0B200F0D5FF00F0B2FF8046404620
:106F4400C0B2002806D02000C0B200F0CAFF00F092
:106F5400A7FF8046002007003800290080B289B2CC
:106F640088420DD24046C0B2002807D0380080B213
:106F7400305C00F0B6FF00F093FF80467F1CEBE727
:106F840000F046FF052000F00EFF4046C0B2BDE809
:106F9400F0812DE9F04704000D00160000275FF092
:106FA40000085FF0000A200010F03F0F1BD014F01F
:106FB4003F00D0F1200007002800390080B289B2D8
:106FC400884200D22F00404680B206EB000239000E
:106FD40089B218EB040080B2FFF785FF8146ED1BF0
:106FE40017EB080801E05FF001094846C0B2002829
:106FF4001FD0280080B200281BD0202007002800C2
:10700400390080B289B2884200D22F00404680B253
:1070140006EB0002390089B218EB040080B2FFF7D6
:1070240062FF8146ED1B17EB08084846C0B20028F2
:10703400DFD14846C0B2BDE8F087000070B4030059
:107044000022002400264FF6FF7000258D4214D242
:107054005A5D504000221600082E0CD2C20706D5F5
:1070640080B2020048F2084090EA520001E080B287
:107074004008761CF0E76D1CE8E780B2C04380B29C
:1070840070BC70472DE9FE4300250026082100222C
:107094006C462000FDF74AF80027644C22000821C2
:1070A40047F6F870FFF7AEFE05002800C0B20028CE
:1070B40014D05FF000085FF0000906212000FFF7FC
:1070C400BDFFE18802000B0092B29BB29A4202D04B
:1070D4000022150001E00122150007E0322000F033
:1070E40062FE7F1C3800C0B20328D6DB5FF00008C4
:1070F4006A4608214FF4FC40FFF784FE0600300086
:10710400C0B2002814D000275FF0000906216846A9
:10711400FFF794FFBDF8061002000B0092B29BB279
:107124009A4202D00022160001E00122160008E073
:10713400322000F038FE18F101084046C0B203289E
:10714400D6DB55EA0600C0B2002809D14AF6AA20C7
:1071540020800220608000F019F800F044F813E069
:107164003000C0B2002802D100F03DF80CE0280045
:10717400C0B2002808D10827E9463A004946200051
:1071840000F02AFB00F002F8BDE8F78370B5002494
:107194000025264E0020F08006213000FFF74EFF28
:1071A400F0803200082147F6F870FFF7F2FE040081
:1071B4002000C0B2002806D0320008214FF4FC4061
:1071C400FFF7E7FE04002000C0B2002808D13220F7
:1071D40000F0E9FD6D1C2800C0B20328E1DBFFE7E5
:1071E4002000C0B270BD70B5002400250F4E0020F1
:1071F400F08006213000FFF721FFF08032000821E3
:107204004FF4FC40FFF7C5FE04002000C0B2002884
:1072140008D1322000F0C7FD6D1C2800C0B203283D
:10722400ECDBFFE72000C0B270BD0000A427002003
:1072340030B4002513E050F8042BD30744BFA9F160
:1072440001039A18091F042942F8045BFAD2134671
:107254008C0744BF15809B1CC90748BF1D7050F89C
:10726400041B0029E7D130BC704700000CB430B5D2
:1072740083B00A4606A902910446002501940095AC
:1072840002AB01A9084878441E3000F07BFE019A45
:10729400157000284EBF04460198041B204603B015
:1072A40030BC5DF80CFB00BF0F0800002DE9FE4F59
:1072B4005020029000200190DFF80045019A0299C5
:1072C4002000FCF733FF502000900024DFF8F05436
:1072D4002E00220000993000FCF728FF4FF484763A
:1072E4000027DFF8E084C1463A0031004846FCF745
:1072F4001DFF5FF002095FF0000ADFF8CCB45246CC
:1073040049465846FCF712FF5FF4E13001F09EFE57
:10731400012001F0F1FE4FF4907118F1010001F029
:1073240025FF4FF4907115F1080001F062FF5FF43E
:107334000030DFF8981408604FF49070DFF8901470
:107344000860DFF89004016851F001010160BDE8B4
:10735400F78FF0B40400002000255A260700FFB27E
:10736400DE55401CA5260700FFB2DE55401CFF2653
:107374000700FFB2DE55401C82260700FFB2DE552F
:10738400401C2600B6B2360A0700FFB2DE55401C88
:107394000600F6B29C55401C00263500EDB21700DD
:1073A400ADB2BFB2BD4208D23500EDB24D5D0700AB
:1073B400FFB2DD55401C761CEFE7C51E9D70C0B2C0
:1073C400F0BC7047F0B40400002000255A260700E2
:1073D400FFB2DE55401CA5260700FFB2DE55401C57
:1073E400FF260700FFB2DE55401C82260700FFB2CD
:1073F400DE55401C2600B6B2360A0700FFB2DE5541
:10740400401C0600F6B29C55401C00263500EDB227
:107414001700ADB2BFB2BD420DD200250700FFB2C6
:10742400DD55401C3500EDB24D5D0700FFB2DD5562
:10743400401C761CEAE7C51E9D70C0B2F0BC7047C4
:1074440070B50400DFF87C536E1C3100200080B25C
:1074540000F032F985F8010195F8011189B2300084
:1074640001F06AFE70BDF8B504000D00D54E771C1E
:107474003A00290089B2200080B200F058F986F859
:10748400010196F8011189B2380001F055FEF1BDF1
:1074940073B50400CB4D6E1C3300022201A9E01C1D
:1074A40080B2FFF756FF85F8010195F8011189B202
:1074B400300001F041FE73BD2DE9F14F8AB00D009B
:1074C40016001F00149C202100220DF104084046E0
:1074D400FCF72CFE5FF0000A5FF00008300001F0BA
:1074E40013FF814628004946C0B2C9B288420CD273
:1074F400A946CA465FFA8AFA00960DF1040B524671
:107504000099584600F068F93EE0202000905FF0B2
:10751400200A0DF1040B524600995846FCF706FE6A
:107524003800C0B2002813D15FEAC97008D5290019
:10753400C9B24846C0B2091A491C4910884615E028
:107544002900C9B24846C0B2091A491088460DE05C
:107554003800C0B2012801D1A04607E03800C0B20B
:10756400022803D1281BB0EB09008046CA465FFA03
:107574008AFA009601A84146C9B200EB010B5246B3
:107584000099584600F028F9DFF838A21AF1010BE7
:107594005B462A00D2B292B201A9BDF82800FFF7D7
:1075A400D8FE8AF801019AF8011189B2584601F00F
:1075B400C3FD0BB0BDE8F08F2DE9F14F8AB00D008B
:1075C40016001F00149C202100220DF104084046DF
:1075D400FCF7ACFD5FF0000A5FF00008300001F03A
:1075E40093FE814628004946C0B2C9B288420CD2F3
:1075F400A946CA465FFA8AFA00960DF1040B524670
:107604000099584600F0E8F83EE0202000905FF032
:10761400200A0DF1040B524600995846FCF786FDEA
:107624003800C0B2002813D15FEAC97008D5290018
:10763400C9B24846C0B2091A491C4910884615E027
:107644002900C9B24846C0B2091A491088460DE05B
:107654003800C0B2012801D1A04607E03800C0B20A
:10766400022803D1281BB0EB09008046CA465FFA02
:107674008AFA009601A84146C9B200EB010B5246B2
:107684000099584600F0A8F8DFF838A11AF1010B68
:107694005B462A00D2B292B201A9BDF82800FFF7D6
:1076A40091FE8AF801019AF8011189B2584601F055
:1076B40043FD0BB0BDE8F08F10B4020000205A2344
:1076C4000400E4B20B55401CA5230400E4B20B559E
:1076D400401CFF230400E4B20B55401C8223040029
:1076E400E4B20B55401C00230400E4B20B55401CCB
:1076F40084230400E4B20B55401C5A230400E4B272
:107704000B55401C01230400E4B20B55401C13002C
:107714009BB21B0A0400E4B20B55401C0300DBB20D
:10772400CA54401CC31E8B70C0B210BC704730B426
:10773400030000205A240500EDB25455401CA52432
:107744000500EDB25455401CFF240500EDB254551C
:10775400401C82240500EDB25455401C0C00A4B218
:10776400240A0500EDB25455401C0400E4B211553E
:10777400401C1C00A4B2240A0500EDB25455401C60
:107784000400E4B21355401CC41E9470C0B230BC53
:107794007047F8B504000D000A4E771C3A00290022
:1077A40089B2200080B2FFF7C2FF86F8010196F883
:1077B400011189B2380001F0BFFCF1BDC8250020D9
:1077C4007825002084230020DC27002004000240C8
:1077D4005C0002405800024062B38B0708D0521E7E
:1077E40011F8013B00F8013B00F024808B07F6D12F
:1077F400830740F0208000BF103A07D330B4B1E8CB
:107804003810103AA0E83810F9D230BC530724BF1E
:10781400B1E80810A0E8081044BF51F8043B40F850
:10782400043BD20724BF31F8022B20F8022B44BFBB
:107834000B7803707047121F17D35B0009D151F8FE
:10784400043B20F8023B1B0C121F20F8023BF6D22B
:107854000BE051F8043B00F8013B1B0A20F8023B03
:107864001B0C121F00F8013BF3D238BF121D521E2D
:1078740024BF11F8013B00F8013BF8D87047B1F57B
:10788400807F02D34FF0FF307047017001207047B2
:107894000078401E8041C043C00F704700280AD0C2
:1078A400B0FA80F18840D1F19D01C905020672F158
:1078B400004241EB1020704710B5FF2313EAD05467
:1078C4001DBF13EAD1529C429A4239E0A41ADA0746
:1078D40080EA0103134042EA012142EA0020421AED
:1078E4003CBF641E01EB4202090AB2FBF1FE01FB3C
:1078F4001E221202B2FBF1F001FB10226EF30F20E4
:107904001202B2FBF1FE4EEA00207F3406DDFE2CAB
:1079140024DA53EA500050EBC45010BDD4F10204F1
:1079240001FB1E2240F08071192C1DDC21FA04F0A9
:10793400C4F12004A140114371F10042584110BD2B
:107944009C421ABF03EAD1529A420FE080EA010E28
:107954000EF00043400004D0490016D143F0FF402C
:1079640010BD490008BFD343180010BD9C4205D187
:10797400D21AF7D001F00041484010BD4A0212BFAC
:107984000846484000F0004010BD4AB90902B1FA67
:1079940081F2914044B1A418C00140F000409EE738
:1079A400C90141F0004152420002B0FA80F4A04003
:1079B400141B94E7FF2212EAD05C1DBF12EAD153D4
:1079C400944593422BE09C44D30780EA01021A4079
:1079D40043EA002043EA0121A1FB0030C04238BF42
:1079E40040007CF17F010BDBFE294ADA5B0842EAA6
:1079F400C15153EA006373F1004C51EB10207047FE
:107A0400D1F1080CDCF120012FDB5B0810FA01F145
:107A14000B4320FA0CF073F1004150417047944538
:107A24001CBF02EAD153934280EA010202F00042F1
:107A34001DD0400019D0490017D05BB9634514D05C
:107A44000902B1FA81F39940BCEB030CC00140F088
:107A54000040C1E70002B0FA80FC10FA0CF0B3EB6E
:107A64000C0CC90141F00041B6E71000704740001A
:107A74000AD0490008D010F1807F94BF11F1807FB3
:107A840002E042F0FF407047D0437047C0F3C75153
:107A94007E390EDDC217D1F1200106DD000240F06F
:107AA4000040C840104450407047D04380F000402C
:107AB4007047002070470268531C036011707047C0
:107AC40080B54FF4165001F03BFC01F07FFC01211E
:107AD400012001F092FC00208349087001BD4A781E
:107AE400002A06D0012A0DD0032A17D0042A25D053
:107AF40038E00200D2B27E2A03D181F822000122AA
:107B04004A702FE00200D2B2FF2A04D181F8230088
:107B140003224A7001E000224A7023E00200D2B23C
:107B2400052A08DB04224A7081F8210081F8240028
:107B34000322CA7001E000224A7013E0CA78531C81
:107B4400CB70D2B20A4482F8220091F82120D21CD0
:107B5400CB789A4204DA00224A7001220A7001E0CA
:107B640000220A7070472DE9F04104000D00160050
:107B74001F005FF000087E204146C9B2785418F116
:107B84000108FF204146C9B2785418F101080620C3
:107B94004146C9B2785418F101084046C0B23C5479
:107BA40018F101084046C0B23D5418F101083000F4
:107BB40080B2000A4146C9B2785418F1010840461F
:107BC400C0B23E5418F101080621781C00F006F8F2
:107BD40018F103084046C0B2BDE8F08130B4002378
:107BE400002214000D00E4B2EDB2AC4205D2140040
:107BF400E4B2045D1B19521CF3E79BB25B421C0008
:107C0400A4B2240A1500EDB244551400E4B20444AD
:107C14006370EF241500EDB20544AC7030BC7047BE
:107C240070B40100002000250022002401238D7877
:107C34001E00F6B2B54205D31D00EDB24D5D5219DA
:107C44005B1CF4E71D00EDB24E5D1D00EDB20D446A
:107C54006D7855EA0625AA181600B6B2002E01D191
:107C640001242000C0B270BC70472DE9F04104002B
:107C74000D0016001C4F17F10A084346320092B259
:107C84002900C9B22000C0B2FFF76DFF7872797A7B
:107C940089B2404601F0C9FBBDE8F0812DE9F0410D
:107CA40006000027C6F303583003000B01F0DCFB89
:107CB40004000D00404601F0D7FB02000B00002039
:107CC4000A4901F0DFFB02000B002000290001F04B
:107CD40085FF0022064B02F0A5F802F075F9F100C9
:107CE40000D54042BDE8F081D826002000002440A1
:107CF40000408F400300002013F0030F09D0521EF0
:107D040022BF13F8010B11F801CBB0EB0C00F3D038
:107D1400704711F0030F14D1121F22BF53F8040B44
:107D240051F804CB6045F7D0121D0AD200BA9CFA70
:107D34008CFCB0EB0C0038BF6FF0000088BF012052
:107D44007047521E22BF13F8010B11F801CBB0EBA0
:107D54000C00F6D0521C08BF104670471CB5042115
:107D640000226C462000FCF7E1F903208DF80200A4
:107D740014208DF8030081488188ADF8001069460D
:107D8400006802F035F97E488188ADF80010694634
:107D9400006802F02DF913BD002064210800411E83
:107DA4000028FBD170474FF420514843401C010088
:107DB400481E0029FBD1704710B5704CA08821687B
:107DC40008616F48818800680161FFF7E5FF20685A
:107DD4008068002801D1012000E00020217911F001
:107DE4000101084201D0002011E0A0882168486107
:107DF400FFF7D2FF20688068A188084201D00020E4
:107E040005E0A08821684861FFF7C6FF012010BD86
:107E140038B55B4CA08821684861FFF7BDFF574D1A
:107E2400A88829684861FFF7B7FFA088216808611E
:107E3400FFF7B2FFA88829680861FFF7ADFF31BDDD
:107E440010B54F4CA08821684861FFF7A5FF4B4847
:107E5400818800684161FFF79FFFA088216808615D
:107E6400FFF79AFFA08821684861FFF795FF10BDCE
:107E740010B5434CA08821684861FFF78DFF3F4847
:107E8400818800680161FFF787FFA0882168086185
:107E9400FFF782FFA08821684861FFF77DFF10BDCE
:107EA40038B5374CA08821684861FFF775FF334D1A
:107EB400A88829680861FFF76FFFA0882168086116
:107EC400FFF76AFF28688068A988084204D0A08860
:107ED40021684861002003E0A088216848610120EE
:107EE40032BD70B5040008252800451EC0B2002824
:107EF40017D0234EB08831684861200604D51F4846
:107F040081880068016103E01C4881880068416140
:107F1400FFF742FFB08831680861FFF73DFF640056
:107F2400E2E7174881880068416170BDF8B508240C
:107F34000025124EB088316808612000441EC0B28A
:107F4400002813D06D000E4FB88839684861FFF7D8
:107F540023FFB88839680861FFF71EFF306880681E
:107F6400B1880842E9D055F00105E6E70448818864
:107F7400006841612800C0B2F2BD0000A0E500081D
:107F8400A8E500082DE9F14FB2B0994692460023C6
:107F94000691CDE900333C9A0F930DF14A011491F7
:107FA4004A7011E0329E57462C4617F8011B06987A
:107FB400B0470028069000F026810F98401C641EEC
:107FC4000F90F2D13296AA449AF80000252808D1DD
:107FD4000021002209910A920B910C920D910E92AC
:107FE4000FE06A464FF0FF31504602F0F5F8050005
:107FF40002D10F9800F066BED4D50125E3E741F025
:1080040001011AF8010F2028F9D023280CD02B28BD
:1080140004D02D2805D0302809D00BE041F002010E
:10802400EFE741F00401ECE741F00801E9E741F032
:108034001001E6E72A280FD1D9F8002052F8040BE2
:10804400C9F800200028119003D54042119041F056
:1080540004010AF1010A14E01192DFF8EC3B0AE092
:108064001198984205DA00EB800402EB4402303A9E
:1080740011920AF1010A9AF80020A2F130000A28AC
:10808400EED39AF800002E2803D04FF0FF3210925E
:1080940029E01AF8010F2A2809D1D9F8000050F86C
:1080A400042BC9F8000010920AF1010A1BE02D28E4
:1080B4000CBF0AF1010A002000221092DFF8882B7D
:1080C4000BE040B9109B934205DA03EB830504EB04
:1080D4004504303C10940AF1010A9AF80040A4F1D6
:1080E40030030A2BEDD3ADF848100FF660309AF840
:1080F400001002F07BF808B11AF8010B8DF84A0061
:108104009DF84A00682805D19AF8000068280CD127
:10811400622106E06C2804BF9AF800006C2804D1A0
:1081240071218DF84A100AF1010A1FA808901AF863
:1081340001BBBBF125012DD01C3900F06181091F61
:10814400022940F25D810E392AD0491F00F0B38420
:10815400093900F05581891E00F04985491E00F057
:10816400F584491E022940F24B81091F00F0EE8478
:10817400491F00F0BA80491E00F09D84491E65D055
:10818400C91E21D0891E00F09684C91E00F0938474
:1081940000F04CBD25238DF87C30012109912AE0A3
:1081A4006C208DF84A00D9F8000050F8042BC9F867
:1081B4000000002A43D11499487800283DD04FF09C
:1081C400FF340FF6902012E09DF84A006C28EAD0A4
:1081D400D9F8000050F8044BC9F800000794D4B94A
:1081E4001499487898B14FF0FF340FF6842002F0C8
:1081F40009F8201A07D132981FAA04A900F065FDD6
:1082040000287FF5E1AE4FF0FF3000F05BBD0FF6C4
:108214007C200790EFE7109D002D04D5204601F047
:1082240073F8044607E02A46204602F00BF80028BB
:1082340014BF041B2C460A94DDE70FF6542232982F
:1082440004A900F0C8FD0028D5D5DCE7D9F8001052
:1082540051F8040BC9F8001020F00004002121F0AB
:10826400FF351FABCDE904450793DDE904230899E5
:108274003C2413B90AB9109898B102F00F053035AF
:10828400641EEEB23A2EA8BF2735120942EA0372E1
:108294001B090D5508BF002A03D007980D19A842E1
:1082A400EBD308190790C4F13C0210980A92824259
:1082B40009DABDF84810821A4FF6EF7001400C92AB
:1082C400ADF8481097E7002895D59DF8480000F0D0
:1082D400140010288FD1119B09990C985B1A1B1A52
:1082E4009A1A002A87DD0C9285E71499487820B100
:1082F4004FF0FF340FF69C1079E79DF84A0062288E
:1083040062D0682819D06A2840D06C2806D0712819
:108314004DD074282DD07A281ED064E0D9F80010EE
:1083240051F8040BC9F8001020B94FF0FF340FF6D0
:108334007C105CE70F9901605DE7D9F8001051F8F3
:10834400040BC9F8001020B94FF0FF340FF65C108D
:108354004DE70F9901804EE7D9F8001051F8040B4E
:10836400C9F800100028E5D14FF0FF340FF63C1097
:108374003DE7D9F8001051F8040BC9F800100028A3
:10838400D8D14FF0FF340FF6241030E7D9F800109D
:1083940051F8040BC9F8001020B94FF0FF340FF660
:1083A4000C1024E70F9AD317C0E9002323E7D9F868
:1083B400001051F8040BC9F800100028F2D14FF056
:1083C400FF340FF6E80012E7D9F8001051F8040B57
:1083D400C9F8001020B94FF0FF340FF6D00006E7BB
:1083E4000F99017007E7D9F8001051F8040BC9F888
:1083F400001000289ED14FF0FF340FF6B000F6E6CF
:10840400D9F80020D21D22F00702C9F80020D2E9D1
:1084140000010832C9F80020CDE90401C80F02D0D8
:1084240009982D210AE0BDF84800810702D5099872
:108434002B2103E0C00705D5099820211FAA115458
:10844400401C0990DDE9042309991FA8CDE92E23D6
:1084540008444BF020016129079015AC0BD010990A
:10846400002902D50621109105E001BF4BF020013F
:10847400672901221092DDE9042359004915491C9A
:1084840010D11A030ED0ABF1610503211A2D0A9104
:1084940002D20FF6A43101E00FF6A0310322FFF758
:1084A4009BF9A8E659004915491C0AD11A0308D1B9
:1084B400ABF1610503211A2D0A9116D30FF684310D
:1084C400ECE7DDE90401CDE93001DDE9302323F0F7
:1084D4000047B7F5801F22F000060DD20022002FBE
:1084E40008BF002E029203D116E00FF65431D5E7EF
:1084F40002AA01F0D3FE0FE0DFF8EC0ADFF8EC1A71
:1085040000EB17500290DDE930234FF0FF301940A3
:10851400DFF8DC7A10403943CDE904014BF0200048
:1085240061280DD1079830210170821CBBF1610FC5
:1085340007920CBF7821582141700998801C09903A
:10854400DDE9040120F0000231F0004308BF002AF5
:1085540002D10026002571E14BF02008B8F1610F2B
:1085640040F0BE801098002847BF21210391401C91
:108574000390039FDDE92E017F1C00220023DDE927
:10858400044501F0C3FE02998DF8542038BF85F0EC
:108594000045091F002F02910DF155065DDDDFF83E
:1085A400541ACDE9302140F2FF732E932046294618
:1085B4000022002301F0C2FE4FD24800400D00F11A
:1085C4001C0215D0002A13DD2E9B9A420ADBDDE93A
:1085D400300121F0004205F000400243DDE93001A2
:1085E400114611E06FF31E5141EA025120460BE09F
:1085F40024F0000035F0004108BF00280FBF2946D1
:108604001C22294601F0B2FE04460D4601F04CFF3F
:10861400FF1F002F804609DD01F064FF02460B4670
:108624002046294601F070FF04460D46F01D07213F
:10863400B8F1000F0CDD491E5EBF08F00F0200F810
:10864400012D4FEA2818F3D502E0002200F8012D8D
:10865400491EFAD5C61D002FA8DC0DF15500361AA7
:1086640003988642D8BF304600280DF1550430D413
:10867400B04206DA0DF155010A5C082AA8BF0F21A1
:1086840000DA0021024615AB134400E0401E13F843
:108694000159521E8D42F9D00F2904D10DF1550113
:1086A4008B5C5B1C8B54002A04D50299091D15AC04
:1086B400401C0291411E0CD46218ABF13A061378A7
:1086C4003033DDB23A2DA8BFF318491E02F8013940
:1086D400F5D51099002940F1AF80421E1092ABE00D
:1086E4000299DFF8142947F29750414391FBF2F2C3
:1086F400DDE92E45029225F00045D2F1070204DDA2
:108704002046294600F04CFC0BE052420020DFF8E2
:10871400EC1800F045FC02460B462046294601F0C1
:108724005DFA0446B8F1660F109806BF029F0A3737
:1087340006273F18142FC8BF142730208DF8540083
:108744000D460020DFF8B818CDE92E010DF15506CD
:10875400002F33DD2046294601F036FC01460A4647
:1087640006F1080304200A26B2FBF6F606EB860E91
:10877400A2EB4E02303203F8012C0A22B6FBF2F2CD
:1087840002EB820EA6EB4E063036401E03F8026D55
:10879400E9D1083F002F03F10806D9DD084600F0AF
:1087A40063FE02460B462046294601F0ADFEDDE994
:1087B4002E2301F037FB04460D46CBE70DF155009F
:1087C400361A0DF1550404E00298401E761E0290FC
:1087D400641C20783028F7D0B8F1660F02D10299D2
:1087E400491C04E0B8F1650F0CBF01210021109869
:1087F40008188642B8BF701E00281DD4B04204DA9F
:10880400215C3429C8BF392100DC30210246631EB3
:108814009D1800E0401E15F80169521E8E42F9D0E1
:10882400392902D1A15C491CA154002A04D502991A
:10883400491C1C46401C02910646029D01F0D0FCD6
:10884400406A0778DDF8408030B2002802DC012657
:108854000FF2F4744BF02000662808BF6D1C16D08C
:10886400672846D128B210F1040F48DB404546DAA8
:108874009DF848006D1C010703D430B24045B8BFD1
:10888400804628B2B8EB000848BF4FF000080FFA42
:1088940085FB07980A99BBF1000F00F3B2804A1CCC
:1088A4000A9230234354B8F1000F03DC9DF84800CA
:1088B400010704D50A98411C0A9107990F5418EB33
:1088C4000B0FB8BFC8F100052DB268420D90A84443
:1088D40032B29045B8BF4646079B0A9836B20B960B
:1088E400324621461844FEF777FFA8EB06000E90A7
:1088F400CBE0BBF1610F17D14FF0700B19E030B230
:10890400404504DA9DF848100A0758BF8046B8F17C
:10891400010848BF4FF00008BBF1670F14BF4FF0C8
:10892400450B4FF0650B04E0BBF1410F08BF4FF05E
:10893400500B0A98411C0A91B8F1000F079914F8DA
:10894400012B0A5403DC9DF8480001071AD50A9844
:10895400411C0A91B8F1000F07990F5412DD761EDD
:1089640030B2804507980A9BB8BF464632B22146CA
:108974001844FEF731FF0A9936B271180A91A8EB30
:1089840006000D9007980A9908442AB2002A80F834
:1089940000B003D42B224270811C04E02D214170CD
:1089A4001546811C6D4200202EAA0A2409E02B469C
:1089B40093FBF4F505EB8506A3EB460302F8013BB4
:1089C400401C2DB2002DF2DC012806DC4BF0200205
:1089D400652A04BF302201F8012B00282EAA08D1F1
:1089E400302001F8010B06E0401E135C303301F81F
:1089F400013B0028F8DC079A0A981044091A0B91E5
:108A040043E0084431B22AB2914219DA32B2214623
:108A1400FEF7E2FE0A9936B27118ABEB0606B8F11E
:108A2400000F0A910D9603DC9DF84800020704D557
:108A3400079847540B99491C0B91CDF8388024E0D2
:108A44002146FEF7C9FE0A98761B5844B8F1000F78
:108A54000A9003DC9DF848100A0703D5411C0A91CB
:108A640007990F5430B2804507980A9BB8BF464611
:108A740032B204EB0B011844FEF7AEFE0A9836B28C
:108A840030180A90A8EB06000D909DF8480000F0FD
:108A9400140010287FF4AFAB099A0A990D988A182C
:108AA4000B9982180E988A18821811988242BFF680
:108AB400A2AB821A17E49DF84A00622808D06828FD
:108AC4000ED06A2814D06C281FD0712810D01CE056
:108AD400D9F8001051F8040BC9F80010C0B21AE01C
:108AE400D9F8001051F8040BC9F8001080B212E054
:108AF400D9F80020D21D22F00702C9F80020D2E9DB
:108B040000010832C9F8002006E0D9F8001051F835
:108B1400040BC9F800100021CDE904019DF84800B8
:108B240001075AD5DDE90423002B08BF002A54D0DD
:108B34004BF02000782850D109981FA930220A54FC
:108B4400401C431C099301F800B046E09DF84A001C
:108B5400622808D068280ED06A2814D06C281FD048
:108B6400712810D01CE0D9F8001051F8040BC9F892
:108B7400001040B21AE0D9F8001051F8040BC9F8FB
:108B8400001000B212E0D9F80020D21D22F0070232
:108B9400C9F80020D2E900010832C9F8002006E033
:108BA400D9F8001051F8040BC9F80010C117CDE929
:108BB4000401002902D509982D210AE0BDF84800D6
:108BC400810702D509982B2103E0C00705D5099830
:108BD40020211FAA1154401C09901FA8099901447F
:108BE400079104A8594600F056F9FFF704BB9DF815
:108BF4004A006C280BD001210991D9F8000050F8E3
:108C0400041BC9F800008DF87C10FFF7F4BAD9F8FA
:108C1400000050F8041BC9F8000015914FF0FF3212
:108C240010920021169115AAFFF709BB25210122F4
:108C3400BBF1000F8DF87C1009923FF4DCAA8DF88B
:108C44007DB00221FFF7AABACBCCCC0C686A6C7455
:108C54007A4C00007072696E74665F733A206261C8
:108C64006420256C7320617267756D656E740000F5
:108C74007072696E74665F733A2062616420257352
:108C840020617267756D656E74000000000000005D
:108C9400000000007072696E74665F733A20256E7E
:108CA40020646973616C6C6F776564007072696EBF
:108CB40074663A2062616420256E20617267756D66
:108CC400656E740033B0BDE8F08F2DE9FC410F46AA
:108CD400064690467A6B7869396ABC6A121AB86992
:108CE400521A796A121AF869521A121A97F8380045
:108CF400141B41070FD42020002C8DF800000ADD3E
:108D0400254601236A463946304600F07DF900289D
:108D14005DD16D1EF5D17B6942463946304600F07F
:108D240073F9002853D130208DF800003D6A002DDE
:108D340009DD01236A463946304600F065F900280A
:108D440045D16D1EF5D1BB69FA683946304600F04D
:108D54005BF900283BD130208DF800007D6A002D9E
:108D640008DD01236A463946304600F04DF970BBF0
:108D74006D1EF6D1F868B969FB6942183946304668
:108D840000F042F918BB30208DF80000BD6A002DB8
:108D940008DD01236A463946304600F035F9B0B99A
:108DA4006D1EF6D197F8380041070DD52020002C10
:108DB4008DF8000008DD01236A463946304600F08C
:108DC40023F920B9641EF6D10020BDE8F6814FF0E6
:108DD400FF30BDE8F6812DE9F8470D46A3B02F6BAF
:108DE400002F8246904648BF6FF0004701F0FDFB1C
:108DF400696B401801AA0021C2E90011812828BF2B
:108E04004FF0FF3044D289461EE0A74230DB686948
:108E1400201881280BD30021696303AA29465046F0
:108E2400FFF753FF5FEA000922D40020686103AB17
:108E34006E69224669469819FEF7CEFCA6196E6142
:108E440058F8040BA0B13F1B002F11DDD8F8001017
:108E540001AA684601F0C2F90446002C05D4D8F8EA
:108E640000000028D1D1641ECFD54FF0FF390EE0A9
:108E7400B9F1000F504604D103AA2946FFF725FF94
:108E84008146B9F1000F02D1002068616863484649
:108E940024B0BDE8F0872DE9FC4307466F293E69FD
:108EA40008BF082405D041F02000782814BF0A2404
:108EB40010243C25D7E90023642918BF692990466A
:108EC400994605D1002B03D5D8F1000869EB49096F
:108ED400B9F1000F08BFB8F1000F0CD1386B50B9CD
:108EE400082C39D197F83800010735D530203B25B7
:108EF40086F83B0030E08DF8001040464946224693
:108F0400E31701F077FB3032D0B26D1E3A28019599
:108F140004DB9DF80000A0F151018A187255404607
:108F240049462246E31701F065FB80465FEA0109E2
:108F340008BFB8F1000F03D0F86871198842DCD378
:108F4400082C09D197F83800010705D5705D302841
:108F540002D06D1E30207055C5F13C02BA61711902
:108F6400F960386B824208DA821A3A624FF6EF707F
:108F7400398F01403987BDE8F38300280ED597F86F
:108F8400380000F01400102808D17B6B7969386A26
:108F94005B1A1B1A9A1A002AC8BF3A62BDE8F38307
:108FA4002DE9D04306460F4614464FF00008DFF87B
:108FB400549012E0E00707D542464B463046394606
:108FC40000F030FF06460F464046494642464B46AF
:108FD40000F028FF641080468946002CEAD1304610
:108FE4003946BDE8D083000002FCFFFFFFFF0F807D
:108FF4000000E03F0000F07FA08601000000F03F89
:1090040084D7974100002440F8B505460E4617461C
:109014001C4600205CB117F8011BB068A847B0607B
:1090240030B1F06A401CF0620020641EF3D1F2BD3E
:109034004FF0FF30F2BD00006E616E004E414E00F5
:10904400696E6600494E460030002E0030B585B08A
:109054000400042100226D462800FBF767F8102164
:10906400002201AD2800FBF761F8A04D280001F0B3
:10907400D9FB9F488188ADF8001003218DF80210B8
:1090840018218DF803106946006800F0B1FF994873
:109094008188ADF8001048218DF8031069460068F6
:1090A40000F0A6FF01940020ADF808000020ADF800
:1090B4000A000020ADF80C000020ADF810000C20D0
:1090C400ADF80E0001A9280001F0F4FB01212800ED
:1090D40001F066FC012240F22441280001F06FFCFB
:1090E40001228021280001F0A2FC01224021280055
:1090F40001F09DFC05B030BD38B504000421002208
:109104006D462800FBF712F825208DF80000032097
:109114008DF8010002208DF802008DF803406846A6
:1091240001F0F5FC31BD4FF460514843401C01008F
:10913400481E0029FBD1704770B504000D000026BD
:109144000220FFF7F0FF002001002A0089B292B24A
:1091540091420AD2010089B2615C674A1180634975
:1091640009880906FBD5401CEEE770BD70B58CB0CC
:1091740004000D00614E300001F020FD5E480190B6
:1091840002941020039004950020059080200690FE
:109194000020079000200890002009904FF44050D0
:1091A4000A9000200B9001A9300001F07FFD0122FC
:1091B4000221300001F098FD4FF40050504908603E
:1091C4003068400840003060484800884006FBD5BD
:1091D4000E208DF8000002208DF8010000208DF88B
:1091E400020001208DF80300684601F090FC0CB0E9
:1091F40070BD70B58CB004000D00042100226E46D1
:109204003000FAF793FF2C21002201AE3000FAF768
:109214008DFF3C4E300001F0D1FC374801900294A0
:1092240000200390049500200590802006900020E3
:10923400079000200890002009904FF440500A90B5
:1092440000200B9001A9300001F030FD0122022121
:10925400300001F049FD5FF40030294908603068AE
:109264004008400030600F208DF8000003208DF886
:10927400010001208DF8020001208DF803006846EA
:1092840001F045FC0CB070BD10B51D485FF4003111
:1092940001601C490A68520852000A604FF40051E8
:1092A4000160164801684908490001600F4C208894
:1092B4004006FBD50020FFF71FFF002240F22441A7
:1092C400200001F07CFB00228021200001F0AFFB94
:1092D40000224021200001F0AAFB0021200001F01F
:1092E4005FFB200001F09EFA10BD00000038014031
:1092F40080E5000888E50008043801404400024085
:10930400040002405800024000F10103810704D028
:1093140010F8011B820781B1FAD10268A2F1013170
:10932400914311F0803104BF50F8042FF6E709BAD5
:10933400B1FA81F100EBD100401CC01A7047430020
:1093440030B585B00400042100226D462800FAF7E8
:10935400EDFE1021002201AD2800FAF7E7FE3E4D94
:10936400280001F05FFA3D488188ADF80010032120
:109374008DF8021018218DF803106946006800F07A
:1093840037FE37488188ADF8001048218DF8031066
:109394006946006800F02CFE01940020ADF8080036
:1093A4000020ADF80A000020ADF80C000020ADF854
:1093B40010000C20ADF80E0001A9280001F07AFA83
:1093C4000121280001F0ECFA05B030BD1CB50421E0
:1093D40000226C462000FAF7A9FE34208DF8000024
:1093E40003208DF8010002208DF8020001208DF881
:1093F4000300684601F08BFB13BD70B504000D003B
:10940400154E40F22771300001F068FB2200D2B201
:1094140040F22551300001F0D2FA2A00D2B240F2D3
:109424002661300001F0CBFA70BD10B40022002395
:109434001A000C0092B2A4B2A2420AD21A0092B24A
:10944400825C084C2280044A12881206FBD55B1CFD
:10945400EEE710BC70470000004C004008E600082E
:1094640010E60008044C0040014648B1B0FA80F10F
:109474008840C91CC1F58461090501EBD021400570
:10948400704700002DE9F04D16461F46044626F0AD
:10949400000A37F0004008BFBAF1000F8AB00D4649
:1094A40000F056830020DFF8B41622462B4601F064
:1094B40043FC00F04D83DFF8A81601F03DFC06D113
:1094C40078004015401C02D1390300F04183680044
:1094D4004015401C00F0588224F0000035F0004193
:1094E40008BF002800F0508278004015401C00F0AE
:1094F4004B82BB464FEA4B0151EADA714FEA4A000C
:1095040008BF00281CD040F23342A2EB515035284A
:1095140004DB0AF0000A0BF0004B11E0202805DD03
:1095240020382BFA00F101FA00FB00E002D14FF0E1
:10953400000A05E00028C4BF2AFA00F101FA00FA83
:10954400E80F22D0390007D500224FF00043921BC8
:10955400BB41CDE9002301E0CDE90067594600296C
:10956400504605D500224FF00043101A63EB010169
:10957400DDE900238B4208BF824206D0AFF30080AE
:109584004FF0FF306FF00041E4E225F00041B1F507
:10959400801F24F000000CD20022002908BF0028FC
:1095A400029211D002AA294600F078FE04460D4624
:1095B4000AE0DFF8B02502EB1150DFF8AC15029099
:1095C4000D40DFF8A8150D43E80F08BF00223DD079
:1095D400594650464B0043EAD0734200002B08BF63
:1095E400002A25F0004517D040F2344CACEB53521E
:1095F400352A04DB00F0000001F000410CE0202AD1
:1096040003DD203AD140914000E001D1002003E085
:10961400002AC4BFD0409040BBF1000F06D5002201
:109624004FF00043B2EB0A0A63EB0B0B002905D59C
:1096340000224FF00043101A63EB01018B4508BF71
:10964400824502D10021059101E001220592029890
:10965400012833D120462946DFF81425DFF81435D4
:1096640000F054FE2AD248004FF00008400DC246D4
:10967400DFF8E8B400F1010212D0002A10DD40F254
:10968400FF70824207DBDFF8F01405F0004300248A
:1096940043EA010533E06FF31E5141EA02552EE01F
:1096A40024F0000035F0004108BF002827D0012233
:1096B400294600F05BFE04460D4620E00020DFF85A
:1096C400BC1422462B4600F0ADFBDFF8A0B4002208
:1096D4005B4601F041FB00F0E7FEA0F120084046A4
:1096E40000F000FF0022DFF8983400F09BFB00221A
:1096F4005B4601F031FB82468B464FEA4818204610
:10970400294652465B4600F0FFFECDE90001524671
:109714005B462046294601F01FFB02460B46DDE965
:10972400000100F05BFACDE90601DDE9062300F053
:1097340079FBCDE900015246204629465B4600F0FC
:10974400E3FEDDE9002304460D46DFF83804DFF8C4
:10975400381400F067FBDFF83424DFF8343401F008
:10976400FBFADDE9002300F05DFBDFF82824DFF8D5
:10977400283401F0F1FADDE9002300F053FBDFF8AF
:109784001C24DFF81C3401F0E7FADDE9002300F0C3
:1097940049FBDFF81024DFF8103401F0DDFADDE9CD
:1097A400002300F03FFBDFF80424DFF8043401F069
:1097B400D3FADDE9002300F035FBDFF8F823DFF806
:1097C400F83301F0C9FACDE9080152460020DFF868
:1097D4008C135B4600F098FE0B465A00520D02F1C2
:1097E400010C15D0BCF1000F12DD40F2FF7294455C
:1097F40008DBDFF8842301F000404FF0000A40EA60
:10980400020B10E06FF31E5343EA0C5B82460AE03E
:1098140020F0000231F000430EBF002A012200F0C4
:10982400A5FD82468B46DDE90023DDE9080100F051
:10983400F9FA22462B4600F067FE52465B4601F0D9
:109844008BFADDE9062300F0EDFADFF800E3FE44CD
:109854000EF2FA2EC644CDF804E022462B4601F05F
:109864007BFA044602980D4600F03CFEDDF804E065
:10987400DEE9002301F070FACDE906012246DFF8A3
:109884003C03DFF83C132B4600F0CCFADDE9062359
:1098940001F062FA32463B4600F0C4FA0022DFF8D7
:1098A400243300F033FD66D30122DFF81C3300F0CB
:1098B40045FD5DD9CA0F1ABF0022C44BAB4B01F062
:1098C4004BFA00F0F1FD0022A44BDFF804A3DFF80B
:1098D40004B3CDE903238046CDF8008032463B46ED
:1098E4002046294600F09EFA044601988446D0E9B1
:1098F40002230D46DCE9040101F02EFA32463B4610
:1099040000F090FA52465B4600F08CFA22462B4651
:1099140001F022FACDE90101DDE906453046394678
:1099240022462B4600F07EFA04460D46404600F0DF
:10993400D9FD02460B462046294600F0E5FD524675
:109944005B4600F06FFADDE9012301F005FADDE979
:10995400032301F0BFFA20F0000631F0004708BFEE
:10996400002E08D04A005215521C06D10B0304D114
:109974000020814901E000200021059A002A00F01E
:10998400E98081F00041E5E068004015401C04D105
:10999400290302D020462946DCE078004015401C0B
:1099A40004D1390302D030463946D3E0790001208E
:1099B4004915491C7CD03B46590051EADA7B4FEAF1
:1099C4004A0104BF0029CDE90067324619D040F2AC
:1099D4003341A1EB5B51352904DB02F0000203F0B3
:1099E40000430CE0202903DD2039CB408B4000E00C
:1099F40001D1002203E00029C4BFCA408A40CDE956
:109A040000233B0008D500214FF0004B8A1B6BEB71
:109A14000303CDE9022301E0CDE90263DDE900237C
:109A2400002B05D500214FF000468A1A66EB03038C
:109A3400DDE902AB9B450CBF92450020DDE9002324
:109A4400590041EAD2765100002E08BF002917D0F0
:109A540040F23441A1EB5651352904DB02F00002F7
:109A640003F000430CE0202903DD2039CB408B4078
:109A740000E001D1002203E00029C4BFCA408A40AB
:109A8400B0B1DDE90001002905D500264FF0004BF7
:109A9400301A6BEB0101002B05D500264FF0004B6B
:109AA400B21A6BEB0303994206BF904200200120D7
:109AB40069004915491C07D12A0305D1EC0F1BD1B4
:109AC400FE0F3FD0002045E079004915491C1BD109
:109AD4003A0319D125F00041B1F5801F24F00000AC
:109AE4001DD20022002908BF002800921BD06A461C
:109AF400294600F0D3FB16E0FE0F02D1002822D045
:109B04001DE0002826D006E0002814BFEC0F002436
:109B1400FE0F13D17CB100204FF000411AE0114A2E
:109B240002EB11500090FE0F009802D1002809DCCE
:109B340001E0002806DD002000210BE014B1002024
:109B4400254907E000200C4904E000BFA03E0000C6
:109B5400002002490AB0BDE8F08D00000000F03F8B
:109B64000000F0BF02FCFFFFFFFF0F800000E03F9A
:109B7400CD3B7F669EA0E63F0000F07F0000504092
:109B84000000903FF7DE29BFD8F8C23FF4B3FECC03
:109B94001A99C33F62CB68D96F46C73FC6C912DA68
:109BA400C471CC3F4AE98A942449D23FF75F97991C
:109BB4009999D93FBC5555555555E53FFE822B65BE
:109BC4004715F73F0000E0C00000E0400000E0BFA0
:109BD400EF39FAFE422EE63F0000F0FFF0B540F206
:109BE400FF7581EA030C0CF0004C15EA11541DBFFB
:109BF40015EA1357AC42AF42E5E0BC41C1F313018F
:109C0400C3F31303801A994143F4801304D2641EEE
:109C14004000494180185941C90241EA5051B1FB01
:109C2400F3F603FB1611A2FB0675D7EBC020A9417E
:109C340002D2761E80185941C90241EA5051B1FB43
:109C4400F3FE03FB1E11A2FB0E75D7EBC020A94146
:109C540003D2AEF1010E80185941890241EA9051B4
:109C6400760546EA8E2EB1FBF3F603FB1611A2FB32
:109C74000675D7EB8020A94102D2761E801859417F
:109C8400C90241EA50514EEA060EB1FBF3F603FB5A
:109C94001611A2FB0675D7EBC020A94102D2761E8D
:109CA40080185941C90241EA5051B1FBF3F703FB53
:109CB4001711A2FB0735D3EBC020A94167F10007B8
:109CC4000CBF004247F0010766F3D5274FEA1E3167
:109CD400B80814F5806412DDBD0775F1004250EB3D
:109CE4000E5051EB045111F5801F5CBF41EA0C0189
:109CF400F0BD4CF07F6141F0E0410020F0BDBD07B4
:109D04006D0840EA0E5041F48011D4F10104B4F11D
:109D140020060ADAC4F120060200E04001FA06F344
:109D2400E1401843B24015430EE0342C13DCC6F175
:109D3400200445EA40056D0820FA06F2154321FA8D
:109D440006F0A1400D43002175F1004250F10000DE
:109D540051EB0C01F0BD00205FEA0C01F0BDCFB95E
:109D640092185B41B3FA83F704BFB2FA82F6BF19C3
:109D74000B3FB7F120062FBF02FA06F3BB40C7F131
:109D8400200622FA06F638BF3343BA401CB1E41960
:109D9400641E33E77F4231F00041B1FA81F404BF1D
:109DA400B0FA80F6A4190B3CB4F120062FBF00FAD8
:109DB40006F1A140C4F1200620FA06F638BF31436B
:109DC400A0403C1B1AE7AC421ABF05EA1357AF4246
:109DD40012E050EA41061CBF52EA4306BFE750EACC
:109DE4004107304661461CBF41EA0551F0BD52EAC5
:109DF400430C08BFC143F0BD00204FF4001616EB1E
:109E0400410F98BF16EB430F08BF16EB410F24BF59
:109E1400C14305E016EB430F0CBF61464CEA055104
:109E2400F0BD0000B0B581EA030C0CF0004C40F228
:109E3400FF7515EA11541DBF15EA1357AC42AF4222
:109E440039E0E41923EA455343F48013C90241F08D
:109E5400004141EA505EC7021100A7FB020200283C
:109E64004FF00000EEFB01204FF00001E3FB07215F
:109E740018BF42F00102401800214941E3FB0E01E2
:109E8400A4F580640F0302D252004041494154F1C9
:109E940001046CDD470872F1004250F1000051EBFF
:109EA4000451A1F580115CBF41EA0C01B0BD4CEA3C
:109EB40005510020B0BD05EA1357AC4214BFAF42B0
:109EC40041E050EA410E1CBF52EA430E02E06146F3
:109ED4000020B0BD24423C441BD15FEA070EF6D0FB
:109EE400090302BF01460020AEF1140EB1FA81F756
:109EF400AEEB070401FA07FE0C37C7F1200100FAA4
:109F040007F7C8404EEA000E23EA455343F4801392
:109F1400A2E733F00043B3FA83F704BFB2FA82FE38
:109F240077440B3FE41BB7F1200E2FBF02FA0EF368
:109F3400BB40C7F1200E22FA0EFE38BF43EA0E03DF
:109F4400BA40641C82E750EA410E14BF52EA430E41
:109F54006FF000014FF4001717EB430F8ABF194647
:109F640017EB410FB5E74CEA05510020B0BDD4F121
:109F74000104B4F120070FDAC4F12007520828BF06
:109F840042F0010210FA07F501FA07F7E1BF2A438C
:109F9400E0403843E1400FE0352C98DCC7F1200461
:109FA40052EA400220FA07F218BF42F0010231FAE5
:109FB40007F0A1400A43002172F1004250F1000071
:109FC40051EB0C01B0BD0000400D491840EA81205E
:109FD4000CD2490DA1F58061491C40F0004005DB1D
:109FE400D1F11F0154BFC840C0177047002070470B
:109FF400F0B500220023002400250026002791F854
:10A0040003C01CF00F0C91F803E05FEACE6E02D59A
:10A014008A7852EA0C0C0A7812062AD002681600D2
:10A0240000221400082C23D25FF0010E1EFA04F261
:10A0340015000A882A401300AB4217D1A20015006C
:10A044000F22AA401700BE431CFA05F21643CA7831
:10A05400282A04D11EFA04FEC0F814E006E0CA78E7
:10A06400482A03D11EFA04FEC0F810E0641CD9E7A4
:10A0740006600A88B2F5807F2EDB42681600002253
:10A084001400082C27D25FF0010E14F108021EFA06
:10A0940002F215000A882A401300AB4219D1A2002B
:10A0A40015000F22AA401700BE431CFA05F21643FE
:10A0B400CA78282A04D114F108021EFA02F2426175
:10A0C400CA78482A05D114F108021EFA02FEC0F823
:10A0D40010E0641CD5E74660F0BD0A0092B202614C
:10A0E4007047F0B40022002300250027002802D581
:10A0F4001D4C246801E01D4C2468C0F3034586B25E
:10A1040010F4401CBCF5401F07D134F07064174AAA
:10A11400176837F07067176011E0C20206D5032292
:10A12400AA4013009C4354F0706408E00200520DEE
:10A13400D2B2120116FA02F2944354F070640A0087
:10A14400D2B2002A06D00200520DD2B2120116FA7F
:10A1540002F21443002802D5034A146001E0034AC2
:10A164001460F0BC704700001C0001400400014072
:10A174001C48704770B45368D41801E05B1C491E36
:10A18400042B08DA00291FBF057804F8015B10F8D6
:10A19400016B002EF2D1536070BC704738B5144681
:10A1A4001D4661B1FFF7E6FF61686A6B2046904780
:10A1B4006FF00102811A02D0491E01D001E003E0D0
:10A1C40005E00021616032BD6FF0010032BD4FF047
:10A1D400FF3032BDDA6B1047024BDFE7014BF9E782
:10A1E40001487047840000204C000020C9B2027866
:10A1F4008A421AB11CBF10F8012FF9E718BF0020DA
:10A204007047000080B500B906A005490B681BB172
:10A2140022220021984701E001F016F8222002BD15
:10A22400D8270020636F6E73747261696E7420683E
:10A23400616E646C65723A20626164206D6573734B
:10A2440061676500C9B2830706D0521E22D310F895
:10A25400013B9942F7D11FE0083A13D302F10402FB
:10A2640041EA012141EA014150F8043B121F21BF98
:10A274004B40A3F1013C2CEA030C1CF0803FF3D0CB
:10A28400C9B2001F083210F8013B521E28BF91EAE0
:10A29400030FF8D818BF0120401E704710B51446AC
:10A2A40000F002F8226010BDC1F30A5343B14A0022
:10A2B40012F5001F28D2A3F2FE32A1EB025170471F
:10A2C40050EA410C20D001F0004C31EA0C01B1FA03
:10A2D40081F204BFB0FA80F3D2180B3AB2F1200332
:10A2E4002CBF00FA03F1914041EA0C013EBFC2F1D8
:10A2F400200C20FA0CF319439040524240F2FD33F3
:10A30400D21A01EB03517047002270474FF4001C2E
:10A314001CEB410F94BF1CEB430F09E041EA030C13
:10A3240050EA4C0C52EA0C0C03D2994208BF9042FA
:10A33400704714BF8B428242704700004FF4001CE8
:10A344001CEB410F94BF1CEB430F09E041EA030CE3
:10A3540050EA4C0C52EA0C0C03D28B4208BF8242E6
:10A36400704714BF9942904270470000124254D47F
:10A3740040F2FF7C1CEA11530FD0634531D09B1887
:10A3840063453CBF01EB0251704701F0004141EAD3
:10A394000C510020AFF30080704750EA410320D0F5
:10A3A40001F0004C91EA0C011CD0B1FA81F30B3B93
:10A3B4009A420DD9D21A994051EA0C01C3F1200CEA
:10A3C40020FA0CFC61449840531C40F2FF7CD7E710
:10A3D400914041EA0C01C2F1200C20FA0CF319431C
:10A3E40090407047B0FA80F31533202BE0D3202A35
:10A3F400EED3203A203B9A4209D9D21A00FA03F14B
:10A4040041EA0C010020531C40F2FF7CB8E700FA3B
:10A4140002F141EA0C0100207047524240F2FF7CF5
:10A424001CEA11530DD06345DBD0B2EB030C3CBFE7
:10A43400A1EB025170470CF1010221EA035141F4EE
:10A44400801150EA410CCCD001F0004C352A27DCB5
:10A4540030B481EA0C01B2F1200309DAC2F120031D
:10A46400044601FA03F5D0402843D1409C400CE057
:10A47400C3F12002450020FA03F418BF44F001049C
:10A4840021FA03F091400C43002174F1004550F18E
:10A49400000051EB0C01244230BC7FF47BAF7047C9
:10A4A4006146002076E70000C1F30A5340F2FE3211
:10A4B4009B1A14DDD3F120034FEAE17208DDC902CF
:10A4C40041EA505141F00040D84080185040704754
:10A4D40003F2E13010B1D24382F000407047002013
:10A4E40070470000C11768B14840401AB0FA80F2C2
:10A4F4009040D21CC907C2F5846241EA025202EBC1
:10A50400D02140057047000070B44FF0004591EA37
:10A51400030F40F129846B40841A71EB030603D2C4
:10A52400001BB141121973414FF4001C1CEB410F85
:10A5340034BF7CEB430442E00C0DA4EB1356352EE0
:10A544004FDC45EAC323DB0A45EAC121C912B6F14F
:10A5540020050DDD63FA05F6EB4086EA0305124299
:10A5640018BF45F00105C01851F100010CD213E0E9
:10A5740062FA06F5F2405540F3415A40B340F340C5
:10A584005A408018594107D349085FEA30005FEA0E
:10A59400350528BF45F0010501F58011420875F124
:10A5A400004250F1000041EB04514E0016F5001F2B
:10A5B40070BC38BF70470020090D090570471CEBBB
:10A5C400410F10D252EA43060BD0BCEB410F05D821
:10A5D4000C0DAB43661E342EB6DD02E0AB4380188F
:10A5E400594170BC704770BC704780B5FFF7C0FD1F
:10A5F400006C02BDBBBBE1B1B2F5803F80F07E8050
:10A60400022A1ED98C46B1FBF2F102FB11C31B04D2
:10A6140043EA1043B3FBF2FC02FB1C3380B240EA72
:10A624000343B3FBF2F002FB103240EA0C40002378
:10A634007047022A05D98446B0FBF2F002FB10C22F
:10A6440070474AB105D100F0010249085FEA3000C1
:10A65400704700220023704700F0FABD0B0002008F
:10A66400002100207047904271EB030CF6D3B3F540
:10A67400803F2FD2F0B5B3FA83F7B1FA81F4A7F192
:10A684000F0E3D1B5340CEF1200602FA0EF2F341A9
:10A694005340B5F10F0746D80F3C2C444140C4F158
:10A6A4002006A040F1414140B1FBF3F603FB161133
:10A6B400A2FB0645001BA94102D2761E801859410F
:10A6C40080EA010221FA0EF362FA0EF200215A40E6
:10A6D4003046F0BD30B4B1FBF3FC03FB1C11A2FB0C
:10A6E4000C45001BA94103D2ACF1010C801859415F
:10A6F40030BC02460B46604600217047B2F1807FB1
:10A7040065D3F0B5B2FA82F7B1FA81F4C7F10F0656
:10A714003D1B22FA06F307F1110EF24120355A408F
:10A72400B5F10F07B8D94140C4F12006A040F1416A
:10A734004140B1FBF3FC03FB1C11A2FB0C45001BC5
:10A74400A94103D2BCF1010C801859410F2F12D337
:10A754000F3FC90341EA5041B1FBF3F603FB161165
:10A76400A2FB0645D4EBC030A94102D2761E801864
:10A77400594146EACC3C07B34140C7F12006B840F2
:10A78400F1414140B1FBF3F603FB1611A2FB064570
:10A79400001BA94102D2761E8018594180EA0102A9
:10A7A40021FA0EF3C7F1200462FA0EF20CFA07F054
:10A7B4005A402CFA04F13043F0BD80EA010221FA38
:10A7C4000EF3002162FA0EF260465A40F0BD8C4648
:10A7D400B1FBF2F102FB11C31B0243EA1063B3FBAA
:10A7E400F2FC02FB1C331B024CEA002043EA106318
:10A7F400B3FBF2FC02FB1C331B024CEA002043EACD
:10A804001063B3FBF2FC02FB1C331B024CEA002076
:10A8140043EA1063B3FBF2FC02FB1C324CEA002057
:10A824000023704710B50400584884420AD101211E
:10A834004FF4804000F042FE00214FF4804000F0CD
:10A844003DFE36E0524884420AD101215FF40030D3
:10A8540000F042FE00215FF4003000F03DFE28E0ED
:10A864004C4884420AD101215FF4802000F034FE78
:10A8740000215FF4802000F02FFE1AE04648844255
:10A884000AD101215FF4002000F026FE00215FF4CC
:10A89400002000F021FE0CE04048844209D101214F
:10A8A4005FF4801000F018FE00215FF4801000F0C7
:10A8B40013FE10BD2DE9F84F86B004000D000026EC
:10A8C40000275FF000085FF000095FF0000AA88924
