:020000040800F2
:20000000601F002069230008B5210008B7210008B9210008BB210008BD2100080000000043
:20002000000000000000000000000000BF210008C121000800000000C3210008C521000814
:20004000C9230008CD230008D1230008D5230008D9230008DD230008E1230008E523000890
:20006000E9230008ED230008F123000875220008F5230008F9230008FD2300080124000800
:2000800005240008092400080D2400081124000815240008192400081D2400082124000868
:2000A00025240008292400082D2400083124000835240008392400083D2400084124000848
:2000C00045240008492400084D2400085124000855240008592400085D2400080722000884
:2000E0006124000865240008692400084FF4C0414843401C0100481E0029FBD1704710B54A
:2001000000F0CCFA5FF4803000F0E8FA00F003FB04002000C0B201282BD1002000F038FB68
:20012000002000F045FB4FF4806000F039FB4FF4404000F049FB002000F043FB022000F0D1
:2001400039FC102000F03FFC5FF400115FF4803000F000FB012000F009FB392000F0E0FB84
:200160000028FAD0022000F006FB00F00CFB0828FBD110BD10B504002100C9B21D2000F028
:2001800097FB2100C9B25FF4802000F09FFB10BD80B500215FF0006000F00CFD4FF4A060A6
:2001A00000F0D0FC01BD80B50121DFF8980400F09EFD10208DF8030003208DF80200DFF837
:2001C00088048188ADF800106946006800F016FD01BD70B5FFF793FFFFF7DAFF0120FFF76A
:2001E000C9FF72B6FFF7DFFFDFF85C44A088216808610A20FFF77AFF00F0C0FD00F0CCFEAA
:2002000045F25555DFF844643088A84206D100F0B1F8002802D14AF6AA2030805FF4E13053
:2002200000F090FF00F0E6FF0021012000F0F3FF01F04AF8A088216848613088A84204D142
:200240000120DFF80C14086003E04020DFF80014086062B670BDDFF8F8030178890716D57D
:20026000016831F002010160DFF8E8030168491C01600078C00705D5DFF8CC03818800686F
:20028000416104E0DFF8C003818800680161704738B50400002072B62568DFF8BC132940DF
:2002A000B1F1005F0ED1DFF8B403211D09680160DFF8AC1300680860206880F3088808685F
:2002C000804707E00120DFF8881308600020DFF89413086062B631BD80B5DFF8740301786D
:2002E00049060FD4DFF87C13096829290AD3DFF85C13098845F25552914203D1016851F0C0
:20030000800101600078000608D5DFF83C03818800684161DFF85003FFF7BAFF01BD70B5BB
:20032000DFF848430721200001F0F7F800280DD00721200001F0FFF85FF4E13000F002FFA9
:2003400000F058FF0021012000F065FFC84C200001F0B8F900280CD0C6480178200000F04F
:2003600042F840F60C15002632002900200001F0DBF970BDF8B50024BF4E00250027082205
:20038000BE49300001F01AFA00281CD1082005002800C0B2322810DA30780700761C380088
:2003A000C0B2202803DB3800C0B2802803DB3800C0B2002801D16D1CEAE72800C0B2322883
:2003C00001D1012004002000C0B2002808D10722AB49AC4801F0F2F9002801D10120040087
:2003E0002000C0B2F2BD2DE9FE4F04000D005FF000095FF0000A40F60C1B0094DFF88882C5
:2004000046465A460099300001F00CFAB8F8020040440179B8F80200404442794FF480701C
:20042000424352FA81F6B8F80210091F18F1080001F04CFA07003000390080B289B288429B
:2004400040F0EC8098F80D008DF808000020B4F80B10ADF80A10BDF80A104FF6FF729142D8
:2004600006D0BDF80A0079498988884240F0E8809DF80800012875D0022835D0032800F05D
:20048000A480042805D005280BD0F72800F0B580C4E000207349086001F05CFB7B4948802F
:2004A000BCE06B48007840061DD55FF000090020002198F80F806C4A4346DBB212EB832A0F
:2004C000924510D37248016851450CD11AF580610160504601F068FC83465846C0B201F0C6
:2004E00011FC6A49488099E059480078400638D500210022002398F80800002831D198F8D7
:200500000F008DF80000D8F81090D8F814A05648814526D35F491AEB09000A68904202D02A
:20052000086800281DD1C1F80090DFF81CB1BBF80400DBF800100861524618F118014846FD
:2005400001F03DFC002807D0524649469DF8000001F04AFB4D494880BBF80400DBF8001088
:2005600048615BE0DFF8248101F060FAA8F80200B8F8020000280BD0B8F8021018F10400AA
:2005800001F062FC0220FFF7B1FD0020A8F802002F480168490849000160016851F04001BE
:2005A00001604AF6AA202949088000F079FD00F0A4FD00F012FA304801F0F6FB2A4834499A
:2005C000086000203349086028E0FFF7D3FE012812D101F075FA2D4948801D48016851F027
:2005E0008001016045F255501849088000F058FD00F083FD00F0FAF910E0DFF890800020C5
:200600000190002000903223234A9DF8081018F1040001F0ABF9A8F80200FFE7DFF86C803D
:20062000B8F8020000280BD0B8F8021018F1040001F00AFC0220FFF759FD0020A8F802000F
:20064000BDE8F78F00023000A8230008301B0020381B0020441B00200000FE2F4C1B002059
:20066000481B0020501B0020004000080048004014000020581B00200050000878230008DA
:20068000A023000880500008200900202C1200203C1B0020401B002078220008DFF8C812CB
:2006A000086850F001000860DFF8C0221368DFF8C002034013600B68DFF8B80203400B60EC
:2006C000086830F480200860106830F4FE0010605FF41F00DFF8A01208607047DFF88812E9
:2006E0000A6832F480320A600A6832F480220A600200B2F5803F03D0B2F5802F05D009E053
:200700000A6852F480320A6004E00A6852F4A0220A60FFE7704738B50020009000240025BA
:20072000312000F0FDF805000098401C009000984FF6FF71884203D02800C0B20028EFD08F
:20074000312000F0EDF8002801D0012000E00020C0B232BD30B40023844D2C6834F47C14D4
:2007600051EA000214432C6030BC70470100C9B2824A1160704700217C4B1A6892089200B0
:2007800002431A6070477948006810F00C0070470021764B1A6832F0F00202431A60704709
:2007A0000021724B1A6832F4E06202431A60704700216E4B1A6832F4605252EAC0021A604F
:2007C00070476F49086070470021684B1A6832F4404202431A6070472DE9F04F010000229F
:2007E000002500200026614FD7F800C01CF00C0C6346002B04D0042B05D0082B06D023E073
:20080000614A0A6022E0614A0A601FE03A6812F470123B6813F480331800920C921C1500AD
:20082000002804D15A4A02FB05F20A600BE03A68920304D5574A02FB05F20A6003E0534A3F
:2008400002FB05F20A6001E04F4A0A603C6814F0F0042409DFF8409119F804E00A6832FA52
:200860000EF24A603B6813F4E0631B0A19F803804A6832FA08F28A603A6812F46052D20A30
:2008800019F80290D1F804A03AFA09FAC1F80CA03F6817F44047BF0BDFF800A11AF807A078
:2008A000D1F80CB0BBFBFAFBC1F810B0BDE8F08F0A00D2B2002A04D0394A13680343136028
:2008C00003E0374A13688343136070470A00D2B2002A04D0334A13680343136003E0314AAE
:2008E00013688343136070470A00D2B2002A04D02D4A13680343136003E02B4A13688343BD
:20090000136070470A00D2B2002A04D0274A13680343136003E0254A1368834313607047BF
:2009200030B401000020002300250A00D2B25209D2B2012A02D10C48046806E0022A02D15A
:200940001048046801E01A4804680B00DBB213F01F032000D840C00701D5012000E0002071
:20096000C0B230BC7047000000100240041002400000FFF8FFFFF6FE081002406000424293
:20098000D80042422010024000127A00001BB70000093D00808D5B0000000020100000202D
:2009A000181002401C1002400C10024010100240241002400021DFF840311A6812F0380202
:2009C00002431A607047DFF830110A6832F010020A600A6802430A607047DFF82001DFF8D2
:2009E00020110160DFF81C1101607047DFF81801016851F080010160704770B504000426C3
:200A00005FF0FF3000F086F805002800C0B204281AD1DFF8F460306850F002003060DFF8C8
:200A2000EC000460306850F0400030605FF0FF3000F070F805002800C0B2052804D03168AF
:200A400041F6FD70014031602800C0B270BDF8B504000D000427002000905FF0FF3000F052
:200A600059F806003000C0B204282DD1DFF89870386850F00100386025805FF0FF3000F0E8
:200A800049F806003000C0B2042814D1A01C00902800000C009908805FF0FF3000F03AF81B
:200AA00006003000C0B205280ED0396841F6FE700140396008E03000C0B2052804D0396837
:200AC00041F6FE70014039603000C0B2F2BD04210F480268D20701D501200AE002685207E3
:200AE00001D5022005E00068C00601D5032000E00420C0B2704700000020024004200240FD
:200B000023016745AB89EFCD10200240142002400C20024070B504000425FFF7D8FF06009A
:200B20003000C0B2012806D1002C04D0FFF7CFFF0600641EF4E7002C01D105200600300093
:200B4000C0B270BD25490143254A11607047F0B4002200230F24C17800291FD02049096866
:200B600011F4E061D1F5E061090AD1F104052B00CC4045789D408678264035432D012A0045
:200B8000184D0678AA550125067816F01F06B540154E07787F1146F8275009E00121057800
:200BA00015F01F05A940114D0678761145F82610F0BC70470E4A0A4002430E4B1A60704779
:200BC000042805D10C490A6852F004020A6004E009490A6832F004020A6070470000FA05AA
:200BE0000CED00E000E400E000E100E080E100E080FFFF1F08ED00E010E000E0F0B500224D
:200C00000023002400250026002791F803C01CF00F0C91F803E05FEACE6E02D58A7852EAA2
:200C20000C0C0A7812062AD00268160000221400082C23D25FF0010E1EFA04F215000A8816
:200C40002A401300AB4217D1A20015000F22AA401700BE431CFA05F21643CA78282A04D189
:200C60001EFA04FEC0F814E006E0CA78482A03D11EFA04FEC0F810E0641CD9E706600A8846
:200C8000B2F5807F2EDB4268160000221400082C27D25FF0010E14F108021EFA02F21500F4
:200CA0000A882A401300AB4219D1A20015000F22AA401700BE431CFA05F21643CA78282A6A
:200CC00004D114F108021EFA02F24261CA78482A05D114F108021EFA02FEC0F810E0641CA8
:200CE000D5E74660F0BD0A0092B242617047F0B40022002300250027002802D51D4C246814
:200D000001E01D4C2468C0F3034586B210F4401CBCF5401F07D134F07064174A176837F083
:200D20007067176011E0C20206D50322AA4013009C4354F0706408E00200520DD2B21201DC
:200D400016FA02F2944354F070640A00D2B2002A06D00200520DD2B2120116FA02F21443BF
:200D6000002802D5034A146001E0034A1460F0BC704700001C0001400400014080B50320B4
:200D80008DF8020014208DF8030081488188ADF8001069460068FFF731FF7E488188ADF8D8
:200DA000001069460068FFF729FF01BD0020C8210800411E0028FBD170474FF4C041484346
:200DC000401C0100481E0029FBD1704710B5704CA088216808616F48818800680161FFF789
:200DE000E5FF20688068002801D1012000E00020217911F00101084201D0002011E0A08893
:200E000021684861FFF7D2FF20688068A188084201D0002005E0A08821684861FFF7C6FF0B
:200E2000012010BD38B55B4CA08821684861FFF7BDFF574DA88829684861FFF7B7FFA08842
:200E400021680861FFF7B2FFA88829680861FFF7ADFF31BD10B54F4CA08821684861FFF78F
:200E6000A5FF4B48818800684161FFF79FFFA08821680861FFF79AFFA08821684861FFF79B
:200E800095FF10BD10B5434CA08821684861FFF78DFF3F48818800680161FFF787FFA088C3
:200EA00021680861FFF782FFA08821684861FFF77DFF10BD38B5374CA08821684861FFF770
:200EC00075FF334DA88829680861FFF76FFFA08821680861FFF76AFF28688068A988084224
:200EE00004D0A08821684861002003E0A08821684861012032BD70B5040008252800451E76
:200F0000C0B2002817D0234EB08831684861200604D51F4881880068016103E01C488188DC
:200F200000684161FFF742FFB08831680861FFF73DFF6400E2E7174881880068416170BD38
:200F4000F8B508240025124EB088316808612000441EC0B2002813D06D000E4FB88839684F
:200F60004861FFF723FFB88839680861FFF71EFF30688068B1880842E9D055F00105E6E77F
:200F800004488188006841612800C0B2F2BD000090230008982300082DE9FE430025002689
:200FA000082100226C46200000F0BEFB0027644C2200082141F6F87000F059FF0500280035
:200FC000C0B2002814D05FF000085FF000090621200000F07BFCE18802000B0092B29BB22F
:200FE0009A4202D00022150001E00122150007E03220FFF7E2FE7F1C3800C0B20328D6DBC3
:201000005FF000086A4608214FF4F05000F02FFF06003000C0B2002814D000275FF00009CC
:201020000621684600F052FCBDF8061002000B0092B29BB29A4202D00022160001E001224A
:20104000160008E03220FFF7B8FE18F101084046C0B20328D6DB55EA0600C0B2002809D1F5
:201060004AF6AA2020800020608000F019F800F044F813E03000C0B2002802D100F03DF8E4
:201080000CE02800C0B2002808D10827E9463A004946200000F0C6FB00F002F8BDE8F783C8
:2010A00070B500240025264E0020F0800621300000F00CFCF0803200082141F6F87000F015
:2010C0009DFF04002000C0B2002806D0320008214FF4F05000F092FF04002000C0B20028C3
:2010E00008D13220FFF769FE6D1C2800C0B20328E1DBFFE72000C0B270BD70B5002400254B
:201100000F4E0020F0800621300000F0DFFBF080320008214FF4F05000F070FF04002000F0
:20112000C0B2002808D13220FFF747FE6D1C2800C0B20328ECDBFFE72000C0B270BD0000F5
:20114000301B002078B585B00400042100226D46280000F0E9FA1021002201AD280000F0B0
:20116000E3FA10208DF8030003208DF802003A4D280000F0CDF839488188ADF80010032169
:201180008DF8021018218DF8031069460068FFF735FD334EB088ADF8000069463068FFF70D
:2011A0002DFDB1883068FFF79EFD2E488188ADF8001004218DF8031069460068FFF71EFD8A
:2011C00001940020ADF808000020ADF80A000020ADF80C000020ADF810000C20ADF80E0059
:2011E00001A9280000F0DCF80121280000F04EF906B070BD80B527208DF8000001208DF84E
:20120000010000208DF8020001208DF803006846FFF79DFC01BD70B504000D000E4E40F2BE
:20122000A551300000F0C4F92200D2B240F22551300000F03AF92A00D2B240F226613000A3
:2012400000F033F970BD044909880906FBD50100C9B2054A1180704700480040B023000812
:20126000C0230008B82300080448004010B4020052B2002A05D40A011D4B040064B21A554B
:2012800008E00A011B4B040064B214F00F04234403F8042C10BC704710B50400601EB0F1C7
:2012A000807F01D301200EE0601E134908600F215FF0FF30FFF7DAFF002010490860072085
:2012C0000F490860002010BD80B50420FFF778FC0C48FFF7E1FF00200B49086000200B4924
:2012E00008600F215FF0FF30FFF7C0FF01BD000000E400E018ED00E014E000E018E000E010
:2013000010E000E0C0270900501B0020541B002010B50400584884420AD101214FF48040C4
:20132000FFF7E2FA00214FF48040FFF7DDFA36E0524884420AD101215FF40030FFF7E2FA22
:2013400000215FF40030FFF7DDFA28E04C4884420AD101215FF48020FFF7D4FA00215FF492
:201360008020FFF7CFFA1AE0464884420AD101215FF40020FFF7C6FA00215FF40020FFF710
:20138000C1FA0CE04048844209D101215FF48010FFF7B8FA00215FF48010FFF7B3FA10BD5D
:2013A0002DE9F84F86B004000D00002600275FF000085FF000095FF0000AA8890028A346F2
:2013C000218A4CF6FF700140E8880143009100982082A1894EF6F3100140AA882889024317
:2013E00068890243114300910098A081A18A4FF6FF400140A889014300910098A08201A8C0
:20140000FFF7EAF91C48834501D1049900E00399A089000407D5192000FB01F02A685200CA
:20142000B0FBF2F206E0192000FB01F02A689200B0FBF2F26420B2FBF0F6360133001B09BA
:20144000642000FB1323A089000408D5D80032306427B0FBF7F010F00700064307E0180126
:2014600032306427B0FBF7F010F00F000643268107B0BDE8F08F0000003801400044004016
:2014800000480040004C0040005000400A00D2B2002A04D0828952F40052828104E0838986
:2014A0004DF6FF721340838170472DE9F0410023002500275FF0000E0C0040F66A16A4B23F
:2014C000B44280460C00E4B26409E4B20E00B6B216F01F065FF0010C1CFA06FC012C02D196
:2014E00018F10C0806E0022C02D118F1100801E018F114081300DBB2002B06D0D8F8003020
:201500005CEA0303C8F8003005E0D8F8003033EA0C03C8F80030BDE8F0810200002308004B
:2015200080B2B0F5007F1088084201D0012000E00020C0B270470A0092B292050A0092B225
:20154000D24302807047F0B4040000270020002200260B0040F66A159BB2AB420D00EDB260
:201560006D09EDB20B009BB213F01F035FF0010C1CFA03F3012D02D1A089034006E0022DEF
:2015800002D1208A034001E0A08A03400A0092B2120A92B21CFA02F220880240002B03D09D
:2015A000002A01D0012000E00020C0B2F0BC704770B4002200240B0040F66A159BB2AB42D6
:2015C0000B009BB21B0A01259D402E00B6B2F643068070BC70470A78002A06D0812A0DD049
:2015E000822A1ED0842A3DD068E00200D2B27E2A03D181220A707E228A715FE00200D2B2CF
:20160000552A04D182220A705522CA7108E00200D2B27E2A02D181220A7001E000220A7023
:201620004CE00200D2B2082A0DDB0200D2B2F12A09DA84220A700200D2B2D21C8A80087242
:2016400003224A800DE00200D2B2002A07D184220A7014228A80087203224A8001E000225A
:201660000A702BE00A7A002A1CD14A880E2A04D18A8852FA80F28A8014E04A880F2A06D1BB
:201680008A880300DBB21B029A188A800AE04A88102A02D18A888A8004E04A88112A01D127
:2016A0008A888A804A88531C4B8092B20A4490714A888B889A4201D306220A700022C1F85D
:2016C00008297047010000200A78052A08D14A88092A02DB0122100007E000220A7004E0FB
:2016E0000A78062A01D101221000C0B2704730B4002513E050F8042BD30744BFA9F101031C
:201700009A18091F042942F8045BFAD213468C0744BF15809B1CC90748BF1D7050F8041B57
:201720000029E7D130BC704762F30F2262F31F42401810F0030308D0C91A1FD3DB0748BFF5
:2017400000F8012D28BF20F8022D130030B414461546103928BF20E93C00FAD8490728BF0B
:2017600020E90C0048BF40F8042D890028BF20F8022D48BF00F8012D30BC7047C91818BFA5
:2017800000F8012DCB0728BF00F8012D704730B40EE00268436802440830DC0744BFA9F1A8
:2017A0000104E31852F8045B43F8045B091FF9D150F8041B0029ECD130BC704703000020E1
:2017C00013F0030F09D0521E22BF13F8010B11F801CBB0EB0C00F3D0704711F0030F14D1C5
:2017E000121F22BF53F8040B51F804CB6045F7D0121D0AD200BA9CFA8CFCB0EB0C0038BF78
:201800006FF0000088BF01207047521E22BF13F8010B11F801CBB0EB0C00F6D0521C08BF6B
:201820001046704762B38B0708D0521E11F8013B00F8013B00F024808B07F6D1830740F08C
:20184000208000BF103A07D330B4B1E83810103AA0E83810F9D230BC530724BFB1E8081081
:20186000A0E8081044BF51F8043B40F8043BD20724BF31F8022B20F8022B44BF0B78037076
:201880007047121F17D35B0009D151F8043B20F8023B1B0C121F20F8023BF6D20BE051F8BB
:2018A000043B00F8013B1B0A20F8023B1B0C121F00F8013BF3D238BF121D521E24BF11F868
:2018C000013B00F8013BF8D87047000070B403000022002400264FF6FF7000258D4214D2F0
:2018E0005A5D504000221600082E0CD2C20706D580B2020048F2084090EA520001E080B21C
:201900004008761CF0E76D1CE8E780B2C04380B270BC704770B403000022002600244FF69C
:20192000FF7000252A000E0092B2B6B2B24218D22A0092B29A5C504000221400220092B2C1
:20194000082A0CDAC20706D580B2020048F2084090EA520001E080B24008641CEEE76D1C10
:20196000E0E780B2C04380B270BC70472DE9F74F82B0070098460E9C0F9D00260020ADF8A2
:2019800004007E20B855761C5520B855761C18F10B00B855761C0120B855761C0020B85552
:2019A000761C0020B855761C0020B855761C1F20B855761C9DF80C00B855761C0020B855CC
:2019C000761C2000C0B200280CD1C1465FFA89F90498009007EB060A4A4600995046FFF719
:2019E00021FF0BE0C1465FFA89F95FF0000A07EB060B524649465846FFF796FE56FA88F681
:201A0000BC55761CBD55761CB878411E89B2B81CFFF780FF0100B955761C080080B2000A87
:201A2000B855761C300005B0BDE8F08F70B500260024DC4D7E2005EB06010871761C552051
:201A400005EB06010871761C092005EB06010871761C012005EB06010871761C002005EB26
:201A600006010871761C002005EB06010871761C002005EB06010871761C1F2005EB0601DA
:201A80000871761C012005EB06010871761C002005EB06010871761CA879411E89B2A81D76
:201AA000FFF738FF010005EB06000171761C080080B2000A05EB06021071761C300070BD52
:201AC00070B500260024B74D7E2005EB06010871761C552005EB06010871761C092005EB63
:201AE00006010871761C012005EB06010871761C002005EB06010871761C002005EB060178
:201B00000871761C002005EB06010871761C1F2005EB06010871761C032005EB06010871C4
:201B2000761C002005EB06010871761CA879411E89B2A81DFFF7EEFE010005EB0600017126
:201B4000761C080080B2000A05EB06021071761C300070BD70B500260024924D7E2005EB6B
:201B600006010871761C552005EB06010871761C092005EB06010871761C012005EB060199
:201B80000871761C002005EB06010871761C002005EB06010871761C002005EB0601087166
:201BA000761C1F2005EB06010871761C042005EB06010871761C002005EB06010871761C0A
:201BC000A879411E89B2A81DFFF7A4FE010005EB06000171761C080080B2000A05EB0602B6
:201BE0001071761C300070BD2DE9F84304000D00160000275FF00008DFF8A8917E2009EBDD
:201C0000070108717F1C552009EB070108717F1C002009EB070108717F1C012009EB0701D6
:201C200008717F1C002009EB070108717F1C002009EB070108717F1C002009EB070108719B
:201C40007F1C1F2009EB070108717F1C022009EB070108717F1C002009EB070108717F1C38
:201C600009EB070004717F1C09EB070005717F1C2800000A09EB070108717F1C2800000CD7
:201C800009EB070108717F1C2800000E09EB070108717F1C09EB070006717F1C3000000AA7
:201CA00009EB070108717F1C3000000C09EB070108717F1C3000000E09EB070108717F1C7A
:201CC0002000C0B2002807D0320009EB0700011D280000F09AF8F7193800811E89B219F152
:201CE0000600FFF717FE010009EB070001717F1C080080B2000A09EB070210717F1C380035
:201D0000BDE8F283F8B5040000270025254E7E2006EB070108717F1C552006EB07010871A7
:201D20007F1C0A2006EB070108717F1C012006EB070108717F1C002006EB070108717F1C76
:201D4000002006EB070108717F1C002006EB070108717F1C1F2006EB070108717F1C0520B8
:201D600006EB070108717F1C002006EB070108717F1C06EB070004717F1CB079411E89B25E
:201D8000B01DFFF7C7FD010006EB070001717F1C080080B2000A06EB070210717F1C380024
:201DA000F2BD00002C12002010B504002000FEF724FE042801D1012000E0002010BD2DE914
:201DC000F04704000D0016000020002101275FF00108A9465FF0000AB24512D250468008A3
:201DE00059F820101AEB0400FEF731FE07003800C0B2042802D00020804602E01AF1040AA5
:201E0000EAE74046C0B2BDE8F0872DE9F84F04000D00160000275FF000085FF000095FF034
:201E2000010A0094AB46FEF7D8FD0021B1EB960F06D2009850F821004BF82100491CF5E768
:201E40005046C0B2BDE8F28F70B504000D00002000263000290080B289B2884206D2300040
:201E600080B2205CFFF7EFF9761CF2E770BD2DE9F04104000D0016005FF001080027280029
:201E800080B2002860D0FEF7A1FF002801D1002080464046C0B2002808D0A020FFF72BF872
:201EA000FFF708F8002801D1002080464046C0B2002808D0200080B2000AC0B2FFF71BF87D
:201EC000FEF7F8FF80464046C0B2002806D02000C0B2FFF710F8FEF7EDFF80464046C0B22B
:201EE000002805D0FEF772FF002801D1002080464046C0B2002808D0A120FEF7FCFFFEF701
:201F0000D9FF002801D1002080466D1E4046C0B2002817D0002007003800290080B289B282
:201F2000884208D2FFF70CF8390089B27054FEF791FF7F1CF0E7FFF703F8390089B27054AB
:201F4000FEF7A0FFFEF76EFF4046C0B2BDE8F0812DE9F04104000D00160000275FF0010890
:201F6000280080B2002842D0FEF730FF002801D1002080464046C0B2002808D0A020FEF71C
:201F8000BAFFFEF797FF002801D1002080464046C0B2002808D0200080B2000AC0B2FEF762
:201FA000AAFFFEF787FF80464046C0B2002806D02000C0B2FEF79FFFFEF77CFF80460020C6
:201FC00007003800290080B289B288420DD24046C0B2002807D0380080B2305CFEF78BFF17
:201FE000FEF768FF80467F1CEBE7FEF71BFF0520FEF7E3FE4046C0B2BDE8F0812DE9F047ED
:2020000004000D00160000275FF000085FF0000A200010F01F0F1BD014F01F00D0F1200085
:2020200007002800390080B289B2884200D22F00404680B206EB0002390089B218EB0400DA
:2020400080B2FFF785FF8146ED1B17EB080801E05FF001094846C0B200281FD0280080B248
:2020600000281BD0202007002800390080B289B2884200D22F00404680B206EB0002390089
:2020800089B218EB040080B2FFF762FF8146ED1B17EB08084846C0B20028DFD14846C0B2BC
:2020A000BDE8F08780B53D49086850F0010008603B4A13683B48034013600B683A480340BF
:2020C0000B60086830F480200860106830F4FE0010605FF41F003549086000F001F801BDF0
:2020E00080B500F001F801BD82B000200190002000902A49086850F480300860086810F4BE
:20210000003000900198401C01900098002804D101984FF6FF729042F0D10868800302D538
:202120000120009001E0002000900098012831D11F48026852F0100202600268920892007D
:202140000260026852F00202026015480268026002680260026852F480620260026832F492
:202160007C120260026852F4A02202600A6852F080720A600A689201FCD501688908890032
:202180000160016851F002010160016811F00C010829FAD102B070470000000000100240A2
:2021A000041002400000FFF8FFFFF6FE08100240002002407047FEE7FEE7FEE7FEE7704722
:2021C0007047704725480168491C016000681521B0FBF1F201FB1200002804D120480168ED
:2021E00051F0020101601F48017809060AD5D0F80819491DC0F80819D0F808190A2901D354
:2022000005210170704770B5174C40F2255529002000FFF798F900280FD0002601201349C2
:20222000087029002000FFF7C3F9114805880D492800C0B2FFF7CFF90AE04FF45871200081
:20224000FFF781F9002803D009480088C005C00D208810F47C40208070BD0000501B0020E8
:20226000381B00201400002000480040581B00200448004070470000426F6F742056332EEE
:20228000315F323230333236303020474433324633787800000000000000000000000000A6
:2022A00000000000000000000000000010B5074979441831064C7C44163404E00A68081D2C
:2022C000114488470146A142F8D110BD08000000280000001BF4FFFF481B00001400002046
:2022E00000000000ABF4FFFF1400000068000000000000200000000000F00DF8002801D0B7
:20230000FFF7D4FFAFF300800020AFF3008000F004F800F00CF80120704780B5FDF759FF57
:20232000FDF799FFFDF7D8FFFDF7F9FFF8E700F001B800000746384600F002F8FBE700003B
:2023400080B5AFF30080024A11001820ABBEFBE7260002000000000001020304010203040A
:2023600006070809020406080148804701480047A520000885230008204353313131302075
:2023800000000000AFF30080AFF30080FFF7B4FF000C014080000000000C014040000000F6
:2023A00047323330323030000010014004000000000C014000040000000C014000080000B4
:2023C0000010014020000000FFF7FEBFFFF7FEBFFFF7FEBFFFF7FEBFFFF7FEBFFFF7FEBF5A
:2023E000FFF7FEBFFFF7FEBFFFF7FEBFFFF7FEBFFFF7FEBFFFF7FEBFFFF7FEBFFFF7FEBF45
:20240000FFF7FEBFFFF7FEBFFFF7FEBFFFF7FEBFFFF7FEBFFFF7FEBFFFF7FEBFFFF7FEBF24
:20242000FFF7FEBFFFF7FEBFFFF7FEBFFFF7FEBFFFF7FEBFFFF7FEBFFFF7FEBFFFF7FEBF04
:20244000FFF7FEBFFFF7FEBFFFF7FEBFFFF7FEBFFFF7FEBFFFF7FEBFFFF7FEBFFFF7FEBFE4
:0C246000FFF7FEBFFFF7FEBFFFF7FEBF57
:20400000F02F00201DE5000811DE000813DE000815DE000817DE000819DE00080000000070
:204020000000000000000000000000001BDE00081DDE0008000000001FDE000821DE000870
:2040400061E6000865E6000869E6000819E000086DE6000871E6000875E6000879E60008E2
:204060007DE6000881E6000885E6000889E600088DE6000891E6000875DF000851DF0008EE
:20408000D9DE0008FDDE000895E6000899E600089DE60008A1E60008A5E60008A9E6000830
:2040A000ADE60008B1E60008B5E60008B9E60008BDE60008C1E60008C5E60008C9E60008B8
:2040C000CDE60008D1E60008D5E60008D9E60008DDE6000817DF00089FDE000897DF000810
:2040E000E1E60008E5E60008E9E60008EDE60008F1E60008F5E60008F9E60008FDE60008D8
:2041000001E7000805E7000809E700080DE7000869DE0008D7DF000811E7000815E70008B6
:2041200019E700081DE7000821E7000825E7000862F30F2262F31F42401810F0030308D0D5
:20414000C91A1FD3DB0748BF00F8012D28BF20F8022D130030B414461546103928BF20E968
:204160003C00FAD8490728BF20E90C0048BF40F8042D890028BF20F8022D48BF00F8012D91
:2041800030BC7047C91818BF00F8012DCB0728BF00F8012D704700000022FFF7CDBFF0096B
:2041A00004CEB4B0F3B6A8CDD0C5CC0001200632333036313130301E430101245107200394
:2041C000000102030404F0090806070809020406088694000452FF01E34E90142004000035
:1E41E0004293000854F003164C00002000012002957800082C4383783C210103010017
:205000002043533131313020323330363136303020473233303230300000000000000000D7
:125020000000000000000000000000000000000000007E
:205034002DE9F0476C240025DFF8FC662A0021003000FFF773F840F61C060027DFF8EC867D
:205054003A0031004046FFF769F84FF423685FF00009DFF8DCA64A4641465046FFF75EF87C
:2050740000F014F8002804D00320DFF8C816487003E00220DFF8BC164870DFF8A806002188
:205094008170007801F02CFEBDE8F0872DE9F0475FF0000800240025DFF88866320018213F
:2050B400002001F0A7FE07003800C0B2002810D05FF000085FF000091421300001F0B6FFB3
:2050D400716902000B0092B29BB29A4201D000221700320018214FF4807001F08BFE804680
:2050F4004046C0B200280FD000245FF000091421300001F09BFF716902000B0092B29BB2B9
:205114009A4201D00022904658EA0700C0B2002821D118245FF00009B2464A46210050462E
:20513400FEF7FCFF0020B070002070700120B081C0207071A820B0710120F07116203072D5
:205154000120F07000203071002030703220306100F068F826E03800C0B201280FD14046C7
:20517400C0B200280BD132001821002001F042FE320018214FF4807001F003FF12E038002E
:20519400C0B200280ED14046C0B201280AD1320018214FF4807001F02DFE32001821002041
:2051B40001F0EFFE01F066FF45F25550DFF8B01C0A88824208D14A88737A9BB29A4203D13D
:2051D4008A88B3899A4206D00880B089888001F0D5FF02F000F83800C0B2012805D1404614
:2051F400C0B2012801D1012005002800C0B2BDE8F08710B50024DFF8D82D3C214FF4C870B5
:2052140001F0F8FDC0B210BDF8B504000D00160000273200290089B2200080B201F0EAFD9A
:20523400C0B2F2BD70B50024DFF8F864002070611421300001F0FAFE706132001821002022
:2052540001F09FFE0500320018214FF4807001F098FEC0B270BD38B50024DFF8745D00200A
:20527400A8633821280001F0E1FEA8632A003C214FF4C87001F085FEC0B232BDF8B504002B
:205294000D00160000273200290089B2200080B201F077FEC0B2F2BD70B5DFF8344DA51D02
:2052B400DFF8306D280000F012F83080280000F037F82080321D322133884FF48070434397
:2052D40013F58063180080B2FFF79EFF70BD30B4010080240020002200250023180080B268
:2052F40032281ADA002002001000C0B2082812DA180080B2085C204202D0280080B20DE063
:20531400E4B264086D1C2000C0B2002801D180200400521CE8E75B1CE0E7002030BC704780
:2053340030B40100802400200025002200231D00ADB2322D17DA00252A001500EDB2082D42
:205354000FDA1D00ADB24D5D254200D0401CE4B264082500EDB2002D01D180252C00521C93
:20537400EBE75B1CE3E780B230BC704730B4010080240020002200250023180080B232287A
:205394001ADA002002001000C0B2082812DA180080B2085C204202D1280080B20DE0E4B285
:2053B40064086D1C2000C0B2002801D180200400521CE8E75B1CE0E7002030BC704710B5B1
:2053D4008AB0040002A82021FEF7DCFE207A0190E0790090A3796279DFF83C1D02A801F0EB
:2053F4003DFF00200090002302AA1E2141F2100002F05AF8207A0190E0790090A37962790D
:20541400DFF8181D02A801F029FF00200090002302AA142141F2300002F046F80AB010BDDB
:205434002DE9F84F94B004000D000026002750210022E8464046FEF771FE002194F813806E
:20545400D5F81008401CC5F8100885F80B884046C0B200285CD04046C0B2012849D1D5F8BE
:205474001408401CC5F814080020C5F818085FF0080914F1140AEB464A465146584602F05F
:20549400A3F9D5F8140802280DD1012085F80C085FF00809EA4605F6020B4A46514658465C
:2054B40002F092F947E0D5F81408032843D3022085F80C08002007003800C0B208283ADA42
:2054D4003800C0B2284490F8020869463A00D2B2895C88420BD00020C5F81408D5F8180833
:2054F4000C30C5F81808042085F80C0823E07F1CE2E70020C5F81408D5F818080C30C5F884
:205514001808042085F80C08082085F80D0812E0D5F81808401CC5F81808D5F818080C28AF
:2055340009D380488078002802D10020C5F81408042085F80C083000C0B215B0BDE8F08F87
:205554002DE9F8438AB004000D0002A82021FEF719FE5FF000090026DFF8D081D8F8140812
:2055740002F094F90700D8F8100802F08FF90100380002F099F9DFF83C1D02F013FA02F051
:205594007DFA0700E868C0000BD5DFF82C0DC06802F07CFB0200524260A102A801F05EFE5A
:2055B40009E0DFF8140DC06802F070FB02005BA102A801F053FE00200090012302AA0821DE
:2055D40041F2102001F070FF98F80B28DFF8EC1C02A801F043FE00200090002302AA0321D3
:2055F40041F2502001F060FFD8F810284CA102A801F034FE00200090012302AA06214FF4F8
:20561400915001F051FF3A0092B2642092FBF0F100FB11220A23BC461FFA8CFC5FF0640E25
:20563400380080B24FF47A7192FBF3F803FB182201929CFBFEF20EFB12CC0A229CFBF2F266
:20565400009290FBF1F201FB1200642190FBF1F3380080B24FF47A7190FBF1F2DFF89C1D9E
:2056740002A801F0FBFD00200090012302AA062141F2302001F018FF3000C0B20BB0BDE84F
:20569400F08370B504000025DFF82C6CF06802F0FDFA0100B068401A70BD18B599B00400CB
:2056B4002000C0B201280FD111A8DFF8541D202202F09AF800200090012311AA20214FF461
:2056D400935001F0F1FE26E02000C0B202280FD109A8DFF8301D202202F086F8002000901A
:2056F400012309AA20214FF4935001F0DDFE12E02000C0B204280ED101A8DFF80C1D202212
:2057140002F072F800200090012301AA20214FF4935001F0C9FE1AB010BD000025646700F4
:20573400256400008C2700200C250020000B0020D0000020DC2700201FB5040001A80821C0
:20575400FEF720FD607E002808D0022879D03ED3042800F0ED80C0F0AF8025E100200090A3
:20577400002301AA08214FF4835001F09DFE00200090002301AA082141F2700001F094FEAF
:2057940000200090002301AA08214FF4845001F08BFE00200090002301AA082141F2900053
:2057B40001F082FE4FF44151022001F054FE43F25001022001F04FFE43F26001022001F09B
:2057D4004AFE43F27001022001F045FEECE000200090002314F1280208214FF4835001F073
:2057F40063FE00200090002301AA082141F2700001F05AFE00200090002301AA08214FF4B7
:20581400845001F051FE00200090002301AA082141F2900001F048FE4FF44151002001F0D9
:205834001AFE43F25001022001F015FE43F26001022001F010FE43F27001022001F00BFE17
:20585400B2E000200090002314F1280208214FF4835001F029FE00200090002314F130023F
:20587400082141F2700001F01FFE00200090002301AA08214FF4845001F016FE00200090C7
:20589400002301AA082141F2900001F00DFE4FF44151002001F0DFFD43F25001002001F0E5
:2058B400DAFD43F26001022001F0D5FD43F27001022001F0D0FD77E000200090002314F1CD
:2058D400280208214FF4835001F0EEFD00200090002314F13002082141F2700001F0E4FDC7
:2058F40000200090002314F1380208214FF4845001F0DAFD00200090002301AA082141F2A0
:20591400900001F0D1FD4FF44151002001F0A3FD43F25001002001F09EFD43F260010020B6
:2059340001F099FD43F27001022001F094FD3BE000200090002314F1280208214FF4835026
:2059540001F0B2FD00200090002314F13002082141F2700001F0A8FD00200090002314F14F
:20597400380208214FF4845001F09EFD00200090002314F14002082141F2900001F094FD85
:205994004FF44151002001F066FD43F25001002001F061FD43F26001002001F05CFD43F280
:2059B4007001002001F057FD1FBD2DE9F34F8BB004000026002500208DF802000027002051
:2059D4008DF8000000200290B4F80500ADF804005FF0040814F109090DF1080A4246494689
:2059F400504601F0F1FEBDF804004FF6FF71884208D0BDF80400DFF82C1E8989884201D086
:205A1400002028E2DFF8B45BB4F80300A5F82A0A00202880E0798DF801009DF801001F285E
:205A340002D1207A8DF801009DF8010085F8270A002085F8230A002085F8240AA078002846
:205A540002D1B4F8096003E0BDF83000B0F10B069DF80100042813D0202833D021286DD05A
:205A7400222800F06A81232800F0AB81252877D0F72810D0F8281AD0FF2800F0C581D6E1D5
:205A9400300080B2002805D12A000021002000F0E9F92880CBE1300080B2002806D12A0076
:205AB4003221DFF8840D00F0DDF92880BFE1300080B2002806D12A000C21DFF8700D00F00D
:205AD400D1F92880300080B2072837D1A07A002808D0A07A0A2802D1E07A002802D0E07AC0
:205AF40001281ED1DFF83C7D607AB872A07A3870E07A38715FF0040814F10C0917F1100A8A
:205B140042464946504601F05FFE002085F8230A002085F8240AFFF785FB387801F0E0F8F2
:205B340005E0012085F8230A042085F8240ADFF8F42C2900002000F069FC2880300080B233
:205B540000280CD1002085F8230A002085F8240ADFF8D02C2900012000F058FC288066E147
:205B7400300080B20D28C0F2E780607B182880F2D280607B2044807B242880F2CC804820D6
:205B94000A9000200990DFF8A87CB846099A0A994046FEF7C3FA607B401C089014F10D0046
:205BB400079017F10108089A0799404601F00CFE3900607B20440E3000F002FD78760420AF
:205BD4000690607B2044617B2144897B08440F30059017F12008C146069A0599484601F083
:205BF400F3FD02200490607B2044617B2144897B08441330039017F11C09CA46049A0399CE
:205C1400504601F0E1FD607B2044617B2144897B0844407DB876DFF81CACDFF81CBC1822C8
:205C3400791C584602F05EF8002821D1082217F128011AF1340002F055F8002818D10422AB
:205C540041461AF12C0002F04DF8002810D1022249461AF1280002F045F8002808D10122F9
:205C740017F11A011AF1260002F03CF8002834D018200790781C0690079A0699584601F0A2
:205C9400A3FD04200590CDF810801AF12C08059A0499404601F098FD5FF00208CDF80C9001
:205CB4001AF1280942460399484601F08DFD5FF001091A371AF1260B4A463900584601F029
:205CD40083FD1AF10C01607B20440E3000F078FC8AF8250001208AF80C00002085F8230A17
:205CF400002085F8240A0120DFF8501B0870DFF8240E0068DFF8201E0860DFF8200E01787E
:205D1400032902D001780D290BD10178142908D00021417005E0012085F8230A042085F835
:205D3400240ADFF89405C06801F0B0FF02000299280000F0C5FA288079E0300080B21528D5
:205D54003ED1207F8DF80000DFF8D41D14F10A0000F0E8FE002822D09DF8000000281ED189
:205D7400042714F11608DFF8CC9A19F15C0A3A004146504601F028FD022089F85500A07E91
:205D9400C9F80400A07E89F86100E07E89F86000002085F8230A002085F8240A0AE001204B
:205DB400DFF8901A81F85500012085F8230A042085F8240A2A000021002000F053F8288098
:205DD40035E0300080B202281DDBA07D8DF80000DFF84C1D14F10A0000F0A4FE00280CD08F
:205DF4009DF80000002808D1002085F8230A002085F8240A012085F8260A2A00002100202B
:205E140000F030F8288012E0300080B202280EDB002085F8230A002085F8240A012085F814
:205E3400260A2A000021002000F01CF82880288800280FD19DF8020000280BD1012085F816
:205E5400230A042085F8240A2A000021002000F009F8288028880DB0BDE8F08F000000009D
:205E7400A42700202DE9F84F05000E00170000245FF000087E20210089B239448870641C32
:205E94005520210089B239448870641C0020210089B239448870641CDFF888098189220023
:205EB40092B23A449170641C808980B2000A210089B239448870641CB7F82A0A210089B2B6
:205ED40039448870641CB7F82A0A80B2000A210089B239448870641C1F20210089B2394431
:205EF4008870641C97F8270A210089B239448870641C3000C0B2F1281BDB200080B2384486
:205F14008670641C0020210089B239448870641CB1465FFA89F9AA46200080B2384410F1F5
:205F3400020B4A465146584601F04EFC54FA86F434E097F8230A00280ED1B1465FFA89F9CF
:205F5400AA46200080B2384410F1020B4A465146584601F039FC0EE0B1465FFA89F95FF067
:205F7400000A200080B2384410F1020B524649465846FEF7D3F854FA86F497F8230A2100FD
:205F940089B239448870641C97F8240A210089B239448870641C2000401E3871210089B22C
:205FB400891E381D01F042F80100200080B238448170641C080080B2000A220092B23A443E
:205FD4009070641C3C802000C0B2BDE8F28F00009C260020442700202DE9F84F04000D00DE
:205FF40016005FF0000B00277E20594689B2294488701BF1010B5520594689B2294488704D
:206014001BF1010B0020594689B2294488701BF1010BDFF8100881895A4692B22A44917091
:206034001BF1010B808980B2000A594689B2294488701BF1010BB5F82A0A594689B2294470
:2060540088701BF1010BB5F82A0A80B2000A594689B2294488701BF1010B2220594689B28C
:20607400294488701BF1010B0020594689B2294488701BF1010B5FF00808A146584680B202
:20609400284410F1020A42464946504601F09CFB1BF1080B584680B2284486701BF1010BD5
:2060B4003000000A594689B2294488701BF1010B3000000C594689B2294488701BF1010BA8
:2060D4003000000E594689B2294488701BF1010B5846401E2871594689B2891E281D00F0CC
:2060F400A5FF8246594689B2891E281D00F09EFF0100584680B2284481701BF1010B5846E9
:206114000A0092B2120A03009BB22B449A70401C2880C0B2BDE8F28FD0E400082CE50008C7
:206134002DE9FE4F04000D0016001F00DDF830805FF0000B0020ADF804007E20594689B282
:20615400314488701BF1010B5520594689B2314488701BF1010B0020594689B2314488706B
:206174001BF1010BDFF8BC0681895A4692B2324491701BF1010B808980B2000A594689B2BE
:20619400314488701BF1010BB6F82A0A594689B2314488701BF1010BB6F82A0A80B2000A07
:2061B400594689B2314488701BF1010B2320594689B2314488701BF1010B0020594689B2D0
:2061D400314488701BF1010B5FF008090095584680B2304410F1020A4A460099504601F030
:2061F400F3FA1BF1080B584680B2304487701BF1010B3800000A594689B2314488701BF197
:20621400010B3800000C594689B2314488701BF1010B3800000E594689B2314488701BF122
:20623400010B584680B2304480F802801BF1010B4046000A594689B2314488701BF1010BF9
:206254004046000C594689B2314488701BF1010B4046000E594689B2314488701BF1010B46
:20627400584680B2304484701BF1010B5846401E3071594689B2891E301D00F0D7FE8246C2
:20629400594689B2891E301D00F0D0FE0100584680B2304481701BF1010B58460A0092B224
:2062B400120A03009BB233449A70401C3080C0B2BDE8FE8F00401C468C240020D0E50008FE
:2062D4002DE9F84304000D00160000275FF000087E20390089B2214488707F1C55203900FC
:2062F40089B2214488707F1C0020390089B2214488707F1CDFF82C0581893A0092B22244D5
:2063140091707F1C808980B2000A390089B2214488707F1CB4F82A0A390089B2214488706B
:206334007F1CB4F82A0A80B2000A390089B2214488707F1C94F8270A390089B22144887098
:206354007F1C0020390089B2214488707F1C380080B2204485707F1C2800000A390089B2FE
:20637400214488707F1C2800000C390089B2214488707F1C2800000E390089B2214488706A
:206394007F1C380080B2204486707F1C3000000A390089B2214488707F1C3000000C3900D4
:2063B40089B2214488707F1C3000000E390089B2214488707F1C3800401E2071390089B251
:2063D400891E201D00F032FE8146390089B2891E201D00F02BFE0100380080B220448170AD
:2063F4007F1C080080B2000A3A0092B2224490707F1C27803800C0B2BDE8F28338E500089B
:206414003CE400085CE400087CE400082DE9F84F80460D001600002400277E20210089B205
:2064340029448870641C5520210089B229448870641C0020210089B229448870641CDFF875
:20645400E4038189220092B22A449170641C808980B2000A210089B229448870641CB5F8AF
:206474002A0A210089B229448870641CB5F82A0A80B2000A210089B229448870641C1F20F6
:20649400210089B229448870641C95F8270A210089B229448870641C0020210089B22944BF
:2064B4008870641C4046C0B2002848D0B07A210089B229448870641C3078210089B229443C
:2064D4008870641C3079210089B229448870641C3069210089B229448870641C3069000AC9
:2064F400210089B229448870641C3069000C210089B229448870641C3069000E210089B25E
:2065140029448870641C5FF00809DFF8A8A8200080B2284410F1020B4A465146584601F079
:2065340053F908340020210089B229448870641C0020210089B229448870641C1CE05FF0B2
:206554000809DFF870A8200080B2284410F1020B4A465146584601F037F9083495F8230A7F
:20657400210089B229448870641C95F8240A210089B229448870641C2000401E2871210092
:2065940089B2891E281D00F051FD8146210089B2891E281D00F04AFD0100200080B228447D
:2065B4008170641C20000A0092B2120A03009BB22B449A70401CC0B2BDE8F28FD00000201F
:2065D4002DE9F84F88B004000D007C208DF801005FF000095FF0000A5FF00008002604218C
:2065F400002201AF3800FDF799FD20788DF8000000279DF800003900C9B288420FD3380082
:20661400C0B2205C9DF80110884206D118F1010801A83100C9B24754761C7F1CE9E74046AC
:20663400C0B200281ED1607800280BD1A078002808D1E078002805D12079002802D10520B9
:206654008046BCE09DF800009DF80490B0EB090914F1010A15F1280B4A465146584601F05A
:20667400B3F8ACE04046C0B201281FD19DF80490B9F10109601C039015F1280A4A4603996E
:20669400504601F0A1F89DF800009DF804A0B0EB0A0A9DF804002044401C029015F1300B1D
:2066B40052460299584601F08FF888E04046C0B2022835D19DF80400401E0590601C049051
:2066D40015F12809059A0499484601F07DF80DF1040B9BF801009DF80490B0EB0909B9F11E
:2066F40001099DF804002044401C039015F1300A4A460399504601F067F89DF800009BF816
:2067140001A0B0EB0A0A9BF801002044401C029015F1380B52460299584601F055F84EE0A9
:206734004046C0B203284AD19DF80400401E0790601C069015F12809079A0699484601F071
:2067540043F80DF1040999F801009DF804A0B0EB0A0ABAF1010A9DF804002044401C0590C1
:2067740015F1300B52460599584601F02DF899F8020099F801B0B0EB0B0BBBF1010B99F80B
:2067940001002044401C049015F1380002905A460499029801F018F802989DF8001099F818
:2067B4000200091A039199F802002044401C029015F14009039A0299484601F005F818F11B
:2067D40001084046C0B209B0BDE8F08F10B5040060782178884223D0607820706078142854
:2067F40008D1DFF8D40500780A2803D1142000F01FFE15E020780D2809D1DFF8BC05007891
:206814000A2804D1207880B200F012FE08E02078DFF8A415097851FA80F080B200F008FE1F
:2068340010BD00008C27002000500008E8F7FF1F182600200C25002019250020E727002014
:206854002DE9F04391B004000D00160001A82021FDF798FC09A82021FDF794FC5FF0000933
:20687400DFF858854046FEF70CFF07003078002808D0012864D0022800F04981142800F0AE
:20689400458144E1DFF8388598F80C00012842D118F10C00FEF750FF002000900123A21CA2
:2068B4000C214FF4825000F0FFFD60780D280ADB00200090012314F10E020C214FF4B25049
:2068D40000F0F2FD08E000200090012309AA0C214FF4B25000F0E8FD01A9206A00F03BF9B7
:2068F40000200090012301AA05214FF4885000F05BFEA28BDFF8CC1401A800F0AFFC002033
:206914000090012301AA0A2141F2101000F0CCFD022088F80C00002000900023DFF8A824A9
:2069340008214FF4995000F0BFFD002000900023DFF898240E2141F2500000F0B5FDE6E0C2
:20695400DFF87C9499F80C00012842D119F10C00FEF7F2FE002000900123A21C0C214FF466
:20697400825000F0A1FD60780D280ADB00200090012314F10E020C214FF4B25000F094FDD5
:2069940008E000200090012309AA0C214FF4B25000F08AFD01A9206A00F0DDF800200090E2
:2069B400012301AA05214FF4885000F0FDFDA28BDFF8101401A800F051FC002000900123E7
:2069D40001AA0A2141F2101000F06EFD022089F80C00002000900023DFF8F023122141F24D
:2069F400504000F061FD002000900023DFF8D82308214FF4995000F057FDD8F80C0001F09A
:206A140045F9D8F80810814215D34046FEF739FEB249096988420ED3DFF8B4130878002881
:206A340009D1206A00FB07F0A28BB0FBF2F060620120087014E0DFF89803007800280BD0F6
:206A54004046FEF71EFE0700206A00FB07F0A18BB0FBF1F0606203E00020070000206062A2
:206A7400002F03D500200700002060623A00D0A101A800F0F3FB00200090002301AA05211C
:206A94004FF4895000F090FD01A9606A00F063F800200090012301AA082141F2301000F07F
:206AB40083FDDFF83882D8F81020CA4901A800F0D5FB00200090012301AA08214FF49A5060
:206AD40000F0F2FC01A9D8F81020206A4243A08BB2FBF0F000F03FF800200090012301AAAD
:206AF40007214FF49B5000F0DFFC01A9D9F85C00626A101800F02FF800200090012301AA00
:206B140008214FF48A5000F04FFD00E0FFE711B0BDE8F083D0270020BC270020DC27002003
:206B34000213002030B402000120002300242300DBB2082B0CDA2300DBB2D35C2500EDB252
:206B54004D5DAB4202D00023180001E0641CEEE7C0B230BC7047F8B584B004000D00B4F597
:206B74007A7F1AD26420B4FBF0F100FB11400A216422B0FBF1F301FB13000090B4FBF2F04C
:206B940002FB10420A20B2FBF0F36420B4FBF0F29149280000F062FB9EE0B4F57A7F29D358
:206BB40042F21070844225D26420B4FBF0F100FB11400A2164224FF47A73B0FBF1F601FB81
:206BD40016000190B4FBF2F002FB10420A20B2FBF0F00090B4FBF3F003FB10436420B3FBBE
:206BF400F0F34FF47A70B4FBF0F27C49280000F035FB71E042F21070844231D378498C4275
:206C14002ED26421B4FBF1F201FB12410A2264234FF47A76B1FBF2F702FB17110291B4FB18
:206C3400F3F103FB11430A21B3FBF1F10191B4FBF6F106FB11466421B6FBF1F10091B4FB77
:206C5400F0F100FB11404FF47A71B0FBF1F342F21070B4FBF0F26349280000F0FFFA3BE019
:206C74005F498C4238D3604A944235D26422B4FBF2F302FB13420A2364264FF47A77B2FBF4
:206C9400F3FC03FB1C220392B4FBF6F206FB12460A22B6FBF2F20292B4FBF7F207FB1247E8
:206CB4006422B7FBF2F20192B4FBF0F200FB12404FF47A72B0FBF2F00090B4FBF1F001FB5B
:206CD400104142F21070B1FBF0F34548B4FBF0F24649280000F0C2FA05B0F0BD8C27002056
:206CF40038B504002000C0B20A282AD14FF6FF75290042F2100000F0C3FB29004FF401503F
:206D140000F0BEFB290042F2500000F0B9FB290042F2101000F0B4FB290042F2300000F0CC
:206D3400AFFB290042F2702000F0AAFB29004FF4195000F0A5FB290042F2303000F0A0FB66
:206D54002CE0002142F2100000F09AFB00214FF4015000F095FB002142F2500000F090FBD4
:206D7400002142F2101000F08BFB002142F2300000F086FB002142F2702000F081FB0021AC
:206D940042F2200000F07CFB00214FF4195000F077FB002142F2203000F072FB144800781F
:206DB40005490978081880B200F042FB31BD000025640000200000208C2700208C24002017
:206DD4000C250020D8E500086C27002000000020E6270020E0E50008E8E5000844E50008B6
:206DF400A086010050E5000840420F00ECE40008DC2700202DE9F04104000D0016005FF0D2
:206E140001080027280080B2002860D000F0CCFF002801D1002080464046C0B2002808D0E9
:206E3400A02001F056F801F033F8002801D1002080464046C0B2002808D0200080B2000AEF
:206E5400C0B201F046F801F023F880464046C0B2002806D02000C0B201F03BF801F018F8FE
:206E740080464046C0B2002805D000F09DFF002801D1002080464046C0B2002808D0A1201E
:206E940001F027F801F004F8002801D1002080466D1E4046C0B2002817D000200700380010
:206EB400290080B289B2884208D201F037F8390089B2705400F0BCFF7F1CF0E701F02EF8F8
:206ED400390089B2705400F0CBFF00F099FF4046C0B2BDE8F0812DE9F04104000D001600A8
:206EF40000275FF00108280080B2002842D000F05BFF002801D1002080464046C0B2002821
:206F140008D0A02000F0E5FF00F0C2FF002801D1002080464046C0B2002808D0200080B216
:206F3400000AC0B200F0D5FF00F0B2FF80464046C0B2002806D02000C0B200F0CAFF00F065
:206F5400A7FF8046002007003800290080B289B288420DD24046C0B2002807D0380080B2B2
:206F7400305C00F0B6FF00F093FF80467F1CEBE700F046FF052000F00EFF4046C0B2BDE823
:206F9400F0812DE9F04704000D00160000275FF000085FF0000A200010F03F0F1BD014F0C4
:206FB4003F00D0F1200007002800390080B289B2884200D22F00404680B206EB0002390019
:206FD40089B218EB040080B2FFF785FF8146ED1B17EB080801E05FF001094846C0B200286C
:206FF4001FD0280080B200281BD0202007002800390080B289B2884200D22F00404680B289
:2070140006EB0002390089B218EB040080B2FFF762FF8146ED1B17EB08084846C0B200285C
:20703400DFD14846C0B2BDE8F087000070B403000022002400264FF6FF7000258D4214D24F
:207054005A5D504000221600082E0CD2C20706D580B2020048F2084090EA520001E080B250
:207074004008761CF0E76D1CE8E780B2C04380B270BC70472DE9FE430025002608210022BC
:207094006C462000FDF74AF80027644C2200082147F6F870FFF7AEFE05002800C0B20028A4
:2070B40014D05FF000085FF0000906212000FFF7BDFFE18802000B0092B29BB29A4202D07B
:2070D4000022150001E00122150007E0322000F062FE7F1C3800C0B20328D6DB5FF000084B
:2070F4006A4608214FF4FC40FFF784FE06003000C0B2002814D000275FF0000906216846A4
:20711400FFF794FFBDF8061002000B0092B29BB29A4202D00022160001E00122160008E081
:20713400322000F038FE18F101084046C0B20328D6DB55EA0600C0B2002809D14AF6AA201A
:2071540020800220608000F019F800F044F813E03000C0B2002802D100F03DF80CE0280083
:20717400C0B2002808D10827E9463A004946200000F02AFB00F002F8BDE8F78370B50024DA
:207194000025264E0020F08006213000FFF74EFFF0803200082147F6F870FFF7F2FE0400BE
:2071B4002000C0B2002806D0320008214FF4FC40FFF7E7FE04002000C0B2002808D132208D
:2071D40000F0E9FD6D1C2800C0B20328E1DBFFE72000C0B270BD70B5002400250F4E00202B
:2071F400F08006213000FFF721FFF080320008214FF4FC40FFF7C5FE04002000C0B20028DD
:2072140008D1322000F0C7FD6D1C2800C0B20328ECDBFFE72000C0B270BD0000A4270020D6
:2072340030B4002513E050F8042BD30744BFA9F101039A18091F042942F8045BFAD2134687
:207254008C0744BF15809B1CC90748BF1D7050F8041B0029E7D130BC704700000CB430B544
:2072740083B00A4606A90291044600250194009502AB01A9084878441E3000F07BFE019AE7
:20729400157000284EBF04460198041B204603B030BC5DF80CFB00BF0F0800002DE9FE4F84
:2072B4005020029000200190DFF80045019A02992000FCF733FF502000900024DFF8F05431
:2072D4002E00220000993000FCF728FF4FF484760027DFF8E084C1463A0031004846FCF7D5
:2072F4001DFF5FF002095FF0000ADFF8CCB4524649465846FCF712FF5FF4E13001F09EFE9A
:20731400012001F0F1FE4FF4907118F1010001F025FF4FF4907115F1080001F062FF5FF4FE
:207334000030DFF8981408604FF49070DFF890140860DFF89004016851F001010160BDE8DB
:20735400F78FF0B40400002000255A260700FFB2DE55401CA5260700FFB2DE55401CFF26A8
:207374000700FFB2DE55401C82260700FFB2DE55401C2600B6B2360A0700FFB2DE55401CAE
:207394000600F6B29C55401C00263500EDB21700ADB2BFB2BD4208D23500EDB24D5D07009F
:2073B400FFB2DD55401C761CEFE7C51E9D70C0B2F0BC7047F0B40400002000255A260700D9
:2073D400FFB2DE55401CA5260700FFB2DE55401CFF260700FFB2DE55401C82260700FFB27B
:2073F400DE55401C2600B6B2360A0700FFB2DE55401C0600F6B29C55401C00263500EDB2E0
:207414001700ADB2BFB2BD420DD200250700FFB2DD55401C3500EDB24D5D0700FFB2DD55C0
:20743400401C761CEAE7C51E9D70C0B2F0BC704770B50400DFF87C536E1C3100200080B2D8
:2074540000F032F985F8010195F8011189B2300001F06AFE70BDF8B504000D00D54E771C7A
:207474003A00290089B2200080B200F058F986F8010196F8011189B2380001F055FEF1BD42
:2074940073B50400CB4D6E1C3300022201A9E01C80B2FFF756FF85F8010195F8011189B237
:2074B400300001F041FE73BD2DE9F14F8AB00D0016001F00149C202100220DF104084046B3
:2074D400FCF72CFE5FF0000A5FF00008300001F013FF814628004946C0B2C9B288420CD285
:2074F400A946CA465FFA8AFA00960DF1040B52460099584600F068F93EE0202000905FF09C
:20751400200A0DF1040B524600995846FCF706FE3800C0B2002813D15FEAC97008D529001C
:20753400C9B24846C0B2091A491C4910884615E02900C9B24846C0B2091A491088460DE03D
:207554003800C0B2012801D1A04607E03800C0B2022803D1281BB0EB09008046CA465FFAE7
:207574008AFA009601A84146C9B200EB010B52460099584600F028F9DFF838A21AF1010B93
:207594005B462A00D2B292B201A9BDF82800FFF7D8FE8AF801019AF8011189B2584601F0FF
:2075B400C3FD0BB0BDE8F08F2DE9F14F8AB00D0016001F00149C202100220DF104084046A3
:2075D400FCF7ACFD5FF0000A5FF00008300001F093FE814628004946C0B2C9B288420CD286
:2075F400A946CA465FFA8AFA00960DF1040B52460099584600F0E8F83EE0202000905FF01C
:20761400200A0DF1040B524600995846FCF786FD3800C0B2002813D15FEAC97008D529009C
:20763400C9B24846C0B2091A491C4910884615E02900C9B24846C0B2091A491088460DE03C
:207654003800C0B2012801D1A04607E03800C0B2022803D1281BB0EB09008046CA465FFAE6
:207674008AFA009601A84146C9B200EB010B52460099584600F0A8F8DFF838A11AF1010B14
:207694005B462A00D2B292B201A9BDF82800FFF791FE8AF801019AF8011189B2584601F045
:2076B40043FD0BB0BDE8F08F10B4020000205A230400E4B20B55401CA5230400E4B20B551C
:2076D400401CFF230400E4B20B55401C82230400E4B20B55401C00230400E4B20B55401C4E
:2076F40084230400E4B20B55401C5A230400E4B20B55401C01230400E4B20B55401C130019
:207714009BB21B0A0400E4B20B55401C0300DBB2CA54401CC31E8B70C0B210BC704730B4CE
:20773400030000205A240500EDB25455401CA5240500EDB25455401CFF240500EDB2545509
:20775400401C82240500EDB25455401C0C00A4B2240A0500EDB25455401C0400E4B2115531
:20777400401C1C00A4B2240A0500EDB25455401C0400E4B21355401CC41E9470C0B230BCAE
:207794007047F8B504000D000A4E771C3A00290089B2200080B2FFF7C2FF86F8010196F8C0
:2077B400011189B2380001F0BFFCF1BDC82500207825002084230020DC27002004000240DC
:2077D4005C0002405800024062B38B0708D0521E11F8013B00F8013B00F024808B07F6D108
:2077F400830740F0208000BF103A07D330B4B1E83810103AA0E83810F9D230BC530724BF65
:20781400B1E80810A0E8081044BF51F8043B40F8043BD20724BF31F8022B20F8022B44BFA7
:207834000B7803707047121F17D35B0009D151F8043B20F8023B1B0C121F20F8023BF6D2E5
:207854000BE051F8043B00F8013B1B0A20F8023B1B0C121F00F8013BF3D238BF121D521E0C
:2078740024BF11F8013B00F8013BF8D87047B1F5807F02D34FF0FF30704701700120704729
:207894000078401E8041C043C00F704700280AD0B0FA80F18840D1F19D01C905020672F136
:2078B400004241EB1020704710B5FF2313EAD0541DBF13EAD1529C429A4239E0A41ADA07E9
:2078D40080EA0103134042EA012142EA0020421A3CBF641E01EB4202090AB2FBF1FE01FB85
:2078F4001E221202B2FBF1F001FB10226EF30F201202B2FBF1FE4EEA00207F3406DDFE2C0C
:2079140024DA53EA500050EBC45010BDD4F1020401FB1E2240F08071192C1DDC21FA04F037
:20793400C4F12004A140114371F10042584110BD9C421ABF03EAD1529A420FE080EA010E10
:207954000EF00043400004D0490016D143F0FF4010BD490008BFD343180010BD9C4205D190
:20797400D21AF7D001F00041484010BD4A0212BF0846484000F0004010BD4AB90902B1FA10
:2079940081F2914044B1A418C00140F000409EE7C90141F0004152420002B0FA80F4A04058
:2079B400141B94E7FF2212EAD05C1DBF12EAD153944593422BE09C44D30780EA01021A408A
:2079D40043EA002043EA0121A1FB0030C04238BF40007CF17F010BDBFE294ADA5B0842EA45
:2079F400C15153EA006373F1004C51EB10207047D1F1080CDCF120012FDB5B0810FA01F1C1
:207A14000B4320FA0CF073F100415041704794451CBF02EAD153934280EA010202F00042C7
:207A34001DD0400019D0490017D05BB9634514D00902B1FA81F39940BCEB030CC00140F0A2
:207A54000040C1E70002B0FA80FC10FA0CF0B3EB0C0CC90141F00041B6E710007047400066
:207A74000AD0490008D010F1807F94BF11F1807F02E042F0FF407047D0437047C0F3C75104
:207A94007E390EDDC217D1F1200106DD000240F00040C840104450407047D04380F00040B9
:207AB4007047002070470268531C03601170704780B54FF4165001F03BFC01F07FFC01211C
:207AD400012001F092FC00208349087001BD4A78002A06D0012A0DD0032A17D0042A25D0CF
:207AF40038E00200D2B27E2A03D181F8220001224A702FE00200D2B2FF2A04D181F82300B1
:207B140003224A7001E000224A7023E00200D2B2052A08DB04224A7081F8210081F8240003
:207B34000322CA7001E000224A7013E0CA78531CCB70D2B20A4482F8220091F82120D21C10
:207B5400CB789A4204DA00224A7001220A7001E000220A7070472DE9F04104000D001600F9
:207B74001F005FF000087E204146C9B2785418F10108FF204146C9B2785418F101080620D8
:207B94004146C9B2785418F101084046C0B23C5418F101084046C0B23D5418F1010830008C
:207BB40080B2000A4146C9B2785418F101084046C0B23E5418F101080621781C00F006F850
:207BD40018F103084046C0B2BDE8F08130B40023002214000D00E4B2EDB2AC4205D2140017
:207BF400E4B2045D1B19521CF3E79BB25B421C00A4B2240A1500EDB244551400E4B2044435
:207C14006370EF241500EDB20544AC7030BC704770B40100002000250022002401238D78D5
:207C34001E00F6B2B54205D31D00EDB24D5D52195B1CF4E71D00EDB24E5D1D00EDB20D4404
:207C54006D7855EA0625AA181600B6B2002E01D101242000C0B270BC70472DE9F04104009C
:207C74000D0016001C4F17F10A084346320092B22900C9B22000C0B2FFF76DFF7872797AD4
:207C940089B2404601F0C9FBBDE8F0812DE9F04106000027C6F303583003000B01F0DCFBB6
:207CB40004000D00404601F0D7FB02000B0000200A4901F0DFFB02000B002000290001F0C4
:207CD40085FF0022064B02F0A5F802F075F9F10000D54042BDE8F081D826002000002440CA
:207CF40000408F400300002013F0030F09D0521E22BF13F8010B11F801CBB0EB0C00F3D0A9
:207D1400704711F0030F14D1121F22BF53F8040B51F804CB6045F7D0121D0AD200BA9CFA55
:207D34008CFCB0EB0C0038BF6FF0000088BF01207047521E22BF13F8010B11F801CBB0EBB3
:207D54000C00F6D0521C08BF104670471CB5042100226C462000FCF7E1F903208DF802009A
:207D740014208DF8030081488188ADF800106946006802F035F97E488188ADF80010694642
:207D9400006802F02DF913BD002064210800411E0028FBD170474FF420514843401C01002C
:207DB400481E0029FBD1704710B5704CA088216808616F48818800680161FFF7E5FF206816
:207DD4008068002801D1012000E00020217911F00101084201D0002011E0A0882168486169
:207DF400FFF7D2FF20688068A188084201D0002005E0A08821684861FFF7C6FF012010BDEC
:207E140038B55B4CA08821684861FFF7BDFF574DA88829684861FFF7B7FFA08821680861DA
:207E3400FFF7B2FFA88829680861FFF7ADFF31BD10B54F4CA08821684861FFF7A5FF4B48E6
:207E5400818800684161FFF79FFFA08821680861FFF79AFFA08821684861FFF795FF10BD0D
:207E740010B5434CA08821684861FFF78DFF3F48818800680161FFF787FFA08821680861CE
:207E9400FFF782FFA08821684861FFF77DFF10BD38B5374CA08821684861FFF775FF334D0A
:207EB400A88829680861FFF76FFFA08821680861FFF76AFF28688068A988084204D0A088B8
:207ED40021684861002003E0A08821684861012032BD70B5040008252800451EC0B2002874
:207EF40017D0234EB08831684861200604D51F4881880068016103E01C4881880068416109
:207F1400FFF742FFB08831680861FFF73DFF6400E2E7174881880068416170BDF8B5082405
:207F34000025124EB088316808612000441EC0B2002813D06D000E4FB88839684861FFF725
:207F540023FFB88839680861FFF71EFF30688068B1880842E9D055F00105E6E70448818865
:207F7400006841612800C0B2F2BD0000A0E50008A8E500082DE9F14FB2B0994692460023E6
:207F94000691CDE900333C9A0F930DF14A0114914A7011E0329E57462C4617F8011B069894
:207FB400B0470028069000F026810F98401C641E0F90F2D13296AA449AF80000252808D10C
:207FD4000021002209910A920B910C920D910E920FE06A464FF0FF31504602F0F5F8050014
:207FF40002D10F9800F066BED4D50125E3E741F001011AF8010F2028F9D023280CD02B2866
:2080140004D02D2805D0302809D00BE041F00201EFE741F00401ECE741F00801E9E741F0E4
:208034001001E6E72A280FD1D9F8002052F8040BC9F800200028119003D54042119041F0FC
:2080540004010AF1010A14E01192DFF8EC3B0AE01198984205DA00EB800402EB4402303A14
:2080740011920AF1010A9AF80020A2F130000A28EED39AF800002E2803D04FF0FF3210920E
:2080940029E01AF8010F2A2809D1D9F8000050F8042BC9F8000010920AF1010A1BE02D2874
:2080B4000CBF0AF1010A002000221092DFF8882B0BE040B9109B934205DA03EB830504EBC5
:2080D4004504303C10940AF1010A9AF80040A4F130030A2BEDD3ADF848100FF660309AF87A
:2080F400001002F07BF808B11AF8010B8DF84A009DF84A00682805D19AF8000068280CD10D
:20811400622106E06C2804BF9AF800006C2804D171218DF84A100AF1010A1FA808901AF8A8
:2081340001BBBBF125012DD01C3900F06181091F022940F25D810E392AD0491F00F0B38446
:20815400093900F05581891E00F04985491E00F0F584491E022940F24B81091F00F0EE84B4
:20817400491F00F0BA80491E00F09D84491E65D0C91E21D0891E00F09684C91E00F09384CE
:2081940000F04CBD25238DF87C30012109912AE06C208DF84A00D9F8000050F8042BC9F82F
:2081B4000000002A43D11499487800283DD04FF0FF340FF6902012E09DF84A006C28EAD085
:2081D400D9F8000050F8044BC9F800000794D4B91499487898B14FF0FF340FF6842002F077
:2081F40009F8201A07D132981FAA04A900F065FD00287FF5E1AE4FF0FF3000F05BBD0FF620
:208214007C200790EFE7109D002D04D5204601F073F8044607E02A46204602F00BF80028A8
:2082340014BF041B2C460A94DDE70FF65422329804A900F0C8FD0028D5D5DCE7D9F8001047
:2082540051F8040BC9F8001020F00004002121F0FF351FABCDE904450793DDE90423089976
:208274003C2413B90AB9109898B102F00F053035641EEEB23A2EA8BF2735120942EA037296
:208294001B090D5508BF002A03D007980D19A842EBD308190790C4F13C0210980A92824260
:2082B40009DABDF84810821A4FF6EF7001400C92ADF8481097E7002895D59DF8480000F0C1
:2082D400140010288FD1119B09990C985B1A1B1A9A1A002A87DD0C9285E71499487820B1B8
:2082F4004FF0FF340FF69C1079E79DF84A00622862D0682819D06A2840D06C2806D071282E
:208314004DD074282DD07A281ED064E0D9F8001051F8040BC9F8001020B94FF0FF340FF665
:208334007C105CE70F9901605DE7D9F8001051F8040BC9F8001020B94FF0FF340FF65C1047
:208354004DE70F9901804EE7D9F8001051F8040BC9F800100028E5D14FF0FF340FF63C10CC
:208374003DE7D9F8001051F8040BC9F800100028D8D14FF0FF340FF6241030E7D9F8001047
:2083940051F8040BC9F8001020B94FF0FF340FF60C1024E70F9AD317C0E9002323E7D9F8EF
:2083B400001051F8040BC9F800100028F2D14FF0FF340FF6E80012E7D9F8001051F8040BF4
:2083D400C9F8001020B94FF0FF340FF6D00006E70F99017007E7D9F8001051F8040BC9F8AA
:2083F400001000289ED14FF0FF340FF6B000F6E6D9F80020D21D22F00702C9F80020D2E928
:2084140000010832C9F80020CDE90401C80F02D009982D210AE0BDF84800810702D50998F2
:208434002B2103E0C00705D5099820211FAA1154401C0990DDE9042309991FA8CDE92E23F6
:2084540008444BF020016129079015AC0BD01099002902D50621109105E001BF4BF0200131
:20847400672901221092DDE9042359004915491C10D11A030ED0ABF1610503211A2D0A91A6
:2084940002D20FF6A43101E00FF6A0310322FFF79BF9A8E659004915491C0AD11A0308D139
:2084B400ABF1610503211A2D0A9116D30FF68431ECE7DDE90401CDE93001DDE9302323F04C
:2084D4000047B7F5801F22F000060DD20022002F08BF002E029203D116E00FF65431D5E715
:2084F40002AA01F0D3FE0FE0DFF8EC0ADFF8EC1A00EB17500290DDE930234FF0FF3019409D
:20851400DFF8DC7A10403943CDE904014BF0200061280DD1079830210170821CBBF1610FB6
:2085340007920CBF7821582141700998801C0990DDE9040120F0000231F0004308BF002AF8
:2085540002D10026002571E14BF02008B8F1610F40F0BE801098002847BF21210391401CA5
:208574000390039FDDE92E017F1C00220023DDE9044501F0C3FE02998DF8542038BF85F01C
:208594000045091F002F02910DF155065DDDDFF8541ACDE9302140F2FF732E93204629467F
:2085B4000022002301F0C2FE4FD24800400D00F11C0215D0002A13DD2E9B9A420ADBDDE99D
:2085D400300121F0004205F000400243DDE93001114611E06FF31E5141EA025120460BE0AA
:2085F40024F0000035F0004108BF00280FBF29461C22294601F0B2FE04460D4601F04CFF9A
:20861400FF1F002F804609DD01F064FF02460B462046294601F070FF04460D46F01D072159
:20863400B8F1000F0CDD491E5EBF08F00F0200F8012D4FEA2818F3D502E0002200F8012D67
:20865400491EFAD5C61D002FA8DC0DF15500361A03988642D8BF304600280DF1550430D4A4
:20867400B04206DA0DF155010A5C082AA8BF0F2100DA0021024615AB134400E0401E13F8EE
:208694000159521E8D42F9D00F2904D10DF155018B5C5B1C8B54002A04D50299091D15AC41
:2086B400401C0291411E0CD46218ABF13A0613783033DDB23A2DA8BFF318491E02F8013931
:2086D400F5D51099002940F1AF80421E1092ABE00299DFF8142947F29750414391FBF2F23A
:2086F400DDE92E45029225F00045D2F1070204DD2046294600F04CFC0BE052420020DFF80F
:20871400EC1800F045FC02460B462046294601F05DFA0446B8F1660F109806BF029F0A37A3
:2087340006273F18142FC8BF142730208DF854000D460020DFF8B818CDE92E010DF155061B
:20875400002F33DD2046294601F036FC01460A4606F1080304200A26B2FBF6F606EB860EC3
:20877400A2EB4E02303203F8012C0A22B6FBF2F202EB820EA6EB4E063036401E03F8026D2D
:20879400E9D1083F002F03F10806D9DD084600F063FE02460B462046294601F0ADFEDDE96E
:2087B4002E2301F037FB04460D46CBE70DF15500361A0DF1550404E00298401E761E0290E6
:2087D400641C20783028F7D0B8F1660F02D10299491C04E0B8F1650F0CBF012100211098A6
:2087F40008188642B8BF701E00281DD4B04204DA215C3429C8BF392100DC30210246631EDE
:208814009D1800E0401E15F80169521E8E42F9D0392902D1A15C491CA154002A04D50299A7
:20883400491C1C46401C02910646029D01F0D0FC406A0778DDF8408030B2002802DC0126F9
:208854000FF2F4744BF02000662808BF6D1C16D0672846D128B210F1040F48DB404546DA20
:208874009DF848006D1C010703D430B24045B8BF804628B2B8EB000848BF4FF000080FFA1F
:2088940085FB07980A99BBF1000F00F3B2804A1C0A9230234354B8F1000F03DC9DF84800C2
:2088B400010704D50A98411C0A9107990F5418EB0B0FB8BFC8F100052DB268420D90A844C2
:2088D40032B29045B8BF4646079B0A9836B20B96324621461844FEF777FFA8EB06000E901E
:2088F400CBE0BBF1610F17D14FF0700B19E030B2404504DA9DF848100A0758BF8046B8F139
:20891400010848BF4FF00008BBF1670F14BF4FF0450B4FF0650B04E0BBF1410F08BF4FF0D3
:20893400500B0A98411C0A91B8F1000F079914F8012B0A5403DC9DF8480001071AD50A98EB
:20895400411C0A91B8F1000F07990F5412DD761E30B2804507980A9BB8BF464632B2214694
:208974001844FEF731FF0A9936B271180A91A8EB06000D9007980A9908442AB2002A80F871
:2089940000B003D42B224270811C04E02D2141701546811C6D4200202EAA0A2409E02B4696
:2089B40093FBF4F505EB8506A3EB460302F8013B401C2DB2002DF2DC012806DC4BF0200206
:2089D400652A04BF302201F8012B00282EAA08D1302001F8010B06E0401E135C303301F87D
:2089F400013B0028F8DC079A0A981044091A0B9143E0084431B22AB2914219DA32B2214696
:208A1400FEF7E2FE0A9936B27118ABEB0606B8F1000F0A910D9603DC9DF84800020704D523
:208A3400079847540B99491C0B91CDF8388024E02146FEF7C9FE0A98761B5844B8F1000F18
:208A54000A9003DC9DF848100A0703D5411C0A9107990F5430B2804507980A9BB8BF4646CA
:208A740032B204EB0B011844FEF7AEFE0A9836B230180A90A8EB06000D909DF8480000F097
:208A9400140010287FF4AFAB099A0A990D988A180B9982180E988A18821811988242BFF6DA
:208AB400A2AB821A17E49DF84A00622808D068280ED06A2814D06C281FD0712810D01CE0A1
:208AD400D9F8001051F8040BC9F80010C0B21AE0D9F8001051F8040BC9F8001080B212E0DE
:208AF400D9F80020D21D22F00702C9F80020D2E900010832C9F8002006E0D9F8001051F89F
:208B1400040BC9F800100021CDE904019DF8480001075AD5DDE90423002B08BF002A54D044
:208B34004BF02000782850D109981FA930220A54401C431C099301F800B046E09DF84A00E7
:208B5400622808D068280ED06A2814D06C281FD0712810D01CE0D9F8001051F8040BC9F8C9
:208B7400001040B21AE0D9F8001051F8040BC9F8001000B212E0D9F80020D21D22F007023C
:208B9400C9F80020D2E900010832C9F8002006E0D9F8001051F8040BC9F80010C117CDE98B
:208BB4000401002902D509982D210AE0BDF84800810702D509982B2103E0C00705D5099855
:208BD40020211FAA1154401C09901FA809990144079104A8594600F056F9FFF704BB9DF803
:208BF4004A006C280BD001210991D9F8000050F8041BC9F800008DF87C10FFF7F4BAD9F86D
:208C1400000050F8041BC9F8000015914FF0FF3210920021169115AAFFF709BB25210122B6
:208C3400BBF1000F8DF87C1009923FF4DCAA8DF87DB00221FFF7AABACBCCCC0C686A6C74B0
:208C54007A4C00007072696E74665F733A2062616420256C7320617267756D656E740000AD
:208C74007072696E74665F733A2062616420257320617267756D656E7400000000000000BF
:208C9400000000007072696E74665F733A20256E20646973616C6C6F776564007072696E6D
:208CB40074663A2062616420256E20617267756D656E740033B0BDE8F08F2DE9FC410F4660
:208CD400064690467A6B7869396ABC6A121AB869521A796A121AF869521A121A97F8380047
:208CF400141B41070FD42020002C8DF800000ADD254601236A463946304600F07DF900286C
:208D14005DD16D1EF5D17B6942463946304600F073F9002853D130208DF800003D6A002D0E
:208D340009DD01236A463946304600F065F9002845D16D1EF5D1BB69FA683946304600F028
:208D54005BF900283BD130208DF800007D6A002D08DD01236A463946304600F04DF970BB7F
:208D74006D1EF6D1F868B969FB6942183946304600F042F918BB30208DF80000BD6A002D31
:208D940008DD01236A463946304600F035F9B0B96D1EF6D197F8380041070DD52020002CDB
:208DB4008DF8000008DD01236A463946304600F023F920B9641EF6D10020BDE8F6814FF0C3
:208DD400FF30BDE8F6812DE9F8470D46A3B02F6B002F8246904648BF6FF0004701F0FDFB3C
:208DF400696B401801AA0021C2E90011812828BF4FF0FF3044D289461EE0A74230DB686905
:208E1400201881280BD30021696303AA29465046FFF753FF5FEA000922D40020686103ABB9
:208E34006E69224669469819FEF7CEFCA6196E6158F8040BA0B13F1B002F11DDD8F800102B
:208E540001AA684601F0C2F90446002C05D4D8F800000028D1D1641ECFD54FF0FF390EE085
:208E7400B9F1000F504604D103AA2946FFF725FF8146B9F1000F02D10020686168634846EF
:208E940024B0BDE8F0872DE9FC4307466F293E6908BF082405D041F02000782814BF0A2433
:208EB40010243C25D7E90023642918BF69299046994605D1002B03D5D8F1000869EB49092B
:208ED400B9F1000F08BFB8F1000F0CD1386B50B9082C39D197F83800010735D530203B25F6
:208EF40086F83B0030E08DF80010404649462246E31701F077FB3032D0B26D1E3A280195BF
:208F140004DB9DF80000A0F151018A187255404649462246E31701F065FB80465FEA01099C
:208F340008BFB8F1000F03D0F86871198842DCD3082C09D197F83800010705D5705D30288C
:208F540002D06D1E30207055C5F13C02BA617119F960386B824208DA821A3A624FF6EF7074
:208F7400398F01403987BDE8F38300280ED597F8380000F01400102808D17B6B7969386AA8
:208F94005B1A1B1A9A1A002AC8BF3A62BDE8F3832DE9D04306460F4614464FF00008DFF8B5
:208FB400549012E0E00707D542464B463046394600F030FF06460F464046494642464B4608
:208FD40000F028FF641080468946002CEAD130463946BDE8D083000002FCFFFFFFFF0F8000
:208FF4000000E03F0000F07FA08601000000F03F84D7974100002440F8B505460E46174639
:209014001C4600205CB117F8011BB068A847B06030B1F06A401CF0620020641EF3D1F2BD6D
:209034004FF0FF30F2BD00006E616E004E414E00696E6600494E460030002E0030B585B053
:209054000400042100226D462800FBF767F81021002201AD2800FBF761F8A04D280001F00B
:20907400D9FB9F488188ADF8001003218DF8021018218DF803106946006800F0B1FF99483F
:209094008188ADF8001048218DF803106946006800F0A6FF01940020ADF808000020ADF82A
:2090B4000A000020ADF80C000020ADF810000C20ADF80E0001A9280001F0F4FB0121280011
:2090D40001F066FC012240F22441280001F06FFC01228021280001F0A2FC012240212800C4
:2090F40001F09DFC05B030BD38B50400042100226D462800FBF712F825208DF80000032034
:209114008DF8010002208DF802008DF80340684601F0F5FC31BD4FF460514843401C0100EA
:20913400481E0029FBD1704770B504000D0000260220FFF7F0FF002001002A0089B292B2DC
:2091540091420AD2010089B2615C674A1180634909880906FBD5401CEEE770BD70B58CB036
:2091740004000D00614E300001F020FD5E48019002941020039004950020059080200690C9
:209194000020079000200890002009904FF440500A9000200B9001A9300001F07FFD012201
:2091B4000221300001F098FD4FF40050504908603068400840003060484800884006FBD550
:2091D4000E208DF8000002208DF8010000208DF8020001208DF80300684601F090FC0CB0E9
:2091F40070BD70B58CB004000D00042100226E463000FAF793FF2C21002201AE3000FAF7CF
:209214008DFF3C4E300001F0D1FC3748019002940020039004950020059080200690002039
:20923400079000200890002009904FF440500A9000200B9001A9300001F030FD01220221AC
:20925400300001F049FD5FF400302949086030684008400030600F208DF8000003208DF82A
:20927400010001208DF8020001208DF80300684601F045FC0CB070BD10B51D485FF4003111
:2092940001601C490A68520852000A604FF400510160164801684908490001600F4C2088B2
