:020000040800F2
:20000000601F002069230008B5210008B7210008B9210008BB210008BD2100080000000043
:20002000000000000000000000000000BF210008C121000800000000C3210008C521000814
:20004000C9230008CD230008D1230008D5230008D9230008DD230008E1230008E523000890
:20006000E9230008ED230008F123000875220008F5230008F9230008FD2300080124000800
:2000800005240008092400080D2400081124000815240008192400081D2400082124000868
:2000A00025240008292400082D2400083124000835240008392400083D2400084124000848
:2000C00045240008492400084D2400085124000855240008592400085D2400080722000884
:2000E0006124000865240008692400084FF4C0414843401C0100481E0029FBD1704710B54A
:2001000000F0CCFA5FF4803000F0E8FA00F003FB04002000C0B201282BD1002000F038FB68
:20012000002000F045FB4FF4806000F039FB4FF4404000F049FB002000F043FB022000F0D1
:2001400039FC102000F03FFC5FF400115FF4803000F000FB012000F009FB392000F0E0FB84
:200160000028FAD0022000F006FB00F00CFB0828FBD110BD10B504002100C9B21D2000F028
:2001800097FB2100C9B25FF4802000F09FFB10BD80B500215FF0006000F00CFD4FF4A060A6
:2001A00000F0D0FC01BD80B50121DFF8980400F09EFD10208DF8030003208DF80200DFF837
:2001C00088048188ADF800106946006800F016FD01BD70B5FFF793FFFFF7DAFF0120FFF76A
:2001E000C9FF72B6FFF7DFFFDFF85C44A088216808610A20FFF77AFF00F0C0FD00F0CCFEAA
:2002000045F25555DFF844643088A84206D100F0B1F8002802D14AF6AA2030805FF4E13053
:2002200000F090FF00F0E6FF0021012000F0F3FF01F04AF8A088216848613088A84204D142
:200240000120DFF80C14086003E04020DFF80014086062B670BDDFF8F8030178890716D57D
:20026000016831F002010160DFF8E8030168491C01600078C00705D5DFF8CC03818800686F
:20028000416104E0DFF8C003818800680161704738B50400002072B62568DFF8BC132940DF
:2002A000B1F1005F0ED1DFF8B403211D09680160DFF8AC1300680860206880F3088808685F
:2002C000804707E00120DFF8881308600020DFF89413086062B631BD80B5DFF8740301786D
:2002E00049060FD4DFF87C13096829290AD3DFF85C13098845F25552914203D1016851F0C0
:20030000800101600078000608D5DFF83C03818800684161DFF85003FFF7BAFF01BD70B5BB
:20032000DFF848430721200001F0F7F800280DD00721200001F0FFF85FF4E13000F002FFA9
:2003400000F058FF0021012000F065FFC84C200001F0B8F900280CD0C6480178200000F04F
:2003600042F840F60C15002632002900200001F0DBF970BDF8B50024BF4E00250027082205
:20038000BE49300001F01AFA00281CD1082005002800C0B2322810DA30780700761C380088
:2003A000C0B2202803DB3800C0B2802803DB3800C0B2002801D16D1CEAE72800C0B2322883
:2003C00001D1012004002000C0B2002808D10722AB49AC4801F0F2F9002801D10120040087
:2003E0002000C0B2F2BD2DE9FE4F04000D005FF000095FF0000A40F60C1B0094DFF88882C5
:2004000046465A460099300001F00CFAB8F8020040440179B8F80200404442794FF480701C
:20042000424352FA81F6B8F80210091F18F1080001F04CFA07003000390080B289B288429B
:2004400040F0EC8098F80D008DF808000020B4F80B10ADF80A10BDF80A104FF6FF729142D8
:2004600006D0BDF80A0079498988884240F0E8809DF80800012875D0022835D0032800F05D
:20048000A480042805D005280BD0F72800F0B580C4E000207349086001F05CFB7B4948802F
:2004A000BCE06B48007840061DD55FF000090020002198F80F806C4A4346DBB212EB832A0F
:2004C000924510D37248016851450CD11AF580610160504601F068FC83465846C0B201F0C6
:2004E00011FC6A49488099E059480078400638D500210022002398F80800002831D198F8D7
:200500000F008DF80000D8F81090D8F814A05648814526D35F491AEB09000A68904202D02A
:20052000086800281DD1C1F80090DFF81CB1BBF80400DBF800100861524618F118014846FD
:2005400001F03DFC002807D0524649469DF8000001F04AFB4D494880BBF80400DBF8001088
:2005600048615BE0DFF8248101F060FAA8F80200B8F8020000280BD0B8F8021018F10400AA
:2005800001F062FC0220FFF7B1FD0020A8F802002F480168490849000160016851F04001BE
:2005A00001604AF6AA202949088000F079FD00F0A4FD00F012FA304801F0F6FB2A4834499A
:2005C000086000203349086028E0FFF7D3FE012812D101F075FA2D4948801D48016851F027
:2005E0008001016045F255501849088000F058FD00F083FD00F0FAF910E0DFF890800020C5
:200600000190002000903223234A9DF8081018F1040001F0ABF9A8F80200FFE7DFF86C803D
:20062000B8F8020000280BD0B8F8021018F1040001F00AFC0220FFF759FD0020A8F802000F
:20064000BDE8F78F00023000A8230008301B0020381B0020441B00200000FE2F4C1B002059
:20066000481B0020501B0020004000080048004014000020581B00200050000878230008DA
:20068000A023000880500008200900202C1200203C1B0020401B002078220008DFF8C812CB
:2006A000086850F001000860DFF8C0221368DFF8C002034013600B68DFF8B80203400B60EC
:2006C000086830F480200860106830F4FE0010605FF41F00DFF8A01208607047DFF88812E9
:2006E0000A6832F480320A600A6832F480220A600200B2F5803F03D0B2F5802F05D009E053
:200700000A6852F480320A6004E00A6852F4A0220A60FFE7704738B50020009000240025BA
:20072000312000F0FDF805000098401C009000984FF6FF71884203D02800C0B20028EFD08F
:20074000312000F0EDF8002801D0012000E00020C0B232BD30B40023844D2C6834F47C14D4
:2007600051EA000214432C6030BC70470100C9B2824A1160704700217C4B1A6892089200B0
:2007800002431A6070477948006810F00C0070470021764B1A6832F0F00202431A60704709
:2007A0000021724B1A6832F4E06202431A60704700216E4B1A6832F4605252EAC0021A604F
:2007C00070476F49086070470021684B1A6832F4404202431A6070472DE9F04F010000229F
:2007E000002500200026614FD7F800C01CF00C0C6346002B04D0042B05D0082B06D023E073
:20080000614A0A6022E0614A0A601FE03A6812F470123B6813F480331800920C921C1500AD
:20082000002804D15A4A02FB05F20A600BE03A68920304D5574A02FB05F20A6003E0534A3F
:2008400002FB05F20A6001E04F4A0A603C6814F0F0042409DFF8409119F804E00A6832FA52
:200860000EF24A603B6813F4E0631B0A19F803804A6832FA08F28A603A6812F46052D20A30
:2008800019F80290D1F804A03AFA09FAC1F80CA03F6817F44047BF0BDFF800A11AF807A078
:2008A000D1F80CB0BBFBFAFBC1F810B0BDE8F08F0A00D2B2002A04D0394A13680343136028
:2008C00003E0374A13688343136070470A00D2B2002A04D0334A13680343136003E0314AAE
:2008E00013688343136070470A00D2B2002A04D02D4A13680343136003E02B4A13688343BD
:20090000136070470A00D2B2002A04D0274A13680343136003E0254A1368834313607047BF
:2009200030B401000020002300250A00D2B25209D2B2012A02D10C48046806E0022A02D15A
:200940001048046801E01A4804680B00DBB213F01F032000D840C00701D5012000E0002071
:20096000C0B230BC7047000000100240041002400000FFF8FFFFF6FE081002406000424293
:20098000D80042422010024000127A00001BB70000093D00808D5B0000000020100000202D
:2009A000181002401C1002400C10024010100240241002400021DFF840311A6812F0380202
:2009C00002431A607047DFF830110A6832F010020A600A6802430A607047DFF82001DFF8D2
:2009E00020110160DFF81C1101607047DFF81801016851F080010160704770B504000426C3
:200A00005FF0FF3000F086F805002800C0B204281AD1DFF8F460306850F002003060DFF8C8
:200A2000EC000460306850F0400030605FF0FF3000F070F805002800C0B2052804D03168AF
:200A400041F6FD70014031602800C0B270BDF8B504000D000427002000905FF0FF3000F052
:200A600059F806003000C0B204282DD1DFF89870386850F00100386025805FF0FF3000F0E8
:200A800049F806003000C0B2042814D1A01C00902800000C009908805FF0FF3000F03AF81B
:200AA00006003000C0B205280ED0396841F6FE700140396008E03000C0B2052804D0396837
:200AC00041F6FE70014039603000C0B2F2BD04210F480268D20701D501200AE002685207E3
:200AE00001D5022005E00068C00601D5032000E00420C0B2704700000020024004200240FD
:200B000023016745AB89EFCD10200240142002400C20024070B504000425FFF7D8FF06009A
:200B20003000C0B2012806D1002C04D0FFF7CFFF0600641EF4E7002C01D105200600300093
:200B4000C0B270BD25490143254A11607047F0B4002200230F24C17800291FD02049096866
:200B600011F4E061D1F5E061090AD1F104052B00CC4045789D408678264035432D012A0045
:200B8000184D0678AA550125067816F01F06B540154E07787F1146F8275009E00121057800
:200BA00015F01F05A940114D0678761145F82610F0BC70470E4A0A4002430E4B1A60704779
:200BC000042805D10C490A6852F004020A6004E009490A6832F004020A6070470000FA05AA
:200BE0000CED00E000E400E000E100E080E100E080FFFF1F08ED00E010E000E0F0B500224D
:200C00000023002400250026002791F803C01CF00F0C91F803E05FEACE6E02D58A7852EAA2
:200C20000C0C0A7812062AD00268160000221400082C23D25FF0010E1EFA04F215000A8816
:200C40002A401300AB4217D1A20015000F22AA401700BE431CFA05F21643CA78282A04D189
:200C60001EFA04FEC0F814E006E0CA78482A03D11EFA04FEC0F810E0641CD9E706600A8846
:200C8000B2F5807F2EDB4268160000221400082C27D25FF0010E14F108021EFA02F21500F4
:200CA0000A882A401300AB4219D1A20015000F22AA401700BE431CFA05F21643CA78282A6A
:200CC00004D114F108021EFA02F24261CA78482A05D114F108021EFA02FEC0F810E0641CA8
:200CE000D5E74660F0BD0A0092B202617047F0B40022002300250027002802D51D4C246854
:200D000001E01D4C2468C0F3034586B210F4401CBCF5401F07D134F07064174A176837F083
:200D20007067176011E0C20206D50322AA4013009C4354F0706408E00200520DD2B21201DC
:200D400016FA02F2944354F070640A00D2B2002A06D00200520DD2B2120116FA02F21443BF
:200D6000002802D5034A146001E0034A1460F0BC704700001C0001400400014080B50320B4
:200D80008DF8020014208DF8030081488188ADF8001069460068FFF731FF7E488188ADF8D8
:200DA000001069460068FFF729FF01BD0020C8210800411E0028FBD170474FF4C041484346
:200DC000401C0100481E0029FBD1704710B5704CA088216808616F48818800680161FFF789
:200DE000E5FF20688068002801D1012000E00020217911F00101084201D0002011E0A08893
:200E000021684861FFF7D2FF20688068A188084201D0002005E0A08821684861FFF7C6FF0B
:200E2000012010BD38B55B4CA08821684861FFF7BDFF574DA88829684861FFF7B7FFA08842
:200E400021680861FFF7B2FFA88829680861FFF7ADFF31BD10B54F4CA08821684861FFF78F
:200E6000A5FF4B48818800684161FFF79FFFA08821680861FFF79AFFA08821684861FFF79B
:200E800095FF10BD10B5434CA08821684861FFF78DFF3F48818800680161FFF787FFA088C3
:200EA00021680861FFF782FFA08821684861FFF77DFF10BD38B5374CA08821684861FFF770
:200EC00075FF334DA88829680861FFF76FFFA08821680861FFF76AFF28688068A988084224
:200EE00004D0A08821684861002003E0A08821684861012032BD70B5040008252800451E76
:200F0000C0B2002817D0234EB08831684861200604D51F4881880068016103E01C488188DC
:200F200000684161FFF742FFB08831680861FFF73DFF6400E2E7174881880068416170BD38
:200F4000F8B508240025124EB088316808612000441EC0B2002813D06D000E4FB88839684F
:200F60004861FFF723FFB88839680861FFF71EFF30688068B1880842E9D055F00105E6E77F
:200F800004488188006841612800C0B2F2BD000090230008982300082DE9FE430025002689
:200FA000082100226C46200000F0BEFB0027644C2200082141F6F87000F059FF0500280035
:200FC000C0B2002814D05FF000085FF000090621200000F07BFCE18802000B0092B29BB22F
:200FE0009A4202D00022150001E00122150007E03220FFF7E2FE7F1C3800C0B20328D6DBC3
:201000005FF000086A4608214FF4F05000F02FFF06003000C0B2002814D000275FF00009CC
:201020000621684600F052FCBDF8061002000B0092B29BB29A4202D00022160001E001224A
:20104000160008E03220FFF7B8FE18F101084046C0B20328D6DB55EA0600C0B2002809D1F5
:201060004AF6AA2020800020608000F019F800F044F813E03000C0B2002802D100F03DF8E4
:201080000CE02800C0B2002808D10827E9463A004946200000F0C6FB00F002F8BDE8F783C8
:2010A00070B500240025264E0020F0800621300000F00CFCF0803200082141F6F87000F015
:2010C0009DFF04002000C0B2002806D0320008214FF4F05000F092FF04002000C0B20028C3
:2010E00008D13220FFF769FE6D1C2800C0B20328E1DBFFE72000C0B270BD70B5002400254B
:201100000F4E0020F0800621300000F0DFFBF080320008214FF4F05000F070FF04002000F0
:20112000C0B2002808D13220FFF747FE6D1C2800C0B20328ECDBFFE72000C0B270BD0000F5
:20114000301B002030B585B00400042100226D46280000F0E9FA1021002201AD280000F0F8
:20116000E3FA10208DF8030003208DF802003A4DA888ADF8000069462868FFF73FFDA98832
:201180002868FFF7B0FD354D280000F0C1F834488188ADF8001003218DF8021018218DF816
:2011A000031069460068FFF729FD2E488188ADF8001004218DF8031069460068FFF71EFDD0
:2011C00001940020ADF808000020ADF80A000020ADF80C000020ADF810000C20ADF80E0059
:2011E00001A9280000F0DCF80121280000F04EF905B030BD80B527208DF8000001208DF88F
:20120000010000208DF8020001208DF803006846FFF79DFC01BD70B504000D000F4E40F2BD
:20122000A551300000F0C4F92200D2B240F22551300000F03AF92A00D2B240F226613000A3
:2012400000F033F970BD054909880906FBD50100C9B2054A11807047C02300080048004001
:20126000B0230008B82300080448004010B4020052B2002A05D40A011D4B040064B21A555B
:2012800008E00A011B4B040064B214F00F04234403F8042C10BC704710B50400601EB0F1C7
:2012A000807F01D301200EE0601E134908600F215FF0FF30FFF7DAFF002010490860072085
:2012C0000F490860002010BD80B50420FFF778FC0C48FFF7E1FF00200B49086000200B4924
:2012E00008600F215FF0FF30FFF7C0FF01BD000000E400E018ED00E014E000E018E000E010
:2013000010E000E0C0270900501B0020541B002010B50400584884420AD101214FF48040C4
:20132000FFF7E2FA00214FF48040FFF7DDFA36E0524884420AD101215FF40030FFF7E2FA22
:2013400000215FF40030FFF7DDFA28E04C4884420AD101215FF48020FFF7D4FA00215FF492
:201360008020FFF7CFFA1AE0464884420AD101215FF40020FFF7C6FA00215FF40020FFF710
:20138000C1FA0CE04048844209D101215FF48010FFF7B8FA00215FF48010FFF7B3FA10BD5D
:2013A0002DE9F84F86B004000D00002600275FF000085FF000095FF0000AA8890028A346F2
:2013C000218A4CF6FF700140E8880143009100982082A1894EF6F3100140AA882889024317
:2013E00068890243114300910098A081A18A4FF6FF400140A889014300910098A08201A8C0
:20140000FFF7EAF91C48834501D1049900E00399A089000407D5192000FB01F02A685200CA
:20142000B0FBF2F206E0192000FB01F02A689200B0FBF2F26420B2FBF0F6360133001B09BA
:20144000642000FB1323A089000408D5D80032306427B0FBF7F010F00700064307E0180126
:2014600032306427B0FBF7F010F00F000643268107B0BDE8F08F0000003801400044004016
:2014800000480040004C0040005000400A00D2B2002A04D0828952F40052828104E0838986
:2014A0004DF6FF721340838170472DE9F0410023002500275FF0000E0C0040F66A16A4B23F
:2014C000B44280460C00E4B26409E4B20E00B6B216F01F065FF0010C1CFA06FC012C02D196
:2014E00018F10C0806E0022C02D118F1100801E018F114081300DBB2002B06D0D8F8003020
:201500005CEA0303C8F8003005E0D8F8003033EA0C03C8F80030BDE8F0810200002308004B
:2015200080B2B0F5007F1088084201D0012000E00020C0B270470A0092B292050A0092B225
:20154000D24302807047F0B4040000270020002200260B0040F66A159BB2AB420D00EDB260
:201560006D09EDB20B009BB213F01F035FF0010C1CFA03F3012D02D1A089034006E0022DEF
:2015800002D1208A034001E0A08A03400A0092B2120A92B21CFA02F220880240002B03D09D
:2015A000002A01D0012000E00020C0B2F0BC704770B4002200240B0040F66A159BB2AB42D6
:2015C0000B009BB21B0A01259D402E00B6B2F643068070BC70470A78002A06D0812A0DD049
:2015E000822A1ED0842A3DD068E00200D2B27E2A03D181220A707E228A715FE00200D2B2CF
:20160000552A04D182220A705522CA7108E00200D2B27E2A02D181220A7001E000220A7023
:201620004CE00200D2B2082A0DDB0200D2B2F12A09DA84220A700200D2B2D21C8A80087242
:2016400003224A800DE00200D2B2002A07D184220A7014228A80087203224A8001E000225A
:201660000A702BE00A7A002A1CD14A880E2A04D18A8852FA80F28A8014E04A880F2A06D1BB
:201680008A880300DBB21B029A188A800AE04A88102A02D18A888A8004E04A88112A01D127
:2016A0008A888A804A88531C4B8092B20A4490714A888B889A4201D306220A700022C1F85D
:2016C00008297047010000200A78052A08D14A88092A02DB0122100007E000220A7004E0FB
:2016E0000A78062A01D101221000C0B2704730B4002513E050F8042BD30744BFA9F101031C
:201700009A18091F042942F8045BFAD213468C0744BF15809B1CC90748BF1D7050F8041B57
:201720000029E7D130BC704762F30F2262F31F42401810F0030308D0C91A1FD3DB0748BFF5
:2017400000F8012D28BF20F8022D130030B414461546103928BF20E93C00FAD8490728BF0B
:2017600020E90C0048BF40F8042D890028BF20F8022D48BF00F8012D30BC7047C91818BFA5
:2017800000F8012DCB0728BF00F8012D704730B40EE00268436802440830DC0744BFA9F1A8
:2017A0000104E31852F8045B43F8045B091FF9D150F8041B0029ECD130BC704703000020E1
:2017C00013F0030F09D0521E22BF13F8010B11F801CBB0EB0C00F3D0704711F0030F14D1C5
:2017E000121F22BF53F8040B51F804CB6045F7D0121D0AD200BA9CFA8CFCB0EB0C0038BF78
:201800006FF0000088BF01207047521E22BF13F8010B11F801CBB0EB0C00F6D0521C08BF6B
:201820001046704762B38B0708D0521E11F8013B00F8013B00F024808B07F6D1830740F08C
:20184000208000BF103A07D330B4B1E83810103AA0E83810F9D230BC530724BFB1E8081081
:20186000A0E8081044BF51F8043B40F8043BD20724BF31F8022B20F8022B44BF0B78037076
:201880007047121F17D35B0009D151F8043B20F8023B1B0C121F20F8023BF6D20BE051F8BB
:2018A000043B00F8013B1B0A20F8023B1B0C121F00F8013BF3D238BF121D521E24BF11F868
:2018C000013B00F8013BF8D87047000070B403000022002400264FF6FF7000258D4214D2F0
:2018E0005A5D504000221600082E0CD2C20706D580B2020048F2084090EA520001E080B21C
:201900004008761CF0E76D1CE8E780B2C04380B270BC704770B403000022002600244FF69C
:20192000FF7000252A000E0092B2B6B2B24218D22A0092B29A5C504000221400220092B2C1
:20194000082A0CDAC20706D580B2020048F2084090EA520001E080B24008641CEEE76D1C10
:20196000E0E780B2C04380B270BC70472DE9F74F82B0070098460E9C0F9D00260020ADF8A2
:2019800004007E20B855761C5520B855761C18F10B00B855761C0120B855761C0020B85552
:2019A000761C0020B855761C0020B855761C1F20B855761C9DF80C00B855761C0020B855CC
:2019C000761C2000C0B200280CD1C1465FFA89F90498009007EB060A4A4600995046FFF719
:2019E00021FF0BE0C1465FFA89F95FF0000A07EB060B524649465846FFF796FE56FA88F681
:201A0000BC55761CBD55761CB878411E89B2B81CFFF780FF0100B955761C080080B2000A87
:201A2000B855761C300005B0BDE8F08F70B500260024DC4D7E2005EB06010871761C552051
:201A400005EB06010871761C092005EB06010871761C012005EB06010871761C002005EB26
:201A600006010871761C002005EB06010871761C002005EB06010871761C1F2005EB0601DA
:201A80000871761C012005EB06010871761C002005EB06010871761CA879411E89B2A81D76
:201AA000FFF738FF010005EB06000171761C080080B2000A05EB06021071761C300070BD52
:201AC00070B500260024B74D7E2005EB06010871761C552005EB06010871761C092005EB63
:201AE00006010871761C012005EB06010871761C002005EB06010871761C002005EB060178
:201B00000871761C002005EB06010871761C1F2005EB06010871761C032005EB06010871C4
:201B2000761C002005EB06010871761CA879411E89B2A81DFFF7EEFE010005EB0600017126
:201B4000761C080080B2000A05EB06021071761C300070BD70B500260024924D7E2005EB6B
:201B600006010871761C552005EB06010871761C092005EB06010871761C012005EB060199
:201B80000871761C002005EB06010871761C002005EB06010871761C002005EB0601087166
:201BA000761C1F2005EB06010871761C042005EB06010871761C002005EB06010871761C0A
:201BC000A879411E89B2A81DFFF7A4FE010005EB06000171761C080080B2000A05EB0602B6
:201BE0001071761C300070BD2DE9F84304000D00160000275FF00008DFF8A8917E2009EBDD
:201C0000070108717F1C552009EB070108717F1C002009EB070108717F1C012009EB0701D6
:201C200008717F1C002009EB070108717F1C002009EB070108717F1C002009EB070108719B
:201C40007F1C1F2009EB070108717F1C022009EB070108717F1C002009EB070108717F1C38
:201C600009EB070004717F1C09EB070005717F1C2800000A09EB070108717F1C2800000CD7
:201C800009EB070108717F1C2800000E09EB070108717F1C09EB070006717F1C3000000AA7
:201CA00009EB070108717F1C3000000C09EB070108717F1C3000000E09EB070108717F1C7A
:201CC0002000C0B2002807D0320009EB0700011D280000F09AF8F7193800811E89B219F152
:201CE0000600FFF717FE010009EB070001717F1C080080B2000A09EB070210717F1C380035
:201D0000BDE8F283F8B5040000270025254E7E2006EB070108717F1C552006EB07010871A7
:201D20007F1C0A2006EB070108717F1C012006EB070108717F1C002006EB070108717F1C76
:201D4000002006EB070108717F1C002006EB070108717F1C1F2006EB070108717F1C0520B8
:201D600006EB070108717F1C002006EB070108717F1C06EB070004717F1CB079411E89B25E
:201D8000B01DFFF7C7FD010006EB070001717F1C080080B2000A06EB070210717F1C380024
:201DA000F2BD00002C12002010B504002000FEF724FE042801D1012000E0002010BD2DE914
:201DC000F04704000D0016000020002101275FF00108A9465FF0000AB24512D250468008A3
:201DE00059F820101AEB0400FEF731FE07003800C0B2042802D00020804602E01AF1040AA5
:201E0000EAE74046C0B2BDE8F0872DE9F84F04000D00160000275FF000085FF000095FF034
:201E2000010A0094AB46FEF7D8FD0021B1EB960F06D2009850F821004BF82100491CF5E768
:201E40005046C0B2BDE8F28F70B504000D00002000263000290080B289B2884206D2300040
:201E600080B2205CFFF7EFF9761CF2E770BD2DE9F04104000D0016005FF001080027280029
:201E800080B2002860D0FEF7A1FF002801D1002080464046C0B2002808D0A020FFF72BF872
:201EA000FFF708F8002801D1002080464046C0B2002808D0200080B2000AC0B2FFF71BF87D
:201EC000FEF7F8FF80464046C0B2002806D02000C0B2FFF710F8FEF7EDFF80464046C0B22B
:201EE000002805D0FEF772FF002801D1002080464046C0B2002808D0A120FEF7FCFFFEF701
:201F0000D9FF002801D1002080466D1E4046C0B2002817D0002007003800290080B289B282
:201F2000884208D2FFF70CF8390089B27054FEF791FF7F1CF0E7FFF703F8390089B27054AB
:201F4000FEF7A0FFFEF76EFF4046C0B2BDE8F0812DE9F04104000D00160000275FF0010890
:201F6000280080B2002842D0FEF730FF002801D1002080464046C0B2002808D0A020FEF71C
:201F8000BAFFFEF797FF002801D1002080464046C0B2002808D0200080B2000AC0B2FEF762
:201FA000AAFFFEF787FF80464046C0B2002806D02000C0B2FEF79FFFFEF77CFF80460020C6
:201FC00007003800290080B289B288420DD24046C0B2002807D0380080B2305CFEF78BFF17
:201FE000FEF768FF80467F1CEBE7FEF71BFF0520FEF7E3FE4046C0B2BDE8F0812DE9F047ED
:2020000004000D00160000275FF000085FF0000A200010F01F0F1BD014F01F00D0F1200085
:2020200007002800390080B289B2884200D22F00404680B206EB0002390089B218EB0400DA
:2020400080B2FFF785FF8146ED1B17EB080801E05FF001094846C0B200281FD0280080B248
:2020600000281BD0202007002800390080B289B2884200D22F00404680B206EB0002390089
:2020800089B218EB040080B2FFF762FF8146ED1B17EB08084846C0B20028DFD14846C0B2BC
:2020A000BDE8F08780B53D49086850F0010008603B4A13683B48034013600B683A480340BF
:2020C0000B60086830F480200860106830F4FE0010605FF41F003549086000F001F801BDF0
:2020E00080B500F001F801BD82B000200190002000902A49086850F480300860086810F4BE
:20210000003000900198401C01900098002804D101984FF6FF729042F0D10868800302D538
:202120000120009001E0002000900098012831D11F48026852F0100202600268920892007D
:202140000260026852F00202026015480268026002680260026852F480620260026832F492
:202160007C120260026852F4A02202600A6852F080720A600A689201FCD501688908890032
:202180000160016851F002010160016811F00C010829FAD102B070470000000000100240A2
:2021A000041002400000FFF8FFFFF6FE08100240002002407047FEE7FEE7FEE7FEE7704722
:2021C0007047704725480168491C016000681521B0FBF1F201FB1200002804D120480168ED
:2021E00051F0020101601F48017809060AD5D0F80819491DC0F80819D0F808190A2901D354
:2022000005210170704770B5174C40F2255529002000FFF798F900280FD0002601201349C2
:20222000087029002000FFF7C3F9114805880D492800C0B2FFF7CFF90AE04FF45871200081
:20224000FFF781F9002803D009480088C005C00D208810F47C40208070BD0000501B0020E8
:20226000381B00201400002000480040581B00200448004070470000426F6F742056332EEE
:20228000315F323230333236303020474433324633787800000000000000000000000000A6
:2022A00000000000000000000000000010B5074979441831064C7C44163404E00A68081D2C
:2022C000114488470146A142F8D110BD08000000280000001BF4FFFF481B00001400002046
:2022E00000000000ABF4FFFF1400000068000000000000200000000000F00DF8002801D0B7
:20230000FFF7D4FFAFF300800020AFF3008000F004F800F00CF80120704780B5FDF759FF57
:20232000FDF799FFFDF7D8FFFDF7F9FFF8E700F001B800000746384600F002F8FBE700003B
:2023400080B5AFF30080024A11001820ABBEFBE7260002000000000001020304010203040A
:2023600006070809020406080148804701480047A520000885230008204353313131302075
:2023800000000000AFF30080AFF30080FFF7B4FF000C014080000000000C014040000000F6
:2023A00047323330323030000010014004000000000C014000040000000C014000080000B4
:2023C0000010014020000000FFF7FEBFFFF7FEBFFFF7FEBFFFF7FEBFFFF7FEBFFFF7FEBF5A
:2023E000FFF7FEBFFFF7FEBFFFF7FEBFFFF7FEBFFFF7FEBFFFF7FEBFFFF7FEBFFFF7FEBF45
:20240000FFF7FEBFFFF7FEBFFFF7FEBFFFF7FEBFFFF7FEBFFFF7FEBFFFF7FEBFFFF7FEBF24
:20242000FFF7FEBFFFF7FEBFFFF7FEBFFFF7FEBFFFF7FEBFFFF7FEBFFFF7FEBFFFF7FEBF04
:20244000FFF7FEBFFFF7FEBFFFF7FEBFFFF7FEBFFFF7FEBFFFF7FEBFFFF7FEBFFFF7FEBFE4
:0C246000FFF7FEBFFFF7FEBFFFF7FEBF57
:204000004071002085EA0008F1E30008F3E30008F5E30008F7E30008F9E3000800000000F8
:20402000000000000000000000000000FBE30008FDE3000800000000FFE3000801E40008DB
:20404000D9EB0008DDEB0008E1EB000891E60008E5EB0008E9EB0008EDEB0008F1EB0008F9
:20406000F5EB0008F9EB0008FDEB000801EC000805EC000809EC000879E5000855E50008E9
:20408000DDE4000801E500080DEC000811EC000815EC000819EC00081DEC000821EC000827
:2040A00025EC000829EC00082DEC000831EC000835EC000839EC00083DEC000841EC0008C8
:2040C00045EC000849EC00084DEC000851EC000855EC00081BE50008A3E400089BE500087C
:2040E00059EC00085DEC000861EC000865EC000869EC00086DEC000871EC000875EC0008E8
:2041000079EC00087DEC000881EC000885EC00086DE4000811E6000889EC00088DEC00087D
:2041200091EC000895EC000899EC00089DEC000862F30F2262F31F42401810F0030308D0E1
:20414000C91A1FD3DB0748BF00F8012D28BF20F8022D130030B414461546103928BF20E968
:204160003C00FAD8490728BF20E90C0048BF40F8042D890028BF20F8022D48BF00F8012D91
:2041800030BC7047C91818BF00F8012DCB0728BF00F8012D7047F00908CEB4B0F3B6A8CDB7
:2041A000D0C5CC00018301011C20020102030404F009080607080902040608CE8E000452E7
:2041C000FF01E3128514100100002E142157F003164000002000012002FD7D00082C43EB1E
:0941E0007D3C210100010101FFF9
:205000002043533131313020323330383032303520473233303230300000000000000000D5
:125020000000000000000000000000000000000000007E
:205034002DE9F0476C240025DFF8F8662A0021003000FFF773F840F62C060027DFF8E88675
:205054003A0031004046FFF769F840F638285FF00009DFF8D8A64A4641465046FFF75EF8B8
:2050740000F01CF8002804D00320DFF8C416487003E00220DFF8B8164870DFF8B846A01D9C
:2050940000F03BF9208020886080DFF8940600218170007801F04BFFBDE8F0872DE9F04711
:2050B4005FF0000800240025DFF8746632001821002002F03FFC07003800C0B2002810D01A
:2050D4005FF000085FF000091421300002F04EFD716902000B0092B29BB29A4201D0002224
:2050F4001700320018214FF4807002F023FC80464046C0B200280FD000245FF00009142160
:20511400300002F033FD716902000B0092B29BB29A4201D00022904658EA0700C0B2002829
:2051340021D118245FF00009B2464A4621005046FEF7F4FF0020B070002070700120B0811C
:20515400C0207071A820B0710220F0710A2030720120F0700020307100203070322030615D
:2051740000F068F826E03800C0B201280FD14046C0B200280BD132001821002002F0DAFBC4
:20519400320018214FF4807002F09BFC12E03800C0B200280ED14046C0B201280AD1320003
:2051B40018214FF4807002F0C5FB32001821002002F087FC02F036FD45F25550DFF8781558
:2051D4000A88824208D14A88737A9BB29A4203D18A88B3899A4206D00880B089888002F015
:2051F400A5FD02F0D0FD3800C0B2012805D14046C0B2012801D1012005002800C0B2BDE839
:20521400F08710B50024DFF82C253C214FF4C87002F090FBC0B210BDF8B504000D0016008A
:2052340000273200290089B2200080B202F082FBC0B2F2BD70B50024DFF8E4640020706162
:205254001421300002F092FC706132001821002002F037FC0500320018214FF4807002F03F
:2052740030FCC0B270BD38B50024DFF8C8540020A8633821280002F079FCA8632A003C21A6
:205294004FF4C87002F01DFCC0B232BDF8B504000D00160000273200290089B2200080B230
:2052B40002F00FFCC0B2F2BD30B4010080240020002200250023180080B232281ADA0020F1
:2052D40002001000C0B2082812DA180080B2085C204202D0280080B20DE0E4B264086D1C66
:2052F4002000C0B2002801D180200400521CE8E75B1CE0E7002030BC704730B401008024A3
:2053140000200025002200231D00ADB2322D17DA00252A001500EDB2082D0FDA1D00ADB286
:205334004D5D254200D0401CE4B264082500EDB2002D01D180252C00521CEBE75B1CE3E705
:2053540080B230BC704730B4010080240020002200250023180080B232281ADA0020020097
:205374001000C0B2082812DA180080B2085C204202D1280080B20DE0E4B264086D1C2000A6
:20539400C0B2002801D180200400521CE8E75B1CE0E7002030BC704710B58AB0040002A8FE
:2053B400202102F015FD207A0190E0790090A3796279DFF8941C02A802F01CFD002000909D
:2053D400002302AA1E2141F2100002F039FE207A0190E0790090A3796279DFF8701C02A827
:2053F40002F008FD00200090002302AA142141F2300002F025FE0AB010BD2DE9F84F94B04E
:2054140004000D000026002750210022E8464046FEF784FE002194F81380D5F82808401CC3
:20543400C5F82808D5F81008401CC5F8100885F80B884046C0B2002800F09F80DFF8101C13
:205454000878002804D10220DFF8082C107003E00420DFF8002C10704046C0B2012871D121
:2054740000200870D5F81C08401CC5F81C08D5F82408401CC5F824080020C5F820080020EF
:20549400C5F814080120DFF8401D88705FF0080914F1140AEB464A465146584602F060FF08
:2054B400DFF8B00BD5F81C18027891420DD1012085F80C085FF00809EA4605F6020B4A4640
:2054D4005146584602F04CFF32E0D5F81C18007881422DD3022085F80C08002007003800E6
:2054F400C0B2082815DA3800C0B2284490F8020869463A00D2B2895C884205D0D5F8180881
:20551400401CC5F8180804E00020C5F818087F1CE5E7D5F8180803280AD30020C5F81C0800
:20553400D5F82008801DC5F82008042085F80C08DFF8980C016811F1010F35D05FF0FF31B1
:20555400016031E001200870D5F8140802280ED30020C5F81408D5F82008801DC5F82008C8
:20557400042085F80C08082085F80D081CE0D5F81408401CC5F8140816E0D5F82008401C47
:20559400C5F82008D5F82008032803D30420DFF8381C8870D5F82008062805D30020C5F8FD
:2055B4001C08042085F80C083000C0B215B0BDE8F08F2DE9F04389B004000D0001A82021F6
:2055D40002F006FC0021002642F21077DFF85881D8F824087843D8F82828B0FBF2F9DFF8CD
:2055F4003C2D1078002805D152694BA101A802F001FC04E0DFF8281D01A802F0FBFB4FF693
:20561400FF70814500D1B94600200090012301AA082141F2102002F013FD40A798F80B28BA
:20563400390001A802F0E6FB00200090002301AA032141F2502002F003FDD8F82828390011
:2056540001A802F0D7FB00200090012301AA08214FF4915002F0F4FC642325200090B9FB0B
:20567400F3F003FB10936420B9FBF0F2DFF8B41C01A802F0BFFB00200090012301AA0621D6
:2056940041F2302002F0DCFC3000C0B209B0BDE8F083F0B589B00400DFF88C0C017822004A
:2056B400D2B2914234D004700078012817D12025DFF8786C01AF2A003100380002F050FEFB
:2056D400F82142F2602002F0A7FC00200090012301AA20214FF4935002F0B2FC19E0202590
:2056F400DFF8E86D01AF2A003100380002F038FE4EF2070142F2602002F08EFC00200090D7
:20571400012301AA20214FF4935002F099FC00E0047009B0F0BD0000256467002564000085
:20573400C0500020504E0020904400202030002028510020A44F0020E45000201FB504002B
:2057540001A8082102F044FB607E002808D0022879D03ED3042800F0ED80C0F0AF8025E162
:2057740000200090002301AA08214FF4835002F067FC00200090002301AA082141F27000B9
:2057940002F05EFC00200090002301AA08214FF4845002F055FC00200090002301AA082101
:2057B40041F2900002F04CFC4FF44151022002F01EFC43F25001022002F019FC43F2600190
:2057D400022002F014FC43F27001022002F00FFCECE000200090002314F1280208214FF492
:2057F400835002F02DFC00200090002301AA082141F2700002F024FC00200090002301AACD
:2058140008214FF4845002F01BFC00200090002301AA082141F2900002F012FC4FF44151EC
:20583400002002F0E4FB43F25001022002F0DFFB43F26001022002F0DAFB43F270010220A8
:2058540002F0D5FBB2E000200090002314F1280208214FF4835002F0F3FB002000900023EC
:2058740014F13002082141F2700002F0E9FB00200090002301AA08214FF4845002F0E0FBB0
:2058940000200090002301AA082141F2900002F0D7FB4FF44151002002F0A9FB43F25001B5
:2058B400002002F0A4FB43F26001022002F09FFB43F27001022002F09AFB77E00020009089
:2058D400002314F1280208214FF4835002F0B8FB00200090002314F13002082141F27000A8
:2058F40002F0AEFB00200090002314F1380208214FF4845002F0A4FB00200090002301AA98
:20591400082141F2900002F09BFB4FF44151002002F06DFB43F25001002002F068FB43F280
:205934006001002002F063FB43F27001022002F05EFB3BE000200090002314F12802082129
:205954004FF4835002F07CFB00200090002314F13002082141F2700002F072FB00200090CF
:20597400002314F1380208214FF4845002F068FB00200090002314F14002082141F2900016
:2059940002F05EFB4FF44151002002F030FB43F25001002002F02BFB43F26001002002F030
:2059B40026FB43F27001002002F021FB1FBD2DE9F24F90B004000027002600208DF8010074
:2059D4000020ADF802005FF00008002500200590B4F80500ADF804005FF0040914F1090AED
:2059F4000DF1140B4A465146584602F0B9FCBDF804004FF6FF71884208D0BDF80400DFF86A
:205A1400F01D8989884201D000201AE3DFF8E46DB4F80300A6F82E0A00203080E0798DF840
:205A340000009DF800001F2802D1207A8DF800009DF8000086F8280A002086F8240A002053
:205A540086F8260A9DF80000552809D00120DFF8A81D0870DFF8A40D0068DFF8A41D086074
:205A7400A078002802D1B4F8097003E0BDF84000B0F10B079DF80000042817D020283DD052
:205A940021287BD0222800F0A081232800F0E881252800F08580552800F06782F72810D0C8
:205AB400F8281AD0FE2800F08C82B6E2380080B2002805D132000021002000F0CDFA3080CA
:205AD400ABE2380080B2002806D132003221DFF8340D00F0C1FA30809FE2380080B20028B1
:205AF4000CD1002086F8240A002086F8260A32000C21DFF8140D00F0AFFA3080380080B211
:205B140007283BD1A07A002808D0A07A0A2802D1E07A002802D0E07A012822D1DFF8D08C00
:205B3400607A88F80A00A07A88F80000E07A88F804005FF0040914F10C0A18F1100B4A464A
:205B54005146584602F00CFC002086F8240A002086F8260AFFF76EFB98F8000001F0E7F9A8
:205B740005E0012086F8240A042086F8260ADFF8802C3100002000F05FFD3080380080B253
:205B940000280CD1002086F8240A002086F8260ADFF85C2C3100012000F04EFD30803CE298
:205BB400380080B20D28C0F20F8100200290DFF85C0C90F80C08800700F1F880607B002870
:205BD40000F0E480607B402880F2E080607B2044807B242880F2DA8048200C9000200B9037
:205BF400DFF82C8CC1460B9A0C994846FEF796FA607B401C0A9014F10D000990DFF814BC7B
:205C1400D9460A9A0999484602F0AAFB4146607B20440E3000F000FE88F81900042008909F
:205C3400607B2044617B2144897B08440F30079018F12009089A0799484602F091FB022008
:205C54000690607B2044617B2144897B08441330039018F11C09069A0399484602F080FB8F
:205C7400607B2044617B2144897B0844407D88F81A00DFF8149EDFF814AE18225946504658
:205C940002F0C6FB002823D1082218F1280119F1340002F0BDFB00281AD1042218F120017A
:205CB40019F12C0002F0B4FB002811D1022218F11C0119F1280002F0ABFB002808D10122B7
:205CD40018F11A0119F1260002F0A2FB00283BD018200A90CDF824B0CDF80CA00A9A099978
:205CF400039802F03DFB03980420089018F12000079019F12C0A089A0799504602F030FB7F
:205D14005FF0020A18F11C00069019F1280B52460699584602F024FB5FF0010B18F11A00B8
:205D3400039019F126085A460399404602F018FB19F10C01607B20440E3000F06DFD89F84E
:205D54002500012089F80C005FF0040814F109090DF1080A42464946504602F001FB00201F
:205D740086F8240A002086F8260A029802F0BAFBDFF81C0D0178032902D001780D291BD142
:205D94000178152918D00021417015E05FF048085FF00009DFF8FCAC4A4641465046FEF771
:205DB400BDF90320DFF8E81C487005E0012086F8240A042086F8260ADFF86005426902995D
:205DD400300000F085FB308027E1380080B2152845D1207F05002800C0B200282ED104220F
:205DF40016F5236114F1120002F012FB002825D15FF0040814F11609DFF88CAC1AF15C0BCC
:205E140042464946584602F0ABFA04208AF85500A07ECAF80400A07E8AF86100E07E8AF862
:205E34006000002086F8240A002086F8260A042086F82B0A002086F82A0A0AE00120DFF8C9
:205E5400481C81F85500012086F8240A042086F8260A32000021002000F0FEF83080DCE098
:205E7400380080B20228C0F27F80A07D0500002004905FF0FF305FF0FF31CDE90E01280009
:205E9400C0B200281AD1DFF8108C042218F1130114F1120002F0BCFA00280FD1002086F84E
:205EB400240A002086F8260A012088F8270ADFF8EC0B016831F0400101604FE02800C0B23D
:205ED40000281AD1042216F5236114F1120002F09FFA002811D1002086F8240A002086F8D0
:205EF400260A0120DFF8B01B81F8270ADFF8AC0B016831F04001016030E008220EA914F141
:205F14000A0002F085FA00281DD1042204A914F1120002F07DFA002815D12800C0B20028B9
:205F340011D1002086F8240A002086F8260A0120DFF8641B81F8270ADFF8600B016831F0E4
:205F5400400101600AE00120DFF83C1B81F85500012086F8240A042086F8260A3200002192
:205F7400002000F079F8308057E0380080B2202826D1DFF87C8898F80500617A88420ED108
:205F940098F80600A17A884209D198F80700E17A884204D198F80800217B884210D0607A4F
:205FB40088F80500A07A88F80600E07A88F80700207B88F80800FFF73DF94046FFF7ECF917
:205FD4002BE0380080B2002827D0607AADF80200BDF80200012803D1012086F82C0A16E019
:205FF400BDF80200022803D1022086F82C0A0EE0BDF80200042803D1032086F82C0A06E0A0
:20601400BDF80200002802D10A2086F82C0A32000021002000F020F83080308800280FD1F1
:206034009DF8010000280BD1012086F8240A042086F8260A32000021002000F00DF83080FB
:20605400308811B0BDE8F08FB4DF000894EA000834510020355100202DE9F84F05000E00B3
:20607400170000245FF00008002087F82A0A7E20210089B239448870641C5520210089B2E7
:2060940039448870641C0020210089B239448870641CDFF85C078189220092B23A4491705D
:2060B400641C808980B2000A210089B239448870641CB7F82E0A210089B239448870641C7E
:2060D400B7F82E0A80B2000A210089B239448870641C1F20210089B239448870641C97F819
:2060F400280A210089B239448870641C3000C0B2F1281BDB200080B238448670641C0020F4
:20611400210089B239448870641CB1465FFA89F9AA46200080B2384410F1020B4A46514655
:20613400584602F01DF954FA86F434E097F8240A00280ED1B1465FFA89F9AA46200080B2F1
:20615400384410F1020B4A465146584602F008F90EE0B1465FFA89F95FF0000A200080B27E
:20617400384410F1020B524649465846FDF7D6FF54FA86F497F8240A210089B2394488709D
:20619400641C97F8260A210089B239448870641C2000401E3871210089B2891E381D01F0EB
:2061B400E5FC0100200080B238448170641C080080B2000A220092B23A449070641C3C8046
:2061D4002000C0B2BDE8F28FC4000020045100202DE9F84F04000D0016005FF0000B002795
:2061F400012085F82A0AC5F8306A7E20594689B2294488701BF1010B5520594689B22944B1
:2062140088701BF1010B0020594689B2294488701BF1010BDFF8D80581895A4692B22A44D3
:2062340091701BF1010B808980B2000A594689B2294488701BF1010BB5F82E0A594689B2D6
:20625400294488701BF1010BB5F82E0A80B2000A594689B2294488701BF1010B2220594654
:2062740089B2294488701BF1010B0020594689B2294488701BF1010B5FF00808A1465846F7
:2062940080B2284410F1020A42464946504602F067F81BF1080B584680B2284486701BF1E4
:2062B400010B3000000A594689B2294488701BF1010B3000000C594689B2294488701BF1A6
:2062D400010B3000000E594689B2294488701BF1010B5846401E2871594689B2891E281DAE
:2062F40001F044FC8246594689B2891E281D01F03DFC0100584680B2284481701BF1010B5B
:2063140058460A0092B2120A03009BB22B449A70401C2880C0B2BDE8F28F0000C44D0020CB
:2063340038EB0008A0EA0008C200002040EB00082DE9FE4F04000D0016001F00DDF8308049
:206354005FF0000B0020ADF80400C6F8307A7E20594689B2314488701BF1010B552059468D
:2063740089B2314488701BF1010B0020594689B2314488701BF1010BDFF8740481895A46D1
:2063940092B2324491701BF1010B808980B2000A594689B2314488701BF1010BB6F82E0A8C
:2063B400594689B2314488701BF1010BB6F82E0A80B2000A594689B2314488701BF1010BE9
:2063D4002320594689B2314488701BF1010B0020594689B2314488701BF1010B5FF0080928
:2063F4000095584680B2304410F1020A4A460099504601F0B5FF1BF1080B584680B23044DC
:2064140087701BF1010B3800000A594689B2314488701BF1010B3800000C594689B2314425
:2064340088701BF1010B3800000E594689B2314488701BF1010B584680B2304480F8028055
:206454001BF1010B4046000A594689B2314488701BF1010B4046000C594689B23144887048
:206474001BF1010B4046000E594689B2314488701BF1010B584680B2304484701BF1010BAD
:206494005846401E3071594689B2891E301D01F06DFB8246594689B2891E301D01F066FB3C
:2064B4000100584680B2304481701BF1010B58460A0092B2120A03009BB233449A70401C45
:2064D4003080C6F8307AC0B2BDE8FE8F48EB00082DE9F84304000D00160000275FF00008BB
:2064F400002084F82A0A7E20390089B2214488707F1C5520390089B2214488707F1C0020AD
:20651400390089B2214488707F1CB94881893A0092B2224491707F1C808980B2000A3900F2
:2065340089B2214488707F1CB4F82E0A390089B2214488707F1CB4F82E0A80B2000A39006B
:2065540089B2214488707F1C1F20390089B2214488707F1C94F8280A390089B221448870BA
:206574007F1C0020390089B2214488707F1C380080B2204485707F1C2800000A390089B2DC
:20659400214488707F1C2800000C390089B2214488707F1C2800000E390089B22144887048
:2065B4007F1C380080B2204486707F1C3000000A390089B2214488707F1C3000000C3900B2
:2065D40089B2214488707F1C3000000E390089B2214488707F1C94F8240A390089B2214437
:2065F40088707F1C94F8260A390089B2214488707F1C3800401E2071390089B2891E201D4D
:2066140001F0B4FA8146390089B2891E201D01F0ADFA0100380080B2204481707F1C0800AD
:2066340080B2000A3A0092B2224490707F1C27803800C0B2BDE8F2832DE9F84F80460D00F0
:20665400160000240027002085F82A0A7E20210089B229448870641C5520210089B22944D7
:206674008870641C0020210089B229448870641C5F488189220092B22A449170641C80891E
:2066940080B2000A210089B229448870641CB5F82E0A210089B229448870641CB5F82E0A5E
:2066B40080B2000A210089B229448870641C1F20210089B229448870641C95F8280A2100E9
:2066D40089B229448870641C0020210089B229448870641C4046C0B2002849D0B07A2100A1
:2066F40089B229448870641C3078210089B229448870641C3079210089B229448870641C93
:206714003069210089B229448870641C3069000A210089B229448870641C3069000C2100E1
:2067340089B229448870641C3069000E210089B229448870641C5FF00809324810F1080A50
:20675400200080B2284410F1020B4A465146584601F006FE08340020210089B22944887082
:20677400641C0020210089B229448870641C1DE05FF00809234810F1080A200080B228448B
:2067940010F1020B4A465146584601F0E9FD083495F8240A210089B229448870641C95F876
:2067B400260A210089B229448870641C2000401E2871210089B2891E281D01F0D7F981466D
:2067D400210089B2891E281D01F0D0F90100200080B228448170641C20000A0092B2120AE9
:2067F40003009BB22B449A70401CC0B2BDE8F28FC050002020300020335100201C510020F7
:20681400F850002000500008E8F7FF1F904400205C4F00205D4F00202DE9F84F88B0040083
:206834000D007C208DF801005FF000095FF0000A5FF0000800260421002201AF3800FDF7C4
:206854006DFC20788DF8000000279DF800003900C9B288420FD33800C0B2205C9DF80110B6
:20687400884206D118F1010801A83100C9B24754761C7F1CE9E79DF80000002800F0D58062
:206894004046C0B200281ED1607800280BD1A078002808D1E078002805D12079002802D1F6
:2068B40005208046BCE09DF800009DF80490B0EB090914F1010A15F1280B4A4651465846C4
:2068D40001F04EFDACE04046C0B201281FD19DF80490B9F10109601C039015F1280A4A4617
:2068F4000399504601F03CFD9DF800009DF804A0B0EB0A0A9DF804002044401C029015F1BA
:20691400300B52460299584601F02AFD88E04046C0B2022835D19DF80400401E0590601CA7
:20693400049015F12809059A0499484601F018FD0DF1040B9BF801009DF80490B0EB090931
:20695400B9F101099DF804002044401C039015F1300A4A460399504601F002FD9DF80000FC
:206974009BF801A0B0EB0A0A9BF801002044401C029015F1380B52460299584601F0F0FC43
:206994004EE04046C0B203284AD19DF80400401E0790601C069015F12809079A06994846D2
:2069B40001F0DEFC0DF1040999F801009DF804A0B0EB0A0ABAF1010A9DF804002044401C64
:2069D400059015F1300B52460599584601F0C8FC99F8020099F801B0B0EB0B0BBBF1010B06
:2069F40099F801002044401C049015F1380002905A460499029801F0B3FC02989DF8001017
:206A140099F80200091A039199F802002044401C029015F14009039A0299484601F0A0FC91
:206A340018F101084046C0B200E0002009B0BDE8F08F10B5040060782178884223D060788C
:206A540020706078152808D1DFF8D80600780A2803D1152001F0B8FA15E020780D2809D1FD
:206A7400DFF8C00600780A2804D1207880B201F0ABFA08E02078DFF8AC16097851FA80F031
:206A940080B201F0A1FA10BD504E00205D4E0020285100205C4E0020583A0020F450002055
:206AB4002DE9F04391B004000D00160001A8202101F08EF909A8202101F08AF90020DFF852
:206AD4006896D9F81010D9F81470CF1B3178002908D0012964D0022900F05981142900F04A
:206AF400558154E1DFF8448698F80C00012842D118F10C00FEF722FE002000900123A21C42
:206B14000C214FF4825001F09BFA60780D280ADB00200090012314F10E020C214FF4B2504C
:206B340001F08EFA08E000200090012309AA0C214FF4B25001F084FA01A9206A00F02CF92F
:206B540000200090012301AA05214FF4885001F0F7FAA28BDFF8D81501A801F04BF9002090
:206B74000090012301AA0A2141F2101001F068FA022088F80C00002000900023DFF8B425A0
:206B940008214FF4995001F05BFA002000900023DFF8A4250E2141F2500001F051FAF6E00F
:206BB400DFF8888598F80C00012842D118F10C00FEF7C4FD002000900123A21C0C214FF438
:206BD400825001F03DFA60780D280ADB00200090012314F10E020C214FF4B25001F030FA3F
:206BF40008E000200090012309AA0C214FF4B25001F026FA01A9206A00F0CEF800200090F5
:206C1400012301AA05214FF4885001F099FAA28BDFF81C1501A801F0EDF800200090012344
:206C340001AA0A2141F2101001F00AFA022088F80C00002000900023DFF8FC24122141F244
:206C5400504001F0FDF9002000900023DFF8E42408214FF4995001F0F3F9D9F81010D9F803
:206C74001400091A002917D4D9F81010D9F81400091A4848006981420ED3DFF8441B087869
:206C9400002809D1206A00FB07F0A28BB0FBF2F06062012008701DE0D9F81010D9F814007A
:206CB400091A002912D4DFF8180B007800280DD0D9F81010D9F81400091A0F00206A00FB8A
:206CD40007F0A18BB0FBF1F0606203E00020070000206062DFF8B40B8078042805D1DFF8DC
:206CF400B00B0168B94200D307603A00C5A101A801F080F800200090002301AA05214FF48E
:206D1400895001F01DFA01A9606A00F045F800200090012301AA082141F2301001F010FAC7
:206D3400DFF87090D9F81020DFF8681B01A801F061F800200090012301AA08214FF49A5045
:206D540001F07EF901A9D9F81020206A4243A08BB2FBF0F000F020F800200090012301AABE
:206D740007214FF49B5001F06BF901A9D8F85C00626A101800F010F800200090012301AA13
:206D940008214FF48A5001F0DBF900E0FFE711B0BDE8F083C0500020F8B584B004000D0013
:206DB400B4F57A7F1BD26420B4FBF0F100FB11400A216422B0FBF1F301FB13000090B4FB42
:206DD400F2F002FB10420A20B2FBF0F36420B4FBF0F2DFF8C41A280001F00CF8A5E0B4F59F
:206DF4007A7F2AD342F21070844226D26420B4FBF0F100FB11400A2164224FF47A73B0FB2B
:206E1400F1F601FB16000190B4FBF2F002FB10420A20B2FBF0F00090B4FBF3F003FB1043CA
:206E34006420B3FBF0F34FF47A70B4FBF0F2DFF86C1A280000F0DEFF77E042F21070844248
:206E540033D3DFF85C1A8C422FD26421B4FBF1F201FB12410A2264234FF47A76B1FBF2F71B
:206E740002FB17110291B4FBF3F103FB11430A21B3FBF1F10191B4FBF6F106FB11466421A1
:206E9400B6FBF1F10091B4FBF0F100FB11404FF47A71B0FBF1F342F21070B4FBF0F2DFF805
:206EB400041A280000F0A6FF3FE0DFF8F4198C423BD3DFF8F429944237D26422B4FBF2F317
:206ED40002FB13420A2364264FF47A77B2FBF3FC03FB1C220392B4FBF6F206FB12460A22D8
:206EF400B6FBF2F20292B4FBF7F207FB12476422B7FBF2F20192B4FBF0F200FB12404FF492
:206F14007A72B0FBF2F00090B4FBF1F001FB104142F21070B1FBF0F3DFF88409B4FBF0F23F
:206F3400DFF88819280000F065FF05B0F0BD38B504002000C0B20A282AD14FF6FF75290055
:206F540042F2100001F068F829004FF4015001F063F8290042F2500001F05EF8290042F22E
:206F7400101001F059F8290042F2300001F054F8290042F2702001F04FF829004FF41950D7
:206F940001F04AF8290042F2303001F045F82CE0002142F2100001F03FF800214FF4015071
:206FB40001F03AF8002142F2500001F035F8002142F2101001F030F8002142F2300001F0D3
:206FD4002BF8002142F2702001F026F8002142F2200001F021F800214FF4195001F01CF835
:206FF400002142F2203001F017F8DFF8C4080078DFF8C0180978081880B200F0E5FF31BD79
:20701400000000002564000038B50400DFF8AC184878002810D12000C0B2002809D0DFF814
:20703400A0080470DFF89C0800684860102048703FE00020C8703CE04878102818D1486889
:207054002830DFF88028126890420DD2DFF8700802782300DBB29A4201D1047001E000207E
:20707400C8700420487024E0CC700420487020E0487804281DD14868C830DFF84828126889
:20709400904213D2DFF8380802782300DBB29A4205D1CA78007852EAC002CA7003E0CA781B
:2070B40000780243CA700020487002E0CC7010204870DFF8145828782100C9B288422ED0A0
:2070D4002C702878C00705D5002142F2106000F0A3FF05E04FF6FF7142F2106000F09CFF9F
:2070F4002878800705D5002142F2206000F094FF05E04FF6FF7142F2206000F08DFF2878B9
:20711400400705D5002142F2306000F085FF07E04FF6FF7142F2306000F07EFF00E02C7098
:2071340031BD0000C0500020C44D0020504E002050EB0008A0500020000000202DE9FE4F58
:20715400DFF88847206880040BD5206830F400502060DFF85C27DFF87817DFF87807FFF701
:207174009FFCDFF874572878800618D54FF44251002000F03CFF0E275FF00008DFF85C6764
:20719400B146424639004846FCF7C8FF5FF00E09DFF84CA74A465146300001F0E1F8DFF8B3
:2071B400446796F80C08C0071FD596F80C0810F0FE0086F80C08DFF8F8160878002802D022
:2071D4000878012811D1DFF82077DFF820070268390006F60200FEF7FBFF3880012086F8BD
:2071F4000A08206850F01000206096F80C08400740F1B88014275FF00008DFF8F49619F1C2
:20721400540AD346424639005846FCF787FFDFF8A0B69BF80000002804D09BF80000012893
:2072340040F09C80206830F4806020609BF80000002824D196F80C08400720D52068800547
:207254001DD5206830F400702060DFF884168A690869121A002A12D4DFF8580602698B69E7
:2072740008691B1A9A420AD2DFF888060F21017340F201114184206850F00400206096F8B0
:207294000C0810F0FB0086F80C080E20029000200190DFF848864746019A02993800FCF735
:2072B4003DFF0A200090DFF85076009A3900404601F056F800208BF801004FF442510220F3
:2072D40000F095FE96F80A08012842D1042086F80A080020C9F8300014275FF0000842465C
:2072F40039005046FCF71AFFDFF8A4A5DAF80000052828DBDFF8C8040078002823D0DFF870
:20731400FC75DAF800000090DFF8E00503683A0006F6020199F82600FFF70AF83880DFF8E8
:20733400A4050168DFF8D8251160216851F0800121600068C7F8340A0020CAF800000120AE
:2073540087F8230A05E0DFF87C050068DFF8B01508600120DFF8901581F82B0A0020DFF882
:207374006014087096F80C08800740F1C480DFF840150878002812D1DFF8382510790028D3
:2073940002D101204870B6E01079012840F0B38001204870206830F004002060ABE0087872
:2073B400012840F0A8800E275FF00008DFF82C95CA46424639005046FCF7B0FE5FF0000AB3
:2073D4005FF0000BDFF8EC040079002873D12878000670D4DFF8100590F82B1A042904D0EF
:2073F40090F82B0A022840F08680DFF8047597F86000002810D14FF44251002000F0F7FD3A
:20741400DFF8F0040F2101734FF481714184206850F02000206005E0206830F00400206076
:207434000120824697F8610001281CD10E27DFF8D4843A004146484600F092FF45F240019D
:20745400A22000F06AFF45F25001222000F065FF45F25011002000F0CAFD45F240110020C8
:2074740000F0C5FD15E045F24001FF2000F055FF45F25001FF2000F050FF45F250110220D6
:2074940000F0B5FD45F24011022000F0B0FD012083465846C0B2002808D05046C0B20028C5
:2074B40004D0206850F48060206024E0206830F4806020601FE045F24001FF2000F02DFFF6
:2074D40045F25001FF2000F028FF0E275FF00008424639004846FCF721FE45F25011022033
:2074F40000F085FD45F24011022000F080FD206850F48060206096F80D08000713D596F8A3
:207514000D0810F0F70086F80D08206850F008002060012086F80A08DFF8D8030F21017361
:2075340040F203114184DFF8D46396F8270AC0077DD596F8270A10F0FE0086F8270ADE4FAD
:20755400B81DFDF7DAFE00286DD0DFF8BC83DFF8BC934046FDF7A8FEA9F80000B9F8000063
:20757400B98888422DD12020019000200090DFF8A0A3D346009A01995846FCF7CFFD524611
:207594002021B9F800308020434313F58063180080B2FDF77BFE00283FD0B888C01038442A
:2075B400B988C9103944897980223B7913F00703D2B2DA4091438171FDF755FEFDF721FEFD
:2075D4002BE0202000905FF0000A19F1040B524600995846FCF7A2FD19F104022021BB8855
:2075F4008020434313F58063180080B2FDF74EFE002812D0B888C0103844B988C9103944AF
:20761400897980223B7913F00703D2B2DA4091438171FDF728FEFDF7F4FD4046FDF76DFEA9
:20763400388038887880206830F04000206096F8250A01284DD1002086F8250A96F8230AD2
:20765400012846D12820019000200090AF4FB846009A01994046FCF761FDDFF85C8218F188
:2076740006094846FDF76FFEA8F804004846FDF76AFE38803888C0104044807980213A7852
:2076940012F00702C9B2D14008433988C91041448871FDF7E8FDFDF7B4FD4846FDF72DFEB1
:2076B400A8F800005FF02008DFF86892DFF860A2D34642464946584600F052FE524620210E
:2076D4003B888020434313F58063180080B2FDF7DDFD914F3878C00750D5207810F0C00FC7
:2076F40048D12078800745D58C480178491C0170216831F002012160017814293ADB0021E7
:207714000170DFF8B48118F106094846FDF7F5FD00282FD04846FDF7C7FDA8F80400DFF864
:20773400ECA14846FDF7C0FDAAF800001AF1040842462021BAF800308020434313F58063F4
:20775400180080B2FDF768FD5FF01C0916F1020A4A464146504600F003FE1C2030802068D9
:2077740050F08000206057480068C6F8340A022086F8230A286830F00800286038780228CB
:207794001BD14D4C20880A2817DBA61D3000FDF7B4FD618880B281420FD23000FDF7ADFD5F
:2077B40060805448042101700F2101734FF482714184286850F008002860BDE8F78F000079
:2077D400325100202DE9F8430024414D95F8690095F86A60360456EA006695F86B0056EA8A
:2077F400002695F86C0006434D48304000F088FE80468946C6F3035000F082FE02000B0074
:207814000020484900F08AFE02000B004046494601F030FA0022444B01F050FB01F020FCF4
:20783400E860424FE968380001F0B4FD6869F968401A01F0E0FD022804DB00203870F868A5
:20785400686102E03878401C387038780B2803DB00203870F8686861354CF8682168401A3F
:2078740001F0C9FD03280BDA6879052804DB002068712068A86107E06879401C687103E0D6
:2078940000206871F8682060BDE8F183C40000200451002058EB000860EB0008ACEA00084D
:2078B400A0860100B8EA000840420F0054EA000828510020C0500020A44F0020EC500020D4
:2078D400375100201C51002036510020F4500020C44D00205C4E00201051002000000020B8
:2078F40064EA00089044002020300020FC500020504E0020E04F0020C4EA0008583A0020D9
:207914000051002074EA0008AA4F002050500020545000201C500020335100203851002006
:20793400FFFF0F100000244000408F4078500020085100202DE9F04104000D0016005FF085
:2079540001080027280080B2002860D001F086FD002801D1002080464046C0B2002808D0E5
:20797400A02001F010FE01F0EDFD002801D1002080464046C0B2002808D0200080B2000A25
:20799400C0B201F000FE01F0DDFD80464046C0B2002806D02000C0B201F0F5FD01F0D2FDB6
:2079B40080464046C0B2002805D001F057FD002801D1002080464046C0B2002808D0A1201A
:2079D40001F0E1FD01F0BEFD002801D1002080466D1E4046C0B2002817D000200700380047
:2079F400290080B289B2884208D201F0F1FD390089B2705401F076FD7F1CF0E701F0E8FD76
:207A1400390089B2705401F085FD01F053FD4046C0B2BDE8F0812DE9F04104000D001600EA
:207A340000275FF00108280080B2002842D001F015FD002801D1002080464046C0B200281C
:207A540008D0A02001F09FFD01F07CFD002801D1002080464046C0B2002808D0200080B259
:207A7400000AC0B201F08FFD01F06CFD80464046C0B2002806D02000C0B201F084FD01F0EE
:207A940061FD8046002007003800290080B289B288420DD24046C0B2002807D0380080B2AF
:207AB400305C01F070FD01F04DFD80467F1CEBE701F000FD052001F0C8FC4046C0B2BDE8F5
:207AD400F0812DE9F04704000D00160000275FF000085FF0000A200010F03F0F1BD014F079
:207AF4003F00D0F1200007002800390080B289B2884200D22F00404680B206EB00023900CE
:207B140089B218EB040080B2FFF785FF8146ED1B17EB080801E05FF001094846C0B2002820
:207B34001FD0280080B200281BD0202007002800390080B289B2884200D22F00404680B23D
:207B540006EB0002390089B218EB040080B2FFF762FF8146ED1B17EB08084846C0B2002811
:207B7400DFD14846C0B2BDE8F087000070B403000022002400264FF6FF7000258D4214D204
:207B94005A5D504000221600082E0CD2C20706D580B2020048F2084090EA520001E080B205
:207BB4004008761CF0E76D1CE8E780B2C04380B270BC704730B400210023002410F02D02E3
:207BD40080B2400800252900C9B2062906DAD10700D55B1C92B252086D1CF4E7D90701D563
:207BF40050F4004080B230BC704730B4002513E050F8042BD30744BFA9F101039A18091F50
:207C1400042942F8045BFAD213468C0744BF15809B1CC90748BF1D7050F8041B0029E7D1D7
:207C340030BC70472DE9FE4300250026082100226C462000FCF772FA0027644C220008214D
:207C540047F6F870FFF776FE05002800C0B2002814D05FF000085FF0000906212000FFF76A
:207C740085FFE18802000B0092B29BB29A4202D00022150001E00122150007E0322001F03D
:207C9400E4FB7F1C3800C0B20328D6DB5FF000086A4608214FF4FC40FFF74CFE06003000AB
:207CB400C0B2002814D000275FF0000906216846FFF75CFFBDF8061002000B0092B29BB224
:207CD4009A4202D00022160001E00122160008E0322001F0BAFB18F101084046C0B203287B
:207CF400D6DB55EA0600C0B2002809D14AF6AA2020800220608000F019F800F044F813E03A
:207D14003000C0B2002802D100F03DF80CE02800C0B2002808D10827E9463A0049462000BF
:207D340000F01EFB00F002F8BDE8F78370B500240025264E0020F08006213000FFF716FF49
:207D5400F0803200082147F6F870FFF7BAFE04002000C0B2002806D0320008214FF4FC4083
:207D7400FFF7AFFE04002000C0B2002808D1322001F06BFB6D1C2800C0B20328E1DBFFE71C
:207D94002000C0B270BD70B5002400250F4E0020F08006213000FFF7E9FEF08032000821B6
:207DB4004FF4FC40FFF78DFE04002000C0B2002808D1322001F049FB6D1C2800C0B2032843
:207DD400ECDBFFE72000C0B270BD0000E45000200022FCF7A7B9B1F5807F02D34FF0FF3072
:207DF40070470170012070470078401E8041C043C00F70470CB430B583B00A4606A90291E5
:207E1400044600250194009502AB01A9084878441E3001F009FC019A157000284EBF04466F
:207E34000198041B204603B030BC5DF80CFB00BFD70500002DE9FE4F502002900020019064
:207E5400DFF80045019A02992000FCF767F9502000900024DFF8F0542E00220000993000F1
:207E7400FCF75CF94FF484760027DFF8E084C1463A0031004846FCF751F95FF002095FF021
:207E9400000ADFF8CCB4524649465846FCF746F95FF4E13002F02CFC012002F07FFC4FF427
:207EB400907118F1010002F0B3FC4FF4907115F1080002F0F0FC5FF40030DFF89814086064
:207ED4004FF49070DFF890140860DFF89004016851F001010160BDE8F78FF0B404000020FD
:207EF40000255A260700FFB2DE55401CA5260700FFB2DE55401CFF260700FFB2DE55401C04
:207F140082260700FFB2DE55401C2600B6B2360A0700FFB2DE55401C0600F6B29C55401C4E
:207F340000263500EDB21700ADB2BFB2BD4208D23500EDB24D5D0700FFB2DD55401C761C1D
:207F5400EFE7C51E9D70C0B2F0BC7047F0B40400002000255A260700FFB2DE55401CA526F3
:207F74000700FFB2DE55401CFF260700FFB2DE55401C82260700FFB2DE55401C2600B6B2BD
:207F9400360A0700FFB2DE55401C0600F6B29C55401C00263500EDB21700ADB2BFB2BD426B
:207FB4000DD200250700FFB2DD55401C3500EDB24D5D0700FFB2DD55401C761CEAE7C51E59
:207FD4009D70C0B2F0BC704770B50400DFF87C536E1C3100200080B200F032F985F8010135
:207FF40095F8011189B2300002F0F8FB70BDF8B504000D00D54E771C3A00290089B220001F
:2080140080B200F058F986F8010196F8011189B2380002F0E3FBF1BD73B50400CB4D6E1CFA
:208034003300022201A9E01C80B2FFF756FF85F8010195F8011189B2300002F0CFFB73BD3D
:208054002DE9F14F8AB00D0016001F00149C202100220DF104084046FCF760F85FF0000AF3
:208074005FF00008300002F0A1FC814628004946C0B2C9B288420CD2A946CA465FFA8AFAE7
:2080940000960DF1040B52460099584600F068F93EE0202000905FF0200A0DF1040B5246FD
:2080B40000995846FCF73AF83800C0B2002813D15FEAC97008D52900C9B24846C0B2091A74
:2080D400491C4910884615E02900C9B24846C0B2091A491088460DE03800C0B2012801D18B
:2080F400A04607E03800C0B2022803D1281BB0EB09008046CA465FFA8AFA009601A8414697
:20811400C9B200EB010B52460099584600F028F9DFF838A21AF1010B5B462A00D2B292B29E
:2081340001A9BDF82800FFF7D8FE8AF801019AF8011189B2584602F051FB0BB0BDE8F08FBA
:208154002DE9F14F8AB00D0016001F00149C202100220DF104084046FBF7E0FF5FF0000A6C
:208174005FF00008300002F021FC814628004946C0B2C9B288420CD2A946CA465FFA8AFA66
:2081940000960DF1040B52460099584600F0E8F83EE0202000905FF0200A0DF1040B52467D
:2081B40000995846FBF7BAFF3800C0B2002813D15FEAC97008D52900C9B24846C0B2091AED
:2081D400491C4910884615E02900C9B24846C0B2091A491088460DE03800C0B2012801D18A
:2081F400A04607E03800C0B2022803D1281BB0EB09008046CA465FFA8AFA009601A8414696
:20821400C9B200EB010B52460099584600F0A8F8DFF838A11AF1010B5B462A00D2B292B21F
:2082340001A9BDF82800FFF791FE8AF801019AF8011189B2584602F0D1FA0BB0BDE8F08F81
:2082540010B4020000205A230400E4B20B55401CA5230400E4B20B55401CFF230400E4B277
:208274000B55401C82230400E4B20B55401C00230400E4B20B55401C84230400E4B20B5519
:20829400401C5A230400E4B20B55401C01230400E4B20B55401C13009BB21B0A0400E4B202
:2082B4000B55401C0300DBB2CA54401CC31E8B70C0B210BC704730B4030000205A24050089
:2082D400EDB25455401CA5240500EDB25455401CFF240500EDB25455401C82240500EDB25E
:2082F4005455401C0C00A4B2240A0500EDB25455401C0400E4B21155401C1C00A4B2240A30
:208314000500EDB25455401C0400E4B21355401CC41E9470C0B230BC7047F8B504000D0089
:208334000A4E771C3A00290089B2200080B2FFF7C2FF86F8010196F8011189B2380002F012
:208354004DFAF1BD0C4F0020BC4E0020BC4C002028510020040002405C0002405800024030
:2083740062B38B0708D0521E11F8013B00F8013B00F024808B07F6D1830740F0208000BF7B
:20839400103A07D330B4B1E83810103AA0E83810F9D230BC530724BFB1E80810A0E8081081
:2083B40044BF51F8043B40F8043BD20724BF31F8022B20F8022B44BF0B7803707047121F6F
:2083D40017D35B0009D151F8043B20F8023B1B0C121F20F8023BF6D20BE051F8043B00F8AD
:2083F400013B1B0A20F8023B1B0C121F00F8013BF3D238BF121D521E24BF11F8013B00F8AC
:20841400013BF8D870470268531C0360117070470300002013F0030F09D0521E22BF13F8A4
:20843400010B11F801CBB0EB0C00F3D0704711F0030F14D1121F22BF53F8040B51F804CBAA
:208454006045F7D0121D0AD200BA9CFA8CFCB0EB0C0038BF6FF0000088BF01207047521E2D
:2084740022BF13F8010B11F801CBB0EB0C00F6D0521C08BF1046704780B5012002F0B2FA78
:2084940002F0B8FA012002F05BFB612002F01EFC0028FAD04FF4007002F057FB012002F032
:2084B40059FB02F0ABFC02F0A4FC0021012002F05FFC02F09EFC49F63F4002F08BFC02F0E5
:2084D40098FC01BD10B5040002F093FC02F096FC02F08FFC2100C9B2012002F049FC02F005
:2084F40088FC10BD10B50400012002F07BFA02F080FC200002F061FC02F07BFC10BD2E0085
:20851400014648B1B0FA80F18840C91CC1F58461090501EBD0214005704743002DE9F04D27
:2085340016461F46044626F0000A37F0004008BFBAF1000F8AB00D4600F056830020DFF8C7
:20855400B41622462B4602F087FC00F04D83DFF8A81602F081FC06D178004015401C02D158
:20857400390300F0418368004015401C00F0588224F0000035F0004108BF002800F05082E9
:2085940078004015401C00F04B82BB464FEA4B0151EADA714FEA4A0008BF00281CD040F245
:2085B4003342A2EB5150352804DB0AF0000A0BF0004B11E0202805DD20382BFA00F101FAFA
:2085D40000FB00E002D14FF0000A05E00028C4BF2AFA00F101FA00FAE80F22D0390007D5F8
:2085F40000224FF00043921BBB41CDE9002301E0CDE9006759460029504605D500224FF0AA
:208614000043101A63EB0101DDE900238B4208BF824206D0AFF300804FF0FF306FF0004142
:20863400E4E225F00041B1F5801F24F000000CD20022002908BF0028029211D002AA294609
:2086540002F01AFC04460D460AE0DFF8B02502EB1150DFF8AC1502900D40DFF8A8150D4322
:20867400E80F08BF00223DD0594650464B0043EAD0734200002B08BF002A25F0004517D06A
:2086940040F2344CACEB5352352A04DB00F0000001F000410CE0202A03DD203AD140914026
:2086B40000E001D1002003E0002AC4BFD0409040BBF1000F06D500224FF00043B2EB0A0A79
:2086D40063EB0B0B002905D500224FF00043101A63EB01018B4508BF824502D10021059119
:2086F40001E0012205920298012833D120462946DFF81425DFF8143502F0F6FB2AD24800D8
:208714004FF00008400DC246DFF8E8B400F1010212D0002A10DD40F2FF70824207DBDFF82B
:20873400F01405F00043002443EA010533E06FF31E5141EA02552EE024F0000035F00041A4
:2087540008BF002827D00122294602F0E5FB04460D4620E00020DFF8BC1422462B4600F08E
:20877400ADFBDFF8A0B400225B4602F073FC02F02FFDA0F12008404602F048FD0022DFF861
:20879400983400F09BFB00225B4602F063FC82468B464FEA48182046294652465B4602F02D
:2087B40047FDCDE9000152465B462046294602F051FC02460B46DDE9000100F05BFACDE902
:2087D4000601DDE9062300F079FBCDE900015246204629465B4602F02BFDDDE90023044619
:2087F4000D46DFF83804DFF8381400F067FBDFF83424DFF8343402F02DFCDDE9002300F028
:208814005DFBDFF82824DFF8283402F023FCDDE9002300F053FBDFF81C24DFF81C3402F02E
:2088340019FCDDE9002300F049FBDFF81024DFF8103402F00FFCDDE9002300F03FFBDFF8E5
:208854000424DFF8043402F005FCDDE9002300F035FBDFF8F823DFF8F83302F0FBFBCDE93F
:20887400080152460020DFF88C135B4602F0E0FC0B465A00520D02F1010C15D0BCF1000F93
:2088940012DD40F2FF72944508DBDFF8842301F000404FF0000A40EA020B10E06FF31E5384
:2088B40043EA0C5B82460AE020F0000231F000430EBF002A012202F02FFB82468B46DDE953
:2088D4000023DDE9080100F0F9FA22462B4602F0AFFC52465B4602F0BDFBDDE9062300F077
:2088F400EDFADFF800E3FE440EF2FA2EC644CDF804E022462B4602F0ADFB044602980D46FC
:2089140002F084FCDDF804E0DEE9002302F0A2FBCDE906012246DFF83C03DFF83C132B46CD
:2089340000F0CCFADDE9062302F094FB32463B4600F0C4FA0022DFF8243302F0D5FA66D30C
:208954000122DFF81C3302F0E5FC5DD9CA0F1ABF0022C44BAB4B02F07DFB02F039FC002225
:20897400A44BDFF804A3DFF804B3CDE903238046CDF8008032463B462046294600F09EFAAB
:20899400044601988446D0E902230D46DCE9040102F060FB32463B4600F090FA52465B4622
:2089B40000F08CFA22462B4602F054FBCDE90101DDE906453046394622462B4600F07EFA14
:2089D40004460D46404602F021FC02460B462046294602F02DFC52465B4600F06FFADDE970
:2089F400012302F037FBDDE9032302F0ABFC20F0000631F0004708BF002E08D04A0052159A
:208A1400521C06D10B0304D10020814901E000200021059A002A00F0E98081F00041E5E075
:208A340068004015401C04D1290302D020462946DCE078004015401C04D1390302D0304623
:208A54003946D3E0790001204915491C7CD03B46590051EADA7B4FEA4A0104BF0029CDE997
:208A74000067324619D040F23341A1EB5B51352904DB02F0000203F000430CE0202903DDC0
:208A94002039CB408B4000E001D1002203E00029C4BFCA408A40CDE900233B0008D500214A
:208AB4004FF0004B8A1B6BEB0303CDE9022301E0CDE90263DDE90023002B05D500214FF0F2
:208AD40000468A1A66EB0303DDE902AB9B450CBF92450020DDE90023590041EAD276510026
:208AF400002E08BF002917D040F23441A1EB5651352904DB02F0000203F000430CE02029E7
:208B140003DD2039CB408B4000E001D1002203E00029C4BFCA408A40B0B1DDE900010029AA
:208B340005D500264FF0004B301A6BEB0101002B05D500264FF0004BB21A6BEB030399423D
:208B540006BF90420020012069004915491C07D12A0305D1EC0F1BD1FE0F3FD0002045E0DA
:208B740079004915491C1BD13A0319D125F00041B1F5801F24F000001DD20022002908BFE2
:208B9400002800921BD06A46294602F075F916E0FE0F02D1002822D01DE0002826D006E0AC
:208BB400002814BFEC0F0024FE0F13D17CB100204FF000411AE0114A02EB11500090FE0F89
:208BD400009802D1002809DC01E0002806DD002000210BE014B10020254907E000200C4942
:208BF40004E000BFD8530000002002490AB0BDE8F08D00000000F03F0000F0BF02FCFFFF72
:208C1400FFFF0F800000E03FCD3B7F669EA0E63F0000F07F000050400000903FF7DE29BFB9
:208C3400D8F8C23FF4B3FECC1A99C33F62CB68D96F46C73FC6C912DAC471CC3F4AE98A94F4
:208C54002449D23FF75F97999999D93FBC5555555555E53FFE822B654715F73F0000E0C0E7
:208C74000000E0400000E0BFEF39FAFE422EE63F0000F0FFF0B540F2FF7581EA030C0CF0BC
:208C9400004C15EA11541DBF15EA1357AC42AF42E5E0BC41C1F31301C3F31303801A994122
:208CB40043F4801304D2641E4000494180185941C90241EA5051B1FBF3F603FB1611A2FB94
:208CD4000675D7EBC020A94102D2761E80185941C90241EA5051B1FBF3FE03FB1E11A2FBE1
:208CF4000E75D7EBC020A94103D2AEF1010E80185941890241EA9051760546EA8E2EB1FBF2
:208D1400F3F603FB1611A2FB0675D7EB8020A94102D2761E80185941C90241EA50514EEA64
:208D3400060EB1FBF3F603FB1611A2FB0675D7EBC020A94102D2761E80185941C90241EA1D
:208D54005051B1FBF3F703FB1711A2FB0735D3EBC020A94167F100070CBF004247F0010796
:208D740066F3D5274FEA1E31B80814F5806412DDBD0775F1004250EB0E5051EB045111F5CA
:208D9400801F5CBF41EA0C01F0BD4CF07F6141F0E0410020F0BDBD076D0840EA0E5041F4EF
:208DB4008011D4F10104B4F120060ADAC4F120060200E04001FA06F3E1401843B2401543DE
:208DD4000EE0342C13DCC6F1200445EA40056D0820FA06F2154321FA06F0A1400D430021B1
:208DF40075F1004250F1000051EB0C01F0BD00205FEA0C01F0BDCFB992185B41B3FA83F768
:208E140004BFB2FA82F6BF190B3FB7F120062FBF02FA06F3BB40C7F1200622FA06F638BF9C
:208E34003343BA401CB1E419641E33E77F4231F00041B1FA81F404BFB0FA80F6A4190B3C1E
:208E5400B4F120062FBF00FA06F1A140C4F1200620FA06F638BF3143A0403C1B1AE7AC42F1
:208E74001ABF05EA1357AF4212E050EA41061CBF52EA4306BFE750EA4107304661461CBFC8
:208E940041EA0551F0BD52EA430C08BFC143F0BD00204FF4001616EB410F98BF16EB430F19
:208EB40008BF16EB410F24BFC14305E016EB430F0CBF61464CEA0551F0BD0000B0B581EAEC
:208ED400030C0CF0004C40F2FF7515EA11541DBF15EA1357AC42AF4239E0E41923EA45533E
:208EF40043F48013C90241F0004141EA505EC7021100A7FB020200284FF00000EEFB01208D
:208F14004FF00001E3FB072118BF42F00102401800214941E3FB0E01A4F580640F0302D298
:208F340052004041494154F101046CDD470872F1004250F1000051EB0451A1F580115CBF25
:208F540041EA0C01B0BD4CEA05510020B0BD05EA1357AC4214BFAF4241E050EA410E1CBFAF
:208F740052EA430E02E061460020B0BD24423C441BD15FEA070EF6D0090302BF0146002010
:208F9400AEF1140EB1FA81F7AEEB070401FA07FE0C37C7F1200100FA07F7C8404EEA000ED3
:208FB40023EA455343F48013A2E733F00043B3FA83F704BFB2FA82FE77440B3FE41BB7F17D
:208FD400200E2FBF02FA0EF3BB40C7F1200E22FA0EFE38BF43EA0E03BA40641C82E750EA09
:208FF400410E14BF52EA430E6FF000014FF4001717EB430F8ABF194617EB410FB5E74CEAD4
:2090140005510020B0BDD4F10104B4F120070FDAC4F12007520828BF42F0010210FA07F582
:2090340001FA07F7E1BF2A43E0403843E1400FE0352C98DCC7F1200452EA400220FA07F229
:2090540018BF42F0010231FA07F0A1400A43002172F1004250F1000051EB0C01B0BD0000E3
:20907400400D491840EA81200CD2490DA1F58061491C40F0004005DBD1F11F0154BFC84006
:20909400C017704700207047F8B55FF4E13002F013FB012002F074FBDFF8E842E16A14F173
:2090B400300002F084FBA16D14F1660002F0C7FB5FF40010DFF8D01208604FF49070DFF830
:2090D400CC120860DFF8C802016851F0010101603825002614F15407320029003800FBF720
:2090F4001DF80020A0600120E060032084F82000012060840220A084F1BD2DE9F8430400B9
:209114000D0016001F005FF000095FF00008FF204946C9B2785419F101094846C0B23C54B1
:2091340019F10109280080B2000A4946C9B2785419F101094846C0B23D5419F101093000E4
:2091540080B2000A4946C9B2785419F101094846C0B23E5419F101094946C9B2380000F0FD
:2091740089F801004846C0B2395419F10109080080B2000A4A46D2B2B85419F101094846B2
:20919400C0B2BDE8F2832DE9F84F06000F0090469946DDF828A00B9C0C9D5FF0000B0020A1
:2091B400ADF80000FF205946C9B20AF801001BF1010B5846C0B20AF800601BF1010B404692
:2091D40080B2000A5946C9B20AF801001BF1010B5846C0B20AF800801BF1010B484680B2A0
:2091F400000A5946C9B20AF801001BF1010B5846C0B20AF800901BF1010B5846C0B20AF850
:2092140000701BF1010B200080B2000A5946C9B20AF801001BF1010B5846C0B20AF80040CF
:209234001BF1010B280080B2000A5946C9B20AF801001BF1010B5846C0B20AF800501BF1FB
:20925400010B5946C9B2504600F014F801005846C0B20AF800101BF1010B080080B2000AC3
:209274005A46D2B20AF802001BF1010B5846C0B2BDE8F28F70B403000022002600244FF68C
:20929400FF7000252A000E00F6B292B2B6B2B24218D22A0092B29A5C504000221400220070
:2092B400D2B2082A0CDAC20706D580B202004AF2010090EA520001E080B24008641CEEE76D
