:020000040800F2
:10400000D85A0020E1EA0008B1E40008B3E400084F
:10401000B5E40008B7E40008B9E4000800000000B7
:10402000000000000000000000000000BBE40008E9
:10403000BDE4000800000000BFE40008C1E400087F
:1040400025EC000829EC00082DEC000897E6000894
:1040500031EC000835EC000839EC00083DEC0008B4
:1040600041EC000845EC000849EC00084DEC000864
:1040700051EC000855EC0008F3E50008CFE5000816
:1040800057E500087BE5000859EC00085DEC0008E6
:1040900061EC000865EC000869EC00086DEC0008B4
:1040A00071EC000875EC000879EC00087DEC000864
:1040B00081EC000885EC000889EC00088DEC000814
:1040C00091EC000895EC000899EC00089DEC0008C4
:1040D000A1EC000895E500081DE5000815E60008BC
:1040E000A5EC0008A9EC0008ADEC0008B1EC000854
:1040F000B5EC0008B9EC0008BDEC0008C1EC000804
:10410000C5EC0008C9EC0008CDEC0008D1EC0008B3
:10411000E7E4000855E60008D5EC0008D9EC0008F3
:10412000DDEC0008E1EC0008E5EC0008E9EC000833
:1041300062F30F2262F31F42401810F0030308D00D
:10414000C91A1FD3DB0748BF00F8012D28BF20F88C
:10415000022D130030B414461546103928BF20E94B
:104160003C00FAD8490728BF20E90C0048BF40F8B6
:10417000042D890028BF20F8022D48BF00F8012D2A
:1041800030BC7047C91818BF00F8012DCB0728BFF5
:1041900000F8012D704700000022FFF7CDBFF009A5
:1041A00008CEB4B0F3B6A8CDD0C5CC000143010110
:1041B0001C51072003000102030404F0090806074C
:1041C0000809020406084E96000452FF01E35E7ED1
:1041D00014200400007693000854F00316440000F5
:1041E0002000012002417B00082C432F7B3C210151
:0541F0000001010005C3
:105000002043533131313020323330363239303170
:105010002047323330323030000000000000000002
:105020000000000000000000000000000000000080
:0250300000007E
:105034002DE9F0476C240025DFF8D4662A0021000E
:105044003000FFF773F840F624060027DFF8C48623
:105054003A0031004046FFF769F840F638285FF01F
:105064000009DFF8B4A64A4641465046FFF75EF809
:1050740000F014F8002804D00320DFF8A0164870CC
:1050840003E00220DFF894164870DFF88006002160
:105094008170007801F080FFBDE8F0872DE9F047CA
:1050A4005FF0000800240025DFF860663200182154
:1050B400002001F0FDFF07003800C0B2002810D026
:1050C4005FF000085FF000091421300002F00CF9D1
:1050D400716902000B0092B29BB29A4201D0002285
:1050E4001700320018214FF4807001F0E1FF804670
:1050F4004046C0B200280FD000245FF000091421FC
:10510400300002F0F1F8716902000B0092B29BB218
:105114009A4201D00022904658EA0700C0B2002803
:1051240021D118245FF00009B2464A4621005046B6
:10513400FEF7FCFF0020B070002070700120B081E9
:10514400C0207071A820B0710120F0710B20307262
:105154000120F07000203071002030703220306166
:1051640000F068F826E03800C0B201280FD14046AC
:10517400C0B200280BD132001821002001F098FFA2
:10518400320018214FF4807002F059F812E0380010
:10519400C0B200280ED14046C0B201280AD1320064
:1051A40018214FF4807001F083FF32001821002091
:1051B40002F045F802F0BCF845F25550DFF86015EE
:1051C4000A88824208D14A88737A9BB29A4203D1F0
:1051D4008A88B3899A4206D00880B089888002F010
:1051E4002BF902F056F93800C0B2012805D1404627
:1051F400C0B2012801D1012005002800C0B2BDE8D9
:10520400F08710B50024DFF81C253C214FF4C8704A
:1052140001F04EFFC0B210BDF8B504000D00160039
:1052240000273200290089B2200080B201F040FF3B
:10523400C0B2F2BD70B50024DFF8D0640020706104
:105244001421300002F050F870613200182100205F
:1052540001F0F5FF0500320018214FF4807001F0D1
:10526400EEFFC0B270BD38B50024DFF8B85400209A
:10527400A8633821280002F037F8A8632A003C21EB
:105284004FF4C87001F0DBFFC0B232BDF8B50400C2
:105294000D00160000273200290089B2200080B2D8
:1052A40001F0CDFFC0B2F2BD30B401008024002073
:1052B400002200250023180080B232281ADA0020C8
:1052C40002001000C0B2082812DA180080B2085C8C
:1052D400204202D0280080B20DE0E4B264086D1CC4
:1052E4002000C0B2002801D180200400521CE8E74D
:1052F4005B1CE0E7002030BC704730B40100802420
:1053040000200025002200231D00ADB2322D17DA43
:1053140000252A001500EDB2082D0FDA1D00ADB2EC
:105324004D5D254200D0401CE4B264082500EDB276
:10533400002D01D180252C00521CEBE75B1CE3E718
:1053440080B230BC704730B40100802400200022B9
:1053540000250023180080B232281ADA0020020047
:105364001000C0B2082812DA180080B2085C20428B
:1053740002D1280080B20DE0E4B264086D1C200064
:10538400C0B2002801D180200400521CE8E75B1C55
:10539400E0E7002030BC704710B58AB0040002A8D2
:1053A4002021FEF7F7FE207A0190E0790090A3799E
:1053B4006279DFF8DC1C02A802F0AEF8002000904D
:1053C400002302AA1E2141F2100002F0CBF9207A38
:1053D4000190E0790090A3796279DFF8B81C02A803
:1053E40002F09AF800200090002302AA142141F24E
:1053F400300002F0B7F90AB010BD2DE9F84F94B0AF
:1054040004000D000026002750210022E8464046F3
:10541400FEF78CFE002194F81380D5F82008401C78
:10542400C5F82008D5F81008401CC5F8100885F800
:105434000B884046C0B2002877D0DFF85C1C08789F
:10544400002804D10320DFF8C42D107003E00520E8
:10545400DFF8B82D1070D5F81C08401CC5F81C08DE
:105464004046C0B201284FD100200870D5F8140876
:10547400401CC5F814080020C5F818085FF0080996
:1054840014F1140AEB464A465146584602F0FAFA19
:10549400DFF8780DD5F81418027891420DD1012067
:1054A40085F80C085FF00809EA4605F6020B4A463F
:1054B4005146584602F0E6FA46E00078D5F814184A
:1054C400884241D2022085F80C08002007003800E9
:1054D400C0B2082838DA3800C0B2284490F802086C
:1054E40069463A00D2B2895C88420BD00020C5F8E4
:1054F4001408D5F818080C30C5F81808042085F8E5
:105504000C0821E07F1CE2E7012008700020C5F8A8
:105514001408D5F818080C30C5F81808042085F8C4
:105524000C08082085F80D080EE0D5F81808401C72
:10553400C5F81808D5F818080C2805D30020C5F8B4
:105544001408042085F80C083000C0B215B0BDE87A
:10555400F08F2DE9F8438AB004000D0002A8202141
:10556400FEF718FE5FF000080026DFF8A891D9F8CE
:105574001C0802F0E9FA0700D9F8200802F0E4FA5E
:105584000100380002F0EEFADFF8841C02F068FB38
:1055940002F0D2FB0700DFF87C0C426959A102A893
:1055A40001F0BAFF38004FF6FF7180B2884202D191
:1055B40042F21070070000200090012302AA082183
:1055C40041F2102002F0CEF899F80B28DFF8481CBD
:1055D40002A801F0A1FF00200090002302AA0321E9
:1055E40041F2502002F0BEF8D9F8202846A102A8C2
:1055F40001F092FF00200090012302AA08214FF439
:10560400915002F0AFF83A0092B2642092FBF0F1AC
:1056140000FB11220A23BC461FFA8CFC5FF0640EC7
:10562400380080B24FF47A7192FBF3F803FB18222E
:1056340001929CFBFEF20EFB12CC0A229CFBF2F2BE
:10564400009290FBF1F201FB1200642190FBF1F354
:10565400380080B24FF47A7190FBF1F2DFF8041D48
:1056640002A801F059FF00200090012302AA08219A
:1056740041F2302002F076F83000C0B20BB0BDE841
:10568400F08318B599B004002000C0B201280FD1EE
:1056940011A8DFF8D41C202202F004FA00200090A4
:1056A400012311AA20214FF4935002F05BF826E065
:1056B4002000C0B202280FD109A8DFF8B01C2022B4
:1056C40002F0F0F900200090012309AA20214FF4F0
:1056D400935002F047F812E02000C0B204280ED123
:1056E40001A8DFF8241E202202F0DCF9002000903B
:1056F400012301AA20214FF4935002F033F81AB089
:1057040010BD00002564670025640000603A002095
:105714007037002038150020C8000020C03A00204F
:10572400783A00206C3900201FB5040001A8082134
:10573400FEF730FD607E002808D0022879D03ED3E1
:10574400042800F0ED80C0F0AF8025E10020009037
:10575400002301AA08214FF4835002F003F800202B
:105764000090002301AA082141F2700001F0FAFF21
:1057740000200090002301AA08214FF4845001F076
:10578400F1FF00200090002301AA082141F29000BB
:1057940001F0E8FF4FF44151022001F0BAFF43F257
:1057A4005001022001F0B5FF43F26001022001F034
:1057B400B0FF43F27001022001F0ABFFECE00020E7
:1057C4000090002314F1280208214FF4835001F0C3
:1057D400C9FF00200090002301AA082141F27000B3
:1057E40001F0C0FF00200090002301AA08214FF41B
:1057F400845001F0B7FF00200090002301AA082183
:1058040041F2900001F0AEFF4FF44151002001F04D
:1058140080FF43F25001022001F07BFF43F260015C
:10582400022001F076FF43F27001022001F071FFC3
:10583400B2E000200090002314F1280208214FF464
:10584400835001F08FFF00200090002314F13002F8
:10585400082141F2700001F085FF00200090002330
:1058640001AA08214FF4845001F07CFF002000902D
:10587400002301AA082141F2900001F073FF4FF4C4
:105884004151002001F045FF43F25001002001F096
:1058940040FF43F26001022001F03BFF43F270013C
:1058A400022001F036FF77E000200090002314F17D
:1058B400280208214FF4835001F054FF0020009087
:1058C400002314F13002082141F2700001F04AFF74
:1058D40000200090002314F1380208214FF4845072
:1058E40001F040FF00200090002301AA082141F2AA
:1058F400900001F037FF4FF44151002001F009FFFF
:1059040043F25001002001F004FF43F26001002043
:1059140001F0FFFE43F27001022001F0FAFE3BE0C9
:1059240000200090002314F1280208214FF4835032
:1059340001F018FF00200090002314F13002082128
:1059440041F2700001F00EFF00200090002314F1DA
:10595400380208214FF4845001F004FF0020009025
:10596400002314F14002082141F2900001F0FAFEF4
:105974004FF44151002001F0CCFE43F250010020CD
:1059840001F0C7FE43F26001002001F0C2FE43F2C1
:105994007001002001F0BDFE1FBD2DE9F24F8EB055
:1059A40004000027002600208DF801005FF00008A5
:1059B400002500200490B4F80500ADF802005FF063
:1059C400040914F1090A0DF1100B4A4651465846D0
:1059D40002F058F8BDF802004FF6FF71884208D073
:1059E400BDF80200DFF88C1C8989884201D00020B0
:1059F400E3E2DFF8846CB4F80300A6F82C0A002074
:105A04003080E0798DF800009DF800001F2802D155
:105A1400207A8DF800009DF8000086F8270A0020FF
:105A240086F8230A002086F8250AA078002802D1E7
:105A3400B4F8097003E0BDF83800B0F10B079DF825
:105A44000000042815D020284DD0212800F0918092
:105A5400222800F0AD81232800F0F781252800F0EA
:105A6400A080F72816D0F82826D0FF2800F07882E6
:105A74008FE2380080B200280BD1DFF8BC0D00683B
:105A8400DFF8B81D086032000021002000F006FB9A
:105A940030807EE2380080B200280CD1DFF8980D07
:105AA4000068DFF8981D086032003221DFF8900D9D
:105AB40000F0F4FA30806CE2380080B2002812D191
:105AC400DFF8740D0068DFF8741D0860002086F8A4
:105AD400230A002086F8250A32000C21DFF8640D21
:105AE40000F0DCFA3080380080B2072841D1A07A77
:105AF400002808D0A07A0A2802D1E07A002802D02F
:105B0400E07A012822D1DFF86C8B607A88F80A00E9
:105B1400A07A88F80000E07A88F804005FF00409AD
:105B240014F10C0A18F1100B4A465146584601F07C
:105B3400A9FF002086F8230A002086F8250AFFF72B
:105B440079FB98F8000001F027FA05E0012086F8B7
:105B5400230A042086F8250ADFF8DC0C0068DFF845
:105B6400DC1C0860DFF80C2B3100002000F086FDFF
:105B74003080380080B2002812D1DFF8BC0C0068F5
:105B8400DFF8B81C0860002086F8230A002086F895
:105B9400250ADFF8E02A3100012000F06FFD308093
:105BA400F7E1380080B20D28C0F201810020019095
:105BB400607B402880F2E480607B2044807B242842
:105BC40080F2DE8048200B9000200A90DFF8788C69
:105BD400C1460A9A0B994846FEF7A8FA607B401C16
:105BE400099014F10D000890DFF860BCD946099AB9
:105BF4000899484601F046FF4146607B20440E3038
:105C040000F02AFE88F8190004200790607B2044E5
:105C1400617B2144897B08440F30069018F12009E8
:105C2400079A0699484601F02DFF02200590607BF3
:105C34002044617B2144897B08441330029018F18D
:105C44001C09059A0299484601F01CFF607B204418
:105C5400617B2144897B0844407D88F81A00DFF881
:105C6400F09BDFF8F0AB18225946504602F07EF85C
:105C7400002823D1082218F1280119F1340002F078
:105C840075F800281AD1042218F1200119F12C000A
:105C940002F06CF8002811D1022218F11C0119F14C
:105CA400280002F063F8002808D1012218F11A0133
:105CB40019F1260002F05AF800283BD01820099068
:105CC400CDF820B0CDF808A0099A0899029801F0FF
:105CD400D9FE02980420079018F12000069019F1CB
:105CE4002C0A079A0699504601F0CCFE5FF0020A8E
:105CF40018F11C00059019F1280B524605995846D5
:105D040001F0C0FE5FF0010B18F11A00029019F1C6
:105D140026085A460299404601F0B4FE19F10C01D6
:105D2400607B20440E3000F097FD89F825000120A7
:105D340089F80C005FF0040814F109090DF1040A54
:105D440042464946504601F09DFE002086F8230A4B
:105D5400002086F8250A0120DFF8741D08700198D8
:105D640002F06EF8DFF86C0D0178032902D0017897
:105D74000D290BD10178142908D00021417005E0C8
:105D8400012086F8230A042086F8250ADFF8A80AE9
:105D94000068DFF8A81A0860DFF87804406902F0A8
:105DA4004BF902000199300000F0B0FB3080F0E0C4
:105DB400380080B2152847D1207F0500DFF8181D70
:105DC40014F10A0001F00CF8002826D02800C0B213
:105DD400002822D15FF0040814F11609DFF870AA34
:105DE4001AF15C0B42464946584601F04BFE04202A
:105DF4008AF85500A07ECAF80400A07E8AF86100E3
:105E0400E07E8AF86000002086F8230A002086F8E5
:105E1400250A042086F82A0A0AE00120DFF8301A4D
:105E240081F85500012086F8230A042086F8250A03
:105E3400DFF8040A0068DFF8041A08603200002161
:105E4400002000F02BF93080A3E0380080B2022853
:105E5400C0F28580A07D0500002003905FF0FF3034
:105E64005FF0FF31CDE90C01DFF8588118F10D091D
:105E7400494614F10A0000F0B3FF002818D02800A6
:105E8400C0B2002814D1042218F1150114F1120033
:105E940001F06CFF00280BD1002086F8230A0020B3
:105EA40086F8250A0120DFF8341C81F8260A4AE026
:105EB400494614F10A0000F093FF002818D0280086
:105EC400C0B2002814D1DFF8148C042218F5236121
:105ED40014F1120001F04AFF002809D1002086F8CD
:105EE400230A002086F8250A012088F8260A2AE0D9
:105EF40008220CA914F10A0001F038FF002817D178
:105F0400042203A914F1120001F030FF00280FD17C
:105F14002800C0B200280BD1002086F8230A0020F4
:105F240086F8250A0120DFF8B41B81F8260A0AE066
:105F34000120DFF81C1981F85500012086F8230A96
:105F4400042086F8250ADFF8F0080068DFF8EC186A
:105F5400086032000021002000F0A0F8308018E032
:105F6400380080B2022814DB002086F8230A0020BF
:105F740086F8250A012086F8260ADFF8BC0800689E
:105F8400DFF8B818086032000021002000F086F81D
:105F94003080308800280FD19DF8010000280BD1F3
:105FA400012086F8230A042086F8250A32000021FD
:105FB400002000F073F8308030880FB0BDE8F08F17
:105FC40000000000183A00202DE9F84F04000D00ED
:105FD40016000022002000210027B4F80580434663
:105FE4009BB24FF6FF7C634508D04046DFF8843609
:105FF4009B8980B2984201D0002047E0DFF8789670
:10600400B4F80300A9F82C0A0020A9F8000094F8B9
:1060140007A0A078002802D1B4F809B001E0B6F1D5
:106024000B0B5046C0B2042808D0302812D03128B7
:1060340017D0322816D0342815D014E0584680B230
:10604400002806D14A460021002000F027F8A9F8CC
:10605400000008E0584680B2002801D00120070063
:1060640001E000E0FFE7B9F8000000280CD10120AE
:1060740089F8230A042089F8250A4A4600210020C9
:1060840000F00CF8A9F800003800C0B2BDE8F28FA7
:1060940070E00008F0EA0008CC3A00202DE9F84F3F
:1060A40005000E00170000245FF00008002087F8A8
:1060B400290A7E20210089B239448870641C552045
:1060C400210089B239448870641C0020210089B2FF
:1060D40039448870641CDFF89C058189220092B2DF
:1060E4003A449170641C808980B2000A210089B20C
:1060F40039448870641CB7F82C0A210089B23944E9
:106104008870641CB7F82C0A80B2000A210089B296
:1061140039448870641C1F20210089B23944887076
:10612400641C97F8270A210089B239448870641CDA
:106134003000C0B2F1281BDB200080B238448670E6
:10614400641C0020210089B239448870641CB14663
:106154005FFA89F9AA46200080B2384410F1020B94
:106164004A465146584601F08DFC54FA86F434E010
:1061740097F8230A00280ED1B1465FFA89F9AA4696
:10618400200080B2384410F1020B4A46514658466A
:1061940001F078FC0EE0B1465FFA89F95FF0000A7D
:1061A400200080B2384410F1020B5246494658464A
:1061B400FDF7BCFF54FA86F497F8230A210089B24C
:1061C40039448870641C97F8250A210089B239443F
:1061D4008870641C2000401E3871210089B2891E19
:1061E400381D01F081F80100200080B2384481702C
:1061F400641C080080B2000A220092B23A449070F3
:10620400641C3C802000C0B2BDE8F28FC6000020B0
:1062140000401C46E836002094EB00082DE9F84FB6
:1062240004000D0016005FF0000B0027012085F824
:10623400290A7E20594689B2294488701BF1010B32
:106244005520594689B2294488701BF1010B00205E
:10625400594689B2294488701BF1010BDFF81404F4
:1062640081895A4692B22A4491701BF1010B8089AC
:1062740080B2000A594689B2294488701BF1010B87
:10628400B5F82C0A594689B2294488701BF1010BD0
:10629400B5F82C0A80B2000A594689B2294488709C
:1062A4001BF1010B2220594689B2294488701BF145
:1062B400010B0020594689B2294488701BF1010B57
:1062C4005FF00808A146584680B2284410F1020A3B
:1062D40042464946504601F0D5FB1BF1080B58468F
:1062E40080B2284486701BF1010B3000000A594625
:1062F40089B2294488701BF1010B3000000C594607
:1063040089B2294488701BF1010B3000000E5946F4
:1063140089B2294488701BF1010B5846401E28712C
:10632400594689B2891E281D00F0DEFF824659466F
:1063340089B2891E281D00F0D7FF0100584680B29B
:10634400284481701BF1010B58460A0092B2120ACC
:1063540003009BB22B449A70401C2880C0B2BDE855
:10636400F28F0000FCEA00081CEA00083CEA00087E
:106374002DE9FE4F04000D0016001F00DDF83080EB
:106384005FF0000B0020ADF804007E20594689B26E
:10639400314488701BF1010B5520594689B23144B0
:1063A40088701BF1010B0020594689B23144887072
:1063B4001BF1010BAF4881895A4692B23244917065
:1063C4001BF1010B808980B2000A594689B231441D
:1063D40088701BF1010BB6F82C0A594689B2314476
:1063E40088701BF1010BB6F82C0A80B2000A5946DA
:1063F40089B2314488701BF1010B2320594689B2BC
:10640400314488701BF1010B0020594689B2314494
:1064140088701BF1010B5FF008090095584680B2A3
:10642400304410F1020A4A460099504601F02AFB12
:106434001BF1080B584680B2304487701BF1010BE6
:106444003800000A594689B2314488701BF1010BA7
:106454003800000C594689B2314488701BF1010B95
:106464003800000E594689B2314488701BF1010B83
:10647400584680B2304480F802801BF1010B40463C
:10648400000A594689B2314488701BF1010B404619
:10649400000C594689B2314488701BF1010B404607
:1064A400000E594689B2314488701BF1010B5846DD
:1064B40080B2304484701BF1010B5846401E307189
:1064C400594689B2891E301D00F00EFF8246594696
:1064D40089B2891E301D00F007FF0100584680B2C2
:1064E400304481701BF1010B58460A0092B2120A23
:1064F40003009BB233449A70401C3080C6F8307A53
:10650400C0B2BDE8FE8F00005CEA00082DE9F84344
:1065140004000D00160000275FF00008002084F836
:10652400290A7E20390089B2214488707F1C5520B5
:10653400390089B2214488707F1C0020390089B257
:10654400214488707F1C4B4881893A0092B22244CE
:1065540091707F1C808980B2000A390089B221447D
:1065640088707F1CB4F82C0A390089B221448870E1
:106574007F1CB4F82C0A80B2000A390089B2214485
:1065840088707F1C1F20390089B2214488707F1CC9
:1065940094F8270A390089B2214488707F1C0020AE
:1065A400390089B2214488707F1C380080B22044AD
:1065B40085707F1C2800000A390089B22144887044
:1065C4007F1C2800000C390089B2214488707F1C8C
:1065D4002800000E390089B2214488707F1C3800DD
:1065E40080B2204486707F1C3000000A390089B2D2
:1065F400214488707F1C3000000C390089B221448A
:1066040088707F1C3000000E390089B221448870E4
:106614007F1C94F8230A390089B2214488707F1CB6
:1066240094F8250A390089B2214488707F1C380007
:10663400401E2071390089B2891E201D00F054FECD
:106644008146390089B2891E201D00F04DFE0100EB
:10665400380080B2204481707F1C080080B2000A98
:106664003A0092B2224490707F1C27803800C0B256
:10667400BDE8F283603A0020C80000202DE9F84FFD
:1066840080460D00160000240027002085F8290A02
:106694007E20210089B229448870641C5520210081
:1066A40089B229448870641C0020210089B22944DD
:1066B4008870641CDFF824078189220092B22A447E
:1066C4009170641C808980B2000A210089B2294437
:1066D4008870641CB5F82C0A210089B2294488709A
:1066E400641CB5F82C0A80B2000A210089B229443E
:1066F4008870641C1F20210089B229448870641C9E
:1067040095F8270A210089B229448870641C002066
:10671400210089B229448870641C4046C0B2002814
:1067240049D0B07A210089B229448870641C307839
:10673400210089B229448870641C3079210089B20F
:1067440029448870641C3069210089B22944887006
:10675400641C3069000A210089B229448870641CD1
:106764003069000C210089B229448870641C3069A6
:10677400000E210089B229448870641C5FF0080966
:106784002F4810F1080A200080B2284410F1020BAF
:106794004A465146584601F075F908340020210054
:1067A40089B229448870641C0020210089B22944DC
:1067B4008870641C1DE05FF00809214810F1080A84
:1067C400200080B2284410F1020B4A465146584634
:1067D40001F058F9083495F8230A210089B22944B4
:1067E4008870641C95F8250A210089B229448870B0
:1067F400641C2000401E2871210089B2891E281DB6
:1068040000F072FD8146210089B2891E281D00F026
:106814006BFD0100200080B228448170641C2000BC
:106824000A0092B2120A03009BB22B449A70401CD5
:10683400C0B2BDE8F28F0000B43A0020943A0020C0
:1068440000500008E8F7FF1F2439002025390020F4
:10685400703700207D3700202DE9F84F88B0040000
:106864000D007C208DF801005FF000095FF0000A44
:106874005FF0000800260421002201AF3800FDF774
:1068840055FC20788DF8000000279DF800003900A1
:10689400C9B288420FD33800C0B2205C9DF8011001
:1068A400884206D118F1010801A83100C9B2475441
:1068B400761C7F1CE9E74046C0B200281ED16078F0
:1068C40000280BD1A078002808D1E078002805D151
:1068D4002079002802D105208046BCE09DF8000004
:1068E4009DF80490B0EB090914F1010A15F1280B85
:1068F4004A465146584601F0C5F8ACE04046C0B29D
:1069040001281FD19DF80490B9F10109601C03907E
:1069140015F1280A4A460399504601F0B3F89DF848
:1069240000009DF804A0B0EB0A0A9DF8040020447E
:10693400401C029015F1300B52460299584601F062
:10694400A1F888E04046C0B2022835D19DF8040081
:10695400401E0590601C049015F12809059A0499BD
:10696400484601F08FF80DF1040B9BF801009DF8E7
:106974000490B0EB0909B9F101099DF80400204421
:10698400401C039015F1300A4A460399504601F021
:1069940079F89DF800009BF801A0B0EB0A0A9BF877
:1069A40001002044401C029015F1380B5246029914
:1069B400584601F067F84EE04046C0B203284AD179
:1069C4009DF80400401E0790601C069015F12809EC
:1069D400079A0699484601F055F80DF1040999F80B
:1069E40001009DF804A0B0EB0A0ABAF1010A9DF86F
:1069F40004002044401C059015F1300B52460599C3
:106A0400584601F03FF899F8020099F801B0B0EB4C
:106A14000B0BBBF1010B99F801002044401C0490BE
:106A240015F1380002905A460499029801F02AF8A8
:106A340002989DF8001099F80200091A039199F838
:106A440002002044401C029015F14009039A029967
:106A5400484601F017F818F101084046C0B209B0E1
:106A6400BDE8F08F38B504006078217888422ED0D4
:106A740060782070607814280BD1D84800780A28F0
:106A840007D1142000F032FE0120DFF8E0158880E1
:106A94001DE020780D2808D1D04800780A2804D1B8
:106AA400207880B200F022FE11E0CC4D20782978C5
:106AB40051FA80F080B200F019FE2078297851FA5A
:106AC40080F0142803D10120DFF8A015888031BD9F
:106AD400CB3A0020C03A00203A1D0020000B0020D1
:106AE4002DE9F04F91B004000D00160001A82021FB
:106AF400FDF750FB09A82021FDF74CFB00200027DF
:106B0400DFF86CB5DBF81010DBF81480B1EB080883
:106B1400B8F1000F02D55FF00008FFE700206062C3
:106B24003078002808D0012864D0022800F053816E
:106B3400142800F04F814EE1DFF8389599F80C00E5
:106B4400012842D119F10C00FEF7EEFD002000905F
:106B54000123A21C0C214FF4825000F003FE607844
:106B64000D280ADB00200090012314F10E020C21F1
:106B74004FF4B25000F0F6FD08E00020009001232D
:106B840009AA0C214FF4B25000F0ECFD01A9206ACF
:106B940000F03FF900200090012301AA05214FF4E1
:106BA400885000F05FFEA28BDFF8CC1401A800F03F
:106BB400B3FC00200090012301AA0A2141F2101025
:106BC40000F0D0FD022089F80C0000200090002382
:106BD400DFF8A82408214FF4995000F0C3FD0020E9
:106BE40000900023DFF898240E2141F2500000F0B9
:106BF400B9FDF0E0DFF87C9499F80C00012842D14B
:106C040019F10C00FEF790FD002000900123A21C56
:106C14000C214FF4825000F0A5FD60780D280ADBAA
:106C240000200090012314F10E020C214FF4B25005
:106C340000F098FD08E000200090012309AA0C212F
:106C44004FF4B25000F08EFD01A9206A00F0E1F883
:106C540000200090012301AA05214FF4885000F080
:106C640001FEA28BDFF8101401A800F055FC0020EF
:106C74000090012301AA0A2141F2101000F072FDD4
:106C8400022089F80C00002000900023DFF8F02394
:106C9400122141F2504000F065FD002000900023D5
:106CA400DFF8D82308214FF4995000F05BFDDBF89E
:106CB4001010DBF81400081A002801D50020FFE7A3
:106CC400DFF818A1DAF8101088420ED3DFF8B413F5
:106CD4000878002809D1206A00FB08F0A28BB0FBD9
:106CE400F2F060620120087016E0DFF89803007883
:106CF400002811D0DBF81010DBF81400081A002863
:106D040002D55FF0000800E08046206A00FB08F02E
:106D1400A18BB0FBF1F06062DFF86C03006800281F
:106D24000AD57F1C3800C0B2062805DB0020804647
:106D340000206062002007004246CBA101A800F0B9
:106D4400EBFB00200090002301AA05214FF4895099
:106D540000F088FD01A9606A00F05BF80020009053
:106D6400012301AA082141F2301000F07BFDDAF87A
:106D74001020C64901A800F0CFFB00200090012399
:106D840001AA08214FF49A5000F0ECFC01A9DAF8AA
:106D94001020206A4243A08BB2FBF0F000F039F8D7
:106DA40000200090012301AA07214FF49B5000F01A
:106DB400D9FC01A9D9F85C00626A101800F029F81E
:106DC40000200090012301AA08214FF48A5000F00A
:106DD40049FD00E0FFE711B0BDE8F08F603A002004
:106DE40030B402000120002300242300DBB2082B6E
:106DF4000CDA2300DBB2D35C2500EDB24D5DAB426F
:106E040002D00023180001E0641CEEE7C0B230BCDD
:106E14007047F8B584B004000D00B4F57A7F1AD237
:106E24006420B4FBF0F100FB11400A216422B0FBA2
:106E3400F1F301FB13000090B4FBF2F002FB1042EB
:106E44000A20B2FBF0F36420B4FBF0F2904928006E
:106E540000F062FB9EE0B4F57A7F29D342F2107011
:106E6400844225D26420B4FBF0F100FB11400A21D6
:106E740064224FF47A73B0FBF1F601FB1600019023
:106E8400B4FBF2F002FB10420A20B2FBF0F00090D7
:106E9400B4FBF3F003FB10436420B3FBF0F34FF4B3
:106EA4007A70B4FBF0F27B49280000F035FB71E006
:106EB40042F21070844231D377498C422ED264213D
:106EC400B4FBF1F201FB12410A2264234FF47A76F7
:106ED400B1FBF2F702FB17110291B4FBF3F103FBD0
:106EE40011430A21B3FBF1F10191B4FBF6F106FB66
:106EF40011466421B6FBF1F10091B4FBF0F100FB03
:106F040011404FF47A71B0FBF1F342F21070B4FB0C
:106F1400F0F26249280000F0FFFA3BE05E498C423F
:106F240038D35F4A944235D26422B4FBF2F302FBB5
:106F340013420A2364264FF47A77B2FBF3FC03FB73
:106F44001C220392B4FBF6F206FB12460A22B6FB9D
:106F5400F2F20292B4FBF7F207FB12476422B7FB8A
:106F6400F2F20192B4FBF0F200FB12404FF47A7299
:106F7400B0FBF2F00090B4FBF1F001FB104142F2DF
:106F84001070B1FBF0F34448B4FBF0F2454928001B
:106F940000F0C2FA05B0F0BD38B504002000C0B25C
:106FA4000A282AD14FF6FF75290042F2100000F09A
:106FB400C5FB29004FF4015000F0C0FB290042F248
:106FC400500000F0BBFB290042F2101000F0B6FBA9
:106FD400290042F2300000F0B1FB290042F2702097
:106FE40000F0ACFB29004FF4195000F0A7FB290076
:106FF40042F2303000F0A2FB2CE0002142F21000FB
:1070040000F09CFB00214FF4015000F097FB00219D
:1070140042F2500000F092FB002142F2101000F006
:107024008DFB002142F2300000F088FB002142F287
:10703400702000F083FB002142F2200000F07EFB70
:1070440000214FF4195000F079FB002142F2203066
:1070540000F074FB1448007814490978081880B2C9
:1070640000F044FB31BD000025640000A839002075
:10707400E8360020703700209CEB0008403A0020DE
:1070840000000020CA3A002030380020A4EB000899
:10709400ACEB000808EB0008A086010014EB000824
:1070A40040420F00B0EA0008C03A0020603A0020D5
:1070B4002DE9F04104000D0016005FF001080027DF
:1070C400280080B2002860D001F00AF8002801D11D
:1070D400002080464046C0B2002808D0A02001F01D
:1070E40094F801F071F8002801D100208046404650
:1070F400C0B2002808D0200080B2000AC0B201F05B
:1071040084F801F061F880464046C0B2002806D0F9
:107114002000C0B201F079F801F056F880464046EC
:10712400C0B2002805D000F0DBFF002801D1002008
:1071340080464046C0B2002808D0A12001F065F87E
:1071440001F042F8002801D1002080466D1E40461F
:10715400C0B2002817D0002007003800290080B2F0
:1071640089B2884208D201F075F8390089B27054A6
:1071740000F0FAFF7F1CF0E701F06CF8390089B2E7
:10718400705401F009F800F0D7FF4046C0B2BDE8E2
:10719400F0812DE9F04104000D00160000275FF096
:1071A4000108280080B2002842D000F099FF00288E
:1071B40001D1002080464046C0B2002808D0A0205B
:1071C40001F023F801F000F8002801D100208046E6
:1071D4004046C0B2002808D0200080B2000AC0B2E5
:1071E40001F013F800F0F0FF80464046C0B20028DA
:1071F40006D02000C0B201F008F800F0E5FF804698
:10720400002007003800290080B289B288420DD2DC
:107214004046C0B2002807D0380080B2305C00F08D
:10722400F4FF00F0D1FF80467F1CEBE700F084FF01
:10723400052000F04CFF4046C0B2BDE8F0812DE9C6
:10724400F04704000D00160000275FF000085FF00F
:10725400000A200010F03F0F1BD014F03F00D0F1C3
:10726400200007002800390080B289B2884200D289
:107274002F00404680B206EB0002390089B218EBB9
:10728400040080B2FFF785FF8146ED1B17EB080869
:1072940001E05FF001094846C0B200281FD0280071
:1072A40080B200281BD0202007002800390080B2BB
:1072B40089B2884200D22F00404680B206EB000219
:1072C400390089B218EB040080B2FFF762FF8146EF
:1072D400ED1B17EB08084846C0B20028DFD148462A
:1072E400C0B2BDE8F087000070B40300002200249F
:1072F40000264FF6FF7000258D4214D25A5D50408F
:1073040000221600082E0CD2C20706D580B2020055
:1073140048F2084090EA520001E080B24008761C2E
:10732400F0E76D1CE8E780B2C04380B270BC7047E0
:107334002DE9FE4300250026082100226C4620008A
:10734400FCF7F4FE0027644C2200082147F6F8708D
:10735400FFF7AEFE05002800C0B2002814D05FF08D
:1073640000085FF0000906212000FFF7BDFFE18857
:1073740002000B0092B29BB29A4202D00022150086
:1073840001E00122150007E0322000F0A0FE7F1C7E
:107394003800C0B20328D6DB5FF000086A46082133
:1073A4004FF4FC40FFF784FE06003000C0B2002812
:1073B40014D000275FF0000906216846FFF794FF08
:1073C400BDF8061002000B0092B29BB29A4202D0A2
:1073D4000022160001E00122160008E0322000F02D
:1073E40076FE18F101084046C0B20328D6DB55EA00
:1073F4000600C0B2002809D14AF6AA202080022043
:10740400608000F019F800F044F813E03000C0B2D6
:10741400002802D100F03DF80CE02800C0B200289A
:1074240008D10827E9463A004946200000F02AFB23
:1074340000F002F8BDE8F78370B500240025264E5D
:107444000020F08006213000FFF74EFFF08032006C
:10745400082147F6F870FFF7F2FE04002000C0B2DE
:10746400002806D0320008214FF4FC40FFF7E7FE65
:1074740004002000C0B2002808D1322000F027FE0A
:107484006D1C2800C0B20328E1DBFFE72000C0B276
:1074940070BD70B5002400250F4E0020F080062139
:1074A4003000FFF721FFF080320008214FF4FC4048
:1074B400FFF7C5FE04002000C0B2002808D1322026
:1074C40000F005FE6D1C2800C0B20328ECDBFFE7CA
:1074D4002000C0B270BD0000783A002030B400250E
:1074E40013E050F8042BD30744BFA9F101039A1801
:1074F400091F042942F8045BFAD213468C0744BFDF
:1075040015809B1CC90748BF1D7050F8041B002937
:10751400E7D130BC704700000CB430B583B00A46E4
:1075240006A90291044600250194009502AB01A925
:10753400084878441E3000F0B9FE019A15700028FE
:107544004EBF04460198041B204603B030BC5DF8CE
:107554000CFB00BF0F0800002DE9FE4F50200290E5
:1075640000200190DFF80045019A02992000FCF701
:10757400DDFD502000900024DFF8F0542E0022009E
:1075840000993000FCF7D2FD4FF484760027DFF831
:10759400E084C1463A0031004846FCF7C7FD5FF07D
:1075A40002095FF0000ADFF8CCB452464946584657
:1075B400FCF7BCFD5FF4E13001F0DCFE012001F0DA
:1075C4002FFF4FF4907118F1010001F056FF4FF4B2
:1075D400907115F1080001F093FF5FF40030DFF8BB
:1075E400981408604FF49070DFF890140860DFF886
:1075F4009004016851F001010160BDE8F78FF0B417
:107604000400002000255A260700FFB2DE55401C66
:10761400A5260700FFB2DE55401CFF260700FFB277
:10762400DE55401C82260700FFB2DE55401C2600B2
:10763400B6B2360A0700FFB2DE55401C0600F6B2A9
:107644009C55401C00263500EDB21700ADB2BFB208
:10765400BD4208D23500EDB24D5D0700FFB2DD55E5
:10766400401C761CEFE7C51E9D70C0B2F0BC70478D
:10767400F0B40400002000255A260700FFB2DE55AE
:10768400401CA5260700FFB2DE55401CFF2607005C
:10769400FFB2DE55401C82260700FFB2DE55401CB7
:1076A4002600B6B2360A0700FFB2DE55401C0600BB
:1076B400F6B29C55401C00263500EDB21700ADB261
:1076C400BFB2BD420DD200250700FFB2DD55401CFC
:1076D4003500EDB24D5D0700FFB2DD55401C761C50
:1076E400EAE7C51E9D70C0B2F0BC704770B50400D7
:1076F400DFF87C536E1C3100200080B200F032F9B8
:1077040085F8010195F8011189B2300001F09FFE5E
:1077140070BDF8B504000D00D54E771C3A00290061
:1077240089B2200080B200F058F986F8010196F879
:10773400011189B2380001F08AFEF1BD73B504006D
:10774400CB4D6E1C3300022201A9E01C80B2FFF76E
:1077540056FF85F8010195F8011189B2300001F056
:1077640076FE73BD2DE9F14F8AB00D0016001F009F
:10777400149C202100220DF104084046FCF7D6FC9D
:107784005FF0000A5FF00008300001F043FF81461B
:1077940028004946C0B2C9B288420CD2A946CA469A
:1077A4005FFA8AFA00960DF1040B52460099584686
:1077B40000F068F93EE0202000905FF0200A0DF10F
:1077C400040B524600995846FCF7B0FC3800C0B28E
:1077D400002813D15FEAC97008D52900C9B2484608
:1077E400C0B2091A491C4910884615E02900C9B2DB
:1077F4004846C0B2091A491088460DE03800C0B2A4
:10780400012801D1A04607E03800C0B2022803D104
:10781400281BB0EB09008046CA465FFA8AFA009634
:1078240001A84146C9B200EB010B524600995846E3
:1078340000F028F9DFF838A21AF1010B5B462A00A0
:10784400D2B292B201A9BDF82800FFF7D8FE8AF897
:1078540001019AF8011189B2584601F0F8FD0BB004
:10786400BDE8F08F2DE9F14F8AB00D0016001F001E
:10787400149C202100220DF104084046FCF756FC1C
:107884005FF0000A5FF00008300001F0C3FE81469B
:1078940028004946C0B2C9B288420CD2A946CA4699
:1078A4005FFA8AFA00960DF1040B52460099584685
:1078B40000F0E8F83EE0202000905FF0200A0DF18F
:1078C400040B524600995846FCF730FC3800C0B20D
:1078D400002813D15FEAC97008D52900C9B2484607
:1078E400C0B2091A491C4910884615E02900C9B2DA
:1078F4004846C0B2091A491088460DE03800C0B2A3
:10790400012801D1A04607E03800C0B2022803D103
:10791400281BB0EB09008046CA465FFA8AFA009633
:1079240001A84146C9B200EB010B524600995846E2
:1079340000F0A8F8DFF838A11AF1010B5B462A0021
:10794400D2B292B201A9BDF82800FFF791FE8AF8DD
:1079540001019AF8011189B2584601F078FD0BB083
:10796400BDE8F08F10B4020000205A230400E4B2F2
:107974000B55401CA5230400E4B20B55401CFF2307
:107984000400E4B20B55401C82230400E4B20B55FE
:10799400401C00230400E4B20B55401C8423040063
:1079A400E4B20B55401C5A230400E4B20B55401CAE
:1079B40001230400E4B20B55401C13009BB21B0AC4
:1079C4000400E4B20B55401C0300DBB2CA54401C53
:1079D400C31E8B70C0B210BC704730B403000020CB
:1079E4005A240500EDB25455401CA5240500EDB2FF
:1079F4005455401CFF240500EDB25455401C82240C
:107A04000500EDB25455401C0C00A4B2240A050034
:107A1400EDB25455401C0400E4B21155401C1C0046
:107A2400A4B2240A0500EDB25455401C0400E4B28B
:107A34001355401CC41E9470C0B230BC7047F8B5D6
:107A440004000D000A4E771C3A00290089B2200078
:107A540080B2FFF7C2FF86F8010196F8011189B2DE
:107A6400380001F0F4FCF1BDD43800208438002043
:107A7400E0350020C03A0020040002405C000240CF
:107A84005800024062B38B0708D0521E11F8013B24
:107A940000F8013B00F024808B07F6D1830740F007
:107AA400208000BF103A07D330B4B1E83810103A40
:107AB400A0E83810F9D230BC530724BFB1E808104D
:107AC400A0E8081044BF51F8043B40F8043BD20737
:107AD40024BF31F8022B20F8022B44BF0B7803702B
:107AE4007047121F17D35B0009D151F8043B20F8EB
:107AF400023B1B0C121F20F8023BF6D20BE051F89C
:107B0400043B00F8013B1B0A20F8023B1B0C121F2C
:107B140000F8013BF3D238BF121D521E24BF11F8E6
:107B2400013B00F8013BF8D87047B1F5807F02D3E0
:107B34004FF0FF3070470170012070470078401EFD
:107B44008041C043C00F704700280AD0B0FA80F1CA
:107B54008840D1F19D01C905020672F1004241EB52
:107B64001020704710B5FF2313EAD0541DBF13EA49
:107B7400D1529C429A4239E0A41ADA0780EA0103FE
:107B8400134042EA012142EA0020421A3CBF641E2B
:107B940001EB4202090AB2FBF1FE01FB1E221202B2
:107BA400B2FBF1F001FB10226EF30F201202B2FBC4
:107BB400F1FE4EEA00207F3406DDFE2C24DA53EA7F
:107BC400500050EBC45010BDD4F1020401FB1E223E
:107BD40040F08071192C1DDC21FA04F0C4F120045A
:107BE400A140114371F10042584110BD9C421ABF9B
:107BF40003EAD1529A420FE080EA010E0EF00043EC
:107C0400400004D0490016D143F0FF4010BD4900A4
:107C140008BFD343180010BD9C4205D1D21AF7D037
:107C240001F00041484010BD4A0212BF08464840D6
:107C340000F0004010BD4AB90902B1FA81F2914046
:107C440044B1A418C00140F000409EE7C90141F0CE
:107C5400004152420002B0FA80F4A040141B94E7A1
:107C6400FF2212EAD05C1DBF12EAD153944593421D
:107C74002BE09C44D30780EA01021A4043EA002027
:107C840043EA0121A1FB0030C04238BF40007CF12F
:107C94007F010BDBFE294ADA5B0842EAC15153EA51
:107CA400006373F1004C51EB10207047D1F1080CC4
:107CB400DCF120012FDB5B0810FA01F10B4320FA01
:107CC4000CF073F100415041704794451CBF02EA27
:107CD400D153934280EA010202F000421DD04000D9
:107CE40019D0490017D05BB9634514D00902B1FA21
:107CF40081F39940BCEB030CC00140F00040C1E7A4
:107D04000002B0FA80FC10FA0CF0B3EB0C0CC901C1
:107D140041F00041B6E71000704740000AD0490026
:107D240008D010F1807F94BF11F1807F02E042F00F
:107D3400FF407047D0437047C0F3C7517E390EDD12
:107D4400C217D1F1200106DD000240F00040C84016
:107D5400104450407047D04380F0004070470020EA
:107D640070470268531C03601170704703000020C1
:107D740013F0030F09D0521E22BF13F8010B11F8A0
:107D840001CBB0EB0C00F3D0704711F0030F14D10A
:107D9400121F22BF53F8040B51F804CB6045F7D0EF
:107DA400121D0AD200BA9CFA8CFCB0EB0C0038BF4E
:107DB4006FF0000088BF01207047521E22BF13F8E5
:107DC400010B11F801CBB0EB0C00F6D0521C08BF2C
:107DD4001046704780B5012001F038FC01F03EFCEC
:107DE400012001F0E1FC612001F0A4FD0028FAD09B
:107DF4004FF4007001F0DDFC012001F0DFFC01F024
:107E040031FE01F02AFE0021012001F0E5FD01F020
:107E140024FE49F63F4001F011FE01F01EFE01BDB3
:107E240010B5040001F019FE01F01CFE01F015FE6E
:107E34002100C9B2012001F0CFFD01F00EFE10BDFA
:107E440010B50400012001F001FC01F006FE200041
:107E540001F0E7FD01F001FE10BD2E0080B54FF4E6
:107E6400165001F02DFE01F071FE0121012001F0F8
:107E740084FE00208049087001BD4A78002A06D09B
:107E8400012A0DD0032A17D0042A25D038E0020095
:107E9400D2B27E2A03D181F8260001224A702FE053
:107EA4000200D2B2FF2A04D181F8270003224A70CB
:107EB40001E000224A7023E00200D2B2052A08DB66
:107EC40004224A7081F8250081F828000322CA7030
:107ED40001E000224A7013E0CA78531CCB70D2B27E
:107EE4000A4482F8260091F82520D21CCB789A42C5
:107EF40004DA00224A7001220A7001E000220A70AA
:107F040070472DE9F04104000D0016001F005FF0DA
:107F140000087E204146C9B2785418F10108FF20B8
:107F24004146C9B2785418F1010806204146C9B245
:107F3400785418F101084046C0B23C5418F10108C5
:107F44004046C0B23D5418F10108300080B2000A26
:107F54004146C9B2785418F101084046C0B23E54B3
:107F640018F101080621781C00F006F818F103083E
:107F74004046C0B2BDE8F08130B4002300221400B2
:107F84000D00E4B2EDB2AC4205D21400E4B2045DDB
:107F94001B19521CF3E79BB25B421C00A4B2240AD7
:107FA4001500EDB244551400E4B204446370EF24A8
:107FB4001500EDB20544AC7030BC704770B40100DC
:107FC400002000250022002401238D781E00F6B233
:107FD400B54205D31D00EDB24D5D52195B1CF4E7AB
:107FE4001D00EDB24E5D1D00EDB20D446D7855EAF5
:107FF4000625AA181600B6B2002E01D101242000CD
:10800400C0B270BC70472DE9F04104000D001600A9
:10801400194F17F10E084346320092B22900C9B233
:108024002000C0B2FFF76DFF7873797B89B24046B8
:1080340001F0BBFDBDE8F08170B506003003000B14
:1080440001F0D2FD04000D00C6F3035001F0CCFD95
:1080540002000B000020094901F0D4FD02000B00CE
:108064002000290002F07AF90022054B02F09AFA66
:1080740002F06AFB70BD0000A83900200000244013
:1080840000408F401CB5042100226C462000FCF700
:108094004DF803208DF8020014208DF80300814868
:1080A4008188ADF800106946006802F061FB7E48E3
:1080B4008188ADF800106946006802F059FB13BDD1
:1080C400002064210800411E0028FBD170474FF4B2
:1080D40020514843401C0100481E0029FBD1704731
:1080E40010B5704CA088216808616F4881880068C9
:1080F4000161FFF7E5FF20688068002801D10120B5
:1081040000E00020217911F00101084201D0002093
:1081140011E0A08821684861FFF7D2FF20688068D9
:10812400A188084201D0002005E0A08821684861A8
:10813400FFF7C6FF012010BD38B55B4CA08821684D
:108144004861FFF7BDFF574DA88829684861FFF7CC
:10815400B7FFA08821680861FFF7B2FFA8882968E3
:108164000861FFF7ADFF31BD10B54F4CA088216801
:108174004861FFF7A5FF4B48818800684161FFF71C
:108184009FFFA08821680861FFF79AFFA0882168F3
:108194004861FFF795FF10BD10B5434CA0882168D6
:1081A4004861FFF78DFF3F48818800680161FFF750
:1081B40087FFA08821680861FFF782FFA0882168F3
:1081C4004861FFF77DFF10BD38B5374CA0882168A2
:1081D4004861FFF775FF334DA88829680861FFF7E8
:1081E4006FFFA08821680861FFF76AFF286880682C
:1081F400A988084204D0A08821684861002003E0CF
:10820400A08821684861012032BD70B504000825AA
:108214002800451EC0B2002817D0234EB08831680C
:108224004861200604D51F4881880068016103E085
:108234001C48818800684161FFF742FFB0883168BB
:108244000861FFF73DFF6400E2E717488188006892
:10825400416170BDF8B508240025124EB08831681C
:1082640008612000441EC0B2002813D06D000E4FD8
:10827400B88839684861FFF723FFB888396808610E
:10828400FFF71EFF30688068B1880842E9D055F0D6
:108294000105E6E704488188006841612800C0B20E
:1082A400F2BD000064EB00086CEB00082DE9F14F0F
:1082B400B2B09946924600230691CDE900333C9A28
:1082C4000F930DF14A0114914A7011E0329E574602
:1082D4002C4617F8011B0698B0470028069000F0BA
:1082E40026810F98401C641E0F90F2D13296AA4446
:1082F4009AF80000252808D10021002209910A9249
:108304000B910C920D910E920FE06A464FF0FF31E3
:10831400504602F021FB050002D10F9800F066BE22
:10832400D4D50125E3E741F001011AF8010F202813
:10833400F9D023280CD02B2804D02D2805D03028A0
:1083440009D00BE041F00201EFE741F00401ECE752
:1083540041F00801E9E741F01001E6E72A280FD1CE
:10836400D9F8002052F8040BC9F800200028119015
:1083740003D54042119041F004010AF1010A14E0CE
:108384001192DFF8EC3B0AE01198984205DA00EB11
:10839400800402EB4402303A11920AF1010A9AF87D
:1083A4000020A2F130000A28EED39AF800002E280B
:1083B40003D04FF0FF32109229E01AF8010F2A2857
:1083C40009D1D9F8000050F8042BC9F80000109224
:1083D4000AF1010A1BE02D280CBF0AF1010A002052
:1083E40000221092DFF8882B0BE040B9109B9342D7
:1083F40005DA03EB830504EB4504303C10940AF1E1
:10840400010A9AF80040A4F130030A2BEDD3ADF829
:1084140048100FF660309AF8001002F0A7FA08B17D
:108424001AF8010B8DF84A009DF84A00682805D116
:108434009AF8000068280CD1622106E06C2804BF79
:108444009AF800006C2804D171218DF84A100AF1C1
:10845400010A1FA808901AF801BBBBF125012DD011
:108464001C3900F06181091F022940F25D810E3937
:108474002AD0491F00F0B384093900F05581891EC0
:1084840000F04985491E00F0F584491E022940F296
:108494004B81091F00F0EE84491F00F0BA80491E89
:1084A40000F09D84491E65D0C91E21D0891E00F0AC
:1084B4009684C91E00F0938400F04CBD25238DF8EA
:1084C4007C30012109912AE06C208DF84A00D9F80A
:1084D400000050F8042BC9F80000002A43D1149975
:1084E400487800283DD04FF0FF340FF6902012E07A
:1084F4009DF84A006C28EAD0D9F8000050F8044BE3
:10850400C9F800000794D4B91499487898B14FF089
:10851400FF340FF6842002F035FA201A07D132987E
:108524001FAA04A900F065FD00287FF5E1AE4FF015
:10853400FF3000F05BBD0FF67C200790EFE7109D45
:10854400002D04D5204601F065F8044607E02A46CC
:10855400204602F037FA002814BF041B2C460A9464
:10856400DDE70FF65422329804A900F0C8FD002874
:10857400D5D5DCE7D9F8001051F8040BC9F8001080
:1085840020F00004002121F0FF351FABCDE90445A4
:108594000793DDE9042308993C2413B90AB9109818
:1085A40098B102F00F053035641EEEB23A2EA8BF22
:1085B4002735120942EA03721B090D5508BF002A28
:1085C40003D007980D19A842EBD308190790C4F1FA
:1085D4003C0210980A92824209DABDF84810821AC5
:1085E4004FF6EF7001400C92ADF8481097E7002861
:1085F40095D59DF8480000F0140010288FD1119BE8
:1086040009990C985B1A1B1A9A1A002A87DD0C9296
:1086140085E71499487820B14FF0FF340FF69C1089
:1086240079E79DF84A00622862D0682819D06A2840
:1086340040D06C2806D071284DD074282DD07A28CB
:108644001ED064E0D9F8001051F8040BC9F80010EA
:1086540020B94FF0FF340FF67C105CE70F990160EE
:108664005DE7D9F8001051F8040BC9F8001020B9DF
:108674004FF0FF340FF65C104DE70F9901804EE781
:10868400D9F8001051F8040BC9F800100028E5D1FE
:108694004FF0FF340FF63C103DE7D9F8001051F8C5
:1086A400040BC9F800100028D8D14FF0FF340FF69E
:1086B400241030E7D9F8001051F8040BC9F8001061
:1086C40020B94FF0FF340FF60C1024E70F9AD3179C
:1086D400C0E9002323E7D9F8001051F8040BC9F8C6
:1086E40000100028F2D14FF0FF340FF6E80012E733
:1086F400D9F8001051F8040BC9F8001020B94FF054
:10870400FF340FF6D00006E70F99017007E7D9F898
:10871400001051F8040BC9F8001000289ED14FF046
:10872400FF340FF6B000F6E6D9F80020D21D22F08F
:108734000702C9F80020D2E900010832C9F8002074
:10874400CDE90401C80F02D009982D210AE0BDF833
:108754004800810702D509982B2103E0C00705D5FD
:10876400099820211FAA1154401C0990DDE9042313
:1087740009991FA8CDE92E2308444BF02001612953
:10878400079015AC0BD01099002902D50621109141
:1087940005E001BF4BF02001672901221092DDE9B9
:1087A400042359004915491C10D11A030ED0ABF10A
:1087B400610503211A2D0A9102D20FF6A43101E0BA
:1087C4000FF6A0310322FFF75DF9A8E65900491519
:1087D400491C0AD11A0308D1ABF1610503211A2DF2
:1087E4000A9116D30FF68431ECE7DDE90401CDE9F3
:1087F4003001DDE9302323F00047B7F5801F22F074
:1088040000060DD20022002F08BF002E029203D1D1
:1088140016E00FF65431D5E702AA02F0FFF80FE094
:10882400DFF8EC0ADFF8EC1A00EB17500290DDE9F0
:1088340030234FF0FF301940DFF8DC7A1040394321
:10884400CDE904014BF0200061280DD107983021B7
:108854000170821CBBF1610F07920CBF7821582173
:1088640041700998801C0990DDE9040120F00002A0
:1088740031F0004308BF002A02D10026002571E12F
:108884004BF02008B8F1610F40F0BE80109800282A
:1088940047BF21210391401C0390039FDDE92E0172
:1088A4007F1C00220023DDE9044502F0EFF8029961
:1088B4008DF8542038BF85F00045091F002F029120
:1088C4000DF155065DDDDFF8541ACDE9302140F293
:1088D400FF732E93204629460022002302F0EEF86F
:1088E4004FD24800400D00F11C0215D0002A13DDC0
:1088F4002E9B9A420ADBDDE9300121F0004205F0AB
:1089040000400243DDE93001114611E06FF31E51CE
:1089140041EA025120460BE024F0000035F000410A
:1089240008BF00280FBF29461C22294602F0DEF8A2
:1089340004460D4602F078F9FF1F002F804609DD3A
:1089440002F090F902460B462046294602F09CF9B3
:1089540004460D46F01D0721B8F1000F0CDD491E39
:108964005EBF08F00F0200F8012D4FEA2818F3D576
:1089740002E0002200F8012D491EFAD5C61D002F81
:10898400A8DC0DF15500361A03988642D8BF30464C
:1089940000280DF1550430D4B04206DA0DF155012A
:1089A4000A5C082AA8BF0F2100DA0021024615AB91
:1089B400134400E0401E13F80159521E8D42F9D0B1
:1089C4000F2904D10DF155018B5C5B1C8B54002ADB
:1089D40004D50299091D15AC401C0291411E0CD40A
:1089E4006218ABF13A0613783033DDB23A2DA8BFE2
:1089F400F318491E02F80139F5D51099002940F100
:108A0400AF80421E1092ABE00299DFF8142947F2BE
:108A14009750414391FBF2F2DDE92E45029225F095
:108A24000045D2F1070204DD2046294600F04CFC43
:108A34000BE052420020DFF8EC1800F045FC02463F
:108A44000B462046294601F089FC0446B8F1660F1E
:108A5400109806BF029F0A3706273F18142FC8BF75
:108A6400142730208DF854000D460020DFF8B81884
:108A7400CDE92E010DF15506002F33DD20462946A0
:108A840001F062FE01460A4606F1080304200A26A4
:108A9400B2FBF6F606EB860EA2EB4E02303203F87A
:108AA400012C0A22B6FBF2F202EB820EA6EB4E0672
:108AB4003036401E03F8026DE9D1083F002F03F160
:108AC4000806D9DD084601F08FF802460B46204619
:108AD400294602F0D9F8DDE92E2301F063FD0446AE
:108AE4000D46CBE70DF15500361A0DF1550404E09F
:108AF4000298401E761E0290641C20783028F7D01D
:108B0400B8F1660F02D10299491C04E0B8F1650F6F
:108B14000CBF01210021109808188642B8BF701EAE
:108B240000281DD4B04204DA215C3429C8BF39219D
:108B340000DC30210246631E9D1800E0401E15F83B
:108B44000169521E8E42F9D0392902D1A15C491C17
:108B5400A154002A04D50299491C1C46401C0291C8
:108B64000646029D01F0FCFE406A0778DDF840806D
:108B740030B2002802DC01260FF2F4744BF020001E
:108B8400662808BF6D1C16D0672846D128B210F19C
:108B9400040F48DB404546DA9DF848006D1C010788
:108BA40003D430B24045B8BF804628B2B8EB0008C1
:108BB40048BF4FF000080FFA85FB07980A99BBF1EC
:108BC400000F00F3B2804A1C0A9230234354B8F1D8
:108BD400000F03DC9DF84800010704D50A98411CE6
:108BE4000A9107990F5418EB0B0FB8BFC8F1000591
:108BF4002DB268420D90A84432B29045B8BF4646A3
:108C0400079B0A9836B20B96324621461844FEF763
:108C140039FFA8EB06000E90CBE0BBF1610F17D132
:108C24004FF0700B19E030B2404504DA9DF848105B
:108C34000A0758BF8046B8F1010848BF4FF0000842
:108C4400BBF1670F14BF4FF0450B4FF0650B04E009
:108C5400BBF1410F08BF4FF0500B0A98411C0A9119
:108C6400B8F1000F079914F8012B0A5403DC9DF89E
:108C7400480001071AD50A98411C0A91B8F1000F5F
:108C840007990F5412DD761E30B2804507980A9B6F
:108C9400B8BF464632B221461844FEF7F3FE0A999D
:108CA40036B271180A91A8EB06000D9007980A993C
:108CB40008442AB2002A80F800B003D42B22427060
:108CC400811C04E02D2141701546811C6D42002059
:108CD4002EAA0A2409E02B4693FBF4F505EB85063E
:108CE400A3EB460302F8013B401C2DB2002DF2DC3D
:108CF400012806DC4BF02002652A04BF302201F86B
:108D0400012B00282EAA08D1302001F8010B06E01F
:108D1400401E135C303301F8013B0028F8DC079A4D
:108D24000A981044091A0B9143E0084431B22AB25C
:108D3400914219DA32B22146FEF7A4FE0A9936B2FC
:108D44007118ABEB0606B8F1000F0A910D9603DC1F
:108D54009DF84800020704D5079847540B99491C0D
:108D64000B91CDF8388024E02146FEF78BFE0A985B
:108D7400761B5844B8F1000F0A9003DC9DF84810A4
:108D84000A0703D5411C0A9107990F5430B2804554
:108D940007980A9BB8BF464632B204EB0B0118444D
:108DA400FEF770FE0A9836B230180A90A8EB060057
:108DB4000D909DF8480000F0140010287FF4AFAB2C
:108DC400099A0A990D988A180B9982180E988A188C
:108DD400821811988242BFF6A2AB821A17E49DF85A
:108DE4004A00622808D068280ED06A2814D06C285B
:108DF4001FD0712810D01CE0D9F8001051F8040BD2
:108E0400C9F80010C0B21AE0D9F8001051F8040BE8
:108E1400C9F8001080B212E0D9F80020D21D22F067
:108E24000702C9F80020D2E900010832C9F800207D
:108E340006E0D9F8001051F8040BC9F8001000211D
:108E4400CDE904019DF8480001075AD5DDE9042362
:108E5400002B08BF002A54D04BF02000782850D1B2
:108E640009981FA930220A54401C431C099301F895
:108E740000B046E09DF84A00622808D068280ED069
:108E84006A2814D06C281FD0712810D01CE0D9F89F
:108E9400001051F8040BC9F8001040B21AE0D9F8D8
:108EA400001051F8040BC9F8001000B212E0D9F810
:108EB4000020D21D22F00702C9F80020D2E90001E7
:108EC4000832C9F8002006E0D9F8001051F8040B64
:108ED400C9F80010C117CDE90401002902D5099889
:108EE4002D210AE0BDF84800810702D509982B21FD
:108EF40003E0C00705D5099820211FAA1154401C7E
:108F040009901FA809990144079104A8594600F043
:108F140056F9FFF704BB9DF84A006C280BD00121D9
:108F24000991D9F8000050F8041BC9F800008DF825
:108F34007C10FFF7F4BAD9F8000050F8041BC9F804
:108F4400000015914FF0FF3210920021169115AADE
:108F5400FFF709BB25210122BBF1000F8DF87C101E
:108F640009923FF4DCAA8DF87DB00221FFF7AABA7A
:108F7400CBCCCC0C686A6C747A4C00007072696E4D
:108F840074665F733A2062616420256C7320617299
:108F940067756D656E7400007072696E74665F73D8
:108FA4003A2062616420257320617267756D656E75
:108FB4007400000000000000000000007072696E80
:108FC40074665F733A20256E20646973616C6C6FFC
:108FD400776564007072696E74663A206261642019
:108FE400256E20617267756D656E740033B0BDE8DF
:108FF400F08F2DE9FC410F46064690467A6B78695E
:10900400396ABC6A121AB869521A796A121AF8696A
:10901400521A121A97F83800141B41070FD4202053
:10902400002C8DF800000ADD254601236A463946E6
:10903400304600F07DF900285DD16D1EF5D17B69C5
:1090440042463946304600F073F9002853D13020A7
:109054008DF800003D6A002D09DD01236A4639467A
:10906400304600F065F9002845D16D1EF5D1BB6985
:10907400FA683946304600F05BF900283BD13020CD
:109084008DF800007D6A002D08DD01236A4639460B
:10909400304600F04DF970BB6D1EF6D1F868B96921
:1090A400FB6942183946304600F042F918BB3020BB
:1090B4008DF80000BD6A002D08DD01236A4639469B
:1090C400304600F035F9B0B96D1EF6D197F8380086
:1090D40041070DD52020002C8DF8000008DD012368
:1090E4006A463946304600F023F920B9641EF6D1A9
:1090F4000020BDE8F6814FF0FF30BDE8F6812DE990
:10910400F8470D46A3B02F6B002F8246904648BF08
:109114006FF0004701F029FE696B401801AA002195
:10912400C2E90011812828BF4FF0FF3044D289469C
:109134001EE0A74230DB6869201881280BD3002188
:10914400696303AA29465046FFF753FF5FEA000903
:1091540022D40020686103AB6E69224669469819DF
:10916400FEF790FCA6196E6158F8040BA0B13F1BE2
:10917400002F11DDD8F8001001AA684601F0EEFBBB
:109184000446002C05D4D8F800000028D1D1641E70
:10919400CFD54FF0FF390EE0B9F1000F504604D19E
:1091A40003AA2946FFF725FF8146B9F1000F02D132
:1091B400002068616863484624B0BDE8F0872DE963
:1091C400FC4307466F293E6908BF082405D041F0D7
:1091D4002000782814BF0A2410243C25D7E9002352
:1091E400642918BF69299046994605D1002B03D5F7
:1091F400D8F1000869EB4909B9F1000F08BFB8F1CB
:10920400000F0CD1386B50B9082C39D197F83800BD
:10921400010735D530203B2586F83B0030E08DF83A
:109224000010404649462246E31701F0A3FD3032C0
:10923400D0B26D1E3A28019504DB9DF80000A0F120
:1092440051018A187255404649462246E31701F0F7
:1092540091FD80465FEA010908BFB8F1000F03D011
:10926400F86871198842DCD3082C09D197F83800C2
:10927400010705D5705D302802D06D1E3020705571
:10928400C5F13C02BA617119F960386B824208DA9F
:10929400821A3A624FF6EF70398F01403987BDE880
:1092A400F38300280ED597F8380000F01400102836
:1092B40008D17B6B7969386A5B1A1B1A9A1A002ADF
:1092C400C8BF3A62BDE8F3832DE9D04306460F4692
:1092D40014464FF00008DFF8549012E0E00707D579
:1092E40042464B463046394601F05CF906460F4685
:1092F4004046494642464B4601F054F964108046C4
:109304008946002CEAD130463946BDE8D0830000B6
:1093140002FCFFFFFFFF0F800000E03F0000F07F32
:10932400A08601000000F03F84D79741000024404C
:10933400F8B505460E4617461C4600205CB117F8E2
:10934400011BB068A847B06030B1F06A401CF062FD
:109354000020641EF3D1F2BD4FF0FF30F2BD0000D7
:109364006E616E004E414E00696E6600494E4600C5
:109374003000430030B585B00400042100226D465E
:109384002800FAF7D3FE1021002201AD2800FAF7D5
:10939400CDFE994D280001F005FE98488188ADF86E
:1093A400001003218DF8021018218DF8031069466E
:1093B400006801F0DDF992488188ADF80010482179
:1093C4008DF803106946006801F0D2F90194002079
:1093D400ADF808000020ADF80A000020ADF80C003C
:1093E4000020ADF810000C20ADF80E0001A92800F3
:1093F40001F020FE0121280001F092FE012240F23A
:109404002441280001F09BFE01228021280001F064
:10941400CEFE01224021280001F0C9FE05B030BD76
:1094240038B50400042100226D462800FAF77EFEB8
:1094340025208DF8000003208DF8010002208DF80E
:1094440002008DF80340684601F021FF31BD10B4DD
:10945400002200231A000C0092B2A4B2A2420AD243
:109464001A0092B2825C674C2280634A1288120608
:10947400FBD55B1CEEE710BC704770B58CB00400E4
:109484000D00614E300001F059FF5E4801900294D6
:109494001020039004950020059080200690002061
:1094A400079000200890002009904FF440500A9043
:1094B40000200B9001A9300001F0B8FF0122022125
:1094C400300001F0D1FF4FF400505049086030687B
:1094D400400840003060484800884006FBD50E2014
:1094E4008DF8000002208DF8010000208DF80200A4
:1094F40001208DF80300684601F0C9FE0CB070BD70
:1095040070B58CB004000D00042100226E463000BA
:10951400FAF70CFE2C21002201AE3000FAF706FE09
:109524003B4E300001F00AFF3648019002940020BF
:109534000390049500200590802006900020079059
:1095440000200890002009904FF440500A90002019
:109554000B9001A9300001F069FF012202213000C3
:1095640001F082FF5FF40030284908603068400849
:10957400400030600F208DF8000003208DF80100BA
:1095840001208DF8020001208DF80300684601F0E7
:109594007EFE0CB070BD10B51C485FF40031016054
:1095A4001B490A68520852000A604FF400510160D6
:1095B400154801684908490001600F4C208840069D
:1095C400FBD50020FFF72CFF002240F224412000AD
:1095D40001F0B5FD00228021200001F0E8FD002209
:1095E4004021200001F0E3FD0021200001F098FD5E
:1095F400200001F0D7FC10BD0038014044EB000806
:109604004CEB0008043801404400024004000240CE
:109614005800024000F10103810704D010F8011B37
:10962400820781B1FAD10268A2F10131914311F0AC
:10963400803104BF50F8042FF6E709BAB1FA81F17A
:1096440000EBD100401CC01A704700000100C9B2F1
:10965400014A11607047000020000E4280B50120CD
:1096640000F063F9002000F060F901BDDFF80C138D
:10967400086850F001000860DFF804231368DFF87D
:109684000403034013600B68DFF8FC0203400B6023
:10969400086830F480200860106830F4FE00106020
:1096A4005FF41F00DFF8E41208607047DFF8CC12A3
:1096B4000A6832F480320A600A6832F480220A604E
:1096C4000200B2F5803F03D0B2F5802F05D009E047
:1096D4000A6852F480320A6004E00A6852F4A02254
:1096E4000A60FFE7704738B5002000900024002589
:1096F400312000F01FF905000098401C00900098EC
:109704004FF6FF71884203D02800C0B20028EFD082
:10971400312000F00FF9002801D0012000E00020E2
:10972400C0B232BD30B40023954D2C6834F47C149F
:1097340051EA000214432C6030BC70470100C9B2E6
:10974400934A1160704700218D4B1A689208920069
:1097540002431A6070478A48006810F00C00704792
:109764000021874B1A6832F0F00202431A607047F6
:109774000021834B1A6832F4E06202431A60704796
:1097840000217F4B1A6832F4605252EAC0021A6018
:1097940070478049086070470021794B1A6832F499
:1097A400404202431A6070470100C9B27B4A11600B
:1097B400704779490A6802430A6070470100C9B2D8
:1097C400774A116070472DE9F04F0100002200250F
:1097D400002000266A4FD7F800C01CF00C0C63462A
:1097E400002B04D0042B05D0082B06D023E06D4AAF
:1097F4000A6022E06C4A0A601FE03A6812F47012B0
:109804003B6813F480331800920C921C1500002856
:1098140004D1664A02FB05F20A600BE03A6892033F
:1098240004D5634A02FB05F20A6003E05E4A02FBC8
:1098340005F20A6001E05B4A0A603C6814F0F00437
:109844002409DFF8709119F804E00A6832FA0EF27C
:109854004A603B6813F4E0631B0A19F803804A6802
:1098640032FA08F28A603A6812F46052D20A19F89D
:109874000290D1F804A03AFA09FAC1F80CA03F68A2
:1098840017F44047BF0BDFF830A11AF807A0D1F84E
:109894000CB0BBFBFAFBC1F810B0BDE8F08F0A00B6
:1098A400D2B2002A04D0454A13680343136003E08C
:1098B400424A13688343136070470A00D2B2002AF5
:1098C40004D03F4A13680343136003E03C4A13681F
:1098D4008343136070470A00D2B2002A04D0394A85
:1098E40013680343136003E0364A13688343136029
:1098F40070470A00D2B2002A04D0334A13680343E3
:10990400136003E0304A13688343136070470A000E
:10991400D2B2002A04D02D4A13680343136003E033
:109924002A4A13688343136070470100C9B2284A66
:109934001160704730B401000020002300250A00A4
:10994400D2B25209D2B2012A02D10C48046806E00C
:10995400022A02D11048046801E01E4804680B0082
:10996400DBB213F01F032000D840C00701D501204B
:1099740000E00020C0B230BC70470000001002407C
:10998400041002400000FFF8FFFFF6FE081002403A
:1099940060004242D8004242201002408004424209
:1099A4003C04424200127A00001BB70000093D004B
:1099B400808D5B0030000020400000201410024025
:1099C400181002401C1002400C10024010100240FB
:1099D40040044242241002400A00D2B2002A04D0B9
:1099E400314A13880343138003E02F4A13888343C7
:1099F400138070472D48018851F010010180704791
:109A04002A490A884FF6EF7002400A807047002105
:109A140027480088274A128892B280B250EA02404E
:109A2400704710B50400FFF7E5FF2000000C214942
:109A340008801F480480FFF7E3FF10BD10B5040041
:109A4400FFF7D8FF2000000C10F00F001A4908801F
:109A54001A480480FFF7D4FF10BD1448008880061C
:109A6400FBD5704711490A884FF6F77002400A8007
:109A740008880007FCD570470C490A8882430A808D
:109A8400704701000020094A12880A40064B1B88CF
:109A94009BB20B4205D01000C0B2002801D00120B7
:109AA40000E00020C0B270470028004004280040B5
:109AB4001C28004018280040082800400C280040BA
:109AC40030B585B00400042100226D462800FAF761
:109AD4002DFB1021002201AD2800FAF727FB3E4D93
:109AE400280001F05FFA3D488188ADF80010032199
:109AF4008DF8021018218DF803106946006800F0F3
:109B040037FE37488188ADF8001048218DF80310DE
:109B14006946006800F02CFE01940020ADF80800AE
:109B24000020ADF80A000020ADF80C000020ADF8CC
:109B340010000C20ADF80E0001A9280001F07AFAFB
:109B44000121280001F0ECFA05B030BD1CB5042158
:109B540000226C462000FAF7E9FA34208DF8000060
:109B640003208DF8010002208DF8020001208DF8F9
:109B74000300684601F08BFB13BD70B504000D00B3
:109B8400154E40F22771300001F068FB2200D2B27A
:109B940040F22551300001F0D2FA2A00D2B240F24C
:109BA4002661300001F0CBFA70BD10B4002200230E
:109BB4001A000C0092B2A4B2A2420AD21A0092B2C3
:109BC400825C084C2280044A12881206FBD55B1C76
:109BD400EEE710BC70470000004C0040CCEB0008DE
:109BE400D4EB0008044C0040014648B1B0FA80F1BF
:109BF4008840C91CC1F58461090501EBD0214005E9
:109C0400704700002DE9F04D16461F46044626F025
:109C1400000A37F0004008BFBAF1000F8AB00D46C1
:109C240000F056830020DFF8B41622462B4601F0DC
:109C340043FC00F04D83DFF8A81601F03DFC06D18B
:109C440078004015401C02D1390300F041836800BC
:109C54004015401C00F0588224F0000035F000410B
:109C640008BF002800F0508278004015401C00F026
:109C74004B82BB464FEA4B0151EADA714FEA4A0084
:109C840008BF00281CD040F23342A2EB51503528C3
:109C940004DB0AF0000A0BF0004B11E0202805DD7C
:109CA40020382BFA00F101FA00FB00E002D14FF05A
:109CB400000A05E00028C4BF2AFA00F101FA00FAFC
:109CC400E80F22D0390007D500224FF00043921B41
:109CD400BB41CDE9002301E0CDE9006759460029E5
:109CE400504605D500224FF00043101A63EB0101E2
:109CF400DDE900238B4208BF824206D0AFF3008027
:109D04004FF0FF306FF00041E4E225F00041B1F57F
:109D1400801F24F000000CD20022002908BF002874
:109D2400029211D002AA294600F078FE04460D469C
:109D34000AE0DFF8B02502EB1150DFF8AC15029011
:109D44000D40DFF8A8150D43E80F08BF00223DD0F1
:109D5400594650464B0043EAD0734200002B08BFDB
:109D6400002A25F0004517D040F2344CACEB535296
:109D7400352A04DB00F0000001F000410CE0202A49
:109D840003DD203AD140914000E001D1002003E0FE
:109D9400002AC4BFD0409040BBF1000F06D500227A
:109DA4004FF00043B2EB0A0A63EB0B0B002905D515
:109DB40000224FF00043101A63EB01018B4508BFEA
:109DC400824502D10021059101E001220592029809
:109DD400012833D120462946DFF81425DFF814354D
:109DE40000F054FE2AD248004FF00008400DC2464D
:109DF400DFF8E8B400F1010212D0002A10DD40F2CD
:109E0400FF70824207DBDFF8F01405F00043002402
:109E140043EA010533E06FF31E5141EA02552EE097
:109E240024F0000035F0004108BF002827D00122AB
:109E3400294600F05BFE04460D4620E00020DFF8D2
:109E4400BC1422462B4600F0ADFBDFF8A0B4002280
:109E54005B4601F041FB00F0E7FEA0F1200840461C
:109E640000F000FF0022DFF8983400F09BFB002292
:109E74005B4601F031FB82468B464FEA4818204688
:109E8400294652465B4600F0FFFECDE900015246EA
:109E94005B462046294601F01FFB02460B46DDE9DE
:109EA400000100F05BFACDE90601DDE9062300F0CC
:109EB40079FBCDE900015246204629465B4600F075
:109EC400E3FEDDE9002304460D46DFF83804DFF83D
:109ED400381400F067FBDFF83424DFF8343401F081
:109EE400FBFADDE9002300F05DFBDFF82824DFF84E
:109EF400283401F0F1FADDE9002300F053FBDFF828
:109F04001C24DFF81C3401F0E7FADDE9002300F03B
:109F140049FBDFF81024DFF8103401F0DDFADDE945
:109F2400002300F03FFBDFF80424DFF8043401F0E1
:109F3400D3FADDE9002300F035FBDFF8F823DFF87E
:109F4400F83301F0C9FACDE9080152460020DFF8E0
:109F54008C135B4600F098FE0B465A00520D02F13A
:109F6400010C15D0BCF1000F12DD40F2FF729445D4
:109F740008DBDFF8842301F000404FF0000A40EAD8
:109F8400020B10E06FF31E5343EA0C5B82460AE0B7
:109F940020F0000231F000430EBF002A012200F03D
:109FA400A5FD82468B46DDE90023DDE9080100F0CA
:109FB400F9FA22462B4600F067FE52465B4601F052
:109FC4008BFADDE9062300F0EDFADFF800E3FE4446
:109FD4000EF2FA2EC644CDF804E022462B4601F0D8
:109FE4007BFA044602980D4600F03CFEDDF804E0DE
:109FF400DEE9002301F070FACDE906012246DFF81C
:10A004003C03DFF83C132B4600F0CCFADDE90623D1
:10A0140001F062FA32463B4600F0C4FA0022DFF84F
:10A02400243300F033FD66D30122DFF81C3300F043
:10A0340045FD5DD9CA0F1ABF0022C44BAB4B01F0DA
:10A044004BFA00F0F1FD0022A44BDFF804A3DFF883
:10A0540004B3CDE903238046CDF8008032463B4665
:10A064002046294600F09EFA044601988446D0E929
:10A0740002230D46DCE9040101F02EFA32463B4688
:10A0840000F090FA52465B4600F08CFA22462B46CA
:10A0940001F022FACDE90101DDE9064530463946F1
:10A0A40022462B4600F07EFA04460D46404600F058
:10A0B400D9FD02460B462046294600F0E5FD5246EE
:10A0C4005B4600F06FFADDE9012301F005FADDE9F2
:10A0D400032301F0BFFA20F0000631F0004708BF67
:10A0E400002E08D04A005215521C06D10B0304D18D
:10A0F4000020814901E000200021059A002A00F097
:10A10400E98081F00041E5E068004015401C04D17D
:10A11400290302D020462946DCE078004015401C83
:10A1240004D1390302D030463946D3E07900012006
:10A134004915491C7CD03B46590051EADA7B4FEA69
:10A144004A0104BF0029CDE90067324619D040F224
:10A154003341A1EB5B51352904DB02F0000203F02B
:10A1640000430CE0202903DD2039CB408B4000E084
:10A1740001D1002203E00029C4BFCA408A40CDE9CE
:10A1840000233B0008D500214FF0004B8A1B6BEBEA
:10A194000303CDE9022301E0CDE90263DDE90023F5
:10A1A400002B05D500214FF000468A1A66EB030305
:10A1B400DDE902AB9B450CBF92450020DDE900239D
:10A1C400590041EAD2765100002E08BF002917D069
:10A1D40040F23441A1EB5651352904DB02F0000270
:10A1E40003F000430CE0202903DD2039CB408B40F1
:10A1F40000E001D1002203E00029C4BFCA408A4024
:10A20400B0B1DDE90001002905D500264FF0004B6F
:10A21400301A6BEB0101002B05D500264FF0004BE3
:10A22400B21A6BEB0303994206BF9042002001204F
:10A2340069004915491C07D12A0305D1EC0F1BD12C
:10A24400FE0F3FD0002045E079004915491C1BD181
:10A254003A0319D125F00041B1F5801F24F0000024
:10A264001DD20022002908BF002800921BD06A4694
:10A27400294600F0D3FB16E0FE0F02D1002822D0BD
:10A284001DE0002826D006E0002814BFEC0F0024AF
:10A29400FE0F13D17CB100204FF000411AE0114AA7
:10A2A40002EB11500090FE0F009802D1002809DC47
:10A2B40001E0002806DD002000210BE014B100209D
:10A2C400254907E000200C4904E000BFC03D000020
:10A2D400002002490AB0BDE8F08D00000000F03F04
:10A2E4000000F0BF02FCFFFFFFFF0F800000E03F13
:10A2F400CD3B7F669EA0E63F0000F07F000050400B
:10A304000000903FF7DE29BFD8F8C23FF4B3FECC7B
:10A314001A99C33F62CB68D96F46C73FC6C912DAE0
:10A32400C471CC3F4AE98A942449D23FF75F979994
:10A334009999D93FBC5555555555E53FFE822B6536
:10A344004715F73F0000E0C00000E0400000E0BF18
:10A35400EF39FAFE422EE63F0000F0FFF0B540F27E
:10A36400FF7581EA030C0CF0004C15EA11541DBF73
:10A3740015EA1357AC42AF42E5E0BC41C1F3130107
:10A38400C3F31303801A994143F4801304D2641E67
:10A394004000494180185941C90241EA5051B1FB7A
:10A3A400F3F603FB1611A2FB0675D7EBC020A941F7
:10A3B40002D2761E80185941C90241EA5051B1FBBC
:10A3C400F3FE03FB1E11A2FB0E75D7EBC020A941BF
:10A3D40003D2AEF1010E80185941890241EA90512D
:10A3E400760546EA8E2EB1FBF3F603FB1611A2FBAB
:10A3F4000675D7EB8020A94102D2761E80185941F8
:10A40400C90241EA50514EEA060EB1FBF3F603FBD2
:10A414001611A2FB0675D7EBC020A94102D2761E05
:10A4240080185941C90241EA5051B1FBF3F703FBCB
:10A434001711A2FB0735D3EBC020A94167F1000730
:10A444000CBF004247F0010766F3D5274FEA1E31DF
:10A45400B80814F5806412DDBD0775F1004250EBB5
:10A464000E5051EB045111F5801F5CBF41EA0C0101
:10A47400F0BD4CF07F6141F0E0410020F0BDBD072C
:10A484006D0840EA0E5041F48011D4F10104B4F196
:10A4940020060ADAC4F120060200E04001FA06F3BD
:10A4A400E1401843B24015430EE0342C13DCC6F1EE
:10A4B400200445EA40056D0820FA06F2154321FA06
:10A4C40006F0A1400D43002175F1004250F1000057
:10A4D40051EB0C01F0BD00205FEA0C01F0BDCFB9D7
:10A4E40092185B41B3FA83F704BFB2FA82F6BF193C
:10A4F4000B3FB7F120062FBF02FA06F3BB40C7F1AA
:10A50400200622FA06F638BF3343BA401CB1E419D8
:10A51400641E33E77F4231F00041B1FA81F404BF95
:10A52400B0FA80F6A4190B3CB4F120062FBF00FA50
:10A5340006F1A140C4F1200620FA06F638BF3143E3
:10A54400A0403C1B1AE7AC421ABF05EA1357AF42BE
:10A5540012E050EA41061CBF52EA4306BFE750EA44
:10A564004107304661461CBF41EA0551F0BD52EA3D
:10A57400430C08BFC143F0BD00204FF4001616EB96
:10A58400410F98BF16EB430F08BF16EB410F24BFD2
:10A59400C14305E016EB430F0CBF61464CEA05517D
:10A5A400F0BD0000B0B581EA030C0CF0004C40F2A1
:10A5B400FF7515EA11541DBF15EA1357AC42AF429B
:10A5C40039E0E41923EA455343F48013C90241F006
:10A5D400004141EA505EC7021100A7FB02020028B5
:10A5E4004FF00000EEFB01204FF00001E3FB0721D8
:10A5F40018BF42F00102401800214941E3FB0E015B
:10A60400A4F580640F0302D252004041494154F141
:10A6140001046CDD470872F1004250F1000051EB77
:10A624000451A1F580115CBF41EA0C01B0BD4CEAB4
:10A6340005510020B0BD05EA1357AC4214BFAF4228
:10A6440041E050EA410E1CBF52EA430E02E061466B
:10A654000020B0BD24423C441BD15FEA070EF6D073
:10A66400090302BF01460020AEF1140EB1FA81F7CE
:10A67400AEEB070401FA07FE0C37C7F1200100FA1C
:10A6840007F7C8404EEA000E23EA455343F480130B
:10A69400A2E733F00043B3FA83F704BFB2FA82FEB1
:10A6A40077440B3FE41BB7F1200E2FBF02FA0EF3E1
:10A6B400BB40C7F1200E22FA0EFE38BF43EA0E0358
:10A6C400BA40641C82E750EA410E14BF52EA430EBA
:10A6D4006FF000014FF4001717EB430F8ABF1946C0
:10A6E40017EB410FB5E74CEA05510020B0BDD4F19A
:10A6F4000104B4F120070FDAC4F12007520828BF7F
:10A7040042F0010210FA07F501FA07F7E1BF2A4304
:10A71400E0403843E1400FE0352C98DCC7F12004D9
:10A7240052EA400220FA07F218BF42F0010231FA5D
:10A7340007F0A1400A43002172F1004250F10000E9
:10A7440051EB0C01B0BD0000400D491840EA8120D6
:10A754000CD2490DA1F58061491C40F0004005DB95
:10A76400D1F11F0154BFC840C01770470020704783
:10A77400F0B500220023002400250026002791F8CC
:10A7840003C01CF00F0C91F803E05FEACE6E02D513
:10A794008A7852EA0C0C0A7812062AD0026816004B
:10A7A40000221400082C23D25FF0010E1EFA04F2DA
:10A7B40015000A882A401300AB4217D1A2001500E5
:10A7C4000F22AA401700BE431CFA05F21643CA78AA
:10A7D400282A04D11EFA04FEC0F814E006E0CA7860
:10A7E400482A03D11EFA04FEC0F810E0641CD9E71D
:10A7F40006600A88B2F5807F2EDB426816000022CC
:10A804001400082C27D25FF0010E14F108021EFA7E
:10A8140002F215000A882A401300AB4219D1A200A3
:10A8240015000F22AA401700BE431CFA05F2164376
:10A83400CA78282A04D114F108021EFA02F24261ED
:10A84400CA78482A05D114F108021EFA02FEC0F89B
:10A8540010E0641CD5E74660F0BD0A0092B20261C4
:10A864007047F0B40022002300250027002802D5F9
:10A874001D4C246801E01D4C2468C0F3034586B2D6
:10A8840010F4401CBCF5401F07D134F07064174A23
:10A89400176837F07067176011E0C20206D503220B
:10A8A400AA4013009C4354F0706408E00200520D67
:10A8B400D2B2120116FA02F2944354F070640A0000
:10A8C400D2B2002A06D00200520DD2B2120116FAF8
:10A8D40002F21443002802D5034A146001E0034A3B
