:020000040800F2
:1040000040710020D5EA000841E4000843E40008BC
:1040100045E4000847E4000849E400080000000007
:104020000000000000000000000000004BE4000859
:104030004DE40008000000004FE4000851E40008CF
:104040002DEC000831EC000835EC0008E1E6000832
:1040500039EC00083DEC000841EC000845EC000894
:1040600049EC00084DEC000851EC000855EC000844
:1040700059EC00085DEC0008C9E50008A5E500085A
:104080002DE5000851E5000861EC000865EC00082A
:1040900069EC00086DEC000871EC000875EC000894
:1040A00079EC00087DEC000881EC000885EC000844
:1040B00089EC00088DEC000891EC000895EC0008F4
:1040C00099EC00089DEC0008A1EC0008A5EC0008A4
:1040D000A9EC00086BE50008F3E40008EBE5000834
:1040E000ADEC0008B1EC0008B5EC0008B9EC000834
:1040F000BDEC0008C1EC0008C5EC0008C9EC0008E4
:10410000CDEC0008D1EC0008D5EC0008D9EC000893
:10411000BDE4000861E60008DDEC0008E1EC000801
:10412000E5EC0008E9EC0008EDEC0008F1EC000813
:1041300062F30F2262F31F42401810F0030308D00D
:10414000C91A1FD3DB0748BF00F8012D28BF20F88C
:10415000022D130030B414461546103928BF20E94B
:104160003C00FAD8490728BF20E90C0048BF40F8B6
:10417000042D890028BF20F8022D48BF00F8012D2A
:1041800030BC7047C91818BF00F8012DCB0728BFF5
:1041900000F8012D7047F00908CEB4B0F3B6A8CDF1
:1041A000D0C5CC00018301011C20020102030404DC
:1041B000F009080607080902040608C68E00045222
:1041C000FF01E30A85141001000026142157F003B3
:1041D000164000002000012002F57D00082C43E37A
:0941E0007D3C210100010101FFF9
:105000002043533131313020323330373331303275
:105010002047323330323030000000000000000002
:105020000000000000000000000000000000000080
:0250300000007E
:105034002DE9F0476C240025DFF8F4662A002100EE
:105044003000FFF773F840F62C060027DFF8E486FB
:105054003A0031004046FFF769F840F638285FF01F
:105064000009DFF8D4A64A4641465046FFF75EF8E9
:1050740000F01CF8002804D00320DFF8C0164870A4
:1050840003E00220DFF8B4164870DFF8B446A01D30
:1050940000F03BF9208020886080DFF89006002132
:1050A4008170007801F049FFBDE8F0872DE9F047F1
:1050B4005FF0000800240025DFF870663200182134
:1050C400002002F03BFC07003800C0B2002810D0DA
:1050D4005FF000085FF000091421300002F04AFD7F
:1050E400716902000B0092B29BB29A4201D0002275
:1050F4001700320018214FF4807002F01FFC804624
:105104004046C0B200280FD000245FF000091421EB
:10511400300002F02FFD716902000B0092B29BB2C5
:105124009A4201D00022904658EA0700C0B20028F3
:1051340021D118245FF00009B2464A4621005046A6
:10514400FEF7F4FF0020B070002070700120B081E1
:10515400C0207071A820B0710220F0710A20307252
:105164000120F07000203071002030703220306156
:1051740000F068F826E03800C0B201280FD140469C
:10518400C0B200280BD132001821002002F0D6FB57
:10519400320018214FF4807002F097FC12E03800BE
:1051A400C0B200280ED14046C0B201280AD1320054
:1051B40018214FF4807002F0C1FB32001821002046
:1051C40002F083FC02F032FD45F25550DFF874150D
:1051D4000A88824208D14A88737A9BB29A4203D1E0
:1051E4008A88B3899A4206D00880B089888002F000
:1051F400A1FD02F0CCFD3800C0B2012805D1404623
:10520400C0B2012801D1012005002800C0B2BDE8C8
:10521400F08710B50024DFF828253C214FF4C8702E
:1052240002F08CFBC0B210BDF8B504000D001600EE
:1052340000273200290089B2200080B202F07EFBF0
:10524400C0B2F2BD70B50024DFF8E06400207061E4
:105254001421300002F08EFC70613200182100200D
:1052640002F033FC0500320018214FF4807002F084
:105274002CFCC0B270BD38B50024DFF8C454002043
:10528400A8633821280002F075FCA8632A003C2199
:105294004FF4C87002F019FCC0B232BDF8B5040076
:1052A4000D00160000273200290089B2200080B2C8
:1052B40002F00BFCC0B2F2BD30B401008024002027
:1052C400002200250023180080B232281ADA0020B8
:1052D40002001000C0B2082812DA180080B2085C7C
:1052E400204202D0280080B20DE0E4B264086D1CB4
:1052F4002000C0B2002801D180200400521CE8E73D
:105304005B1CE0E7002030BC704730B4010080240F
:1053140000200025002200231D00ADB2322D17DA33
:1053240000252A001500EDB2082D0FDA1D00ADB2DC
:105334004D5D254200D0401CE4B264082500EDB266
:10534400002D01D180252C00521CEBE75B1CE3E708
:1053540080B230BC704730B40100802400200022A9
:1053640000250023180080B232281ADA0020020037
:105374001000C0B2082812DA180080B2085C20427B
:1053840002D1280080B20DE0E4B264086D1C200054
:10539400C0B2002801D180200400521CE8E75B1C45
:1053A400E0E7002030BC704710B58AB0040002A8C2
:1053B400202102F011FD207A0190E0790090A37978
:1053C4006279DFF88C1C02A802F018FD002000901E
:1053D400002302AA1E2141F2100002F035FE207AB9
:1053E4000190E0790090A3796279DFF8681C02A843
:1053F40002F004FD00200090002302AA142141F2CF
:10540400300002F021FE0AB010BD2DE9F84F94B02F
:1054140004000D000026002750210022E8464046E3
:10542400FEF784FE002194F81380D5F82808401C68
:10543400C5F82808D5F81008401CC5F8100885F8E8
:105444000B884046C0B2002800F09F80DFF8081C9B
:105454000878002804D10220DFF8002C107003E043
:105464000420DFF8F82B10704046C0B2012871D137
:1054740000200870D5F81C08401CC5F81C08D5F895
:105484002408401CC5F824080020C5F82008002082
:10549400C5F814080120DFF8381D88705FF008098A
:1054A40014F1140AEB464A465146584602F05CFF92
:1054B400DFF8A80BD5F81C18027891420DD1012011
:1054C40085F80C085FF00809EA4605F6020B4A461F
:1054D4005146584602F048FF32E0D5F81C180078CF
:1054E40081422DD3022085F80C08002007003800E3
:1054F400C0B2082815DA3800C0B2284490F802086F
:1055040069463A00D2B2895C884205D0D5F81808B9
:10551400401CC5F8180804E00020C5F818087F1CD2
:10552400E5E7D5F8180803280AD30020C5F81C08B5
:10553400D5F82008801DC5F82008042085F80C083B
:10554400DFF8900C016811F1010F35D05FF0FF31E5
:10555400016031E001200870D5F8140802280ED348
:105564000020C5F81408D5F82008801DC5F82008C7
:10557400042085F80C08082085F80D081CE0D5F8EF
:105584001408401CC5F8140816E0D5F82008401C7F
:10559400C5F82008D5F82008032803D30420DFF831
:1055A400301C8870D5F82008062805D30020C5F8DB
:1055B4001C08042085F80C083000C0B215B0BDE802
:1055C400F08F2DE9F04389B004000D0001A82021DB
:1055D40002F002FC0021002642F21077DFF8548129
:1055E400D8F824087843D8F82828B0FBF2F9DFF873
:1055F400342D1078002805D152694AA101A802F07F
:10560400FDFB04E0DFF8201D01A802F0F7FB4FF6D4
:10561400FF70814500D1B94600200090012301AA02
:10562400082141F2102002F00FFD98F80B28DFF852
:10563400FC1C01A802F0E2FB00200090002301AA58
:10564400032141F2502002F0FFFCD8F8282836A1AB
:1056540001A802F0D3FB00200090012301AA082135
:105664004FF4915002F0F0FC6423B9FBF3F003FB18
:1056740010936420B9FBF0F2DFF8B41C01A802F027
:10568400BDFB00200090012301AA082141F2302033
:1056940002F0DAFC3000C0B209B0BDE8F083F0B526
:1056A40089B00400DFF88C0C01782200D2B2914258
:1056B40034D004700078022817D12025DFF8786CE4
:1056C40001AF2A003100380002F04EFEF82142F208
:1056D400602002F0A5FC00200090012301AA2021F3
:1056E4004FF4935002F0B0FC19E02025DFF8E86D88
:1056F40001AF2A003100380002F036FE4EF20701F5
:1057040042F2602002F08CFC00200090012301AAE8
:1057140020214FF4935002F097FC00E0047009B08C
:10572400F0BD00002564670025640000C05000201F
:10573400504E0020904400202030002028510020AA
:10574400A44F0020E45000201FB5040001A8082144
:1057540002F042FB607E002808D0022879D03ED3B4
:10576400042800F0ED80C0F0AF8025E10020009017
:10577400002301AA08214FF4835002F065FC0020A5
:105784000090002301AA082141F2700002F05CFCA1
:1057940000200090002301AA08214FF4845002F055
:1057A40053FC00200090002301AA082141F290003C
:1057B40002F04AFC4FF44151022002F01CFC43F277
:1057C4005001022002F017FC43F26001022002F0B3
:1057D40012FC43F27001022002F00DFCECE0002008
:1057E4000090002314F1280208214FF4835002F0A2
:1057F4002BFC00200090002301AA082141F2700034
:1058040002F022FC00200090002301AA08214FF49A
:10581400845002F019FC00200090002301AA082102
:1058240041F2900002F010FC4FF44151002002F0CC
:10583400E2FB43F25001022002F0DDFB43F260017F
:10584400022002F0D8FB43F27001022002F0D3FBE5
:10585400B2E000200090002314F1280208214FF444
:10586400835002F0F1FB00200090002314F1300279
:10587400082141F2700002F0E7FB002000900023B1
:1058840001AA08214FF4845002F0DEFB00200090AE
:10589400002301AA082141F2900002F0D5FB4FF445
:1058A4004151002002F0A7FB43F25001002002F016
:1058B400A2FB43F26001022002F09DFB43F270015F
:1058C400022002F098FB77E000200090002314F1FE
:1058D400280208214FF4835002F0B6FB0020009008
:1058E400002314F13002082141F2700002F0ACFBF5
:1058F40000200090002314F1380208214FF4845052
:1059040002F0A2FB00200090002301AA082141F22A
:10591400900002F099FB4FF44151002002F06BFB20
:1059240043F25001002002F066FB43F260010020C4
:1059340002F061FB43F27001022002F05CFB3BE0E9
:1059440000200090002314F1280208214FF4835012
:1059540002F07AFB00200090002314F130020821A9
:1059640041F2700002F070FB00200090002314F15B
:10597400380208214FF4845002F066FB00200090A6
:10598400002314F14002082141F2900002F05CFB74
:105994004FF44151002002F02EFB43F2500100204D
:1059A40002F029FB43F26001002002F024FB43F2E1
:1059B4007001002002F01FFB1FBD2DE9F24F90B0D3
:1059C40004000027002600208DF801000020ADF817
:1059D40002005FF00008002500200590B4F80500DF
:1059E400ADF804005FF0040914F1090A0DF1140B79
:1059F4004A465146584602F0B7FCBDF804004FF63B
:105A0400FF71884208D0BDF80400DFF8F01D8989D1
:105A1400884201D0002018E3DFF8E46DB4F80300F5
:105A2400A6F82E0A00203080E0798DF800009DF859
:105A340000001F2802D1207A8DF800009DF8000094
:105A440086F8280A002086F8240A002086F8260A08
:105A54009DF80000552809D00120DFF8A81D087022
:105A6400DFF8A40D0068DFF8A41D0860A078002802
:105A740002D1B4F8097003E0BDF84000B0F10B079F
:105A84009DF80000042817D020283DD021287BD081
:105A9400222800F09E81232800F0E681252800F0CA
:105AA4008580552800F06582F72810D0F8281AD090
:105AB400FE2800F08A82B4E2380080B2002805D1C2
:105AC40032000021002000F0CBFA3080A9E2380037
:105AD40080B2002806D132003221DFF8340D00F004
:105AE400BFFA30809DE2380080B200280CD100203B
:105AF40086F8240A002086F8260A32000C21DFF8F2
:105B0400140D00F0ADFA3080380080B207283BD184
:105B1400A07A002808D0A07A0A2802D1E07A0028C6
:105B240002D0E07A012822D1DFF8D08C607A88F89C
:105B34000A00A07A88F80000E07A88F804005FF090
:105B4400040914F10C0A18F1100B4A465146584640
:105B540002F00AFC002086F8240A002086F8260AAF
:105B6400FFF770FB98F8000001F0E7F905E0012069
:105B740086F8240A042086F8260ADFF8802C3100EF
:105B8400002000F05FFD3080380080B200280CD186
:105B9400002086F8240A002086F8260ADFF85C2C08
:105BA4003100012000F04EFD30803AE2380080B22E
:105BB4000D28C0F20D8100200290DFF85C0C90F8F3
:105BC4000C08800700F1F680607B002801D00120DA
:105BD40000E00020607B2044807B242880F2DA806F
:105BE40048200C9000200B90DFF8308CC1460B9AB3
:105BF4000C994846FEF79AFA607B401C0A9014F10F
:105C04000D000990DFF818BCD9460A9A099948464C
:105C140002F0AAFB4146607B20440E3000F002FEF5
:105C240088F8190004200890607B2044617B21449B
:105C3400897B08440F30079018F12009089A0799C6
:105C4400484602F091FB02200690607B2044617B71
:105C54002144897B08441330039018F11C09069AE7
:105C64000399484602F080FB607B2044617B214419
:105C7400897B0844407D88F81A00DFF8189EDFF815
:105C840018AE18225946504602F0C6FB002823D10C
:105C9400082218F1280119F1340002F0BDFB002894
:105CA4001AD1042218F1200119F12C0002F0B4FBDE
:105CB400002811D1022218F11C0119F1280002F068
:105CC400ABFB002808D1012218F11A0119F12600B2
:105CD40002F0A2FB00283BD018200A90CDF824B093
:105CE400CDF80CA00A9A0999039802F03DFB039899
:105CF4000420089018F12000079019F12C0A089A42
:105D04000799504602F030FB5FF0020A18F11C00BC
:105D1400069019F1280B52460699584602F024FBC6
:105D24005FF0010B18F11A00039019F126085A4686
:105D34000399404602F018FB19F10C01607B2044E2
:105D44000E3000F06FFD89F82500012089F80C0061
:105D54005FF0040814F109090DF1080A42464946A6
:105D6400504602F001FB002086F8240A002086F841
:105D7400260A029802F0BAFBDFF8200D0178032905
:105D840002D001780D291BD10178152918D00021E2
:105D9400417015E05FF048085FF00009DFF800ADDE
:105DA4004A4641465046FEF7C1F90320DFF8EC1C91
:105DB400487005E0012086F8240A042086F8260AA3
:105DC400DFF8600542690299300000F087FB3080FB
:105DD40027E1380080B2152845D1207F050028002E
:105DE400C0B200282ED1042216F5236114F112004A
:105DF40002F012FB002825D15FF0040814F1160903
:105E0400DFF890AC1AF15C0B42464946584602F062
:105E1400ABFA04208AF85500A07ECAF80400A07EDC
:105E24008AF86100E07E8AF86000002086F8240A7F
:105E3400002086F8260A042086F82B0A002086F81B
:105E44002A0A0AE00120DFF84C1C81F855000120E1
:105E540086F8240A042086F8260A3200002100204D
:105E640000F0FEF83080DCE0380080B20228C0F296
:105E74007F80A07D0500002004905FF0FF305FF07C
:105E8400FF31CDE90E012800C0B200281AD1DFF895
:105E9400148C042218F1130114F1120002F0BCFA5C
:105EA40000280FD1002086F8240A002086F8260A4C
:105EB400012088F8270ADFF8F00B016831F040016F
:105EC40001604FE02800C0B200281AD1042216F560
:105ED400236114F1120002F09FFA002811D100206E
:105EE40086F8240A002086F8260A0120DFF8B41B6D
:105EF40081F8270ADFF8B00B016831F04001016036
:105F040030E008220EA914F10A0002F085FA0028F4
:105F14001DD1042204A914F1120002F07DFA002814
:105F240015D12800C0B2002811D1002086F8240A17
:105F3400002086F8260A0120DFF8681B81F8270A6A
:105F4400DFF8640B016831F0400101600AE00120D0
:105F5400DFF8401B81F85500012086F8240A04204C
:105F640086F8260A32000021002000F079F83080FB
:105F740057E0380080B2202826D1DFF8808898F8CE
:105F84000500617A88420ED198F80600A17A884209
:105F940009D198F80700E17A884204D198F80800FA
:105FA400217B884210D0607A88F80500A07A88F8AE
:105FB4000600E07A88F80700207B88F80800FFF7DD
:105FC40041F94046FFF7F0F92BE0380080B2002891
:105FD40027D0607AADF80200BDF80200012803D191
:105FE400012086F82C0A16E0BDF80200022803D12D
:105FF400022086F82C0A0EE0BDF80200042803D122
:10600400032086F82C0A06E0BDF80200002802D11D
:106014000A2086F82C0A32000021002000F020F823
:106024003080308800280FD19DF8010000280BD162
:10603400012086F8240A042086F8260A320000216A
:10604400002000F00DF83080308811B0BDE8F08FEA
:1060540004E00008E4EA000834510020355100202F
:106064002DE9F84F05000E00170000245FF000082A
:10607400002087F82A0A7E20210089B239448870DA
:10608400641C5520210089B239448870641C0020A6
:10609400210089B239448870641CDFF86007818963
:1060A400220092B23A449170641C808980B2000A42
:1060B400210089B239448870641CB7F82E0A210083
:1060C40089B239448870641CB7F82E0A80B2000A79
:1060D400210089B239448870641C1F20210089B2D0
:1060E40039448870641C97F8280A210089B239441D
:1060F4008870641C3000C0B2F1281BDB200080B221
:1061040038448670641C0020210089B239448870A8
:10611400641CB1465FFA89F9AA46200080B238446B
:1061240010F1020B4A465146584602F01DF954FA42
:1061340086F434E097F8240A00280ED1B1465FFAB9
:1061440089F9AA46200080B2384410F1020B4A466D
:106154005146584602F008F90EE0B1465FFA89F953
:106164005FF0000A200080B2384410F1020B52465E
:1061740049465846FDF7DAFF54FA86F497F8240A9C
:10618400210089B239448870641C97F8260A2100DA
:1061940089B239448870641C2000401E3871210083
:1061A40089B2891E381D01F0E5FC0100200080B28F
:1061B40038448170641C080080B2000A220092B244
:1061C4003A449070641C3C802000C0B2BDE8F28F59
:1061D400C4000020045100202DE9F84F04000D00F4
:1061E40016005FF0000B0027012085F82A0AC5F885
:1061F400306A7E20594689B2294488701BF1010B0C
:106204005520594689B2294488701BF1010B00209E
:10621400594689B2294488701BF1010BDFF8DC056B
:1062240081895A4692B22A4491701BF1010B8089EC
:1062340080B2000A594689B2294488701BF1010BC7
:10624400B5F82E0A594689B2294488701BF1010B0E
:10625400B5F82E0A80B2000A594689B229448870DA
:106264001BF1010B2220594689B2294488701BF185
:10627400010B0020594689B2294488701BF1010B97
:106284005FF00808A146584680B2284410F1020A7B
:1062940042464946504602F067F81BF1080B58463F
:1062A40080B2284486701BF1010B3000000A594665
:1062B40089B2294488701BF1010B3000000C594647
:1062C40089B2294488701BF1010B3000000E594635
:1062D40089B2294488701BF1010B5846401E28716D
:1062E400594689B2891E281D01F044FC824659464C
:1062F40089B2891E281D01F03DFC0100584680B278
:10630400284481701BF1010B58460A0092B2120A0C
:1063140003009BB22B449A70401C2880C0B2BDE895
:10632400F28F0000C44D00207CEB000884EB0008D1
:106334008CEB0008C200002094EB00082DE9FE4F0E
:1063440004000D0016001F00DDF830805FF0000B24
:106354000020ADF80400C6F8307A7E20594689B290
:10636400314488701BF1010B5520594689B23144E0
:1063740088701BF1010B0020594689B231448870A2
:106384001BF1010BDFF8740481895A4692B232443E
:1063940091701BF1010B808980B2000A594689B2C1
:1063A400314488701BF1010BB6F82E0A594689B2A4
:1063B400314488701BF1010BB6F82E0A80B2000A32
:1063C400594689B2314488701BF1010B2320594688
:1063D40089B2314488701BF1010B0020594689B2FF
:1063E400314488701BF1010B5FF008090095584691
:1063F40080B2304410F1020A4A460099504601F036
:10640400B3FF1BF1080B584680B2304487701BF170
:10641400010B3800000A594689B2314488701BF1D7
:10642400010B3800000C594689B2314488701BF1C5
:10643400010B3800000E594689B2314488701BF1B3
:10644400010B584680B2304480F802801BF1010BE6
:106454004046000A594689B2314488701BF1010B49
:106464004046000C594689B2314488701BF1010B37
:106474004046000E594689B2314488701BF1010B25
:10648400584680B2304484701BF1010B5846401EBC
:106494003071594689B2891E301D01F06BFB82466A
:1064A400594689B2891E301D01F064FB010058462B
:1064B40080B2304481701BF1010B58460A0092B23D
:1064C400120A03009BB233449A70401C3080C6F811
:1064D400307AC0B2BDE8FE8F9CEB00082DE9F8438A
:1064E40004000D00160000275FF00008002084F867
:1064F4002A0A7E20390089B2214488707F1C5520E5
:10650400390089B2214488707F1C0020390089B287
:10651400214488707F1CB94881893A0092B2224490
:1065240091707F1C808980B2000A390089B22144AD
:1065340088707F1CB4F82E0A390089B2214488700F
:106544007F1CB4F82E0A80B2000A390089B22144B3
:1065540088707F1C1F20390089B2214488707F1CF9
:1065640094F8280A390089B2214488707F1C0020DD
:10657400390089B2214488707F1C380080B22044DD
:1065840085707F1C2800000A390089B22144887074
:106594007F1C2800000C390089B2214488707F1CBC
:1065A4002800000E390089B2214488707F1C38000D
:1065B40080B2204486707F1C3000000A390089B202
:1065C400214488707F1C3000000C390089B22144BA
:1065D40088707F1C3000000E390089B22144887015
:1065E4007F1C94F8240A390089B2214488707F1CE6
:1065F40094F8260A390089B2214488707F1C380037
:10660400401E2071390089B2891E201D01F0B2FAA2
:106614008146390089B2891E201D01F0ABFA0100C0
:10662400380080B2204481707F1C080080B2000AC8
:106634003A0092B2224490707F1C27803800C0B286
:10664400BDE8F2832DE9F84F80460D0016000024C2
:106654000027002085F82A0A7E20210089B22944D7
:106664008870641C5520210089B229448870641CF8
:106674000020210089B229448870641C5F48818904
:10668400220092B22A449170641C808980B2000A6C
:10669400210089B229448870641CB5F82E0A2100AF
:1066A40089B229448870641CB5F82E0A80B2000AA5
:1066B400210089B229448870641C1F20210089B2FA
:1066C40029448870641C95F8280A210089B2294459
:1066D4008870641C0020210089B229448870641CDD
:1066E4004046C0B2002849D0B07A210089B229447A
:1066F4008870641C3078210089B229448870641C35
:106704003079210089B229448870641C30692100E1
:1067140089B229448870641C3069000A210089B256
:1067240029448870641C3069000C210089B2294412
:106734008870641C3069000E210089B22944887075
:10674400641C5FF00809324810F1080A200080B286
:10675400284410F1020B4A465146584601F004FE03
:1067640008340020210089B229448870641C002068
:10677400210089B229448870641C1DE05FF0080977
:10678400234810F1080A200080B2284410F1020BBB
:106794004A465146584601F0E7FD083495F8240A64
:1067A400210089B229448870641C95F8260A2100C6
:1067B40089B229448870641C2000401E287121007D
:1067C40089B2891E281D01F0D5F98146210089B2BC
:1067D400891E281D01F0CEF90100200080B2284452
:1067E4008170641C20000A0092B2120A03009BB25A
:1067F4002B449A70401CC0B2BDE8F28FC0500020F8
:1068040020300020335100201C510020F85000207B
:1068140000500008E8F7FF1F904400205C4F002060
:106824005D4F00202DE9F84F88B004000D007C2056
:106834008DF801005FF000095FF0000A5FF00008C6
:1068440000260421002201AF3800FDF76FFC2078F8
:106854008DF8000000279DF800003900C9B2884275
:106864000FD33800C0B2205C9DF80110884206D1D5
:1068740018F1010801A83100C9B24754761C7F1CE5
:10688400E9E79DF80000002800F0D5804046C0B23A
:1068940000281ED1607800280BD1A078002808D1E8
:1068A400E078002805D12079002802D1052080460F
:1068B400BCE09DF800009DF80490B0EB090914F1C8
:1068C400010A15F1280B4A465146584601F04CFD81
:1068D400ACE04046C0B201281FD19DF80490B9F144
:1068E4000109601C039015F1280A4A460399504691
:1068F40001F03AFD9DF800009DF804A0B0EB0A0AEF
:106904009DF804002044401C029015F1300B5246BF
:106914000299584601F028FD88E04046C0B202289A
:1069240035D19DF80400401E0590601C049015F1BB
:106934002809059A0499484601F016FD0DF1040B47
:106944009BF801009DF80490B0EB0909B9F1010925
:106954009DF804002044401C039015F1300A4A4677
:106964000399504601F000FD9DF800009BF801A03A
:10697400B0EB0A0A9BF801002044401C029015F178
:10698400380B52460299584601F0EEFC4EE0404660
:10699400C0B203284AD19DF80400401E0790601C31
:1069A400069015F12809079A0699484601F0DCFC7F
:1069B4000DF1040999F801009DF804A0B0EB0A0A4E
:1069C400BAF1010A9DF804002044401C059015F119
:1069D400300B52460599584601F0C6FC99F802005E
:1069E40099F801B0B0EB0B0BBBF1010B99F8010066
:1069F4002044401C049015F1380002905A46049932
:106A0400029801F0B1FC02989DF8001099F8020078
:106A1400091A039199F802002044401C029015F1D0
:106A24004009039A0299484601F09EFC18F10108B6
:106A34004046C0B200E0002009B0BDE8F08F10B5B8
:106A4400040060782178884223D0607820706078D0
:106A5400152808D1DFF8D80600780A2803D11520B4
:106A640001F0B6FA15E020780D2809D1DFF8C00648
:106A740000780A2804D1207880B201F0A9FA08E04D
:106A84002078DFF8AC16097851FA80F080B201F072
:106A94009FFA10BD504E00205D4E0020285100206A
:106AA4005C4E0020583A0020F45000202DE9F043B9
:106AB40091B004000D00160001A8202101F08CF90A
:106AC40009A8202101F088F90020DFF86896D9F898
:106AD4001010D9F81470CF1B3178002908D001297F
:106AE40064D0022900F05981142900F0558154E141
:106AF400DFF8448698F80C00012842D118F10C0004
:106B0400FEF722FE002000900123A21C0C214FF46A
:106B1400825001F099FA60780D280ADB0020009079
:106B2400012314F10E020C214FF4B25001F08CFA3F
:106B340008E000200090012309AA0C214FF4B25070
:106B440001F082FA01A9206A00F02CF900200090DB
:106B5400012301AA05214FF4885001F0F5FAA28B14
:106B6400DFF8D81501A801F049F9002000900123AD
:106B740001AA0A2141F2101001F066FA022088F8F5
:106B84000C00002000900023DFF8B42508214FF406
:106B9400995001F059FA002000900023DFF8A42551
:106BA4000E2141F2500001F04FFAF6E0DFF888853B
:106BB40098F80C00012842D118F10C00FEF7C4FD2E
:106BC400002000900123A21C0C214FF4825001F0FC
:106BD4003BFA60780D280ADB00200090012314F1B1
:106BE4000E020C214FF4B25001F02EFA08E00020FE
:106BF4000090012309AA0C214FF4B25001F024FAA9
:106C040001A9206A00F0CEF800200090012301AA17
:106C140005214FF4885001F097FAA28BDFF81C1578
:106C240001A801F0EBF800200090012301AA0A2139
:106C340041F2101001F008FA022088F80C0000203C
:106C440000900023DFF8FC24122141F2504001F0AF
:106C5400FBF9002000900023DFF8E42408214FF41E
:106C6400995001F0F1F9D9F81010D9F81400091A63
:106C7400002917D4D9F81010D9F81400091A484873
:106C8400006981420ED3DFF8401B0878002809D13F
:106C9400206A00FB07F0A28BB0FBF2F060620120D7
:106CA40008701DE0D9F81010D9F81400091A002949
:106CB40012D4DFF8140B007800280DD0D9F8101086
:106CC400D9F81400091A0F00206A00FB07F0A18B01
:106CD400B0FBF1F0606203E0002007000020606276
:106CE400DFF8B00B8078042805D1DFF8AC0B01681D
:106CF400B94200D307603A00C5A101A801F07EF8AB
:106D040000200090002301AA05214FF4895001F0CE
:106D14001BFA01A9606A00F045F8002000900123E5
:106D240001AA082141F2301001F00EFADFF8709048
:106D3400D9F81020DFF8641B01A801F05FF80020E7
:106D44000090012301AA08214FF49A5001F07CF924
:106D540001A9D9F81020206A4243A08BB2FBF0F0BD
:106D640000F020F800200090012301AA07214FF42D
:106D74009B5001F069F901A9D8F85C00626A101807
:106D840000F010F800200090012301AA08214FF41C
:106D94008A5001F0D9F900E0FFE711B0BDE8F083B3
:106DA400C0500020F8B584B004000D00B4F57A7F1B
:106DB4001BD26420B4FBF0F100FB11400A216422D1
:106DC400B0FBF1F301FB13000090B4FBF2F002FB03
:106DD40010420A20B2FBF0F36420B4FBF0F2DFF8B7
:106DE400C01A280001F00AF8A5E0B4F57A7F2AD386
:106DF40042F21070844226D26420B4FBF0F100FB0E
:106E040011400A2164224FF47A73B0FBF1F601FBBE
:106E140016000190B4FBF2F002FB10420A20B2FB10
:106E2400F0F00090B4FBF3F003FB10436420B3FBD9
:106E3400F0F34FF47A70B4FBF0F2DFF8681A28002C
:106E440000F0DCFF77E042F21070844233D3DFF8C5
:106E5400581A8C422FD26421B4FBF1F201FB124187
:106E64000A2264234FF47A76B1FBF2F702FB17117E
:106E74000291B4FBF3F103FB11430A21B3FBF1F1DB
:106E84000191B4FBF6F106FB11466421B6FBF1F166
:106E94000091B4FBF0F100FB11404FF47A71B0FBA8
:106EA400F1F342F21070B4FBF0F2DFF8001A28009C
:106EB40000F0A4FF3FE0DFF8F0198C423BD3DFF889
:106EC400F029944237D26422B4FBF2F302FB13425A
:106ED4000A2364264FF47A77B2FBF3FC03FB1C22EB
:106EE4000392B4FBF6F206FB12460A22B6FBF2F258
:106EF4000292B4FBF7F207FB12476422B7FBF2F2EB
:106F04000192B4FBF0F200FB12404FF47A72B0FB32
:106F1400F2F00090B4FBF1F001FB104142F210706A
:106F2400B1FBF0F3DFF88009B4FBF0F2DFF8841969
:106F3400280000F063FF05B0F0BD38B50400200060
:106F4400C0B20A282AD14FF6FF75290042F2100078
:106F540001F066F829004FF4015001F061F82900AE
:106F640042F2500001F05CF8290042F2101001F0E6
:106F740057F8290042F2300001F052F8290042F299
:106F8400702001F04DF829004FF4195001F048F831
:106F9400290042F2303001F043F82CE0002142F2A3
:106FA400100001F03DF800214FF4015001F038F8D1
:106FB400002142F2500001F033F8002142F2101097
:106FC40001F02EF8002142F2300001F029F80021EE
:106FD40042F2702001F024F8002142F2200001F076
:106FE4001FF800214FF4195001F01AF8002142F261
:106FF400203001F015F8DFF8C0080078DFF8BC187D
:107004000978081880B200F0E3FF31BD00000000E9
:107014002564000038B50400DFF8A8184878002873
:1070240010D12000C0B2002809D0DFF89C080470F9
:10703400DFF8980800684860102048703FE000209E
:10704400C8703CE04878102818D148682830DFF828
:107054007C28126890420DD2DFF86C080278230075
:10706400DBB29A4201D1047001E00020C870042010
:10707400487024E0CC700420487020E0487804284C
:107084001DD14868C830DFF844281268904213D2F2
:10709400DFF8340802782300DBB29A4205D1CA78BB
:1070A400007852EAC002CA7003E0CA78007802434A
:1070B400CA700020487002E0CC7010204870DFF8DD
:1070C400105828782100C9B288422ED02C70287814
:1070D400C00705D5002142F2106000F0A1FF05E0D1
:1070E4004FF6FF7142F2106000F09AFF2878800793
:1070F40005D5002142F2206000F092FF05E04FF632
:10710400FF7142F2206000F08BFF2878400705D51C
:10711400002142F2306000F083FF07E04FF6FF7178
:1071240042F2306000F07CFF00E02C7031BD0000C2
:10713400C0500020C44D0020504E0020A4EB000895
:10714400A0500020000000202DE9FE4FDFF8844706
:10715400206880040BD5206830F400502060DFF8EC
:107164005827DFF87417DFF87407FFF79FFCDFF880
:1071740070572878800618D54FF44251002000F04B
:107184003AFF0E275FF00008DFF85867B146424621
:1071940039004846FCF7CAFF5FF00E09DFF848A73C
:1071A4004A465146300001F0DFF8DFF8406796F8B0
:1071B4000C08C0071FD596F80C0810F0FE0086F8DE
:1071C4000C08DFF8F4160878002802D008780128A3
:1071D40011D1DFF81C77DFF81C070268390006F6C6
:1071E4000200FEF7F9FF3880012086F80A082068BB
:1071F40050F01000206096F80C08400740F1B88069
:1072040014275FF00008DFF8F09619F1540AD3460A
:10721400424639005846FCF789FFDFF89CB69BF8D4
:107224000000002804D09BF80000012840F09C8056
:10723400206830F4806020609BF80000002824D18E
:1072440096F80C08400720D5206880051DD52068D5
:1072540030F400702060DFF880168A690869121A19
:10726400002A12D4DFF8540602698B6908691B1AD4
:107274009A420AD2DFF884060F21017340F2011109
:107284004184206850F00400206096F80C0810F047
:10729400FB0086F80C080E20029000200190DFF815
:1072A40044864746019A02993800FCF73FFF0A20BA
:1072B4000090DFF84C76009A3900404601F054F80B
:1072C40000208BF801004FF44251022000F093FE9D
:1072D40096F80A08012842D1042086F80A080020FA
:1072E400C9F8300014275FF00008424639005046C0
:1072F400FCF71CFFDFF8A0A5DAF80000052828DB5E
:10730400DFF8C4040078002823D0DFF8F875DAF831
:1073140000000090DFF8DC0503683A0006F602017D
:1073240099F82600FFF70AF83880DFF8A00501680D
:10733400DFF8D4251160216851F0800121600068D4
:10734400C7F8340A0020CAF80000012087F8230A8D
:1073540005E0DFF878050068DFF8AC150860012067
:10736400DFF88C1581F82B0A0020DFF85C14087014
:1073740096F80C08800740F1C480DFF83C150878C3
:10738400002812D1DFF834251079002802D1012019
:107394004870B6E01079012840F0B38001204870AD
:1073A400206830F004002060ABE00878012840F049
:1073B400A8800E275FF00008DFF82895CA464246E9
:1073C40039005046FCF7B2FE5FF0000A5FF0000B94
:1073D400DFF8E8040079002873D12878000670D417
:1073E400DFF80C0590F82B1A042904D090F82B0A26
:1073F400022840F08680DFF8007597F860000028C6
:1074040010D14FF44251002000F0F5FDDFF8EC04F8
:107414000F2101734FF481714184206850F02000E2
:10742400206005E0206830F00400206001208246DE
:1074340097F8610001281CD10E27DFF8D0843A00A8
:107444004146484600F090FF45F24001A22000F07A
:1074540068FF45F25001222000F063FF45F250110D
:10746400002000F0C8FD45F24011002000F0C3FDEB
:1074740015E045F24001FF2000F053FF45F25001B2
:10748400FF2000F04EFF45F25011022000F0B3FD42
:1074940045F24011022000F0AEFD0120834658461B
:1074A400C0B2002808D05046C0B2002804D02068DA
:1074B40050F48060206024E0206830F48060206014
:1074C4001FE045F24001FF2000F02BFF45F2500180
:1074D400FF2000F026FF0E275FF000084246390027
:1074E4004846FCF723FE45F25011022000F083FDCC
:1074F40045F24011022000F07EFD206850F48060C7
:10750400206096F80D08000713D596F80D0810F0C2
:10751400F70086F80D08206850F00800206001206C
:1075240086F80A08DFF8D4030F21017340F203112F
:107534004184DFF8D06396F8270AC0077DD596F812
:10754400270A10F0FE0086F8270ADD4FB81DFDF764
:10755400DCFE00286DD0DFF8B883DFF8B89340462E
:10756400FDF7AAFEA9F80000B9F80000B98888421E
:107574002DD12020019000200090DFF89CA3D34659
:10758400009A01995846FCF7D1FD52462021B9F8DA
:1075940000308020434313F58063180080B2FDF768
:1075A4007DFE00283FD0B888C0103844B988C9107F
:1075B4003944897980223B7913F00703D2B2DA4047
:1075C40091438171FDF757FEFDF723FE2BE0202048
:1075D40000905FF0000A19F1040B524600995846D6
:1075E400FCF7A4FD19F104022021BB888020434349
:1075F40013F58063180080B2FDF750FE002812D006
:10760400B888C0103844B988C910394489798022AF
:107614003B7913F00703D2B2DA4091438171FDF74D
:107624002AFEFDF7F6FD4046FDF76FFE38803888E8
:107634007880206830F04000206096F8250A012800
:107644004DD1002086F8250A96F8230A012846D150
:107654002820019000200090AE4FB846009A01996E
:107664004046FCF763FDDFF8588218F106094846E6
:10767400FDF771FEA8F804004846FDF76CFE38805B
:107684003888C0104044807980213A7812F007028B
:10769400C9B2D14008433988C91041448871FDF703
:1076A400EAFDFDF7B6FD4846FDF72FFEA8F80000F9
:1076B4005FF02008DFF86492DFF85CA2D34642460C
:1076C4004946584600F050FE524620213B8880200F
:1076D400434313F58063180080B2FDF7DFFD904F3C
:1076E4003878C0074FD52078400648D420788007E2
:1076F40045D58C480178491C0170216831F002019C
:107704002160017864293AD100210170DFF8B08149
:1077140018F106094846FDF7F8FD00282FD0484621
:10772400FDF7CAFDA8F80400DFF8E8A14846FDF714
:10773400C3FDAAF800001AF1040842462021BAF851
:1077440000308020434313F58063180080B2FDF7B6
:107754006BFD5FF01C0916F1020A4A464146504689
:1077640000F002FE1C203080206850F08000206071
:1077740056480068C6F8340A022086F8230A2868A6
:1077840030F008002860387802281BD14C4C20883F
:107794000A2817DBA61D3000FDF7B7FD618880B20B
:1077A40081420FD23000FDF7B0FD608053480421C0
:1077B40001700F2101734FF482714184286850F0E5
:1077C40008002860BDE8F78F325100202DE9F84306
:1077D4000024414D95F8690095F86A60360456EA2C
:1077E400006695F86B0056EA002695F86C0006438F
:1077F4004D48304000F088FE80468946C6F3035069
:1078040000F082FE02000B000020484900F08AFECE
:1078140002000B004046494601F030FA0022444B76
:1078240001F050FB01F020FCE860424FE9683800A9
:1078340001F0B4FD6869F968401A01F0E0FD02281E
:1078440004DB00203870F868686102E03878401C76
:10785400387038780B2803DB00203870F8686861CA
:10786400354CF8682168401A01F0C9FD03280BDA89
:107874006879052804DB002068712068A86107E0A6
:107884006879401C687103E000206871F868206022
:10789400BDE8F183C400002004510020ACEB0008D3
:1078A400B4EB0008F0EA0008A0860100FCEA000836
:1078B40040420F00A4EA000828510020C0500020D4
:1078C400A44F0020EC500020375100201C51002010
:1078D40036510020F4500020C44D00205C4E00209E
:1078E4001051002000000020B4EA00089044002059
:1078F40020300020FC500020504E0020E04F00209B
:1079040008EB0008583A002000510020C4EA00089F
:10791400AA4F002050500020545000201C5000203A
:107924003351002038510020FFFF0F100000244085
:1079340000408F4078500020085100202DE9F0418C
:1079440004000D0016005FF001080027280080B233
:10795400002860D001F086FD002801D10020804677
:107964004046C0B2002808D0A02001F010FE01F06B
:10797400EDFD002801D1002080464046C0B2002819
:1079840008D0200080B2000AC0B201F000FE01F06D
:10799400DDFD80464046C0B2002806D02000C0B2BB
:1079A40001F0F5FD01F0D2FD80464046C0B200284A
:1079B40005D001F057FD002801D100208046404643
:1079C400C0B2002808D0A12001F0E1FD01F0BEFD05
:1079D400002801D1002080466D1E4046C0B2002818
:1079E40017D0002007003800290080B289B28842ED
:1079F40008D201F0F1FD390089B2705401F076FD2E
:107A04007F1CF0E701F0E8FD390089B2705401F001
:107A140085FD01F053FD4046C0B2BDE8F0812DE97B
:107A2400F04104000D00160000275FF00108280053
:107A340080B2002842D001F015FD002801D10020B9
:107A440080464046C0B2002808D0A02001F09FFD27
:107A540001F07CFD002801D1002080464046C0B2E0
:107A6400002808D0200080B2000AC0B201F08FFDC7
:107A740001F06CFD80464046C0B2002806D02000CC
:107A8400C0B201F084FD01F061FD804600200700D2
:107A94003800290080B289B288420DD24046C0B273
:107AA400002807D0380080B2305C01F070FD01F08E
:107AB4004DFD80467F1CEBE701F000FD052001F041
:107AC400C8FC4046C0B2BDE8F0812DE9F04704008F
:107AD4000D00160000275FF000085FF0000A200088
:107AE40010F03F0F1BD014F03F00D0F1200007002E
:107AF4002800390080B289B2884200D22F00404663
:107B040080B206EB0002390089B218EB040080B29F
:107B1400FFF785FF8146ED1B17EB080801E05FF0D6
:107B240001094846C0B200281FD0280080B20028AE
:107B34001BD0202007002800390080B289B2884277
:107B440000D22F00404680B206EB0002390089B211
:107B540018EB040080B2FFF762FF8146ED1B17EBC0
:107B640008084846C0B20028DFD14846C0B2BDE884
:107B7400F087000070B403000022002400264FF6B2
:107B8400FF7000258D4214D25A5D50400022160029
:107B9400082E0CD2C20706D580B2020048F2084073
:107BA40090EA520001E080B24008761CF0E76D1CB8
:107BB400E8E780B2C04380B270BC704730B40021A3
:107BC4000023002410F02D0280B240080025290073
:107BD400C9B2062906DAD10700D55B1C92B2520855
:107BE4006D1CF4E7D90701D550F4004080B230BCD5
:107BF400704730B4002513E050F8042BD30744BF7A
:107C0400A9F101039A18091F042942F8045BFAD266
:107C140013468C0744BF15809B1CC90748BF1D70C1
:107C240050F8041B0029E7D130BC70472DE9FE430E
:107C340000250026082100226C462000FCF776FA75
:107C44000027644C2200082147F6F870FFF776FEFF
:107C540005002800C0B2002814D05FF000085FF0CF
:107C6400000906212000FFF785FFE18802000B00D0
:107C740092B29BB29A4202D00022150001E0012286
:107C8400150007E0322001F0E4FB7F1C3800C0B28D
:107C94000328D6DB5FF000086A4608214FF4FC4055
:107CA400FFF74CFE06003000C0B2002814D00027B5
:107CB4005FF0000906216846FFF75CFFBDF8061077
:107CC40002000B0092B29BB29A4202D0002216002C
:107CD40001E00122160008E0322001F0BAFB18F19D
:107CE40001084046C0B20328D6DB55EA0600C0B2FC
:107CF400002809D14AF6AA2020800220608000F0E2
:107D040019F800F044F813E03000C0B2002802D1A2
:107D140000F03DF80CE02800C0B2002808D1082784
:107D2400E9463A004946200000F01EFB00F002F844
:107D3400BDE8F78370B500240025264E0020F080AE
:107D440006213000FFF716FFF0803200082147F6C5
:107D5400F870FFF7BAFE04002000C0B2002806D075
:107D6400320008214FF4FC40FFF7AFFE040020006E
:107D7400C0B2002808D1322001F06BFB6D1C280032
:107D8400C0B20328E1DBFFE72000C0B270BD70B5CC
:107D9400002400250F4E0020F08006213000FFF75C
:107DA400E9FEF080320008214FF4FC40FFF78DFE1D
:107DB40004002000C0B2002808D1322001F049FBA1
:107DC4006D1C2800C0B20328ECDBFFE72000C0B222
:107DD40070BD0000E45000200022FCF7ABB9B1F5FF
:107DE400807F02D34FF0FF3070470170012070474D
:107DF4000078401E8041C043C00F70470CB430B5BA
:107E040083B00A4606A90291044600250194009510
:107E140002AB01A9084878441E3001F009FC019A1C
:107E2400157000284EBF04460198041B204603B079
:107E340030BC5DF80CFB00BFD70500002DE9FE4FF8
:107E44005020029000200190DFF80045019A029929
:107E54002000FCF76BF9502000900024DFF8F05468
:107E64002E00220000993000FCF760F94FF484766C
:107E74000027DFF8E084C1463A0031004846FCF7A9
:107E840055F95FF002095FF0000ADFF8CCB45246FE
:107E940049465846FCF74AF95FF4E13002F02CFCFD
:107EA400012002F07FFC4FF4907118F1010002F000
:107EB400B3FC4FF4907115F1080002F0F0FC5FF48C
:107EC4000030DFF8981408604FF49070DFF89014D5
:107ED4000860DFF89004016851F001010160BDE819
:107EE400F78FF0B40400002000255A260700FFB2E3
:107EF400DE55401CA5260700FFB2DE55401CFF26B8
:107F04000700FFB2DE55401C82260700FFB2DE5593
:107F1400401C2600B6B2360A0700FFB2DE55401CEC
:107F24000600F6B29C55401C00263500EDB2170041
:107F3400ADB2BFB2BD4208D23500EDB24D5D07000F
:107F4400FFB2DD55401C761CEFE7C51E9D70C0B224
:107F5400F0BC7047F0B40400002000255A26070046
:107F6400FFB2DE55401CA5260700FFB2DE55401CBB
:107F7400FF260700FFB2DE55401C82260700FFB231
:107F8400DE55401C2600B6B2360A0700FFB2DE55A5
:107F9400401C0600F6B29C55401C00263500EDB28C
:107FA4001700ADB2BFB2BD420DD200250700FFB22B
:107FB400DD55401C3500EDB24D5D0700FFB2DD55C7
:107FC400401C761CEAE7C51E9D70C0B2F0BC704729
:107FD40070B50400DFF87C536E1C3100200080B2C1
:107FE40000F032F985F8010195F8011189B23000E9
:107FF40002F0F8FB70BDF8B504000D00D54E771CF7
:108004003A00290089B2200080B200F058F986F8BD
:10801400010196F8011189B2380002F0E3FBF1BDC9
:1080240073B50400CB4D6E1C3300022201A9E01C81
:1080340080B2FFF756FF85F8010195F8011189B266
:10804400300002F0CFFB73BD2DE9F14F8AB00D0073
:1080540016001F00149C202100220DF10408404644
:10806400FCF764F85FF0000A5FF00008300002F0EB
:10807400A1FC814628004946C0B2C9B288420CD24C
:10808400A946CA465FFA8AFA00960DF1040B5246D5
:108094000099584600F068F93EE0202000905FF017
:1080A400200A0DF1040B524600995846FCF73EF89D
:1080B4003800C0B2002813D15FEAC97008D529007E
:1080C400C9B24846C0B2091A491C4910884615E08D
:1080D4002900C9B24846C0B2091A491088460DE0C1
:1080E4003800C0B2012801D1A04607E03800C0B270
:1080F400022803D1281BB0EB09008046CA465FFA68
:108104008AFA009601A84146C9B200EB010B524617
:108114000099584600F028F9DFF838A21AF1010B4B
:108124005B462A00D2B292B201A9BDF82800FFF73B
:10813400D8FE8AF801019AF8011189B2584602F072
:1081440051FB0BB0BDE8F08F2DE9F14F8AB00D0063
:1081540016001F00149C202100220DF10408404643
:10816400FBF7E4FF5FF0000A5FF00008300002F064
:1081740021FC814628004946C0B2C9B288420CD2CB
:10818400A946CA465FFA8AFA00960DF1040B5246D4
:108194000099584600F0E8F83EE0202000905FF097
:1081A400200A0DF1040B524600995846FBF7BEFF16
:1081B4003800C0B2002813D15FEAC97008D529007D
:1081C400C9B24846C0B2091A491C4910884615E08C
:1081D4002900C9B24846C0B2091A491088460DE0C0
:1081E4003800C0B2012801D1A04607E03800C0B26F
:1081F400022803D1281BB0EB09008046CA465FFA67
:108204008AFA009601A84146C9B200EB010B524616
:108214000099584600F0A8F8DFF838A11AF1010BCC
:108224005B462A00D2B292B201A9BDF82800FFF73A
:1082340091FE8AF801019AF8011189B2584602F0B8
:10824400D1FA0BB0BDE8F08F10B4020000205A231D
:108254000400E4B20B55401CA5230400E4B20B5502
:10826400401CFF230400E4B20B55401C822304008D
:10827400E4B20B55401C00230400E4B20B55401C2F
:1082840084230400E4B20B55401C5A230400E4B2D6
:108294000B55401C01230400E4B20B55401C130091
:1082A4009BB21B0A0400E4B20B55401C0300DBB272
:1082B400CA54401CC31E8B70C0B210BC704730B48B
:1082C400030000205A240500EDB25455401CA52497
:1082D4000500EDB25455401CFF240500EDB2545581
:1082E400401C82240500EDB25455401C0C00A4B27D
:1082F400240A0500EDB25455401C0400E4B21155A3
:10830400401C1C00A4B2240A0500EDB25455401CC4
:108314000400E4B21355401CC41E9470C0B230BCB7
:108324007047F8B504000D000A4E771C3A00290086
:1083340089B2200080B2FFF7C2FF86F8010196F8E7
:10834400011189B2380002F04DFAF1BD0C4F002042
:10835400BC4E0020BC4C00202851002004000240E8
:108364005C0002405800024062B38B0708D0521EE2
:1083740011F8013B00F8013B00F024808B07F6D193
:10838400830740F0208000BF103A07D330B4B1E82F
:108394003810103AA0E83810F9D230BC530724BF83
:1083A400B1E80810A0E8081044BF51F8043B40F8B5
:1083B400043BD20724BF31F8022B20F8022B44BF20
:1083C4000B7803707047121F17D35B0009D151F863
:1083D400043B20F8023B1B0C121F20F8023BF6D290
:1083E4000BE051F8043B00F8013B1B0A20F8023B68
:1083F4001B0C121F00F8013BF3D238BF121D521E92
:1084040024BF11F8013B00F8013BF8D8704702681B
:10841400531C0360117070470300002013F0030F16
:1084240009D0521E22BF13F8010B11F801CBB0EB97
:108434000C00F3D0704711F0030F14D1121F22BFA8
:1084440053F8040B51F804CB6045F7D0121D0AD23F
:1084540000BA9CFA8CFCB0EB0C0038BF6FF0000043
:1084640088BF01207047521E22BF13F8010B11F878
:1084740001CBB0EB0C00F6D0521C08BF104670477D
:1084840080B5012002F0B2FA02F0B8FA012002F03D
:108494005BFB612002F01EFC0028FAD04FF4007050
:1084A40002F057FB012002F059FB02F0ABFC02F092
:1084B400A4FC0021012002F05FFC02F09EFC49F6BE
:1084C4003F4002F08BFC02F098FC01BD10B50400A3
:1084D40002F093FC02F096FC02F08FFC2100C9B27A
:1084E400012002F049FC02F088FC10BD10B5040024
:1084F400012002F07BFA02F080FC200002F061FC13
:1085040002F07BFC10BD2E00014648B1B0FA80F1A8
:108514008840C91CC1F58461090501EBD0214005DF
:10852400704743002DE9F04D16461F46044626F0D9
:10853400000A37F0004008BFBAF1000F8AB00D46B8
:1085440000F056830020DFF8B41622462B4602F0D2
:1085540087FC00F04D83DFF8A81602F081FC06D1F9
:1085640078004015401C02D1390300F041836800B3
:108574004015401C00F0588224F0000035F0004102
:1085840008BF002800F0508278004015401C00F01D
:108594004B82BB464FEA4B0151EADA714FEA4A007B
:1085A40008BF00281CD040F23342A2EB51503528BA
:1085B40004DB0AF0000A0BF0004B11E0202805DD73
:1085C40020382BFA00F101FA00FB00E002D14FF051
:1085D400000A05E00028C4BF2AFA00F101FA00FAF3
:1085E400E80F22D0390007D500224FF00043921B38
:1085F400BB41CDE9002301E0CDE9006759460029DC
:10860400504605D500224FF00043101A63EB0101D8
:10861400DDE900238B4208BF824206D0AFF300801D
:108624004FF0FF306FF00041E4E225F00041B1F576
:10863400801F24F000000CD20022002908BF00286B
:10864400029211D002AA294602F01AFC04460D46F1
:108654000AE0DFF8B02502EB1150DFF8AC15029008
:108664000D40DFF8A8150D43E80F08BF00223DD0E8
:10867400594650464B0043EAD0734200002B08BFD2
:10868400002A25F0004517D040F2344CACEB53528D
:10869400352A04DB00F0000001F000410CE0202A40
:1086A40003DD203AD140914000E001D1002003E0F5
:1086B400002AC4BFD0409040BBF1000F06D5002271
:1086C4004FF00043B2EB0A0A63EB0B0B002905D50C
:1086D40000224FF00043101A63EB01018B4508BFE1
:1086E400824502D10021059101E001220592029800
:1086F400012833D120462946DFF81425DFF8143544
:1087040002F0F6FB2AD248004FF00008400DC246A2
:10871400DFF8E8B400F1010212D0002A10DD40F2C3
:10872400FF70824207DBDFF8F01405F000430024F9
:1087340043EA010533E06FF31E5141EA02552EE08E
:1087440024F0000035F0004108BF002827D00122A2
:10875400294602F0E5FB04460D4620E00020DFF840
:10876400BC1422462B4600F0ADFBDFF8A0B4002277
:108774005B4602F073FC02F02FFDA0F12008404696
:1087840002F048FD0022DFF8983400F09BFB002241
:108794005B4602F063FC82468B464FEA481820464B
:1087A400294652465B4602F047FDCDE90001524698
:1087B4005B462046294602F051FC02460B46DDE9A1
:1087C400000100F05BFACDE90601DDE9062300F0C3
:1087D40079FBCDE900015246204629465B4602F06A
:1087E4002BFDDDE9002304460D46DFF83804DFF8ED
:1087F400381400F067FBDFF83424DFF8343402F077
:108804002DFCDDE9002300F05DFBDFF82824DFF810
:10881400283402F023FCDDE9002300F053FBDFF8E9
:108824001C24DFF81C3402F019FCDDE9002300F0FD
:1088340049FBDFF81024DFF8103402F00FFCDDE907
:10884400002300F03FFBDFF80424DFF8043402F0D7
:1088540005FCDDE9002300F035FBDFF8F823DFF841
:10886400F83302F0FBFBCDE9080152460020DFF8A3
:108874008C135B4602F0E0FC0B465A00520D02F1E9
:10888400010C15D0BCF1000F12DD40F2FF729445CB
:1088940008DBDFF8842301F000404FF0000A40EACF
:1088A400020B10E06FF31E5343EA0C5B82460AE0AE
:1088B40020F0000231F000430EBF002A012202F032
:1088C4002FFB82468B46DDE90023DDE9080100F039
:1088D400F9FA22462B4602F0AFFC52465B4602F000
:1088E400BDFBDDE9062300F0EDFADFF800E3FE440A
:1088F4000EF2FA2EC644CDF804E022462B4602F0CE
:10890400ADFB044602980D4602F084FCDDF804E059
:10891400DEE9002302F0A2FBCDE906012246DFF8DE
:108924003C03DFF83C132B4600F0CCFADDE90623C8
:1089340002F094FB32463B4600F0C4FA0022DFF812
:10894400243302F0D5FA66D30122DFF81C3302F097
:10895400E5FC5DD9CA0F1ABF0022C44BAB4B02F031
:108964007DFB02F039FC0022A44BDFF804A3DFF8FE
:1089740004B3CDE903238046CDF8008032463B465C
:108984002046294600F09EFA044601988446D0E920
:1089940002230D46DCE9040102F060FB32463B464B
:1089A40000F090FA52465B4600F08CFA22462B46C1
:1089B40002F054FBCDE90101DDE9064530463946B4
:1089C40022462B4600F07EFA04460D46404602F04D
:1089D40021FC02460B462046294602F02DFC524655
:1089E4005B4600F06FFADDE9012302F037FBDDE9B5
:1089F400032302F0ABFC20F0000631F0004708BF6F
:108A0400002E08D04A005215521C06D10B0304D183
:108A14000020814901E000200021059A002A00F08D
:108A2400E98081F00041E5E068004015401C04D174
:108A3400290302D020462946DCE078004015401C7A
:108A440004D1390302D030463946D3E079000120FD
:108A54004915491C7CD03B46590051EADA7B4FEA60
:108A64004A0104BF0029CDE90067324619D040F21B
:108A74003341A1EB5B51352904DB02F0000203F022
:108A840000430CE0202903DD2039CB408B4000E07B
:108A940001D1002203E00029C4BFCA408A40CDE9C5
:108AA40000233B0008D500214FF0004B8A1B6BEBE1
:108AB4000303CDE9022301E0CDE90263DDE90023EC
:108AC400002B05D500214FF000468A1A66EB0303FC
:108AD400DDE902AB9B450CBF92450020DDE9002394
:108AE400590041EAD2765100002E08BF002917D060
:108AF40040F23441A1EB5651352904DB02F0000267
:108B040003F000430CE0202903DD2039CB408B40E7
:108B140000E001D1002203E00029C4BFCA408A401A
:108B2400B0B1DDE90001002905D500264FF0004B66
:108B3400301A6BEB0101002B05D500264FF0004BDA
:108B4400B21A6BEB0303994206BF90420020012046
:108B540069004915491C07D12A0305D1EC0F1BD123
:108B6400FE0F3FD0002045E079004915491C1BD178
:108B74003A0319D125F00041B1F5801F24F000001B
:108B84001DD20022002908BF002800921BD06A468B
:108B9400294602F075F916E0FE0F02D1002822D012
:108BA4001DE0002826D006E0002814BFEC0F0024A6
:108BB400FE0F13D17CB100204FF000411AE0114A9E
:108BC40002EB11500090FE0F009802D1002809DC3E
:108BD40001E0002806DD002000210BE014B1002094
:108BE400254907E000200C4904E000BF3054000090
:108BF400002002490AB0BDE8F08D00000000F03FFB
:108C04000000F0BF02FCFFFFFFFF0F800000E03F09
:108C1400CD3B7F669EA0E63F0000F07F0000504001
:108C24000000903FF7DE29BFD8F8C23FF4B3FECC72
:108C34001A99C33F62CB68D96F46C73FC6C912DAD7
:108C4400C471CC3F4AE98A942449D23FF75F97998B
:108C54009999D93FBC5555555555E53FFE822B652D
:108C64004715F73F0000E0C00000E0400000E0BF0F
:108C7400EF39FAFE422EE63F0000F0FFF0B540F275
:108C8400FF7581EA030C0CF0004C15EA11541DBF6A
:108C940015EA1357AC42AF42E5E0BC41C1F31301FE
:108CA400C3F31303801A994143F4801304D2641E5E
:108CB4004000494180185941C90241EA5051B1FB71
:108CC400F3F603FB1611A2FB0675D7EBC020A941EE
:108CD40002D2761E80185941C90241EA5051B1FBB3
:108CE400F3FE03FB1E11A2FB0E75D7EBC020A941B6
:108CF40003D2AEF1010E80185941890241EA905124
:108D0400760546EA8E2EB1FBF3F603FB1611A2FBA1
:108D14000675D7EB8020A94102D2761E80185941EE
:108D2400C90241EA50514EEA060EB1FBF3F603FBC9
:108D34001611A2FB0675D7EBC020A94102D2761EFC
:108D440080185941C90241EA5051B1FBF3F703FBC2
:108D54001711A2FB0735D3EBC020A94167F1000727
:108D64000CBF004247F0010766F3D5274FEA1E31D6
:108D7400B80814F5806412DDBD0775F1004250EBAC
:108D84000E5051EB045111F5801F5CBF41EA0C01F8
:108D9400F0BD4CF07F6141F0E0410020F0BDBD0723
:108DA4006D0840EA0E5041F48011D4F10104B4F18D
:108DB40020060ADAC4F120060200E04001FA06F3B4
:108DC400E1401843B24015430EE0342C13DCC6F1E5
:108DD400200445EA40056D0820FA06F2154321FAFD
:108DE40006F0A1400D43002175F1004250F100004E
:108DF40051EB0C01F0BD00205FEA0C01F0BDCFB9CE
:108E040092185B41B3FA83F704BFB2FA82F6BF1932
:108E14000B3FB7F120062FBF02FA06F3BB40C7F1A0
:108E2400200622FA06F638BF3343BA401CB1E419CF
:108E3400641E33E77F4231F00041B1FA81F404BF8C
:108E4400B0FA80F6A4190B3CB4F120062FBF00FA47
:108E540006F1A140C4F1200620FA06F638BF3143DA
:108E6400A0403C1B1AE7AC421ABF05EA1357AF42B5
:108E740012E050EA41061CBF52EA4306BFE750EA3B
:108E84004107304661461CBF41EA0551F0BD52EA34
:108E9400430C08BFC143F0BD00204FF4001616EB8D
:108EA400410F98BF16EB430F08BF16EB410F24BFC9
:108EB400C14305E016EB430F0CBF61464CEA055174
:108EC400F0BD0000B0B581EA030C0CF0004C40F298
:108ED400FF7515EA11541DBF15EA1357AC42AF4292
:108EE40039E0E41923EA455343F48013C90241F0FD
:108EF400004141EA505EC7021100A7FB02020028AC
:108F04004FF00000EEFB01204FF00001E3FB0721CE
:108F140018BF42F00102401800214941E3FB0E0151
:108F2400A4F580640F0302D252004041494154F138
:108F340001046CDD470872F1004250F1000051EB6E
:108F44000451A1F580115CBF41EA0C01B0BD4CEAAB
:108F540005510020B0BD05EA1357AC4214BFAF421F
:108F640041E050EA410E1CBF52EA430E02E0614662
:108F74000020B0BD24423C441BD15FEA070EF6D06A
:108F8400090302BF01460020AEF1140EB1FA81F7C5
:108F9400AEEB070401FA07FE0C37C7F1200100FA13
:108FA40007F7C8404EEA000E23EA455343F4801302
:108FB400A2E733F00043B3FA83F704BFB2FA82FEA8
:108FC40077440B3FE41BB7F1200E2FBF02FA0EF3D8
:108FD400BB40C7F1200E22FA0EFE38BF43EA0E034F
:108FE400BA40641C82E750EA410E14BF52EA430EB1
:108FF4006FF000014FF4001717EB430F8ABF1946B7
:1090040017EB410FB5E74CEA05510020B0BDD4F190
:109014000104B4F120070FDAC4F12007520828BF75
:1090240042F0010210FA07F501FA07F7E1BF2A43FB
:10903400E0403843E1400FE0352C98DCC7F12004D0
:1090440052EA400220FA07F218BF42F0010231FA54
:1090540007F0A1400A43002172F1004250F10000E0
:1090640051EB0C01B0BD0000400D491840EA8120CD
:109074000CD2490DA1F58061491C40F0004005DB8C
:10908400D1F11F0154BFC840C0177047002070477A
:10909400F8B55FF4E13002F013FB012002F074FB39
:1090A400DFF8E842E16A14F1300002F084FBA16DBC
:1090B40014F1660002F0C7FB5FF40010DFF8D01271
:1090C40008604FF49070DFF8CC120860DFF8C80233
:1090D400016851F0010101603825002614F154079C
:1090E400320029003800FBF721F80020A06001209D
:1090F400E060032084F82000012060840220A08422
:10910400F1BD2DE9F84304000D0016001F005FF0C7
:1091140000095FF00008FF204946C9B2785419F1EC
:1091240001094846C0B23C5419F10109280080B233
:10913400000A4946C9B2785419F101094846C0B237
:109144003D5419F10109300080B2000A4946C9B200
:10915400785419F101094846C0B23E5419F1010985
:109164004946C9B2380000F089F801004846C0B247
:10917400395419F10109080080B2000A4A46D2B2F2
:10918400B85419F101094846C0B2BDE8F2832DE98B
:10919400F84F06000F0090469946DDF828A00B9C76
:1091A4000C9D5FF0000B0020ADF80000FF20594635
:1091B400C9B20AF801001BF1010B5846C0B20AF803
:1091C40000601BF1010B404680B2000A5946C9B247
:1091D4000AF801001BF1010B5846C0B20AF80080DE
:1091E4001BF1010B484680B2000A5946C9B20AF87D
:1091F40001001BF1010B5846C0B20AF800901BF1A4
:10920400010B5846C0B20AF800701BF1010B200094
:1092140080B2000A5946C9B20AF801001BF1010BD9
:109224005846C0B20AF800401BF1010B280080B276
:10923400000A5946C9B20AF801001BF1010B58464D
:10924400C0B20AF800501BF1010B5946C9B250468E
:1092540000F014F801005846C0B20AF800101BF1DF
:10926400010B080080B2000A5A46D2B20AF8020082
:109274001BF1010B5846C0B2BDE8F28F70B4030075
:109284000022002600244FF6FF7000252A000E005D
:10929400F6B292B2B6B2B24218D22A0092B29A5C34
:1092A4005040002214002200D2B2082A0CDAC2076D
:1092B40006D580B202004AF2010090EA520001E0B1
:1092C40080B24008641CEEE76D1CDFE780B270BC1E
:1092D4007047F8B5040000256068092818D30026F3
:1092E40000276068811EC9B214F11200FFF7C6FF9F
:1092F400616821444A7C120261682144097C0A4362
:109304000100130089B29BB2994201D101210D00E1
:109314002800C0B2F2BD38B504001C4D032085F806
:109324002000012068840220A88414F11003A2887C
:1093340061882078FFF7E5FEE862E96A89B215F1F1
:10934400300002F002FB31BD3EB504001020207055
:10935400012060800220A0800020E0800120208184
:109364000A4D20890290E088019014F110000090C9
:10937400A388628804212078FFF709FFE862E96A7C
:1093840089B215F1300002F0E0FA37BDC44D002077
:1093940004000240700002406C00024010B400223D
:1093A400CB0003D50B031B0B5B4200E00B000269EF
:1093B400521C02618468027C12F0030200EB8202F8
:1093C4005269A41A84600269002A01D1042202614C
:1093D400027C12F0030200EB8202536182689A1845
:1093E40082600269042A03D382689210C26004E096
:1093F40082680469B2FBF4F2C26010BC70470028B2
:1094040048BF4042704700001CB5042100226C464E
:109414002000FAF78BFE03208DF8020014208DF84B
:10942400030081488188ADF800106946006802F0A5
:10943400B7FA7E488188ADF800106946006802F0EA
:10944400AFFA13BD002064210800411E0028FBD19F
:1094540070474FF420514843401C0100481E002926
:10946400FBD1704710B5704CA088216808616F4823
:10947400818800680161FFF7E5FF206880680028A3
:1094840001D1012000E00020217911F001010842FE
:1094940001D0002011E0A08821684861FFF7D2FFC5
:1094A40020688068A188084201D0002005E0A088D7
:1094B40021684861FFF7C6FF012010BD38B55B4C39
:1094C400A08821684861FFF7BDFF574DA888296827
:1094D4004861FFF7B7FFA08821680861FFF7B2FF72
:1094E400A88829680861FFF7ADFF31BD10B54F4C5E
:1094F400A08821684861FFF7A5FF4B488188006870
:109504004161FFF79FFFA08821680861FFF79AFF78
:10951400A08821684861FFF795FF10BD10B5434C42
:10952400A08821684861FFF78DFF3F488188006863
:109534000161FFF787FFA08821680861FFF782FFB8
:10954400A08821684861FFF77DFF10BD38B5374C0E
:10955400A08821684861FFF775FF334DA888296802
:109564000861FFF76FFFA08821680861FFF76AFFB1
:1095740028688068A988084204D0A08821684861C6
:10958400002003E0A08821684861012032BD70B545
:10959400040008252800451EC0B2002817D0234E19
:1095A400B08831684861200604D51F488188006866
:1095B400016103E01C48818800684161FFF742FFB4
:1095C400B08831680861FFF73DFF6400E2E717489F
:1095D40081880068416170BDF8B508240025124EE9
:1095E400B088316808612000441EC0B2002813D03E
:1095F4006D000E4FB88839684861FFF723FFB888BB
:1096040039680861FFF71EFF30688068B188084236
:10961400E9D055F00105E6E7044881880068416116
:109624002800C0B2F2BD00004CEB000854EB000867
:109634002DE9F14FB2B09946924600230691CDE947
:1096440000333C9A0F930DF14A0114914A7011E0D2
:10965400329E57462C4617F8011B0698B04700283F
:10966400069000F026810F98401C641E0F90F2D1E2
:109674003296AA449AF80000252808D10021002235
:1096840009910A920B910C920D910E920FE06A4689
:109694004FF0FF31504602F077FA050002D10F98DF
:1096A40000F066BED4D50125E3E741F001011AF8C4
:1096B400010F2028F9D023280CD02B2804D02D28E2
:1096C40005D0302809D00BE041F00201EFE741F06A
:1096D4000401ECE741F00801E9E741F01001E6E795
:1096E4002A280FD1D9F8002052F8040BC9F8002019
:1096F4000028119003D54042119041F004010AF171
:10970400010A14E01192DFF8EC3B0AE01198984248
:1097140005DA00EB800402EB4402303A11920AF1BC
:10972400010A9AF80020A2F130000A28EED39AF830
:1097340000002E2803D04FF0FF32109229E01AF8CF
:10974400010F2A2809D1D9F8000050F8042BC9F8D0
:10975400000010920AF1010A1BE02D280CBF0AF147
:10976400010A002000221092DFF8882B0BE040B998
:10977400109B934205DA03EB830504EB4504303C6C
:1097840010940AF1010A9AF80040A4F130030A2B5C
:10979400EDD3ADF848100FF660309AF8001002F0DF
:1097A400FDF908B11AF8010B8DF84A009DF84A003A
:1097B400682805D19AF8000068280CD1622106E0D7
:1097C4006C2804BF9AF800006C2804D171218DF82C
:1097D4004A100AF1010A1FA808901AF801BBBBF14C
:1097E40025012DD01C3900F06181091F022940F2A6
:1097F4005D810E392AD0491F00F0B384093900F085
:109804005581891E00F04985491E00F0F584491EE2
:10981400022940F24B81091F00F0EE84491F00F039
:10982400BA80491E00F09D84491E65D0C91E21D00E
:10983400891E00F09684C91E00F0938400F04CBD8C
:1098440025238DF87C30012109912AE06C208DF8C4
:109854004A00D9F8000050F8042BC9F80000002A87
:1098640043D11499487800283DD04FF0FF340FF6C7
:10987400902012E09DF84A006C28EAD0D9F8000044
:1098840050F8044BC9F800000794D4B914994878E7
:1098940098B14FF0FF340FF6842002F08BF9201AB0
:1098A40007D132981FAA04A900F065FD00287FF5AE
:1098B400E1AE4FF0FF3000F05BBD0FF67C20079067
:1098C400EFE7109D002D04D5204601F073F80446FF
:1098D40007E02A46204602F08DF9002814BF041B35
:1098E4002C460A94DDE70FF65422329804A900F0BE
:1098F400C8FD0028D5D5DCE7D9F8001051F8040BD1
:10990400C9F8001020F00004002121F0FF351FAB3E
:10991400CDE904450793DDE9042308993C2413B9F0
:109924000AB9109898B102F00F053035641EEEB2F2
:109934003A2EA8BF2735120942EA03721B090D55B6
:1099440008BF002A03D007980D19A842EBD30819C1
:109954000790C4F13C0210980A92824209DABDF8D9
:109964004810821A4FF6EF7001400C92ADF848107F
:1099740097E7002895D59DF8480000F014001028BA
:109984008FD1119B09990C985B1A1B1A9A1A002AF9
:1099940087DD0C9285E71499487820B14FF0FF34A5
:1099A4000FF69C1079E79DF84A00622862D0682877
:1099B40019D06A2840D06C2806D071284DD074285C
:1099C4002DD07A281ED064E0D9F8001051F8040B89
:1099D400C9F8001020B94FF0FF340FF67C105CE793
:1099E4000F9901605DE7D9F8001051F8040BC9F82C
:1099F400001020B94FF0FF340FF65C104DE70F99BB
:109A040001804EE7D9F8001051F8040BC9F8001092
:109A14000028E5D14FF0FF340FF63C103DE7D9F8AC
:109A2400001051F8040BC9F800100028D8D14FF0E9
:109A3400FF340FF6241030E7D9F8001051F8040B66
:109A4400C9F8001020B94FF0FF340FF60C1024E7CA
:109A54000F9AD317C0E9002323E7D9F8001051F86F
:109A6400040BC9F800100028F2D14FF0FF340FF6B0
:109A7400E80012E7D9F8001051F8040BC9F80010F7
:109A840020B94FF0FF340FF6D00006E70F990170AC
:109A940007E7D9F8001051F8040BC9F800100028A2
:109AA4009ED14FF0FF340FF6B000F6E6D9F800204F
:109AB400D21D22F00702C9F80020D2E900010832C1
:109AC400C9F80020CDE90401C80F02D009982D215E
:109AD4000AE0BDF84800810702D509982B2103E06C
:109AE400C00705D5099820211FAA1154401C0990CC
:109AF400DDE9042309991FA8CDE92E2308444BF07E
:109B040020016129079015AC0BD01099002902D5CA
:109B14000621109105E001BF4BF0200167290122C5
:109B24001092DDE9042359004915491C10D11A0388
:109B34000ED0ABF1610503211A2D0A9102D20FF662
:109B4400A43101E00FF6A0310322FEF70DFCA8E6D4
:109B540059004915491C0AD11A0308D1ABF1610512
:109B640003211A2D0A9116D30FF68431ECE7DDE9AF
:109B74000401CDE93001DDE9302323F00047B7F5D6
:109B8400801F22F000060DD20022002F08BF002EF5
:109B9400029203D116E00FF65431D5E702AA01F080
:109BA4006FF90FE0DFF8EC0ADFF8EC1A00EB17505E
:109BB4000290DDE930234FF0FF301940DFF8DC7A02
:109BC40010403943CDE904014BF0200061280DD148
:109BD400079830210170821CBBF1610F07920CBF02
:109BE4007821582141700998801C0990DDE904010D
:109BF40020F0000231F0004308BF002A02D1002601
:109C0400002571E14BF02008B8F1610F40F0BE80EF
:109C14001098002847BF21210391401C0390039F03
:109C2400DDE92E017F1C00220023DDE9044501F05B
:109C34005FF902998DF8542038BF85F00045091F5B
:109C4400002F02910DF155065DDDDFF8541ACDE9C0
:109C5400302140F2FF732E93204629460022002330
:109C640001F05CFB4FD24800400D00F11C0215D0FE
:109C7400002A13DD2E9B9A420ADBDDE9300121F034
:109C8400004205F000400243DDE93001114611E0D5
:109C94006FF31E5141EA025120460BE024F000000C
:109CA40035F0004108BF00280FBF29461C22294671
:109CB40001F036F904460D4601F08EFAFF1F002F1D
:109CC400804609DD01F0A6FA02460B4620462946E5
:109CD40001F0B2FA04460D46F01D0721B8F1000F59
:109CE4000CDD491E5EBF08F00F0200F8012D4FEA9B
:109CF4002818F3D502E0002200F8012D491EFAD5F8
:109D0400C61D002FA8DC0DF15500361A03988642B3
:109D1400D8BF304600280DF1550430D4B04206DADD
:109D24000DF155010A5C082AA8BF0F2100DA0021B1
:109D3400024615AB134400E0401E13F80159521EAD
:109D44008D42F9D00F2904D10DF155018B5C5B1CB8
:109D54008B54002A04D50299091D15AC401C0291AC
:109D6400411E0CD46218ABF13A0613783033DDB2DD
:109D74003A2DA8BFF318491E02F80139F5D51099F8
:109D8400002940F1AF80421E1092ABE00299DFF847
:109D9400142947F29750414391FBF2F2DDE92E4535
:109DA400029225F00045D2F1070204DD204629463F
:109DB40000F04CFC0BE052420020DFF8EC1800F0FD
:109DC40045FC02460B4620462946FEF757FF04464B
:109DD400B8F1660F109806BF029F0A3706273F188E
:109DE400142FC8BF142730208DF854000D460020CE
:109DF400DFF8B818CDE92E010DF15506002F33DD3B
:109E040020462946FFF730F901460A4606F10803C1
:109E140004200A26B2FBF6F606EB860EA2EB4E02EF
:109E2400303203F8012C0A22B6FBF2F202EB820E66
:109E3400A6EB4E063036401E03F8026DE9D1083F0A
:109E4400002F03F10806D9DD0846FEF75DFB024644
:109E54000B462046294601F0EFF9DDE92E23FFF7F2
:109E640031F804460D46CBE70DF15500361A0DF1D5
:109E7400550404E00298401E761E0290641C20786B
:109E84003028F7D0B8F1660F02D10299491C04E0DA
:109E9400B8F1650F0CBF0121002110980818864203
:109EA400B8BF701E00281DD4B04204DA215C3429E6
:109EB400C8BF392100DC30210246631E9D1800E032
:109EC400401E15F80169521E8E42F9D0392902D17B
:109ED400A15C491CA154002A04D50299491C1C46C2
:109EE400401C02910646029D01F052FE406A07782A
:109EF400DDF8408030B2002802DC01260FF2F47451
:109F04004BF02000662808BF6D1C16D0672846D188
:109F140028B210F1040F48DB404546DA9DF84800AA
:109F24006D1C010703D430B24045B8BF804628B247
:109F3400B8EB000848BF4FF000080FFA85FB0798FC
:109F44000A99BBF1000F00F3B2804A1C0A92302335
:109F54004354B8F1000F03DC9DF84800010704D511
:109F64000A98411C0A9107990F5418EB0B0FB8BFBC
:109F7400C8F100052DB268420D90A84432B2904554
:109F8400B8BF4646079B0A9836B20B96324621461E
:109F94001844FEF7E9F9A8EB06000E90CBE0BBF1FC
:109FA400610F17D14FF0700B19E030B2404504DA5D
:109FB4009DF848100A0758BF8046B8F1010848BF09
:109FC4004FF00008BBF1670F14BF4FF0450B4FF083
:109FD400650B04E0BBF1410F08BF4FF0500B0A982A
:109FE400411C0A91B8F1000F079914F8012B0A5487
:109FF40003DC9DF8480001071AD50A98411C0A9110
:10A00400B8F1000F07990F5412DD761E30B2804567
:10A0140007980A9BB8BF464632B221461844FEF759
:10A02400A3F90A9936B271180A91A8EB06000D90AB
:10A0340007980A9908442AB2002A80F800B003D489
:10A044002B224270811C04E02D2141701546811C95
:10A054006D4200202EAA0A2409E02B4693FBF4F556
:10A0640005EB8506A3EB460302F8013B401C2DB229
:10A07400002DF2DC012806DC4BF02002652A04BF27
:10A08400302201F8012B00282EAA08D1302001F833
:10A09400010B06E0401E135C303301F8013B00283D
:10A0A400F8DC079A0A981044091A0B9143E0084413
:10A0B40031B22AB2914219DA32B22146FEF754F98A
:10A0C4000A9936B27118ABEB0606B8F1000F0A9183
:10A0D4000D9603DC9DF84800020704D50798475401
:10A0E4000B99491C0B91CDF8388024E02146FEF7EA
:10A0F4003BF90A98761B5844B8F1000F0A9003DC28
:10A104009DF848100A0703D5411C0A9107990F547A
:10A1140030B2804507980A9BB8BF464632B204EB7A
:10A124000B011844FEF720F90A9836B230180A9049
:10A13400A8EB06000D909DF8480000F014001028CC
:10A144007FF4AFAB099A0A990D988A180B99821873
:10A154000E988A18821811988242BFF6A2AB821A0E
:10A1640017E49DF84A00622808D068280ED06A28AF
:10A1740014D06C281FD0712810D01CE0D9F800101E
:10A1840051F8040BC9F80010C0B21AE0D9F8001055
:10A1940051F8040BC9F8001080B212E0D9F800207D
:10A1A400D21D22F00702C9F80020D2E900010832CA
:10A1B400C9F8002006E0D9F8001051F8040BC9F8DA
:10A1C40000100021CDE904019DF8480001075AD58B
:10A1D400DDE90423002B08BF002A54D04BF02000F3
:10A1E400782850D109981FA930220A54401C431CD6
:10A1F400099301F800B046E09DF84A00622808D0AF
:10A2040068280ED06A2814D06C281FD0712810D06A
:10A214001CE0D9F8001051F8040BC9F8001040B242
:10A224001AE0D9F8001051F8040BC9F8001000B274
:10A2340012E0D9F80020D21D22F00702C9F800204C
:10A24400D2E900010832C9F8002006E0D9F800106C
:10A2540051F8040BC9F80010C117CDE90401002915
:10A2640002D509982D210AE0BDF84800810702D5DE
:10A2740009982B2103E0C00705D5099820211FAABE
:10A284001154401C09901FA809990144079104A87E
:10A29400594600F056F9FFF704BB9DF84A006C28B4
:10A2A4000BD001210991D9F8000050F8041BC9F81A
:10A2B40000008DF87C10FFF7F4BAD9F8000050F8CC
:10A2C400041BC9F8000015914FF0FF3210920021D1
:10A2D400169115AAFFF709BB25210122BBF1000F36
:10A2E4008DF87C1009923FF4DCAA8DF87DB0022130
:10A2F400FFF7AABACBCCCC0C686A6C747A4C000019
:10A304007072696E74665F733A2062616420256CB2
:10A314007320617267756D656E7400007072696E8A
:10A3240074665F733A2062616420257320617267EA
:10A33400756D656E740000000000000000000000F0
:10A344007072696E74665F733A20256E2064697357
:10A35400616C6C6F776564007072696E74663A2024
:10A3640062616420256E20617267756D656E74008C
:10A3740033B0BDE8F08F2DE9FC410F460646904608
:10A384007A6B7869396ABC6A121AB869521A796A9E
:10A39400121AF869521A121A97F83800141B410756
:10A3A4000FD42020002C8DF800000ADD254601235F
:10A3B4006A463946304600F07DF900285DD16D1EAD
:10A3C400F5D17B6942463946304600F073F90028DE
:10A3D40053D130208DF800003D6A002D09DD0123A2
:10A3E4006A463946304600F065F9002845D16D1EAD
:10A3F400F5D1BB69FA683946304600F05BF90028AC
:10A404003BD130208DF800007D6A002D08DD01234A
:10A414006A463946304600F04DF970BB6D1EF6D1E0
:10A42400F868B969FB6942183946304600F042F9C8
:10A4340018BB30208DF80000BD6A002D08DD012313
:10A444006A463946304600F035F9B0B96D1EF6D18A
:10A4540097F8380041070DD52020002C8DF8000016
:10A4640008DD01236A463946304600F023F920B955
:10A47400641EF6D10020BDE8F6814FF0FF30BDE840
:10A48400F6812DE9F8470D46A3B02F6B002F8246C5
:10A49400904648BF6FF0004701F0D8FB696B401845
:10A4A40001AA0021C2E90011812828BF4FF0FF3022
:10A4B40044D289461EE0A74230DB6869201881280F
:10A4C4000BD30021696303AA29465046FFF753FFC3
:10A4D4005FEA000922D40020686103AB6E6922465A
:10A4E40069469819FDF740FFA6196E6158F8040BE8
:10A4F400A0B13F1B002F11DDD8F8001001AA684657
:10A5040001F044FB0446002C05D4D8F800000028D0
:10A51400D1D1641ECFD54FF0FF390EE0B9F1000F51
:10A52400504604D103AA2946FFF725FF8146B9F115
:10A53400000F02D1002068616863484624B0BDE87A
:10A54400F0872DE9FC4307466F293E6908BF0824BC
:10A5540005D041F02000782814BF0A2410243C259B
:10A56400D7E90023642918BF69299046994605D183
:10A57400002B03D5D8F1000869EB4909B9F1000FA4
:10A5840008BFB8F1000F0CD1386B50B9082C39D181
:10A5940097F83800010735D530203B2586F83B0075
:10A5A40030E08DF80010404649462246E31701F09A
:10A5B40053FB3032D0B26D1E3A28019504DB9DF86E
:10A5C4000000A0F151018A187255404649462246BE
:10A5D400E31701F041FB80465FEA010908BFB8F1C7
:10A5E400000F03D0F86871198842DCD3082C09D114
:10A5F40097F83800010705D5705D302802D06D1E2C
:10A6040030207055C5F13C02BA617119F960386B9C
:10A61400824208DA821A3A624FF6EF70398F0140AB
:10A624003987BDE8F38300280ED597F8380000F089
:10A634001400102808D17B6B7969386A5B1A1B1ADD
:10A644009A1A002AC8BF3A62BDE8F3832DE9D043C1
:10A6540006460F4614464FF00008DFF8549012E007
:10A66400E00707D542464B4630463946FEF72AFCFA
:10A6740006460F464046494642464B46FEF722FCF4
:10A68400641080468946002CEAD130463946BDE83C
:10A69400D083000002FCFFFFFFFF0F800000E03FBB
:10A6A4000000F07FA08601000000F03F84D79741AE
:10A6B40000002440F8B505460E4617461C46002007
:10A6C4005CB117F8011BB068A847B06030B1F06AFC
:10A6D400401CF0620020641EF3D1F2BD4FF0FF3045
:10A6E400F2BD00006E616E004E414E00696E660060
:10A6F400494E46003000000030B585B00400042106
:10A7040000226D462800F9F711FD1021002201AD49
:10A714002800F9F70BFDA04D280001F0B5FB9F4878
:10A724008188ADF8001003218DF8021018218DF8EE
:10A7340003106946006801F033F999488188ADF83F
:10A74400001048218DF803106946006801F028F9CB
:10A7540001940020ADF808000020ADF80A000020A4
:10A76400ADF80C000020ADF810000C20ADF80E0080
:10A7740001A9280001F0D0FB0121280001F042FCCE
:10A78400012240F22441280001F04BFC01228021E7
:10A79400280001F07EFC01224021280001F079FC10
:10A7A40005B030BD38B50400042100226D462800F0
:10A7B400F9F7BCFC25208DF8000003208DF801007A
:10A7C40002208DF802008DF80340684601F0D1FCA8
:10A7D40031BD4FF460514843401C0100481E00291C
:10A7E400FBD1704770B504000D0000260120FFF76F
:10A7F400F0FF002001002A0089B292B291420AD2ED
:10A80400010089B2615C674A1180634909880906BD
:10A81400FBD5401CEEE770BD70B58CB004000D0094
:10A82400614E300001F0FCFC5E480190029410205F
:10A834000390049500200590802006900020079046
:10A8440000200890002009904FF440500A90002006
:10A854000B9001A9300001F05BFD012202213000C0
:10A8640001F074FD4FF4005050490860306840080E
:10A8740040003060484800884006FBD50E208DF823
:10A88400000002208DF8010000208DF80200012054
:10A894008DF80300684601F06CFC0CB070BD70B517
:10A8A4008CB004000D00042100226E463000F9F73C
:10A8B4003DFC2C21002201AE3000F9F737FC3C4E60
:10A8C400300001F0ADFC3748019002940020039061
:10A8D4000495002005908020069000200790002019
:10A8E4000890002009904FF440500A9000200B90EB
