:020000040800F2
:10400000503000209DE3000891DC000893DC00089C
:1040100095DC000897DC000899DC0008000000002F
:104020000000000000000000000000009BDC000811
:104030009DDC0008000000009FDC0008A1DC0008F7
:10404000E1E40008E5E40008E9E4000899DE00087E
:10405000EDE40008F1E40008F5E40008F9E40008E4
:10406000FDE4000801E5000805E5000809E5000891
:104070000DE5000811E50008F5DD0008D1DD0008B8
:1040800059DD00087DDD000815E5000819E5000888
:104090001DE5000821E5000825E5000829E50008E0
:1040A0002DE5000831E5000835E5000839E5000890
:1040B0003DE5000841E5000845E5000849E5000840
:1040C0004DE5000851E5000855E5000859E50008F0
:1040D0005DE5000897DD00081FDD000817DE000819
:1040E00061E5000865E5000869E500086DE5000880
:1040F00071E5000875E5000879E500087DE5000830
:1041000081E5000885E5000889E500088DE50008DF
:10411000E9DC000857DE000891E5000895E5000895
:1041200099E500089DE50008A1E50008A5E500085F
:1041300062F30F2262F31F42401810F0030308D00D
:10414000C91A1FD3DB0748BF00F8012D28BF20F88C
:10415000022D130030B414461546103928BF20E94B
:104160003C00FAD8490728BF20E90C0048BF40F8B6
:10417000042D890028BF20F8022D48BF00F8012D2A
:1041800030BC7047C91818BF00F8012DCB0728BFF5
:1041900000F8012D704700000022FFF7CDBFF009A5
:1041A00008CEB4B0F3B6A8CDD0C5CC000143010110
:1041B0001C51072003000102030404F0090806074C
:1041C0000809020406083294000452FF01E3FA8F42
:1041D0001420040000EE92000854F003164400007E
:1041E00020000120024D7800082C433B783C21013F
:0341F000030100C8
:105000002043533131313020323330363235303075
:105010002047323330323030000000000000000002
:105020000000000000000000000000000000000080
:0250300000007E
:105034002DE9F0476C240025DFF8AC662A00210036
:105044003000FFF773F840F61C060027DFF89C8653
:105054003A0031004046FFF769F84FF423685FF0E7
:105064000009DFF88CA64A4641465046FFF75EF831
:1050740000F014F8002804D00320DFF878164870F4
:1050840003E00220DFF86C164870DFF858060021B0
:105094008170007801F00AFEBDE8F0872DE9F04741
:1050A4005FF0000800240025DFF83866320018217C
:1050B400002001F083FE07003800C0B2002810D0A1
:1050C4005FF000085FF000091421300001F092FF46
:1050D400716902000B0092B29BB29A4201D0002285
:1050E4001700320018214FF4807001F067FE8046EB
:1050F4004046C0B200280FD000245FF000091421FC
:10510400300001F077FF716902000B0092B29BB28C
:105114009A4201D00022904658EA0700C0B2002803
:1051240021D118245FF00009B2464A4621005046B6
:10513400FEF7FCFF0020B070002070700120B081E9
:10514400C0207071A820B0710120F0710B20307262
:105154000120F07000203071002030703220306166
:1051640000F068F826E03800C0B201280FD14046AC
:10517400C0B200280BD132001821002001F01EFE1D
:10518400320018214FF4807001F0DFFE12E0380085
:10519400C0B200280ED14046C0B201280AD1320064
:1051A40018214FF4807001F009FE3200182100200C
:1051B40001F0CBFE01F042FF45F25550DFF8601CD0
:1051C4000A88824208D14A88737A9BB29A4203D1F0
:1051D4008A88B3899A4206D00880B089888001F011
:1051E400B1FF01F0DCFF3800C0B2012805D1404610
:1051F400C0B2012801D1012005002800C0B2BDE8D9
:10520400F08710B50024DFF8882D3C214FF4C870D6
:1052140001F0D4FDC0B210BDF8B504000D001600B5
:1052240000273200290089B2200080B201F0C6FDB7
:10523400C0B2F2BD70B50024DFF8A864002070612C
:105244001421300001F0D6FE7061320018210020D4
:1052540001F07BFE0500320018214FF4807001F04C
:1052640074FEC0B270BD38B50024DFF8245D0020A0
:10527400A8633821280001F0BDFEA8632A003C2160
:105284004FF4C87001F061FEC0B232BDF8B504003D
:105294000D00160000273200290089B2200080B2D8
:1052A40001F053FEC0B2F2BD30B4010080240020EE
:1052B400002200250023180080B232281ADA0020C8
:1052C40002001000C0B2082812DA180080B2085C8C
:1052D400204202D0280080B20DE0E4B264086D1CC4
:1052E4002000C0B2002801D180200400521CE8E74D
:1052F4005B1CE0E7002030BC704730B40100802420
:1053040000200025002200231D00ADB2322D17DA43
:1053140000252A001500EDB2082D0FDA1D00ADB2EC
:105324004D5D254200D0401CE4B264082500EDB276
:10533400002D01D180252C00521CEBE75B1CE3E718
:1053440080B230BC704730B40100802400200022B9
:1053540000250023180080B232281ADA0020020047
:105364001000C0B2082812DA180080B2085C20428B
:1053740002D1280080B20DE0E4B264086D1C200064
:10538400C0B2002801D180200400521CE8E75B1C55
:10539400E0E7002030BC704710B58AB0040002A8D2
:1053A4002021FEF7F7FE207A0190E0790090A3799E
:1053B4006279DFF8201D02A801F034FF002000907C
:1053C400002302AA1E2141F2100002F051F8207AB3
:1053D4000190E0790090A3796279DFF8FC1C02A8BF
:1053E40001F020FF00200090002302AA142141F2C2
:1053F400300002F03DF80AB010BD2DE9F84F94B02A
:1054040004000D000026002750210022E8464046F3
:10541400FEF78CFE002194F81380D5F81008401C88
:10542400C5F8100885F80B884046C0B200285CD047
:105434004046C0B2012849D1D5F81408401CC5F82B
:1054440014080020C5F818085FF0080914F1140ABC
:10545400EB464A465146584602F09AF9D5F81408E4
:1054640002280DD1012085F80C085FF00809EA46EE
:1054740005F6020B4A465146584602F089F947E0C0
:10548400D5F81408032843D3022085F80C0800201B
:1054940007003800C0B208283ADA3800C0B22844FD
:1054A40090F8020869463A00D2B2895C88420BD06F
:1054B4000020C5F81408D5F818080C30C5F81808E9
:1054C400042085F80C0823E07F1CE2E70020C5F8DF
:1054D4001408D5F818080C30C5F81808042085F805
:1054E4000C08082085F80D0812E0D5F81808401CAF
:1054F400C5F81808D5F818080C2809D37948807815
:10550400002802D10020C5F81408042085F80C08EE
:105514003000C0B215B0BDE8F08F2DE9F8438AB071
:1055240004000D0002A82021FEF734FE5FF00008FD
:105534000026DFF8B891D9F8140802F08BF90700B7
:10554400D9F8100802F086F90100380002F090F949
:10555400DFF81C1D02F00AFA02F074FA0700AA68C8
:105564005EA102A801F05EFE38004FF6FF7180B222
:10557400884202D142F210700700002000900123FB
:1055840002AA082141F2102001F072FF99F80B28B9
:10559400DFF8E01C02A801F045FE00200090002383
:1055A40002AA032141F2502001F062FFD9F8102829
:1055B4004BA102A801F036FE00200090012302AAAC
:1055C40008214FF4915001F053FF3A0092B2642045
:1055D40092FBF0F100FB11220A23BC461FFA8CFC5B
:1055E4005FF0640E380080B24FF47A7192FBF3F8E6
:1055F40003FB182201929CFBFEF20EFB12CC0A2242
:105604009CFBF2F2009290FBF1F201FB1200642188
:1056140090FBF1F3380080B24FF47A7190FBF1F211
:10562400DFF8901D02A801F0FDFD00200090012389
:1056340002AA082141F2302001F01AFF3000C0B262
:105644000BB0BDE8F08301000022DFF86C0D836825
:10565400DFF8680D8068181A704718B599B004000F
:105664002000C0B201280FD111A8DFF8541D202258
:1056740002F09EF800200090012311AA20214FF48B
:10568400935001F0F5FE26E02000C0B202280FD1AD
:1056940009A8DFF8301D202202F08AF800200090CB
:1056A400012309AA20214FF4935001F0E1FE12E0F6
:1056B4002000C0B204280ED101A8DFF80C1D20225E
:1056C40002F076F800200090012301AA20214FF473
:1056D400935001F0CDFE1AB010BD000025646700A0
:1056E40025640000F827002008250020F80A00207F
:1056F400C8000020402800201FB5040001A808218C
:10570400FEF748FD607E002808D0022879D03ED3F9
:10571400042800F0ED80C0F0AF8025E10020009067
:10572400002301AA08214FF4835001F0A1FE0020B8
:105734000090002301AA082141F2700001F098FEB4
:1057440000200090002301AA08214FF4845001F0A6
:105754008FFE00200090002301AA082141F290004E
:1057640001F086FE4FF44151022001F058FE43F24D
:105774005001022001F053FE43F26001022001F0C7
:105784004EFE43F27001022001F049FEECE00020DD
:105794000090002314F1280208214FF4835001F0F3
:1057A40067FE00200090002301AA082141F2700046
:1057B40001F05EFE00200090002301AA08214FF4AE
:1057C400845001F055FE00200090002301AA082116
:1057D40041F2900001F04CFE4FF44151002001F0E1
:1057E4001EFE43F25001022001F019FE43F2600153
:1057F400022001F014FE43F27001022001F00FFEBA
:10580400B2E000200090002314F1280208214FF494
:10581400835001F02DFE00200090002314F130028B
:10582400082141F2700001F023FE002000900023C3
:1058340001AA08214FF4845001F01AFE00200090C0
:10584400002301AA082141F2900001F011FE4FF457
:105854004151002001F0E3FD43F25001002001F02A
:10586400DEFD43F26001022001F0D9FD43F2700134
:10587400022001F0D4FD77E000200090002314F111
:10588400280208214FF4835001F0F2FD002000901B
:10589400002314F13002082141F2700001F0E8FD08
:1058A40000200090002314F1380208214FF48450A2
:1058B40001F0DEFD00200090002301AA082141F23E
:1058C400900001F0D5FD4FF44151002001F0A7FDF7
:1058D40043F25001002001F0A2FD43F260010020D8
:1058E40001F09DFD43F27001022001F098FD3BE0C0
:1058F40000200090002314F1280208214FF4835063
:1059040001F0B6FD00200090002314F130020821BC
:1059140041F2700001F0ACFD00200090002314F16E
:10592400380208214FF4845001F0A2FD00200090B9
:10593400002314F14002082141F2900001F098FD87
:105944004FF44151002001F06AFD43F25001002060
:1059540001F065FD43F26001002001F060FD43F2B7
:105964007001002001F05BFD1FBD2DE9F34F8BB0EA
:1059740004000026002500208DF8020000270020E6
:105984008DF8000000200290B4F80500ADF8040082
:105994005FF0040814F109090DF1080A424649466A
:1059A400504601F0F5FEBDF804004FF6FF71884241
:1059B40008D0BDF80400DFF8C81B8989884201D0EB
:1059C400002028E2DFF8BC5BB4F80300A5F82A0A3B
:1059D40000202880E0798DF801009DF801001F283F
:1059E40002D1207A8DF801009DF8010085F8270A7C
:1059F400002085F8230A002085F8240AA0780028CE
:105A040002D1B4F8096003E0BDF83000B0F10B0630
:105A14009DF80100042813D0202833D021286DD00C
:105A2400222800F06A81232800F0AB81252877D052
:105A3400F72810D0F8281AD0FF2800F0C581D6E145
:105A4400300080B2002805D12A000021002000F097
:105A5400E9F92880CBE1300080B2002806D12A0081
:105A64003221DFF8A40D00F0DDF92880BFE1300019
:105A740080B2002806D12A000C21DFF8900D00F036
:105A8400D1F92880300080B2072837D1A07A0028C5
:105A940008D0A07A0A2802D1E07A002802D0E07A5D
:105AA40001281ED1DFF8D87A607AB872A07A3870EB
:105AB400E07A38715FF0040814F10C0917F1100A48
:105AC40042464946504601F063FE002085F8230A09
:105AD400002085F8240AFFF7ADFB387801F0E6F8DA
:105AE40005E0012085F8230A042085F8240ADFF85C
:105AF400902A2900002000F069FC2880300080B240
:105B040000280CD1002085F8230A002085F8240AF7
:105B1400DFF86C2A2900012000F058FC288066E197
:105B2400300080B20D28C0F2E780607B182880F234
:105B3400D280607B2044807B242880F2CC80482063
:105B44000A9000200990DFF8C87CB846099A0A999F
:105B54004046FEF7EBFA607B401C089014F10D0000
:105B6400079017F10108089A0799404601F010FEC2
:105B74003900607B20440E3000F006FD7876042066
:105B84000690607B2044617B2144897B08440F306C
:105B9400059017F12008C146069A0599484601F078
:105BA400F7FD02200490607B2044617B2144897BC3
:105BB40008441330039017F11C09CA46049A039948
:105BC400504601F0E5FD607B2044617B2144897BE4
:105BD4000844407DB876DFF83CACDFF83CBC1822C2
:105BE400791C584601F048FF002821D1082217F1FA
:105BF40028011AF1340001F03FFF002818D10422D3
:105C040041461AF12C0001F037FF002810D102227E
:105C140049461AF1280001F02FFF002808D101227B
:105C240017F11A011AF1260001F026FF002834D0DA
:105C340018200790781C0690079A0699584601F098
:105C4400A7FD04200590CDF810801AF12C08059AC0
:105C54000499404601F09CFD5FF00208CDF80C90D9
:105C64001AF1280942460399484601F091FD5FF074
:105C740001091A371AF1260B4A463900584601F031
:105C840087FD1AF10C01607B20440E3000F07CFC8F
:105C94008AF8250001208AF80C00002085F8230AE0
:105CA400002085F8240A0120DFF8701B0870DFF853
:105CB400700B0068DFF86C1B0860DFF8280E0178B1
:105CC400032902D001780D290BD10178142908D0B9
:105CD4000021417005E0012085F8230A042085F89D
:105CE400240ADFF8040E006901F0E8FF02000299BB
:105CF400280000F0C1FA288079E0300080B215282D
:105D04003ED1207F8DF80000DFF8E01D14F10A0079
:105D140000F0EEFE002822D09DF8000000281ED1DD
:105D2400042714F11608DFF8EC9A19F15C0A3A001A
:105D34004146504601F02CFD022089F85500A07E12
:105D4400C9F80400A07E89F86100E07E89F860004B
:105D5400002085F8230A002085F8240A0AE001209F
:105D6400DFF8B01A81F85500012085F8230A0420D1
:105D740085F8240A2A000021002000F053F8288026
:105D840035E0300080B202281DDBA07D8DF80000D4
:105D9400DFF8581D14F10A0000F0AAFE00280CD008
:105DA4009DF80000002808D1002085F8230A00206F
:105DB40085F8240A012085F8260A2A0000210020FB
:105DC40000F030F8288012E0300080B202280EDBA8
:105DD400002085F8230A002085F8240A012085F88C
:105DE400260A2A000021002000F01CF828802888B8
:105DF40000280FD19DF8020000280BD1012085F85E
:105E0400230A042085F8240A2A000021002000F037
:105E140009F8288028880DB0BDE8F08F0000000044
:105E2400102800202DE9F84F05000E00170000246B
:105E34005FF000087E20210089B239448870641C18
:105E44005520210089B239448870641C0020210047
:105E540089B239448870641CDFF8240781892200E0
:105E640092B23A449170641C808980B2000A210085
:105E740089B239448870641CB7F82A0A210089B2AF
:105E840039448870641CB7F82A0A80B2000A2100D9
:105E940089B239448870641C1F20210089B23944B6
:105EA4008870641C97F8270A210089B239448870E5
:105EB400641C3000C0B2F1281BDB200080B23844DF
:105EC4008670641C0020210089B239448870641CE7
:105ED400B1465FFA89F9AA46200080B2384410F12D
:105EE400020B4A465146584601F052FC54FA86F4D5
:105EF40034E097F8230A00280ED1B1465FFA89F9F5
:105F0400AA46200080B2384410F1020B4A4651469A
:105F1400584601F03DFC0EE0B1465FFA89F95FF0A6
:105F2400000A200080B2384410F1020B5246494660
:105F34005846FEF7FBF854FA86F497F8230A210032
:105F440089B239448870641C97F8240A210089B204
:105F540039448870641C2000401E3871210089B2C5
:105F6400891E381D01F046F80100200080B2384433
:105F74008170641C080080B2000A220092B23A4484
:105F84009070641C3C802000C0B2BDE8F28F000019
:105F9400042700202DE9F84F04000D0016005FF0DF
:105FA400000B00277E20594689B2294488701BF1D2
:105FB400010B5520594689B2294488701BF1010B05
:105FC4000020594689B2294488701BF1010BDFF87F
:105FD400B00581895A4692B22A4491701BF1010B93
:105FE400808980B2000A594689B2294488701BF11D
:105FF400010BB5F82A0A594689B2294488701BF165
:10600400010BB5F82A0A80B2000A594689B229441C
:1060140088701BF1010B2220594689B229448870EB
:106024001BF1010B0020594689B2294488701BF1E9
:10603400010B5FF00808A146584680B2284410F1CD
:10604400020A42464946504601F0A2FB1BF1080BE6
:10605400584680B2284486701BF1010B3000000AB8
:10606400594689B2294488701BF1010B3000000C99
:10607400594689B2294488701BF1010B3000000E87
:10608400594689B2294488701BF1010B5846401EB9
:106094002871594689B2891E281D00F0ABFF82463B
:1060A400594689B2891E281D00F0A4FF01005846F4
:1060B40080B2284481701BF1010B58460A0092B249
:1060C400120A03009BB22B449A70401C2880C0B271
:1060D400BDE8F28F50E30008ACE300082DE9FE4F61
:1060E40004000D0016001F00DDF830805FF0000B87
:1060F4000020ADF804007E20594689B231448870EE
:106104001BF1010B5520594689B2314488701BF1AB
:10611400010B0020594689B2314488701BF1010BF0
:10612400DFF85C0481895A4692B2324491701BF1C3
:10613400010B808980B2000A594689B231448870C3
:106144001BF1010BB6F82A0A594689B2314488700A
:106154001BF1010BB6F82A0A80B2000A594689B22B
:10616400314488701BF1010B2320594689B2314414
:1061740088701BF1010B0020594689B231448870A4
:106184001BF1010B5FF008090095584680B23044BA
:1061940010F1020A4A460099504601F0F9FA1BF13F
:1061A400080B584680B2304487701BF1010B38004D
:1061B400000A594689B2314488701BF1010B38003A
:1061C400000C594689B2314488701BF1010B380028
:1061D400000E594689B2314488701BF1010B5846B0
:1061E40080B2304480F802801BF1010B4046000A63
:1061F400594689B2314488701BF1010B4046000CAA
:10620400594689B2314488701BF1010B4046000E97
:10621400594689B2314488701BF1010B584680B24B
:10622400304484701BF1010B5846401E30715946AE
:1062340089B2891E301D00F0DDFE8246594689B2BE
:10624400891E301D00F0D6FE0100584680B230444D
:1062540081701BF1010B58460A0092B2120A030026
:106264009BB233449A70401C3080C0B2BDE8FE8FAC
:1062740000401C4650E400082DE9F84304000D00DA
:10628400160000275FF000087E20390089B22144FF
:1062940088707F1C5520390089B2214488707F1C86
:1062A4000020390089B2214488707F1CB448818958
:1062B4003A0092B2224491707F1C808980B2000A15
:1062C400390089B2214488707F1CB4F82A0A390045
:1062D40089B2214488707F1CB4F82A0A80B2000A6B
:1062E400390089B2214488707F1C94F8270A390048
:1062F40089B2214488707F1C0020390089B221446E
:1063040088707F1C380080B2204485707F1C280070
:10631400000A390089B2214488707F1C2800000CCF
:10632400390089B2214488707F1C2800000E39008E
:1063340089B2214488707F1C380080B22044867062
:106344007F1C3000000A390089B2214488707F1C08
:106354003000000C390089B2214488707F1C300061
:10636400000E390089B2214488707F1C3800401E19
:106374002071390089B2891E201D00F03BFE814640
:10638400390089B2891E201D00F034FE0100380056
:1063940080B2204481707F1C080080B2000A3A0059
:1063A40092B2224490707F1C27803800C0B2BDE8AE
:1063B400F2830000B8E3000874250020C8250020FB
:1063C400BCE20008DCE20008FCE200082DE9F84F1A
:1063D40080460D001600002400277E20210089B28B
:1063E40029448870641C5520210089B2294488708E
:1063F400641C0020210089B229448870641C604810
:106404008189220092B22A449170641C808980B2EE
:10641400000A210089B229448870641CB5F82A0A4C
:10642400210089B229448870641CB5F82A0A80B214
:10643400000A210089B229448870641C1F202100AD
:1064440089B229448870641C95F8270A210089B20E
:1064540029448870641C0020210089B22944887072
:10646400641C4046C0B2002849D0B07A210089B2E9
:1064740029448870641C3078210089B229448870CA
:10648400641C3079210089B229448870641C306905
:10649400210089B229448870641C3069000A2100F3
:1064A40089B229448870641C3069000C210089B2C7
:1064B40029448870641C3069000E210089B2294483
:1064C4008870641C5FF00809CF4810F1080A2000A6
:1064D40080B2284410F1020B4A465146584601F056
:1064E40057F908340020210089B229448870641CBB
:1064F4000020210089B229448870641C1DE05FF0EB
:106504000809C14810F1080A200080B2284410F19B
:10651400020B4A465146584601F03AF9083495F8B8
:10652400230A210089B229448870641C95F8240A3E
:10653400210089B229448870641C2000401E2871FF
:10654400210089B2891E281D00F054FD81462100D6
:1065540089B2891E281D00F04DFD0100200080B283
:1065640028448170641C20000A0092B2120A0300BD
:106574009BB22B449A70401CC0B2BDE8F28F00005D
:10658400F8270020C80000202DE9F84F88B0040047
:106594000D007C208DF801005FF000095FF0000A17
:1065A4005FF0000800260421002201AF3800FDF747
:1065B400BDFD20788DF8000000279DF8000039000B
:1065C400C9B288420FD33800C0B2205C9DF80110D4
:1065D400884206D118F1010801A83100C9B2475414
:1065E400761C7F1CE9E74046C0B200281ED16078C3
:1065F40000280BD1A078002808D1E078002805D124
:106604002079002802D105208046BCE09DF80000D6
:106614009DF80490B0EB090914F1010A15F1280B57
:106624004A465146584601F0B3F8ACE04046C0B281
:1066340001281FD19DF80490B9F10109601C039051
:1066440015F1280A4A460399504601F0A1F89DF82D
:1066540000009DF804A0B0EB0A0A9DF80400204451
:10666400401C029015F1300B52460299584601F035
:106674008FF888E04046C0B2022835D19DF8040066
:10668400401E0590601C049015F12809059A049990
:10669400484601F07DF80DF1040B9BF801009DF8CC
:1066A4000490B0EB0909B9F101099DF804002044F4
:1066B400401C039015F1300A4A460399504601F0F4
:1066C40067F89DF800009BF801A0B0EB0A0A9BF85C
:1066D40001002044401C029015F1380B52460299E7
:1066E400584601F055F84EE04046C0B203284AD15E
:1066F4009DF80400401E0790601C069015F12809BF
:10670400079A0699484601F043F80DF1040999F8EF
:1067140001009DF804A0B0EB0A0ABAF1010A9DF841
:1067240004002044401C059015F1300B5246059995
:10673400584601F02DF899F8020099F801B0B0EB31
:106744000B0BBBF1010B99F801002044401C049091
:1067540015F1380002905A460499029801F018F88D
:1067640002989DF8001099F80200091A039199F80B
:1067740002002044401C029015F14009039A02993A
:10678400484601F005F818F101084046C0B209B0C6
:10679400BDE8F08F38B5040060782178884231D0A4
:1067A40060782070607814280CD1DFF8FC0400783D
:1067B4000A2807D1142000F01FFE0120DFF8C015BD
:1067C40088801FE020780D2809D1DFF8DC040078E8
:1067D4000A2804D1207880B200F00EFE12E0DFF81F
:1067E400C8542078297851FA80F080B200F004FE71
:1067F4002078297851FA80F0142803D10120DFF899
:106804008015888031BD000000500008E8F7FF1FA4
:10681400BC26002008250020152500204B28002038
:1068240034280020282800202DE9F84791B00400DE
:106834000D00160001A82021FDF7ACFC09A82021B9
:10684400FDF7A8FC0020DFF8A082D8F80C10D8F8D7
:106854001070CF1B3178002908D0012964D0022997
:1068640000F03C81142900F0388137E1DFF8148509
:1068740098F80C00012842D118F10C00FEF73CFFF7
:10688400002000900123A21C0C214FF4825000F040
:10689400EFFD60780D280ADB00200090012314F13D
:1068A4000E020C214FF4B25000F0E2FD08E000208B
:1068B4000090012309AA0C214FF4B25000F0D8FD36
:1068C40001A9206A00F02DF900200090012301AAFB
:1068D40005214FF4885000F04BFEA28BDFF8A8147A
:1068E40001A800F09FFC00200090012301AA0A21C6
:1068F40041F2101000F0BCFD022088F80C000020CA
:1069040000900023DFF8842408214FF4995000F00C
:10691400AFFD002000900023DFF874240E2141F223
:10692400500000F0A5FDD9E0DFF8589499F80C0068
:10693400012842D119F10C00FEF7DEFE0020009080
:106944000123A21C0C214FF4825000F091FD6078C9
:106954000D280ADB00200090012314F10E020C2103
:106964004FF4B25000F084FD08E0002000900123B1
:1069740009AA0C214FF4B25000F07AFD01A9206A53
:1069840000F0CFF800200090012301AA05214FF464
:10699400885000F0EDFDA28BDFF8EC1301A800F0A5
:1069A40041FC00200090012301AA0A2141F21010A9
:1069B40000F05EFD022089F80C0000200090002306
:1069C400DFF8CC23122141F2504000F051FD0020A9
:1069D40000900023DFF8B42308214FF4995000F00D
:1069E40047FDDFF8C4A24046FEF72DFEDAF810108A
:1069F40088420ED3DFF89C130878002809D1206A56
:106A040000FB07F0A28BB0FBF2F06062012008707B
:106A14000FE0DFF88003007800280AD04046FEF734
:106A240012FE0700206A00FB07F0A18BB0FBF1F017
:106A34006062F80003D500200700002060623A007D
:106A4400CEA101A800F0EEFB00200090002301AAD3
:106A540005214FF4895000F08BFD01A9606A00F014
:106A640060F800200090012301AA082141F23010AF
:106A740000F07EFDDAF81020C74901A800F0D2FB2F
:106A840000200090012301AA08214FF49A5000F03D
:106A9400EFFC01A9DAF81020206A4243A08BB2FB74
:106AA400F0F000F03EF800200090012301AA072135
:106AB4004FF49B5000F0DCFC01A9D9F85C00626A39
:106AC400101800F02EF800200090012301AA0821DC
:106AD4004FF48A5000F04CFD00E0FFE712B0BDE82F
:106AE400F08700004028002084240020FA120020AF
:106AF40030B402000120002300242300DBB2082B61
:106B04000CDA2300DBB2D35C2500EDB24D5DAB4261
:106B140002D00023180001E0641CEEE7C0B230BCD0
:106B24007047F8B584B004000D00B4F57A7F1AD22A
:106B34006420B4FBF0F100FB11400A216422B0FB95
:106B4400F1F301FB13000090B4FBF2F002FB1042DE
:106B54000A20B2FBF0F36420B4FBF0F28F49280062
:106B640000F060FB9EE0B4F57A7F29D342F2107006
:106B7400844225D26420B4FBF0F100FB11400A21C9
:106B840064224FF47A73B0FBF1F601FB1600019016
:106B9400B4FBF2F002FB10420A20B2FBF0F00090CA
:106BA400B4FBF3F003FB10436420B3FBF0F34FF4A6
:106BB4007A70B4FBF0F27A49280000F033FB71E0FC
:106BC40042F21070844231D376498C422ED2642131
:106BD400B4FBF1F201FB12410A2264234FF47A76EA
:106BE400B1FBF2F702FB17110291B4FBF3F103FBC3
:106BF40011430A21B3FBF1F10191B4FBF6F106FB59
:106C040011466421B6FBF1F10091B4FBF0F100FBF5
:106C140011404FF47A71B0FBF1F342F21070B4FBFF
:106C2400F0F26149280000F0FDFA3BE05D498C4236
:106C340038D35E4A944235D26422B4FBF2F302FBA9
:106C440013420A2364264FF47A77B2FBF3FC03FB66
:106C54001C220392B4FBF6F206FB12460A22B6FB90
:106C6400F2F20292B4FBF7F207FB12476422B7FB7D
:106C7400F2F20192B4FBF0F200FB12404FF47A728C
:106C8400B0FBF2F00090B4FBF1F001FB104142F2D2
:106C94001070B1FBF0F34348B4FBF0F24449280010
:106CA40000F0C0FA05B0F0BDF827002038B50400A4
:106CB4002000C0B20A282AD14FF6FF75290042F2FB
:106CC400100000F0C1FB29004FF4015000F0BCFBA0
:106CD400290042F2500000F0B7FB290042F21010E4
:106CE40000F0B2FB290042F2300000F0ADFB2900B5
:106CF40042F2702000F0A8FB29004FF4195000F074
:106D0400A3FB290042F2303000F09EFB2CE000216E
:106D140042F2100000F098FB00214FF4015000F003
:106D240093FB002142F2500000F08EFB002142F25E
:106D3400101000F089FB002142F2300000F084FBC7
:106D4400002142F2702000F07FFB002142F220007B
:106D540000F07AFB00214FF4195000F075FB00217C
:106D640042F2203000F070FB124800781249097892
:106D7400081880B200F040FB31BD0000256400001B
:106D8400402700200825002058E40008D8270020C8
:106D9400000000204A28002060E4000868E400089D
:106DA400C4E30008A0860100D0E3000840420F00BD
:106DB4006CE3000840280020F82700202DE9F0416A
:106DC40004000D0016005FF001080027280080B2BF
:106DD400002860D000F0C6FF002801D100208046C2
:106DE4004046C0B2002808D0A02001F050F801F0BD
:106DF4002DF8002801D1002080464046C0B200286A
:106E040008D0200080B2000AC0B201F040F801F0BE
:106E14001DF880464046C0B2002806D02000C0B20B
:106E240001F035F801F012F880464046C0B200285F
:106E340005D000F097FF002801D10020804640468D
:106E4400C0B2002808D0A12001F021F800F0FEFF14
:106E5400002801D1002080466D1E4046C0B20028A3
:106E640017D0002007003800290080B289B2884278
:106E740008D201F031F8390089B2705400F0B6FF3D
:106E84007F1CF0E701F028F8390089B2705400F053
:106E9400C5FF00F093FF4046C0B2BDE8F0812DE984
:106EA400F04104000D00160000275FF001082800DF
:106EB40080B2002842D000F055FF002801D1002004
:106EC40080464046C0B2002808D0A02000F0DFFF72
:106ED40000F0BCFF002801D1002080464046C0B22B
:106EE400002808D0200080B2000AC0B200F0CFFF12
:106EF40000F0ACFF80464046C0B2002806D0200017
:106F0400C0B200F0C4FF00F0A1FF804600200700DB
:106F14003800290080B289B288420DD24046C0B2FE
:106F2400002807D0380080B2305C00F0B0FF00F0D9
:106F34008DFF80467F1CEBE700F040FF052000F04A
:106F440008FF4046C0B2BDE8F0812DE9F0470400D7
:106F54000D00160000275FF000085FF0000A200013
:106F640010F03F0F1BD014F03F00D0F120000700B9
:106F74002800390080B289B2884200D22F004046EE
:106F840080B206EB0002390089B218EB040080B22B
:106F9400FFF785FF8146ED1B17EB080801E05FF062
:106FA40001094846C0B200281FD0280080B200283A
:106FB4001BD0202007002800390080B289B2884203
:106FC40000D22F00404680B206EB0002390089B29D
:106FD40018EB040080B2FFF762FF8146ED1B17EB4C
:106FE40008084846C0B20028DFD14846C0B2BDE810
:106FF400F087000070B403000022002400264FF63E
:10700400FF7000258D4214D25A5D504000221600B4
:10701400082E0CD2C20706D580B2020048F20840FE
:1070240090EA520001E080B24008761CF0E76D1C43
:10703400E8E780B2C04380B270BC70472DE9FE43DC
:1070440000250026082100226C462000FDF76EF87A
:107054000027644C2200082147F6F870FFF7AEFEC3
:1070640005002800C0B2002814D05FF000085FF0CB
:10707400000906212000FFF7BDFFE18802000B0094
:1070840092B29BB29A4202D00022150001E0012282
:10709400150007E0322000F05CFE7F1C3800C0B20F
:1070A4000328D6DB5FF000086A4608214FF4FC4051
:1070B400FFF784FE06003000C0B2002814D0002779
:1070C4005FF0000906216846FFF794FFBDF806103B
:1070D40002000B0092B29BB29A4202D00022160028
:1070E40001E00122160008E0322000F032FE18F11F
:1070F40001084046C0B20328D6DB55EA0600C0B2F8
:10710400002809D14AF6AA2020800220608000F0DD
:1071140019F800F044F813E03000C0B2002802D19E
:1071240000F03DF80CE02800C0B2002808D1082780
:10713400E9463A004946200000F02AFB00F002F834
:10714400BDE8F78370B500240025264E0020F080AA
:1071540006213000FFF74EFFF0803200082147F689
:10716400F870FFF7F2FE04002000C0B2002806D039
:10717400320008214FF4FC40FFF7E7FE0400200032
:10718400C0B2002808D1322000F0E3FD6D1C2800B5
:10719400C0B20328E1DBFFE72000C0B270BD70B5C8
:1071A400002400250F4E0020F08006213000FFF758
:1071B40021FFF080320008214FF4FC40FFF7C5FEA8
:1071C40004002000C0B2002808D1322000F0C1FD24
:1071D4006D1C2800C0B20328ECDBFFE72000C0B21E
:1071E40070BD00001028002030B4002513E050F8D2
:1071F400042BD30744BFA9F101039A18091F0429DA
:1072040042F8045BFAD213468C0744BF15809B1CDA
:10721400C90748BF1D7050F8041B0029E7D130BCD2
:10722400704700000CB430B583B00A4606A9029139
:10723400044600250194009502AB01A9084878444E
:107244001E3000F075FE019A157000284EBF0446EA
:107254000198041B204603B030BC5DF80CFB00BF52
:107264000F0800002DE9FE4F5020029000200190ED
:10727400DFF80045019A02992000FCF757FF5020DF
:1072840000900024DFF8F0542E0022000099300012
:10729400FCF74CFF4FF484760027DFF8E084C14606
:1072A4003A0031004846FCF741FF5FF002095FF005
:1072B400000ADFF8CCB4524649465846FCF736FF7C
:1072C4005FF4E13001F098FE012001F0EBFE4FF491
:1072D400907118F1010001F01FFF4FF4907115F146
:1072E400080001F05CFF5FF40030DFF898140860D8
:1072F4004FF49070DFF890140860DFF89004016890
:1073040051F001010160BDE8F78FF0B404000020E2
:1073140000255A260700FFB2DE55401CA5260700AB
:10732400FFB2DE55401CFF260700FFB2DE55401CAD
:1073340082260700FFB2DE55401C2600B6B2360A8C
:107344000700FFB2DE55401C0600F6B29C55401CF7
:1073540000263500EDB21700ADB2BFB2BD4208D26F
:107364003500EDB24D5D0700FFB2DD55401C761CC3
:10737400EFE7C51E9D70C0B2F0BC7047F0B40400C6
:10738400002000255A260700FFB2DE55401CA52622
:107394000700FFB2DE55401CFF260700FFB2DE5592
:1073A400401C82260700FFB2DE55401C2600B6B200
:1073B400360A0700FFB2DE55401C0600F6B29C55A3
:1073C400401C00263500EDB21700ADB2BFB2BD427D
:1073D4000DD200250700FFB2DD55401C3500EDB28B
:1073E4004D5D0700FFB2DD55401C761CEAE7C51E63
:1073F4009D70C0B2F0BC704770B50400DFF87C53D8
:107404006E1C3100200080B200F032F985F80101D1
:1074140095F8011189B2300001F064FE70BDF8B531
:1074240004000D00D54E771C3A00290089B22000D3
:1074340080B200F058F986F8010196F8011189B27A
:10744400380001F04FFEF1BD73B50400CB4D6E1C46
:107454003300022201A9E01C80B2FFF756FF85F831
:10746400010195F8011189B2300001F03BFE73BDB2
:107474002DE9F14F8AB00D0016001F00149C202145
:1074840000220DF104084046FCF750FE5FF0000AAC
:107494005FF00008300001F00DFF814628004946E6
:1074A400C0B2C9B288420CD2A946CA465FFA8AFA67
:1074B40000960DF1040B52460099584600F068F905
:1074C4003EE0202000905FF0200A0DF1040B5246AC
:1074D40000995846FCF72AFE3800C0B2002813D1A0
:1074E4005FEAC97008D52900C9B24846C0B2091A72
:1074F400491C4910884615E02900C9B24846C0B263
:10750400091A491088460DE03800C0B2012801D19B
:10751400A04607E03800C0B2022803D1281BB0EB14
:1075240009008046CA465FFA8AFA009601A84146D5
:10753400C9B200EB010B52460099584600F028F9F5
:10754400DFF838A21AF1010B5B462A00D2B292B2DC
:1075540001A9BDF82800FFF7D8FE8AF801019AF8BE
:10756400011189B2584601F0BDFD0BB0BDE8F08FA2
:107574002DE9F14F8AB00D0016001F00149C202144
:1075840000220DF104084046FCF7D0FD5FF0000A2C
:107594005FF00008300001F08DFE81462800494666
:1075A400C0B2C9B288420CD2A946CA465FFA8AFA66
:1075B40000960DF1040B52460099584600F0E8F885
:1075C4003EE0202000905FF0200A0DF1040B5246AB
:1075D40000995846FCF7AAFD3800C0B2002813D120
:1075E4005FEAC97008D52900C9B24846C0B2091A71
:1075F400491C4910884615E02900C9B24846C0B262
:10760400091A491088460DE03800C0B2012801D19A
:10761400A04607E03800C0B2022803D1281BB0EB13
:1076240009008046CA465FFA8AFA009601A84146D4
:10763400C9B200EB010B52460099584600F0A8F875
:10764400DFF838A11AF1010B5B462A00D2B292B2DC
:1076540001A9BDF82800FFF791FE8AF801019AF804
:10766400011189B2584601F03DFD0BB0BDE8F08F21
:1076740010B4020000205A230400E4B20B55401C4D
:10768400A5230400E4B20B55401CFF230400E4B21C
:107694000B55401C82230400E4B20B55401C00230C
:1076A4000400E4B20B55401C84230400E4B20B55DF
:1076B400401C5A230400E4B20B55401C012304006F
:1076C400E4B20B55401C13009BB21B0A0400E4B245
:1076D4000B55401C0300DBB2CA54401CC31E8B7004
:1076E400C0B210BC704730B4030000205A24050017
:1076F400EDB25455401CA5240500EDB25455401C70
:10770400FF240500EDB25455401C82240500EDB25F
:107714005455401C0C00A4B2240A0500EDB2545583
:10772400401C0400E4B21155401C1C00A4B2240AFD
:107734000500EDB25455401C0400E4B21355401C3E
:10774400C41E9470C0B230BC7047F8B504000D007C
:107754000A4E771C3A00290089B2200080B2FFF754
:10776400C2FF86F8010196F8011189B2380001F0D0
:10777400B9FCF1BD6C2600201C2600207C230020CF
:1077840040280020040002405C00024058000240EF
:1077940062B38B0708D0521E11F8013B00F8013B7D
:1077A40000F024808B07F6D1830740F0208000BFCF
:1077B400103A07D330B4B1E83810103AA0E83810C2
:1077C400F9D230BC530724BFB1E80810A0E8081070
:1077D40044BF51F8043B40F8043BD20724BF31F8BE
:1077E400022B20F8022B44BF0B7803707047121F42
:1077F40017D35B0009D151F8043B20F8023B1B0C62
:10780400121F20F8023BF6D20BE051F8043B00F8BB
:10781400013B1B0A20F8023B1B0C121F00F8013B22
:10782400F3D238BF121D521E24BF11F8013B00F8D9
:10783400013BF8D87047B1F5807F02D34FF0FF3099
:1078440070470170012070470078401E8041C0439A
:10785400C00F704700280AD0B0FA80F18840D1F1F7
:107864009D01C905020672F1004241EB10207047E8
:1078740010B5FF2313EAD0541DBF13EAD1529C4222
:107884009A4239E0A41ADA0780EA0103134042EA73
:10789400012142EA0020421A3CBF641E01EB42026D
:1078A400090AB2FBF1FE01FB1E221202B2FBF1F047
:1078B40001FB10226EF30F201202B2FBF1FE4EEA1E
:1078C40000207F3406DDFE2C24DA53EA500050EB0E
:1078D400C45010BDD4F1020401FB1E2240F080719B
:1078E400192C1DDC21FA04F0C4F12004A140114339
:1078F40071F10042584110BD9C421ABF03EAD152B3
:107904009A420FE080EA010E0EF00043400004D0DA
:10791400490016D143F0FF4010BD490008BFD343CE
:10792400180010BD9C4205D1D21AF7D001F00041D5
:10793400484010BD4A0212BF0846484000F00040CB
:1079440010BD4AB90902B1FA81F2914044B1A418B8
:10795400C00140F000409EE7C90141F0004152429D
:107964000002B0FA80F4A040141B94E7FF2212EA4C
:10797400D05C1DBF12EAD153944593422BE09C4442
:10798400D30780EA01021A4043EA002043EA0121B6
:10799400A1FB0030C04238BF40007CF17F010BDB0B
:1079A400FE294ADA5B0842EAC15153EA006373F1E3
:1079B400004C51EB10207047D1F1080CDCF1200190
:1079C4002FDB5B0810FA01F10B4320FA0CF073F182
:1079D40000415041704794451CBF02EAD153934281
:1079E40080EA010202F000421DD0400019D0490093
:1079F40017D05BB9634514D00902B1FA81F39940F9
:107A0400BCEB030CC00140F00040C1E70002B0FA37
:107A140080FC10FA0CF0B3EB0C0CC90141F00041EE
:107A2400B6E71000704740000AD0490008D010F1B2
:107A3400807F94BF11F1807F02E042F0FF407047E5
:107A4400D0437047C0F3C7517E390EDDC217D1F160
:107A5400200106DD000240F00040C84010445040C0
:107A64007047D04380F000407047002070470268A0
:107A7400531C0360117070470300002013F0030FC0
:107A840009D0521E22BF13F8010B11F801CBB0EB41
:107A94000C00F3D0704711F0030F14D1121F22BF52
:107AA40053F8040B51F804CB6045F7D0121D0AD2E9
:107AB40000BA9CFA8CFCB0EB0C0038BF6FF00000ED
:107AC40088BF01207047521E22BF13F8010B11F822
:107AD40001CBB0EB0C00F6D0521C08BF1046704727
:107AE40080B54FF4165001F001FC01F045FC012172
:107AF400012001F058FC00208049087001BD4A783B
:107B0400002A06D0012A0DD0032A17D0042A25D032
:107B140038E00200D2B27E2A03D181F82600012285
:107B24004A702FE00200D2B2FF2A04D181F8270064
:107B340003224A7001E000224A7023E00200D2B21C
:107B4400052A08DB04224A7081F8250081F8280000
:107B54000322CA7001E000224A7013E0CA78531C61
:107B6400CB70D2B20A4482F8260091F82520D21CA8
:107B7400CB789A4204DA00224A7001220A7001E0AA
:107B840000220A7070472DE9F04104000D00160030
:107B94001F005FF000087E204146C9B2785418F1F6
:107BA4000108FF204146C9B2785418F101080620A3
:107BB4004146C9B2785418F101084046C0B23C5459
:107BC40018F101084046C0B23D5418F101083000D4
:107BD40080B2000A4146C9B2785418F101084046FF
:107BE400C0B23E5418F101080621781C00F006F8D2
:107BF40018F103084046C0B2BDE8F08130B4002358
:107C0400002214000D00E4B2EDB2AC4205D214001F
:107C1400E4B2045D1B19521CF3E79BB25B421C00E7
:107C2400A4B2240A1500EDB244551400E4B204448D
:107C34006370EF241500EDB20544AC7030BC70479E
:107C440070B40100002000250022002401238D7857
:107C54001E00F6B2B54205D31D00EDB24D5D5219BA
:107C64005B1CF4E71D00EDB24E5D1D00EDB20D444A
:107C74006D7855EA0625AA181600B6B2002E01D171
:107C840001242000C0B270BC70472DE9F04104000B
:107C94000D001600194F17F10E084346320092B238
:107CA4002900C9B22000C0B2FFF76DFF7873797B59
:107CB40089B2404601F08FFBBDE8F08170B5060043
:107CC4003003000B01F0A6FB04000D00C6F30350C3
:107CD40001F0A0FB02000B000020094901F0A8FB01
:107CE40002000B002000290001F04EFF0022054B8A
:107CF40002F06EF802F03EF970BD0000402700204B
:107D04000000244000408F401CB5042100226C4632
:107D14002000FCF70BFA03208DF8020014208DF8E4
:107D2400030081488188ADF800106946006802F0BC
:107D340035F97E488188ADF800106946006802F084
:107D44002DF913BD002064210800411E0028FBD139
:107D540070474FF420514843401C0100481E00293D
:107D6400FBD1704710B5704CA088216808616F483A
:107D7400818800680161FFF7E5FF206880680028BA
:107D840001D1012000E00020217911F00101084215
:107D940001D0002011E0A08821684861FFF7D2FFDC
:107DA40020688068A188084201D0002005E0A088EE
:107DB40021684861FFF7C6FF012010BD38B55B4C50
:107DC400A08821684861FFF7BDFF574DA88829683E
:107DD4004861FFF7B7FFA08821680861FFF7B2FF89
:107DE400A88829680861FFF7ADFF31BD10B54F4C75
:107DF400A08821684861FFF7A5FF4B488188006887
:107E04004161FFF79FFFA08821680861FFF79AFF8F
:107E1400A08821684861FFF795FF10BD10B5434C59
:107E2400A08821684861FFF78DFF3F48818800687A
:107E34000161FFF787FFA08821680861FFF782FFCF
:107E4400A08821684861FFF77DFF10BD38B5374C25
:107E5400A08821684861FFF775FF334DA888296819
:107E64000861FFF76FFFA08821680861FFF76AFFC8
:107E740028688068A988084204D0A08821684861DD
:107E8400002003E0A08821684861012032BD70B55C
:107E9400040008252800451EC0B2002817D0234E30
:107EA400B08831684861200604D51F48818800687D
:107EB400016103E01C48818800684161FFF742FFCB
:107EC400B08831680861FFF73DFF6400E2E71748B6
:107ED40081880068416170BDF8B508240025124E00
:107EE400B088316808612000441EC0B2002813D055
:107EF4006D000E4FB88839684861FFF723FFB888D2
:107F040039680861FFF71EFF30688068B18808424D
:107F1400E9D055F00105E6E704488188006841612D
:107F24002800C0B2F2BD000020E4000828E40008E4
:107F34002DE9F14FB2B09946924600230691CDE95E
:107F440000333C9A0F930DF14A0114914A7011E0E9
:107F5400329E57462C4617F8011B0698B047002856
:107F6400069000F026810F98401C641E0F90F2D1F9
:107F74003296AA449AF80000252808D1002100224C
:107F840009910A920B910C920D910E920FE06A46A0
:107F94004FF0FF31504602F0F5F8050002D10F987A
:107FA40000F066BED4D50125E3E741F001011AF8DB
:107FB400010F2028F9D023280CD02B2804D02D28F9
:107FC40005D0302809D00BE041F00201EFE741F081
:107FD4000401ECE741F00801E9E741F01001E6E7AC
:107FE4002A280FD1D9F8002052F8040BC9F8002030
:107FF4000028119003D54042119041F004010AF188
:10800400010A14E01192DFF8EC3B0AE0119898425F
:1080140005DA00EB800402EB4402303A11920AF1D3
:10802400010A9AF80020A2F130000A28EED39AF847
:1080340000002E2803D04FF0FF32109229E01AF8E6
:10804400010F2A2809D1D9F8000050F8042BC9F8E7
:10805400000010920AF1010A1BE02D280CBF0AF15E
:10806400010A002000221092DFF8882B0BE040B9AF
:10807400109B934205DA03EB830504EB4504303C83
:1080840010940AF1010A9AF80040A4F130030A2B73
:10809400EDD3ADF848100FF660309AF8001002F0F6
:1080A4007BF808B11AF8010B8DF84A009DF84A00D4
:1080B400682805D19AF8000068280CD1622106E0EE
:1080C4006C2804BF9AF800006C2804D171218DF843
:1080D4004A100AF1010A1FA808901AF801BBBBF163
:1080E40025012DD01C3900F06181091F022940F2BD
:1080F4005D810E392AD0491F00F0B384093900F09C
:108104005581891E00F04985491E00F0F584491EF9
:10811400022940F24B81091F00F0EE84491F00F050
:10812400BA80491E00F09D84491E65D0C91E21D025
:10813400891E00F09684C91E00F0938400F04CBDA3
:1081440025238DF87C30012109912AE06C208DF8DB
:108154004A00D9F8000050F8042BC9F80000002A9E
:1081640043D11499487800283DD04FF0FF340FF6DE
:10817400902012E09DF84A006C28EAD0D9F800005B
:1081840050F8044BC9F800000794D4B914994878FE
:1081940098B14FF0FF340FF6842002F009F8201A4A
:1081A40007D132981FAA04A900F065FD00287FF5C5
:1081B400E1AE4FF0FF3000F05BBD0FF67C2007907E
:1081C400EFE7109D002D04D5204601F073F8044616
:1081D40007E02A46204602F00BF8002814BF041BCF
:1081E4002C460A94DDE70FF65422329804A900F0D5
:1081F400C8FD0028D5D5DCE7D9F8001051F8040BE8
:10820400C9F8001020F00004002121F0FF351FAB55
:10821400CDE904450793DDE9042308993C2413B907
:108224000AB9109898B102F00F053035641EEEB209
:108234003A2EA8BF2735120942EA03721B090D55CD
:1082440008BF002A03D007980D19A842EBD30819D8
:108254000790C4F13C0210980A92824209DABDF8F0
:108264004810821A4FF6EF7001400C92ADF8481096
:1082740097E7002895D59DF8480000F014001028D1
:108284008FD1119B09990C985B1A1B1A9A1A002A10
:1082940087DD0C9285E71499487820B14FF0FF34BC
:1082A4000FF69C1079E79DF84A00622862D068288E
:1082B40019D06A2840D06C2806D071284DD0742873
:1082C4002DD07A281ED064E0D9F8001051F8040BA0
:1082D400C9F8001020B94FF0FF340FF67C105CE7AA
:1082E4000F9901605DE7D9F8001051F8040BC9F843
:1082F400001020B94FF0FF340FF65C104DE70F99D2
:1083040001804EE7D9F8001051F8040BC9F80010A9
:108314000028E5D14FF0FF340FF63C103DE7D9F8C3
:10832400001051F8040BC9F800100028D8D14FF000
:10833400FF340FF6241030E7D9F8001051F8040B7D
:10834400C9F8001020B94FF0FF340FF60C1024E7E1
:108354000F9AD317C0E9002323E7D9F8001051F886
:10836400040BC9F800100028F2D14FF0FF340FF6C7
:10837400E80012E7D9F8001051F8040BC9F800100E
:1083840020B94FF0FF340FF6D00006E70F990170C3
:1083940007E7D9F8001051F8040BC9F800100028B9
:1083A4009ED14FF0FF340FF6B000F6E6D9F8002066
:1083B400D21D22F00702C9F80020D2E900010832D8
:1083C400C9F80020CDE90401C80F02D009982D2175
:1083D4000AE0BDF84800810702D509982B2103E083
:1083E400C00705D5099820211FAA1154401C0990E3
:1083F400DDE9042309991FA8CDE92E2308444BF095
:1084040020016129079015AC0BD01099002902D5E1
:108414000621109105E001BF4BF0200167290122DC
:108424001092DDE9042359004915491C10D11A039F
:108434000ED0ABF1610503211A2D0A9102D20FF679
:10844400A43101E00FF6A0310322FFF7A1F9A8E659
:1084540059004915491C0AD11A0308D1ABF1610529
:1084640003211A2D0A9116D30FF68431ECE7DDE9C6
:108474000401CDE93001DDE9302323F00047B7F5ED
:10848400801F22F000060DD20022002F08BF002E0C
:10849400029203D116E00FF65431D5E702AA01F097
:1084A400D3FE0FE0DFF8EC0ADFF8EC1A00EB17500C
:1084B4000290DDE930234FF0FF301940DFF8DC7A19
:1084C40010403943CDE904014BF0200061280DD15F
:1084D400079830210170821CBBF1610F07920CBF19
:1084E4007821582141700998801C0990DDE9040124
:1084F40020F0000231F0004308BF002A02D1002618
:10850400002571E14BF02008B8F1610F40F0BE8006
:108514001098002847BF21210391401C0390039F1A
:10852400DDE92E017F1C00220023DDE9044501F072
:10853400C3FE02998DF8542038BF85F00045091F09
:10854400002F02910DF155065DDDDFF8541ACDE9D7
:10855400302140F2FF732E93204629460022002347
:1085640001F0C2FE4FD24800400D00F11C0215D0AC
:10857400002A13DD2E9B9A420ADBDDE9300121F04B
:10858400004205F000400243DDE93001114611E0EC
:108594006FF31E5141EA025120460BE024F0000023
:1085A40035F0004108BF00280FBF29461C22294688
:1085B40001F0B2FE04460D4601F04CFFFF1F002FF0
:1085C400804609DD01F064FF02460B462046294639
:1085D40001F070FF04460D46F01D0721B8F1000FAD
:1085E4000CDD491E5EBF08F00F0200F8012D4FEAB2
:1085F4002818F3D502E0002200F8012D491EFAD50F
:10860400C61D002FA8DC0DF15500361A03988642CA
:10861400D8BF304600280DF1550430D4B04206DAF4
:108624000DF155010A5C082AA8BF0F2100DA0021C8
:10863400024615AB134400E0401E13F80159521EC4
:108644008D42F9D00F2904D10DF155018B5C5B1CCF
:108654008B54002A04D50299091D15AC401C0291C3
:10866400411E0CD46218ABF13A0613783033DDB2F4
:108674003A2DA8BFF318491E02F80139F5D510990F
:10868400002940F1AF80421E1092ABE00299DFF85E
:10869400142947F29750414391FBF2F2DDE92E454C
:1086A400029225F00045D2F1070204DD2046294656
:1086B40000F04CFC0BE052420020DFF8EC1800F014
:1086C40045FC02460B462046294601F05DFA044665
:1086D400B8F1660F109806BF029F0A3706273F18A5
:1086E400142FC8BF142730208DF854000D460020E5
:1086F400DFF8B818CDE92E010DF15506002F33DD52
:108704002046294601F036FC01460A4606F10803D4
:1087140004200A26B2FBF6F606EB860EA2EB4E0206
:10872400303203F8012C0A22B6FBF2F202EB820E7D
:10873400A6EB4E063036401E03F8026DE9D1083F21
:10874400002F03F10806D9DD084600F063FE024657
:108754000B462046294601F0ADFEDDE92E2301F04B
:1087640037FB04460D46CBE70DF15500361A0DF1E3
:10877400550404E00298401E761E0290641C207882
:108784003028F7D0B8F1660F02D10299491C04E0F1
:10879400B8F1650F0CBF012100211098081886421A
:1087A400B8BF701E00281DD4B04204DA215C3429FD
:1087B400C8BF392100DC30210246631E9D1800E049
:1087C400401E15F80169521E8E42F9D0392902D192
:1087D400A15C491CA154002A04D50299491C1C46D9
:1087E400401C02910646029D01F0D0FC406A0778C5
:1087F400DDF8408030B2002802DC01260FF2F47468
:108804004BF02000662808BF6D1C16D0672846D19F
:1088140028B210F1040F48DB404546DA9DF84800C1
:108824006D1C010703D430B24045B8BF804628B25E
:10883400B8EB000848BF4FF000080FFA85FB079813
:108844000A99BBF1000F00F3B2804A1C0A9230234C
:108854004354B8F1000F03DC9DF84800010704D528
:108864000A98411C0A9107990F5418EB0B0FB8BFD3
:10887400C8F100052DB268420D90A84432B290456B
:10888400B8BF4646079B0A9836B20B963246214635
:108894001844FEF77DFFA8EB06000E90CBE0BBF179
:1088A400610F17D14FF0700B19E030B2404504DA74
:1088B4009DF848100A0758BF8046B8F1010848BF20
:1088C4004FF00008BBF1670F14BF4FF0450B4FF09A
:1088D400650B04E0BBF1410F08BF4FF0500B0A9841
:1088E400411C0A91B8F1000F079914F8012B0A549E
:1088F40003DC9DF8480001071AD50A98411C0A9127
:10890400B8F1000F07990F5412DD761E30B280457E
:1089140007980A9BB8BF464632B221461844FEF770
:1089240037FF0A9936B271180A91A8EB06000D9028
:1089340007980A9908442AB2002A80F800B003D4A0
:108944002B224270811C04E02D2141701546811CAC
:108954006D4200202EAA0A2409E02B4693FBF4F56D
:1089640005EB8506A3EB460302F8013B401C2DB240
:10897400002DF2DC012806DC4BF02002652A04BF3E
:10898400302201F8012B00282EAA08D1302001F84A
:10899400010B06E0401E135C303301F8013B002854
:1089A400F8DC079A0A981044091A0B9143E008442A
:1089B40031B22AB2914219DA32B22146FEF7E8FE08
:1089C4000A9936B27118ABEB0606B8F1000F0A919A
:1089D4000D9603DC9DF84800020704D50798475418
:1089E4000B99491C0B91CDF8388024E02146FEF701
:1089F400CFFE0A98761B5844B8F1000F0A9003DCA6
:108A04009DF848100A0703D5411C0A9107990F5491
:108A140030B2804507980A9BB8BF464632B204EB91
:108A24000B011844FEF7B4FE0A9836B230180A90C7
:108A3400A8EB06000D909DF8480000F014001028E3
:108A44007FF4AFAB099A0A990D988A180B9982188A
:108A54000E988A18821811988242BFF6A2AB821A25
:108A640017E49DF84A00622808D068280ED06A28C6
:108A740014D06C281FD0712810D01CE0D9F8001035
:108A840051F8040BC9F80010C0B21AE0D9F800106C
:108A940051F8040BC9F8001080B212E0D9F8002094
:108AA400D21D22F00702C9F80020D2E900010832E1
:108AB400C9F8002006E0D9F8001051F8040BC9F8F1
:108AC40000100021CDE904019DF8480001075AD5A2
:108AD400DDE90423002B08BF002A54D04BF020000A
:108AE400782850D109981FA930220A54401C431CED
:108AF400099301F800B046E09DF84A00622808D0C6
:108B040068280ED06A2814D06C281FD0712810D081
:108B14001CE0D9F8001051F8040BC9F8001040B259
:108B24001AE0D9F8001051F8040BC9F8001000B28B
:108B340012E0D9F80020D21D22F00702C9F8002063
:108B4400D2E900010832C9F8002006E0D9F8001083
:108B540051F8040BC9F80010C117CDE9040100292C
:108B640002D509982D210AE0BDF84800810702D5F5
:108B740009982B2103E0C00705D5099820211FAAD5
:108B84001154401C09901FA809990144079104A895
:108B9400594600F056F9FFF704BB9DF84A006C28CB
:108BA4000BD001210991D9F8000050F8041BC9F831
:108BB40000008DF87C10FFF7F4BAD9F8000050F8E3
:108BC400041BC9F8000015914FF0FF3210920021E8
:108BD400169115AAFFF709BB25210122BBF1000F4D
:108BE4008DF87C1009923FF4DCAA8DF87DB0022147
:108BF400FFF7AABACBCCCC0C686A6C747A4C000030
:108C04007072696E74665F733A2062616420256CC9
:108C14007320617267756D656E7400007072696EA1
:108C240074665F733A206261642025732061726701
:108C3400756D656E74000000000000000000000007
:108C44007072696E74665F733A20256E206469736E
:108C5400616C6C6F776564007072696E74663A203B
:108C640062616420256E20617267756D656E7400A3
:108C740033B0BDE8F08F2DE9FC410F46064690461F
:108C84007A6B7869396ABC6A121AB869521A796AB5
:108C9400121AF869521A121A97F83800141B41076D
:108CA4000FD42020002C8DF800000ADD2546012376
:108CB4006A463946304600F07DF900285DD16D1EC4
:108CC400F5D17B6942463946304600F073F90028F5
:108CD40053D130208DF800003D6A002D09DD0123B9
:108CE4006A463946304600F065F9002845D16D1EC4
:108CF400F5D1BB69FA683946304600F05BF90028C3
:108D04003BD130208DF800007D6A002D08DD012361
:108D14006A463946304600F04DF970BB6D1EF6D1F7
:108D2400F868B969FB6942183946304600F042F9DF
:108D340018BB30208DF80000BD6A002D08DD01232A
:108D44006A463946304600F035F9B0B96D1EF6D1A1
:108D540097F8380041070DD52020002C8DF800002D
:108D640008DD01236A463946304600F023F920B96C
:108D7400641EF6D10020BDE8F6814FF0FF30BDE857
:108D8400F6812DE9F8470D46A3B02F6B002F8246DC
:108D9400904648BF6FF0004701F0FDFB696B401837
:108DA40001AA0021C2E90011812828BF4FF0FF3039
:108DB40044D289461EE0A74230DB68692018812826
:108DC4000BD30021696303AA29465046FFF753FFDA
:108DD4005FEA000922D40020686103AB6E69224671
:108DE40069469819FEF7D4FCA6196E6158F8040B6D
:108DF400A0B13F1B002F11DDD8F8001001AA68466E
:108E040001F0C2F90446002C05D4D8F8000000286B
:108E1400D1D1641ECFD54FF0FF390EE0B9F1000F68
:108E2400504604D103AA2946FFF725FF8146B9F12C
:108E3400000F02D1002068616863484624B0BDE891
:108E4400F0872DE9FC4307466F293E6908BF0824D3
:108E540005D041F02000782814BF0A2410243C25B2
:108E6400D7E90023642918BF69299046994605D19A
:108E7400002B03D5D8F1000869EB4909B9F1000FBB
:108E840008BFB8F1000F0CD1386B50B9082C39D198
:108E940097F83800010735D530203B2586F83B008C
:108EA40030E08DF80010404649462246E31701F0B1
:108EB40077FB3032D0B26D1E3A28019504DB9DF861
:108EC4000000A0F151018A187255404649462246D5
:108ED400E31701F065FB80465FEA010908BFB8F1BA
:108EE400000F03D0F86871198842DCD3082C09D12B
:108EF40097F83800010705D5705D302802D06D1E43
:108F040030207055C5F13C02BA617119F960386BB3
:108F1400824208DA821A3A624FF6EF70398F0140C2
:108F24003987BDE8F38300280ED597F8380000F0A0
:108F34001400102808D17B6B7969386A5B1A1B1AF4
:108F44009A1A002AC8BF3A62BDE8F3832DE9D043D8
:108F540006460F4614464FF00008DFF8549012E01E
:108F6400E00707D542464B463046394600F030FF0D
:108F740006460F464046494642464B4600F028FF07
:108F8400641080468946002CEAD130463946BDE853
:108F9400D083000002FCFFFFFFFF0F800000E03FD2
:108FA4000000F07FA08601000000F03F84D79741C5
:108FB40000002440F8B505460E4617461C4600201E
:108FC4005CB117F8011BB068A847B06030B1F06A13
:108FD400401CF0620020641EF3D1F2BD4FF0FF305C
:108FE400F2BD00006E616E004E414E00696E660077
:108FF400494E460030002E0030B585B004000421EF
:1090040000226D462800FBF791F81021002201ADE3
:109014002800FBF78BF8A04D280001F0D9FB9F48EE
:109024008188ADF8001003218DF8021018218DF805
:1090340003106946006800F0B1FF99488188ADF8D3
:10904400001048218DF803106946006800F0A6FF5F
:1090540001940020ADF808000020ADF80A000020BB
:10906400ADF80C000020ADF810000C20ADF80E0097
:1090740001A9280001F0F4FB0121280001F066FC9D
:10908400012240F22441280001F06FFC01228021DA
:10909400280001F0A2FC01224021280001F09DFCDF
:1090A40005B030BD38B50400042100226D46280007
:1090B400FBF73CF825208DF8000003208DF8010013
:1090C40002208DF802008DF80340684601F0F5FC9B
:1090D40031BD4FF460514843401C0100481E002933
:1090E400FBD1704770B504000D0000260220FFF785
:1090F400F0FF002001002A0089B292B291420AD204
:10910400010089B2615C674A1180634909880906D4
:10911400FBD5401CEEE770BD70B58CB004000D00AB
:10912400614E300001F020FD5E4801900294102051
:10913400039004950020059080200690002007905D
:1091440000200890002009904FF440500A9000201D
:109154000B9001A9300001F07FFD012202213000B3
:1091640001F098FD4FF40050504908603068400801
:1091740040003060484800884006FBD50E208DF83A
:10918400000002208DF8010000208DF8020001206B
:109194008DF80300684601F090FC0CB070BD70B50A
:1091A4008CB004000D00042100226E463000FAF752
:1091B400BDFF2C21002201AE3000FAF7B7FF3C4E70
:1091C400300001F0D1FC3748019002940020039054
:1091D4000495002005908020069000200790002030
:1091E4000890002009904FF440500A9000200B9002
:1091F40001A9300001F030FD01220221300001F00C
:1092040049FD5FF400302949086030684008400097
:1092140030600F208DF8000003208DF8010001203C
:109224008DF8020001208DF80300684601F045FC2A
:109234000CB070BD10B51D485FF4003101601C49CD
:109244000A68520852000A604FF40051016016483F
:1092540001684908490001600F4C20884006FBD58D
:109264000020FFF71FFF002240F22441200001F0FC
:109274007CFB00228021200001F0AFFB0022402172
:10928400200001F0AAFB0021200001F05FFB200078
:1092940001F09EFA10BD00000038014000E400080F
:1092A40008E400080438014044000240040002407D
:1092B4005800024000F10103810704D010F8011B9B
:1092C400820781B1FAD10268A2F10131914311F010
:1092D400803104BF50F8042FF6E709BAB1FA81F1DE
:1092E40000EBD100401CC01A7047430030B585B074
:1092F4000400042100226D462800FAF717FF10210C
:10930400002201AD2800FAF711FF3E4D280001F0BC
:109314005FFA3D488188ADF8001003218DF80210F2
:1093240018218DF803106946006800F037FE3748AD
:109334008188ADF8001048218DF803106946006853
:1093440000F02CFE01940020ADF808000020ADF8D8
:109354000A000020ADF80C000020ADF810000C202D
:10936400ADF80E0001A9280001F07AFA01212800C5
:1093740001F0ECFA05B030BD1CB5042100226C46A6
:109384002000FAF7D3FE34208DF8000003208DF876
:10939400010002208DF8020001208DF803006846C8
:1093A40001F08BFB13BD70B504000D00154E40F2A7
:1093B4002771300001F068FB2200D2B240F225513F
:1093C400300001F0D2FA2A00D2B240F22661300015
:1093D40001F0CBFA70BD10B4002200231A000C0077
:1093E40092B2A4B2A2420AD21A0092B2825C084C8F
:1093F4002280044A12881206FBD55B1CEEE710BCDF
:1094040070470000004C004088E4000890E4000825
:10941400044C0040014648B1B0FA80F18840C91CB0
:10942400C1F58461090501EBD021400570470000B6
:109434002DE9F04D16461F46044626F0000A37F083
:10944400004008BFBAF1000F8AB00D4600F0568301
:109454000020DFF8B41622462B4601F043FC00F04E
:109464004D83DFF8A81601F03DFC06D178004015C5
:10947400401C02D1390300F0418368004015401CB0
:1094840000F0588224F0000035F0004108BF0028A5
:1094940000F0508278004015401C00F04B82BB461F
:1094A4004FEA4B0151EADA714FEA4A0008BF00283B
:1094B4001CD040F23342A2EB5150352804DB0AF0B1
:1094C400000A0BF0004B11E0202805DD20382BFAB0
:1094D40000F101FA00FB00E002D14FF0000A05E0C0
:1094E4000028C4BF2AFA00F101FA00FAE80F22D0DA
:1094F400390007D500224FF00043921BBB41CDE950
:10950400002301E0CDE9006759460029504605D5FE
:1095140000224FF00043101A63EB0101DDE9002340
:109524008B4208BF824206D0AFF300804FF0FF3079
:109534006FF00041E4E225F00041B1F5801F24F012
:1095440000000CD20022002908BF0028029211D08A
:1095540002AA294600F078FE04460D460AE0DFF828
:10956400B02502EB1150DFF8AC1502900D40DFF886
:10957400A8150D43E80F08BF00223DD059465046B8
:109584004B0043EAD0734200002B08BF002A25F0A9
:10959400004517D040F2344CACEB5352352A04DB6F
:1095A40000F0000001F000410CE0202A03DD203A25
:1095B400D140914000E001D1002003E0002AC4BF63
:1095C400D0409040BBF1000F06D500224FF000437D
:1095D400B2EB0A0A63EB0B0B002905D500224FF00E
:1095E4000043101A63EB01018B4508BF824502D189
:1095F4000021059101E0012205920298012833D14E
:1096040020462946DFF81425DFF8143500F054FE0F
:109614002AD248004FF00008400DC246DFF8E8B4F3
:1096240000F1010212D0002A10DD40F2FF708242E4
:1096340007DBDFF8F01405F00043002443EA0105DA
:1096440033E06FF31E5141EA02552EE024F000008E
:1096540035F0004108BF002827D00122294600F038
:109664005BFE04460D4620E00020DFF8BC142246D1
:109674002B4600F0ADFBDFF8A0B400225B4601F0FE
:1096840041FB00F0E7FEA0F12008404600F000FF97
:109694000022DFF8983400F09BFB00225B4601F0C7
:1096A40031FB82468B464FEA4818204629465246EB
:1096B4005B4600F0FFFECDE9000152465B462046C2
:1096C400294601F01FFB02460B46DDE9000100F0CC
:1096D4005BFACDE90601DDE9062300F079FBCDE96B
:1096E40000015246204629465B4600F0E3FEDDE9D0
:1096F400002304460D46DFF83804DFF8381400F080
:1097040067FBDFF83424DFF8343401F0FBFADDE9D9
:10971400002300F05DFBDFF82824DFF8283401F093
:10972400F1FADDE9002300F053FBDFF81C24DFF835
:109734001C3401F0E7FADDE9002300F049FBDFF80F
:109744001024DFF8103401F0DDFADDE9002300F025
:109754003FFBDFF80424DFF8043401F0D3FADDE939
:10976400002300F035FBDFF8F823DFF8F83301F0CD
:10977400C9FACDE9080152460020DFF88C135B4694
:1097840000F098FE0B465A00520D02F1010C15D060
:10979400BCF1000F12DD40F2FF72944508DBDFF8E4
:1097A400842301F000404FF0000A40EA020B10E06D
:1097B4006FF31E5343EA0C5B82460AE020F000027A
:1097C40031F000430EBF002A012200F0A5FD8246BD
:1097D4008B46DDE90023DDE9080100F0F9FA2246B1
:1097E4002B4600F067FE52465B4601F08BFADDE93A
:1097F400062300F0EDFADFF800E3FE440EF2FA2E41
:10980400C644CDF804E022462B4601F07BFA044618
:1098140002980D4600F03CFEDDF804E0DEE900238A
:1098240001F070FACDE906012246DFF83C03DFF8C7
:109834003C132B4600F0CCFADDE9062301F062FA72
:1098440032463B4600F0C4FA0022DFF8243300F02D
:1098540033FD66D30122DFF81C3300F045FD5DD9EA
:10986400CA0F1ABF0022C44BAB4B01F04BFA00F0F5
:10987400F1FD0022A44BDFF804A3DFF804B3CDE923
:1098840003238046CDF8008032463B4620462946D5
:1098940000F09EFA044601988446D0E902230D465E
:1098A400DCE9040101F02EFA32463B4600F090FA5E
:1098B40052465B4600F08CFA22462B4601F022FA0F
:1098C400CDE90101DDE906453046394622462B46FD
:1098D40000F07EFA04460D46404600F0D9FD0246EB
:1098E4000B462046294600F0E5FD52465B4600F053
:1098F4006FFADDE9012301F005FADDE9032301F044
:10990400BFFA20F0000631F0004708BF002E08D04F
:109914004A005215521C06D10B0304D10020814980
:1099240001E000200021059A002A00F0E98081F07E
:109934000041E5E068004015401C04D1290302D031
:1099440020462946DCE078004015401C04D1390348
:1099540002D030463946D3E0790001204915491C2C
:109964007CD03B46590051EADA7B4FEA4A0104BFF6
:109974000029CDE90067324619D040F23341A1EB0A
:109984005B51352904DB02F0000203F000430CE0D4
:10999400202903DD2039CB408B4000E001D1002297
:1099A40003E00029C4BFCA408A40CDE900233B003C
:1099B40008D500214FF0004B8A1B6BEB0303CDE964
:1099C400022301E0CDE90263DDE90023002B05D584
:1099D40000214FF000468A1A66EB0303DDE902AB6F
:1099E4009B450CBF92450020DDE90023590041EA64
:1099F400D2765100002E08BF002917D040F234411E
:109A0400A1EB5651352904DB02F0000203F00043B8
:109A14000CE0202903DD2039CB408B4000E001D14C
:109A2400002203E00029C4BFCA408A40B0B1DDE986
:109A34000001002905D500264FF0004B301A6BEBCE
:109A44000101002B05D500264FF0004BB21A6BEB39
:109A54000303994206BF9042002001206900491582
:109A6400491C07D12A0305D1EC0F1BD1FE0F3FD0AF
:109A7400002045E079004915491C1BD13A0319D14E
:109A840025F00041B1F5801F24F000001DD2002212
:109A9400002908BF002800921BD06A46294600F01E
:109AA400D3FB16E0FE0F02D1002822D01DE00028CF
:109AB40026D006E0002814BFEC0F0024FE0F13D1BB
:109AC4007CB100204FF000411AE0114A02EB115022
:109AD4000090FE0F009802D1002809DC01E0002864
:109AE40006DD002000210BE014B10020254907E029
:109AF40000200C4904E000BF743D0000002002492E
:109B04000AB0BDE8F08D00000000F03F0000F0BF97
:109B140002FCFFFFFFFF0F800000E03FCD3B7F66AC
:109B24009EA0E63F0000F07F000050400000903F00
:109B3400F7DE29BFD8F8C23FF4B3FECC1A99C33F6D
:109B440062CB68D96F46C73FC6C912DAC471CC3F2D
:109B54004AE98A942449D23FF75F97999999D93F62
:109B6400BC5555555555E53FFE822B654715F73FC6
:109B74000000E0C00000E0400000E0BFEF39FAFE62
:109B8400422EE63F0000F0FFF0B540F2FF7581EA97
:109B9400030C0CF0004C15EA11541DBF15EA1357C1
:109BA400AC42AF42E5E0BC41C1F31301C3F313037C
:109BB400801A994143F4801304D2641E4000494141
:109BC40080185941C90241EA5051B1FBF3F603FB35
:109BD4001611A2FB0675D7EBC020A94102D2761E4E
:109BE40080185941C90241EA5051B1FBF3FE03FB0D
:109BF4001E11A2FB0E75D7EBC020A94103D2AEF112
:109C0400010E80185941890241EA9051760546EACD
:109C14008E2EB1FBF3F603FB1611A2FB0675D7EBF0
:109C24008020A94102D2761E80185941C90241EA16
:109C340050514EEA060EB1FBF3F603FB1611A2FBDC
:109C44000675D7EBC020A94102D2761E801859416F
:109C5400C90241EA5051B1FBF3F703FB1711A2FB10
:109C64000735D3EBC020A94167F100070CBF0042C0
:109C740047F0010766F3D5274FEA1E31B80814F5FB
:109C8400806412DDBD0775F1004250EB0E5051EBBC
:109C9400045111F5801F5CBF41EA0C01F0BD4CF08A
:109CA4007F6141F0E0410020F0BDBD076D0840EA4E
:109CB4000E5041F48011D4F10104B4F120060ADA03
:109CC400C4F120060200E04001FA06F3E140184323
:109CD400B24015430EE0342C13DCC6F1200445EAEF
:109CE40040056D0820FA06F2154321FA06F0A1405A
:109CF4000D43002175F1004250F1000051EB0C01BD
:109D0400F0BD00205FEA0C01F0BDCFB992185B41B1
:109D1400B3FA83F704BFB2FA82F6BF190B3FB7F167
:109D240020062FBF02FA06F3BB40C7F1200622FA31
:109D340006F638BF3343BA401CB1E419641E33E756
:109D44007F4231F00041B1FA81F404BFB0FA80F6E9
:109D5400A4190B3CB4F120062FBF00FA06F1A14070
:109D6400C4F1200620FA06F638BF3143A0403C1B5C
:109D74001AE7AC421ABF05EA1357AF4212E050EAA1
:109D840041061CBF52EA4306BFE750EA410730468A
:109D940061461CBF41EA0551F0BD52EA430C08BFBD
:109DA400C143F0BD00204FF4001616EB410F98BFDD
:109DB40016EB430F08BF16EB410F24BFC14305E068
:109DC40016EB430F0CBF61464CEA0551F0BD000091
:109DD400B0B581EA030C0CF0004C40F2FF7515EAB3
:109DE40011541DBF15EA1357AC42AF4239E0E419D0
:109DF40023EA455343F48013C90241F0004141EA88
:109E0400505EC7021100A7FB020200284FF00000B9
:109E1400EEFB01204FF00001E3FB072118BF42F0E5
:109E24000102401800214941E3FB0E01A4F58064BE
:109E34000F0302D252004041494154F101046CDD48
:109E4400470872F1004250F1000051EB0451A1F5B2
:109E540080115CBF41EA0C01B0BD4CEA0551002001
:109E6400B0BD05EA1357AC4214BFAF4241E050EA1B
:109E7400410E1CBF52EA430E02E061460020B0BD11
:109E840024423C441BD15FEA070EF6D0090302BF0B
:109E940001460020AEF1140EB1FA81F7AEEB0704CF
:109EA40001FA07FE0C37C7F1200100FA07F7C84092
:109EB4004EEA000E23EA455343F48013A2E733F03D
:109EC4000043B3FA83F704BFB2FA82FE77440B3F30
:109ED400E41BB7F1200E2FBF02FA0EF3BB40C7F10B
:109EE400200E22FA0EFE38BF43EA0E03BA40641C69
:109EF40082E750EA410E14BF52EA430E6FF00001AC
:109F04004FF4001717EB430F8ABF194617EB410FA5
:109F1400B5E74CEA05510020B0BDD4F10104B4F119
:109F240020070FDAC4F12007520828BF42F00102CB
:109F340010FA07F501FA07F7E1BF2A43E040384376
:109F4400E1400FE0352C98DCC7F1200452EA4002CE
:109F540020FA07F218BF42F0010231FA07F0A140DB
:109F64000A43002172F1004250F1000051EB0C0150
:109F7400B0BD0000400D491840EA81200CD2490DC3
:109F8400A1F58061491C40F0004005DBD1F11F01BF
:109F940054BFC840C017704700207047F0B5002276
:109FA4000023002400250026002791F803C01CF09C
:109FB4000F0C91F803E05FEACE6E02D58A7852EA7C
:109FC4000C0C0A7812062AD002681600002214002B
:109FD400082C23D25FF0010E1EFA04F215000A8841
:109FE4002A401300AB4217D1A20015000F22AA4049
:109FF4001700BE431CFA05F21643CA78282A04D176
:10A004001EFA04FEC0F814E006E0CA78482A03D118
:10A014001EFA04FEC0F810E0641CD9E706600A8842
:10A02400B2F5807F2EDB4268160000221400082C53
:10A0340027D25FF0010E14F108021EFA02F2150095
:10A044000A882A401300AB4219D1A20015000F223E
:10A05400AA401700BE431CFA05F21643CA78282A00
:10A0640004D114F108021EFA02F24261CA78482AA5
:10A0740005D114F108021EFA02FEC0F810E0641CB7
:10A08400D5E74660F0BD0A0092B202617047F0B4B1
:10A094000022002300250027002802D51D4C246837
:10A0A40001E01D4C2468C0F3034586B210F4401C43
:10A0B400BCF5401F07D134F07064174A176837F0B5
:10A0C4007067176011E0C20206D50322AA4013008C
:10A0D4009C4354F0706408E00200520DD2B21201A5
:10A0E40016FA02F2944354F070640A00D2B2002AC1
:10A0F40006D00200520DD2B2120116FA02F2144333
:10A10400002802D5034A146001E0034A1460F0BC3D
:10A11400704700001C000140040001401C487047C7
:10A1240070B45368D41801E05B1C491E042B08DA90
:10A1340000291FBF057804F8015B10F8016B002E9D
:10A14400F2D1536070BC704738B514461D4661B1F6
:10A15400FFF7E6FF61686A6B204690476FF00102E3
:10A16400811A02D0491E01D001E003E005E000217C
:10A17400616032BD6FF0010032BD4FF0FF3032BD7F
:10A18400DA6B1047024BDFE7014BF9E701487047F0
:10A194007C00002044000020C9B202788A421AB12F
:10A1A4001CBF10F8012FF9E718BF0020704700000A
:10A1B40080B500B906A005490B681BB12222002115
:10A1C400984701E001F016F8222002BD3C28002047
:10A1D400636F6E73747261696E742068616E646C0F
:10A1E40065723A20626164206D657373616765000E
:10A1F400C9B2830706D0521E22D310F8013B9942FC
:10A20400F7D11FE0083A13D302F1040241EA012115
:10A2140041EA014150F8043B121F21BF4B40A3F116
:10A22400013C2CEA030C1CF0803FF3D0C9B2001FA0
:10A23400083210F8013B521E28BF91EA030FF8D8E8
:10A2440018BF0120401E704710B5144600F002F8F4
:10A25400226010BDC1F30A5343B14A0012F5001F36
:10A2640028D2A3F2FE32A1EB0251704750EA410C0E
:10A2740020D001F0004C31EA0C01B1FA81F204BFA4
:10A28400B0FA80F3D2180B3AB2F120032CBF00FAD3
:10A2940003F1914041EA0C013EBFC2F1200C20FAC7
:10A2A4000CF319439040524240F2FD33D21A01EBB1
:10A2B40003517047002270474FF4001C1CEB410F00
:10A2C40094BF1CEB430F09E041EA030C50EA4C0C29
:10A2D40052EA0C0C03D2994208BF9042704714BF53
:10A2E4008B428242704700004FF4001C1CEB410F6C
:10A2F40094BF1CEB430F09E041EA030C50EA4C0CF9
:10A3040052EA0C0C03D28B4208BF8242704714BF3E
:10A314009942904270470000124254D440F2FF7CAC
:10A324001CEA11530FD0634531D09B1863453CBFE1
:10A3340001EB0251704701F0004141EA0C51002049
:10A34400AFF30080704750EA410320D001F0004C85
:10A3540091EA0C011CD0B1FA81F30B3B9A420DD95E
:10A36400D21A994051EA0C01C3F1200C20FA0CFCDA
:10A3740061449840531C40F2FF7CD7E7914041EA86
:10A384000C01C2F1200C20FA0CF3194390407047E1
:10A39400B0FA80F31533202BE0D3202AEED3203AF1
:10A3A400203B9A4209D9D21A00FA03F141EA0C017E
:10A3B4000020531C40F2FF7CB8E700FA02F141EAA6
:10A3C4000C0100207047524240F2FF7C1CEA1153FA
:10A3D4000DD06345DBD0B2EB030C3CBFA1EB0251C3
:10A3E40070470CF1010221EA035141F4801150EA53
:10A3F400410CCCD001F0004C352A27DC30B481EA82
:10A404000C01B2F1200309DAC2F12003044601FA77
:10A4140003F5D0402843D1409C400CE0C3F1200216
:10A42400450020FA03F418BF44F0010421FA03F0B4
:10A4340091400C43002174F1004550F1000051EBB0
:10A444000C01244230BC7FF47BAF7047614600208E
:10A4540076E70000C1F30A5340F2FE329B1A14DD82
:10A46400D3F120034FEAE17208DDC90241EA5051F9
:10A4740041F00040D84080185040704703F2E1306A
:10A4840010B1D24382F000407047002070470000B2
:10A49400C11768B14840401AB0FA80F29040D21C0B
:10A4A400C907C2F5846241EA025202EBD021400599
:10A4B4007047000070B44FF0004591EA030F40F17B
:10A4C40029846B40841A71EB030603D2001BB1414B
:10A4D400121973414FF4001C1CEB410F34BF7CEB89
:10A4E400430442E00C0DA4EB1356352E4FDC45EA31
:10A4F400C323DB0A45EAC121C912B6F120050DDDEB
:10A5040063FA05F6EB4086EA0305124218BF45F0EC
:10A514000105C01851F100010CD213E062FA06F5EE
:10A52400F2405540F3415A40B340F3405A4080183A
:10A53400594107D349085FEA30005FEA350528BF6F
:10A5440045F0010501F58011420875F1004250F112
:10A55400000041EB04514E0016F5001F70BC38BFDB
:10A5640070470020090D090570471CEB410F10D2FC
:10A5740052EA43060BD0BCEB410F05D80C0DAB439C
:10A58400661E342EB6DD02E0AB438018594170BC20
:10A59400704770BC704780B5FFF7C0FD006C02BD0A
:10A5A400BBBBE1B1B2F5803F80F07E80022A1ED9A8
:10A5B4008C46B1FBF2F102FB11C31B0443EA1043C6
:10A5C400B3FBF2FC02FB1C3380B240EA0343B3FB4F
:10A5D400F2F002FB103240EA0C4000237047022ADA
:10A5E40005D98446B0FBF2F002FB10C270474AB1B1
:10A5F40005D100F0010249085FEA300070470022EB
:10A604000023704700F0FABD0B0002000021002077
:10A614007047904271EB030CF6D3B3F5803F2FD211
:10A62400F0B5B3FA83F7B1FA81F4A7F10F0E3D1B2D
:10A634005340CEF1200602FA0EF2F3415340B5F135
:10A644000F0746D80F3C2C444140C4F12006A040DB
:10A65400F1414140B1FBF3F603FB1611A2FB0645A1
:10A66400001BA94102D2761E8018594180EA0102DA
:10A6740021FA0EF362FA0EF200215A403046F0BD80
:10A6840030B4B1FBF3FC03FB1C11A2FB0C45001B13
:10A69400A94103D2ACF1010C8018594130BC0246E7
:10A6A4000B46604600217047B2F1807F65D3F0B558
:10A6B400B2FA82F7B1FA81F4C7F10F063D1B22FA10
:10A6C40006F307F1110EF24120355A40B5F10F0798
:10A6D400B8D94140C4F12006A040F1414140B1FB4A
:10A6E400F3FC03FB1C11A2FB0C45001BA94103D284
:10A6F400BCF1010C801859410F2F12D30F3FC9032D
:10A7040041EA5041B1FBF3F603FB1611A2FB0645E7
:10A71400D4EBC030A94102D2761E8018594146EAD2
:10A72400CC3C07B34140C7F12006B840F141414059
:10A73400B1FBF3F603FB1611A2FB0645001BA9416E
:10A7440002D2761E8018594180EA010221FA0EF3E2
:10A75400C7F1200462FA0EF20CFA07F05A402CFA00
:10A7640004F13043F0BD80EA010221FA0EF3002126
:10A7740062FA0EF260465A40F0BD8C46B1FBF2F12B
:10A7840002FB11C31B0243EA1063B3FBF2FC02FB9E
:10A794001C331B024CEA002043EA1063B3FBF2FCB7
:10A7A40002FB1C331B024CEA002043EA1063B3FB98
:10A7B400F2FC02FB1C331B024CEA002043EA106348
:10A7C400B3FBF2FC02FB1C324CEA0020002370476E
:10A7D40010B50400584884420AD101214FF4804046
:10A7E40000F042FE00214FF4804000F03DFE36E0D0
:10A7F400524884420AD101215FF4003000F042FE45
:10A8040000215FF4003000F03DFE28E04C48844213
:10A814000AD101215FF4802000F034FE00215FF4AE
:10A82400802000F02FFE1AE0464884420AD101211C
:10A834005FF4002000F026FE00215FF4002000F009
:10A8440021FE0CE04048844209D101215FF48010CC
:10A8540000F018FE00215FF4801000F013FE10BD1C
:10A864002DE9F84F86B004000D00002600275FF0A4
:10A8740000085FF000095FF0000AA8890028A346D9
:10A88400218A4CF6FF700140E8880143009100984A
:10A894002082A1894EF6F3100140AA882889024338
:10A8A40068890243114300910098A081A18A4FF660
:10A8B400FF400140A889014300910098A08201A8AB
:10A8C40000F03CFD1C48834501D1049900E0039944
:10A8D400A089000407D5192000FB01F02A68520062
