:020000040800F2
:10400000605600209DF20008F1EB0008F3EB000879
:10401000F5EB0008F7EB0008F9EB000800000000E2
:10402000000000000000000000000000FBEB0008A2
:10403000FDEB000800000000FFEB000801EC0008A9
:10404000F1F30008F5F30008F9F300088DEE00081D
:10405000FDF3000801F4000805F4000809F4000865
:104060000DF4000811F4000815F4000819F4000814
:104070001DF4000821F4000871ED00084DED000862
:10408000D5EC0008F9EC000825F4000829F4000834
:104090002DF4000831F4000835F4000839F4000864
:1040A0003DF4000841F4000845F4000849F4000814
:1040B0004DF4000851F4000855F4000859F40008C4
:1040C0005DF4000861F4000865F4000869F4000874
:1040D0006DF4000813ED00089BEC000893ED000858
:1040E00071F4000875F4000879F400087DF4000804
:1040F00081F4000885F4000889F400088DF40008B4
:1041000091F4000895F4000899F400089DF4000863
:1041100065EC000807EE0008A1F40008A5F400080B
:10412000A9F40008ADF40008B1F40008B5F40008E3
:1041300062F30F2262F31F42401810F0030308D00D
:10414000C91A1FD3DB0748BF00F8012D28BF20F88C
:10415000022D130030B414461546103928BF20E94B
:104160003C00FAD8490728BF20E90C0048BF40F8B6
:10417000042D890028BF20F8022D48BF00F8012D2A
:1041800030BC7047C91818BF00F8012DCB0728BFF5
:1041900000F8012D704700000022FFF7CDBFF009A5
:1041A00004CEB4B0F3B6A8CDD0C5CC0001F00C0558
:1041B000C4FAB6D4B8C3B2CBC6B7B9FDC3F424832E
:1041C00001011820020102030404F009080607088F
:1041D0000902040608E291000452FF01E39E8614DE
:1041E000200400003E90000857F0031660000020F5
:1041F00000012002F37F00082C43E17F3C210100F5
:04420000010100FFB9
:10500000204353313131302032333039323630326F
:105010002047323330323030000000000000000002
:105020000000000000000000000000000000000080
:0250300000007E
:105034002DE9F0476C240025DFF8AC6C2A00210030
:105044003000FFF773F840F62C060027DFF89C8C3D
:105054003A0031004046FFF769F840F638285FF01F
:105064000009DFF88CAC4A4641465046FFF75EF82B
:1050740000F04DF8002804D00320DFF8781C4870B5
:1050840003E00220DFF86C1C4870DFF86C4C14F16C
:10509400080000F068F960806088A080DFF8441C94
:1050A40000208870DFF8542C507C20282ADA06204F
:1050B400537C134483F86900507C02EB80004FF466
:1050C4009673C0F8AC301020537C134458750120FB
:1050D400537C134483F889000E20537C134483F8D3
:1050E4003500507C401C50745078002805D0907CCA
:1050F400104490F835000E2804D0507C401E907463
:1051040004205070087801F0F1FBBDE8F0872DE928
:10511400F0475FF0000800240025DFF8C86B320078
:105124001821002002F00CFD07003800C0B200284E
:1051340010D05FF000085FF000091421300002F085
:105144001BFE716902000B0092B29BB29A4201D01D
:1051540000221700320018214FF4807002F0F0FC96
:1051640080464046C0B200280FD000245FF00009FA
:105174001421300002F000FE716902000B0092B2AB
:105184009BB29A4201D00022904658EA0700C0B26E
:1051940000281ED118245FF00009B2464A462100B7
:1051A4005046FEF7C3FF0020B0700020707001204D
:1051B400B081FF207071B071F07130720120F07015
:1051C40000203071002030701420306100F068F845
:1051D40026E03800C0B201280FD14046C0B20028F2
:1051E4000BD132001821002002F0AAFC3200182151
:1051F4004FF4807002F06BFD12E03800C0B200285A
:105204000ED14046C0B201280AD1320018214FF411
:10521400807002F095FC32001821002002F057FD46
:1052240002F006FE45F25550DFF8DC1D0A88824282
:1052340008D14A88737A9BB29A4203D18A88B38987
:105244009A4206D00880B089888002F075FE02F088
:10525400A0FE3800C0B2012805D14046C0B20128E2
:1052640001D1012005002800C0B2BDE8F08710B5C7
:105274000024DFF8842A40214FF4C87002F060FC57
:10528400C0B210BDF8B504000D00160000273200AE
:10529400290089B2200080B202F052FCC0B2F2BDF3
:1052A40070B50024DFF83C6A0020706114213000DE
:1052B40002F062FD706132001821002002F007FD47
:1052C4000500320018214FF4807002F000FDC0B2D6
:1052D40070BD38B50024DFF8205A0020E8633C2173
:1052E400280002F049FDE8632A0040214FF4C87009
:1052F40002F0EDFCC0B232BDF8B504000D0016009A
:1053040000273200290089B2200080B202F0DFFCBD
:10531400C0B2F2BD30B40100802400200022002578
:105324000023180080B232281ADA0020020010008C
:10533400C0B2082812DA180080B2085C204202D0F9
:10534400280080B20DE0E4B264086D1C2000C0B2F5
:10535400002801D180200400521CE8E75B1CE0E730
:10536400002030BC704730B40100802400200025A8
:10537400002200231D00ADB2322D17DA00252A00C9
:105384001500EDB2082D0FDA1D00ADB24D5D2542BA
:1053940000D0401CE4B264082500EDB2002D01D118
:1053A40080252C00521CEBE75B1CE3E780B230BC89
:1053B400704730B40100802400200022002500231F
:1053C400180080B232281ADA002002001000C0B29D
:1053D400082812DA180080B2085C204202D12800A2
:1053E40080B20DE0E4B264086D1C2000C0B2002855
:1053F40001D180200400521CE8E75B1CE0E7002098
:1054040030BC704710B58AB0040002A82021FEF712
:10541400C1FE207A0190E0790090A3796279DFF8E7
:10542400A81D02A802F0EAFD00200090002302AAB1
:105434001E2141F2100002F007FF207A0190E0796A
:105444000090A3796279DFF8841D02A802F0D6FDEA
:1054540000200090002302AA142141F2300002F03F
:10546400F3FE0AB010BD2DE9F84F94B004000D000E
:105474000026502100226F463800FEF757FE002117
:10548400E77CD5F82808401CC5F82808D5F810088A
:10549400401CC5F8100885F80B783800C0B2002805
:1054A40000F09F80DFF8281D0878002804D103202D
:1054B400DFF8202D107003E00420DFF8182D1070A1
:1054C4003800C0B201286AD100200870D5F81C0841
:1054D400401CC5F81C08D5F82408401CC5F824084D
:1054E4000020C5F820080020C5F81408DFF8E88C6F
:1054F400012088F803005FF0080914F1140AEB4650
:105504004A465146584603F02FF8DFF8C80CD5F840
:105514001C180278914216D1012085F80C085FF01E
:105524000808E94605F6020A42464946504603F091
:105534001BF8DFF8A80C016811F1010F6BD05FF0C4
:10554400FF31016067E0D5F81C180078814262D30E
:10555400022085F80C080822694605F6020003F0CB
:105564005BF8002805D0D5F81808401CC5F81808C1
:1055740002E00020C5F81808D5F8180803284AD313
:105584000020C5F81C08D5F82008401DC5F82008DF
:10559400042085F80C08042088F803003BE001206F
:1055A4000870D5F81408032815D30020C5F814088A
:1055B4000020C5F81C080420DFF81C1CC870D5F8AE
:1055C4002008401DC5F82008042085F80C08082090
:1055D40085F80D081FE0D5F81408401CC5F8140818
:1055E40019E0D5F82008401CC5F820080020C5F8AB
:1055F4001408D5F82008042803D30420DFF8D81BA6
:10560400C870D5F82008052805D30020C5F81C0863
:10561400042085F80C083000C0B215B0BDE8F08F46
:105624002DE9F04389B004000D0001A82021FEF704
:10563400B1FD0021002642F21079DFF8B076D7F8E8
:10564400240809FB00F0D7F82828B0FBF2F8DFF8AB
:10565400002E9078002805D1526956A101A802F0C5
:10566400CDFC04E0DFF8EC1D01A802F0C7FC4FF606
:10567400FF70804500D1C84600200090012301AA94
:10568400082141F2102002F0DFFD0FF22C1997F8E7
:105694000B28494601A802F0B1FC00200090012328
:1056A40001AA032141F2502002F0CEFD0020009017
:1056B4000123DFF8A40D421C0F2141F6500002F033
:1056C400C3FD002000900123DFF8902D0F214FF43B
:1056D400C35002F0B9FDD7F82828494601A802F0C2
:1056E4008DFC00200090012301AA08214FF4915061
:1056F40002F0AAFD642325200090B8FBF3F003FB1D
:1057040010836420B8FBF0F2DFF8541D01A802F006
:1057140075FC00200090012301AA072141F23020EA
:1057240002F092FD3000C0B209B0BDE8F083F0B5DC
:1057340089B00400DFF82C0D01782200D2B2914226
:1057440034D004700078012817D12025DFF8186DB3
:1057540001AF2A003100380002F006FFF82142F2BE
:10576400602002F05DFD00200090012301AA2021A9
:105774004FF4935002F068FD19E02025DFF8EC6C3B
:1057840001AF2A003100380002F0EEFE4EF20701AC
:1057940042F2602002F044FD00200090012301AA9F
:1057A40020214FF4935002F04FFD00E0047009B043
:1057B400F0BD000025646700256400001FB50400E7
:1057C40001A80821FEF7E6FC607E002808D0022824
:1057D40079D03ED3042800F0ED80C0F0AF8025E1FD
:1057E40000200090002301AA08214FF4835002F006
:1057F4002BFD00200090002301AA082141F2700033
:1058040002F022FD00200090002301AA08214FF499
:10581400845002F019FD00200090002301AA082101
:1058240041F2900002F010FD4FF44151022002F0C9
:10583400E2FC43F25001022002F0DDFC43F260017D
:10584400022002F0D8FC43F27001022002F0D3FCE3
:10585400ECE000200090002314F1280208214FF40A
:10586400835002F0F1FC00200090002301AA0821DB
:1058740041F2700002F0E8FC00200090002301AA2D
:1058840008214FF4845002F0DFFC00200090002334
:1058940001AA082141F2900002F0D6FC4FF44151D4
:1058A400002002F0A8FC43F25001022002F0A3FC05
:1058B40043F26001022002F09EFC43F270010220D8
:1058C40002F099FCB2E000200090002314F12802B9
:1058D40008214FF4835002F0B7FC0020009000230D
:1058E40014F13002082141F2700002F0ADFC0020F6
:1058F4000090002301AA08214FF4845002F0A4FC74
:1059040000200090002301AA082141F2900002F037
:105914009BFC4FF44151002002F06DFC43F2500116
:10592400002002F068FC43F26001022002F063FCF4
:1059340043F27001022002F05EFC77E00020009048
:10594400002314F1280208214FF4835002F07CFC58
:1059540000200090002314F13002082141F270006D
:1059640002F072FC00200090002314F13802082198
:105974004FF4845002F068FC00200090002301AA38
:10598400082141F2900002F05FFC4FF441510020E5
:1059940002F031FC43F25001002002F02CFC43F2EF
:1059A4006001002002F027FC43F27001022002F0A3
:1059B40022FC3BE000200090002314F1280208217F
:1059C4004FF4835002F040FC00200090002314F1B7
:1059D4003002082141F2700002F036FC00200090F1
:1059E400002314F1380208214FF4845002F02CFCF7
:1059F40000200090002314F14002082141F290009D
:105A040002F022FC4FF44151002002F0F4FB43F277
:105A14005001002002F0EFFB43F26001002002F08D
:105A2400EAFB43F27001002002F0E5FB1FBD2DE903
:105A3400F84F05000E00170000245FF00008002056
:105A440087F82A0A7E20210089B239448870641CB0
:105A54005520210089B239448870641C002021003B
:105A640089B239448870641C9E488189220092B2AC
:105A74003A449170641C808980B2000A210089B282
:105A840039448870641CB7F82E0A210089B239445D
:105A94008870641CB7F82E0A80B2000A210089B20B
:105AA40039448870641C1F20210089B239448870ED
:105AB400641C97F8280A210089B239448870641C50
:105AC4003000C0B2F1281BDB200080B2384486705D
:105AD400641C0020210089B239448870641CB146DA
:105AE4005FFA89F9AA46200080B2384410F1020B0B
:105AF4004A465146584602F037FD54FA86F434E0DB
:105B040097F8240A00280ED1B1465FFA89F9AA460B
:105B1400200080B2384410F1020B4A4651465846E0
:105B240002F022FD0EE0B1465FFA89F95FF0000A47
:105B3400200080B2384410F1020B524649465846C0
:105B4400FEF7F4FA54FA86F497F8240A210089B28D
:105B540039448870641C97F8260A210089B23944B4
:105B64008870641C2000401E3871210089B2891E8F
:105B7400381D02F001F90100200080B23844817020
:105B8400641C080080B2000A220092B23A44907069
:105B9400641C3C802000C0B2BDE8F28F2DE9F84FB0
:105BA40004000D0016005FF0000B0027012085F8AB
:105BB4002A0AC5F8306A7E20594689B22944887079
:105BC4001BF1010B5520594689B2294488701BF1F9
:105BD400010B0020594689B2294488701BF1010B3E
:105BE400404881895A4692B22A4491701BF1010BB4
:105BF400808980B2000A594689B2294488701BF111
:105C0400010BB5F82E0A594689B2294488701BF154
:105C1400010BB5F82E0A80B2000A594689B229440C
:105C240088701BF1010B2220594689B229448870DF
:105C34001BF1010B0020594689B2294488701BF1DD
:105C4400010B5FF00808A146584680B2284410F1C1
:105C5400020A42464946504602F086FC1BF1080BF4
:105C6400584680B2284486701BF1010B3000000AAC
:105C7400594689B2294488701BF1010B3000000C8D
:105C8400594689B2294488701BF1010B3000000E7B
:105C9400594689B2294488701BF1010B5846401EAD
:105CA4002871594689B2891E281D02F065F882467A
:105CB400594689B2891E281D02F05EF80100584633
:105CC40080B2284481701BF1010B58460A0092B23D
:105CD400120A03009BB22B449A70401C2880C0B265
:105CE400BDE8F28FE0350020E033002028140020C6
:105CF400E40000204C36002034350020043100201C
:105D04002DE9FE4F04000D0016001F00DDF8308061
:105D14005FF0000B0020ADF80400C6F8307A7E2056
:105D2400594689B2314488701BF1010B55205946FC
:105D340089B2314488701BF1010B0020594689B2A5
:105D4400314488701BF1010BDFF8940D81895A46A8
:105D540092B2324491701BF1010B808980B2000A27
:105D6400594689B2314488701BF1010BB6F82E0AEA
:105D7400594689B2314488701BF1010BB6F82E0ADA
:105D840080B2000A594689B2314488701BF1010B74
:105D94002320594689B2314488701BF1010B00203D
:105DA400594689B2314488701BF1010B5FF0080930
:105DB4000095584680B2304410F1020A4A460099D0
:105DC400504602F0D1FB1BF1080B584680B2304418
:105DD40087701BF1010B3800000A594689B231441F
:105DE40088701BF1010B3800000C594689B231440C
:105DF40088701BF1010B3800000E594689B23144FA
:105E040088701BF1010B584680B2304480F8028040
:105E14001BF1010B4046000A594689B2314488708F
:105E24001BF1010B4046000C594689B2314488707D
:105E34001BF1010B4046000E594689B2314488706B
:105E44001BF1010B584680B2304484701BF1010BE6
:105E54005846401E3071594689B2891E301D01F0E2
:105E64008BFF8246594689B2891E301D01F084FF9A
:105E74000100584680B2304481701BF1010B584632
:105E84000A0092B2120A03009BB233449A70401C77
:105E94003080C6F8307AC0B2BDE8FE8F2DE9F843F1
:105EA40004000D00160000275FF00008002084F8AD
:105EB4002A0A7E20390089B2214488707F1C55202B
:105EC400390089B2214488707F1C0020390089B2CE
:105ED400214488707F1CDFF8080C81893A0092B253
:105EE400224491707F1C808980B2000A390089B2F3
:105EF400214488707F1CB4F82E0A390089B22144E9
:105F040088707F1CB4F82E0A80B2000A390089B266
:105F1400214488707F1C1F20390089B22144887075
:105F24007F1C94F8280A390089B2214488707F1CA8
:105F34000020390089B2214488707F1C380080B267
:105F4400204485707F1C2800000A390089B221444E
:105F540088707F1C2800000C390089B221448870A5
:105F64007F1C2800000E390089B2214488707F1CF0
:105F7400380080B2204486707F1C3000000A39004B
:105F840089B2214488707F1C3000000C390089B22A
:105F9400214488707F1C3000000E390089B22144EE
:105FA40088707F1C94F8240A390089B221448870CF
:105FB4007F1C94F8260A390089B2214488707F1C1A
:105FC4003800401E2071390089B2891E201D01F05D
:105FD400D3FE8146390089B2891E201D01F0CCFE12
:105FE4000100380080B2204481707F1C080080B218
:105FF400000A3A0092B2224490707F1C2780380035
:10600400C0B2BDE8F2830000043600202DE9F84F49
:1060140080460D00160000240027002085F82A0A77
:106024007E20210089B229448870641C55202100F7
:1060340089B229448870641C0020210089B2294453
:106044008870641CDFF8980A8189220092B22A447D
:106054009170641C808980B2000A210089B22944AD
:106064008870641CB5F82E0A210089B2294488700E
:10607400641CB5F82E0A80B2000A210089B22944B2
:106084008870641C1F20210089B229448870641C14
:1060940095F8280A210089B229448870641C0020DC
:1060A400210089B229448870641C4046C0B200288B
:1060B40049D0B07A210089B229448870641C3078B0
:1060C400210089B229448870641C3079210089B286
:1060D40029448870641C3069210089B2294488707D
:1060E400641C3069000A210089B229448870641C48
:1060F4003069000C210089B229448870641C30691D
:10610400000E210089B229448870641C5FF00809DC
:10611400D14810F1080A200080B2284410F1020B83
:106124004A465146584602F01FFA0834002021001E
:1061340089B229448870641C0020210089B2294452
:106144008870641C1DE05FF00809C34810F1080A58
:10615400200080B2284410F1020B4A4651465846AA
:1061640002F002FA083495F8240A210089B229447D
:106174008870641C95F8260A210089B22944887025
:10618400641C2000401E2871210089B2891E281D2C
:1061940001F0F2FD8146210089B2891E281D01F01B
:1061A400EBFD0100200080B228448170641C2000B3
:1061B4000A0092B2120A03009BB22B449A70401C4C
:1061C400C0B2BDE8F28F000050F20008ACF2000843
:1061D4005836002059360020541C00202436002054
:1061E4002DE9F84F88B004000D007C208DF80100E3
:1061F4005FF000095FF0000A5FF000080026042148
:10620400002201AF3800FDF791FF20788DF80000DF
:1062140000279DF800003900C9B288420FD3380026
:10622400C0B2205C9DF80110884206D118F1010823
:1062340001A83100C9B24754761C7F1CE9E79DF8D8
:106244000000002800F0D5804046C0B200281ED1CE
:10625400607800280BD1A078002808D1E0780028C5
:1062640005D12079002802D105208046BCE09DF8A4
:1062740000009DF80490B0EB090914F1010A15F12E
:10628400280B4A465146584602F06EF9ACE04046A7
:10629400C0B201281FD19DF80490B9F10109601C16
:1062A400039015F1280A4A460399504602F05CF916
:1062B4009DF800009DF804A0B0EB0A0A9DF80400C4
:1062C4002044401C029015F1300B52460299584666
:1062D40002F04AF988E04046C0B2022835D19DF860
:1062E4000400401E0590601C049015F12809059ACD
:1062F4000499484602F038F90DF1040B9BF80100AB
:106304009DF80490B0EB0909B9F101099DF8040066
:106314002044401C039015F1300A4A460399504624
:1063240002F022F99DF800009BF801A0B0EB0A0AE4
:106334009BF801002044401C029015F1380B524692
:106344000299584602F010F94EE04046C0B20328C4
:106354004AD19DF80400401E0790601C069015F178
:106364002809079A0699484602F0FEF80DF1040937
:1063740099F801009DF804A0B0EB0A0ABAF1010AE9
:106384009DF804002044401C059015F1300B524642
:106394000599584602F0E8F899F8020099F801B016
:1063A400B0EB0B0BBBF1010B99F801002044401C2E
:1063B400049015F1380002905A460499029802F0AC
:1063C400D3F802989DF8001099F80200091A039175
:1063D40099F802002044401C029015F14009039AE8
:1063E4000299484602F0C0F818F101084046C0B2CC
:1063F40000E0002009B0BDE8F08F10B5040060781B
:106404002178884223D0607820706078152808D1DC
:10641400DFF8CC0600780A2803D1152001F0D8FE55
:1064240015E020780D2809D1DFF8B40600780A2891
:1064340004D1207880B201F0CBFE08E02078DFF8A8
:10644400A016097851FA80F080B201F0C1FE10BDA7
:106454005433002050F3000800500008801C002032
:10646400B8F20008E200002058F3000860F30008C6
:106474002DE9F84791B004000D00160001A8202171
:10648400FDF788FE09A82021FDF784FE0020DFF82F
:106494005486D8F81010D8F81470CF1B317800291E
:1064A40008D0012964D0022900F05281142900F097
:1064B4004E814DE1DFF8308698F80C00012842D176
:1064C40018F10C00FFF77AF9002000900123A21CB8
:1064D4000C214FF4825001F0B7FE60780D280ADBDE
:1064E40000200090012314F10E020C214FF4B2504D
:1064F40001F0AAFE08E000200090012309AA0C2163
:106504004FF4B25001F0A0FE01A9206A00F023F973
:1065140000200090012301AA05214FF4885001F0C6
:1065240013FFA28BDFF8E01B01A801F067FD002038
:106534000090012301AA0A2141F2101001F084FE07
:10654400022088F80C00002000900023DFF8BC2B08
:1065540008214FF4995001F077FE002000900023A9
:10656400DFF8AC2B0E2141F2500001F06DFEEFE09C
:10657400DFF8749599F80C00012842D119F10C0048
:10658400FFF71CF9002000900123A21C0C214FF4FA
:10659400825001F059FE60780D280ADB002000903B
:1065A400012314F10E020C214FF4B25001F04CFE01
:1065B40008E000200090012309AA0C214FF4B250F6
:1065C40001F042FE01A9206A00F0C5F80020009005
:1065D400012301AA05214FF4885001F0B5FEA28BD6
:1065E400DFF8241B01A801F009FD0020009001231D
:1065F40001AA0A2141F2101001F026FE022089F8B6
:106604000C00002000900023DFF8082B122141F237
:10661400504001F019FE002000900023DFF8EC2A1E
:1066240008214FF4995001F00FFEDFF8B4A4DAF812
:106634001010D8F81020D8F81400121A91420EDA6B
:10664400DFF8D41A0878002809D1206A00FB07F083
:10665400A28BB0FBF2F060620120087028E0D8F849
:106664001010D8F81400091A01291DDBDFF8A80A54
:106674000078002818D0D8F81010D8F81400091A97
:106684000F00206A00FB07F0A18BB0FBF1F0606201
:10669400DFF8280CC07804280AD1DFF8240C01683C
:1066A400B94205D3076003E00020070000206062C0
:1066B4003A00C3A101A801F0A1FC0020009000232E
:1066C40001AA05214FF4895001F03EFE01A9606A38
:1066D40000F041F800200090012301AA082141F2B2
:1066E400301001F031FEDAF81020DFF8D81B01A8D1
:1066F40001F084FC00200090012301AA08214FF43A
:106704009A5001F0A1FD01A9DAF81020206A424351
:10671400A08BB2FBF0F000F01EF8002000900123E3
:1067240001AA07214FF49B5001F08EFD01A9D9F86D
:106734006000626A101800F00EF800200090012337
:1067440001AA08214FF48A5001F0FEFD00E0FFE7A2
:1067540012B0BDE8F087F8B584B004000D00B4F5BC
:106764007A7F1BD26420B4FBF0F100FB11400A21B4
:106774006422B0FBF1F301FB13000090B4FBF2F0D0
:1067840002FB10420A20B2FBF0F36420B4FBF0F2E7
:10679400DFF8341B280001F031FCA5E0B4F57A7F62
:1067A4002AD342F21070844226D26420B4FBF0F162
:1067B40000FB11400A2164224FF47A73B0FBF1F616
:1067C40001FB16000190B4FBF2F002FB10420A2018
:1067D400B2FBF0F00090B4FBF3F003FB1043642031
:1067E400B3FBF0F34FF47A70B4FBF0F2DFF8DC1A89
:1067F400280001F003FC77E042F21070844233D3A6
:10680400DFF8CC1A8C422FD26421B4FBF1F201FBE5
:1068140012410A2264234FF47A76B1FBF2F702FBA9
:1068240017110291B4FBF3F103FB11430A21B3FBEB
:10683400F1F10191B4FBF6F106FB11466421B6FBBC
:10684400F1F10091B4FBF0F100FB11404FF47A71C7
:10685400B0FBF1F342F21070B4FBF0F2DFF8741AFB
:10686400280001F0CBFB3FE0DFF8641A8C423BD3F5
:10687400DFF8642A944237D26422B4FBF2F302FBB9
:1068840013420A2364264FF47A77B2FBF3FC03FB2A
:106894001C220392B4FBF6F206FB12460A22B6FB54
:1068A400F2F20292B4FBF7F207FB12476422B7FB41
:1068B400F2F20192B4FBF0F200FB12404FF47A7250
:1068C400B0FBF2F00090B4FBF1F001FB104142F296
:1068D4001070B1FBF0F3DFF8F809B4FBF0F2DFF865
:1068E400FC19280001F08AFB05B0F0BD38B504009E
:1068F4002000C0B20A282AD14FF6FF75290042F2BF
:10690400100001F08DFC29004FF4015001F088FCC7
:10691400290042F2500001F083FC290042F21010D9
:1069240001F07EFC290042F2300001F079FC2900DC
:1069340042F2702001F074FC29004FF4195001F068
:106944006FFC290042F2303001F06AFC2DE0002196
:1069540042F2100001F064FC00214FF4015001F0F8
:106964005FFC002142F2500001F05AFC002142F287
:10697400101001F055FC002142F2300001F050FCEF
:10698400002142F2702001F04BFC002142F2200071
:1069940001F046FC00214FF4195001F041FC4FF680
:1069A400FF7142F2203001F03BFCDFF8340900783B
:1069B4004B490978081880B201F00AFC31BD000087
:1069C4002564000038B50400DFF818194878002859
:1069D40010D12000C0B2002809D0DFF80C090470DF
:1069E400DFF8080900684860102048703FE0002084
:1069F400C8703CE04878102818D148682830DFF87F
:106A0400EC28126890420DD2DFF8DC0802782300EB
:106A1400DBB29A4201D1047001E00020C870042066
:106A2400487024E0CC700420487020E048780428A2
:106A34001DD14868C830DFF8B4281268904213D2D8
:106A4400DFF8A40802782300DBB29A4205D1CA78A1
:106A5400007852EAC002CA7003E0CA7800780243A0
:106A6400CA700020487002E0CC7010204870DFF833
:106A7400805828782100C9B288422ED02C702878FA
:106A8400C00705D5002142F2106001F0C9FB05E002
:106A94004FF6FF7142F2106001F0C2FB28788007C4
:106AA40005D5002142F2206001F0BAFB05E04FF663
:106AB400FF7142F2206001F0B3FB2878400705D54E
:106AC400002142F2306001F0ABFB07E04FF6FF71AA
:106AD40042F2306001F0A4FB00E02C7031BD0000F4
:106AE400E035002054330020E03300202DE9FE4F30
:106AF400DFF80048206880040BD5206830F400508B
:106B04002060DFF8DC27DFF8F017DFF8F007FFF785
:106B1400AFFCDFF8EC070078800615D54FF442513E
:106B2400002001F068FBDFF8E855DFF8D867202281
:106B34003100280001F070FD002805D020273A001C
:106B44003100280001F010FDDFF8BC5795F80C085F
:106B5400C0074ED5DFF888170878002802D00878D7
:106B6400012846D195F80A08012842D0DFF89C870D
:106B7400DFF89C97D9F80020414605F60200FFF79C
:106B84000DF8A8F80000DFF88C677079212828DA5E
:106B9400B8F8007018F1020000905FF0480A7079AC
:106BA4000AFB00F0304410F10D0B3A0000995846EE
:106BB40001F0DAFC70790AFB00F03044D9F80010D7
:106BC400016570790AFB00FA06EB0A00B8F80010B8
:106BD40001737079401C7071F078002801D1012094
:106BE400F070012085F80A080020DFF82C1781F8DE
:106BF400540095F80C08400740F1F980DFF8E0668E
:106C04003078002803D03078012840F0F0802068E4
:106C140030F4806020603078002851D120688005ED
:106C24004ED5206830F400702060DFF8A40C0169B0
:106C3400142901D014210161DFF8BC1602698B69A3
:106C440048691B1A9A4239DA0878002836D1DFF8E5
:106C5400841C887C084490F83600102830D0487C86
:106C640020282ADA0F204A7C0A4482F86900487CEA
:106C740001EB80004FF49672C0F8AC2001204A7CEE
:106C84000A44507501204A7C0A4482F88900102085
:106C94004A7C0A4482F83500487C401C4874487891
:106CA400002805D0887C084490F83500102804D0CA
:106CB400487C401E88740420487001E0002048701D
:106CC400DFF8148CDFF8487420224146380001F0C4
:106CD400A3FC002802D1307801280DD15FF02009EF
:106CE4004A464146380001F03FFC002070704FF4E2
:106CF4004251022001F07FFA95F80A08012876D162
:106D04005FF014085FF00009DFF80CA61AF15407CD
:106D14004A4641463800FDF709FA042085F80A0876
:106D24000020CAF83000DFF8D075320039001AF1BB
:106D34000C00FFF79DFBDFF88815086805284BDB7E
:106D4400DFF8D4030078002846D0DFF8C085DFF8E8
:106D5400C09508680090D9F80030424605F6020153
:106D64009AF82600FEF7CCFFA8F80000DFF87C05AF
:106D74000068DFF8681B0860DFF8986570792128DF
:106D840029DAB8F80000019018F1020000905FF0D1
:106D9400480A70790AFB00F0304410F10D0B019A97
:106DA4000099584601F0E0FB70790AFB00F030448A
:106DB400D9F80010016570790AFB00FA06EB0A00A5
:106DC400B8F8001001737079401C7071F0780028D5
:106DD40001D10120F07005E0DFF810050068DFF84C
:106DE400FC1A08607869B8610020CB49087095F8EE
:106DF4000C08800740F14581DFF8E4140878002886
:106E04000BD1DFF8CC0A0079012803D1206830F0D7
:106E1400040020600120487033E10878012840F024
:106E24003081002600275FF00E095FF0000ADFF8CA
:106E3400E482C346524649465846FDF777F9DFF8DF
:106E4400900A0079002840F0F980DFF8B404007853
:106E5400000600F1F380DFF8C09499F8550001288A
:106E640004D099F85500022840F00B8199F8580095
:106E7400002840F089804FF44251002001F0BBF912
:106E8400206850F0200020602068800340D52068EE
:106E940030F400302060D9F86400292833D300206E
:106EA400C9F86400DFF82C1A487C20282ADA0F205D
:106EB4004A7C0A4482F86900487C01EB80004FF464
:106EC4009672C0F8AC2002204A7C0A445075012016
:106ED4004A7C0A4482F8890011204A7C0A4482F8D8
:106EE4003500487C401C48744878002805D0887CCC
:106EF400084490F83500112804D0487C401E88745A
:106F04000420487004E0D9F86400401CC9F8640007
:106F140099F85400012803D099F8540002283CD170
:106F2400002089F85400DFF8AC19487C20282ADABC
:106F34000F204A7C0A4482F86900487C01EB8000F7
:106F44004FF49672C0F8AC2002204A7C0A44507573
:106F540001204A7C0A4482F8890011204A7C0A44B0
:106F640082F83500487C401C48744878002805D0D5
:106F7400887C084490F83500112804D0487C401ED1
:106F840088740420487008E00020C9F86400206870
:106F940030F0040020600120060099F8590001280F
:106FA40024D1DFF8409B20224946404601F034FBBF
:106FB400002806D05FF0200A52464946404601F0B8
:106FC400D3FA45F24001A22001F0ABFA45F2500198
:106FD400222001F0A6FA45F25011002001F00BF92D
:106FE40045F24011002001F006F915E045F2400198
:106FF400FF2001F096FA45F25001FF2001F091FACA
:1070040045F25011022001F0F6F845F24011022039
:1070140001F0F1F8012007003800C0B2002808D0C0
:107024003000C0B2002804D0206850F48060206092
:1070340027E0206830F48060206022E045F24001BF
:10704400FF2001F06EFA45F25001FF2001F069FAC9
:107054005FF00E085FF00009DFF8B4A04A4641462D
:107064005046FDF763F845F25011022001F0C3F8D1
:1070740045F24011022001F0BEF8206850F480600F
:10708400206095F80D0800073CD595F80D0810F020
:10709400F70085F80D08206850F0080020600120F2
:1070A40085F80A08DFF82C18487C20282ADA0F20F3
:1070B4004A7C0A4482F86900487C01EB80004FF462
:1070C4009672C0F8AC2003204A7C0A445075012013
:1070D4004A7C0A4482F8890012204A7C0A4482F8D5
:1070E4003500487C401C48744878002805D0887CCA
:1070F400084490F83500122804D0487C401E887457
:1071040004204870BDE8F78F68F30008C0350020FC
:10711400000000202000002056360020F8B5764EEE
:1071240096F8690096F86A10090451EA006196F825
:107134006B0051EA002196F86C000143C8003DD56C
:1071440096F8690096F86A703F0457EA006796F863
:107154006B0057EA002796F86C00074396F869100D
:1071640096F86A00000450EA016096F86B1050EA41
:10717400012096F86C1008430003000B01F080FA1C
:1071840004000D00C7F3035001F07AFA02000B006B
:107194000020DFF8541901F081FA02000B002000EE
:1071A400290001F027FE0022DFF8403901F046FFF4
:1071B40002F016F8DFF8381908603CE096F8690028
:1071C40096F86A703F0457EA006796F86B0057EA2E
:1071D400002796F86C00074396F8691096F86A0041
:1071E400000450EA016096F86B1050EA012096F80A
:1071F4006C1008430003000B01F042FA04000D0078
:10720400C7F3035001F03CFA02000B000020DFF842
:10721400D81801F043FA02000B002000290001F005
:10722400E9FD0022DFF8CC3801F008FF01F0D8FFB7
:10723400DFF8BC180860DFF8C048DFF8B40800685D
:10724400E168401A01F0E9FF42F21071884234DA31
:1072540096F8690096F86A10090451EA006196F8F4
:107264006B0051EA002196F86C000143200002F003
:1072740057F9E0687061DFF88458E0682968401ABB
:1072840001F0CBFF032812DAF07905280BDB00208C
:10729400F07101203070E068B0611648016831F087
:1072A4000401016009E0F079401CF07105E0002060
:1072B4003070E06828600020F071F1BD541C00209B
:1072C4002436002070F3000878F30008C4F20008A4
:1072D400A0860100D0F2000840420F006CF20008C2
:1072E4004C3600200C3600205B360020403600204F
:1072F4005A3600201436002054330020EC3300208A
:10730400343600207CF2000828140020E400002019
:107314001C3600201C0B0020E03300202DE9F34F25
:107324008DB0040000250026002700200490B4F846
:107334000500ADF804005FF0040814F109090DF12B
:10734400100A42464946504601F00EF9BDF80400C1
:107354004FF6FF71884208D0BDF80400DFF87015BD
:107364008989884201D00020AEE2E0791F2803D148
:10737400207A8DF8000002E0E0798DF80000DFF853
:107384008057B4F80300A5F82E0A002028809DF841
:10739400000085F8280A002085F8240A002085F8D2
:1073A400260A9DF80000552815D00120DFF854174F
:1073B4000870DFF854070068DFF8501708609DF87C
:1073C4000000222807D09DF80000232803D00020C5
:1073D400DFF83C17C871A078002802D1B4F809601E
:1073E40003E0BDF83800B0F10B069DF80000042856
:1073F40016D020282BD0212800F08380222800F0EA
:107404009C81232800F0D281252800F0868055280D
:1074140000F0FE81F7280ED0FE2800F01C823FE227
:10742400300080B2002805D12A0000210020FEF798
:10743400FEFA288034E2300080B2002806D12A0007
:107444003221DFF8D006FEF7F2FA288028E2300075
:1074540080B2072855D100208DF801005FF0000AA2
:1074640000200390A77A94F80B805FF0040B14F1CA
:107474000C0005900DF10C095A460599484601F097
:1074840073F8DFF84C94380099F80010C0B28842C1
:107494000AD1404699F80410C0B2884204D1039836
:1074A400D9F81010884226D03800C0B2002803D082
:1074B4003800C0B20A2818D14046C0B2002803D010
:1074C4004046C0B2012810D1039805280DD3607A34
:1074D40089F80A0089F8007089F80480FDF7E0FE55
:1074E40099F80000FFF702FA05E0012085F8240A64
:1074F400042085F8260A4A4629000020FEF786FD66
:107504002880300080B2002806D1DFF8C423290087
:107514000120FEF77BFD2880C2E1300080B20D28F7
:10752400C0F20A8100200290DFF8EC0590F80C0804
:10753400800700F1E68000210022607B8DF80100C5
:10754400607B2044807B8DF802009DF801000028B8
:1075540000F0C8809DF80100412880F2C3809DF8A6
:107564000200252880F2BE8048200C9000200B9059
:10757400DFF8A875B8460B9A0C994046FCF7D6FD7F
:10758400607B401C0A9014F10D00099017F101086A
:107594000A9A0999404600F0E7FF04200890607BAE
:1075A4002044617B2144897B08440F30079017F104
:1075B400200AD046089A0799404600F0D5FF0220D9
:1075C4000690607B2044617B2144897B084413300E
:1075D400059017F11C0BD846069A0599404600F011
:1075E400C3FF3900607B20440E30FEF7F9FD787646
:1075F400607B2044617B2144897B0844407DB876CC
:10760400DFF81C85DFF81C951822791C484601F028
:1076140003F8002821D1082217F1280118F13400B9
:1076240000F0FAFF002818D10422514618F12C006A
:1076340000F0F2FF002810D10222594618F1280068
:1076440000F0EAFF002808D1012217F11A0118F10D
:10765400260000F0E1FF002836D018200990781C9D
:107664000890099A0899484600F07EFF5FF00409E3
:10767400CDF81CA018F12C0A4A460799504600F090
:1076840073FF5FF0020ACDF818B018F1280B5246C8
:107694000699584600F068FF5FF0010B17F11A00D5
:1076A400059018F126075A460599380000F05CFF4A
:1076B40018F10C01607B20440E30FEF791FD88F830
:1076C4002500012088F80C00DFF85C040178032908
:1076D40002D001780D291AD10178152917D000217B
:1076E400417014E048275FF00008DFF840944246F8
:1076F40039004846FCF71AFD0320DFF82C144870C3
:1077040005E0012085F8240A042085F8260A0427C8
:1077140014F109080DF108093A004146484600F001
:1077240023FF029801F0A8FFDFF8040442690299DC
:107734002800FEF7B3FB2880B2E0300080B21528A1
:1077440033D1DFF8CC1304220B794820434301EBF7
:10775400030010F1500114F1120000F05DFF002845
:107764001ED1042714F11608DFF8B49319F1600A46
:107774003A004146504600F0F7FE042089F85700CD
:10778400A07EC9F80400A07E89F85900E07E89F83B
:107794005800012089F85500012089F8540004E0BC
:1077A4000020DFF87C1381F8550079E0300080B2C6
:1077B40002282CDBA07D002811D1D54904220B79A5
:1077C4004820434301EB030010F1500114F112006F
:1077D40000F022FF002802D1FF20288017E0A07DBE
:1077E400002814D1CA4F042239794820414307EBB9
:1077F400010010F11E0114F1120000F00DFF002829
:1078040005D1FF2028800320387000F069F847E094
:10781400300080B220281DD12D4F7879617A8842BA
:107824000BD1B879A17A884207D1F879E17A8842F4
:1078340003D1387A217B88420CD0607A7871A07A9F
:10784400B871E07AF871207B3872FDF729FD3800B1
:10785400FDF7D8FD24E0300080B2002820D0607A03
:10786400012803D1012085F82C0A13E0607A02284C
:1078740003D1022085F82C0A0CE0607A042803D195
:10788400032085F82C0A05E0607A002802D10A203A
:1078940085F82C0A2A0000210020FEF7C8F8288069
:1078A400288800280FD19DF8000055280BD001200E
:1078B40085F8240A042085F8260A2A0000210020DD
:1078C400FEF7B5F8288028880FB0BDE8F08F0000D7
:1078D400E035002004310020DCF2000820360020CE
:1078E4002DE9F84F00200021924D934C2600884F3B
:1078F400FA79012A41D1387800283ED168880028D5
:107904003BD015F10800FDF705FDE8800120387033
:1079140032002421EB888020434313F58063180050
:1079240080B2FDF7AFFC7879212826DA5FF01C08D5
:1079340016F104095FF0480A78790AFB00F038442C
:1079440010F10D0B42464946584600F00DFE787979
:107954000AFB00F0384479490968016578790AFB23
:1079640000FA07EB0A001C2101737879401C787136
:10797400F878002801D10120F870387803283BD129
:10798400E8883188884234D120245FF0000816F159
:107994000409424621004846FCF7C8FB0020387021
:1079A40032002421EB888020434313F580631800C0
:1079B40080B2FDF7A1FC002818D0E888C010284444
:1079C400E988C9102944097A8022AB7913F00703A6
:1079D400D2B2DA4091430172FDF77BFCFDF747FC1C
:1079E40015F10800FDF7BFFC688078E001203870CD
:1079F40075E00120387072E0387802286FD10020D9
:107A040038705FF0480A38790AFB00F03844007B8C
:107A1400212864DA688840F2911188425FDA387963
:107A24000AFB00F03844027B311D38790AFB00F070
:107A340038440D3000F0F0FD00284ED05FF02408EB
:107A44005FF000094A4641462000FCF76FFB15F140
:107A54000800FDF7AEFC28802888C0102844007A6E
:107A640080212A7812F00702C9B2D140084329883C
:107A7400C9102944087200203870FDF72AFCFDF76C
:107A8400F6FB38790AFB00F03844007B70802888C4
:107A9400308038790AFB00F03844047B38790AFBDB
:107AA40000FA07EB0A0010F10D0716F1040A220090
:107AB4003900504600F058FD3200242133888020DC
:107AC400434313F58063180080B2FDF715FC15F1EC
:107AD4000800FDF748FC688001E001203870BDE82B
:107AE400F18F00008CF200080000244000408FC099
:107AF4002C36002000408F407435002028360020AA
:107B0400E4000020573600204036002018360020BC
:107B14001C0B00200050000828140020EC34002026
:107B2400E0330020ED3300204C360020EC330020FD
:107B340054330020343500209C3500201C360020AE
:107B44002DE9F04104000D0016005FF00108002744
:107B5400280080B2002860D001F0CAFD002801D1BD
:107B6400002080464046C0B2002808D0A02001F082
:107B740054FE01F031FE002801D100208046404629
:107B8400C0B2002808D0200080B2000AC0B201F0C0
:107B940044FE01F021FE80464046C0B2002806D0D3
:107BA4002000C0B201F039FE01F016FE80464046C6
:107BB400C0B2002805D001F09BFD002801D10020AF
:107BC40080464046C0B2002808D0A12001F025FE1E
:107BD40001F002FE002801D1002080466D1E4046BF
:107BE400C0B2002817D0002007003800290080B256
:107BF40089B2884208D201F035FE390089B2705446
:107C040001F0BAFD7F1CF0E701F02CFE390089B2C7
:107C1400705401F0C9FD01F097FD4046C0B2BDE8C3
:107C2400F0812DE9F04104000D00160000275FF0FB
:107C34000108280080B2002842D001F059FD002834
:107C440001D1002080464046C0B2002808D0A020C0
:107C540001F0E3FD01F0C0FD002801D100208046C1
:107C64004046C0B2002808D0200080B2000AC0B24A
:107C740001F0D3FD01F0B0FD80464046C0B20028BB
:107C840006D02000C0B201F0C8FD01F0A5FD804679
:107C9400002007003800290080B289B288420DD242
:107CA4004046C0B2002807D0380080B2305C01F0F2
:107CB400B4FD01F091FD80467F1CEBE701F044FD2B
:107CC400052001F00CFD4046C0B2BDE8F0812DE96D
:107CD400F04704000D00160000275FF000085FF075
:107CE400000A200010F03F0F1BD014F03F00D0F129
:107CF400200007002800390080B289B2884200D2EF
:107D04002F00404680B206EB0002390089B218EB1E
:107D1400040080B2FFF785FF8146ED1B17EB0808CE
:107D240001E05FF001094846C0B200281FD02800D6
:107D340080B200281BD0202007002800390080B220
:107D440089B2884200D22F00404680B206EB00027E
:107D5400390089B218EB040080B2FFF762FF814654
:107D6400ED1B17EB08084846C0B20028DFD148468F
:107D7400C0B2BDE8F087000070B403000022002404
:107D840000264FF6FF7000258D4214D25A5D5040F4
:107D940000221600082E0CD2C20706D580B20200BB
:107DA40048F2084090EA520001E080B24008761C94
:107DB400F0E76D1CE8E780B2C04380B270BC704746
:107DC40030B400210023002410F02D0280B24008BA
:107DD40000252900C9B2062906DAD10700D55B1CA3
:107DE40092B252086D1CF4E7D90701D550F4004053
:107DF40080B230BC704730B4002513E050F8042B37
:107E0400D30744BFA9F101039A18091F042942F8B2
:107E1400045BFAD213468C0744BF15809B1CC90728
:107E240048BF1D7050F8041B0029E7D130BC7047CF
:107E34002DE9FE4300250026082100226C4620007F
:107E4400FCF774F90027644C2200082147F6F87007
:107E5400FFF776FE05002800C0B2002814D05FF0BA
:107E640000085FF0000906212000FFF785FFE18884
:107E740002000B0092B29BB29A4202D0002215007B
:107E840001E00122150007E0322001F028FC7F1CEC
:107E94003800C0B20328D6DB5FF000086A46082128
:107EA4004FF4FC40FFF74CFE06003000C0B200283F
:107EB40014D000275FF0000906216846FFF75CFF35
:107EC400BDF8061002000B0092B29BB29A4202D097
:107ED4000022160001E00122160008E0322001F021
:107EE400FEFB18F101084046C0B20328D6DB55EA70
:107EF4000600C0B2002809D14AF6AA202080022038
:107F0400608000F019F800F044F813E03000C0B2CB
:107F1400002802D100F03DF80CE02800C0B200288F
:107F240008D10827E9463A004946200000F01CFB26
:107F340000F002F8BDE8F78370B500240025264E52
:107F44000020F08006213000FFF716FFF080320099
:107F5400082147F6F870FFF7BAFE04002000C0B20B
:107F6400002806D0320008214FF4FC40FFF7AFFE92
:107F740004002000C0B2002808D1322001F0AFFB79
:107F84006D1C2800C0B20328E1DBFFE72000C0B26B
:107F940070BD70B5002400250F4E0020F08006212E
:107FA4003000FFF7E9FEF080320008214FF4FC4076
:107FB400FFF78DFE04002000C0B2002808D1322053
:107FC40001F08DFB6D1C2800C0B20328ECDBFFE739
:107FD4002000C0B270BD000004360020B1F5807FDF
:107FE40002D34FF0FF3070470170012070470078D2
:107FF400401E8041C043C00F704700000CB430B530
:1080040083B00A4606A9029104460025019400950E
:1080140002AB01A9084878441E3001F04FFC019AD4
:10802400157000284EBF04460198041B204603B077
:1080340030BC5DF80CFB00BFD70500002DE9FE4FF6
:108044005020029000200190DFF80045019A029927
:108054002000FCF76BF8502000900024DFF8F05467
:108064002E00220000993000FCF760F84FF484766B
:108074000027DFF8E084C1463A0031004846FCF7A7
:1080840055F85FF002095FF0000ADFF8CCB45246FD
:1080940049465846FCF74AF85FF4E13002F072FCB6
:1080A400012002F0C5FC4FF4907118F1010002F0B8
:1080B400FEFC4FF4907115F1080002F03BFD5FF4F3
:1080C4000030DFF8981408604FF49070DFF89014D3
:1080D4000860DFF89004016851F001010160BDE817
:1080E400F78FF0B40400002000255A260700FFB2E1
:1080F400DE55401CA5260700FFB2DE55401CFF26B6
:108104000700FFB2DE55401C82260700FFB2DE5591
:10811400401C2600B6B2360A0700FFB2DE55401CEA
:108124000600F6B29C55401C00263500EDB217003F
:10813400ADB2BFB2BD4208D23500EDB24D5D07000D
:10814400FFB2DD55401C761CEFE7C51E9D70C0B222
:10815400F0BC7047F0B40400002000255A26070044
:10816400FFB2DE55401CA5260700FFB2DE55401CB9
:10817400FF260700FFB2DE55401C82260700FFB22F
:10818400DE55401C2600B6B2360A0700FFB2DE55A3
:10819400401C0600F6B29C55401C00263500EDB28A
:1081A4001700ADB2BFB2BD420DD200250700FFB229
:1081B400DD55401C3500EDB24D5D0700FFB2DD55C5
:1081C400401C761CEAE7C51E9D70C0B2F0BC704727
:1081D40070B50400DFF87C536E1C3100200080B2BF
:1081E40000F032F985F8010195F8011189B23000E7
:1081F40002F047FC70BDF8B504000D00D54E771CA5
:108204003A00290089B2200080B200F058F986F8BB
:10821400010196F8011189B2380002F032FCF1BD77
:1082240073B50400CB4D6E1C3300022201A9E01C7F
:1082340080B2FFF756FF85F8010195F8011189B264
:10824400300002F01EFC73BD2DE9F14F8AB00D0021
:1082540016001F00149C202100220DF10408404642
:10826400FBF764FF5FF0000A5FF00008300002F0E3
:10827400EBFC814628004946C0B2C9B288420CD200
:10828400A946CA465FFA8AFA00960DF1040B5246D3
:108294000099584600F068F93EE0202000905FF015
:1082A400200A0DF1040B524600995846FBF73EFF95
:1082B4003800C0B2002813D15FEAC97008D529007C
:1082C400C9B24846C0B2091A491C4910884615E08B
:1082D4002900C9B24846C0B2091A491088460DE0BF
:1082E4003800C0B2012801D1A04607E03800C0B26E
:1082F400022803D1281BB0EB09008046CA465FFA66
:108304008AFA009601A84146C9B200EB010B524615
:108314000099584600F028F9DFF838A21AF1010B49
:108324005B462A00D2B292B201A9BDF82800FFF739
:10833400D8FE8AF801019AF8011189B2584602F070
:10834400A0FB0BB0BDE8F08F2DE9F14F8AB00D0012
:1083540016001F00149C202100220DF10408404641
:10836400FBF7E4FE5FF0000A5FF00008300002F063
:108374006BFC814628004946C0B2C9B288420CD27F
:10838400A946CA465FFA8AFA00960DF1040B5246D2
:108394000099584600F0E8F83EE0202000905FF095
:1083A400200A0DF1040B524600995846FBF7BEFE15
:1083B4003800C0B2002813D15FEAC97008D529007B
:1083C400C9B24846C0B2091A491C4910884615E08A
:1083D4002900C9B24846C0B2091A491088460DE0BE
:1083E4003800C0B2012801D1A04607E03800C0B26D
:1083F400022803D1281BB0EB09008046CA465FFA65
:108404008AFA009601A84146C9B200EB010B524614
:108414000099584600F0A8F8DFF838A11AF1010BCA
:108424005B462A00D2B292B201A9BDF82800FFF738
:1084340091FE8AF801019AF8011189B2584602F0B6
:1084440020FB0BB0BDE8F08F10B4020000205A23CB
:108454000400E4B20B55401CA5230400E4B20B5500
:10846400401CFF230400E4B20B55401C822304008B
:10847400E4B20B55401C00230400E4B20B55401C2D
:1084840084230400E4B20B55401C5A230400E4B2D4
:108494000B55401C01230400E4B20B55401C13008F
:1084A4009BB21B0A0400E4B20B55401C0300DBB270
:1084B400CA54401CC31E8B70C0B210BC704730B489
:1084C400030000205A240500EDB25455401CA52495
:1084D4000500EDB25455401CFF240500EDB254557F
:1084E400401C82240500EDB25455401C0C00A4B27B
:1084F400240A0500EDB25455401C0400E4B21155A1
:10850400401C1C00A4B2240A0500EDB25455401CC2
:108514000400E4B21355401CC41E9470C0B230BCB5
:108524007047F8B504000D000A4E771C3A00290084
:1085340089B2200080B2FFF7C2FF86F8010196F8E5
:10854400011189B2380002F09CFAF1BD9C3400207C
:108554004C3400204C3200204C36002004000240F1
:108564005C0002405800024062B38B0708D0521EE0
:1085740011F8013B00F8013B00F024808B07F6D191
:10858400830740F0208000BF103A07D330B4B1E82D
:108594003810103AA0E83810F9D230BC530724BF81
:1085A400B1E80810A0E8081044BF51F8043B40F8B3
:1085B400043BD20724BF31F8022B20F8022B44BF1E
:1085C4000B7803707047121F17D35B0009D151F861
:1085D400043B20F8023B1B0C121F20F8023BF6D28E
:1085E4000BE051F8043B00F8013B1B0A20F8023B66
:1085F4001B0C121F00F8013BF3D238BF121D521E90
:1086040024BF11F8013B00F8013BF8D87047026819
:10861400531C0360117070470300002013F0030F14
:1086240009D0521E22BF13F8010B11F801CBB0EB95
:108634000C00F3D0704711F0030F14D1121F22BFA6
:1086440053F8040B51F804CB6045F7D0121D0AD23D
:1086540000BA9CFA8CFCB0EB0C0038BF6FF0000041
:1086640088BF01207047521E22BF13F8010B11F876
:1086740001CBB0EB0C00F6D0521C08BF104670477B
:10868400014648B1B0FA80F18840C91CC1F5846143
:10869400090501EBD021400570472E002DE9F04D6E
:1086A40016461F46044626F0000A37F0004008BF6D
:1086B400BAF1000F8AB00D4600F056830020DFF8AF
:1086C400B41622462B4602F0DBFA00F04D83DFF8A5
:1086D400A81602F0D5FA06D178004015401C02D144
:1086E400390300F0418368004015401C00F05882B3
:1086F40024F0000035F0004108BF002800F050824B
:1087040078004015401C00F04B82BB464FEA4B01F9
:1087140051EADA714FEA4A0008BF00281CD040F23F
:108724003342A2EB5150352804DB0AF0000A0BF067
:10873400004B11E0202805DD20382BFA00F101FA66
:1087440000FB00E002D14FF0000A05E00028C4BF9E
:108754002AFA00F101FA00FAE80F22D0390007D50D
:1087640000224FF00043921BBB41CDE9002301E0FE
:10877400CDE9006759460029504605D500224FF03F
:108784000043101A63EB0101DDE900238B4208BFAB
:10879400824206D0AFF300804FF0FF306FF000410B
:1087A400E4E225F00041B1F5801F24F000000CD272
:1087B4000022002908BF0028029211D002AA2946EB
:1087C40002F06EFA04460D460AE0DFF8B02502EB2B
:1087D4001150DFF8AC1502900D40DFF8A8150D43D9
:1087E400E80F08BF00223DD0594650464B0043EAEB
:1087F400D0734200002B08BF002A25F0004517D093
:1088040040F2344CACEB5352352A04DB00F0000048
:1088140001F000410CE0202A03DD203AD1409140D0
:1088240000E001D1002003E0002AC4BFD040904002
:10883400BBF1000F06D500224FF00043B2EB0A0A49
:1088440063EB0B0B002905D500224FF00043101AEF
:1088540063EB01018B4508BF824502D100210591DC
:1088640001E0012205920298012833D120462946CD
:10887400DFF81425DFF8143502F04AFA2AD248004A
:108884004FF00008400DC246DFF8E8B400F10102E1
:1088940012D0002A10DD40F2FF70824207DBDFF8BD
:1088A400F01405F00043002443EA010533E06FF3BC
:1088B4001E5141EA02552EE024F0000035F000413B
:1088C40008BF002827D00122294602F039FA0446BD
:1088D4000D4620E00020DFF8BC1422462B4600F0B1
:1088E400ADFBDFF8A0B400225B4602F0C7FA00F04B
:1088F40077FCA0F12008404602F07EFB0022DFF85E
:10890400983400F09BFB00225B4602F0B7FA8246E3
:108914008B464FEA48182046294652465B4602F0E9
:108924007DFBCDE9000152465B462046294602F014
:10893400A5FA02460B46DDE9000100F05BFACDE939
:108944000601DDE9062300F079FBCDE9000152467A
:10895400204629465B4602F061FBDDE9002304461C
:108964000D46DFF83804DFF8381400F067FBDFF851
:108974003424DFF8343402F081FADDE9002300F016
:108984005DFBDFF82824DFF8283402F077FADDE90C
:10899400002300F053FBDFF81C24DFF81C3402F042
:1089A4006DFADDE9002300F049FBDFF81024DFF85D
:1089B400103402F063FADDE9002300F03FFBDFF836
:1089C4000424DFF8043402F059FADDE9002300F04E
:1089D40035FBDFF8F823DFF8F83302F04FFACDE97E
:1089E400080152460020DFF88C135B4602F016FBA8
:1089F4000B465A00520D02F1010C15D0BCF1000FC8
:108A040012DD40F2FF72944508DBDFF8842301F0A5
:108A140000404FF0000A40EA020B10E06FF31E53CF
:108A240043EA0C5B82460AE020F0000231F0004386
:108A34000EBF002A012202F083F982468B46DDE94B
:108A44000023DDE9080100F0F9FA22462B4602F082
:108A5400E5FA52465B4602F011FADDE9062300F01E
:108A6400EDFADFF800E3FE440EF2FA2EC644CDF828
:108A740004E022462B4602F001FA044602980D4611
:108A840002F0BAFADDF804E0DEE9002302F0F6F9B8
:108A9400CDE906012246DFF83C03DFF83C132B4600
:108AA40000F0CCFADDE9062302F0E8F932463B4651
:108AB40000F0C4FA0022DFF8243302F029F966D367
:108AC4000122DFF81C3302F01BFB5DD9CA0F1ABF69
:108AD4000022C44BAB4B02F0D1F900F081FB002221
:108AE400A44BDFF804A3DFF804B3CDE903238046E5
:108AF400CDF8008032463B462046294600F09EFAD7
:108B0400044601988446D0E902230D46DCE90401B9
:108B140002F0B4F932463B4600F090FA52465B4606
:108B240000F08CFA22462B4602F0A8F9CDE90101A7
:108B3400DDE906453046394622462B4600F07EFAEA
:108B440004460D46404602F057FA02460B462046BC
:108B5400294602F063FA52465B4600F06FFADDE9FB
:108B6400012302F08BF9DDE9032302F0E1FA20F09E
:108B7400000631F0004708BF002E08D04A00521505
:108B8400521C06D10B0304D10020814901E00020CE
:108B94000021059A002A00F0E98081F00041E5E017
:108BA40068004015401C04D1290302D02046294600
:108BB400DCE078004015401C04D1390302D0304673
:108BC4003946D3E0790001204915491C7CD03B4645
:108BD400590051EADA7B4FEA4A0104BF0029CDE982
:108BE4000067324619D040F23341A1EB5B5135297D
:108BF40004DB02F0000203F000430CE0202903DD53
:108C04002039CB408B4000E001D1002203E0002951
:108C1400C4BFCA408A40CDE900233B0008D50021E7
:108C24004FF0004B8A1B6BEB0303CDE9022301E0F9
:108C3400CDE90263DDE90023002B05D500214FF0C7
:108C440000468A1A66EB0303DDE902AB9B450CBFC1
:108C540092450020DDE90023590041EAD276510013
:108C6400002E08BF002917D040F23441A1EB565121
:108C7400352904DB02F0000203F000430CE0202954
:108C840003DD2039CB408B4000E001D1002203E01A
:108C94000029C4BFCA408A40B0B1DDE900010029FF
:108CA40005D500264FF0004B301A6BEB0101002B69
:108CB40005D500264FF0004BB21A6BEB0303994223
:108CC40006BF90420020012069004915491C07D1C4
:108CD4002A0305D1EC0F1BD1FE0F3FD0002045E045
:108CE40079004915491C1BD13A0319D125F00041DB
:108CF400B1F5801F24F000001DD20022002908BF16
:108D0400002800921BD06A46294601F0C9FF16E0EC
:108D1400FE0F02D1002822D01DE0002826D006E054
:108D2400002814BFEC0F0024FE0F13D17CB10020E7
:108D34004FF000411AE0114A02EB11500090FE0F6F
:108D4400009802D1002809DC01E0002806DD00209B
:108D540000210BE014B10020254907E000200C4954
:108D640004E000BF685A0000002002490AB0BDE8D0
:108D7400F08D00000000F03F0000F0BF02FCFFFF98
:108D8400FFFF0F800000E03FCD3B7F669EA0E63FE3
:108D94000000F07F000050400000903FF7DE29BF44
:108DA400D8F8C23FF4B3FECC1A99C33F62CB68D95A
:108DB4006F46C73FC6C912DAC471CC3F4AE98A94E8
:108DC4002449D23FF75F97999999D93FBC55555596
:108DD4005555E53FFE822B654715F73F0000E0C07F
:108DE4000000E0400000E0BFEF39FAFE422EE63F0B
:108DF4000000F0FFF0B540F2FF7581EA030C0CF0BF
:108E0400004C15EA11541DBF15EA1357AC42AF428A
:108E1400E5E0BC41C1F31301C3F31303801A994184
:108E240043F4801304D2641E400049418018594120
:108E3400C90241EA5051B1FBF3F603FB1611A2FB40
:108E44000675D7EBC020A94102D2761E801859417D
:108E5400C90241EA5051B1FBF3FE03FB1E11A2FB10
:108E64000E75D7EBC020A94103D2AEF1010E8018D4
:108E74005941890241EA9051760546EA8E2EB1FBAA
:108E8400F3F603FB1611A2FB0675D7EB8020A9416C
:108E940002D2761E80185941C90241EA50514EEA65
:108EA400060EB1FBF3F603FB1611A2FB0675D7EB16
:108EB400C020A94102D2761E80185941C90241EA54
:108EC4005051B1FBF3F703FB1711A2FB0735D3EBAA
:108ED400C020A94167F100070CBF004247F0010719
:108EE40066F3D5274FEA1E31B80814F5806412DD05
:108EF400BD0775F1004250EB0E5051EB045111F5D2
:108F0400801F5CBF41EA0C01F0BD4CF07F6141F071
:108F1400E0410020F0BDBD076D0840EA0E5041F469
:108F24008011D4F10104B4F120060ADAC4F1200658
:108F34000200E04001FA06F3E1401843B240154351
:108F44000EE0342C13DCC6F1200445EA40056D081C
:108F540020FA06F2154321FA06F0A1400D43002140
:108F640075F1004250F1000051EB0C01F0BD0020FE
:108F74005FEA0C01F0BDCFB992185B41B3FA83F7F5
:108F840004BFB2FA82F6BF190B3FB7F120062FBF18
:108F940002FA06F3BB40C7F1200622FA06F638BFF0
:108FA4003343BA401CB1E419641E33E77F4231F005
:108FB4000041B1FA81F404BFB0FA80F6A4190B3C65
:108FC400B4F120062FBF00FA06F1A140C4F1200637
:108FD40020FA06F638BF3143A0403C1B1AE7AC42E6
:108FE4001ABF05EA1357AF4212E050EA41061CBF0C
:108FF40052EA4306BFE750EA4107304661461CBFC8
:1090040041EA0551F0BD52EA430C08BFC143F0BD2B
:1090140000204FF4001616EB410F98BF16EB430FD8
:1090240008BF16EB410F24BFC14305E016EB430F05
:109034000CBF61464CEA0551F0BD4300B0B581EA6E
:10904400030C0CF0004C40F2FF7515EA11541DBFDF
:1090540015EA1357AC42AF4239E0E41923EA455309
:1090640043F48013C90241F0004141EA505EC70253
:109074001100A7FB020200284FF00000EEFB0120C4
:109084004FF00001E3FB072118BF42F00102401832
:1090940000214941E3FB0E01A4F580640F0302D2D1
:1090A40052004041494154F101046CDD470872F11A
:1090B400004250F1000051EB0451A1F580115CBF56
:1090C40041EA0C01B0BD4CEA05510020B0BD05EAEF
:1090D4001357AC4214BFAF4241E050EA410E1CBFEB
:1090E40052EA430E02E061460020B0BD24423C44F3
:1090F4001BD15FEA070EF6D0090302BF0146002028
:10910400AEF1140EB1FA81F7AEEB070401FA07FED3
:109114000C37C7F1200100FA07F7C8404EEA000EE9
:1091240023EA455343F48013A2E733F00043B3FA30
:1091340083F704BFB2FA82FE77440B3FE41BB7F116
:10914400200E2FBF02FA0EF3BB40C7F1200E22FA05
:109154000EFE38BF43EA0E03BA40641C82E750EAAD
:10916400410E14BF52EA430E6FF000014FF4001792
:1091740017EB430F8ABF194617EB410FB5E74CEACB
:1091840005510020B0BDD4F10104B4F120070FDA79
:10919400C4F12007520828BF42F0010210FA07F573
:1091A40001FA07F7E1BF2A43E0403843E1400FE00A
:1091B400352C98DCC7F1200452EA400220FA07F269
:1091C40018BF42F0010231FA07F0A1400A4300211E
:1091D40072F1004250F1000051EB0C01B0BD0000EF
:1091E400C1F30A5340F2FE329B1A14DDD3F120037B
:1091F4004FEAE17208DDC90241EA505141F00040F2
:10920400D84080185040704703F2E13010B1D24387
:1092140082F00040704700207047002848BF404259
:1092240070470000F8B55FF4E13002F03BF901202B
:1092340002F09CF9DFF8BC43E16A14F1300002F05B
:10924400ACF9A16D14F1660002F0EFF95FF40010BF
:10925400DFF8A41308604FF49070DFF8A0130860DF
:10926400DFF89C03016851F00101016038250026F4
:1092740014F15407320029003800FAF757FF002090
:10928400A0600120E060032084F8200001206084B5
:109294000220A084F1BD2DE9F84304000D0016005E
:1092A4001F005FF000095FF00008FF204946C9B2C3
:1092B400785419F101094846C0B23C5419F1010926
:1092C400280080B2000A4946C9B2785419F101094C
:1092D4004846C0B23D5419F10109300080B2000A79
:1092E4004946C9B2785419F101094846C0B23E54FE
:1092F40019F101094946C9B2380000F089F80100A2
:109304004846C0B2395419F10109080080B2000A74
:109314004A46D2B2B85419F101094846C0B2BDE870
:10932400F2832DE9F84F06000F0090469946DDF8C8
:1093340028A00B9C0C9D5FF0000B0020ADF80000F2
:10934400FF205946C9B20AF801001BF1010B584627
:10935400C0B20AF800601BF1010B404680B2000A5B
:109364005946C9B20AF801001BF1010B5846C0B2B4
:109374000AF800801BF1010B484680B2000A5946E6
:10938400C9B20AF801001BF1010B5846C0B20AF831
:1093940000901BF1010B5846C0B20AF800701BF193
:1093A400010B200080B2000A5946C9B20AF8010034
:1093B4001BF1010B5846C0B20AF800401BF1010B27
:1093C400280080B2000A5946C9B20AF801001BF10C
:1093D400010B5846C0B20AF800501BF1010B594664
:1093E400C9B2504600F014F801005846C0B20AF859
:1093F40000101BF1010B080080B2000A5A46D2B2D9
:109404000AF802001BF1010B5846C0B2BDE8F28F06
:1094140070B403000022002600244FF6FF700025DC
:109424002A000E00F6B292B2B6B2B24218D22A00A4
:1094340092B29A5C5040002214002200D2B2082A50
:109444000CDAC20706D580B202004AF2010090EAA3
:10945400520001E080B24008641CEEE76D1CDFE7B7
:1094640080B270BC7047F8B5040000256068092814
:1094740018D3002600276068811EC9B214F11200B7
:10948400FFF7C6FF616821444A7C120261682144E7
:10949400097C0A430100130089B29BB2994201D1AD
:1094A40001210D002800C0B2F2BD38B50400514DB1
:1094B400032085F82000012068840220A88414F188
:1094C4001003A28861882078FFF7E5FEE862E96A64
:1094D40089B215F1300002F02AF931BD3EB504001D
:1094E40010202070012060800220A0800020E080F5
:1094F400012020813F4D20890290E088019014F1E1
:1095040010000090A388628804212078FFF709FFE7
:10951400E862E96A89B215F1300002F008F937BD52
:109524002DE9704304000D000026E8001DD5280332
:10953400000BFFF7A5F880468946C5F30350FFF7F3
:109544009FF802000B0000202E49FFF7A7F8020045
:109554000B0040464946FFF74DFC00222A4BFFF71B
:109564006DFDFFF73DFE40421BE02803000BFFF7B3
:1095740087F880468946C5F30350FFF781F8020057
:109584000B0000201F49FFF789F802000B0040463A
:109594004946FFF72FFC00221B4BFFF74FFDFFF757
:1095A4001FFEA268217C11F0030104EB81014969CB
:1095B400521AA2602169002901D104212161217C70
:1095C40011F0030104EB810148612169491C216107
:1095D400A1684118A1602169042903D3A1688910F5
:1095E400E16004E0A1682269B1FBF2F1E160BDE849
:1095F40070830000543300200400024070000240D5
:109604006C0002400000244000408F4080B50120DF
:1096140002F0B8F802F0BEF8012002F061F961200E
:1096240002F024FA0028FAD04FF4007002F05DF939
:10963400012002F05FF902F0B1FA02F0AAFA002167
:10964400012002F065FA02F0A4FA49F63F4002F064
:1096540091FA02F09EFA01BD10B5040002F099FAE5
:1096640002F09CFA02F095FA2100C9B2012002F03E
:109674004FFA02F08EFA10BD10B50400012002F07A
:1096840081F802F086FA200002F067FA02F081FA0B
:1096940010BD00001CB5042100226C462000FAF71E
:1096A40045FD03208DF8020014208DF80300814845
:1096B4008188ADF800106946006802F09DFA7E4882
:1096C4008188ADF800106946006802F095FA13BD70
:1096D400002064210800411E0028FBD170474FF48C
:1096E40020514843401C0100481E0029FBD170470B
:1096F40010B5704CA088216808616F4881880068A3
:109704000161FFF7E5FF20688068002801D101208E
:1097140000E00020217911F00101084201D000206D
:1097240011E0A08821684861FFF7D2FF20688068B3
:10973400A188084201D0002005E0A0882168486182
:10974400FFF7C6FF012010BD38B55B4CA088216827
:109754004861FFF7BDFF574DA88829684861FFF7A6
:10976400B7FFA08821680861FFF7B2FFA8882968BD
:109774000861FFF7ADFF31BD10B54F4CA0882168DB
:109784004861FFF7A5FF4B48818800684161FFF7F6
:109794009FFFA08821680861FFF79AFFA0882168CD
:1097A4004861FFF795FF10BD10B5434CA0882168B0
:1097B4004861FFF78DFF3F48818800680161FFF72A
:1097C40087FFA08821680861FFF782FFA0882168CD
:1097D4004861FFF77DFF10BD38B5374CA08821687C
:1097E4004861FFF775FF334DA88829680861FFF7C2
:1097F4006FFFA08821680861FFF76AFF2868806806
:10980400A988084204D0A08821684861002003E0A8
:10981400A08821684861012032BD70B50400082584
:109824002800451EC0B2002817D0234EB0883168E6
:109834004861200604D51F4881880068016103E05F
:109844001C48818800684161FFF742FFB088316895
:109854000861FFF73DFF6400E2E71748818800686C
:10986400416170BDF8B508240025124EB0883168F6
:1098740008612000441EC0B2002813D06D000E4FB2
:10988400B88839684861FFF723FFB88839680861E8
:10989400FFF71EFF30688068B1880842E9D055F0B0
:1098A4000105E6E704488188006841612800C0B2E8
:1098B400F2BD000020F3000828F300082DE9F14F61
:1098C400B2B09946924600230691CDE900333C9A02
:1098D4000F930DF14A0114914A7011E0329E5746DC
:1098E4002C4617F8011B0698B0470028069000F094
:1098F40026810F98401C641E0F90F2D13296AA4420
:109904009AF80000252808D10021002209910A9222
:109914000B910C920D910E920FE06A464FF0FF31BD
:10992400504602F05DFA050002D10F9800F066BEC1
:10993400D4D50125E3E741F001011AF8010F2028ED
:10994400F9D023280CD02B2804D02D2805D030287A
:1099540009D00BE041F00201EFE741F00401ECE72C
:1099640041F00801E9E741F01001E6E72A280FD1A8
:10997400D9F8002052F8040BC9F8002000281190EF
:1099840003D54042119041F004010AF1010A14E0A8
:109994001192DFF8EC3B0AE01198984205DA00EBEB
:1099A400800402EB4402303A11920AF1010A9AF857
:1099B4000020A2F130000A28EED39AF800002E28E5
:1099C40003D04FF0FF32109229E01AF8010F2A2831
:1099D40009D1D9F8000050F8042BC9F800001092FE
:1099E4000AF1010A1BE02D280CBF0AF1010A00202C
:1099F40000221092DFF8882B0BE040B9109B9342B1
:109A040005DA03EB830504EB4504303C10940AF1BA
:109A1400010A9AF80040A4F130030A2BEDD3ADF803
:109A240048100FF660309AF8001002F0E3F908B11C
:109A34001AF8010B8DF84A009DF84A00682805D1F0
:109A44009AF8000068280CD1622106E06C2804BF53
:109A54009AF800006C2804D171218DF84A100AF19B
:109A6400010A1FA808901AF801BBBBF125012DD0EB
:109A74001C3900F06181091F022940F25D810E3911
:109A84002AD0491F00F0B384093900F05581891E9A
:109A940000F04985491E00F0F584491E022940F270
:109AA4004B81091F00F0EE84491F00F0BA80491E63
:109AB40000F09D84491E65D0C91E21D0891E00F086
:109AC4009684C91E00F0938400F04CBD25238DF8C4
:109AD4007C30012109912AE06C208DF84A00D9F8E4
:109AE400000050F8042BC9F80000002A43D114994F
:109AF400487800283DD04FF0FF340FF6902012E054
:109B04009DF84A006C28EAD0D9F8000050F8044BBC
:109B1400C9F800000794D4B91499487898B14FF063
:109B2400FF340FF6842002F071F9201A07D132981D
:109B34001FAA04A900F065FD00287FF5E1AE4FF0EF
:109B4400FF3000F05BBD0FF67C200790EFE7109D1F
:109B5400002D04D5204601F077F8044607E02A4694
:109B6400204602F073F9002814BF041B2C460A9403
:109B7400DDE70FF65422329804A900F0C8FD00284E
:109B8400D5D5DCE7D9F8001051F8040BC9F800105A
:109B940020F00004002121F0FF351FABCDE904457E
:109BA4000793DDE9042308993C2413B90AB91098F2
:109BB40098B102F00F053035641EEEB23A2EA8BFFC
:109BC4002735120942EA03721B090D5508BF002A02
:109BD40003D007980D19A842EBD308190790C4F1D4
:109BE4003C0210980A92824209DABDF84810821A9F
:109BF4004FF6EF7001400C92ADF8481097E700283B
:109C040095D59DF8480000F0140010288FD1119BC1
:109C140009990C985B1A1B1A9A1A002A87DD0C9270
:109C240085E71499487820B14FF0FF340FF69C1063
:109C340079E79DF84A00622862D0682819D06A281A
:109C440040D06C2806D071284DD074282DD07A28A5
:109C54001ED064E0D9F8001051F8040BC9F80010C4
:109C640020B94FF0FF340FF67C105CE70F990160C8
:109C74005DE7D9F8001051F8040BC9F8001020B9B9
:109C84004FF0FF340FF65C104DE70F9901804EE75B
:109C9400D9F8001051F8040BC9F800100028E5D1D8
:109CA4004FF0FF340FF63C103DE7D9F8001051F89F
:109CB400040BC9F800100028D8D14FF0FF340FF678
:109CC400241030E7D9F8001051F8040BC9F800103B
:109CD40020B94FF0FF340FF60C1024E70F9AD31776
:109CE400C0E9002323E7D9F8001051F8040BC9F8A0
:109CF40000100028F2D14FF0FF340FF6E80012E70D
:109D0400D9F8001051F8040BC9F8001020B94FF02D
:109D1400FF340FF6D00006E70F99017007E7D9F872
:109D2400001051F8040BC9F8001000289ED14FF020
:109D3400FF340FF6B000F6E6D9F80020D21D22F069
:109D44000702C9F80020D2E900010832C9F800204E
:109D5400CDE90401C80F02D009982D210AE0BDF80D
:109D64004800810702D509982B2103E0C00705D5D7
:109D7400099820211FAA1154401C0990DDE90423ED
:109D840009991FA8CDE92E2308444BF0200161292D
:109D9400079015AC0BD01099002902D5062110911B
:109DA40005E001BF4BF02001672901221092DDE993
:109DB400042359004915491C10D11A030ED0ABF1E4
:109DC400610503211A2D0A9102D20FF6A43101E094
:109DD4000FF6A0310322FEF7C7FBA8E65900491588
:109DE400491C0AD11A0308D1ABF1610503211A2DCC
:109DF4000A9116D30FF68431ECE7DDE90401CDE9CD
:109E04003001DDE9302323F00047B7F5801F22F04D
:109E140000060DD20022002F08BF002E029203D1AB
:109E240016E00FF65431D5E702AA00F039FF0FE02F
:109E3400DFF8EC0ADFF8EC1A00EB17500290DDE9CA
:109E440030234FF0FF301940DFF8DC7A10403943FB
:109E5400CDE904014BF0200061280DD10798302191
:109E64000170821CBBF1610F07920CBF782158214D
:109E740041700998801C0990DDE9040120F000027A
:109E840031F0004308BF002A02D10026002571E109
:109E94004BF02008B8F1610F40F0BE801098002804
:109EA40047BF21210391401C0390039FDDE92E014C
:109EB4007F1C00220023DDE9044500F029FF0299FC
:109EC4008DF8542038BF85F00045091F002F0291FA
:109ED4000DF155065DDDDFF8541ACDE9302140F26D
:109EE400FF732E93204629460022002301F008F92F
:109EF4004FD24800400D00F11C0215D0002A13DD9A
:109F04002E9B9A420ADBDDE9300121F0004205F084
:109F140000400243DDE93001114611E06FF31E51A8
:109F240041EA025120460BE024F0000035F00041E4
:109F340008BF00280FBF29461C22294600F000FF55
:109F440004460D46FFF74CF9FF1F002F804609DD3C
:109F540001F052F802460B462046294601F05EF80D
:109F640004460D46F01D0721B8F1000F0CDD491E13
:109F74005EBF08F00F0200F8012D4FEA2818F3D550
:109F840002E0002200F8012D491EFAD5C61D002F5B
:109F9400A8DC0DF15500361A03988642D8BF304626
:109FA40000280DF1550430D4B04206DA0DF1550104
:109FB4000A5C082AA8BF0F2100DA0021024615AB6B
:109FC400134400E0401E13F80159521E8D42F9D08B
:109FD4000F2904D10DF155018B5C5B1C8B54002AB5
:109FE40004D50299091D15AC401C0291411E0CD4E4
:109FF4006218ABF13A0613783033DDB23A2DA8BFBC
:10A00400F318491E02F80139F5D51099002940F1D9
:10A01400AF80421E1092ABE00299DFF8142947F298
:10A024009750414391FBF2F2DDE92E45029225F06F
:10A034000045D2F1070204DD2046294600F04CFC1D
:10A044000BE052420020DFF8EC1800F045FC024619
:10A054000B4620462946FEF7CDFE0446B8F1660FAE
:10A06400109806BF029F0A3706273F18142FC8BF4F
:10A07400142730208DF854000D460020DFF8B8185E
:10A08400CDE92E010DF15506002F33DD204629467A
:10A0940001F008FF01460A4606F1080304200A26D7
:10A0A400B2FBF6F606EB860EA2EB4E02303203F854
:10A0B400012C0A22B6FBF2F202EB820EA6EB4E064C
:10A0C4003036401E03F8026DE9D1083F002F03F13A
:10A0D4000806D9DD0846FEF7D3FA02460B462046A9
:10A0E400294600F09BFFDDE92E23FEF7A7FF044677
:10A0F4000D46CBE70DF15500361A0DF1550404E079
:10A104000298401E761E0290641C20783028F7D0F6
:10A11400B8F1660F02D10299491C04E0B8F1650F49
:10A124000CBF01210021109808188642B8BF701E88
:10A1340000281DD4B04204DA215C3429C8BF392177
:10A1440000DC30210246631E9D1800E0401E15F815
:10A154000169521E8E42F9D0392902D1A15C491CF1
:10A16400A154002A04D50299491C1C46401C0291A2
:10A174000646029D01F038FE406A0778DDF840800B
:10A1840030B2002802DC01260FF2F4744BF02000F8
:10A19400662808BF6D1C16D0672846D128B210F176
:10A1A400040F48DB404546DA9DF848006D1C010762
:10A1B40003D430B24045B8BF804628B2B8EB00089B
:10A1C40048BF4FF000080FFA85FB07980A99BBF1C6
:10A1D400000F00F3B2804A1C0A9230234354B8F1B2
:10A1E400000F03DC9DF84800010704D50A98411CC0
:10A1F4000A9107990F5418EB0B0FB8BFC8F100056B
:10A204002DB268420D90A84432B29045B8BF46467C
:10A21400079B0A9836B20B96324621461844FEF73D
:10A22400A3F9A8EB06000E90CBE0BBF1610F17D1A8
:10A234004FF0700B19E030B2404504DA9DF8481035
:10A244000A0758BF8046B8F1010848BF4FF000081C
:10A25400BBF1670F14BF4FF0450B4FF0650B04E0E3
:10A26400BBF1410F08BF4FF0500B0A98411C0A91F3
:10A27400B8F1000F079914F8012B0A5403DC9DF878
:10A28400480001071AD50A98411C0A91B8F1000F39
:10A2940007990F5412DD761E30B2804507980A9B49
:10A2A400B8BF464632B221461844FEF75DF90A9912
:10A2B40036B271180A91A8EB06000D9007980A9916
:10A2C40008442AB2002A80F800B003D42B2242703A
:10A2D400811C04E02D2141701546811C6D42002033
:10A2E4002EAA0A2409E02B4693FBF4F505EB850618
:10A2F400A3EB460302F8013B401C2DB2002DF2DC17
:10A30400012806DC4BF02002652A04BF302201F844
:10A31400012B00282EAA08D1302001F8010B06E0F9
:10A32400401E135C303301F8013B0028F8DC079A27
:10A334000A981044091A0B9143E0084431B22AB236
:10A34400914219DA32B22146FEF70EF90A9936B271
:10A354007118ABEB0606B8F1000F0A910D9603DCF9
:10A364009DF84800020704D5079847540B99491CE7
:10A374000B91CDF8388024E02146FEF7F5F80A98D1
:10A38400761B5844B8F1000F0A9003DC9DF848107E
:10A394000A0703D5411C0A9107990F5430B280452E
:10A3A40007980A9BB8BF464632B204EB0B01184427
:10A3B400FEF7DAF80A9836B230180A90A8EB0600CD
:10A3C4000D909DF8480000F0140010287FF4AFAB06
:10A3D400099A0A990D988A180B9982180E988A1866
:10A3E400821811988242BFF6A2AB821A17E49DF834
:10A3F4004A00622808D068280ED06A2814D06C2835
:10A404001FD0712810D01CE0D9F8001051F8040BAB
:10A41400C9F80010C0B21AE0D9F8001051F8040BC2
:10A42400C9F8001080B212E0D9F80020D21D22F041
:10A434000702C9F80020D2E900010832C9F8002057
:10A4440006E0D9F8001051F8040BC9F800100021F7
:10A45400CDE904019DF8480001075AD5DDE904233C
:10A46400002B08BF002A54D04BF02000782850D18C
:10A4740009981FA930220A54401C431C099301F86F
:10A4840000B046E09DF84A00622808D068280ED043
:10A494006A2814D06C281FD0712810D01CE0D9F879
:10A4A400001051F8040BC9F8001040B21AE0D9F8B2
:10A4B400001051F8040BC9F8001000B212E0D9F8EA
:10A4C4000020D21D22F00702C9F80020D2E90001C1
:10A4D4000832C9F8002006E0D9F8001051F8040B3E
:10A4E400C9F80010C117CDE90401002902D5099863
:10A4F4002D210AE0BDF84800810702D509982B21D7
:10A5040003E0C00705D5099820211FAA1154401C57
:10A5140009901FA809990144079104A8594600F01D
:10A5240056F9FFF704BB9DF84A006C280BD00121B3
:10A534000991D9F8000050F8041BC9F800008DF8FF
:10A544007C10FFF7F4BAD9F8000050F8041BC9F8DE
:10A55400000015914FF0FF3210920021169115AAB8
:10A56400FFF709BB25210122BBF1000F8DF87C10F8
:10A5740009923FF4DCAA8DF87DB00221FFF7AABA54
:10A58400CBCCCC0C686A6C747A4C00007072696E27
:10A5940074665F733A2062616420256C7320617273
:10A5A40067756D656E7400007072696E74665F73B2
:10A5B4003A2062616420257320617267756D656E4F
:10A5C4007400000000000000000000007072696E5A
:10A5D40074665F733A20256E20646973616C6C6FD6
:10A5E400776564007072696E74663A2062616420F3
:10A5F400256E20617267756D656E740033B0BDE8B9
:10A60400F08F2DE9FC410F46064690467A6B786937
:10A61400396ABC6A121AB869521A796A121AF86944
:10A62400521A121A97F83800141B41070FD420202D
:10A63400002C8DF800000ADD254601236A463946C0
:10A64400304600F07DF900285DD16D1EF5D17B699F
:10A6540042463946304600F073F9002853D1302081
:10A664008DF800003D6A002D09DD01236A46394654
:10A67400304600F065F9002845D16D1EF5D1BB695F
:10A68400FA683946304600F05BF900283BD13020A7
:10A694008DF800007D6A002D08DD01236A463946E5
:10A6A400304600F04DF970BB6D1EF6D1F868B969FB
:10A6B400FB6942183946304600F042F918BB302095
:10A6C4008DF80000BD6A002D08DD01236A46394675
:10A6D400304600F035F9B0B96D1EF6D197F8380060
:10A6E40041070DD52020002C8DF8000008DD012342
:10A6F4006A463946304600F023F920B9641EF6D183
:10A704000020BDE8F6814FF0FF30BDE8F6812DE969
:10A71400F8470D46A3B02F6B002F8246904648BFE2
:10A724006FF0004701F0D2FB696B401801AA0021C9
:10A73400C2E90011812828BF4FF0FF3044D2894676
:10A744001EE0A74230DB6869201881280BD3002162
:10A75400696303AA29465046FFF753FF5FEA0009DD
:10A7640022D40020686103AB6E69224669469819B9
:10A77400FDF7FAFEA6196E6158F8040BA0B13F1B51
:10A78400002F11DDD8F8001001AA684601F02AFB59
:10A794000446002C05D4D8F800000028D1D1641E4A
:10A7A400CFD54FF0FF390EE0B9F1000F504604D178
:10A7B40003AA2946FFF725FF8146B9F1000F02D10C
:10A7C400002068616863484624B0BDE8F0872DE93D
:10A7D400FC4307466F293E6908BF082405D041F0B1
:10A7E4002000782814BF0A2410243C25D7E900232C
:10A7F400642918BF69299046994605D1002B03D5D1
:10A80400D8F1000869EB4909B9F1000F08BFB8F1A4
:10A81400000F0CD1386B50B9082C39D197F8380097
:10A82400010735D530203B2586F83B0030E08DF814
:10A834000010404649462246E31701F04DFB3032F2
:10A84400D0B26D1E3A28019504DB9DF80000A0F1FA
:10A8540051018A187255404649462246E31701F0D1
:10A864003BFB80465FEA010908BFB8F1000F03D043
:10A87400F86871198842DCD3082C09D197F838009C
:10A88400010705D5705D302802D06D1E302070554B
:10A89400C5F13C02BA617119F960386B824208DA79
:10A8A400821A3A624FF6EF70398F01403987BDE85A
:10A8B400F38300280ED597F8380000F01400102810
:10A8C40008D17B6B7969386A5B1A1B1A9A1A002AB9
