:020000040800F2
:20000000601F002069230008B5210008B7210008B9210008BB210008BD2100080000000043
:20002000000000000000000000000000BF210008C121000800000000C3210008C521000814
:20004000C9230008CD230008D1230008D5230008D9230008DD230008E1230008E523000890
:20006000E9230008ED230008F123000875220008F5230008F9230008FD2300080124000800
:2000800005240008092400080D2400081124000815240008192400081D2400082124000868
:2000A00025240008292400082D2400083124000835240008392400083D2400084124000848
:2000C00045240008492400084D2400085124000855240008592400085D2400080722000884
:2000E0006124000865240008692400084FF4C0414843401C0100481E0029FBD1704710B54A
:2001000000F0CCFA5FF4803000F0E8FA00F003FB04002000C0B201282BD1002000F038FB68
:20012000002000F045FB4FF4806000F039FB4FF4404000F049FB002000F043FB022000F0D1
:2001400039FC102000F03FFC5FF400115FF4803000F000FB012000F009FB392000F0E0FB84
:200160000028FAD0022000F006FB00F00CFB0828FBD110BD10B504002100C9B21D2000F028
:2001800097FB2100C9B25FF4802000F09FFB10BD80B500215FF0006000F00CFD4FF4A060A6
:2001A00000F0D0FC01BD80B50121DFF8980400F09EFD10208DF8030003208DF80200DFF837
:2001C00088048188ADF800106946006800F016FD01BD70B5FFF793FFFFF7DAFF0120FFF76A
:2001E000C9FF72B6FFF7DFFFDFF85C44A088216808610A20FFF77AFF00F0C0FD00F0CCFEAA
:2002000045F25555DFF844643088A84206D100F0B1F8002802D14AF6AA2030805FF4E13053
:2002200000F090FF00F0E6FF0021012000F0F3FF01F04AF8A088216848613088A84204D142
:200240000120DFF80C14086003E04020DFF80014086062B670BDDFF8F8030178890716D57D
:20026000016831F002010160DFF8E8030168491C01600078C00705D5DFF8CC03818800686F
:20028000416104E0DFF8C003818800680161704738B50400002072B62568DFF8BC132940DF
:2002A000B1F1005F0ED1DFF8B403211D09680160DFF8AC1300680860206880F3088808685F
:2002C000804707E00120DFF8881308600020DFF89413086062B631BD80B5DFF8740301786D
:2002E00049060FD4DFF87C13096829290AD3DFF85C13098845F25552914203D1016851F0C0
:20030000800101600078000608D5DFF83C03818800684161DFF85003FFF7BAFF01BD70B5BB
:20032000DFF848430721200001F0F7F800280DD00721200001F0FFF85FF4E13000F002FFA9
:2003400000F058FF0021012000F065FFC84C200001F0B8F900280CD0C6480178200000F04F
:2003600042F840F60C15002632002900200001F0DBF970BDF8B50024BF4E00250027082205
:20038000BE49300001F01AFA00281CD1082005002800C0B2322810DA30780700761C380088
:2003A000C0B2202803DB3800C0B2802803DB3800C0B2002801D16D1CEAE72800C0B2322883
:2003C00001D1012004002000C0B2002808D10722AB49AC4801F0F2F9002801D10120040087
:2003E0002000C0B2F2BD2DE9FE4F04000D005FF000095FF0000A40F60C1B0094DFF88882C5
:2004000046465A460099300001F00CFAB8F8020040440179B8F80200404442794FF480701C
:20042000424352FA81F6B8F80210091F18F1080001F04CFA07003000390080B289B288429B
:2004400040F0EC8098F80D008DF808000020B4F80B10ADF80A10BDF80A104FF6FF729142D8
:2004600006D0BDF80A0079498988884240F0E8809DF80800012875D0022835D0032800F05D
:20048000A480042805D005280BD0F72800F0B580C4E000207349086001F05CFB7B4948802F
:2004A000BCE06B48007840061DD55FF000090020002198F80F806C4A4346DBB212EB832A0F
:2004C000924510D37248016851450CD11AF580610160504601F068FC83465846C0B201F0C6
:2004E00011FC6A49488099E059480078400638D500210022002398F80800002831D198F8D7
:200500000F008DF80000D8F81090D8F814A05648814526D35F491AEB09000A68904202D02A
:20052000086800281DD1C1F80090DFF81CB1BBF80400DBF800100861524618F118014846FD
:2005400001F03DFC002807D0524649469DF8000001F04AFB4D494880BBF80400DBF8001088
:2005600048615BE0DFF8248101F060FAA8F80200B8F8020000280BD0B8F8021018F10400AA
:2005800001F062FC0220FFF7B1FD0020A8F802002F480168490849000160016851F04001BE
:2005A00001604AF6AA202949088000F079FD00F0A4FD00F012FA304801F0F6FB2A4834499A
:2005C000086000203349086028E0FFF7D3FE012812D101F075FA2D4948801D48016851F027
:2005E0008001016045F255501849088000F058FD00F083FD00F0FAF910E0DFF890800020C5
:200600000190002000903223234A9DF8081018F1040001F0ABF9A8F80200FFE7DFF86C803D
:20062000B8F8020000280BD0B8F8021018F1040001F00AFC0220FFF759FD0020A8F802000F
:20064000BDE8F78F00023000A8230008301B0020381B0020441B00200000FE2F4C1B002059
:20066000481B0020501B0020004000080048004014000020581B00200050000878230008DA
:20068000A023000880500008200900202C1200203C1B0020401B002078220008DFF8C812CB
:2006A000086850F001000860DFF8C0221368DFF8C002034013600B68DFF8B80203400B60EC
:2006C000086830F480200860106830F4FE0010605FF41F00DFF8A01208607047DFF88812E9
:2006E0000A6832F480320A600A6832F480220A600200B2F5803F03D0B2F5802F05D009E053
:200700000A6852F480320A6004E00A6852F4A0220A60FFE7704738B50020009000240025BA
:20072000312000F0FDF805000098401C009000984FF6FF71884203D02800C0B20028EFD08F
:20074000312000F0EDF8002801D0012000E00020C0B232BD30B40023844D2C6834F47C14D4
:2007600051EA000214432C6030BC70470100C9B2824A1160704700217C4B1A6892089200B0
:2007800002431A6070477948006810F00C0070470021764B1A6832F0F00202431A60704709
:2007A0000021724B1A6832F4E06202431A60704700216E4B1A6832F4605252EAC0021A604F
:2007C00070476F49086070470021684B1A6832F4404202431A6070472DE9F04F010000229F
:2007E000002500200026614FD7F800C01CF00C0C6346002B04D0042B05D0082B06D023E073
:20080000614A0A6022E0614A0A601FE03A6812F470123B6813F480331800920C921C1500AD
:20082000002804D15A4A02FB05F20A600BE03A68920304D5574A02FB05F20A6003E0534A3F
:2008400002FB05F20A6001E04F4A0A603C6814F0F0042409DFF8409119F804E00A6832FA52
:200860000EF24A603B6813F4E0631B0A19F803804A6832FA08F28A603A6812F46052D20A30
:2008800019F80290D1F804A03AFA09FAC1F80CA03F6817F44047BF0BDFF800A11AF807A078
:2008A000D1F80CB0BBFBFAFBC1F810B0BDE8F08F0A00D2B2002A04D0394A13680343136028
:2008C00003E0374A13688343136070470A00D2B2002A04D0334A13680343136003E0314AAE
:2008E00013688343136070470A00D2B2002A04D02D4A13680343136003E02B4A13688343BD
:20090000136070470A00D2B2002A04D0274A13680343136003E0254A1368834313607047BF
:2009200030B401000020002300250A00D2B25209D2B2012A02D10C48046806E0022A02D15A
:200940001048046801E01A4804680B00DBB213F01F032000D840C00701D5012000E0002071
:20096000C0B230BC7047000000100240041002400000FFF8FFFFF6FE081002406000424293
:20098000D80042422010024000127A00001BB70000093D00808D5B0000000020100000202D
:2009A000181002401C1002400C10024010100240241002400021DFF840311A6812F0380202
:2009C00002431A607047DFF830110A6832F010020A600A6802430A607047DFF82001DFF8D2
:2009E00020110160DFF81C1101607047DFF81801016851F080010160704770B504000426C3
:200A00005FF0FF3000F086F805002800C0B204281AD1DFF8F460306850F002003060DFF8C8
:200A2000EC000460306850F0400030605FF0FF3000F070F805002800C0B2052804D03168AF
:200A400041F6FD70014031602800C0B270BDF8B504000D000427002000905FF0FF3000F052
:200A600059F806003000C0B204282DD1DFF89870386850F00100386025805FF0FF3000F0E8
:200A800049F806003000C0B2042814D1A01C00902800000C009908805FF0FF3000F03AF81B
:200AA00006003000C0B205280ED0396841F6FE700140396008E03000C0B2052804D0396837
:200AC00041F6FE70014039603000C0B2F2BD04210F480268D20701D501200AE002685207E3
:200AE00001D5022005E00068C00601D5032000E00420C0B2704700000020024004200240FD
:200B000023016745AB89EFCD10200240142002400C20024070B504000425FFF7D8FF06009A
:200B20003000C0B2012806D1002C04D0FFF7CFFF0600641EF4E7002C01D105200600300093
:200B4000C0B270BD25490143254A11607047F0B4002200230F24C17800291FD02049096866
:200B600011F4E061D1F5E061090AD1F104052B00CC4045789D408678264035432D012A0045
:200B8000184D0678AA550125067816F01F06B540154E07787F1146F8275009E00121057800
:200BA00015F01F05A940114D0678761145F82610F0BC70470E4A0A4002430E4B1A60704779
:200BC000042805D10C490A6852F004020A6004E009490A6832F004020A6070470000FA05AA
:200BE0000CED00E000E400E000E100E080E100E080FFFF1F08ED00E010E000E0F0B500224D
:200C00000023002400250026002791F803C01CF00F0C91F803E05FEACE6E02D58A7852EAA2
:200C20000C0C0A7812062AD00268160000221400082C23D25FF0010E1EFA04F215000A8816
:200C40002A401300AB4217D1A20015000F22AA401700BE431CFA05F21643CA78282A04D189
:200C60001EFA04FEC0F814E006E0CA78482A03D11EFA04FEC0F810E0641CD9E706600A8846
:200C8000B2F5807F2EDB4268160000221400082C27D25FF0010E14F108021EFA02F21500F4
:200CA0000A882A401300AB4219D1A20015000F22AA401700BE431CFA05F21643CA78282A6A
:200CC00004D114F108021EFA02F24261CA78482A05D114F108021EFA02FEC0F810E0641CA8
:200CE000D5E74660F0BD0A0092B202617047F0B40022002300250027002802D51D4C246854
:200D000001E01D4C2468C0F3034586B210F4401CBCF5401F07D134F07064174A176837F083
:200D20007067176011E0C20206D50322AA4013009C4354F0706408E00200520DD2B21201DC
:200D400016FA02F2944354F070640A00D2B2002A06D00200520DD2B2120116FA02F21443BF
:200D6000002802D5034A146001E0034A1460F0BC704700001C0001400400014080B50320B4
:200D80008DF8020014208DF8030081488188ADF8001069460068FFF731FF7E488188ADF8D8
:200DA000001069460068FFF729FF01BD0020C8210800411E0028FBD170474FF4C041484346
:200DC000401C0100481E0029FBD1704710B5704CA088216808616F48818800680161FFF789
:200DE000E5FF20688068002801D1012000E00020217911F00101084201D0002011E0A08893
:200E000021684861FFF7D2FF20688068A188084201D0002005E0A08821684861FFF7C6FF0B
:200E2000012010BD38B55B4CA08821684861FFF7BDFF574DA88829684861FFF7B7FFA08842
:200E400021680861FFF7B2FFA88829680861FFF7ADFF31BD10B54F4CA08821684861FFF78F
:200E6000A5FF4B48818800684161FFF79FFFA08821680861FFF79AFFA08821684861FFF79B
:200E800095FF10BD10B5434CA08821684861FFF78DFF3F48818800680161FFF787FFA088C3
:200EA00021680861FFF782FFA08821684861FFF77DFF10BD38B5374CA08821684861FFF770
:200EC00075FF334DA88829680861FFF76FFFA08821680861FFF76AFF28688068A988084224
:200EE00004D0A08821684861002003E0A08821684861012032BD70B5040008252800451E76
:200F0000C0B2002817D0234EB08831684861200604D51F4881880068016103E01C488188DC
:200F200000684161FFF742FFB08831680861FFF73DFF6400E2E7174881880068416170BD38
:200F4000F8B508240025124EB088316808612000441EC0B2002813D06D000E4FB88839684F
:200F60004861FFF723FFB88839680861FFF71EFF30688068B1880842E9D055F00105E6E77F
:200F800004488188006841612800C0B2F2BD000090230008982300082DE9FE430025002689
:200FA000082100226C46200000F0BEFB0027644C2200082141F6F87000F059FF0500280035
:200FC000C0B2002814D05FF000085FF000090621200000F07BFCE18802000B0092B29BB22F
:200FE0009A4202D00022150001E00122150007E03220FFF7E2FE7F1C3800C0B20328D6DBC3
:201000005FF000086A4608214FF4F05000F02FFF06003000C0B2002814D000275FF00009CC
:201020000621684600F052FCBDF8061002000B0092B29BB29A4202D00022160001E001224A
:20104000160008E03220FFF7B8FE18F101084046C0B20328D6DB55EA0600C0B2002809D1F5
:201060004AF6AA2020800020608000F019F800F044F813E03000C0B2002802D100F03DF8E4
:201080000CE02800C0B2002808D10827E9463A004946200000F0C6FB00F002F8BDE8F783C8
:2010A00070B500240025264E0020F0800621300000F00CFCF0803200082141F6F87000F015
:2010C0009DFF04002000C0B2002806D0320008214FF4F05000F092FF04002000C0B20028C3
:2010E00008D13220FFF769FE6D1C2800C0B20328E1DBFFE72000C0B270BD70B5002400254B
:201100000F4E0020F0800621300000F0DFFBF080320008214FF4F05000F070FF04002000F0
:20112000C0B2002808D13220FFF747FE6D1C2800C0B20328ECDBFFE72000C0B270BD0000F5
:20114000301B002030B585B00400042100226D46280000F0E9FA1021002201AD280000F0F8
:20116000E3FA10208DF8030003208DF802003A4DA888ADF8000069462868FFF73FFDA98832
:201180002868FFF7B0FD354D280000F0C1F834488188ADF8001003218DF8021018218DF816
:2011A000031069460068FFF729FD2E488188ADF8001004218DF8031069460068FFF71EFDD0
:2011C00001940020ADF808000020ADF80A000020ADF80C000020ADF810000C20ADF80E0059
:2011E00001A9280000F0DCF80121280000F04EF905B030BD80B527208DF8000001208DF88F
:20120000010000208DF8020001208DF803006846FFF79DFC01BD70B504000D000F4E40F2BD
:20122000A551300000F0C4F92200D2B240F22551300000F03AF92A00D2B240F226613000A3
:2012400000F033F970BD054909880906FBD50100C9B2054A11807047C02300080048004001
:20126000B0230008B82300080448004010B4020052B2002A05D40A011D4B040064B21A555B
:2012800008E00A011B4B040064B214F00F04234403F8042C10BC704710B50400601EB0F1C7
:2012A000807F01D301200EE0601E134908600F215FF0FF30FFF7DAFF002010490860072085
:2012C0000F490860002010BD80B50420FFF778FC0C48FFF7E1FF00200B49086000200B4924
:2012E00008600F215FF0FF30FFF7C0FF01BD000000E400E018ED00E014E000E018E000E010
:2013000010E000E0C0270900501B0020541B002010B50400584884420AD101214FF48040C4
:20132000FFF7E2FA00214FF48040FFF7DDFA36E0524884420AD101215FF40030FFF7E2FA22
:2013400000215FF40030FFF7DDFA28E04C4884420AD101215FF48020FFF7D4FA00215FF492
:201360008020FFF7CFFA1AE0464884420AD101215FF40020FFF7C6FA00215FF40020FFF710
:20138000C1FA0CE04048844209D101215FF48010FFF7B8FA00215FF48010FFF7B3FA10BD5D
:2013A0002DE9F84F86B004000D00002600275FF000085FF000095FF0000AA8890028A346F2
:2013C000218A4CF6FF700140E8880143009100982082A1894EF6F3100140AA882889024317
:2013E00068890243114300910098A081A18A4FF6FF400140A889014300910098A08201A8C0
:20140000FFF7EAF91C48834501D1049900E00399A089000407D5192000FB01F02A685200CA
:20142000B0FBF2F206E0192000FB01F02A689200B0FBF2F26420B2FBF0F6360133001B09BA
:20144000642000FB1323A089000408D5D80032306427B0FBF7F010F00700064307E0180126
:2014600032306427B0FBF7F010F00F000643268107B0BDE8F08F0000003801400044004016
:2014800000480040004C0040005000400A00D2B2002A04D0828952F40052828104E0838986
:2014A0004DF6FF721340838170472DE9F0410023002500275FF0000E0C0040F66A16A4B23F
:2014C000B44280460C00E4B26409E4B20E00B6B216F01F065FF0010C1CFA06FC012C02D196
:2014E00018F10C0806E0022C02D118F1100801E018F114081300DBB2002B06D0D8F8003020
:201500005CEA0303C8F8003005E0D8F8003033EA0C03C8F80030BDE8F0810200002308004B
:2015200080B2B0F5007F1088084201D0012000E00020C0B270470A0092B292050A0092B225
:20154000D24302807047F0B4040000270020002200260B0040F66A159BB2AB420D00EDB260
:201560006D09EDB20B009BB213F01F035FF0010C1CFA03F3012D02D1A089034006E0022DEF
:2015800002D1208A034001E0A08A03400A0092B2120A92B21CFA02F220880240002B03D09D
:2015A000002A01D0012000E00020C0B2F0BC704770B4002200240B0040F66A159BB2AB42D6
:2015C0000B009BB21B0A01259D402E00B6B2F643068070BC70470A78002A06D0812A0DD049
:2015E000822A1ED0842A3DD068E00200D2B27E2A03D181220A707E228A715FE00200D2B2CF
:20160000552A04D182220A705522CA7108E00200D2B27E2A02D181220A7001E000220A7023
:201620004CE00200D2B2082A0DDB0200D2B2F12A09DA84220A700200D2B2D21C8A80087242
:2016400003224A800DE00200D2B2002A07D184220A7014228A80087203224A8001E000225A
:201660000A702BE00A7A002A1CD14A880E2A04D18A8852FA80F28A8014E04A880F2A06D1BB
:201680008A880300DBB21B029A188A800AE04A88102A02D18A888A8004E04A88112A01D127
:2016A0008A888A804A88531C4B8092B20A4490714A888B889A4201D306220A700022C1F85D
:2016C00008297047010000200A78052A08D14A88092A02DB0122100007E000220A7004E0FB
:2016E0000A78062A01D101221000C0B2704730B4002513E050F8042BD30744BFA9F101031C
:201700009A18091F042942F8045BFAD213468C0744BF15809B1CC90748BF1D7050F8041B57
:201720000029E7D130BC704762F30F2262F31F42401810F0030308D0C91A1FD3DB0748BFF5
:2017400000F8012D28BF20F8022D130030B414461546103928BF20E93C00FAD8490728BF0B
:2017600020E90C0048BF40F8042D890028BF20F8022D48BF00F8012D30BC7047C91818BFA5
:2017800000F8012DCB0728BF00F8012D704730B40EE00268436802440830DC0744BFA9F1A8
:2017A0000104E31852F8045B43F8045B091FF9D150F8041B0029ECD130BC704703000020E1
:2017C00013F0030F09D0521E22BF13F8010B11F801CBB0EB0C00F3D0704711F0030F14D1C5
:2017E000121F22BF53F8040B51F804CB6045F7D0121D0AD200BA9CFA8CFCB0EB0C0038BF78
:201800006FF0000088BF01207047521E22BF13F8010B11F801CBB0EB0C00F6D0521C08BF6B
:201820001046704762B38B0708D0521E11F8013B00F8013B00F024808B07F6D1830740F08C
:20184000208000BF103A07D330B4B1E83810103AA0E83810F9D230BC530724BFB1E8081081
:20186000A0E8081044BF51F8043B40F8043BD20724BF31F8022B20F8022B44BF0B78037076
:201880007047121F17D35B0009D151F8043B20F8023B1B0C121F20F8023BF6D20BE051F8BB
:2018A000043B00F8013B1B0A20F8023B1B0C121F00F8013BF3D238BF121D521E24BF11F868
:2018C000013B00F8013BF8D87047000070B403000022002400264FF6FF7000258D4214D2F0
:2018E0005A5D504000221600082E0CD2C20706D580B2020048F2084090EA520001E080B21C
:201900004008761CF0E76D1CE8E780B2C04380B270BC704770B403000022002600244FF69C
:20192000FF7000252A000E0092B2B6B2B24218D22A0092B29A5C504000221400220092B2C1
:20194000082A0CDAC20706D580B2020048F2084090EA520001E080B24008641CEEE76D1C10
:20196000E0E780B2C04380B270BC70472DE9F74F82B0070098460E9C0F9D00260020ADF8A2
:2019800004007E20B855761C5520B855761C18F10B00B855761C0120B855761C0020B85552
:2019A000761C0020B855761C0020B855761C1F20B855761C9DF80C00B855761C0020B855CC
:2019C000761C2000C0B200280CD1C1465FFA89F90498009007EB060A4A4600995046FFF719
:2019E00021FF0BE0C1465FFA89F95FF0000A07EB060B524649465846FFF796FE56FA88F681
:201A0000BC55761CBD55761CB878411E89B2B81CFFF780FF0100B955761C080080B2000A87
:201A2000B855761C300005B0BDE8F08F70B500260024DC4D7E2005EB06010871761C552051
:201A400005EB06010871761C092005EB06010871761C012005EB06010871761C002005EB26
:201A600006010871761C002005EB06010871761C002005EB06010871761C1F2005EB0601DA
:201A80000871761C012005EB06010871761C002005EB06010871761CA879411E89B2A81D76
:201AA000FFF738FF010005EB06000171761C080080B2000A05EB06021071761C300070BD52
:201AC00070B500260024B74D7E2005EB06010871761C552005EB06010871761C092005EB63
:201AE00006010871761C012005EB06010871761C002005EB06010871761C002005EB060178
:201B00000871761C002005EB06010871761C1F2005EB06010871761C032005EB06010871C4
:201B2000761C002005EB06010871761CA879411E89B2A81DFFF7EEFE010005EB0600017126
:201B4000761C080080B2000A05EB06021071761C300070BD70B500260024924D7E2005EB6B
:201B600006010871761C552005EB06010871761C092005EB06010871761C012005EB060199
:201B80000871761C002005EB06010871761C002005EB06010871761C002005EB0601087166
:201BA000761C1F2005EB06010871761C042005EB06010871761C002005EB06010871761C0A
:201BC000A879411E89B2A81DFFF7A4FE010005EB06000171761C080080B2000A05EB0602B6
:201BE0001071761C300070BD2DE9F84304000D00160000275FF00008DFF8A8917E2009EBDD
:201C0000070108717F1C552009EB070108717F1C002009EB070108717F1C012009EB0701D6
:201C200008717F1C002009EB070108717F1C002009EB070108717F1C002009EB070108719B
:201C40007F1C1F2009EB070108717F1C022009EB070108717F1C002009EB070108717F1C38
:201C600009EB070004717F1C09EB070005717F1C2800000A09EB070108717F1C2800000CD7
:201C800009EB070108717F1C2800000E09EB070108717F1C09EB070006717F1C3000000AA7
:201CA00009EB070108717F1C3000000C09EB070108717F1C3000000E09EB070108717F1C7A
:201CC0002000C0B2002807D0320009EB0700011D280000F09AF8F7193800811E89B219F152
:201CE0000600FFF717FE010009EB070001717F1C080080B2000A09EB070210717F1C380035
:201D0000BDE8F283F8B5040000270025254E7E2006EB070108717F1C552006EB07010871A7
:201D20007F1C0A2006EB070108717F1C012006EB070108717F1C002006EB070108717F1C76
:201D4000002006EB070108717F1C002006EB070108717F1C1F2006EB070108717F1C0520B8
:201D600006EB070108717F1C002006EB070108717F1C06EB070004717F1CB079411E89B25E
:201D8000B01DFFF7C7FD010006EB070001717F1C080080B2000A06EB070210717F1C380024
:201DA000F2BD00002C12002010B504002000FEF724FE042801D1012000E0002010BD2DE914
:201DC000F04704000D0016000020002101275FF00108A9465FF0000AB24512D250468008A3
:201DE00059F820101AEB0400FEF731FE07003800C0B2042802D00020804602E01AF1040AA5
:201E0000EAE74046C0B2BDE8F0872DE9F84F04000D00160000275FF000085FF000095FF034
:201E2000010A0094AB46FEF7D8FD0021B1EB960F06D2009850F821004BF82100491CF5E768
:201E40005046C0B2BDE8F28F70B504000D00002000263000290080B289B2884206D2300040
:201E600080B2205CFFF7EFF9761CF2E770BD2DE9F04104000D0016005FF001080027280029
:201E800080B2002860D0FEF7A1FF002801D1002080464046C0B2002808D0A020FFF72BF872
:201EA000FFF708F8002801D1002080464046C0B2002808D0200080B2000AC0B2FFF71BF87D
:201EC000FEF7F8FF80464046C0B2002806D02000C0B2FFF710F8FEF7EDFF80464046C0B22B
:201EE000002805D0FEF772FF002801D1002080464046C0B2002808D0A120FEF7FCFFFEF701
:201F0000D9FF002801D1002080466D1E4046C0B2002817D0002007003800290080B289B282
:201F2000884208D2FFF70CF8390089B27054FEF791FF7F1CF0E7FFF703F8390089B27054AB
:201F4000FEF7A0FFFEF76EFF4046C0B2BDE8F0812DE9F04104000D00160000275FF0010890
:201F6000280080B2002842D0FEF730FF002801D1002080464046C0B2002808D0A020FEF71C
:201F8000BAFFFEF797FF002801D1002080464046C0B2002808D0200080B2000AC0B2FEF762
:201FA000AAFFFEF787FF80464046C0B2002806D02000C0B2FEF79FFFFEF77CFF80460020C6
:201FC00007003800290080B289B288420DD24046C0B2002807D0380080B2305CFEF78BFF17
:201FE000FEF768FF80467F1CEBE7FEF71BFF0520FEF7E3FE4046C0B2BDE8F0812DE9F047ED
:2020000004000D00160000275FF000085FF0000A200010F01F0F1BD014F01F00D0F1200085
:2020200007002800390080B289B2884200D22F00404680B206EB0002390089B218EB0400DA
:2020400080B2FFF785FF8146ED1B17EB080801E05FF001094846C0B200281FD0280080B248
:2020600000281BD0202007002800390080B289B2884200D22F00404680B206EB0002390089
:2020800089B218EB040080B2FFF762FF8146ED1B17EB08084846C0B20028DFD14846C0B2BC
:2020A000BDE8F08780B53D49086850F0010008603B4A13683B48034013600B683A480340BF
:2020C0000B60086830F480200860106830F4FE0010605FF41F003549086000F001F801BDF0
:2020E00080B500F001F801BD82B000200190002000902A49086850F480300860086810F4BE
:20210000003000900198401C01900098002804D101984FF6FF729042F0D10868800302D538
:202120000120009001E0002000900098012831D11F48026852F0100202600268920892007D
:202140000260026852F00202026015480268026002680260026852F480620260026832F492
:202160007C120260026852F4A02202600A6852F080720A600A689201FCD501688908890032
:202180000160016851F002010160016811F00C010829FAD102B070470000000000100240A2
:2021A000041002400000FFF8FFFFF6FE08100240002002407047FEE7FEE7FEE7FEE7704722
:2021C0007047704725480168491C016000681521B0FBF1F201FB1200002804D120480168ED
:2021E00051F0020101601F48017809060AD5D0F80819491DC0F80819D0F808190A2901D354
:2022000005210170704770B5174C40F2255529002000FFF798F900280FD0002601201349C2
:20222000087029002000FFF7C3F9114805880D492800C0B2FFF7CFF90AE04FF45871200081
:20224000FFF781F9002803D009480088C005C00D208810F47C40208070BD0000501B0020E8
:20226000381B00201400002000480040581B00200448004070470000426F6F742056332EEE
:20228000315F323230333236303020474433324633787800000000000000000000000000A6
:2022A00000000000000000000000000010B5074979441831064C7C44163404E00A68081D2C
:2022C000114488470146A142F8D110BD08000000280000001BF4FFFF481B00001400002046
:2022E00000000000ABF4FFFF1400000068000000000000200000000000F00DF8002801D0B7
:20230000FFF7D4FFAFF300800020AFF3008000F004F800F00CF80120704780B5FDF759FF57
:20232000FDF799FFFDF7D8FFFDF7F9FFF8E700F001B800000746384600F002F8FBE700003B
:2023400080B5AFF30080024A11001820ABBEFBE7260002000000000001020304010203040A
:2023600006070809020406080148804701480047A520000885230008204353313131302075
:2023800000000000AFF30080AFF30080FFF7B4FF000C014080000000000C014040000000F6
:2023A00047323330323030000010014004000000000C014000040000000C014000080000B4
:2023C0000010014020000000FFF7FEBFFFF7FEBFFFF7FEBFFFF7FEBFFFF7FEBFFFF7FEBF5A
:2023E000FFF7FEBFFFF7FEBFFFF7FEBFFFF7FEBFFFF7FEBFFFF7FEBFFFF7FEBFFFF7FEBF45
:20240000FFF7FEBFFFF7FEBFFFF7FEBFFFF7FEBFFFF7FEBFFFF7FEBFFFF7FEBFFFF7FEBF24
:20242000FFF7FEBFFFF7FEBFFFF7FEBFFFF7FEBFFFF7FEBFFFF7FEBFFFF7FEBFFFF7FEBF04
:20244000FFF7FEBFFFF7FEBFFFF7FEBFFFF7FEBFFFF7FEBFFFF7FEBFFFF7FEBFFFF7FEBFE4
:0C246000FFF7FEBFFFF7FEBFFFF7FEBF57
:20400000D0590020B1EC0008E1E60008E3E60008E5E60008E7E60008E9E600080000000093
:20402000000000000000000000000000EBE60008EDE6000800000000EFE60008F1E6000810
:204040000DEE000811EE000815EE0008C7E8000819EE00081DEE000821EE000825EE000840
:2040600029EE00082DEE000831EE000835EE000839EE00083DEE000823E80008FFE7000849
:2040800087E70008ABE7000841EE000845EE000849EE00084DEE000851EE000855EE00088A
:2040A00059EE00085DEE000861EE000865EE000869EE00086DEE000871EE000875EE000818
:2040C00079EE00087DEE000881EE000885EE000889EE0008C5E700084DE7000845E8000868
:2040E0008DEE000891EE000895EE000899EE00089DEE0008A1EE0008A5EE0008A9EE000838
:20410000ADEE0008B1EE0008B5EE0008B9EE000817E7000885E80008BDEE0008C1EE000816
:20412000C5EE0008C9EE0008CDEE0008D1EE000862F30F2262F31F42401810F0030308D009
:20414000C91A1FD3DB0748BF00F8012D28BF20F8022D130030B414461546103928BF20E968
:204160003C00FAD8490728BF20E90C0048BF40F8042D890028BF20F8022D48BF00F8012D91
:2041800030BC7047C91818BF00F8012DCB0728BF00F8012D7047F00908CEB4B0F3B6A8CDB7
:2041A000D0C5CC00018301011C20020102030404F0090806070809020406081E970004528E
:2041C000FF01E3868614200400007687000857F003164000002000012002457E00082C4396
:0A41E000337E3C210100010101FFC4
:205000002043533131313020323330373238303120473233303230300000000000000000D2
:125020000000000000000000000000000000000000007E
:205034002DE9F0476C240025DFF858672A0021003000FFF773F840F62C060027DFF84887B3
:205054003A0031004046FFF769F840F638285FF00009DFF838A74A4641465046FFF75EF857
:2050740000F01CF8002804D00320DFF82417487003E00220DFF818174870DFF81847A01D79
:2050940000F03BF9208020886080DFF8F40600218170007801F06BFFBDE8F0872DE9F04791
:2050B4005FF0000800240025DFF8D46632001821002002F063FC07003800C0B2002810D096
:2050D4005FF000085FF000091421300002F072FD716902000B0092B29BB29A4201D0002200
:2050F4001700320018214FF4807002F047FC80464046C0B200280FD000245FF0000914213C
:20511400300002F057FD716902000B0092B29BB29A4201D00022904658EA0700C0B2002805
:2051340021D118245FF00009B2464A4621005046FEF7F4FF0020B070002070700120B0811C
:20515400C0207071A820B0710220F0710A2030720120F0700020307100203070322030615D
:2051740000F068F826E03800C0B201280FD14046C0B200280BD132001821002002F0FEFBA0
:20519400320018214FF4807002F0BFFC12E03800C0B200280ED14046C0B201280AD13200DF
:2051B40018214FF4807002F0E9FB32001821002002F0ABFC02F05AFD45F25550DFF8D8158C
:2051D4000A88824208D14A88737A9BB29A4203D18A88B3899A4206D00880B089888002F015
:2051F400C9FD02F0F4FD3800C0B2012805D14046C0B2012801D1012005002800C0B2BDE8F1
:20521400F08710B50024DFF88C253C214FF4C87002F0B4FBC0B210BDF8B504000D00160006
:2052340000273200290089B2200080B202F0A6FBC0B2F2BD70B50024DFF8446500207061DD
:205254001421300002F0B6FC706132001821002002F05BFC0500320018214FF4807002F0F7
:2052740054FCC0B270BD38B50024DFF828550020A8633821280002F09DFCA8632A003C21FD
:205294004FF4C87002F041FCC0B232BDF8B504000D00160000273200290089B2200080B20C
:2052B40002F033FCC0B2F2BD30B4010080240020002200250023180080B232281ADA0020CD
:2052D40002001000C0B2082812DA180080B2085C204202D0280080B20DE0E4B264086D1C66
:2052F4002000C0B2002801D180200400521CE8E75B1CE0E7002030BC704730B401008024A3
:2053140000200025002200231D00ADB2322D17DA00252A001500EDB2082D0FDA1D00ADB286
:205334004D5D254200D0401CE4B264082500EDB2002D01D180252C00521CEBE75B1CE3E705
:2053540080B230BC704730B4010080240020002200250023180080B232281ADA0020020097
:205374001000C0B2082812DA180080B2085C204202D1280080B20DE0E4B264086D1C2000A6
:20539400C0B2002801D180200400521CE8E75B1CE0E7002030BC704710B58AB0040002A8FE
:2053B400202102F039FD207A0190E0790090A3796279DFF8C81C02A802F040FD0020009021
:2053D400002302AA1E2141F2100002F05DFE207A0190E0790090A3796279DFF8A41C02A8CF
:2053F40002F02CFD00200090002302AA142141F2300002F049FE0AB010BD2DE9F84F94B006
:2054140004000D000026002750210022E8464046FEF784FE002194F81380D5F82808401CC3
:20543400C5F82808D5F81008401CC5F8100885F80B884046C0B2002800F09F80DFF8441CDF
:205454000878002804D10220DFF83C2C107003E00420DFF8342C1070D5F82408401CC5F80A
:2054740024084046C0B201286CD100200870D5F81C08401CC5F81C080020C5F820080020A3
:20549400C5F814080120DFF8741D88705FF0080914F1140AEB464A465146584602F084FFB0
:2054B400DFF8E40BD5F81C18027891420DD1012085F80C085FF00809EA4605F6020B4A460C
:2054D4005146584602F070FF32E0D5F81C18007881422DD3022085F80C08002007003800C2
:2054F400C0B2082815DA3800C0B2284490F8020869463A00D2B2895C884205D0D5F8180881
:20551400401CC5F8180804E00020C5F818087F1CE5E7D5F8180803280AD30020C5F81C0800
:20553400D5F82008C01DC5F82008042085F80C08DFF8CC0C016811F1010F35D05FF0FF313D
:20555400016031E001200870D5F8140802280ED30020C5F81408D5F82008C01DC5F8200888
:20557400042085F80C08082085F80D081CE0D5F81408401CC5F8140816E0D5F82008401C47
:20559400C5F82008D5F82008032803D30420DFF86C1C8870D5F82008072805D30020C5F8C8
:2055B4001C08042085F80C083000C0B215B0BDE8F08F2DE9F8438AB004000D0002A82021EC
:2055D40002F02AFC5FF000080026DFF8BC91D9F8240802F041FF0700D9F8280802F03CFF9A
:2055F4000100380002F046FFDFF8641D02F0C0FF03F02AF80700DFF85C1D0878002805D134
:205614004A695DA102A802F019FC04E0DFF8481D02A802F013FC38004FF6FF7180B2884260
:2056340002D142F21070070000200090012302AA082141F2102002F027FD99F80B28DFF80B
:205654001C1D02A802F0FAFB00200090002302AA032141F2502002F017FDD9F8282847A117
:2056740002A802F0EBFB00200090012302AA08214FF4915002F008FD3A0092B2642092FB41
:20569400F0F100FB11220A23BC461FFA8CFC5FF0640E380080B24FF47A7192FBF3F803FB48
:2056B400182201929CFBFEF20EFB12CC0A229CFBF2F2009290FBF1F201FB1200642190FBD6
:2056D400F1F3380080B24FF47A7190FBF1F2DFF8341E02A802F0B2FB00200090012302AADA
:2056F400082141F2302002F0CFFC3000C0B20BB0BDE8F083F0B589B00400DFF8640C017816
:205714002200D2B2914234D004700078022817D12025DFF8506C01AF2A003100380002F0ED
:2057340043FEF82142F2602002F09AFC00200090012301AA20214FF4935002F0A5FC19E04D
:205754002025DFF8C46D01AF2A003100380002F02BFE4EF2070142F2602002F081FC0020FF
:205774000090012301AA20214FF4935002F08CFC00E0047009B0F0BD2564670025640000A2
:2057940050390020E036002034150020C4000020B839002034380020743900201FB5040087
:2057B40001A8082102F038FB607E002808D0022879D03ED3042800F0ED80C0F0AF8025E10E
:2057D40000200090002301AA08214FF4835002F05BFC00200090002301AA082141F2700065
:2057F40002F052FC00200090002301AA08214FF4845002F049FC00200090002301AA0821B9
:2058140041F2900002F040FC4FF44151022002F012FC43F25001022002F00DFC43F2600153
:20583400022002F008FC43F27001022002F003FCECE000200090002314F1280208214FF449
:20585400835002F021FC00200090002301AA082141F2700002F018FC00200090002301AA84
:2058740008214FF4845002F00FFC00200090002301AA082141F2900002F006FC4FF44151A4
:20589400002002F0D8FB43F25001022002F0D3FB43F26001022002F0CEFB43F2700102206C
:2058B40002F0C9FBB2E000200090002314F1280208214FF4835002F0E7FB002000900023A4
:2058D40014F13002082141F2700002F0DDFB00200090002301AA08214FF4845002F0D4FB68
:2058F40000200090002301AA082141F2900002F0CBFB4FF44151002002F09DFB43F250016D
:20591400002002F098FB43F26001022002F093FB43F27001022002F08EFB77E0002000904C
:20593400002314F1280208214FF4835002F0ACFB00200090002314F13002082141F2700053
:2059540002F0A2FB00200090002314F1380208214FF4845002F098FB00200090002301AA4F
:20597400082141F2900002F08FFB4FF44151002002F061FB43F25001002002F05CFB43F244
:205994006001002002F057FB43F27001022002F052FB3BE000200090002314F128020821E1
:2059B4004FF4835002F070FB00200090002314F13002082141F2700002F066FB0020009087
:2059D400002314F1380208214FF4845002F05CFB00200090002314F14002082141F29000C2
:2059F40002F052FB4FF44151002002F024FB43F25001002002F01FFB43F26001002002F0F4
:205A14001AFB43F27001002002F015FB1FBD2DE9F24F90B004000027002600208DF801002B
:205A34000020ADF802005FF00008002500200590B4F80500ADF804005FF0040914F1090A8C
:205A54000DF1140B4A465146584602F0ADFCBDF804004FF6FF71884208D0BDF80400DFF815
:205A7400CC1D8989884201D0002003E3DFF8C06DB4F80300A6F82E0A00203080E0798DF83F
:205A940000009DF800001F2802D1207A8DF800009DF8000086F8280A002086F8240A0020F3
:205AB40086F8260A9DF80000552809D00120DFF8841D0870DFF8800D0068DFF8801D086080
:205AD400A078002802D1B4F8097003E0BDF84000B0F10B079DF80000042817D020283DD0F2
:205AF40021287BD0222800F08C81232800F0D481252800F08580552800F05382F72810D0A4
:205B1400F8281AD0FE2800F078829FE2380080B2002805D132000021002000F0B7FA3080AA
:205B340094E2380080B2002806D132003221DFF8100D00F0ABFA308088E2380080B20028B8
:205B54000CD1002086F8240A002086F8260A32000C21DFF8F00C00F099FA3080380080B2EB
:205B740007283BD1A07A002808D0A07A0A2802D1E07A002802D0E07A012822D1DFF8AC8CC4
:205B9400607A88F80A00A07A88F80000E07A88F804005FF0040914F10C0A18F1100B4A46EA
:205BB4005146584602F000FC002086F8240A002086F8260AFFF73EFB98F8000001F0D7F994
:205BD40005E0012086F8240A042086F8260ADFF85C2C3100002000F04DFD3080380080B229
:205BF40000280CD1002086F8240A002086F8260ADFF8382C3100012000F03CFD308025E285
:205C1400380080B20D28C0F2FB8000200290DFF8380C90F80C08800700F1E480607B40281C
:205C340080F2E680607B2044807B242880F2E08048200C9000200B90DFF8108CC1460B9A42
:205C54000C994846FEF76AFA607B401C0A9014F10D000990DFF8F8BBD9460A9A09994846AB
:205C740002F0A2FB4146607B20440E3000F0F2FD88F8190004200890607B2044617B2144C9
:205C9400897B08440F30079018F12009089A0799484602F089FB02200690607B2044617B7F
:205CB4002144897B08441330039018F11C09069A0399484602F078FB607B2044617B214468
:205CD400897B0844407D88F81A00DFF8F89DDFF8F8AD18225946504602F0CCFC002823D1DC
:205CF400082218F1280119F1340002F0C3FC00281AD1042218F1200119F12C0002F0BAFC04
:205D1400002811D1022218F11C0119F1280002F0B1FC002808D1012218F11A0119F12600D2
:205D340002F0A8FC00283BD018200A90CDF824B0CDF80CA00A9A0999039802F035FB03980C
:205D54000420089018F12000079019F12C0A089A0799504602F028FB5FF0020A18F11C0006
:205D7400069019F1280B52460699584602F01CFB5FF0010B18F11A00039019F126085A4675
:205D94000399404602F010FB19F10C01607B20440E3000F05FFD89F82500012089F80C009C
:205DB4005FF0040814F109090DF1080A42464946504602F0F9FA002086F8240A002086F851
:205DD400260A029802F0C0FCDFF8000D0178032902D001780D290BD10178152908D00021A1
:205DF400417005E0012086F8240A042086F8260ADFF8600542690299300000F087FB308086
:205E140024E1380080B2152845D1207F05002800C0B200282ED1042216F5236114F112007B
:205E340002F028FC002825D15FF0040814F11609DFF890AC1AF15C0B42464946584602F06F
:205E5400B3FA04208AF85500A07ECAF80400A07E8AF86100E07E8AF86000002086F8240A95
:205E7400002086F8260A042086F82B0A002086F82A0A0AE00120DFF84C1C81F8550001205E
:205E940086F8240A042086F8260A32000021002000F0FCF83080D9E0380080B20228C0F26A
:205EB4007F80A07D0500002004905FF0FF305FF0FF31CDE90E012800C0B200281AD1DFF8B3
:205ED400108C042218F1130114F1120002F0D2FB00280FD1002086F8240A002086F8260A57
:205EF400012088F8270ADFF8EC0B016831F0400101604FE02800C0B200281AD1042216F5B5
:205F1400236114F1120002F0B5FB002811D1002086F8240A002086F8260A0120DFF8B01BC9
:205F340081F8270ADFF8AC0B016831F04001016030E008220EA914F10A0002F09BFB002839
:205F54001DD1042204A914F1120002F093FB002815D12800C0B2002811D1002086F8240A57
:205F7400002086F8260A0120DFF8641B81F8270ADFF8600B016831F0400101600AE00120A5
:205F9400DFF8401B81F85500012086F8240A042086F8260A32000021002000F077F83080CC
:205FB40054E0380080B2202826D1DFF8808898F80500617A88420ED198F80600A17A88427D
:205FD40009D198F80700E17A884204D198F80800217B884210D0607A88F80500A07A88F86B
:205FF4000600E07A88F80700207B88F80800FFF721F94046FFF7D0F928E0380080B2002894
:2060140024D0607AADF80200BDF80200012803D1012086F82C0A13E0BDF80200022803D1C6
:20603400012086F82C0A0BE0BDF80200002807D1052002F097FBDFF8940DDFF8941D0860C4
:2060540032000021002000F021F83080308800280FD19DF8010000280BD1012086F8240AD9
:20607400042086F8260A32000021002000F00EF83080308811B0BDE8F08F0000A4E20008F6
:20609400C0EC0008C4390020C53900202DE9F84F05000E00170000245FF00008002087F85C
:2060B4002A0A7E20210089B239448870641C5520210089B239448870641C0020210089B267
:2060D40039448870641CDFF864078189220092B23A449170641C808980B2000A210089B265
:2060F40039448870641CB7F82E0A210089B239448870641CB7F82E0A80B2000A210089B2E0
:2061140039448870641C1F20210089B239448870641C97F8280A210089B239448870641CD4
:206134003000C0B2F1281BDB200080B238448670641C0020210089B239448870641CB146EE
:206154005FFA89F9AA46200080B2384410F1020B4A465146584602F027F954FA86F434E0D1
:2061740097F8240A00280ED1B1465FFA89F9AA46200080B2384410F1020B4A4651465846E4
:2061940002F012F90EE0B1465FFA89F95FF0000A200080B2384410F1020B52464946584634
:2061B400FDF7BCFF54FA86F497F8240A210089B239448870641C97F8260A210089B23944AE
:2061D4008870641C2000401E3871210089B2891E381D01F0EFFC0100200080B23844817018
:2061F400641C080080B2000A220092B23A449070641C3C802000C0B2BDE8F28F601D002052
:20621400943900202DE9F84F04000D0016005FF0000B0027012085F82A0AC5F8306A7E20B1
:20623400594689B2294488701BF1010B5520594689B2294488701BF1010B0020594689B22D
:20625400294488701BF1010BDFF8E00581895A4692B22A4491701BF1010B808980B2000A37
:20627400594689B2294488701BF1010BB5F82E0A594689B2294488701BF1010BB5F82E0A92
:2062940080B2000A594689B2294488701BF1010B2220594689B2294488701BF1010B00209E
:2062B400594689B2294488701BF1010B5FF00808A146584680B2284410F1020A42464946CD
:2062D400504602F071F81BF1080B584680B2284486701BF1010B3000000A594689B22944CF
:2062F40088701BF1010B3000000C594689B2294488701BF1010B3000000E594689B2294462
:2063140088701BF1010B5846401E2871594689B2891E281D01F04EFC8246594689B2891E7A
:20633400281D01F047FC0100584680B2284481701BF1010B58460A0092B2120A03009BB232
:206354002B449A70401C2880C0B2BDE8F28F000000401C465436002064ED00086CED00080E
:20637400C200002074ED00082DE9FE4F04000D0016001F00DDF830805FF0000B0020ADF871
:206394000400C6F8307A7E20594689B2314488701BF1010B5520594689B2314488701BF1B8
:2063B400010B0020594689B2314488701BF1010BDFF8780481895A4692B2324491701BF17A
:2063D400010B808980B2000A594689B2314488701BF1010BB6F82E0A594689B231448870CC
:2063F4001BF1010BB6F82E0A80B2000A594689B2314488701BF1010B2320594689B231445E
:2064140088701BF1010B0020594689B2314488701BF1010B5FF008090095584680B23044A0
:2064340010F1020A4A460099504601F0BDFF1BF1080B584680B2304487701BF1010B380025
:20645400000A594689B2314488701BF1010B3800000C594689B2314488701BF1010B3800E4
:20647400000E594689B2314488701BF1010B584680B2304480F802801BF1010B4046000AB5
:20649400594689B2314488701BF1010B4046000C594689B2314488701BF1010B4046000E04
:2064B400594689B2314488701BF1010B584680B2304484701BF1010B5846401E30715946DD
:2064D40089B2891E301D01F075FB8246594689B2891E301D01F06EFB0100584680B23044E3
:2064F40081701BF1010B58460A0092B2120A03009BB233449A70401C3080C6F8307AC0B2C0
:20651400BDE8FE8FCCEC00087CED00082DE9F84304000D00160000275FF00008002084F872
:206534002A0A7E20390089B2214488707F1C5520390089B2214488707F1C0020390089B294
:20655400214488707F1CB94881893A0092B2224491707F1C808980B2000A390089B2214486
:2065740088707F1CB4F82E0A390089B2214488707F1CB4F82E0A80B2000A390089B221442B
:2065940088707F1C1F20390089B2214488707F1C94F8280A390089B2214488707F1C00205F
:2065B400390089B2214488707F1C380080B2204485707F1C2800000A390089B221448870FA
:2065D4007F1C2800000C390089B2214488707F1C2800000E390089B2214488707F1C380092
:2065F40080B2204486707F1C3000000A390089B2214488707F1C3000000C390089B22144A5
:2066140088707F1C3000000E390089B2214488707F1C94F8240A390089B2214488707F1C03
:2066340094F8260A390089B2214488707F1C3800401E2071390089B2891E201D01F0BAFAFA
:206654008146390089B2891E201D01F0B3FA0100380080B2204481707F1C080080B2000ACA
:206674003A0092B2224490707F1C27803800C0B2BDE8F2832DE9F84F80460D0016000024B2
:206694000027002085F82A0A7E20210089B229448870641C5520210089B229448870641C59
:2066B4000020210089B229448870641C5F488189220092B22A449170641C808980B2000A1A
:2066D400210089B229448870641CB5F82E0A210089B229448870641CB5F82E0A80B2000A1E
:2066F400210089B229448870641C1F20210089B229448870641C95F8280A210089B229443D
:206714008870641C0020210089B229448870641C4046C0B2002849D0B07A210089B2294460
:206734008870641C3078210089B229448870641C3079210089B229448870641C3069210040
:2067540089B229448870641C3069000A210089B229448870641C3069000C210089B22944B3
:206774008870641C3069000E210089B229448870641C5FF00809324810F1080A200080B266
:20679400284410F1020B4A465146584601F00CFE08340020210089B229448870641C0020EE
:2067B400210089B229448870641C1DE05FF00809234810F1080A200080B2284410F1020BDD
:2067D4004A465146584601F0EFFD083495F8240A210089B229448870641C95F8260A2100ED
:2067F40089B229448870641C2000401E2871210089B2891E281D01F0DDF98146210089B21C
:20681400891E281D01F0D6F90100200080B228448170641C20000A0092B2120A03009BB2AE
:206834002B449A70401CC0B2BDE8F28F50390020C4000020C3390020AC3900208839002048
:2068540000500008E8F7FF1F34150020EC370020ED3700202DE9F84F88B004000D007C209D
:206874008DF801005FF000095FF0000A5FF0000800260421002201AF3800FDF74FFC20784A
:206894008DF8000000279DF800003900C9B288420FD33800C0B2205C9DF80110884206D1D6
:2068B40018F1010801A83100C9B24754761C7F1CE9E79DF80000002800F0D5804046C0B2CB
:2068D40000281ED1607800280BD1A078002808D1E078002805D12079002802D105208046C3
:2068F400BCE09DF800009DF80490B0EB090914F1010A15F1280B4A465146584601F054FD2D
:20691400ACE04046C0B201281FD19DF80490B9F10109601C039015F1280A4A4603995046E0
:2069340001F042FD9DF800009DF804A0B0EB0A0A9DF804002044401C029015F1300B5246D2
:206954000299584601F030FD88E04046C0B2022835D19DF80400401E0590601C049015F19A
:206974002809059A0499484601F01EFD0DF1040B9BF801009DF80490B0EB0909B9F10109D1
:206994009DF804002044401C039015F1300A4A460399504601F008FD9DF800009BF801A036
:2069B400B0EB0A0A9BF801002044401C029015F1380B52460299584601F0F6FC4EE040467D
:2069D400C0B203284AD19DF80400401E0790601C069015F12809079A0699484601F0E4FC75
:2069F4000DF1040999F801009DF804A0B0EB0A0ABAF1010A9DF804002044401C059015F154
:206A1400300B52460599584601F0CEFC99F8020099F801B0B0EB0B0BBBF1010B99F80100C8
:206A34002044401C049015F1380002905A460499029801F0B9FC02989DF8001099F80200CF
:206A5400091A039199F802002044401C029015F14009039A0299484601F0A6FC18F10108CC
:206A74004046C0B200E0002009B0BDE8F08F10B5040060782178884223D0607820706078F6
:206A9400152808D1DFF8DC0600780A2803D1152001F0BEFA15E020780D2809D1DFF8C4067A
:206AB40000780A2804D1207880B201F0B1FA08E02078DFF8B016097851FA80F080B201F061
:206AD400A7FA10BDE0360020ED360020B8390020FC0A0020843900202DE9F04391B0040019
:206AF4000D00160001A8202101F096F909A8202101F092F90020DFF87096D9F81010D9F8C8
:206B14001470CF1B3178002908D0012964D0022900F05981142900F0558154E1DFF84C8615
:206B340098F80C00012842D118F10C00FEF736FE002000900123A21C0C214FF4825001F066
:206B5400A3FA60780D280ADB00200090012314F10E020C214FF4B25001F096FA08E00020AE
:206B74000090012309AA0C214FF4B25001F08CFA01A9206A00F030F900200090012301AAE5
:206B940005214FF4885001F0FFFAA28BDFF8E01501A801F053F900200090012301AA0A212D
:206BB40041F2101001F070FA022088F80C00002000900023DFF8BC2508214FF4995001F094
:206BD40063FA002000900023DFF8AC250E2141F2500001F059FAF6E0DFF8908598F80C0075
:206BF400012842D118F10C00FEF7D8FD002000900123A21C0C214FF4825001F045FA60788A
:206C14000D280ADB00200090012314F10E020C214FF4B25001F038FA08E00020009001230C
:206C340009AA0C214FF4B25001F02EFA01A9206A00F0D2F800200090012301AA05214FF42C
:206C5400885001F0A1FAA28BDFF8241501A801F0F5F800200090012301AA0A2141F21010FB
:206C740001F012FA022088F80C00002000900023DFF80425122141F2504001F005FA00207C
:206C940000900023DFF8EC2408214FF4995001F0FBF9D9F81010D9F81400091A002917D4FF
:206CB400D9F81010D9F81400091A4A48006981420ED3DFF8541B0878002809D1206A00FBDB
:206CD40007F0A28BB0FBF2F06062012008701DE0D9F81010D9F81400091A002912D4DFF8B8
:206CF400280B007800280DD0D9F81010D9F81400091A0F00206A00FB07F0A18BB0FBF1F094
:206D1400606203E00020070000206062DFF8C40B8078042805D1DFF8C00B0168B94200D338
:206D340007603A00C7A101A801F088F800200090002301AA05214FF4895001F025FA01A9A2
:206D5400606A00F049F800200090012301AA082141F2301001F018FADFF87890D9F8102026
:206D7400DFF8781B01A801F069F800200090012301AA08214FF49A5001F086F901A9D9F8DA
:206D94001020206A4243A08BB2FBF0F000F024F800200090012301AA07214FF49B5001F016
:206DB40073F901A9D8F85C00626A101800F014F800200090012301AA08214FF48A5001F0D7
:206DD400E3F900E0FFE711B0BDE8F0830400FA050CED00E050390020F8B584B004000D00AD
:206DF400B4F57A7F1BD26420B4FBF0F100FB11400A216422B0FBF1F301FB13000090B4FB02
:206E1400F2F002FB10420A20B2FBF0F36420B4FBF0F2DFF8CC1A280001F010F8A5E0B4F552
:206E34007A7F2AD342F21070844226D26420B4FBF0F100FB11400A2164224FF47A73B0FBEA
:206E5400F1F601FB16000190B4FBF2F002FB10420A20B2FBF0F00090B4FBF3F003FB10438A
:206E74006420B3FBF0F34FF47A70B4FBF0F2DFF8741A280000F0E2FF77E042F210708442FC
:206E940033D3DFF8641A8C422FD26421B4FBF1F201FB12410A2264234FF47A76B1FBF2F7D3
:206EB40002FB17110291B4FBF3F103FB11430A21B3FBF1F10191B4FBF6F106FB1146642161
:206ED400B6FBF1F10091B4FBF0F100FB11404FF47A71B0FBF1F342F21070B4FBF0F2DFF8C5
:206EF4000C1A280000F0AAFF3FE0DFF8FC198C423BD3DFF8FC29944237D26422B4FBF2F3BB
:206F140002FB13420A2364264FF47A77B2FBF3FC03FB1C220392B4FBF6F206FB12460A2297
:206F3400B6FBF2F20292B4FBF7F207FB12476422B7FBF2F20192B4FBF0F200FB12404FF451
:206F54007A72B0FBF2F00090B4FBF1F001FB104142F21070B1FBF0F3DFF88C09B4FBF0F2F7
:206F7400DFF89019280000F069FF05B0F0BD38B504002000C0B20A282AD14FF6FF75290009
:206F940042F2100001F06CF829004FF4015001F067F8290042F2500001F062F8290042F2E2
:206FB400101001F05DF8290042F2300001F058F8290042F2702001F053F829004FF419508B
:206FD40001F04EF8290042F2303001F049F82CE0002142F2100001F043F800214FF4015025
:206FF40001F03EF8002142F2500001F039F8002142F2101001F034F8002142F2300001F087
:207014002FF8002142F2702001F02AF8002142F2200001F025F800214FF4195001F020F8E4
:20703400002142F2203001F01BF8DFF8CC080078DFF8C8180978081880B200F0E9FF31BD20
:20705400000000002564000038B50400DFF8B4184878002810D12000C0B2002809D0DFF8CC
:20707400A8080470DFF8A40800684860102048703FE00020C8703CE04878102818D1486839
:207094002830DFF88828126890420DD2DFF8780802782300DBB29A4201D1047001E000202E
:2070B400C8700420487024E0CC700420487020E0487804281DD14868C830DFF85028126841
:2070D400904213D2DFF8400802782300DBB29A4205D1CA78007852EAC002CA7003E0CA78D3
:2070F40000780243CA700020487002E0CC7010204870DFF81C5828782100C9B288422ED058
:207114002C702878C00705D5002142F2106000F0A7FF05E04FF6FF7142F2106000F0A0FF56
:207134002878800705D5002142F2206000F098FF05E04FF6FF7142F2206000F091FF287870
:20715400400705D5002142F2306000F089FF07E04FF6FF7142F2306000F082FF00E02C7050
:2071740031BD00005039002054360020E036002084ED000830390020000000202DE9FE4FFF
:20719400DFF89047206880040BD5206830F400502060DFF86427DFF88017DFF88007FFF7A1
:2071B4009BFCDFF87C572878800618D54FF44251002000F040FF0E275FF00008DFF8646714
:2071D400B146424639004846FCF7A8FF5FF00E09DFF854A74A465146300001F0E5F8DFF887
:2071F4004C6796F80C08C00724D596F80C0810F0FE0086F80C08DFF800170878002802D0CC
:207214000878012816D1DFF82877DFF828070268390006F60200FEF7F5FF3880012086F86D
:207234000A08206850F0100020605FF0FF30DFF8A816086096F80C08400740F1B8801427C8
:207254005FF00008DFF8F09619F1540AD346424639005846FCF762FFDFF89CB69BF8000076
:20727400002804D09BF80000012840F09C80206830F4806020609BF80000002824D196F8AC
:207294000C08400720D5206880051DD5206830F400702060DFF880168A690869121A002AC8
:2072B40012D4DFF8580602698B6908691B1A9A420AD2DFF888060F21017340F201114184D0
:2072D400206850F00400206096F80C0810F0FB0086F80C080E20029000200190DFF844860D
:2072F4004746019A02993800FCF718FF0A200090DFF84C76009A3900404601F055F800206B
:207314008BF801004FF44251022000F094FE96F80A08012842D1042086F80A080020C9F8EA
:20733400300014275FF00008424639005046FCF7F5FEDFF8A4A5DAF80000052828DBDFF841
:20735400C8040078002823D0DFF8F875DAF800000090DFF8E00503683A0006F6020199F823
:207374002600FFF701F83880DFF8A0050168DFF8D8251160216851F0800121600068C7F80F
:20739400340A0020CAF80000012087F8230A05E0DFF878050068DFF8B01508600120DFF84F
:2073B400901581F82B0A0020DFF85C14087096F80C08800740F1C480DFF83C150878002819
:2073D40012D1DFF838251079002802D101204870B6E01079012840F0B38001204870206819
:2073F40030F004002060ABE00878012840F0A8800E275FF00008DFF82C95CA464246390054
:207414005046FCF78BFE5FF0000A5FF0000BDFF8EC040079002873D12878000670D4DFF826
:20743400100590F82B1A042904D090F82B0A022840F08680DFF8007597F86000002810D1F4
:207454004FF44251002000F0F6FDDFF8F0040F2101734FF481714184206850F0200020606E
:2074740005E0206830F0040020600120824697F8610001281CD10E27DFF8D0843A004146D7
:20749400484600F091FF45F24001A22000F069FF45F25001222000F064FF45F25011002063
:2074B40000F0C9FD45F24011002000F0C4FD15E045F24001FF2000F054FF45F25001FF2033
:2074D40000F04FFF45F25011022000F0B4FD45F24011022000F0AFFD012083465846C0B2BF
:2074F400002808D05046C0B2002804D0206850F48060206024E0206830F4806020601FE039
:2075140045F24001FF2000F02CFF45F25001FF2000F027FF0E275FF000084246390048460D
:20753400FCF7FCFD45F25011022000F084FD45F24011022000F07FFD206850F480602060DE
:2075540096F80D08000713D596F80D0810F0F70086F80D08206850F008002060012086F869
:207574000A08DFF8D8030F21017340F203114184DFF8D06396F8270AC0077BD596F8270AE5
:2075940010F0FE0086F8270ADD4FB81DFDF7B5FE00286BD0DFF8B883DFF8B8934046FDF771
:2075B40083FEA9F80000B9F80000B98888422DD12020019000200090DFF89CA3D346009A91
:2075D40001995846FCF7AAFD52462021B9F800308020434313F58063180080B2FDF756FE68
:2075F40000283FD0B888C0103844B988C9103944897980223B7913F00703D2B2DA40914346
:207614008171FDF730FEFDF7FCFD2BE0202000905FF0000A19F1040B524600995846FCF746
:207634007DFD19F104022021BB888020434313F58063180080B2FDF729FE002812D0B88868
:20765400C0103844B988C9103944897980223B7913F00703D2B2DA4091438171FDF703FE75
:20767400FDF7CFFD4046FDF748FE3880206830F04000206096F8250A01284DD1002086F8B4
:20769400250A96F8230A012846D12820019000200090B04FB846009A01994046FCF73EFD3E
:2076B400DFF85C8218F106094846FDF74CFEA8F804004846FDF747FE38803888C0104044E6
:2076D400807980213A7812F00702C9B2D14008433988C91041448871FDF7C5FDFDF791FD18
:2076F4004846FDF70AFEA8F800005FF02008DFF86C92DFF864A2D34642464946584600F065
:2077140053FE524620213B888020434313F58063180080B2FDF7BAFD914F3878C0074FD5E7
:207734002078400648D42078800745D58D480178491C0170216831F00201216001786429AA
:207754003AD100210170DFF8B88118F106094846FDF7D3FD00282FD04846FDF7A5FDA8F813
:207774000400DFF8F0A14846FDF79EFDAAF800001AF1040842462021BAF8003080204343E2
:2077940013F58063180080B2FDF746FD5FF01C0916F1020A4A464146504600F005FE1C2006
:2077B4003080206850F08000206058480068C6F8340A022086F8230A286830F0080028602C
:2077D400387802281DD14E4CA61D3000FDF795FD032816DB3000FDF790FD618880B281420F
:2077F4000FD23000FDF789FD60805448042101700F2101734FF482714184286850F0080061
:207814002860BDE8F78F0000C23900202DE9F8430024414D95F8690095F86A60360456EABC
:20783400006695F86B0056EA002695F86C0006434D48304001F05CFF80468946C6F303503C
:2078540001F056FF02000B000020484901F05EFF02000B004046494602F004FB0022444BFE
:2078740002F024FC02F0F4FCE860424FE968380002F088FE6869F968401A02F0B4FE0228CC
:2078940004DB00203870F868686102E03878401C387038780B2803DB00203870F8686861BC
:2078B400354CF8682168401A02F09DFE03280BDA6879052804DB002068712068A86107E0F5
:2078D4006879401C687103E000206871F8682060BDE8F183601D0020943900208CED00089E
:2078F40094ED0008D8EC0008A0860100E4EC000840420F0080EC0008B83900205039002061
:20791400343800207C390020C7390020AC390020C63900208439002054360020EC360020E5
:20793400A03900200000002090EC000834150020C40000208C390020E03600207038002066
:20795400F0EC0008FC0A002090390020A0EC00083A380020E0380020E4380020AC38002082
:20797400C3390020C8390020FFFF0F100000244000408F4008390020983900202DE9F0418D
:2079940004000D0016005FF001080027280080B2002860D002F05AFE002801D10020804651
:2079B4004046C0B2002808D0A02002F0E4FE02F0C1FE002801D1002080464046C0B2002876
:2079D40008D0200080B2000AC0B202F0D4FE02F0B1FE80464046C0B2002806D02000C0B23A
:2079F40002F0C9FE02F0A6FE80464046C0B2002805D002F02BFE002801D1002080464046E8
:207A1400C0B2002808D0A12002F0B5FE02F092FE002801D1002080466D1E4046C0B200286D
:207A340017D0002007003800290080B289B2884208D202F0C5FE390089B2705402F04AFE8B
:207A54007F1CF0E702F0BCFE390089B2705402F059FE02F027FE4046C0B2BDE8F0812DE938
:207A7400F04104000D00160000275FF00108280080B2002842D002F0E9FD002801D1002095
:207A940080464046C0B2002808D0A02002F073FE02F050FE002801D1002080464046C0B2D9
:207AB400002808D0200080B2000AC0B202F063FE02F040FE80464046C0B2002806D0200085
:207AD400C0B202F058FE02F035FE8046002007003800290080B289B288420DD24046C0B257
:207AF400002807D0380080B2305C02F044FE02F021FE80467F1CEBE702F0D4FD052002F02B
:207B14009CFD4046C0B2BDE8F0812DE9F04704000D00160000275FF000085FF0000A20003F
:207B340010F03F0F1BD014F03F00D0F1200007002800390080B289B2884200D22F004046AE
:207B540080B206EB0002390089B218EB040080B2FFF785FF8146ED1B17EB080801E05FF0B4
:207B740001094846C0B200281FD0280080B200281BD0202007002800390080B289B2884284
:207B940000D22F00404680B206EB0002390089B218EB040080B2FFF762FF8146ED1B17EB50
:207BB40008084846C0B20028DFD14846C0B2BDE8F087000070B403000022002400264FF6D5
:207BD400FF7000258D4214D25A5D504000221600082E0CD2C20706D580B2020048F208405B
:207BF40090EA520001E080B24008761CF0E76D1CE8E780B2C04380B270BC704730B400213A
:207C14000023002410F02D0280B2400800252900C9B2062906DAD10700D55B1C92B25208C6
:207C34006D1CF4E7D90701D550F4004080B230BC704730B4002513E050F8042BD30744BF6D
:207C5400A9F101039A18091F042942F8045BFAD213468C0744BF15809B1CC90748BF1D7067
:207C740050F8041B0029E7D130BC70472DE9FE4300250026082100226C462000FCF74EFA0B
:207C94000027644C2200082147F6F870FFF776FE05002800C0B2002814D05FF000085FF04E
:207CB400000906212000FFF785FFE18802000B0092B29BB29A4202D00022150001E00122F6
:207CD400150007E0322002F0B8FC7F1C3800C0B20328D6DB5FF000086A4608214FF4FC40CC
:207CF400FFF74CFE06003000C0B2002814D000275FF0000906216846FFF75CFFBDF806100C
:207D140002000B0092B29BB29A4202D00022160001E00122160008E0322002F08EFC18F1F2
:207D340001084046C0B20328D6DB55EA0600C0B2002809D14AF6AA2020800220608000F0FD
:207D540019F800F044F813E03000C0B2002802D100F03DF80CE02800C0B2002808D1082767
:207D7400E9463A004946200000F01EFB00F002F8BDE8F78370B500240025264E0020F08053
:207D940006213000FFF716FFF0803200082147F6F870FFF7BAFE04002000C0B2002806D0BB
:207DB400320008214FF4FC40FFF7AFFE04002000C0B2002808D1322002F03FFC6D1C28006B
:207DD400C0B20328E1DBFFE72000C0B270BD70B5002400250F4E0020F08006213000FFF7E9
:207DF400E9FEF080320008214FF4FC40FFF78DFE04002000C0B2002808D1322002F01DFCC9
:207E14006D1C2800C0B20328ECDBFFE72000C0B270BD0000743900200022FCF783B9B1F5D0
:207E3400807F02D34FF0FF3070470170012070470078401E8041C043C00F70470CB430B527
:207E540083B00A4606A90291044600250194009502AB01A9084878441E3002F0DDFC019A99
:207E7400157000284EBF04460198041B204603B030BC5DF80CFB00BFD70500002DE9FE4FD3
:207E94005020029000200190DFF80045019A02992000FCF743F9502000900024DFF8F0543B
:207EB4002E00220000993000FCF738F94FF484760027DFF8E084C1463A0031004846FCF7DF
:207ED4002DF95FF002095FF0000ADFF8CCB4524649465846FCF722F95FF4E13003F000FD37
:207EF400012003F053FD4FF4907118F1010003F087FD4FF4907115F1080003F0C4FD5FF4EC
:207F14000030DFF8981408604FF49070DFF890140860DFF89004016851F001010160BDE8EF
:207F3400F78FF0B40400002000255A260700FFB2DE55401CA5260700FFB2DE55401CFF26BC
:207F54000700FFB2DE55401C82260700FFB2DE55401C2600B6B2360A0700FFB2DE55401CC2
:207F74000600F6B29C55401C00263500EDB21700ADB2BFB2BD4208D23500EDB24D5D0700B3
:207F9400FFB2DD55401C761CEFE7C51E9D70C0B2F0BC7047F0B40400002000255A260700ED
:207FB400FFB2DE55401CA5260700FFB2DE55401CFF260700FFB2DE55401C82260700FFB28F
:207FD400DE55401C2600B6B2360A0700FFB2DE55401C0600F6B29C55401C00263500EDB2F4
:207FF4001700ADB2BFB2BD420DD200250700FFB2DD55401C3500EDB24D5D0700FFB2DD55D5
:20801400401C761CEAE7C51E9D70C0B2F0BC704770B50400DFF87C536E1C3100200080B2EC
:2080340000F032F985F8010195F8011189B2300003F0CCFC70BDF8B504000D00D54E771C2C
:208054003A00290089B2200080B200F058F986F8010196F8011189B2380003F0B7FCF1BDF4
:2080740073B50400CB4D6E1C3300022201A9E01C80B2FFF756FF85F8010195F8011189B24B
:20809400300003F0A3FC73BD2DE9F14F8AB00D0016001F00149C202100220DF10408404665
:2080B400FCF73CF85FF0000A5FF00008300003F075FD814628004946C0B2C9B288420CD22D
:2080D400A946CA465FFA8AFA00960DF1040B52460099584600F068F93EE0202000905FF0B0
:2080F400200A0DF1040B524600995846FCF716F83800C0B2002813D15FEAC97008D5290027
:20811400C9B24846C0B2091A491C4910884615E02900C9B24846C0B2091A491088460DE051
:208134003800C0B2012801D1A04607E03800C0B2022803D1281BB0EB09008046CA465FFAFB
:208154008AFA009601A84146C9B200EB010B52460099584600F028F9DFF838A21AF1010BA7
:208174005B462A00D2B292B201A9BDF82800FFF7D8FE8AF801019AF8011189B2584603F011
:2081940025FC0BB0BDE8F08F2DE9F14F8AB00D0016001F00149C202100220DF10408404656
:2081B400FBF7BCFF5FF0000A5FF00008300003F0F5FC814628004946C0B2C9B288420CD227
:2081D400A946CA465FFA8AFA00960DF1040B52460099584600F0E8F83EE0202000905FF030
:2081F400200A0DF1040B524600995846FBF796FF3800C0B2002813D15FEAC97008D52900A0
:20821400C9B24846C0B2091A491C4910884615E02900C9B24846C0B2091A491088460DE050
:208234003800C0B2012801D1A04607E03800C0B2022803D1281BB0EB09008046CA465FFAFA
:208254008AFA009601A84146C9B200EB010B52460099584600F0A8F8DFF838A11AF1010B28
:208274005B462A00D2B292B201A9BDF82800FFF791FE8AF801019AF8011189B2584603F057
:20829400A5FB0BB0BDE8F08F10B4020000205A230400E4B20B55401CA5230400E4B20B55D0
:2082B400401CFF230400E4B20B55401C82230400E4B20B55401C00230400E4B20B55401C62
:2082D40084230400E4B20B55401C5A230400E4B20B55401C01230400E4B20B55401C13002D
:2082F4009BB21B0A0400E4B20B55401C0300DBB2CA54401CC31E8B70C0B210BC704730B4E3
:20831400030000205A240500EDB25455401CA5240500EDB25455401CFF240500EDB254551D
:20833400401C82240500EDB25455401C0C00A4B2240A0500EDB25455401C0400E4B2115545
:20835400401C1C00A4B2240A0500EDB25455401C0400E4B21355401CC41E9470C0B230BCC2
:208374007047F8B504000D000A4E771C3A00290089B2200080B2FFF7C2FF86F8010196F8D4
:20839400011189B2380003F021FBF1BD9C3700204C3700204C350020B839002004000240F9
:2083B4005C0002405800024062B38B0708D0521E11F8013B00F8013B00F024808B07F6D11C
:2083D400830740F0208000BF103A07D330B4B1E83810103AA0E83810F9D230BC530724BF79
:2083F400B1E80810A0E8081044BF51F8043B40F8043BD20724BF31F8022B20F8022B44BFBC
:208414000B7803707047121F17D35B0009D151F8043B20F8023B1B0C121F20F8023BF6D2F9
:208434000BE051F8043B00F8013B1B0A20F8023B1B0C121F00F8013BF3D238BF121D521E20
:2084540024BF11F8013B00F8013BF8D870470268531C03601170704700280AD0B0FA80F194
:208474008840D1F19D01C905020672F1004241EB1020704710B5FF2313EAD0541DBF13EA51
:20849400D1529C429A4239E0A41ADA0780EA0103134042EA012142EA0020421A3CBF641EFF
:2084B40001EB4202090AB2FBF1FE01FB1E221202B2FBF1F001FB10226EF30F201202B2FB6C
:2084D400F1FE4EEA00207F3406DDFE2C24DA53EA500050EBC45010BDD4F1020401FB1E22D3
:2084F40040F08071192C1DDC21FA04F0C4F12004A140114371F10042584110BD9C421ABF2B
:2085140003EAD1529A420FE080EA010E0EF00043400004D0490016D143F0FF4010BD4900E6
:2085340008BFD343180010BD9C4205D1D21AF7D001F00041484010BD4A0212BF0846484084
:2085540000F0004010BD4AB90902B1FA81F2914044B1A418C00140F000409EE7C90141F0AB
:20857400004152420002B0FA80F4A040141B94E7FF2212EAD05C1DBF12EAD1539445934275
:208594002BE09C44D30780EA01021A4043EA002043EA0121A1FB0030C04238BF40007CF12D
:2085B4007F010BDBFE294ADA5B0842EAC15153EA006373F1004C51EB10207047D1F1080C0C
:2085D400DCF120012FDB5B0810FA01F10B4320FA0CF073F100415041704794451CBF02EA3F
:2085F400D153934280EA010202F000421DD0400019D0490017D05BB9634514D00902B1FA31
:2086140081F39940BCEB030CC00140F00040C1E70002B0FA80FC10FA0CF0B3EB0C0CC901BC
:2086340041F00041B6E71000704740000AD0490008D010F1807F94BF11F1807F02E042F0AD
:20865400FF407047D0437047C0F3C7517E390EDDC217D1F1200106DD000240F00040C840C0
:20867400104450407047D04380F000407047002070472E000300002013F0030F09D0521E4B
:2086940022BF13F8010B11F801CBB0EB0C00F3D0704711F0030F14D1121F22BF53F8040B74
:2086B40051F804CB6045F7D0121D0AD200BA9CFA8CFCB0EB0C0038BF6FF0000088BF0120DA
:2086D4007047521E22BF13F8010B11F801CBB0EB0C00F6D0521C08BF1046704780B501208D
:2086F40003F078FA03F07EFA012003F021FB612003F0E4FB0028FAD04FF4007003F01DFB63
:20871400012003F01FFB03F071FC03F06AFC0021012003F025FC03F064FC49F63F4003F004
:2087340051FC03F05EFC01BD10B5040003F059FC03F05CFC03F055FC2100C9B2012003F07D
:208754000FFC03F04EFC10BD10B50400012003F041FA03F046FC200003F027FC03F041FC3D
:2087740010BD43004FF4C0414843401C0100481E0029FBD1704710B503F03CFA5FF48030A6
:2087940003F058FA03F073FA04002000C0B201282BD1002003F0A8FA002003F0B5FA4FF4AB
:2087B400806003F0A9FA4FF4404003F0B9FA002003F0B3FA022003F047FC102003F04DFC42
:2087D4005FF400115FF4803003F070FA012003F079FA392003F072FB0028FAD0022003F07A
:2087F40076FA03F07CFA0828FBD110BD10B504002100C9B245F23D0003F023FB2100C9B23D
:20881400012003F010FB2100C9B2DFF8400C03F026FB10BD80B54FF480415FF0006003F0AA
:2088340061FC4FF4A06003F025FC01BD1CB5042100226C462000FBF771FC0121DFF8600A06
:2088540003F0EDFC10208DF8030003208DF80200DFF8500A8188ADF800106946006803F0CD
:2088740065FCDFF8780B8188ADF800106946006803F05CFCDFF8680B8188ADF80010694652
:20889400006803F053FC13BD70B5FFF774FFFFF7C1FF0120FFF7AAFFFFF7C8FF03F006FD93
:2088B40003F0AAFDDFF8FC49A088216808614FF4FA70FFF757FF03F0C0FDDFF8205BA888A9
:2088D400296808614FF4FA70FFF74CFF03F0B5FDFFF7D4FADFF8086BB088316808614FF46C
:2088F400FA70FFF73FFF03F0A8FD01F081FE03F0B5FD03F033FEFCF784FC03F03FFE03F05F
:208914009CFDFCF78DFB03F065FF01F0B5FCA0882168486104F04EF8A88829684861FFF742
:20893400DDFE0120FFF700FFB0883168486104F07BF8DFF81C0BFCF72FFD62B670BD10B52A
:20895400DFF8101B0878800740F11881DFF8080B0268521C02600A6832F002020A60DFF833
:20897400F02A9278D20700F1A1800A78920607D4DFF8E82A1268120502D40978090605D525
:20899400DFF820198A8809680A6104E0DFF814198A8809684A61DFF8C41A0A68520505D557
:2089B400DFF8382A93881268136104E0DFF82C2A9388126853610A68D20305D5DFF8202AC5
:2089D40093881268136104E0DFF8142A9388126853610A78520714D5DFF8842ADFF8843A5A
:2089F4001B685360DFF8803A1C78240701D404241C700B6833F004030B60936853F4807317
:208A140093600A78920614D5DFF8542ADFF8543A1B685360DFF8503A1C78240701D404243F
:208A34001C700B6833F020030B60936853F4807393600A78120714D5DFF8242ADFF8243A6C
:208A54001B685360DFF8203A1C78240701D404241C700B6833F008030B60916851F4807118
:208A74009160DFF8FC198A68D20540F185800078C00705D5DFF82C0882880068026104E029
:208A9400DFF8200882880068426148683230DFF8D429126890426FD2DFF8080882880068E2
:208AB4004261886830F48070886065E0DFF8B019086800280BD1DFF8EC078288006802611B
:208AD400DFF8A00900684860012008601CE0086802280BD1DFF80409828800680261DFF867
:208AF400840900684860042008600DE0086808280AD1DFF8EC08828800680261DFF86409ED
:208B14000068486010200860086801280FD1486810F5C870DFF84C291268904207D2DFF8EB
:208B340084078288006842610220086024E0086804280FD1486810F5C870DFF828291268E8
:208B5400904207D2DFF894088288006842610820086011E0086810280ED1486810F5C870D9
:208B7400DFF800291268904206D2DFF874088288006842610020086003F05FFC10BD10B5ED
:208B9400DFF8D8080168C90414D5016831F48051016003F0A4FFC0B2FEF756FADFF8904A2D
:208BB400200003F08EFB2078012803D100202070FCF736FA10BDF8B5DFF8784A0721200042
:208BD40004F0C1F8002818D00721200004F0C9F84FF4165004F016F90A20FFF7C3FD04F047
:208BF40057F93C250026DFF880482700320029003800FBF793FA00202070DFF86C482078DF
:208C1400012802D02078022811D1002020700020A070207810F0F700207014F1260003F084
:208C340089FE002803D0002020700020A0702078400710D5207810F0FB002070DFF82408D4
:208C54000068A060628C0021207B03F098FE207850F008002070207800071DD5A06810F557
:208C7400FA60DFF800180968884215D2A078401CA070A078032807D10020A070DFF8B8090E
:208C9400016851F010010160207810F0F7002070207850F0040020702078C00701D50020C4
:208CB400A070F1BD10B5DFF894490721200004F04AF800280AD004F047FA0721200004F078
:208CD40050F80A20FFF74EFD01F0D6FADFF87049A068012802D0A06804283CD10020A06018
:208CF40000206070A06830F02000A0605FF40010DFF8501908604FF49070DFF84C19086036
:208D1400DFF84809016851F001010160A06D09280ED314F1540001F0D0FB00281BD0DFF8EC
:208D34001809016831F020010160FEF76FFD12E0A06D08280FD1DFF82407016831F4803141
:208D54000160DFF8F408016831F020010160207910F0FE002071DFF8F80890F80C0880079D
:208D740001D460692061A068082817D1DFF8F4060068E0612079002804D114F1200001F07A
:208D9400BEFB09E014F1200001F0D2FBDFF8CC06016851F4803101602020A060A068202841
:208DB40018D1DFF8C006E16914310268914211D26178491C61700068E0616078152807DBBB
:208DD40000206070DFF87008016851F0200101600820A060207AC00701D500206070DFF8EE
:208DF40058080078800605D52078012807D00120207004E02078002801D00020207010BDEC
:208E14002DE9F047DFF84C480721200003F09BFF002810D00721200003F0A3FF0721200084
:208E340003F09FFF4FF4164004F0F0F90A20FFF799FC04F042FADFF8204894F82C0005280E
:208E540004D094F82C00062840F08E804FF4BE6846460027DFF80458A9463A0031004846CF
:208E7400FBF75CF914F12C09AA46424649465046FFF79AFA002084F82C0000206086002048
:208E940084F82E00002020860020C4F81006E8880B285CDB5FF000085FF00009E8882844F7
:208EB400C688E988091F15F10A00FEF783FE07003000390080B289B2884232D1DFF8A08789
:208ED40098F80000C0070BD5DFF8980790F82C0A012820D1E98815F1080004F0CAFA1AE0C8
:208EF40000206070287C302815D1DFF8641715F10800FCF782FAE87E002806D0D8F8000089
:208F140050F48070C8F8000005E0D8F8000030F48070C8F80000D8F8000030F40060C8F8AC
:208F3400000020202070DFF83C050068A062DFF83857286880B2FEF761FE28600A2029680C
:208F54002A68B2FBF0F200FB121014306062002084F82C0000206086002084F82E00002001
:208F740020860020C4F81006207840070CD5DFF8FC064078032814D008202070DFF8E4046E
:208F9400006803F012FC0CE02078202809D1A16A606A4118DFF8CC040068814201D20420B7
:208FB4002070207800071AD5DFF8B804A16A64310268914213D20068A0626078401C6070BC
:208FD400207850F0040020706078062807DB00206070DFF88C06016851F400610160BDE8BB
:208FF400F0872DE9F047DFF888460721200003F0AAFE002821D00721200003F0B2FE0021EC
:20901400002004F01EFA0A20FFF7ACFB4FF4BE650026DFF860462700320029003800FBF794
:209034007DF8002020705FF4E13004F0A1F904F0F7F90021012004F004FADFF8388698F8C8
:209054000000052804D098F80000062840F082804FF4BE673D000026DFF81C46A1463200EE
:2090740029004846FBF75AF8C146A2463A0049465046FFF799F9002088F800000020A8F8AB
:209094000600002088F802000020A8F804000020C8F8E405DFF8D4054178022901D10321FD
:2090B4004170E0880B284ADB00275FF00008E0882044C588E188091F14F10A00FEF77AFD88
:2090D40006002800310080B289B2884237D1DFF88C733878C0071AD5DFF8880590F82C0A80
:2090F400012805D1E18814F1080004F015F9FFE7E07C002823D1207CFE2820D10520FFF7B9
:2091140031FBDFF87805DFF87815086017E05FF00008E18814F10800FCF779FC010089B287
:2091340000290CD0217C232909D0217C222906D0E17B552903D0396851F01001396000203D
:2091540020700020E0800020A0700020A0800020C4F8E405C14C2078C00625D5206830F0A9
:2091740010002060DFF8FC542988A81C04F081F9BC480068C5F8340A206850F4004020604E
:2091940095F8280A042807D10520FFF7EBFADFF8EC04DFF8EC14086095F8280AFE2803D139
:2091B400206850F0010020602068000434D5AD49DFF8B004D0F8342A50320B689A422BD248
:2091D40090F82A2A012A1DD190F8292A022A0CDA0968C0F8341A216851F01001216090F83E
:2091F400291A491C80F8291A12E0002280F82A2A002280F8292A0968C0F8341A022180F819
:209214002B1A05E0002280F8292A0968C0F8341A206830F400402060207800060DD5206838
:2092340030F080002060DFF85C040188801C04F020F9206850F040002060207840062CD52A
:20925400DFF840548748D5F8341A64310268914223D295F8291A02290CDA95F8291A491CC8
:2092740085F8291A0068C5F8340A206850F0800020600EE0002085F8290A2E88AF1CDFF8D9
:209294000884320039004046FFF78EF8012085F8250A206830F040002060BDE8F087000070
:2092B40000023000C4ED0008F8B5DFF8E0430721200003F048FD002837D002F02FFC052017
